{
  "_format": "hh-sol-artifact-1",
  "contractName": "Warriors",
  "sourceName": "contracts/MVP/Warriors.sol",
  "abi": [
    {
      "inputs": [
        {
          "internalType": "address",
          "name": "_controller",
          "type": "address"
        }
      ],
      "stateMutability": "nonpayable",
      "type": "constructor"
    },
    {
      "anonymous": false,
      "inputs": [
        {
          "indexed": true,
          "internalType": "address",
          "name": "owner",
          "type": "address"
        },
        {
          "indexed": true,
          "internalType": "address",
          "name": "approved",
          "type": "address"
        },
        {
          "indexed": true,
          "internalType": "uint256",
          "name": "tokenId",
          "type": "uint256"
        }
      ],
      "name": "Approval",
      "type": "event"
    },
    {
      "anonymous": false,
      "inputs": [
        {
          "indexed": true,
          "internalType": "address",
          "name": "owner",
          "type": "address"
        },
        {
          "indexed": true,
          "internalType": "address",
          "name": "operator",
          "type": "address"
        },
        {
          "indexed": false,
          "internalType": "bool",
          "name": "approved",
          "type": "bool"
        }
      ],
      "name": "ApprovalForAll",
      "type": "event"
    },
    {
      "anonymous": false,
      "inputs": [
        {
          "indexed": true,
          "internalType": "address",
          "name": "from",
          "type": "address"
        },
        {
          "indexed": true,
          "internalType": "address",
          "name": "to",
          "type": "address"
        },
        {
          "indexed": true,
          "internalType": "uint256",
          "name": "tokenId",
          "type": "uint256"
        }
      ],
      "name": "Transfer",
      "type": "event"
    },
    {
      "anonymous": false,
      "inputs": [
        {
          "indexed": true,
          "internalType": "address",
          "name": "owner",
          "type": "address"
        },
        {
          "indexed": true,
          "internalType": "uint256",
          "name": "warriorId",
          "type": "uint256"
        }
      ],
      "name": "WarriorGenerated",
      "type": "event"
    },
    {
      "inputs": [
        {
          "internalType": "address",
          "name": "to",
          "type": "address"
        },
        {
          "internalType": "uint256",
          "name": "tokenId",
          "type": "uint256"
        }
      ],
      "name": "approve",
      "outputs": [],
      "stateMutability": "nonpayable",
      "type": "function"
    },
    {
      "inputs": [
        {
          "internalType": "address",
          "name": "owner",
          "type": "address"
        }
      ],
      "name": "balanceOf",
      "outputs": [
        {
          "internalType": "uint256",
          "name": "",
          "type": "uint256"
        }
      ],
      "stateMutability": "view",
      "type": "function"
    },
    {
      "inputs": [
        {
          "internalType": "bytes32",
          "name": "c__0x487c9247",
          "type": "bytes32"
        }
      ],
      "name": "c_0x487c9247",
      "outputs": [],
      "stateMutability": "pure",
      "type": "function"
    },
    {
      "inputs": [
        {
          "internalType": "bytes32",
          "name": "c__0xe784d46f",
          "type": "bytes32"
        }
      ],
      "name": "c_0xe784d46f",
      "outputs": [],
      "stateMutability": "pure",
      "type": "function"
    },
    {
      "inputs": [],
      "name": "controller",
      "outputs": [
        {
          "internalType": "address",
          "name": "",
          "type": "address"
        }
      ],
      "stateMutability": "view",
      "type": "function"
    },
    {
      "inputs": [
        {
          "internalType": "uint256",
          "name": "_gene",
          "type": "uint256"
        },
        {
          "internalType": "address",
          "name": "_owner",
          "type": "address"
        }
      ],
      "name": "generateWarrior",
      "outputs": [],
      "stateMutability": "nonpayable",
      "type": "function"
    },
    {
      "inputs": [
        {
          "internalType": "uint256",
          "name": "tokenId",
          "type": "uint256"
        }
      ],
      "name": "getApproved",
      "outputs": [
        {
          "internalType": "address",
          "name": "",
          "type": "address"
        }
      ],
      "stateMutability": "view",
      "type": "function"
    },
    {
      "inputs": [
        {
          "internalType": "uint256",
          "name": "_warriorId",
          "type": "uint256"
        }
      ],
      "name": "getWarrior",
      "outputs": [
        {
          "internalType": "uint256",
          "name": "warrior",
          "type": "uint256"
        }
      ],
      "stateMutability": "view",
      "type": "function"
    },
    {
      "inputs": [
        {
          "internalType": "address",
          "name": "owner",
          "type": "address"
        },
        {
          "internalType": "address",
          "name": "operator",
          "type": "address"
        }
      ],
      "name": "isApprovedForAll",
      "outputs": [
        {
          "internalType": "bool",
          "name": "",
          "type": "bool"
        }
      ],
      "stateMutability": "view",
      "type": "function"
    },
    {
      "inputs": [],
      "name": "name",
      "outputs": [
        {
          "internalType": "string",
          "name": "",
          "type": "string"
        }
      ],
      "stateMutability": "view",
      "type": "function"
    },
    {
      "inputs": [
        {
          "internalType": "uint256",
          "name": "tokenId",
          "type": "uint256"
        }
      ],
      "name": "ownerOf",
      "outputs": [
        {
          "internalType": "address",
          "name": "",
          "type": "address"
        }
      ],
      "stateMutability": "view",
      "type": "function"
    },
    {
      "inputs": [
        {
          "internalType": "address",
          "name": "from",
          "type": "address"
        },
        {
          "internalType": "address",
          "name": "to",
          "type": "address"
        },
        {
          "internalType": "uint256",
          "name": "tokenId",
          "type": "uint256"
        }
      ],
      "name": "safeTransferFrom",
      "outputs": [],
      "stateMutability": "nonpayable",
      "type": "function"
    },
    {
      "inputs": [
        {
          "internalType": "address",
          "name": "from",
          "type": "address"
        },
        {
          "internalType": "address",
          "name": "to",
          "type": "address"
        },
        {
          "internalType": "uint256",
          "name": "tokenId",
          "type": "uint256"
        },
        {
          "internalType": "bytes",
          "name": "_data",
          "type": "bytes"
        }
      ],
      "name": "safeTransferFrom",
      "outputs": [],
      "stateMutability": "nonpayable",
      "type": "function"
    },
    {
      "inputs": [
        {
          "internalType": "address",
          "name": "operator",
          "type": "address"
        },
        {
          "internalType": "bool",
          "name": "approved",
          "type": "bool"
        }
      ],
      "name": "setApprovalForAll",
      "outputs": [],
      "stateMutability": "nonpayable",
      "type": "function"
    },
    {
      "inputs": [
        {
          "internalType": "bytes4",
          "name": "interfaceId",
          "type": "bytes4"
        }
      ],
      "name": "supportsInterface",
      "outputs": [
        {
          "internalType": "bool",
          "name": "",
          "type": "bool"
        }
      ],
      "stateMutability": "view",
      "type": "function"
    },
    {
      "inputs": [],
      "name": "symbol",
      "outputs": [
        {
          "internalType": "string",
          "name": "",
          "type": "string"
        }
      ],
      "stateMutability": "view",
      "type": "function"
    },
    {
      "inputs": [
        {
          "internalType": "uint256",
          "name": "tokenId",
          "type": "uint256"
        }
      ],
      "name": "tokenURI",
      "outputs": [
        {
          "internalType": "string",
          "name": "",
          "type": "string"
        }
      ],
      "stateMutability": "view",
      "type": "function"
    },
    {
      "inputs": [],
      "name": "token_version",
      "outputs": [
        {
          "internalType": "string",
          "name": "",
          "type": "string"
        }
      ],
      "stateMutability": "view",
      "type": "function"
    },
    {
      "inputs": [
        {
          "internalType": "address",
          "name": "from",
          "type": "address"
        },
        {
          "internalType": "address",
          "name": "to",
          "type": "address"
        },
        {
          "internalType": "uint256",
          "name": "tokenId",
          "type": "uint256"
        }
      ],
      "name": "transferFrom",
      "outputs": [],
      "stateMutability": "nonpayable",
      "type": "function"
    },
    {
      "inputs": [
        {
          "internalType": "address",
          "name": "_newController",
          "type": "address"
        }
      ],
      "name": "updateController",
      "outputs": [],
      "stateMutability": "nonpayable",
      "type": "function"
    },
    {
      "inputs": [],
      "name": "warriorCounter",
      "outputs": [
        {
          "internalType": "uint256",
          "name": "",
          "type": "uint256"
        }
      ],
      "stateMutability": "view",
      "type": "function"
    }
  ],
  "bytecode": "0x60806040523480156200001157600080fd5b50604051620059c0380380620059c08339818101604052810190620000379190620004cf565b6040518060400160405280600881526020017f57617272696f72730000000000000000000000000000000000000000000000008152506040518060400160405280600381526020017f5752540000000000000000000000000000000000000000000000000000000000815250620000d77f921f8621fd5c32402e57193152f55e928db308c31fbcd2e902273e06e2901acc60001b6200040260201b60201c565b6200010b7f1f2814cc2c38053f108d3f6445993d0accade86bec3a6b33be20447c2932bf2960001b6200040260201b60201c565b6200013f7fa17246ebf364a8028881535e7399b8facd4f9356527276f5171e8ca9a9fabcd560001b6200040260201b60201c565b81600090805190602001906200015792919062000408565b506200018c7f749ec21c78cfd7157253ca7ff9a35916136a43da1bcaee7e85c882cecad8763660001b6200040260201b60201c565b620001c07f6379c3e4e48662a3ac2991b0d0fe33a45861c73228c91e7668138fbedd2ab4b760001b6200040260201b60201c565b8060019080519060200190620001d892919062000408565b5050506200020f7f5c05f60c4713e787318b3cbbe5e6c8be3272dc91fe3e48693057f981f0096d9d60001b6200040560201b60201c565b620002437f1aa3fe009ea7e0f0f2ab63da08fa523395b32046f40e1c33d5824785f714a5f260001b6200040560201b60201c565b620002777f40e46eb362cde14d8ec1b300b8aad38ac6699bee59950887cfb70f3ba9a176c160001b6200040560201b60201c565b620002ab7ff73e75f66f868fbb95ab137cce01ba7a8499e8a191a3ae44406a4447848af0df60001b6200040560201b60201c565b600073ffffffffffffffffffffffffffffffffffffffff168173ffffffffffffffffffffffffffffffffffffffff1614156200031e576040517f08c379a0000000000000000000000000000000000000000000000000000000008152600401620003159062000528565b60405180910390fd5b620003527f3d5df4d1d8c4347ef74911d50973de8fb67f8d903186e5654e91465586ebdbad60001b6200040560201b60201c565b620003867fd06937c743d54a81826537038a88671713942c851701e2d72e2b7bbb573059e060001b6200040560201b60201c565b620003ba7f5d8a32622e5e5c6688894911bc4bcc88791a9226ce09d15a3bceaa12489a353260001b6200040560201b60201c565b80600660006101000a81548173ffffffffffffffffffffffffffffffffffffffff021916908373ffffffffffffffffffffffffffffffffffffffff1602179055505062000662565b50565b50565b82805462000416906200058f565b90600052602060002090601f0160209004810192826200043a576000855562000486565b82601f106200045557805160ff191683800117855562000486565b8280016001018555821562000486579182015b828111156200048557825182559160200191906001019062000468565b5b50905062000495919062000499565b5090565b5b80821115620004b45760008160009055506001016200049a565b5090565b600081519050620004c98162000648565b92915050565b600060208284031215620004e857620004e7620005f4565b5b6000620004f884828501620004b8565b91505092915050565b6000620005106033836200054a565b91506200051d82620005f9565b604082019050919050565b60006020820190508181036000830152620005438162000501565b9050919050565b600082825260208201905092915050565b600062000568826200056f565b9050919050565b600073ffffffffffffffffffffffffffffffffffffffff82169050919050565b60006002820490506001821680620005a857607f821691505b60208210811415620005bf57620005be620005c5565b5b50919050565b7f4e487b7100000000000000000000000000000000000000000000000000000000600052602260045260246000fd5b600080fd5b7f57617272696f72733a20436f6e74726f6c6c657220616464726573732063616e60008201527f6e6f74206265207a65726f206164647265737300000000000000000000000000602082015250565b62000653816200055b565b81146200065f57600080fd5b50565b61534e80620006726000396000f3fe608060405234801561001057600080fd5b50600436106101375760003560e01c80637e5b7be9116100b8578063b71df9891161007c578063b71df9891461034a578063b88d4fde14610366578063c87b56dd14610382578063d0b96ef9146103b2578063e985e9c5146103d0578063f77c47911461040057610137565b80637e5b7be9146102ba5780637fdaa734146102d657806395d89b41146102f457806398f1112f14610312578063a22cb4651461032e57610137565b806323b872dd116100ff57806323b872dd146101f257806329372ad01461020e57806342842e0e1461023e5780636352211e1461025a57806370a082311461028a57610137565b806301ffc9a71461013c57806306cb5b661461016c57806306fdde0314610188578063081812fc146101a6578063095ea7b3146101d6575b600080fd5b610156600480360381019061015191906141ec565b61041e565b60405161016391906146a7565b60405180910390f35b61018660048036038101906101819190613ffc565b610584565b005b610190610903565b60405161019d91906146c2565b60405180910390f35b6101c060048036038101906101bb9190614246565b610a19565b6040516101cd9190614640565b60405180910390f35b6101f060048036038101906101eb919061417f565b610bd2565b005b61020c60048036038101906102079190614069565b610f25565b005b61022860048036038101906102239190614246565b6110b9565b6040516102359190614944565b60405180910390f35b61025860048036038101906102539190614069565b61124e565b005b610274600480360381019061026f9190614246565b6112f2565b6040516102819190614640565b60405180910390f35b6102a4600480360381019061029f9190613ffc565b611531565b6040516102b19190614944565b60405180910390f35b6102d460048036038101906102cf91906141bf565b61171e565b005b6102de611721565b6040516102eb91906146c2565b60405180910390f35b6102fc61175a565b60405161030991906146c2565b60405180910390f35b61032c600480360381019061032791906141bf565b611870565b005b6103486004803603810190610343919061413f565b611873565b005b610364600480360381019061035f9190614273565b611b80565b005b610380600480360381019061037b91906140bc565b61216e565b005b61039c60048036038101906103979190614246565b612304565b6040516103a991906146c2565b60405180910390f35b6103ba612537565b6040516103c79190614944565b60405180910390f35b6103ea60048036038101906103e59190614029565b61253d565b6040516103f791906146a7565b60405180910390f35b610408612655565b6040516104159190614640565b60405180910390f35b600061044c7fb0980015ba985cff464f16729b34bfdaea652c64f1928a5ccebd38956fecdcdd60001b611870565b6104787faddf335fa1b7985a5c8434afdcbb85a7aab4a5d672e16b5de36d53751a02ab5660001b611870565b6104a47f1a0b9724338b0324727f1121c49ed13ed2ba55cc4827e315e379b05e40a1e84960001b611870565b7f80ac58cd000000000000000000000000000000000000000000000000000000007bffffffffffffffffffffffffffffffffffffffffffffffffffffffff1916827bffffffffffffffffffffffffffffffffffffffffffffffffffffffff1916148061056d57507f5b5e139f000000000000000000000000000000000000000000000000000000007bffffffffffffffffffffffffffffffffffffffffffffffffffffffff1916827bffffffffffffffffffffffffffffffffffffffffffffffffffffffff1916145b8061057d575061057c8261267b565b5b9050919050565b6105b07feb8f161bc75d2149787b8fa0801298221bc45521497149ffb3cef8f082ac2ce960001b61171e565b6105dc7f84790fb01eabaef7135166da0fea96d3b1325f63ad3b890686250c0e7a79f05860001b61171e565b6106087f59deb2feb46c6bddcc11ab8ce9432813c44753116b52ced1de3882ccaa61f5da60001b61171e565b6106347fe5bd0205f5d17c094b916b48c3ebee699048fccc15be0a2d336208919b29659760001b61171e565b600660009054906101000a900473ffffffffffffffffffffffffffffffffffffffff1673ffffffffffffffffffffffffffffffffffffffff163373ffffffffffffffffffffffffffffffffffffffff16146106c4576040517f08c379a00000000000000000000000000000000000000000000000000000000081526004016106bb906148e4565b60405180910390fd5b6106f07f29af05c41342a0fc4255a8638f1d12aaec05145ec434dacaeb71072aca23fec960001b61171e565b61071c7f9f690a6b1bc9fcd43787d3046559457a642dc440375804abc95bafa6095e081860001b61171e565b6107487f30b978f1b3b8b64dc57a0e38d0e5764d25258eb7a404469049a06b0afb37a05460001b61171e565b6107747f7cbb50bcd7a2ce2e3648b41c38a6c23ead08289ca26952d1cccf4f724ef15d0760001b61171e565b6107a07f52a515e5ed6e4d89c55900348d2b75021e63143da27d3c1abf0dd7eb1d2dc80560001b61171e565b6107cc7f3e3de718bb3ecbc6b2394f57755b77c4ad898113c13d48c3d988561f00741cd860001b61171e565b600073ffffffffffffffffffffffffffffffffffffffff168173ffffffffffffffffffffffffffffffffffffffff16141561083c576040517f08c379a000000000000000000000000000000000000000000000000000000000815260040161083390614784565b60405180910390fd5b6108687f1df0576545cd665cfb8cf6a6764d3d31b825e2f84215ea3160ac060c4c62bc6c60001b61171e565b6108947fa56eb217753da9ffd7ca33a52e8417e5f10f7ccf4ccb62737929da9e22f0db1960001b61171e565b6108bf7e4d54f9378731aea10543ed0c81b0cb89f95cbc9efb6bbdc6231470e890e5b560001b61171e565b80600660006101000a81548173ffffffffffffffffffffffffffffffffffffffff021916908373ffffffffffffffffffffffffffffffffffffffff16021790555050565b60606109317ff92162635707c7c17d8f049f9daf8bd9f4e93216b57c309ff81960f1fbb0b11160001b611870565b61095d7f04f3cfebfaa8d6509a696c6909c647507e59cd31cdc79a6c1f7686303cb81d5b60001b611870565b6109897f885802476cbe3660ef256c202dec4e3260b7fc035225736d78f784997708fa7360001b611870565b6000805461099690614b73565b80601f01602080910402602001604051908101604052809291908181526020018280546109c290614b73565b8015610a0f5780601f106109e457610100808354040283529160200191610a0f565b820191906000526020600020905b8154815290600101906020018083116109f257829003601f168201915b5050505050905090565b6000610a477f40750e10700bb2f7ebd5b376810bd1cac285b66c983bcdfd7c1e59fc33c4394560001b611870565b610a737feb92bb5ab5e24556b29c01cf396f638d301df908a125d76d5a8a0092e82ad33860001b611870565b610a9f7f1aca67dea6e39fa9e66356197e24742dc9b50c60dd139c0d6ed54e1113c5eb3a60001b611870565b610acb7f1c819e0c46041878ef5a330fb73ca5e9437717a6fcc710447dde46fe5d1cb72e60001b611870565b610ad4826126e5565b610b13576040517f08c379a0000000000000000000000000000000000000000000000000000000008152600401610b0a90614844565b60405180910390fd5b610b3f7fa0a69e8d08d51c5e636ffcbb76c6394f2a8f6b37fe486d313aca7808ef792a5c60001b611870565b610b6b7f2f4468829a23db790680505bf005e95974409be05b286d633fa63fd4b1ffba9a60001b611870565b610b977f435ebeffa5bb32a4aee20c279c56195ef0f9f30d957fce720293e847c8db35d060001b611870565b6004600083815260200190815260200160002060009054906101000a900473ffffffffffffffffffffffffffffffffffffffff169050919050565b610bfe7fe86d31caa909722eadcb676c24c6be412c3f9d997b0781e32d5606cf44982af960001b611870565b610c297e83a7cbbb5f55f7dd12ed93bc6f5e5b4ae6d49780bde7ef9ec36800c130ae5260001b611870565b610c557fbed0dbf20f7a546076dd7e647aeaadff9b659acf32cfa8db01d3e97c0fa7ab4460001b611870565b6000610c60826112f2565b9050610c8e7fac0ee51b88eda759d367a61081b71b16ad7114ebb65348fb17e751654b900afb60001b611870565b610cba7f9de8895a2a2172f71f13de0f832bff5f86030e3f64247653046606f46648d55760001b611870565b610ce67f55677c8fb7d7f3e16efc80998408508041c46b839e4c5b52e226b90e463cd18860001b611870565b8073ffffffffffffffffffffffffffffffffffffffff168373ffffffffffffffffffffffffffffffffffffffff161415610d55576040517f08c379a0000000000000000000000000000000000000000000000000000000008152600401610d4c906148a4565b60405180910390fd5b610d817fe3d45a1141a58a907835c2a59873ed6a5f646e375966c56cc1eb0272d050669b60001b611870565b610dad7f898c3b683cca0bafa525122213064852d05ef0a673abadb1c5ecb02514c50f3860001b611870565b610dd97f123efccfcbc52075d75ef90ebdbffa30c1595ce74fbf63807f48a25a6222e0d460001b611870565b610e057f3ca106fcd1a04628da00d0d7e3ee3459721e332fbf1ec990be8e8a39f0f96af660001b611870565b8073ffffffffffffffffffffffffffffffffffffffff16610e246127d6565b73ffffffffffffffffffffffffffffffffffffffff161480610e535750610e5281610e4d6127d6565b61253d565b5b610e92576040517f08c379a0000000000000000000000000000000000000000000000000000000008152600401610e89906147a4565b60405180910390fd5b610ebe7f5146afa06c5820d0a464311bf50d35fc3372d08e4248ed6bb3dc073456c4808760001b611870565b610eea7f0e078bed2d2f6bdba81ddd83010ee42979a34a194170b4f221a7a6c4cb5e892660001b611870565b610f167f269fda7dc0191537cb6b92cbc2a3298e84bf63bcd9c6df1b1d29a2ef1734d51460001b611870565b610f2083836127de565b505050565b610f517fec0084b8a8d4424db5757ca1107737fd6d248458fd19477d8225a52a6dbce2d760001b611870565b610f7d7fc1c12688b2fd9ca8bea2887f2f52edec3978912dfa72184548199f4590b9472860001b611870565b610fa97f676f8204495c23c83dc1bebdd22ac82a40d6fbaf821673ba0b0c5cec3441944360001b611870565b610fd57fbd9bed326322a92000df73aed9806e38b6de40f278056979637399785e8fc10c60001b611870565b610fe6610fe06127d6565b82612973565b611025576040517f08c379a000000000000000000000000000000000000000000000000000000000815260040161101c906148c4565b60405180910390fd5b6110517f935cd2aafc0b4663dbfc698853dddaa256c9ba23ca823b083110e35fd1873fc160001b611870565b61107d7f158e6045defd9d86f78f108caf6afd663d001d61f71b59d3f096a4b473a74a1e60001b611870565b6110a97fe3f32e8c3b9958608087b0d3439fe813ff5baaf34029fcf97533ce14ad31bb1d60001b611870565b6110b4838383612bdd565b505050565b60006110e77fff9cda42644aa36d0c71c565d3e8b22da4debcc8270668037fda45949ecb1a2a60001b61171e565b6111137f6ed211b65b19b8e2ea2e444f030be2f1fe604e39601e9de788a71a5f71aa196860001b61171e565b61113f7f27972f320e8f96805178636f5b337bf3076d7a9385fd51bf90b55dac6bca507360001b61171e565b600760008381526020019081526020016000205490506111817fa25dbbf62ba341f15f80d2a7f745e85d01d524f2b6f4ad4baac836a11569f5bd60001b61171e565b6111ad7f8934ee336ba3d1596c38edd480663c6c308385f27d603d13b7e4884124d369fb60001b61171e565b6111d97f410c729f1208da891bf69e3ed4239db4a6467f767cb21e866272cee78dd05edc60001b61171e565b600081141561121d576040517f08c379a000000000000000000000000000000000000000000000000000000000815260040161121490614924565b60405180910390fd5b6112497f94e83d8a28671a9637faeb4bd510c1595766ea97212f2803b607d28f5eb6720060001b61171e565b919050565b61127a7f9caeb6e2f2348301314daffba1f7a1d9414b06b08cb6225d49fd39ad1110274060001b611870565b6112a67f152eafef9a9099d7373bfadf7dc9d726b50d7087859ebde2fdd8ef862031e38560001b611870565b6112d27fedc7b04e443202c0c61785ea4917400c6933b4e21e26d714dbb5faf6d015ba1960001b611870565b6112ed8383836040518060200160405280600081525061216e565b505050565b60006113207f4930f87333821066d5a82bbbf263329eeea64611f0b756e10f28abef8eff790760001b611870565b61134c7fe2d8e4a3958709a356876d3b2dadac87c9b81b8feee17df29544af37732111c960001b611870565b6113787fa3e8dcc95c86052eb958ff643917b2627390d97dc6e26f1ae85ac8268b6514e360001b611870565b60006002600084815260200190815260200160002060009054906101000a900473ffffffffffffffffffffffffffffffffffffffff1690506113dc7f05843da217020d5c1dd624ab5e0cb56f7b1d156ecc672341eb929f1aecd3a77260001b611870565b6114087f11bfe53675e75fb6751cf8e670620ac4dee0ca68f7b7d893abed19c2ba14844260001b611870565b6114347f4290b643b9f848a0e1aee6c45fbbf621f1294d3694a7c9b731c6343fa63af4ef60001b611870565b600073ffffffffffffffffffffffffffffffffffffffff168173ffffffffffffffffffffffffffffffffffffffff1614156114a4576040517f08c379a000000000000000000000000000000000000000000000000000000000815260040161149b906147e4565b60405180910390fd5b6114d07f4163cdc751c7b7784507f3c7b9e4585cbfaaff768747d7a4bd9e24ee496a898f60001b611870565b6114fc7f6b4b0c9817845e42fc2dd8311e7f9d671ce0538c4e172dd10cf3d03109771b4e60001b611870565b6115287fd73719ea6c03b7dacae5817b9b494a822d8160dde916f5506cc695e5242bc83860001b611870565b80915050919050565b600061155f7f706564160d325a6e3ce6373d06611affbd4f28f2dff1402c10dc95ef590e13e060001b611870565b61158b7fda9f04639fef093d1526d4bec7220533c1b5e8e8053dc0f23c2e7b87dee01f8a60001b611870565b6115b77f62f56e87bcb40c87b645e080f19e6ebb504a08a7e9b2152245a9de18d704514660001b611870565b6115e37f19d55e34c0bb8865b4a862a3881f59503b8d1c4d8979c1bf3787b3542dee652860001b611870565b600073ffffffffffffffffffffffffffffffffffffffff168273ffffffffffffffffffffffffffffffffffffffff161415611653576040517f08c379a000000000000000000000000000000000000000000000000000000000815260040161164a906147c4565b60405180910390fd5b61167f7ffbcffa6715dc7211361b9cbd99cce53419c5a0257feb5b228dcd03ff0d9fcbe060001b611870565b6116ab7f1a4d1f451d2dd544c8bda9d069e08c53bd28916a0f562ddf5c1ef61007e12c6360001b611870565b6116d77f4f8c29e8ba6cdad1fc0d2b546c10206f7f55e5a8d65b9a59472def9ab38b53eb60001b611870565b600360008373ffffffffffffffffffffffffffffffffffffffff1673ffffffffffffffffffffffffffffffffffffffff168152602001908152602001600020549050919050565b50565b6040518060400160405280600a81526020017f302e312e302d626574610000000000000000000000000000000000000000000081525081565b60606117887f861bc986340609ad36d5953c0ed2e699ba883e8a2bab01a6ce3ebdae6c76826b60001b611870565b6117b47fb6c5f2580a625c29aef075e3e029dc80c17ad366459dedb6dc71f0e6bf0ae28a60001b611870565b6117e07f93a04ca8785521f9fe7a9a06864ece4b11fb105f40016bc531c1b04d5672315260001b611870565b600180546117ed90614b73565b80601f016020809104026020016040519081016040528092919081815260200182805461181990614b73565b80156118665780601f1061183b57610100808354040283529160200191611866565b820191906000526020600020905b81548152906001019060200180831161184957829003601f168201915b5050505050905090565b50565b61189f7f4601393a15164028ebc802133731628adc02e283b310d77e09a05ce138e7dc8d60001b611870565b6118cb7f1a41aa9ace0b7c08875b85339ca005d9aabc7452ede91bb0555a7dba1def2a1760001b611870565b6118f77f810a95a36b871f3c7cc8e085aaad89ebd94b5bad657644eff47a970202757d0360001b611870565b6119237f17a27c706bdd7d51c446cf005bab74015d0b48c7f7643c665a001cfddd43b56660001b611870565b61192b6127d6565b73ffffffffffffffffffffffffffffffffffffffff168273ffffffffffffffffffffffffffffffffffffffff161415611999576040517f08c379a000000000000000000000000000000000000000000000000000000000815260040161199090614744565b60405180910390fd5b6119c57f89b33bd469d0b6a8ac86b043bd0fd6d3bdc512bb15193683681f1472cda6842960001b611870565b6119f17f69781d83c6fb1329c88954f1f3d9012ce54bd936a837a3b6fc15c52fe456183f60001b611870565b611a1d7f0d7555527c37dc04f87e96524269051622fa49374ffc6c5fde26c09543f46c5a60001b611870565b8060056000611a2a6127d6565b73ffffffffffffffffffffffffffffffffffffffff1673ffffffffffffffffffffffffffffffffffffffff16815260200190815260200160002060008473ffffffffffffffffffffffffffffffffffffffff1673ffffffffffffffffffffffffffffffffffffffff16815260200190815260200160002060006101000a81548160ff021916908315150217905550611ae47fe18f909911c2f2fb94a203b70a100d4909936bd335a91c6fa898d8911727036260001b611870565b611b107fc547a14cd9c64d4804d0713fcd624ec478564b34f94fd17309c25348ec4732a360001b611870565b8173ffffffffffffffffffffffffffffffffffffffff16611b2f6127d6565b73ffffffffffffffffffffffffffffffffffffffff167f17307eab39ab6107e8899845ad3d59bd9653f200f220920489ca2b5937696c3183604051611b7491906146a7565b60405180910390a35050565b611bac7feb8f161bc75d2149787b8fa0801298221bc45521497149ffb3cef8f082ac2ce960001b61171e565b611bd87f84790fb01eabaef7135166da0fea96d3b1325f63ad3b890686250c0e7a79f05860001b61171e565b611c047f59deb2feb46c6bddcc11ab8ce9432813c44753116b52ced1de3882ccaa61f5da60001b61171e565b611c307fe5bd0205f5d17c094b916b48c3ebee699048fccc15be0a2d336208919b29659760001b61171e565b600660009054906101000a900473ffffffffffffffffffffffffffffffffffffffff1673ffffffffffffffffffffffffffffffffffffffff163373ffffffffffffffffffffffffffffffffffffffff1614611cc0576040517f08c379a0000000000000000000000000000000000000000000000000000000008152600401611cb7906148e4565b60405180910390fd5b611cec7f29af05c41342a0fc4255a8638f1d12aaec05145ec434dacaeb71072aca23fec960001b61171e565b611d187f9f690a6b1bc9fcd43787d3046559457a642dc440375804abc95bafa6095e081860001b61171e565b611d447fc89afe040f19a0922b9506e06fafee35a70c4f1d6ad7d719b1099df22a37339c60001b61171e565b611d707f24d2e0f9a3ed2b399c7b2960340daf376c9dadb567c908b380a323cad1c2e72160001b61171e565b611d9c7f7f8e0fc7f4f05657dac02e913861f8aa7518e745a75fa0c78de54a2067d9d8d560001b61171e565b611dc87fc5aa2c4bfffa36eb3d78b9670be8c50eac2ccdca207b1aec25c14498203848c260001b61171e565b6000821415611e0c576040517f08c379a0000000000000000000000000000000000000000000000000000000008152600401611e0390614804565b60405180910390fd5b611e387f7ea41fa5cb591e2b12351974742a70ca3b03ab16283c1f884634e740b824ecc160001b61171e565b611e647fa956673a1dbf105f3178b878abfe82a54afed2d861451b83b05b9ee1b6c0edc360001b61171e565b611e907fc7dd1f160e30c24be55588fdf12492e7bb5b10b56dafd57565dc954c92277b8360001b61171e565b611ebc7f21d4bf7cea4ff7801f319dbf9b1c56d741f4eada5b776c08cca8189566e31eed60001b61171e565b600073ffffffffffffffffffffffffffffffffffffffff168173ffffffffffffffffffffffffffffffffffffffff161415611f2c576040517f08c379a0000000000000000000000000000000000000000000000000000000008152600401611f2390614904565b60405180910390fd5b611f587fac9d4503d578836802fd88638ce605f7e3405887a62fea2df658b9bbce00881b60001b61171e565b611f847f799ea91feda57fea734c4a9fe56a93c7dc93731bac8357244800abfa0f90f29b60001b61171e565b611fb07f9af6288043f0630220aa2dcb454b34d5d807b84cdc922470f6a738d4d8d013a460001b61171e565b60006008549050611fe37f4daa419dd64bf169f065871749252ee408f89039bd4530633a72bbb8b076b13e60001b61171e565b60086000815480929190611ff690614bd6565b91905055506120277fba22fe6404b9c6189b89fc092179aaffdd74776eec024059244bd0703746cc1e60001b61171e565b6120537f52431a65aebf305a44ca3c72a598b2f6d1378ed96a7840806ce530edd11003f460001b61171e565b8260076000838152602001908152602001600020819055506120977fb9f8a9b3c053f3c11021b34e6890fca03f397d6c0ebc75c516f2c1ed6ecd944260001b61171e565b6120c37f01de3a50b1380c87bb2d1eae1912793600c6f58a59224886b7d5acaa04a3a49560001b61171e565b6120cd82826131d5565b6120f97fd095449dad88d739641f3cdc8122b3e2bc62783371c6959be3a32765b1f8ec4960001b61171e565b6121257f25f7b3dd4ce2dc693cd68f51f505df875946e820a0bb782ccf97ab1d7e594f0060001b61171e565b808273ffffffffffffffffffffffffffffffffffffffff167fd9a79f971481095a2a2336c344c7c01f5cc75128249ee793845743040b1c56ee60405160405180910390a3505050565b61219a7f5468cb40a61739ff45a8dd5022acc5be5457fc639ab2de7e3c548795cbc98fbc60001b611870565b6121c67f62c371d0819da4f4416f27c89681f66465886b305fb8b3710cdd0ae7089367a660001b611870565b6121f27f8ef2a0a6252c948f62a8ae861066a4875c0f853382a6d7da892c81d6c7ccacef60001b611870565b61221e7f9f567b476869fe7f08399308269cf19890b46ab21b621a48511976f324a5a63760001b611870565b61222f6122296127d6565b83612973565b61226e576040517f08c379a0000000000000000000000000000000000000000000000000000000008152600401612265906148c4565b60405180910390fd5b61229a7f88e85cccd6a7bd096eabd1a916402c158e1d8f4648756f9909eed1eb74abd56360001b611870565b6122c67f2f81021847891a1e33828a3f37e5816f36431b0f855e0f4c7cddd6da8e00c9f760001b611870565b6122f27fd003bbe4528c4cc4104eafd3ecfd2584e39112d602144f631684178ebe69aa8f60001b611870565b6122fe8484848461368f565b50505050565b60606123327f0d5b68b9a055f10dc7dac032a383b7523ef6b27fd0af5a0b4c4ee3aa0e78c71b60001b611870565b61235e7f434e78122d06cb55a408fe658e844d2ef8d7502fb05d6468814b71a371d5cfe460001b611870565b61238a7f2a7cf74686d7a12818b3c49c248efc5f286704003e900d85ca07042c3227ed7d60001b611870565b6123b67f726ff3c4ca270a5416d27b4b7197fd4afc96a40c6b7fbd8e74153bfc8b16dbbd60001b611870565b6123bf826126e5565b6123fe576040517f08c379a00000000000000000000000000000000000000000000000000000000081526004016123f590614884565b60405180910390fd5b61242a7f3fe1d2e36b97ec880c7a13ed05841a11213be1ae83c6ecb7a7ba0f26b9309aa660001b611870565b6124567ffdc57fdd290598290839452b0a400ab5308154b93d55088d940e82884780c13660001b611870565b6124827f11368fcb7e85e8458a700c7fd9e53240d53fbd41a6582329dfe8fb571df4205b60001b611870565b600061248c61381f565b90506124ba7f4a0089a815b0e41d85ac0aa10b5dac4755886a3492bcc84dd159bc4e0ace03d660001b611870565b6124e67ffd057220d2ffb7307f8da0ec66ffcef9c4fcccae3325bfeb7126d5dbe3419df260001b611870565b6000815111612504576040518060200160405280600081525061252f565b8061250e846138ba565b60405160200161251f92919061461c565b6040516020818303038152906040525b915050919050565b60085481565b600061256b7fbbbfa44db2c1bda69c037ac8567f809c00c0b36133107c72d5eed7ea3190a9b360001b611870565b6125977f818fd6b4626144eff9bf8a2bde6c3afc4dadcf810fb1c1b6dba9460868fbb2a260001b611870565b6125c37f9ecedf62d13b80fc30cb56ae5c03186efb07d37ab5079cb7fec2d0dbf322e56e60001b611870565b600560008473ffffffffffffffffffffffffffffffffffffffff1673ffffffffffffffffffffffffffffffffffffffff16815260200190815260200160002060008373ffffffffffffffffffffffffffffffffffffffff1673ffffffffffffffffffffffffffffffffffffffff16815260200190815260200160002060009054906101000a900460ff16905092915050565b600660009054906101000a900473ffffffffffffffffffffffffffffffffffffffff1681565b60007f01ffc9a7000000000000000000000000000000000000000000000000000000007bffffffffffffffffffffffffffffffffffffffffffffffffffffffff1916827bffffffffffffffffffffffffffffffffffffffffffffffffffffffff1916149050919050565b60006127137f4c699a5989404c59311abe0cc3032851211febe69d48adf08501677396bdba7d60001b611870565b61273f7ff2334e627731dafc43bcf57221885d6aa0047146883662564d2afbea3caac24160001b611870565b61276b7f2e3081e1923ca712a03c381fff7a54802dbe62b00d75fddbc9eadc4d96f2b76360001b611870565b600073ffffffffffffffffffffffffffffffffffffffff166002600084815260200190815260200160002060009054906101000a900473ffffffffffffffffffffffffffffffffffffffff1673ffffffffffffffffffffffffffffffffffffffff1614159050919050565b600033905090565b61280a7ffdc8d91f3d0c07dbc02557b53364c0b3c97171306b8063375f8424e7bd6159fe60001b611870565b6128367f8fb8e5023f60a6bbcdf26f4ce8e979298d03deac360b436958043ec48d94fe8660001b611870565b6128627fd804596a94818a944cc993bcd2781496d22556a1ab699f9eccc045d10b0ab4ee60001b611870565b816004600083815260200190815260200160002060006101000a81548173ffffffffffffffffffffffffffffffffffffffff021916908373ffffffffffffffffffffffffffffffffffffffff1602179055506128e07ffafc9a820ce72ddf9d57188dcd20539cba921eae182add6a6ccfe1fc820b17d460001b611870565b61290c7f7545ad133543fbfe6a40e55c65a8e9fcddedbeaf41f72a872bb3ea06ca28f7eb60001b611870565b808273ffffffffffffffffffffffffffffffffffffffff1661292d836112f2565b73ffffffffffffffffffffffffffffffffffffffff167f8c5be1e5ebec7d5bd14f71427d1e84f3dd0314c0f7b2291e5b200ac8c7c3b92560405160405180910390a45050565b60006129a17f15e45459072fcf18dcc017226a99ad7a2c9e60b9991a6c4482221751971096fb60001b611870565b6129cd7f9edf07d54efa7bbc7ff5efc957378bb5a49bf517f4733d594b356f3acd09fa5360001b611870565b6129f97fa5d698c09d4a0cc4d3f7f2be2b61c1d58ad12d321e0510b9c5f862a7735ca5ab60001b611870565b612a257fe974dff0050dceb0a9bc31a5e830235a8cf3769631ba7951595db2fb09c80c8260001b611870565b612a2e826126e5565b612a6d576040517f08c379a0000000000000000000000000000000000000000000000000000000008152600401612a6490614764565b60405180910390fd5b612a997f368aec0bff52786c711c8bdd0a0c68604374a14a7da601423925293c519090aa60001b611870565b612ac57fc352c543cc598223edef7e69a790b78070f22177e8a49630514542e0068743b860001b611870565b612af17f075155703d7884efdfbfddb3fad09368e3bef93346ec767b444b505c66a6d9af60001b611870565b6000612afc836112f2565b9050612b2a7f4d9a8a63891592ab08758133f753150dacc639f4bd14b7f563eddbe0c733e2fc60001b611870565b612b567ff908aabfb7203d44260eafedffeff5717a3bb414888e7c70c791a6e8a1948f2c60001b611870565b8073ffffffffffffffffffffffffffffffffffffffff168473ffffffffffffffffffffffffffffffffffffffff161480612bc357508373ffffffffffffffffffffffffffffffffffffffff16612bab84610a19565b73ffffffffffffffffffffffffffffffffffffffff16145b80612bd45750612bd3818561253d565b5b91505092915050565b612c097f1e12455970d16ca39e63fc1fc1722e7db42ade952e5028c9f8abb44f389a757860001b611870565b612c357fdddbf271ef41e2b61e76cfdf93a626dc25a314ebb2e3e40c4ea5ee9dc9c1e6ad60001b611870565b612c617ffd497cff94bf550dc43cdec07a4222c69aaff674c61339f3d74c1c63f3f7b72260001b611870565b612c8d7f4e32b6348a71f607914c83496bc733e7dbab7ff2a0f7e01db1dc915c7f3bfd4960001b611870565b8273ffffffffffffffffffffffffffffffffffffffff16612cad826112f2565b73ffffffffffffffffffffffffffffffffffffffff1614612d03576040517f08c379a0000000000000000000000000000000000000000000000000000000008152600401612cfa90614864565b60405180910390fd5b612d2f7ff3a38e77e0943c9eb58b08c3198a8f334964f45f3af7771358bc497eecdc956560001b611870565b612d5b7fe23f4ed7effcc424244926d6628c8d7b620b7e120ae184e5f0a72540ae1df0be60001b611870565b612d877f3a2506c9d72728e8905d5cc9e1df5659a24d9d4b611faea97c40084642bebccb60001b611870565b612db37f256d02d3b2e56f07ef4b2651eb03885e6e7799778540f09b1819350442c543fa60001b611870565b600073ffffffffffffffffffffffffffffffffffffffff168273ffffffffffffffffffffffffffffffffffffffff161415612e23576040517f08c379a0000000000000000000000000000000000000000000000000000000008152600401612e1a90614724565b60405180910390fd5b612e4f7fc2f64e4b2b5be7139911e2439380c5be6afb514546f543fd95ad70d779723c8e60001b611870565b612e7b7f1650f46feab19d22092ff0857de88596c04c1ccd3bf5444e3907bef5089114af60001b611870565b612ea77fad8fcbbaa9776e8c7d5e0ebd2713e6efe850ff87047de1ab0c321dbeee0ca6fc60001b611870565b612eb2838383613a1b565b612ede7fd99f0f8e94890eb38bcb332bb627ec6411803c3fd8a92046d1531ddbbe218c0b60001b611870565b612f0a7f7e2c7d977948cf92c0b0fcc7ab5b4f5da4cd8a8cf16158e40e6468ad215cb3e560001b611870565b612f156000826127de565b612f417f0af56e2621134c7b99a12ecbec8e03ba57e6ac4b65c18c149d2e6b789e35313360001b611870565b612f6d7fe6e62fd49054d6f135101450fd78aa19df5c66be1a58f4c5b7d95240b8d7e5cd60001b611870565b6001600360008573ffffffffffffffffffffffffffffffffffffffff1673ffffffffffffffffffffffffffffffffffffffff1681526020019081526020016000206000828254612fbd9190614a7f565b92505081905550612ff07f5737fbf0a7404785797cbf0bbdb43e56806a0a9d039f9fe2ac688d7d5c29a2db60001b611870565b61301c7f634b368443676da5e0a3df577e779e7881df2ccf03f56615fdd422b8a4b9ab3060001b611870565b6001600360008473ffffffffffffffffffffffffffffffffffffffff1673ffffffffffffffffffffffffffffffffffffffff168152602001908152602001600020600082825461306c91906149f8565b9250508190555061309f7ffea9446fea10a00a3b1aab6ab93bd4e9e98ffa1b9d6c4de58f45c7e0223fcfc560001b611870565b6130cb7fdd55a9acb86ab55083496d74008ab8643a1d0e36a51729272b4833d2ab83e63560001b611870565b816002600083815260200190815260200160002060006101000a81548173ffffffffffffffffffffffffffffffffffffffff021916908373ffffffffffffffffffffffffffffffffffffffff1602179055506131497f28f90f3b179d468fef6b405379d37f90b7dd7af083a4e73f61d6e5342b4b1fff60001b611870565b6131757f3b3911558ff5de48dc2e7fc275ee2114a0e4100ec2b8726aa5f3650dd39ec17d60001b611870565b808273ffffffffffffffffffffffffffffffffffffffff168473ffffffffffffffffffffffffffffffffffffffff167fddf252ad1be2c89b69c2b068fc378daa952ba7f163c4a11628f55a4df523b3ef60405160405180910390a4505050565b6132017fd7ac79f22b2466225d4423cfbf285c9f4a07625f3139bfcb08e7e0e4bc87227860001b611870565b61322d7f0cb4913f667ff8ef88b94d4dca671923a9046e8d9d48739b77646b83e63e8f2d60001b611870565b6132597f99d7ccdf3b216dcd59b3c09371a2088dae6135435a7997766ffc696d2a9fe91f60001b611870565b6132857ff5d3e0c03adb6cf9f590260b66bd741204095a100088b42e3a7d8a3c17898a8c60001b611870565b600073ffffffffffffffffffffffffffffffffffffffff168273ffffffffffffffffffffffffffffffffffffffff1614156132f5576040517f08c379a00000000000000000000000000000000000000000000000000000000081526004016132ec90614824565b60405180910390fd5b6133217f6aeba3c0b5109b9f8a5dd80c1713efcf64e1e426ac505e03eb2f79b74e027f5960001b611870565b61334d7f9defbc71f646bc6e1cf598792cf36b501626ba58fa909f1162efdf1b923a9dc860001b611870565b6133797fd9c04b3ede1bc59da5b7c41e2e5cb7d6234f924c9ab75e36d0e068ff5040873460001b611870565b6133a57f31c31820d6bed70d6a33c0b421a46c07685ff7e5912f0a6a9c4b7197484b0b7060001b611870565b6133ae816126e5565b156133ee576040517f08c379a00000000000000000000000000000000000000000000000000000000081526004016133e590614704565b60405180910390fd5b61341a7f828ee2bff549a6682bc2ce234915ac5866990c41cb5d7ba6a5071d82643501ec60001b611870565b6134467f47ddb580117d0667c11a754c348b2d723efe34641ee0dbed7135016bbaa8af3060001b611870565b6134727fd26093288d7894956559cf2de4b3402e2bb359bfabf901577305f62de0a33e9b60001b611870565b61347e60008383613a1b565b6134aa7f0f61506e6c66214f420470f8cc905833f37da3b8043973bf95f0442666eef17a60001b611870565b6134d67fbcf3d57a4948bc1e0143b7ec5f0a3ddfd10ded02ad09f558ca2edbe73eaadbbc60001b611870565b6001600360008473ffffffffffffffffffffffffffffffffffffffff1673ffffffffffffffffffffffffffffffffffffffff168152602001908152602001600020600082825461352691906149f8565b925050819055506135597fdd7f68d11dafee19cd4459015acbe8789a26fed5780c1ea394f988de00fd09e360001b611870565b6135857f13fd4e19979f3124f2411261f9348c9ecc098be3c348e7c7985b67a5323c110a60001b611870565b816002600083815260200190815260200160002060006101000a81548173ffffffffffffffffffffffffffffffffffffffff021916908373ffffffffffffffffffffffffffffffffffffffff1602179055506136037fb6869ee5a9abc2e35f11154a2675c011ffc36e7338ed1c0020e4e1c81c8ba36460001b611870565b61362f7fc8afc3fe568910fae96040bb98689e6fbadf38c6b1ef5578e7cf63378995c90360001b611870565b808273ffffffffffffffffffffffffffffffffffffffff16600073ffffffffffffffffffffffffffffffffffffffff167fddf252ad1be2c89b69c2b068fc378daa952ba7f163c4a11628f55a4df523b3ef60405160405180910390a45050565b6136bb7f9360bc288a172c374c90828ad6ac2ee2eb2b132eda4e130a4e5b7e2ed165f02060001b611870565b6136e77f858b89039010798d082cb15c1280f0f4621a7874e36fca23f17d16d9a99f94bb60001b611870565b6137137fadf166ffd56bde0a1a685949e482884fdd56bc509685cbacb00f4fb15ce1c88760001b611870565b61371e848484612bdd565b61374a7f62642e14fa9f3f7258c45be3e8f4c9f004c1c04932a1caa2e25d70a62045a73760001b611870565b6137767fe213da7685ceb0459addada609f91c2d9fbe73ddd5ad8a6269f85a57e4dfb1b160001b611870565b6137a27f2a6e849c8618d0b116f8eeddc9c82b9d067637f189419e0995daa5f076e1e7bd60001b611870565b6137ae84848484613a4c565b6137ed576040517f08c379a00000000000000000000000000000000000000000000000000000000081526004016137e4906146e4565b60405180910390fd5b6138197fabbea2825505a5aa3bf84eb8a33dde188b36e5e748e71bbfb9b844578c90d5dc60001b611870565b50505050565b606061384d7fe8c6eb7aa5d1ebd5824f968cb23f5da3e67b82a1057c8d46ca72cb0735d00bb860001b611870565b6138797f76683a516c9dc0dbd12dd5b61e70d370f66fbac2ae8d78501601e98e6754901d60001b611870565b6138a57f42b4b754d386e1c948091f99b728ecbca5ae93c576f999ccc79967e12d0c612e60001b611870565b60405180602001604052806000815250905090565b60606000821415613902576040518060400160405280600181526020017f30000000000000000000000000000000000000000000000000000000000000008152509050613a16565b600082905060005b6000821461393457808061391d90614bd6565b915050600a8261392d9190614a4e565b915061390a565b60008167ffffffffffffffff8111156139505761394f614d0c565b5b6040519080825280601f01601f1916602001820160405280156139825781602001600182028036833780820191505090505b5090505b60008514613a0f5760018261399b9190614a7f565b9150600a856139aa9190614c1f565b60306139b691906149f8565b60f81b8183815181106139cc576139cb614cdd565b5b60200101907effffffffffffffffffffffffffffffffffffffffffffffffffffffffffffff1916908160001a905350600a85613a089190614a4e565b9450613986565b8093505050505b919050565b613a477f55fe7cbb15b65b93c7b61d443c1ccc5d714db38bbd53d67978d8341485b8cab960001b611870565b505050565b6000613a7a7fab65cb18f50a5cef5d9408391608219913c1d7c7beab7d0bcfdc70307114d6c460001b611870565b613aa67ff3c034b7969d676429a1e808a8ba39b315ede2dc38d5098f568acf86aac0b10b60001b611870565b613ad27f1677e3c59271b1658591e29b9c30ffdc4ff1aa3a8318e56b8bb8a4b8e6ea9fb460001b611870565b613af18473ffffffffffffffffffffffffffffffffffffffff16613efb565b15613e6a57613b227f1ff2f1e88f61cab1ba0b20dd88221206932fc773776c76f26093efe6a49b7a1560001b611870565b613b4e7f1827e584c6dd553aad2771bfef68b963fe28f633f79afad9a39196f576e57b6460001b611870565b613b7a7f315428852f725b1e8c887d4b93e9b99b8ab944e2148ddcc57df8758b885fbfa660001b611870565b8373ffffffffffffffffffffffffffffffffffffffff1663150b7a02613b9e6127d6565b8786866040518563ffffffff1660e01b8152600401613bc0949392919061465b565b602060405180830381600087803b158015613bda57600080fd5b505af1925050508015613c0b57506040513d601f19601f82011682018060405250810190613c089190614219565b60015b613dc2573d8060008114613c3b576040519150601f19603f3d011682016040523d82523d6000602084013e613c40565b606091505b50613c6d7f141cbf3e9a6da91df252497dc0f44458823707cf08942edd7955b1722dc7055660001b611870565b613c997f91314c5516b54b0816dfa534556526d401e08b5515cc39b940254831161d354d60001b611870565b600081511415613d6257613ccf7f5d4a62610c767348e88e29764fe37856b6f775a1fcd4ac5e8a7e8373073430db60001b611870565b613cfb7fa3a31ba2a169f22fd397b90f6ce18439ce50802e1850bf6a24fa05a24761dfe760001b611870565b613d277f0c7654d4b1501cad4da8cec963d50a82ee1b2b74a654b6a419c839449691848c60001b611870565b6040517f08c379a0000000000000000000000000000000000000000000000000000000008152600401613d59906146e4565b60405180910390fd5b613d8e7f862e91f24da37c57d8d24478e4b195480569fc6eca7851053ff51e79d1f5222860001b611870565b613dba7fa3658c5d416c22f14cbcbd604ef5bbd6f6d7cc04e965481b14cd073fb8d08a9560001b611870565b805181602001fd5b613dee7f168b32863b7eae7b7568583947b76d3201e7101c4102f151b14cbc3aad5b208560001b611870565b613e1a7f7a8b89539549bea52c6338357d201151d690a08ea7e0bf3eed5f8ed162a58b1b60001b611870565b63150b7a0260e01b7bffffffffffffffffffffffffffffffffffffffffffffffffffffffff1916817bffffffffffffffffffffffffffffffffffffffffffffffffffffffff191614915050613ef3565b613e967ff63eefbc2c814d3e5e328cd8f99d09305021c4d4ce1b5988fd92be39186b57d360001b611870565b613ec27f914b128c9b1b28aeeb4e2b821d49158da2d60412f740e9da4e62b1774cfb405e60001b611870565b613eee7fe3fbb3a23c51ef24c5bd6fa55325554e76c7d30b4cef226d0c71fcd0d496401660001b611870565b600190505b949350505050565b600080823b905060008111915050919050565b6000613f21613f1c84614984565b61495f565b905082815260208101848484011115613f3d57613f3c614d40565b5b613f48848285614b31565b509392505050565b600081359050613f5f816152a5565b92915050565b600081359050613f74816152bc565b92915050565b600081359050613f89816152d3565b92915050565b600081359050613f9e816152ea565b92915050565b600081519050613fb3816152ea565b92915050565b600082601f830112613fce57613fcd614d3b565b5b8135613fde848260208601613f0e565b91505092915050565b600081359050613ff681615301565b92915050565b60006020828403121561401257614011614d4a565b5b600061402084828501613f50565b91505092915050565b600080604083850312156140405761403f614d4a565b5b600061404e85828601613f50565b925050602061405f85828601613f50565b9150509250929050565b60008060006060848603121561408257614081614d4a565b5b600061409086828701613f50565b93505060206140a186828701613f50565b92505060406140b286828701613fe7565b9150509250925092565b600080600080608085870312156140d6576140d5614d4a565b5b60006140e487828801613f50565b94505060206140f587828801613f50565b935050604061410687828801613fe7565b925050606085013567ffffffffffffffff81111561412757614126614d45565b5b61413387828801613fb9565b91505092959194509250565b6000806040838503121561415657614155614d4a565b5b600061416485828601613f50565b925050602061417585828601613f65565b9150509250929050565b6000806040838503121561419657614195614d4a565b5b60006141a485828601613f50565b92505060206141b585828601613fe7565b9150509250929050565b6000602082840312156141d5576141d4614d4a565b5b60006141e384828501613f7a565b91505092915050565b60006020828403121561420257614201614d4a565b5b600061421084828501613f8f565b91505092915050565b60006020828403121561422f5761422e614d4a565b5b600061423d84828501613fa4565b91505092915050565b60006020828403121561425c5761425b614d4a565b5b600061426a84828501613fe7565b91505092915050565b6000806040838503121561428a57614289614d4a565b5b600061429885828601613fe7565b92505060206142a985828601613f50565b9150509250929050565b6142bc81614ab3565b82525050565b6142cb81614ac5565b82525050565b60006142dc826149b5565b6142e681856149cb565b93506142f6818560208601614b40565b6142ff81614d4f565b840191505092915050565b6000614315826149c0565b61431f81856149dc565b935061432f818560208601614b40565b61433881614d4f565b840191505092915050565b600061434e826149c0565b61435881856149ed565b9350614368818560208601614b40565b80840191505092915050565b60006143816032836149dc565b915061438c82614d60565b604082019050919050565b60006143a4601c836149dc565b91506143af82614daf565b602082019050919050565b60006143c76024836149dc565b91506143d282614dd8565b604082019050919050565b60006143ea6019836149dc565b91506143f582614e27565b602082019050919050565b600061440d602c836149dc565b915061441882614e50565b604082019050919050565b6000614430602b836149dc565b915061443b82614e9f565b604082019050919050565b60006144536038836149dc565b915061445e82614eee565b604082019050919050565b6000614476602a836149dc565b915061448182614f3d565b604082019050919050565b60006144996029836149dc565b91506144a482614f8c565b604082019050919050565b60006144bc6021836149dc565b91506144c782614fdb565b604082019050919050565b60006144df6020836149dc565b91506144ea8261502a565b602082019050919050565b6000614502602c836149dc565b915061450d82615053565b604082019050919050565b60006145256029836149dc565b9150614530826150a2565b604082019050919050565b6000614548602f836149dc565b9150614553826150f1565b604082019050919050565b600061456b6021836149dc565b915061457682615140565b604082019050919050565b600061458e6031836149dc565b91506145998261518f565b604082019050919050565b60006145b16032836149dc565b91506145bc826151de565b604082019050919050565b60006145d46034836149dc565b91506145df8261522d565b604082019050919050565b60006145f76020836149dc565b91506146028261527c565b602082019050919050565b61461681614b27565b82525050565b60006146288285614343565b91506146348284614343565b91508190509392505050565b600060208201905061465560008301846142b3565b92915050565b600060808201905061467060008301876142b3565b61467d60208301866142b3565b61468a604083018561460d565b818103606083015261469c81846142d1565b905095945050505050565b60006020820190506146bc60008301846142c2565b92915050565b600060208201905081810360008301526146dc818461430a565b905092915050565b600060208201905081810360008301526146fd81614374565b9050919050565b6000602082019050818103600083015261471d81614397565b9050919050565b6000602082019050818103600083015261473d816143ba565b9050919050565b6000602082019050818103600083015261475d816143dd565b9050919050565b6000602082019050818103600083015261477d81614400565b9050919050565b6000602082019050818103600083015261479d81614423565b9050919050565b600060208201905081810360008301526147bd81614446565b9050919050565b600060208201905081810360008301526147dd81614469565b9050919050565b600060208201905081810360008301526147fd8161448c565b9050919050565b6000602082019050818103600083015261481d816144af565b9050919050565b6000602082019050818103600083015261483d816144d2565b9050919050565b6000602082019050818103600083015261485d816144f5565b9050919050565b6000602082019050818103600083015261487d81614518565b9050919050565b6000602082019050818103600083015261489d8161453b565b9050919050565b600060208201905081810360008301526148bd8161455e565b9050919050565b600060208201905081810360008301526148dd81614581565b9050919050565b600060208201905081810360008301526148fd816145a4565b9050919050565b6000602082019050818103600083015261491d816145c7565b9050919050565b6000602082019050818103600083015261493d816145ea565b9050919050565b6000602082019050614959600083018461460d565b92915050565b600061496961497a565b90506149758282614ba5565b919050565b6000604051905090565b600067ffffffffffffffff82111561499f5761499e614d0c565b5b6149a882614d4f565b9050602081019050919050565b600081519050919050565b600081519050919050565b600082825260208201905092915050565b600082825260208201905092915050565b600081905092915050565b6000614a0382614b27565b9150614a0e83614b27565b9250827fffffffffffffffffffffffffffffffffffffffffffffffffffffffffffffffff03821115614a4357614a42614c50565b5b828201905092915050565b6000614a5982614b27565b9150614a6483614b27565b925082614a7457614a73614c7f565b5b828204905092915050565b6000614a8a82614b27565b9150614a9583614b27565b925082821015614aa857614aa7614c50565b5b828203905092915050565b6000614abe82614b07565b9050919050565b60008115159050919050565b6000819050919050565b60007fffffffff0000000000000000000000000000000000000000000000000000000082169050919050565b600073ffffffffffffffffffffffffffffffffffffffff82169050919050565b6000819050919050565b82818337600083830152505050565b60005b83811015614b5e578082015181840152602081019050614b43565b83811115614b6d576000848401525b50505050565b60006002820490506001821680614b8b57607f821691505b60208210811415614b9f57614b9e614cae565b5b50919050565b614bae82614d4f565b810181811067ffffffffffffffff82111715614bcd57614bcc614d0c565b5b80604052505050565b6000614be182614b27565b91507fffffffffffffffffffffffffffffffffffffffffffffffffffffffffffffffff821415614c1457614c13614c50565b5b600182019050919050565b6000614c2a82614b27565b9150614c3583614b27565b925082614c4557614c44614c7f565b5b828206905092915050565b7f4e487b7100000000000000000000000000000000000000000000000000000000600052601160045260246000fd5b7f4e487b7100000000000000000000000000000000000000000000000000000000600052601260045260246000fd5b7f4e487b7100000000000000000000000000000000000000000000000000000000600052602260045260246000fd5b7f4e487b7100000000000000000000000000000000000000000000000000000000600052603260045260246000fd5b7f4e487b7100000000000000000000000000000000000000000000000000000000600052604160045260246000fd5b600080fd5b600080fd5b600080fd5b600080fd5b6000601f19601f8301169050919050565b7f4552433732313a207472616e7366657220746f206e6f6e20455243373231526560008201527f63656976657220696d706c656d656e7465720000000000000000000000000000602082015250565b7f4552433732313a20746f6b656e20616c7265616479206d696e74656400000000600082015250565b7f4552433732313a207472616e7366657220746f20746865207a65726f2061646460008201527f7265737300000000000000000000000000000000000000000000000000000000602082015250565b7f4552433732313a20617070726f766520746f2063616c6c657200000000000000600082015250565b7f4552433732313a206f70657261746f7220717565727920666f72206e6f6e657860008201527f697374656e7420746f6b656e0000000000000000000000000000000000000000602082015250565b7f57617272696f72733a20636f6e74726f6c6c65722063616e6e6f74206265206160008201527f646472657373207a65726f000000000000000000000000000000000000000000602082015250565b7f4552433732313a20617070726f76652063616c6c6572206973206e6f74206f7760008201527f6e6572206e6f7220617070726f76656420666f7220616c6c0000000000000000602082015250565b7f4552433732313a2062616c616e636520717565727920666f7220746865207a6560008201527f726f206164647265737300000000000000000000000000000000000000000000602082015250565b7f4552433732313a206f776e657220717565727920666f72206e6f6e657869737460008201527f656e7420746f6b656e0000000000000000000000000000000000000000000000602082015250565b7f57617272696f72733a206e6f2077617272696f7220776974686f75742067656e60008201527f6500000000000000000000000000000000000000000000000000000000000000602082015250565b7f4552433732313a206d696e7420746f20746865207a65726f2061646472657373600082015250565b7f4552433732313a20617070726f76656420717565727920666f72206e6f6e657860008201527f697374656e7420746f6b656e0000000000000000000000000000000000000000602082015250565b7f4552433732313a207472616e73666572206f6620746f6b656e2074686174206960008201527f73206e6f74206f776e0000000000000000000000000000000000000000000000602082015250565b7f4552433732314d657461646174613a2055524920717565727920666f72206e6f60008201527f6e6578697374656e7420746f6b656e0000000000000000000000000000000000602082015250565b7f4552433732313a20617070726f76616c20746f2063757272656e74206f776e6560008201527f7200000000000000000000000000000000000000000000000000000000000000602082015250565b7f4552433732313a207472616e736665722063616c6c6572206973206e6f74206f60008201527f776e6572206e6f7220617070726f766564000000000000000000000000000000602082015250565b7f57617272696f72733a204f6e6c7920636f6e74726f6c6c65722063616e20616360008201527f6365737320746869732066756e6374696f6e0000000000000000000000000000602082015250565b7f57617272696f72733a206e6f2077617272696f722063616e206265206173736960008201527f676e656420746f207a65726f2061646472657373000000000000000000000000602082015250565b7f57617272696f72733a2077617272696f7220646f6573206e6f74206578697374600082015250565b6152ae81614ab3565b81146152b957600080fd5b50565b6152c581614ac5565b81146152d057600080fd5b50565b6152dc81614ad1565b81146152e757600080fd5b50565b6152f381614adb565b81146152fe57600080fd5b50565b61530a81614b27565b811461531557600080fd5b5056fea2646970667358221220575e4192249d2d1795e099055cfe7c6bb52d370b9d061c0bdfd7ed079e98d16e64736f6c63430008060033",
  "linkReferences": {},
  "deployedLinkReferences": {}
}