{
  "_format": "hh-sol-artifact-1",
  "contractName": "Warriors",
  "sourceName": "contracts/MVP/Warriors.sol",
  "abi": [
    {
      "inputs": [
        {
          "internalType": "address",
          "name": "_controller",
          "type": "address"
        }
      ],
      "stateMutability": "nonpayable",
      "type": "constructor"
    },
    {
      "anonymous": false,
      "inputs": [
        {
          "indexed": true,
          "internalType": "address",
          "name": "owner",
          "type": "address"
        },
        {
          "indexed": true,
          "internalType": "address",
          "name": "approved",
          "type": "address"
        },
        {
          "indexed": true,
          "internalType": "uint256",
          "name": "tokenId",
          "type": "uint256"
        }
      ],
      "name": "Approval",
      "type": "event"
    },
    {
      "anonymous": false,
      "inputs": [
        {
          "indexed": true,
          "internalType": "address",
          "name": "owner",
          "type": "address"
        },
        {
          "indexed": true,
          "internalType": "address",
          "name": "operator",
          "type": "address"
        },
        {
          "indexed": false,
          "internalType": "bool",
          "name": "approved",
          "type": "bool"
        }
      ],
      "name": "ApprovalForAll",
      "type": "event"
    },
    {
      "anonymous": false,
      "inputs": [
        {
          "indexed": true,
          "internalType": "address",
          "name": "from",
          "type": "address"
        },
        {
          "indexed": true,
          "internalType": "address",
          "name": "to",
          "type": "address"
        },
        {
          "indexed": true,
          "internalType": "uint256",
          "name": "tokenId",
          "type": "uint256"
        }
      ],
      "name": "Transfer",
      "type": "event"
    },
    {
      "anonymous": false,
      "inputs": [
        {
          "indexed": true,
          "internalType": "address",
          "name": "owner",
          "type": "address"
        },
        {
          "indexed": true,
          "internalType": "uint256",
          "name": "warriorId",
          "type": "uint256"
        }
      ],
      "name": "WarriorGenerated",
      "type": "event"
    },
    {
      "inputs": [
        {
          "internalType": "address",
          "name": "to",
          "type": "address"
        },
        {
          "internalType": "uint256",
          "name": "tokenId",
          "type": "uint256"
        }
      ],
      "name": "approve",
      "outputs": [],
      "stateMutability": "nonpayable",
      "type": "function"
    },
    {
      "inputs": [
        {
          "internalType": "address",
          "name": "owner",
          "type": "address"
        }
      ],
      "name": "balanceOf",
      "outputs": [
        {
          "internalType": "uint256",
          "name": "",
          "type": "uint256"
        }
      ],
      "stateMutability": "view",
      "type": "function"
    },
    {
      "inputs": [
        {
          "internalType": "bytes32",
          "name": "c__0x487c9247",
          "type": "bytes32"
        }
      ],
      "name": "c_0x487c9247",
      "outputs": [],
      "stateMutability": "pure",
      "type": "function"
    },
    {
      "inputs": [
        {
          "internalType": "bytes32",
          "name": "c__0xe784d46f",
          "type": "bytes32"
        }
      ],
      "name": "c_0xe784d46f",
      "outputs": [],
      "stateMutability": "pure",
      "type": "function"
    },
    {
      "inputs": [],
      "name": "controller",
      "outputs": [
        {
          "internalType": "address",
          "name": "",
          "type": "address"
        }
      ],
      "stateMutability": "view",
      "type": "function"
    },
    {
      "inputs": [
        {
          "internalType": "uint256",
          "name": "_gene",
          "type": "uint256"
        },
        {
          "internalType": "address",
          "name": "_owner",
          "type": "address"
        }
      ],
      "name": "generateWarrior",
      "outputs": [],
      "stateMutability": "nonpayable",
      "type": "function"
    },
    {
      "inputs": [
        {
          "internalType": "uint256",
          "name": "tokenId",
          "type": "uint256"
        }
      ],
      "name": "getApproved",
      "outputs": [
        {
          "internalType": "address",
          "name": "",
          "type": "address"
        }
      ],
      "stateMutability": "view",
      "type": "function"
    },
    {
      "inputs": [
        {
          "internalType": "uint256",
          "name": "_warriorId",
          "type": "uint256"
        }
      ],
      "name": "getWarrior",
      "outputs": [
        {
          "internalType": "uint256",
          "name": "warrior",
          "type": "uint256"
        }
      ],
      "stateMutability": "view",
      "type": "function"
    },
    {
      "inputs": [
        {
          "internalType": "address",
          "name": "owner",
          "type": "address"
        },
        {
          "internalType": "address",
          "name": "operator",
          "type": "address"
        }
      ],
      "name": "isApprovedForAll",
      "outputs": [
        {
          "internalType": "bool",
          "name": "",
          "type": "bool"
        }
      ],
      "stateMutability": "view",
      "type": "function"
    },
    {
      "inputs": [],
      "name": "name",
      "outputs": [
        {
          "internalType": "string",
          "name": "",
          "type": "string"
        }
      ],
      "stateMutability": "view",
      "type": "function"
    },
    {
      "inputs": [
        {
          "internalType": "uint256",
          "name": "tokenId",
          "type": "uint256"
        }
      ],
      "name": "ownerOf",
      "outputs": [
        {
          "internalType": "address",
          "name": "",
          "type": "address"
        }
      ],
      "stateMutability": "view",
      "type": "function"
    },
    {
      "inputs": [
        {
          "internalType": "address",
          "name": "from",
          "type": "address"
        },
        {
          "internalType": "address",
          "name": "to",
          "type": "address"
        },
        {
          "internalType": "uint256",
          "name": "tokenId",
          "type": "uint256"
        }
      ],
      "name": "safeTransferFrom",
      "outputs": [],
      "stateMutability": "nonpayable",
      "type": "function"
    },
    {
      "inputs": [
        {
          "internalType": "address",
          "name": "from",
          "type": "address"
        },
        {
          "internalType": "address",
          "name": "to",
          "type": "address"
        },
        {
          "internalType": "uint256",
          "name": "tokenId",
          "type": "uint256"
        },
        {
          "internalType": "bytes",
          "name": "_data",
          "type": "bytes"
        }
      ],
      "name": "safeTransferFrom",
      "outputs": [],
      "stateMutability": "nonpayable",
      "type": "function"
    },
    {
      "inputs": [
        {
          "internalType": "address",
          "name": "operator",
          "type": "address"
        },
        {
          "internalType": "bool",
          "name": "approved",
          "type": "bool"
        }
      ],
      "name": "setApprovalForAll",
      "outputs": [],
      "stateMutability": "nonpayable",
      "type": "function"
    },
    {
      "inputs": [
        {
          "internalType": "bytes4",
          "name": "interfaceId",
          "type": "bytes4"
        }
      ],
      "name": "supportsInterface",
      "outputs": [
        {
          "internalType": "bool",
          "name": "",
          "type": "bool"
        }
      ],
      "stateMutability": "view",
      "type": "function"
    },
    {
      "inputs": [],
      "name": "symbol",
      "outputs": [
        {
          "internalType": "string",
          "name": "",
          "type": "string"
        }
      ],
      "stateMutability": "view",
      "type": "function"
    },
    {
      "inputs": [
        {
          "internalType": "uint256",
          "name": "tokenId",
          "type": "uint256"
        }
      ],
      "name": "tokenURI",
      "outputs": [
        {
          "internalType": "string",
          "name": "",
          "type": "string"
        }
      ],
      "stateMutability": "view",
      "type": "function"
    },
    {
      "inputs": [],
      "name": "token_version",
      "outputs": [
        {
          "internalType": "string",
          "name": "",
          "type": "string"
        }
      ],
      "stateMutability": "view",
      "type": "function"
    },
    {
      "inputs": [
        {
          "internalType": "address",
          "name": "from",
          "type": "address"
        },
        {
          "internalType": "address",
          "name": "to",
          "type": "address"
        },
        {
          "internalType": "uint256",
          "name": "tokenId",
          "type": "uint256"
        }
      ],
      "name": "transferFrom",
      "outputs": [],
      "stateMutability": "nonpayable",
      "type": "function"
    },
    {
      "inputs": [
        {
          "internalType": "address",
          "name": "_newController",
          "type": "address"
        }
      ],
      "name": "updateController",
      "outputs": [],
      "stateMutability": "nonpayable",
      "type": "function"
    },
    {
      "inputs": [],
      "name": "warriorCounter",
      "outputs": [
        {
          "internalType": "uint256",
          "name": "",
          "type": "uint256"
        }
      ],
      "stateMutability": "view",
      "type": "function"
    }
  ],
  "bytecode": "0x60806040523480156200001157600080fd5b50604051620059c1380380620059c18339818101604052810190620000379190620004ce565b6040518060400160405280600881526020017f57617272696f72730000000000000000000000000000000000000000000000008152506040518060400160405280600381526020017f5752540000000000000000000000000000000000000000000000000000000000815250620000d77f76683a516c9dc0dbd12dd5b61e70d370f66fbac2ae8d78501601e98e6754901d60001b6200040160201b60201c565b6200010b7f42b4b754d386e1c948091f99b728ecbca5ae93c576f999ccc79967e12d0c612e60001b6200040160201b60201c565b6200013f7fe86d31caa909722eadcb676c24c6be412c3f9d997b0781e32d5606cf44982af960001b6200040160201b60201c565b81600090805190602001906200015792919062000407565b506200018b7e83a7cbbb5f55f7dd12ed93bc6f5e5b4ae6d49780bde7ef9ec36800c130ae5260001b6200040160201b60201c565b620001bf7fbed0dbf20f7a546076dd7e647aeaadff9b659acf32cfa8db01d3e97c0fa7ab4460001b6200040160201b60201c565b8060019080519060200190620001d792919062000407565b5050506200020e7f7c2e954c57ae7fc32e123ea26df39ee5c333ebdc7a5e47b9b764fb1025a6140260001b6200040460201b60201c565b620002427f73674f45e690942f80dd24cb89393aee06d6f400ed760fc9320e68e18b1bebbf60001b6200040460201b60201c565b620002767f793772277755d2f92ef0d7412789a1128a39cc2428c91c46867992eaffc23fd860001b6200040460201b60201c565b620002aa7f10057d45577221f0824d2415db90f47844f5281c61541bec65a0b3707e01264f60001b6200040460201b60201c565b600073ffffffffffffffffffffffffffffffffffffffff168173ffffffffffffffffffffffffffffffffffffffff1614156200031d576040517f08c379a0000000000000000000000000000000000000000000000000000000008152600401620003149062000527565b60405180910390fd5b620003517fa07542db09a12644251a39831bef27ec79706c61dd5469e9d1f137e03028abba60001b6200040460201b60201c565b620003857f49375f73a6685edcd0042ba0ec5f3203482567acbf716e97fd9f9bff168f8e8760001b6200040460201b60201c565b620003b97f61aa48768938093ada18a314b9756a9ff35fb742e2391478d55555e15ad2c75060001b6200040460201b60201c565b80600660006101000a81548173ffffffffffffffffffffffffffffffffffffffff021916908373ffffffffffffffffffffffffffffffffffffffff1602179055505062000661565b50565b50565b82805462000415906200058e565b90600052602060002090601f01602090048101928262000439576000855562000485565b82601f106200045457805160ff191683800117855562000485565b8280016001018555821562000485579182015b828111156200048457825182559160200191906001019062000467565b5b50905062000494919062000498565b5090565b5b80821115620004b357600081600090555060010162000499565b5090565b600081519050620004c88162000647565b92915050565b600060208284031215620004e757620004e6620005f3565b5b6000620004f784828501620004b7565b91505092915050565b60006200050f60338362000549565b91506200051c82620005f8565b604082019050919050565b60006020820190508181036000830152620005428162000500565b9050919050565b600082825260208201905092915050565b600062000567826200056e565b9050919050565b600073ffffffffffffffffffffffffffffffffffffffff82169050919050565b60006002820490506001821680620005a757607f821691505b60208210811415620005be57620005bd620005c4565b5b50919050565b7f4e487b7100000000000000000000000000000000000000000000000000000000600052602260045260246000fd5b600080fd5b7f57617272696f72733a20436f6e74726f6c6c657220616464726573732063616e60008201527f6e6f74206265207a65726f206164647265737300000000000000000000000000602082015250565b62000652816200055a565b81146200065e57600080fd5b50565b61535080620006716000396000f3fe608060405234801561001057600080fd5b50600436106101375760003560e01c80637e5b7be9116100b8578063b71df9891161007c578063b71df9891461034a578063b88d4fde14610366578063c87b56dd14610382578063d0b96ef9146103b2578063e985e9c5146103d0578063f77c47911461040057610137565b80637e5b7be9146102ba5780637fdaa734146102d657806395d89b41146102f457806398f1112f14610312578063a22cb4651461032e57610137565b806323b872dd116100ff57806323b872dd146101f257806329372ad01461020e57806342842e0e1461023e5780636352211e1461025a57806370a082311461028a57610137565b806301ffc9a71461013c57806306cb5b661461016c57806306fdde0314610188578063081812fc146101a6578063095ea7b3146101d6575b600080fd5b610156600480360381019061015191906141ee565b61041e565b60405161016391906146a9565b60405180910390f35b61018660048036038101906101819190613ffe565b610584565b005b610190610904565b60405161019d91906146c4565b60405180910390f35b6101c060048036038101906101bb9190614248565b610a1a565b6040516101cd9190614642565b60405180910390f35b6101f060048036038101906101eb9190614181565b610bd3565b005b61020c6004803603810190610207919061406b565b610f27565b005b61022860048036038101906102239190614248565b6110bb565b6040516102359190614946565b60405180910390f35b6102586004803603810190610253919061406b565b611250565b005b610274600480360381019061026f9190614248565b6112f4565b6040516102819190614642565b60405180910390f35b6102a4600480360381019061029f9190613ffe565b611533565b6040516102b19190614946565b60405180910390f35b6102d460048036038101906102cf91906141c1565b611720565b005b6102de611723565b6040516102eb91906146c4565b60405180910390f35b6102fc61175c565b60405161030991906146c4565b60405180910390f35b61032c600480360381019061032791906141c1565b611872565b005b61034860048036038101906103439190614141565b611875565b005b610364600480360381019061035f9190614275565b611b82565b005b610380600480360381019061037b91906140be565b612170565b005b61039c60048036038101906103979190614248565b612306565b6040516103a991906146c4565b60405180910390f35b6103ba612539565b6040516103c79190614946565b60405180910390f35b6103ea60048036038101906103e5919061402b565b61253f565b6040516103f791906146a9565b60405180910390f35b610408612657565b6040516104159190614642565b60405180910390f35b600061044c7fac0ee51b88eda759d367a61081b71b16ad7114ebb65348fb17e751654b900afb60001b611872565b6104787f9de8895a2a2172f71f13de0f832bff5f86030e3f64247653046606f46648d55760001b611872565b6104a47f55677c8fb7d7f3e16efc80998408508041c46b839e4c5b52e226b90e463cd18860001b611872565b7f80ac58cd000000000000000000000000000000000000000000000000000000007bffffffffffffffffffffffffffffffffffffffffffffffffffffffff1916827bffffffffffffffffffffffffffffffffffffffffffffffffffffffff1916148061056d57507f5b5e139f000000000000000000000000000000000000000000000000000000007bffffffffffffffffffffffffffffffffffffffffffffffffffffffff1916827bffffffffffffffffffffffffffffffffffffffffffffffffffffffff1916145b8061057d575061057c8261267d565b5b9050919050565b6105b07f27972f320e8f96805178636f5b337bf3076d7a9385fd51bf90b55dac6bca507360001b611720565b6105dc7fa25dbbf62ba341f15f80d2a7f745e85d01d524f2b6f4ad4baac836a11569f5bd60001b611720565b6106087f8934ee336ba3d1596c38edd480663c6c308385f27d603d13b7e4884124d369fb60001b611720565b6106347f410c729f1208da891bf69e3ed4239db4a6467f767cb21e866272cee78dd05edc60001b611720565b600660009054906101000a900473ffffffffffffffffffffffffffffffffffffffff1673ffffffffffffffffffffffffffffffffffffffff163373ffffffffffffffffffffffffffffffffffffffff16146106c4576040517f08c379a00000000000000000000000000000000000000000000000000000000081526004016106bb906148e6565b60405180910390fd5b6106f07f94e83d8a28671a9637faeb4bd510c1595766ea97212f2803b607d28f5eb6720060001b611720565b61071c7f5f79e55afb3117197991e8693789e8bf0ec794dfbaa7566821adf0f45ebae76560001b611720565b6107487f7d48bad3ed0e9bcd878097d59a86fa320f654bc8f36c1e38328326c00cddd2e660001b611720565b6107747fc05a8a9ed19af8df64a4fb3b93882cb47caf26cb930aae2ee796ebce1afe040160001b611720565b6107a07fdfe50c7892d714a37da5eaad4d7bf2e43d7be60e2266a3508e7c2046bd7634dc60001b611720565b6107cc7f554051256f628723c2d84aa11c7ade5545d45c5b956f87987e21b06d5058fae160001b611720565b600073ffffffffffffffffffffffffffffffffffffffff168173ffffffffffffffffffffffffffffffffffffffff16141561083c576040517f08c379a000000000000000000000000000000000000000000000000000000000815260040161083390614786565b60405180910390fd5b6108687f0891a627b654abfe15bc713ceb3320d0863f8ef2e8aa2240fcafbf049e0f30d760001b611720565b6108947f7cfce3ae32a37bfca8f4376a47c080ebd8615775a7138c31e4882bbfddc6909d60001b611720565b6108c07f0bb0b5863a2414ba694ba8378bb0e73827d81fbcfe850f0f44698a240a5d9ee960001b611720565b80600660006101000a81548173ffffffffffffffffffffffffffffffffffffffff021916908373ffffffffffffffffffffffffffffffffffffffff16021790555050565b60606109327f810a95a36b871f3c7cc8e085aaad89ebd94b5bad657644eff47a970202757d0360001b611872565b61095e7f17a27c706bdd7d51c446cf005bab74015d0b48c7f7643c665a001cfddd43b56660001b611872565b61098a7f89b33bd469d0b6a8ac86b043bd0fd6d3bdc512bb15193683681f1472cda6842960001b611872565b6000805461099790614b75565b80601f01602080910402602001604051908101604052809291908181526020018280546109c390614b75565b8015610a105780601f106109e557610100808354040283529160200191610a10565b820191906000526020600020905b8154815290600101906020018083116109f357829003601f168201915b5050505050905090565b6000610a487fe213da7685ceb0459addada609f91c2d9fbe73ddd5ad8a6269f85a57e4dfb1b160001b611872565b610a747f2a6e849c8618d0b116f8eeddc9c82b9d067637f189419e0995daa5f076e1e7bd60001b611872565b610aa07fabbea2825505a5aa3bf84eb8a33dde188b36e5e748e71bbfb9b844578c90d5dc60001b611872565b610acc7f4c699a5989404c59311abe0cc3032851211febe69d48adf08501677396bdba7d60001b611872565b610ad5826126e7565b610b14576040517f08c379a0000000000000000000000000000000000000000000000000000000008152600401610b0b90614846565b60405180910390fd5b610b407ff2334e627731dafc43bcf57221885d6aa0047146883662564d2afbea3caac24160001b611872565b610b6c7f2e3081e1923ca712a03c381fff7a54802dbe62b00d75fddbc9eadc4d96f2b76360001b611872565b610b987f15e45459072fcf18dcc017226a99ad7a2c9e60b9991a6c4482221751971096fb60001b611872565b6004600083815260200190815260200160002060009054906101000a900473ffffffffffffffffffffffffffffffffffffffff169050919050565b610bff7f152eafef9a9099d7373bfadf7dc9d726b50d7087859ebde2fdd8ef862031e38560001b611872565b610c2b7fedc7b04e443202c0c61785ea4917400c6933b4e21e26d714dbb5faf6d015ba1960001b611872565b610c577f5468cb40a61739ff45a8dd5022acc5be5457fc639ab2de7e3c548795cbc98fbc60001b611872565b6000610c62826112f4565b9050610c907f62c371d0819da4f4416f27c89681f66465886b305fb8b3710cdd0ae7089367a660001b611872565b610cbc7f8ef2a0a6252c948f62a8ae861066a4875c0f853382a6d7da892c81d6c7ccacef60001b611872565b610ce87f9f567b476869fe7f08399308269cf19890b46ab21b621a48511976f324a5a63760001b611872565b8073ffffffffffffffffffffffffffffffffffffffff168373ffffffffffffffffffffffffffffffffffffffff161415610d57576040517f08c379a0000000000000000000000000000000000000000000000000000000008152600401610d4e906148a6565b60405180910390fd5b610d837f88e85cccd6a7bd096eabd1a916402c158e1d8f4648756f9909eed1eb74abd56360001b611872565b610daf7f2f81021847891a1e33828a3f37e5816f36431b0f855e0f4c7cddd6da8e00c9f760001b611872565b610ddb7fd003bbe4528c4cc4104eafd3ecfd2584e39112d602144f631684178ebe69aa8f60001b611872565b610e077f9360bc288a172c374c90828ad6ac2ee2eb2b132eda4e130a4e5b7e2ed165f02060001b611872565b8073ffffffffffffffffffffffffffffffffffffffff16610e266127d8565b73ffffffffffffffffffffffffffffffffffffffff161480610e555750610e5481610e4f6127d8565b61253f565b5b610e94576040517f08c379a0000000000000000000000000000000000000000000000000000000008152600401610e8b906147a6565b60405180910390fd5b610ec07f858b89039010798d082cb15c1280f0f4621a7874e36fca23f17d16d9a99f94bb60001b611872565b610eec7fadf166ffd56bde0a1a685949e482884fdd56bc509685cbacb00f4fb15ce1c88760001b611872565b610f187f62642e14fa9f3f7258c45be3e8f4c9f004c1c04932a1caa2e25d70a62045a73760001b611872565b610f2283836127e0565b505050565b610f537f2795a77b9529512c53740ac1e07ffa68d7bd8507ac08a603c4897ca7c9043ab260001b611872565b610f7f7f479a32fd2520640c178255b847fd20ded427ac1a6d333b210f8b37a33d89fc3860001b611872565b610fab7f53ad25670050d471d6c302db5f1a5a1b4b4e404e20d275ced5d7faa005c05a7160001b611872565b610fd77f4359453010007919fa170827cdb9a04ab4b7d003ff8984e1b8907b4b37b5ad2d60001b611872565b610fe8610fe26127d8565b82612975565b611027576040517f08c379a000000000000000000000000000000000000000000000000000000000815260040161101e906148c6565b60405180910390fd5b6110537fae53eb0c408486230c4a6e545bb08d1c48a402edda6588332a599768ec23b56c60001b611872565b61107f7fb92b9845aaae564077bfa02eaf7cce3822a40bdf3c351230f5e14730e771aec560001b611872565b6110ab7fd7ac79f22b2466225d4423cfbf285c9f4a07625f3139bfcb08e7e0e4bc87227860001b611872565b6110b6838383612bdf565b505050565b60006110e97f3cad4bd4f1f519fc24af57d2fb1a518e385013e4721dd52147990237384357e960001b611720565b6111157f7ee4d9f8d3c353fe4fa44dc4910046e8e3facfac4f975288b4d0a9bc87ce031060001b611720565b6111417fc899d467a5acfedd25f11b5a10b7018320f24be6c895aeff8d00320ed2f0de0160001b611720565b600760008381526020019081526020016000205490506111837fad0409b651d2a2c947abf46f45edd5c0a53310036ca67eeacc32089f37b4890560001b611720565b6111af7f7ac31c055342ab293c8f94ca8bb2a64767a680ee2a128d6e485af8f7badd9cb960001b611720565b6111db7fbc449e0c27be7dfbdf6ebaca27786e2ad6b6ce6c2098458b829538e628c8d79660001b611720565b600081141561121f576040517f08c379a000000000000000000000000000000000000000000000000000000000815260040161121690614926565b60405180910390fd5b61124b7f302e465db6bd3081627e3abefa7107e3ac82416c1a548573b8f857e5f3f749f460001b611720565b919050565b61127c7f0cb4913f667ff8ef88b94d4dca671923a9046e8d9d48739b77646b83e63e8f2d60001b611872565b6112a87f99d7ccdf3b216dcd59b3c09371a2088dae6135435a7997766ffc696d2a9fe91f60001b611872565b6112d47ff5d3e0c03adb6cf9f590260b66bd741204095a100088b42e3a7d8a3c17898a8c60001b611872565b6112ef83838360405180602001604052806000815250612170565b505050565b60006113227f40750e10700bb2f7ebd5b376810bd1cac285b66c983bcdfd7c1e59fc33c4394560001b611872565b61134e7feb92bb5ab5e24556b29c01cf396f638d301df908a125d76d5a8a0092e82ad33860001b611872565b61137a7f1aca67dea6e39fa9e66356197e24742dc9b50c60dd139c0d6ed54e1113c5eb3a60001b611872565b60006002600084815260200190815260200160002060009054906101000a900473ffffffffffffffffffffffffffffffffffffffff1690506113de7f1c819e0c46041878ef5a330fb73ca5e9437717a6fcc710447dde46fe5d1cb72e60001b611872565b61140a7fa0a69e8d08d51c5e636ffcbb76c6394f2a8f6b37fe486d313aca7808ef792a5c60001b611872565b6114367f2f4468829a23db790680505bf005e95974409be05b286d633fa63fd4b1ffba9a60001b611872565b600073ffffffffffffffffffffffffffffffffffffffff168173ffffffffffffffffffffffffffffffffffffffff1614156114a6576040517f08c379a000000000000000000000000000000000000000000000000000000000815260040161149d906147e6565b60405180910390fd5b6114d27f435ebeffa5bb32a4aee20c279c56195ef0f9f30d957fce720293e847c8db35d060001b611872565b6114fe7f4601393a15164028ebc802133731628adc02e283b310d77e09a05ce138e7dc8d60001b611872565b61152a7f1a41aa9ace0b7c08875b85339ca005d9aabc7452ede91bb0555a7dba1def2a1760001b611872565b80915050919050565b60006115617fe3d45a1141a58a907835c2a59873ed6a5f646e375966c56cc1eb0272d050669b60001b611872565b61158d7f898c3b683cca0bafa525122213064852d05ef0a673abadb1c5ecb02514c50f3860001b611872565b6115b97f123efccfcbc52075d75ef90ebdbffa30c1595ce74fbf63807f48a25a6222e0d460001b611872565b6115e57f3ca106fcd1a04628da00d0d7e3ee3459721e332fbf1ec990be8e8a39f0f96af660001b611872565b600073ffffffffffffffffffffffffffffffffffffffff168273ffffffffffffffffffffffffffffffffffffffff161415611655576040517f08c379a000000000000000000000000000000000000000000000000000000000815260040161164c906147c6565b60405180910390fd5b6116817f5146afa06c5820d0a464311bf50d35fc3372d08e4248ed6bb3dc073456c4808760001b611872565b6116ad7f0e078bed2d2f6bdba81ddd83010ee42979a34a194170b4f221a7a6c4cb5e892660001b611872565b6116d97f269fda7dc0191537cb6b92cbc2a3298e84bf63bcd9c6df1b1d29a2ef1734d51460001b611872565b600360008373ffffffffffffffffffffffffffffffffffffffff1673ffffffffffffffffffffffffffffffffffffffff168152602001908152602001600020549050919050565b50565b6040518060400160405280600a81526020017f302e312e302d626574610000000000000000000000000000000000000000000081525081565b606061178a7f69781d83c6fb1329c88954f1f3d9012ce54bd936a837a3b6fc15c52fe456183f60001b611872565b6117b67f0d7555527c37dc04f87e96524269051622fa49374ffc6c5fde26c09543f46c5a60001b611872565b6117e27fe18f909911c2f2fb94a203b70a100d4909936bd335a91c6fa898d8911727036260001b611872565b600180546117ef90614b75565b80601f016020809104026020016040519081016040528092919081815260200182805461181b90614b75565b80156118685780601f1061183d57610100808354040283529160200191611868565b820191906000526020600020905b81548152906001019060200180831161184b57829003601f168201915b5050505050905090565b50565b6118a17f9edf07d54efa7bbc7ff5efc957378bb5a49bf517f4733d594b356f3acd09fa5360001b611872565b6118cd7fa5d698c09d4a0cc4d3f7f2be2b61c1d58ad12d321e0510b9c5f862a7735ca5ab60001b611872565b6118f97fe974dff0050dceb0a9bc31a5e830235a8cf3769631ba7951595db2fb09c80c8260001b611872565b6119257f368aec0bff52786c711c8bdd0a0c68604374a14a7da601423925293c519090aa60001b611872565b61192d6127d8565b73ffffffffffffffffffffffffffffffffffffffff168273ffffffffffffffffffffffffffffffffffffffff16141561199b576040517f08c379a000000000000000000000000000000000000000000000000000000000815260040161199290614746565b60405180910390fd5b6119c77fc352c543cc598223edef7e69a790b78070f22177e8a49630514542e0068743b860001b611872565b6119f37f075155703d7884efdfbfddb3fad09368e3bef93346ec767b444b505c66a6d9af60001b611872565b611a1f7f4d9a8a63891592ab08758133f753150dacc639f4bd14b7f563eddbe0c733e2fc60001b611872565b8060056000611a2c6127d8565b73ffffffffffffffffffffffffffffffffffffffff1673ffffffffffffffffffffffffffffffffffffffff16815260200190815260200160002060008473ffffffffffffffffffffffffffffffffffffffff1673ffffffffffffffffffffffffffffffffffffffff16815260200190815260200160002060006101000a81548160ff021916908315150217905550611ae67ff908aabfb7203d44260eafedffeff5717a3bb414888e7c70c791a6e8a1948f2c60001b611872565b611b127fca05ffa6c2994e0e17438ca07c393070fdefd47e645ad9a408a75fcd7b802a5660001b611872565b8173ffffffffffffffffffffffffffffffffffffffff16611b316127d8565b73ffffffffffffffffffffffffffffffffffffffff167f17307eab39ab6107e8899845ad3d59bd9653f200f220920489ca2b5937696c3183604051611b7691906146a9565b60405180910390a35050565b611bae7f27972f320e8f96805178636f5b337bf3076d7a9385fd51bf90b55dac6bca507360001b611720565b611bda7fa25dbbf62ba341f15f80d2a7f745e85d01d524f2b6f4ad4baac836a11569f5bd60001b611720565b611c067f8934ee336ba3d1596c38edd480663c6c308385f27d603d13b7e4884124d369fb60001b611720565b611c327f410c729f1208da891bf69e3ed4239db4a6467f767cb21e866272cee78dd05edc60001b611720565b600660009054906101000a900473ffffffffffffffffffffffffffffffffffffffff1673ffffffffffffffffffffffffffffffffffffffff163373ffffffffffffffffffffffffffffffffffffffff1614611cc2576040517f08c379a0000000000000000000000000000000000000000000000000000000008152600401611cb9906148e6565b60405180910390fd5b611cee7f94e83d8a28671a9637faeb4bd510c1595766ea97212f2803b607d28f5eb6720060001b611720565b611d1a7f5f79e55afb3117197991e8693789e8bf0ec794dfbaa7566821adf0f45ebae76560001b611720565b611d467f152cdc4efb397f088d3bbec27821c79aa63d88b9980b1efd6b4c1be11fc615cf60001b611720565b611d727fec52adfeac07e477c1820b582d0c03336386273c55bf15e6e3205236c7c7972760001b611720565b611d9e7f8762f828435f25274936e7bcb9956149f594c56ea2ddbca5e8c5c93999fc0a6760001b611720565b611dca7f9e870efe5ff0fd90005e92ff939275545a9d84d376a8e141bf632f8c923235d260001b611720565b6000821415611e0e576040517f08c379a0000000000000000000000000000000000000000000000000000000008152600401611e0590614806565b60405180910390fd5b611e3a7f800142cce910e7957264b300ece3d411f7de1a9c7d7e9ffbb884153d778d2c8f60001b611720565b611e667f322920919aadfcf65e31971d46697963ca58b4b0857fd8134719fc7b0080252360001b611720565b611e927f23f04e0b060a57057f605873d792291b41b49ef8f7a48e130f459a79f11b3e3060001b611720565b611ebe7f37f5ad8921e216bbcb99ab0c7353ea8d980fb1af6738fe567ea929bb30f0090c60001b611720565b600073ffffffffffffffffffffffffffffffffffffffff168173ffffffffffffffffffffffffffffffffffffffff161415611f2e576040517f08c379a0000000000000000000000000000000000000000000000000000000008152600401611f2590614906565b60405180910390fd5b611f5a7fc8d0e48cda4d49e4c0fa4fb826a3c547db6d20bc1fe3d89957ceeb71a23bf49f60001b611720565b611f867f3bd5f867c1efa6f270c70c6690a3b4e4f826380f792510a2632644bf3ee29aac60001b611720565b611fb27f7c4808780f917d09bdd207d64a49f9da6a443241f00dde60a3ba908c0a9a080560001b611720565b60006008549050611fe57f44ebe9caad7b3d9f0e435c251bb7d63dee8a1fd7059088a0f2bdfd7e3d33efa260001b611720565b60086000815480929190611ff890614bd8565b91905055506120297f248780934be20c01e9f9e3601165545a747c889f873c4716a46347f5538bfe5760001b611720565b6120557ff055a9fb81afd9f0fba3c04f4d6c08cb27a87c6795375a0501d4e8e2b674eca060001b611720565b8260076000838152602001908152602001600020819055506120997f1daf746ead6663453da518d7dd1de14a61792d2febc0a53fce3ed0a9191788f960001b611720565b6120c57f3d6c1d83b6af04bd7a18830ba8057fff1c4662e06a89665bd7a4f6a906c83cef60001b611720565b6120cf82826131d7565b6120fb7f4c7d03610b23d8b38129625f5adda638f6803cc2e7da4e51337491a8eb797cdf60001b611720565b6121277f50740c5d214f269e2100e9eb4c6abfe8ed0480a3dd85b9a0c776e9f62a16fff960001b611720565b808273ffffffffffffffffffffffffffffffffffffffff167fd9a79f971481095a2a2336c344c7c01f5cc75128249ee793845743040b1c56ee60405160405180910390a3505050565b61219c7f6aeba3c0b5109b9f8a5dd80c1713efcf64e1e426ac505e03eb2f79b74e027f5960001b611872565b6121c87f9defbc71f646bc6e1cf598792cf36b501626ba58fa909f1162efdf1b923a9dc860001b611872565b6121f47fd9c04b3ede1bc59da5b7c41e2e5cb7d6234f924c9ab75e36d0e068ff5040873460001b611872565b6122207f31c31820d6bed70d6a33c0b421a46c07685ff7e5912f0a6a9c4b7197484b0b7060001b611872565b61223161222b6127d8565b83612975565b612270576040517f08c379a0000000000000000000000000000000000000000000000000000000008152600401612267906148c6565b60405180910390fd5b61229c7f828ee2bff549a6682bc2ce234915ac5866990c41cb5d7ba6a5071d82643501ec60001b611872565b6122c87f47ddb580117d0667c11a754c348b2d723efe34641ee0dbed7135016bbaa8af3060001b611872565b6122f47fd26093288d7894956559cf2de4b3402e2bb359bfabf901577305f62de0a33e9b60001b611872565b61230084848484613691565b50505050565b60606123347fc547a14cd9c64d4804d0713fcd624ec478564b34f94fd17309c25348ec4732a360001b611872565b6123607fbbbfa44db2c1bda69c037ac8567f809c00c0b36133107c72d5eed7ea3190a9b360001b611872565b61238c7f818fd6b4626144eff9bf8a2bde6c3afc4dadcf810fb1c1b6dba9460868fbb2a260001b611872565b6123b87f9ecedf62d13b80fc30cb56ae5c03186efb07d37ab5079cb7fec2d0dbf322e56e60001b611872565b6123c1826126e7565b612400576040517f08c379a00000000000000000000000000000000000000000000000000000000081526004016123f790614886565b60405180910390fd5b61242c7fec0084b8a8d4424db5757ca1107737fd6d248458fd19477d8225a52a6dbce2d760001b611872565b6124587fc1c12688b2fd9ca8bea2887f2f52edec3978912dfa72184548199f4590b9472860001b611872565b6124847f676f8204495c23c83dc1bebdd22ac82a40d6fbaf821673ba0b0c5cec3441944360001b611872565b600061248e613821565b90506124bc7fbd9bed326322a92000df73aed9806e38b6de40f278056979637399785e8fc10c60001b611872565b6124e87f935cd2aafc0b4663dbfc698853dddaa256c9ba23ca823b083110e35fd1873fc160001b611872565b60008151116125065760405180602001604052806000815250612531565b80612510846138bc565b60405160200161252192919061461e565b6040516020818303038152906040525b915050919050565b60085481565b600061256d7f902b7a0a920627e411b3daa0d299ffc088248103f4beac611e0aa7b5556584ad60001b611872565b6125997fc9488f3ac4b0f1f17783e7e5593c98c76ebc5dca31eea432e9ce70eaf8ab4c3060001b611872565b6125c57f3620174cc965b2ecb3f9e011777de86020d3e3c42d8b05e531e644fe8376e91560001b611872565b600560008473ffffffffffffffffffffffffffffffffffffffff1673ffffffffffffffffffffffffffffffffffffffff16815260200190815260200160002060008373ffffffffffffffffffffffffffffffffffffffff1673ffffffffffffffffffffffffffffffffffffffff16815260200190815260200160002060009054906101000a900460ff16905092915050565b600660009054906101000a900473ffffffffffffffffffffffffffffffffffffffff1681565b60007f01ffc9a7000000000000000000000000000000000000000000000000000000007bffffffffffffffffffffffffffffffffffffffffffffffffffffffff1916827bffffffffffffffffffffffffffffffffffffffffffffffffffffffff1916149050919050565b60006127157ff7daedb8bef0b80582d8f61d426cda8ea37516ba03a34036f646d65c0e764b6d60001b611872565b6127417f42e1a975f76bb9f58efb18fcf259a0aa1d33dd9d20cb38e3e457e6cb9e4ca5ad60001b611872565b61276d7f331f11adcdd8205a85ecc05bfd100ed8fcc4e83329494921633b49ec2ec90c5460001b611872565b600073ffffffffffffffffffffffffffffffffffffffff166002600084815260200190815260200160002060009054906101000a900473ffffffffffffffffffffffffffffffffffffffff1673ffffffffffffffffffffffffffffffffffffffff1614159050919050565b600033905090565b61280c7f479955e70cfc0426ce4eacae23a8cf5a3ad80dbf1080e2aea74983ab3b5f50c860001b611872565b6128387f2d65dc8886b0159815ca4bff1563d609e10065ca9b314777e9195273d2bc60d460001b611872565b6128647f9acdc9c84c198618e90e34723fb2913b27f7bdd278a5e8b33b85b25829e0e97360001b611872565b816004600083815260200190815260200160002060006101000a81548173ffffffffffffffffffffffffffffffffffffffff021916908373ffffffffffffffffffffffffffffffffffffffff1602179055506128e27fe6a55c41ab64e02cfe3447aa1ca828270e1b759ef9474e63272ab9b807a7d57160001b611872565b61290e7f2d156354dac921722837253a2af82e05aa7dedf7bf04fb391afb0d2bdd5331bd60001b611872565b808273ffffffffffffffffffffffffffffffffffffffff1661292f836112f4565b73ffffffffffffffffffffffffffffffffffffffff167f8c5be1e5ebec7d5bd14f71427d1e84f3dd0314c0f7b2291e5b200ac8c7c3b92560405160405180910390a45050565b60006129a37faf4f76cb2727d80126718fb8de5517c0c2af442e32afa57b6466a11368b9b17360001b611872565b6129cf7f2c1d589e37394411f4ed92613dadf4a6f87729432299cb995bb56b4eab0642a260001b611872565b6129fb7f4b8304d65b64a21078503c88a5d7fe71c3d3e7b9f6d41ca192a3213e9f92f0a060001b611872565b612a277fc84663a1dc598080e44d5c3747f4b963db625cb328b491d0d77951783c57082960001b611872565b612a30826126e7565b612a6f576040517f08c379a0000000000000000000000000000000000000000000000000000000008152600401612a6690614766565b60405180910390fd5b612a9b7fc57584526276c080d9e20a48d0f3f2217f4032269f7865a792884e9d76d0b82960001b611872565b612ac77fc70984790aeb5e33b93b4140e9050234436b5fe7a321f0093ddd5838b594729860001b611872565b612af37f29d1a812661e40617caf7eb37bd0594d69cd7e61d5d643e42d072ec61d506e7c60001b611872565b6000612afe836112f4565b9050612b2c7f8c4935b85bb01dc195328c277e2c21c74212e60c9c9417282532f6600a4ba30f60001b611872565b612b587f1e12455970d16ca39e63fc1fc1722e7db42ade952e5028c9f8abb44f389a757860001b611872565b8073ffffffffffffffffffffffffffffffffffffffff168473ffffffffffffffffffffffffffffffffffffffff161480612bc557508373ffffffffffffffffffffffffffffffffffffffff16612bad84610a1a565b73ffffffffffffffffffffffffffffffffffffffff16145b80612bd65750612bd5818561253f565b5b91505092915050565b612c0b7fa3658c5d416c22f14cbcbd604ef5bbd6f6d7cc04e965481b14cd073fb8d08a9560001b611872565b612c377ff63eefbc2c814d3e5e328cd8f99d09305021c4d4ce1b5988fd92be39186b57d360001b611872565b612c637f914b128c9b1b28aeeb4e2b821d49158da2d60412f740e9da4e62b1774cfb405e60001b611872565b612c8f7fe3fbb3a23c51ef24c5bd6fa55325554e76c7d30b4cef226d0c71fcd0d496401660001b611872565b8273ffffffffffffffffffffffffffffffffffffffff16612caf826112f4565b73ffffffffffffffffffffffffffffffffffffffff1614612d05576040517f08c379a0000000000000000000000000000000000000000000000000000000008152600401612cfc90614866565b60405180910390fd5b612d317f55fe7cbb15b65b93c7b61d443c1ccc5d714db38bbd53d67978d8341485b8cab960001b611872565b612d5d7f9c37565e5ba9da9e0702c93a3e1c47b6b050ccfaa7879aa087ec944e04df876460001b611872565b612d897f0afd240ec4ada26392122a88ddb4e79966bd72d2adfe4f3ca8c2e3f733bff1ac60001b611872565b612db57f75a8c391562848343dfc3e5477c83e331018a892de73fa59165c0ed5f11dfbb560001b611872565b600073ffffffffffffffffffffffffffffffffffffffff168273ffffffffffffffffffffffffffffffffffffffff161415612e25576040517f08c379a0000000000000000000000000000000000000000000000000000000008152600401612e1c90614726565b60405180910390fd5b612e517ff590d9b60b6ef96f71605397806e4c781d3898ca248ec90639ea2c70db691cab60001b611872565b612e7d7fd578ef65dbfdde877983f75183761010903cc93a1ccf0756ef70067c8b6e109f60001b611872565b612ea97fab134bce2c6a0486e3f06504b0b309ce483428c91a0b95059e28680e1b6dc25160001b611872565b612eb4838383613a1d565b612ee07f649cf62f5583d01a17cd4e0557ab084d8c8ff10dcd039ed66df1d41a5d2f99b160001b611872565b612f0c7faffcaf9890f9be32a833e128fdbf9bf60f8c67b95465780fc0500dc28b609f5d60001b611872565b612f176000826127e0565b612f437f4a7b097b1a66fe0aa5851ad84fdf7701283026db369252fa79afb1df9476bfbd60001b611872565b612f6f7f0e4f4d553df0df7808d207d67fda19bd7828e3d7eefe4136856e14b2426909ea60001b611872565b6001600360008573ffffffffffffffffffffffffffffffffffffffff1673ffffffffffffffffffffffffffffffffffffffff1681526020019081526020016000206000828254612fbf9190614a81565b92505081905550612ff27f9111ca81da309cd93b6bfdaca7fae73ea71c22b23f0f0aa4d15acbcbd05bd48860001b611872565b61301e7f07d2ca4cd53af481ee63ea49a28c11bd0464e8f1891cad8d293bf492411ba2c760001b611872565b6001600360008473ffffffffffffffffffffffffffffffffffffffff1673ffffffffffffffffffffffffffffffffffffffff168152602001908152602001600020600082825461306e91906149fa565b925050819055506130a17f93618e76dbb3d477951dfc28e280aae306855a07132b0cab327b0c548b9385d960001b611872565b6130cd7fa694b0c11ca1d3b798c810d0298f91993ab85deaa61b66c2d1ed2f993d4bd70860001b611872565b816002600083815260200190815260200160002060006101000a81548173ffffffffffffffffffffffffffffffffffffffff021916908373ffffffffffffffffffffffffffffffffffffffff16021790555061314b7f7491f980b27ae2f3349ff685d8711db9e8621db50f2fd6fd49753c9ea9cfdb5c60001b611872565b6131777fd543427256921ecfe9d7b08a53d587a490b6bd3b5224555b96fea46de0b14d1860001b611872565b808273ffffffffffffffffffffffffffffffffffffffff168473ffffffffffffffffffffffffffffffffffffffff167fddf252ad1be2c89b69c2b068fc378daa952ba7f163c4a11628f55a4df523b3ef60405160405180910390a4505050565b6132037fd99f0f8e94890eb38bcb332bb627ec6411803c3fd8a92046d1531ddbbe218c0b60001b611872565b61322f7f7e2c7d977948cf92c0b0fcc7ab5b4f5da4cd8a8cf16158e40e6468ad215cb3e560001b611872565b61325b7f0af56e2621134c7b99a12ecbec8e03ba57e6ac4b65c18c149d2e6b789e35313360001b611872565b6132877fe6e62fd49054d6f135101450fd78aa19df5c66be1a58f4c5b7d95240b8d7e5cd60001b611872565b600073ffffffffffffffffffffffffffffffffffffffff168273ffffffffffffffffffffffffffffffffffffffff1614156132f7576040517f08c379a00000000000000000000000000000000000000000000000000000000081526004016132ee90614826565b60405180910390fd5b6133237f5737fbf0a7404785797cbf0bbdb43e56806a0a9d039f9fe2ac688d7d5c29a2db60001b611872565b61334f7f634b368443676da5e0a3df577e779e7881df2ccf03f56615fdd422b8a4b9ab3060001b611872565b61337b7ffea9446fea10a00a3b1aab6ab93bd4e9e98ffa1b9d6c4de58f45c7e0223fcfc560001b611872565b6133a77fdd55a9acb86ab55083496d74008ab8643a1d0e36a51729272b4833d2ab83e63560001b611872565b6133b0816126e7565b156133f0576040517f08c379a00000000000000000000000000000000000000000000000000000000081526004016133e790614706565b60405180910390fd5b61341c7f28f90f3b179d468fef6b405379d37f90b7dd7af083a4e73f61d6e5342b4b1fff60001b611872565b6134487f3b3911558ff5de48dc2e7fc275ee2114a0e4100ec2b8726aa5f3650dd39ec17d60001b611872565b6134747ffdc8d91f3d0c07dbc02557b53364c0b3c97171306b8063375f8424e7bd6159fe60001b611872565b61348060008383613a1d565b6134ac7f8fb8e5023f60a6bbcdf26f4ce8e979298d03deac360b436958043ec48d94fe8660001b611872565b6134d87fd804596a94818a944cc993bcd2781496d22556a1ab699f9eccc045d10b0ab4ee60001b611872565b6001600360008473ffffffffffffffffffffffffffffffffffffffff1673ffffffffffffffffffffffffffffffffffffffff168152602001908152602001600020600082825461352891906149fa565b9250508190555061355b7ffafc9a820ce72ddf9d57188dcd20539cba921eae182add6a6ccfe1fc820b17d460001b611872565b6135877f7545ad133543fbfe6a40e55c65a8e9fcddedbeaf41f72a872bb3ea06ca28f7eb60001b611872565b816002600083815260200190815260200160002060006101000a81548173ffffffffffffffffffffffffffffffffffffffff021916908373ffffffffffffffffffffffffffffffffffffffff1602179055506136057fab65cb18f50a5cef5d9408391608219913c1d7c7beab7d0bcfdc70307114d6c460001b611872565b6136317ff3c034b7969d676429a1e808a8ba39b315ede2dc38d5098f568acf86aac0b10b60001b611872565b808273ffffffffffffffffffffffffffffffffffffffff16600073ffffffffffffffffffffffffffffffffffffffff167fddf252ad1be2c89b69c2b068fc378daa952ba7f163c4a11628f55a4df523b3ef60405160405180910390a45050565b6136bd7f0f61506e6c66214f420470f8cc905833f37da3b8043973bf95f0442666eef17a60001b611872565b6136e97fbcf3d57a4948bc1e0143b7ec5f0a3ddfd10ded02ad09f558ca2edbe73eaadbbc60001b611872565b6137157fdd7f68d11dafee19cd4459015acbe8789a26fed5780c1ea394f988de00fd09e360001b611872565b613720848484612bdf565b61374c7f13fd4e19979f3124f2411261f9348c9ecc098be3c348e7c7985b67a5323c110a60001b611872565b6137787fb6869ee5a9abc2e35f11154a2675c011ffc36e7338ed1c0020e4e1c81c8ba36460001b611872565b6137a47fc8afc3fe568910fae96040bb98689e6fbadf38c6b1ef5578e7cf63378995c90360001b611872565b6137b084848484613a4e565b6137ef576040517f08c379a00000000000000000000000000000000000000000000000000000000081526004016137e6906146e6565b60405180910390fd5b61381b7f71471a0005625f767cee763bd10469c5bb2528098ef11620bdd811f7cb54d14460001b611872565b50505050565b606061384f7f158e6045defd9d86f78f108caf6afd663d001d61f71b59d3f096a4b473a74a1e60001b611872565b61387b7fe3f32e8c3b9958608087b0d3439fe813ff5baaf34029fcf97533ce14ad31bb1d60001b611872565b6138a77f9caeb6e2f2348301314daffba1f7a1d9414b06b08cb6225d49fd39ad1110274060001b611872565b60405180602001604052806000815250905090565b60606000821415613904576040518060400160405280600181526020017f30000000000000000000000000000000000000000000000000000000000000008152509050613a18565b600082905060005b6000821461393657808061391f90614bd8565b915050600a8261392f9190614a50565b915061390c565b60008167ffffffffffffffff81111561395257613951614d0e565b5b6040519080825280601f01601f1916602001820160405280156139845781602001600182028036833780820191505090505b5090505b60008514613a115760018261399d9190614a81565b9150600a856139ac9190614c21565b60306139b891906149fa565b60f81b8183815181106139ce576139cd614cdf565b5b60200101907effffffffffffffffffffffffffffffffffffffffffffffffffffffffffffff1916908160001a905350600a85613a0a9190614a50565b9450613988565b8093505050505b919050565b613a497f2d632afbf4010bb7b4ae6beb4311b49c2fdf721c4774655660d27481b7d8f12d60001b611872565b505050565b6000613a7c7fc7a302eaf6ca14c063e5ac66f254894d34484c0db5b04f312cfb2011cd36f1f860001b611872565b613aa87f63ac46e44195980432d3dcf55d44b8aab385ac9e5c564a0b7885326017a9d32f60001b611872565b613ad47f47de8cb4909a3a9e54772d6b6996823dad4047d36f1465bd7da42fd1edf8225160001b611872565b613af38473ffffffffffffffffffffffffffffffffffffffff16613efd565b15613e6c57613b247f2cee920f5b80ef5995d0c082f088fe633b2c1a9dbf10ca8a606dd461c8af2a4760001b611872565b613b507f38d5fc489742d1192b8155b8db93fe4fd100b60dfcf46b55422df1f2fe7e23d560001b611872565b613b7c7f5f8b07e4f33aa1a66e31ae77e8d5538aac852d68de576ed7441b47e47502d8e560001b611872565b8373ffffffffffffffffffffffffffffffffffffffff1663150b7a02613ba06127d8565b8786866040518563ffffffff1660e01b8152600401613bc2949392919061465d565b602060405180830381600087803b158015613bdc57600080fd5b505af1925050508015613c0d57506040513d601f19601f82011682018060405250810190613c0a919061421b565b60015b613dc4573d8060008114613c3d576040519150601f19603f3d011682016040523d82523d6000602084013e613c42565b606091505b50613c6f7ffac8c797f7feb47ba5f80b4efd9e67607750e599f65c5b775089687f667e62ef60001b611872565b613c9b7fba60798dc58c30ca2d339e36c20a49584c241ee3235f7d5bc1c5da33edddbfab60001b611872565b600081511415613d6457613cd17fd3f17f7f86bce4dafa752ae9fb69a9b6132e180eec4d62dcb3a40697d16fafd360001b611872565b613cfd7fc55478f8dbd88b7c071cb05cc4811638f5e175f5351119727bbf6a96e4300e2360001b611872565b613d297fb1caed4f59d8d2fbb57bf720677e45cf55b205e4312eadc1097e892a8d00ece360001b611872565b6040517f08c379a0000000000000000000000000000000000000000000000000000000008152600401613d5b906146e6565b60405180910390fd5b613d907fd3c8479f6751e26ac99617f5b2d6e6e7e9e3908f71684ef666f6b2f02478b7ef60001b611872565b613dbc7fe36a74921da8bf8615353c2804c3013d27b91ca8d4fbbfdc6bd333fd38bbe3f460001b611872565b805181602001fd5b613df07f1f0f07641600b3294085d7c04592830613e475853ac8e0ba9453513989092f7760001b611872565b613e1c7f14b6dc363571bcacbb80a4ec61f76c5e5c56feda116c71789fd8f11e9d1b222160001b611872565b63150b7a0260e01b7bffffffffffffffffffffffffffffffffffffffffffffffffffffffff1916817bffffffffffffffffffffffffffffffffffffffffffffffffffffffff191614915050613ef5565b613e987f814b96eb6793913d8d7c9532203ce2abe10a33c824fc1d7f97ac533ca593d66f60001b611872565b613ec47f343090315034402be552e428b5847b86ca3c36cfd0e192038e0a24bacd10e28d60001b611872565b613ef07f98a6f586b48b3bb04464bdae4690a73c0d271386520db703253e90d1bebca8d360001b611872565b600190505b949350505050565b600080823b905060008111915050919050565b6000613f23613f1e84614986565b614961565b905082815260208101848484011115613f3f57613f3e614d42565b5b613f4a848285614b33565b509392505050565b600081359050613f61816152a7565b92915050565b600081359050613f76816152be565b92915050565b600081359050613f8b816152d5565b92915050565b600081359050613fa0816152ec565b92915050565b600081519050613fb5816152ec565b92915050565b600082601f830112613fd057613fcf614d3d565b5b8135613fe0848260208601613f10565b91505092915050565b600081359050613ff881615303565b92915050565b60006020828403121561401457614013614d4c565b5b600061402284828501613f52565b91505092915050565b6000806040838503121561404257614041614d4c565b5b600061405085828601613f52565b925050602061406185828601613f52565b9150509250929050565b60008060006060848603121561408457614083614d4c565b5b600061409286828701613f52565b93505060206140a386828701613f52565b92505060406140b486828701613fe9565b9150509250925092565b600080600080608085870312156140d8576140d7614d4c565b5b60006140e687828801613f52565b94505060206140f787828801613f52565b935050604061410887828801613fe9565b925050606085013567ffffffffffffffff81111561412957614128614d47565b5b61413587828801613fbb565b91505092959194509250565b6000806040838503121561415857614157614d4c565b5b600061416685828601613f52565b925050602061417785828601613f67565b9150509250929050565b6000806040838503121561419857614197614d4c565b5b60006141a685828601613f52565b92505060206141b785828601613fe9565b9150509250929050565b6000602082840312156141d7576141d6614d4c565b5b60006141e584828501613f7c565b91505092915050565b60006020828403121561420457614203614d4c565b5b600061421284828501613f91565b91505092915050565b60006020828403121561423157614230614d4c565b5b600061423f84828501613fa6565b91505092915050565b60006020828403121561425e5761425d614d4c565b5b600061426c84828501613fe9565b91505092915050565b6000806040838503121561428c5761428b614d4c565b5b600061429a85828601613fe9565b92505060206142ab85828601613f52565b9150509250929050565b6142be81614ab5565b82525050565b6142cd81614ac7565b82525050565b60006142de826149b7565b6142e881856149cd565b93506142f8818560208601614b42565b61430181614d51565b840191505092915050565b6000614317826149c2565b61432181856149de565b9350614331818560208601614b42565b61433a81614d51565b840191505092915050565b6000614350826149c2565b61435a81856149ef565b935061436a818560208601614b42565b80840191505092915050565b60006143836032836149de565b915061438e82614d62565b604082019050919050565b60006143a6601c836149de565b91506143b182614db1565b602082019050919050565b60006143c96024836149de565b91506143d482614dda565b604082019050919050565b60006143ec6019836149de565b91506143f782614e29565b602082019050919050565b600061440f602c836149de565b915061441a82614e52565b604082019050919050565b6000614432602b836149de565b915061443d82614ea1565b604082019050919050565b60006144556038836149de565b915061446082614ef0565b604082019050919050565b6000614478602a836149de565b915061448382614f3f565b604082019050919050565b600061449b6029836149de565b91506144a682614f8e565b604082019050919050565b60006144be6021836149de565b91506144c982614fdd565b604082019050919050565b60006144e16020836149de565b91506144ec8261502c565b602082019050919050565b6000614504602c836149de565b915061450f82615055565b604082019050919050565b60006145276029836149de565b9150614532826150a4565b604082019050919050565b600061454a602f836149de565b9150614555826150f3565b604082019050919050565b600061456d6021836149de565b915061457882615142565b604082019050919050565b60006145906031836149de565b915061459b82615191565b604082019050919050565b60006145b36032836149de565b91506145be826151e0565b604082019050919050565b60006145d66034836149de565b91506145e18261522f565b604082019050919050565b60006145f96020836149de565b91506146048261527e565b602082019050919050565b61461881614b29565b82525050565b600061462a8285614345565b91506146368284614345565b91508190509392505050565b600060208201905061465760008301846142b5565b92915050565b600060808201905061467260008301876142b5565b61467f60208301866142b5565b61468c604083018561460f565b818103606083015261469e81846142d3565b905095945050505050565b60006020820190506146be60008301846142c4565b92915050565b600060208201905081810360008301526146de818461430c565b905092915050565b600060208201905081810360008301526146ff81614376565b9050919050565b6000602082019050818103600083015261471f81614399565b9050919050565b6000602082019050818103600083015261473f816143bc565b9050919050565b6000602082019050818103600083015261475f816143df565b9050919050565b6000602082019050818103600083015261477f81614402565b9050919050565b6000602082019050818103600083015261479f81614425565b9050919050565b600060208201905081810360008301526147bf81614448565b9050919050565b600060208201905081810360008301526147df8161446b565b9050919050565b600060208201905081810360008301526147ff8161448e565b9050919050565b6000602082019050818103600083015261481f816144b1565b9050919050565b6000602082019050818103600083015261483f816144d4565b9050919050565b6000602082019050818103600083015261485f816144f7565b9050919050565b6000602082019050818103600083015261487f8161451a565b9050919050565b6000602082019050818103600083015261489f8161453d565b9050919050565b600060208201905081810360008301526148bf81614560565b9050919050565b600060208201905081810360008301526148df81614583565b9050919050565b600060208201905081810360008301526148ff816145a6565b9050919050565b6000602082019050818103600083015261491f816145c9565b9050919050565b6000602082019050818103600083015261493f816145ec565b9050919050565b600060208201905061495b600083018461460f565b92915050565b600061496b61497c565b90506149778282614ba7565b919050565b6000604051905090565b600067ffffffffffffffff8211156149a1576149a0614d0e565b5b6149aa82614d51565b9050602081019050919050565b600081519050919050565b600081519050919050565b600082825260208201905092915050565b600082825260208201905092915050565b600081905092915050565b6000614a0582614b29565b9150614a1083614b29565b9250827fffffffffffffffffffffffffffffffffffffffffffffffffffffffffffffffff03821115614a4557614a44614c52565b5b828201905092915050565b6000614a5b82614b29565b9150614a6683614b29565b925082614a7657614a75614c81565b5b828204905092915050565b6000614a8c82614b29565b9150614a9783614b29565b925082821015614aaa57614aa9614c52565b5b828203905092915050565b6000614ac082614b09565b9050919050565b60008115159050919050565b6000819050919050565b60007fffffffff0000000000000000000000000000000000000000000000000000000082169050919050565b600073ffffffffffffffffffffffffffffffffffffffff82169050919050565b6000819050919050565b82818337600083830152505050565b60005b83811015614b60578082015181840152602081019050614b45565b83811115614b6f576000848401525b50505050565b60006002820490506001821680614b8d57607f821691505b60208210811415614ba157614ba0614cb0565b5b50919050565b614bb082614d51565b810181811067ffffffffffffffff82111715614bcf57614bce614d0e565b5b80604052505050565b6000614be382614b29565b91507fffffffffffffffffffffffffffffffffffffffffffffffffffffffffffffffff821415614c1657614c15614c52565b5b600182019050919050565b6000614c2c82614b29565b9150614c3783614b29565b925082614c4757614c46614c81565b5b828206905092915050565b7f4e487b7100000000000000000000000000000000000000000000000000000000600052601160045260246000fd5b7f4e487b7100000000000000000000000000000000000000000000000000000000600052601260045260246000fd5b7f4e487b7100000000000000000000000000000000000000000000000000000000600052602260045260246000fd5b7f4e487b7100000000000000000000000000000000000000000000000000000000600052603260045260246000fd5b7f4e487b7100000000000000000000000000000000000000000000000000000000600052604160045260246000fd5b600080fd5b600080fd5b600080fd5b600080fd5b6000601f19601f8301169050919050565b7f4552433732313a207472616e7366657220746f206e6f6e20455243373231526560008201527f63656976657220696d706c656d656e7465720000000000000000000000000000602082015250565b7f4552433732313a20746f6b656e20616c7265616479206d696e74656400000000600082015250565b7f4552433732313a207472616e7366657220746f20746865207a65726f2061646460008201527f7265737300000000000000000000000000000000000000000000000000000000602082015250565b7f4552433732313a20617070726f766520746f2063616c6c657200000000000000600082015250565b7f4552433732313a206f70657261746f7220717565727920666f72206e6f6e657860008201527f697374656e7420746f6b656e0000000000000000000000000000000000000000602082015250565b7f57617272696f72733a20636f6e74726f6c6c65722063616e6e6f74206265206160008201527f646472657373207a65726f000000000000000000000000000000000000000000602082015250565b7f4552433732313a20617070726f76652063616c6c6572206973206e6f74206f7760008201527f6e6572206e6f7220617070726f76656420666f7220616c6c0000000000000000602082015250565b7f4552433732313a2062616c616e636520717565727920666f7220746865207a6560008201527f726f206164647265737300000000000000000000000000000000000000000000602082015250565b7f4552433732313a206f776e657220717565727920666f72206e6f6e657869737460008201527f656e7420746f6b656e0000000000000000000000000000000000000000000000602082015250565b7f57617272696f72733a206e6f2077617272696f7220776974686f75742067656e60008201527f6500000000000000000000000000000000000000000000000000000000000000602082015250565b7f4552433732313a206d696e7420746f20746865207a65726f2061646472657373600082015250565b7f4552433732313a20617070726f76656420717565727920666f72206e6f6e657860008201527f697374656e7420746f6b656e0000000000000000000000000000000000000000602082015250565b7f4552433732313a207472616e73666572206f6620746f6b656e2074686174206960008201527f73206e6f74206f776e0000000000000000000000000000000000000000000000602082015250565b7f4552433732314d657461646174613a2055524920717565727920666f72206e6f60008201527f6e6578697374656e7420746f6b656e0000000000000000000000000000000000602082015250565b7f4552433732313a20617070726f76616c20746f2063757272656e74206f776e6560008201527f7200000000000000000000000000000000000000000000000000000000000000602082015250565b7f4552433732313a207472616e736665722063616c6c6572206973206e6f74206f60008201527f776e6572206e6f7220617070726f766564000000000000000000000000000000602082015250565b7f57617272696f72733a204f6e6c7920636f6e74726f6c6c65722063616e20616360008201527f6365737320746869732066756e6374696f6e0000000000000000000000000000602082015250565b7f57617272696f72733a206e6f2077617272696f722063616e206265206173736960008201527f676e656420746f207a65726f2061646472657373000000000000000000000000602082015250565b7f57617272696f72733a2077617272696f7220646f6573206e6f74206578697374600082015250565b6152b081614ab5565b81146152bb57600080fd5b50565b6152c781614ac7565b81146152d257600080fd5b50565b6152de81614ad3565b81146152e957600080fd5b50565b6152f581614add565b811461530057600080fd5b50565b61530c81614b29565b811461531757600080fd5b5056fea2646970667358221220febe94ae9577aacde30a919d2d8988943ed50547b9114f78e880423196e1f99f64736f6c63430008060033",
  "linkReferences": {},
  "deployedLinkReferences": {}
}