{
  "_format": "hh-sol-artifact-1",
  "contractName": "Token",
  "sourceName": "contracts/demo/Token.sol",
  "abi": [
    {
      "inputs": [
        {
          "internalType": "address",
          "name": "_controller",
          "type": "address"
        }
      ],
      "stateMutability": "nonpayable",
      "type": "constructor"
    },
    {
      "anonymous": false,
      "inputs": [
        {
          "indexed": true,
          "internalType": "address",
          "name": "owner",
          "type": "address"
        },
        {
          "indexed": true,
          "internalType": "address",
          "name": "approved",
          "type": "address"
        },
        {
          "indexed": true,
          "internalType": "uint256",
          "name": "tokenId",
          "type": "uint256"
        }
      ],
      "name": "Approval",
      "type": "event"
    },
    {
      "anonymous": false,
      "inputs": [
        {
          "indexed": true,
          "internalType": "address",
          "name": "owner",
          "type": "address"
        },
        {
          "indexed": true,
          "internalType": "address",
          "name": "operator",
          "type": "address"
        },
        {
          "indexed": false,
          "internalType": "bool",
          "name": "approved",
          "type": "bool"
        }
      ],
      "name": "ApprovalForAll",
      "type": "event"
    },
    {
      "anonymous": false,
      "inputs": [
        {
          "indexed": true,
          "internalType": "address",
          "name": "from",
          "type": "address"
        },
        {
          "indexed": true,
          "internalType": "address",
          "name": "to",
          "type": "address"
        },
        {
          "indexed": true,
          "internalType": "uint256",
          "name": "tokenId",
          "type": "uint256"
        }
      ],
      "name": "Transfer",
      "type": "event"
    },
    {
      "inputs": [
        {
          "internalType": "address",
          "name": "to",
          "type": "address"
        },
        {
          "internalType": "uint256",
          "name": "tokenId",
          "type": "uint256"
        }
      ],
      "name": "approve",
      "outputs": [],
      "stateMutability": "nonpayable",
      "type": "function"
    },
    {
      "inputs": [
        {
          "internalType": "address",
          "name": "owner",
          "type": "address"
        }
      ],
      "name": "balanceOf",
      "outputs": [
        {
          "internalType": "uint256",
          "name": "",
          "type": "uint256"
        }
      ],
      "stateMutability": "view",
      "type": "function"
    },
    {
      "inputs": [
        {
          "internalType": "bytes32",
          "name": "c__0x527b18cb",
          "type": "bytes32"
        }
      ],
      "name": "c_0x527b18cb",
      "outputs": [],
      "stateMutability": "pure",
      "type": "function"
    },
    {
      "inputs": [
        {
          "internalType": "bytes32",
          "name": "c__0xe784d46f",
          "type": "bytes32"
        }
      ],
      "name": "c_0xe784d46f",
      "outputs": [],
      "stateMutability": "pure",
      "type": "function"
    },
    {
      "inputs": [],
      "name": "controller",
      "outputs": [
        {
          "internalType": "address",
          "name": "",
          "type": "address"
        }
      ],
      "stateMutability": "view",
      "type": "function"
    },
    {
      "inputs": [
        {
          "internalType": "uint256",
          "name": "tokenId",
          "type": "uint256"
        }
      ],
      "name": "getApproved",
      "outputs": [
        {
          "internalType": "address",
          "name": "",
          "type": "address"
        }
      ],
      "stateMutability": "view",
      "type": "function"
    },
    {
      "inputs": [
        {
          "internalType": "address",
          "name": "owner",
          "type": "address"
        },
        {
          "internalType": "address",
          "name": "operator",
          "type": "address"
        }
      ],
      "name": "isApprovedForAll",
      "outputs": [
        {
          "internalType": "bool",
          "name": "",
          "type": "bool"
        }
      ],
      "stateMutability": "view",
      "type": "function"
    },
    {
      "inputs": [],
      "name": "name",
      "outputs": [
        {
          "internalType": "string",
          "name": "",
          "type": "string"
        }
      ],
      "stateMutability": "view",
      "type": "function"
    },
    {
      "inputs": [
        {
          "internalType": "uint256",
          "name": "tokenId",
          "type": "uint256"
        }
      ],
      "name": "ownerOf",
      "outputs": [
        {
          "internalType": "address",
          "name": "",
          "type": "address"
        }
      ],
      "stateMutability": "view",
      "type": "function"
    },
    {
      "inputs": [
        {
          "internalType": "address",
          "name": "from",
          "type": "address"
        },
        {
          "internalType": "address",
          "name": "to",
          "type": "address"
        },
        {
          "internalType": "uint256",
          "name": "tokenId",
          "type": "uint256"
        }
      ],
      "name": "safeTransferFrom",
      "outputs": [],
      "stateMutability": "nonpayable",
      "type": "function"
    },
    {
      "inputs": [
        {
          "internalType": "address",
          "name": "from",
          "type": "address"
        },
        {
          "internalType": "address",
          "name": "to",
          "type": "address"
        },
        {
          "internalType": "uint256",
          "name": "tokenId",
          "type": "uint256"
        },
        {
          "internalType": "bytes",
          "name": "_data",
          "type": "bytes"
        }
      ],
      "name": "safeTransferFrom",
      "outputs": [],
      "stateMutability": "nonpayable",
      "type": "function"
    },
    {
      "inputs": [
        {
          "internalType": "address",
          "name": "operator",
          "type": "address"
        },
        {
          "internalType": "bool",
          "name": "approved",
          "type": "bool"
        }
      ],
      "name": "setApprovalForAll",
      "outputs": [],
      "stateMutability": "nonpayable",
      "type": "function"
    },
    {
      "inputs": [
        {
          "internalType": "bytes4",
          "name": "interfaceId",
          "type": "bytes4"
        }
      ],
      "name": "supportsInterface",
      "outputs": [
        {
          "internalType": "bool",
          "name": "",
          "type": "bool"
        }
      ],
      "stateMutability": "view",
      "type": "function"
    },
    {
      "inputs": [],
      "name": "symbol",
      "outputs": [
        {
          "internalType": "string",
          "name": "",
          "type": "string"
        }
      ],
      "stateMutability": "view",
      "type": "function"
    },
    {
      "inputs": [
        {
          "internalType": "uint256",
          "name": "tokenId",
          "type": "uint256"
        }
      ],
      "name": "tokenURI",
      "outputs": [
        {
          "internalType": "string",
          "name": "",
          "type": "string"
        }
      ],
      "stateMutability": "view",
      "type": "function"
    },
    {
      "inputs": [],
      "name": "token_version",
      "outputs": [
        {
          "internalType": "string",
          "name": "",
          "type": "string"
        }
      ],
      "stateMutability": "view",
      "type": "function"
    },
    {
      "inputs": [
        {
          "internalType": "address",
          "name": "from",
          "type": "address"
        },
        {
          "internalType": "address",
          "name": "to",
          "type": "address"
        },
        {
          "internalType": "uint256",
          "name": "tokenId",
          "type": "uint256"
        }
      ],
      "name": "transferFrom",
      "outputs": [],
      "stateMutability": "nonpayable",
      "type": "function"
    },
    {
      "inputs": [
        {
          "internalType": "address",
          "name": "",
          "type": "address"
        }
      ],
      "name": "vaccinators",
      "outputs": [
        {
          "internalType": "bytes32",
          "name": "",
          "type": "bytes32"
        }
      ],
      "stateMutability": "view",
      "type": "function"
    },
    {
      "inputs": [
        {
          "internalType": "bytes32",
          "name": "",
          "type": "bytes32"
        }
      ],
      "name": "vaccineTokens",
      "outputs": [
        {
          "internalType": "bytes",
          "name": "ipfsHash",
          "type": "bytes"
        },
        {
          "internalType": "bytes32",
          "name": "certificate_id",
          "type": "bytes32"
        },
        {
          "internalType": "bytes32",
          "name": "beneficiary_id",
          "type": "bytes32"
        },
        {
          "internalType": "uint16",
          "name": "country_id",
          "type": "uint16"
        },
        {
          "internalType": "bytes32",
          "name": "ipvc_beneficiary_id",
          "type": "bytes32"
        },
        {
          "internalType": "bytes32",
          "name": "ipvc_vaccinator_id",
          "type": "bytes32"
        }
      ],
      "stateMutability": "view",
      "type": "function"
    }
  ],
  "bytecode": "0x60a06040523480156200001157600080fd5b5060405162004762380380620047628339818101604052810190620000379190620004c5565b6040518060400160405280600c81526020017f56616363696e65546f6b656e00000000000000000000000000000000000000008152506040518060400160405280600281526020017f5654000000000000000000000000000000000000000000000000000000000000815250620000d77f6aeba3c0b5109b9f8a5dd80c1713efcf64e1e426ac505e03eb2f79b74e027f5960001b620003f860201b60201c565b6200010b7f9defbc71f646bc6e1cf598792cf36b501626ba58fa909f1162efdf1b923a9dc860001b620003f860201b60201c565b6200013f7fd9c04b3ede1bc59da5b7c41e2e5cb7d6234f924c9ab75e36d0e068ff5040873460001b620003f860201b60201c565b816000908051906020019062000157929190620003fe565b506200018c7f31c31820d6bed70d6a33c0b421a46c07685ff7e5912f0a6a9c4b7197484b0b7060001b620003f860201b60201c565b620001c07f828ee2bff549a6682bc2ce234915ac5866990c41cb5d7ba6a5071d82643501ec60001b620003f860201b60201c565b8060019080519060200190620001d8929190620003fe565b5050506200020f7f843f7b70cf6aed0c8efec72495275a1600cab7b1ec9cf203f821c66bbab10db860001b620003fb60201b60201c565b620002437f113be498c100b9defcb891c41988e01c843dc6d1f0202cdf7b925fbb19cbbc9e60001b620003fb60201b60201c565b620002777fdc5fa70eac6550efcaecaa679157282898b8efde8beda422beb3627e4d13234b60001b620003fb60201b60201c565b620002ab7f5b62019cf3f91b8de01d69ffb0ab70d917a6544bcea3caa966ef990be9c8ae1760001b620003fb60201b60201c565b600073ffffffffffffffffffffffffffffffffffffffff168173ffffffffffffffffffffffffffffffffffffffff1614156200031e576040517f08c379a0000000000000000000000000000000000000000000000000000000008152600401620003159062000518565b60405180910390fd5b620003527fb1199a2e2812455fa9cb0f36bb955f453575d459324a0b451a403beb83977d0960001b620003fb60201b60201c565b620003867f9be7e13c11b9d6919ecc2e9fc97bbcd99fee14ec8ea1ddd655f7ac9079a6911160001b620003fb60201b60201c565b620003ba7ff7439e7995a5ffe5f38c59164ef7d2c63764bf2e5bfd94cccad440dd803df08e60001b620003fb60201b60201c565b8073ffffffffffffffffffffffffffffffffffffffff1660808173ffffffffffffffffffffffffffffffffffffffff1660601b81525050506200064d565b50565b50565b8280546200040c906200057f565b90600052602060002090601f0160209004810192826200043057600085556200047c565b82601f106200044b57805160ff19168380011785556200047c565b828001600101855582156200047c579182015b828111156200047b5782518255916020019190600101906200045e565b5b5090506200048b91906200048f565b5090565b5b80821115620004aa57600081600090555060010162000490565b5090565b600081519050620004bf8162000633565b92915050565b600060208284031215620004d857600080fd5b6000620004e884828501620004ae565b91505092915050565b6000620005006030836200053a565b91506200050d82620005e4565b604082019050919050565b600060208201905081810360008301526200053381620004f1565b9050919050565b600082825260208201905092915050565b600062000558826200055f565b9050919050565b600073ffffffffffffffffffffffffffffffffffffffff82169050919050565b600060028204905060018216806200059857607f821691505b60208210811415620005af57620005ae620005b5565b5b50919050565b7f4e487b7100000000000000000000000000000000000000000000000000000000600052602260045260246000fd5b7f546f6b656e3a20436f6e74726f6c6c657220616464726573732063616e6e6f7460008201527f206265207a65726f206164647265737300000000000000000000000000000000602082015250565b6200063e816200054b565b81146200064a57600080fd5b50565b60805160601c6140f66200066c6000396000611c0301526140f66000f3fe608060405234801561001057600080fd5b50600436106101215760003560e01c806370a08231116100ad578063a3dd7a9911610071578063a3dd7a9914610331578063b88d4fde1461034d578063c87b56dd14610369578063e985e9c514610399578063f77c4791146103c957610121565b806370a082311461028d5780637fdaa734146102bd57806395d89b41146102db57806398f1112f146102f9578063a22cb4651461031557610121565b80630e92c8c5116100f45780630e92c8c5146101c057806323b872dd146101f057806342842e0e1461020c5780634a17f101146102285780636352211e1461025d57610121565b806301ffc9a71461012657806306fdde0314610156578063081812fc14610174578063095ea7b3146101a4575b600080fd5b610140600480360381019061013b9190613300565b6103e7565b60405161014d9190613698565b60405180910390f35b61015e61054d565b60405161016b9190613736565b60405180910390f35b61018e60048036038101906101899190613352565b610663565b60405161019b9190613631565b60405180910390f35b6101be60048036038101906101b9919061329b565b61081c565b005b6101da60048036038101906101d59190613130565b610b70565b6040516101e791906136b3565b60405180910390f35b61020a60048036038101906102059190613195565b610b88565b005b61022660048036038101906102219190613195565b610d1c565b005b610242600480360381019061023d91906132d7565b610dc0565b604051610254969594939291906136ce565b60405180910390f35b61027760048036038101906102729190613352565b610e92565b6040516102849190613631565b60405180910390f35b6102a760048036038101906102a29190613130565b6110d1565b6040516102b491906138d8565b60405180910390f35b6102c56112be565b6040516102d29190613736565b60405180910390f35b6102e36112f7565b6040516102f09190613736565b60405180910390f35b610313600480360381019061030e91906132d7565b61140d565b005b61032f600480360381019061032a919061325f565b611410565b005b61034b600480360381019061034691906132d7565b61171d565b005b610367600480360381019061036291906131e4565b611720565b005b610383600480360381019061037e9190613352565b6118b6565b6040516103909190613736565b60405180910390f35b6103b360048036038101906103ae9190613159565b611ae9565b6040516103c09190613698565b60405180910390f35b6103d1611c01565b6040516103de9190613631565b60405180910390f35b60006104157f47ddb580117d0667c11a754c348b2d723efe34641ee0dbed7135016bbaa8af3060001b61140d565b6104417fd26093288d7894956559cf2de4b3402e2bb359bfabf901577305f62de0a33e9b60001b61140d565b61046d7f0f61506e6c66214f420470f8cc905833f37da3b8043973bf95f0442666eef17a60001b61140d565b7f80ac58cd000000000000000000000000000000000000000000000000000000007bffffffffffffffffffffffffffffffffffffffffffffffffffffffff1916827bffffffffffffffffffffffffffffffffffffffffffffffffffffffff1916148061053657507f5b5e139f000000000000000000000000000000000000000000000000000000007bffffffffffffffffffffffffffffffffffffffffffffffffffffffff1916827bffffffffffffffffffffffffffffffffffffffffffffffffffffffff1916145b80610546575061054582611c25565b5b9050919050565b606061057b7f8c4935b85bb01dc195328c277e2c21c74212e60c9c9417282532f6600a4ba30f60001b61140d565b6105a77f1e12455970d16ca39e63fc1fc1722e7db42ade952e5028c9f8abb44f389a757860001b61140d565b6105d37fdddbf271ef41e2b61e76cfdf93a626dc25a314ebb2e3e40c4ea5ee9dc9c1e6ad60001b61140d565b600080546105e090613b15565b80601f016020809104026020016040519081016040528092919081815260200182805461060c90613b15565b80156106595780601f1061062e57610100808354040283529160200191610659565b820191906000526020600020905b81548152906001019060200180831161063c57829003601f168201915b5050505050905090565b60006106917f1827e584c6dd553aad2771bfef68b963fe28f633f79afad9a39196f576e57b6460001b61140d565b6106bd7f315428852f725b1e8c887d4b93e9b99b8ab944e2148ddcc57df8758b885fbfa660001b61140d565b6106e97f168b32863b7eae7b7568583947b76d3201e7101c4102f151b14cbc3aad5b208560001b61140d565b6107157f7a8b89539549bea52c6338357d201151d690a08ea7e0bf3eed5f8ed162a58b1b60001b61140d565b61071e82611c8f565b61075d576040517f08c379a000000000000000000000000000000000000000000000000000000000815260040161075490613838565b60405180910390fd5b6107897f141cbf3e9a6da91df252497dc0f44458823707cf08942edd7955b1722dc7055660001b61140d565b6107b57f91314c5516b54b0816dfa534556526d401e08b5515cc39b940254831161d354d60001b61140d565b6107e17f5d4a62610c767348e88e29764fe37856b6f775a1fcd4ac5e8a7e8373073430db60001b61140d565b6004600083815260200190815260200160002060009054906101000a900473ffffffffffffffffffffffffffffffffffffffff169050919050565b6108487ffea9446fea10a00a3b1aab6ab93bd4e9e98ffa1b9d6c4de58f45c7e0223fcfc560001b61140d565b6108747fdd55a9acb86ab55083496d74008ab8643a1d0e36a51729272b4833d2ab83e63560001b61140d565b6108a07f28f90f3b179d468fef6b405379d37f90b7dd7af083a4e73f61d6e5342b4b1fff60001b61140d565b60006108ab82610e92565b90506108d97f3b3911558ff5de48dc2e7fc275ee2114a0e4100ec2b8726aa5f3650dd39ec17d60001b61140d565b6109057ffdc8d91f3d0c07dbc02557b53364c0b3c97171306b8063375f8424e7bd6159fe60001b61140d565b6109317f8fb8e5023f60a6bbcdf26f4ce8e979298d03deac360b436958043ec48d94fe8660001b61140d565b8073ffffffffffffffffffffffffffffffffffffffff168373ffffffffffffffffffffffffffffffffffffffff1614156109a0576040517f08c379a000000000000000000000000000000000000000000000000000000000815260040161099790613898565b60405180910390fd5b6109cc7fd804596a94818a944cc993bcd2781496d22556a1ab699f9eccc045d10b0ab4ee60001b61140d565b6109f87ffafc9a820ce72ddf9d57188dcd20539cba921eae182add6a6ccfe1fc820b17d460001b61140d565b610a247f7545ad133543fbfe6a40e55c65a8e9fcddedbeaf41f72a872bb3ea06ca28f7eb60001b61140d565b610a507fab65cb18f50a5cef5d9408391608219913c1d7c7beab7d0bcfdc70307114d6c460001b61140d565b8073ffffffffffffffffffffffffffffffffffffffff16610a6f611d80565b73ffffffffffffffffffffffffffffffffffffffff161480610a9e5750610a9d81610a98611d80565b611ae9565b5b610add576040517f08c379a0000000000000000000000000000000000000000000000000000000008152600401610ad4906137d8565b60405180910390fd5b610b097ff3c034b7969d676429a1e808a8ba39b315ede2dc38d5098f568acf86aac0b10b60001b61140d565b610b357f1677e3c59271b1658591e29b9c30ffdc4ff1aa3a8318e56b8bb8a4b8e6ea9fb460001b61140d565b610b617f1ff2f1e88f61cab1ba0b20dd88221206932fc773776c76f26093efe6a49b7a1560001b61140d565b610b6b8383611d88565b505050565b60076020528060005260406000206000915090505481565b610bb47fd578ef65dbfdde877983f75183761010903cc93a1ccf0756ef70067c8b6e109f60001b61140d565b610be07fab134bce2c6a0486e3f06504b0b309ce483428c91a0b95059e28680e1b6dc25160001b61140d565b610c0c7f649cf62f5583d01a17cd4e0557ab084d8c8ff10dcd039ed66df1d41a5d2f99b160001b61140d565b610c387faffcaf9890f9be32a833e128fdbf9bf60f8c67b95465780fc0500dc28b609f5d60001b61140d565b610c49610c43611d80565b82611f1d565b610c88576040517f08c379a0000000000000000000000000000000000000000000000000000000008152600401610c7f906138b8565b60405180910390fd5b610cb47f4a7b097b1a66fe0aa5851ad84fdf7701283026db369252fa79afb1df9476bfbd60001b61140d565b610ce07f0e4f4d553df0df7808d207d67fda19bd7828e3d7eefe4136856e14b2426909ea60001b61140d565b610d0c7f9111ca81da309cd93b6bfdaca7fae73ea71c22b23f0f0aa4d15acbcbd05bd48860001b61140d565b610d17838383612187565b505050565b610d487f07d2ca4cd53af481ee63ea49a28c11bd0464e8f1891cad8d293bf492411ba2c760001b61140d565b610d747f93618e76dbb3d477951dfc28e280aae306855a07132b0cab327b0c548b9385d960001b61140d565b610da07fa694b0c11ca1d3b798c810d0298f91993ab85deaa61b66c2d1ed2f993d4bd70860001b61140d565b610dbb83838360405180602001604052806000815250611720565b505050565b6006602052806000526040600020600091509050806000018054610de390613b15565b80601f0160208091040260200160405190810160405280929190818152602001828054610e0f90613b15565b8015610e5c5780601f10610e3157610100808354040283529160200191610e5c565b820191906000526020600020905b815481529060010190602001808311610e3f57829003601f168201915b5050505050908060010154908060020154908060030160009054906101000a900461ffff16908060040154908060050154905086565b6000610ec07f42e1a975f76bb9f58efb18fcf259a0aa1d33dd9d20cb38e3e457e6cb9e4ca5ad60001b61140d565b610eec7f331f11adcdd8205a85ecc05bfd100ed8fcc4e83329494921633b49ec2ec90c5460001b61140d565b610f187faf4f76cb2727d80126718fb8de5517c0c2af442e32afa57b6466a11368b9b17360001b61140d565b60006002600084815260200190815260200160002060009054906101000a900473ffffffffffffffffffffffffffffffffffffffff169050610f7c7f2c1d589e37394411f4ed92613dadf4a6f87729432299cb995bb56b4eab0642a260001b61140d565b610fa87f4b8304d65b64a21078503c88a5d7fe71c3d3e7b9f6d41ca192a3213e9f92f0a060001b61140d565b610fd47fc84663a1dc598080e44d5c3747f4b963db625cb328b491d0d77951783c57082960001b61140d565b600073ffffffffffffffffffffffffffffffffffffffff168173ffffffffffffffffffffffffffffffffffffffff161415611044576040517f08c379a000000000000000000000000000000000000000000000000000000000815260040161103b90613818565b60405180910390fd5b6110707fc57584526276c080d9e20a48d0f3f2217f4032269f7865a792884e9d76d0b82960001b61140d565b61109c7fc70984790aeb5e33b93b4140e9050234436b5fe7a321f0093ddd5838b594729860001b61140d565b6110c87f29d1a812661e40617caf7eb37bd0594d69cd7e61d5d643e42d072ec61d506e7c60001b61140d565b80915050919050565b60006110ff7fbcf3d57a4948bc1e0143b7ec5f0a3ddfd10ded02ad09f558ca2edbe73eaadbbc60001b61140d565b61112b7fdd7f68d11dafee19cd4459015acbe8789a26fed5780c1ea394f988de00fd09e360001b61140d565b6111577f13fd4e19979f3124f2411261f9348c9ecc098be3c348e7c7985b67a5323c110a60001b61140d565b6111837fb6869ee5a9abc2e35f11154a2675c011ffc36e7338ed1c0020e4e1c81c8ba36460001b61140d565b600073ffffffffffffffffffffffffffffffffffffffff168273ffffffffffffffffffffffffffffffffffffffff1614156111f3576040517f08c379a00000000000000000000000000000000000000000000000000000000081526004016111ea906137f8565b60405180910390fd5b61121f7fc8afc3fe568910fae96040bb98689e6fbadf38c6b1ef5578e7cf63378995c90360001b61140d565b61124b7f71471a0005625f767cee763bd10469c5bb2528098ef11620bdd811f7cb54d14460001b61140d565b6112777ff7daedb8bef0b80582d8f61d426cda8ea37516ba03a34036f646d65c0e764b6d60001b61140d565b600360008373ffffffffffffffffffffffffffffffffffffffff1673ffffffffffffffffffffffffffffffffffffffff168152602001908152602001600020549050919050565b6040518060400160405280600a81526020017f302e312e302d626574610000000000000000000000000000000000000000000081525081565b60606113257ffd497cff94bf550dc43cdec07a4222c69aaff674c61339f3d74c1c63f3f7b72260001b61140d565b6113517f4e32b6348a71f607914c83496bc733e7dbab7ff2a0f7e01db1dc915c7f3bfd4960001b61140d565b61137d7ff3a38e77e0943c9eb58b08c3198a8f334964f45f3af7771358bc497eecdc956560001b61140d565b6001805461138a90613b15565b80601f01602080910402602001604051908101604052809291908181526020018280546113b690613b15565b80156114035780601f106113d857610100808354040283529160200191611403565b820191906000526020600020905b8154815290600101906020018083116113e657829003601f168201915b5050505050905090565b50565b61143c7fa3a31ba2a169f22fd397b90f6ce18439ce50802e1850bf6a24fa05a24761dfe760001b61140d565b6114687f0c7654d4b1501cad4da8cec963d50a82ee1b2b74a654b6a419c839449691848c60001b61140d565b6114947f862e91f24da37c57d8d24478e4b195480569fc6eca7851053ff51e79d1f5222860001b61140d565b6114c07fa3658c5d416c22f14cbcbd604ef5bbd6f6d7cc04e965481b14cd073fb8d08a9560001b61140d565b6114c8611d80565b73ffffffffffffffffffffffffffffffffffffffff168273ffffffffffffffffffffffffffffffffffffffff161415611536576040517f08c379a000000000000000000000000000000000000000000000000000000000815260040161152d90613798565b60405180910390fd5b6115627ff63eefbc2c814d3e5e328cd8f99d09305021c4d4ce1b5988fd92be39186b57d360001b61140d565b61158e7f914b128c9b1b28aeeb4e2b821d49158da2d60412f740e9da4e62b1774cfb405e60001b61140d565b6115ba7fe3fbb3a23c51ef24c5bd6fa55325554e76c7d30b4cef226d0c71fcd0d496401660001b61140d565b80600560006115c7611d80565b73ffffffffffffffffffffffffffffffffffffffff1673ffffffffffffffffffffffffffffffffffffffff16815260200190815260200160002060008473ffffffffffffffffffffffffffffffffffffffff1673ffffffffffffffffffffffffffffffffffffffff16815260200190815260200160002060006101000a81548160ff0219169083151502179055506116817f55fe7cbb15b65b93c7b61d443c1ccc5d714db38bbd53d67978d8341485b8cab960001b61140d565b6116ad7f9c37565e5ba9da9e0702c93a3e1c47b6b050ccfaa7879aa087ec944e04df876460001b61140d565b8173ffffffffffffffffffffffffffffffffffffffff166116cc611d80565b73ffffffffffffffffffffffffffffffffffffffff167f17307eab39ab6107e8899845ad3d59bd9653f200f220920489ca2b5937696c31836040516117119190613698565b60405180910390a35050565b50565b61174c7f7491f980b27ae2f3349ff685d8711db9e8621db50f2fd6fd49753c9ea9cfdb5c60001b61140d565b6117787fd543427256921ecfe9d7b08a53d587a490b6bd3b5224555b96fea46de0b14d1860001b61140d565b6117a47f479955e70cfc0426ce4eacae23a8cf5a3ad80dbf1080e2aea74983ab3b5f50c860001b61140d565b6117d07f2d65dc8886b0159815ca4bff1563d609e10065ca9b314777e9195273d2bc60d460001b61140d565b6117e16117db611d80565b83611f1d565b611820576040517f08c379a0000000000000000000000000000000000000000000000000000000008152600401611817906138b8565b60405180910390fd5b61184c7f9acdc9c84c198618e90e34723fb2913b27f7bdd278a5e8b33b85b25829e0e97360001b61140d565b6118787fe6a55c41ab64e02cfe3447aa1ca828270e1b759ef9474e63272ab9b807a7d57160001b61140d565b6118a47f2d156354dac921722837253a2af82e05aa7dedf7bf04fb391afb0d2bdd5331bd60001b61140d565b6118b08484848461277f565b50505050565b60606118e47fe23f4ed7effcc424244926d6628c8d7b620b7e120ae184e5f0a72540ae1df0be60001b61140d565b6119107f3a2506c9d72728e8905d5cc9e1df5659a24d9d4b611faea97c40084642bebccb60001b61140d565b61193c7f256d02d3b2e56f07ef4b2651eb03885e6e7799778540f09b1819350442c543fa60001b61140d565b6119687fc2f64e4b2b5be7139911e2439380c5be6afb514546f543fd95ad70d779723c8e60001b61140d565b61197182611c8f565b6119b0576040517f08c379a00000000000000000000000000000000000000000000000000000000081526004016119a790613878565b60405180910390fd5b6119dc7f1650f46feab19d22092ff0857de88596c04c1ccd3bf5444e3907bef5089114af60001b61140d565b611a087fad8fcbbaa9776e8c7d5e0ebd2713e6efe850ff87047de1ab0c321dbeee0ca6fc60001b61140d565b611a347fd99f0f8e94890eb38bcb332bb627ec6411803c3fd8a92046d1531ddbbe218c0b60001b61140d565b6000611a3e61290f565b9050611a6c7f7e2c7d977948cf92c0b0fcc7ab5b4f5da4cd8a8cf16158e40e6468ad215cb3e560001b61140d565b611a987f0af56e2621134c7b99a12ecbec8e03ba57e6ac4b65c18c149d2e6b789e35313360001b61140d565b6000815111611ab65760405180602001604052806000815250611ae1565b80611ac0846129aa565b604051602001611ad192919061360d565b6040516020818303038152906040525b915050919050565b6000611b177f0afd240ec4ada26392122a88ddb4e79966bd72d2adfe4f3ca8c2e3f733bff1ac60001b61140d565b611b437f75a8c391562848343dfc3e5477c83e331018a892de73fa59165c0ed5f11dfbb560001b61140d565b611b6f7ff590d9b60b6ef96f71605397806e4c781d3898ca248ec90639ea2c70db691cab60001b61140d565b600560008473ffffffffffffffffffffffffffffffffffffffff1673ffffffffffffffffffffffffffffffffffffffff16815260200190815260200160002060008373ffffffffffffffffffffffffffffffffffffffff1673ffffffffffffffffffffffffffffffffffffffff16815260200190815260200160002060009054906101000a900460ff16905092915050565b7f000000000000000000000000000000000000000000000000000000000000000081565b60007f01ffc9a7000000000000000000000000000000000000000000000000000000007bffffffffffffffffffffffffffffffffffffffffffffffffffffffff1916827bffffffffffffffffffffffffffffffffffffffffffffffffffffffff1916149050919050565b6000611cbd7f14b6dc363571bcacbb80a4ec61f76c5e5c56feda116c71789fd8f11e9d1b222160001b61140d565b611ce97ffac8c797f7feb47ba5f80b4efd9e67607750e599f65c5b775089687f667e62ef60001b61140d565b611d157fba60798dc58c30ca2d339e36c20a49584c241ee3235f7d5bc1c5da33edddbfab60001b61140d565b600073ffffffffffffffffffffffffffffffffffffffff166002600084815260200190815260200160002060009054906101000a900473ffffffffffffffffffffffffffffffffffffffff1673ffffffffffffffffffffffffffffffffffffffff1614159050919050565b600033905090565b611db47f2ea853659caff3b0e26fff5c46df4b866f0ac09dba3d93bf18cb5847287e872460001b61140d565b611de07fdea50187207027ddef73a0c31a309ccc7bb2a89fcadff549710eeffeca04c7a060001b61140d565b611e0c7f1173e6cdcd866b658ffdf2ad9464e8513bbd4c7b00d36f433cbd364c23ccb77860001b61140d565b816004600083815260200190815260200160002060006101000a81548173ffffffffffffffffffffffffffffffffffffffff021916908373ffffffffffffffffffffffffffffffffffffffff160217905550611e8a7ff83a752baf8e008ef4ba9f27ae1117945fde69e645d33256c6816a0037f5574f60001b61140d565b611eb67fbceeddf5d3d69e49bccc3a0c0e8a680ed4500df1e3e4842051b4335354fcaf3c60001b61140d565b808273ffffffffffffffffffffffffffffffffffffffff16611ed783610e92565b73ffffffffffffffffffffffffffffffffffffffff167f8c5be1e5ebec7d5bd14f71427d1e84f3dd0314c0f7b2291e5b200ac8c7c3b92560405160405180910390a45050565b6000611f4b7fd3f17f7f86bce4dafa752ae9fb69a9b6132e180eec4d62dcb3a40697d16fafd360001b61140d565b611f777fc55478f8dbd88b7c071cb05cc4811638f5e175f5351119727bbf6a96e4300e2360001b61140d565b611fa37fb1caed4f59d8d2fbb57bf720677e45cf55b205e4312eadc1097e892a8d00ece360001b61140d565b611fcf7fd3c8479f6751e26ac99617f5b2d6e6e7e9e3908f71684ef666f6b2f02478b7ef60001b61140d565b611fd882611c8f565b612017576040517f08c379a000000000000000000000000000000000000000000000000000000000815260040161200e906137b8565b60405180910390fd5b6120437fe36a74921da8bf8615353c2804c3013d27b91ca8d4fbbfdc6bd333fd38bbe3f460001b61140d565b61206f7f814b96eb6793913d8d7c9532203ce2abe10a33c824fc1d7f97ac533ca593d66f60001b61140d565b61209b7f343090315034402be552e428b5847b86ca3c36cfd0e192038e0a24bacd10e28d60001b61140d565b60006120a683610e92565b90506120d47f98a6f586b48b3bb04464bdae4690a73c0d271386520db703253e90d1bebca8d360001b61140d565b6121007f2d632afbf4010bb7b4ae6beb4311b49c2fdf721c4774655660d27481b7d8f12d60001b61140d565b8073ffffffffffffffffffffffffffffffffffffffff168473ffffffffffffffffffffffffffffffffffffffff16148061216d57508373ffffffffffffffffffffffffffffffffffffffff1661215584610663565b73ffffffffffffffffffffffffffffffffffffffff16145b8061217e575061217d8185611ae9565b5b91505092915050565b6121b37fc78fc7f94a6d481c3f29bd5d3818843fcb1718e7dd646fc5385405744cd6b1d360001b61140d565b6121df7f18e19a9e92fd32f341f108a070484a27a76e97891faf104e324c3f15ebac3a9460001b61140d565b61220b7f8f11b91d59060b17a22729a43fc7009893a5b8275b3d20182b5d2cd222d82f9f60001b61140d565b6122377f9181ad9f50e241e806f592c0729e27d8398aec3671e7ef210e9dfc14ab34741660001b61140d565b8273ffffffffffffffffffffffffffffffffffffffff1661225782610e92565b73ffffffffffffffffffffffffffffffffffffffff16146122ad576040517f08c379a00000000000000000000000000000000000000000000000000000000081526004016122a490613858565b60405180910390fd5b6122d97fdf09bb21d9c0ccd7dffd77c8f2e10d29b40a132e58822a51e69a070db83d010760001b61140d565b6123057f317513a8c4d0934dad205598f48d0dad62e9767ba25969ea9266948676bbe7a160001b61140d565b6123317f4a36e6ee1e2b0789d25dfa8a72ab5af678a7b7602b73306f99746112d8aedac260001b61140d565b61235d7f15e36972138a6ea319a93713c050740a59df9a58a3f36b603c3a88562630ab1c60001b61140d565b600073ffffffffffffffffffffffffffffffffffffffff168273ffffffffffffffffffffffffffffffffffffffff1614156123cd576040517f08c379a00000000000000000000000000000000000000000000000000000000081526004016123c490613778565b60405180910390fd5b6123f97f5ca7be8bd271f78bb761d4d090e7c66688cfe23e7108f8e8a093a0d107154cbc60001b61140d565b6124257fa1fe706dcf39e39db4e8b5822fd8f1162c0cfd3e74dbb76f5556871b34adfcff60001b61140d565b6124517f8cfb7459b13742d3d6d737a31d69544a451c064f100561b517d6deebadc4e34360001b61140d565b61245c838383612b57565b6124887f737da5afd6755ba66594b405c7ba0a34a964084bbd9a7da3feb4f67872b1bd6860001b61140d565b6124b47f1c1c057feab61b2a2576cee3d69b7d4837622523e3ff08f2a0cc2fc7e1d64ca260001b61140d565b6124bf600082611d88565b6124eb7f0fb57949c1b384c1b3e96d27c96ecf109ca54e93349a07e06197b81b0c2359d960001b61140d565b6125177f4e8cd8bec21cc4653793f3b450cf31252cc4b44899b45e5213c3e4ad5789795360001b61140d565b6001600360008573ffffffffffffffffffffffffffffffffffffffff1673ffffffffffffffffffffffffffffffffffffffff16815260200190815260200160002060008282546125679190613a13565b9250508190555061259a7f5cc87b59b4d05a0c2bbd5bb75e89f5a78d32ff0bd0a3daab0ac975d9a1f5293660001b61140d565b6125c67f224116c5d598a8e08c1a2dc1a963604e05afaccfa95cfafc585f335b37404cf360001b61140d565b6001600360008473ffffffffffffffffffffffffffffffffffffffff1673ffffffffffffffffffffffffffffffffffffffff1681526020019081526020016000206000828254612616919061398c565b925050819055506126497f58e931d3d59d3e80a227b25d8019e2f942e6cb9d57de1b4d753a84db4b8bd41060001b61140d565b6126757f16eb7943649a43eba0d942b7fca034529b45373a176f089098c5835325e5405660001b61140d565b816002600083815260200190815260200160002060006101000a81548173ffffffffffffffffffffffffffffffffffffffff021916908373ffffffffffffffffffffffffffffffffffffffff1602179055506126f37f892d84e04e5db03e511e723a1eacef76c9fbf79ce3548ebdc3a533cfb204d34360001b61140d565b61271f7f7fac5433aed1bb1d42f14dbcf884f4b6e84ebe32ca68c12a6a86bd71796071dc60001b61140d565b808273ffffffffffffffffffffffffffffffffffffffff168473ffffffffffffffffffffffffffffffffffffffff167fddf252ad1be2c89b69c2b068fc378daa952ba7f163c4a11628f55a4df523b3ef60405160405180910390a4505050565b6127ab7fc7a302eaf6ca14c063e5ac66f254894d34484c0db5b04f312cfb2011cd36f1f860001b61140d565b6127d77f63ac46e44195980432d3dcf55d44b8aab385ac9e5c564a0b7885326017a9d32f60001b61140d565b6128037f47de8cb4909a3a9e54772d6b6996823dad4047d36f1465bd7da42fd1edf8225160001b61140d565b61280e848484612187565b61283a7f2cee920f5b80ef5995d0c082f088fe633b2c1a9dbf10ca8a606dd461c8af2a4760001b61140d565b6128667f38d5fc489742d1192b8155b8db93fe4fd100b60dfcf46b55422df1f2fe7e23d560001b61140d565b6128927f5f8b07e4f33aa1a66e31ae77e8d5538aac852d68de576ed7441b47e47502d8e560001b61140d565b61289e84848484612b88565b6128dd576040517f08c379a00000000000000000000000000000000000000000000000000000000081526004016128d490613758565b60405180910390fd5b6129097f1f0f07641600b3294085d7c04592830613e475853ac8e0ba9453513989092f7760001b61140d565b50505050565b606061293d7fe6e62fd49054d6f135101450fd78aa19df5c66be1a58f4c5b7d95240b8d7e5cd60001b61140d565b6129697f5737fbf0a7404785797cbf0bbdb43e56806a0a9d039f9fe2ac688d7d5c29a2db60001b61140d565b6129957f634b368443676da5e0a3df577e779e7881df2ccf03f56615fdd422b8a4b9ab3060001b61140d565b60405180602001604052806000815250905090565b606060008214156129f2576040518060400160405280600181526020017f30000000000000000000000000000000000000000000000000000000000000008152509050612b52565b600082905060005b60008214612a24578080612a0d90613b78565b915050600a82612a1d91906139e2565b91506129fa565b60008167ffffffffffffffff811115612a66577f4e487b7100000000000000000000000000000000000000000000000000000000600052604160045260246000fd5b6040519080825280601f01601f191660200182016040528015612a985781602001600182028036833780820191505090505b5090505b60008514612b4b57600182612ab19190613a13565b9150600a85612ac09190613bc1565b6030612acc919061398c565b60f81b818381518110612b08577f4e487b7100000000000000000000000000000000000000000000000000000000600052603260045260246000fd5b60200101907effffffffffffffffffffffffffffffffffffffffffffffffffffffffffffff1916908160001a905350600a85612b4491906139e2565b9450612a9c565b8093505050505b919050565b612b837f3eac647962e411bc0ee7a2fe3d4c21b453232fdba0de60c1ab8a86c530164dd160001b61140d565b505050565b6000612bb67f29b7bc1f8f7df03b40f69ff0a5f32361630d8b65cbc19e9c4397ee08985c984c60001b61140d565b612be27fd56b1d183952c3cdfb3b59ff8992aa85aee73061a4ce0c011c9c83f4a65894c860001b61140d565b612c0e7f548aca03dc91cc82acac6c06ef0678a2480dec05c784641637f609b66e1ebfbf60001b61140d565b612c2d8473ffffffffffffffffffffffffffffffffffffffff16613037565b15612fa657612c5e7f0bbb436ace3fc92910b9e180e4a5965634b61fca2d49c0b0ee1a846cf2fac97f60001b61140d565b612c8a7f7ab22d251ea3be32b89e529e787a414ff1c5b9bee75a768965fb7a766d89cb6a60001b61140d565b612cb67f7a117378cde1ed75be4e21f9d5593eef809d9cbf46054d06fe4871648025375760001b61140d565b8373ffffffffffffffffffffffffffffffffffffffff1663150b7a02612cda611d80565b8786866040518563ffffffff1660e01b8152600401612cfc949392919061364c565b602060405180830381600087803b158015612d1657600080fd5b505af1925050508015612d4757506040513d601f19601f82011682018060405250810190612d449190613329565b60015b612efe573d8060008114612d77576040519150601f19603f3d011682016040523d82523d6000602084013e612d7c565b606091505b50612da97f0628c21a106464fbe0892d45f65948f20d73a98e677a55bf7b3c243dc03d17dc60001b61140d565b612dd57f9e07e7d2690ed5fce2c91fcd8f1b8412d36055fe1f5a853891e441ede327606660001b61140d565b600081511415612e9e57612e0b7f9db7713cf8238f53e42880f5f22f89e0cb0cad9429309dc68798847906f9570460001b61140d565b612e377fa052a97548ac27b07a9a4e88a0ff044775b4d5cd758b7484b8cac828745147ab60001b61140d565b612e637f9a6bf052521c329501f49b907fac51900e8c625a6c1abed9d5b8e33ed11e5c3360001b61140d565b6040517f08c379a0000000000000000000000000000000000000000000000000000000008152600401612e9590613758565b60405180910390fd5b612eca7f265f88c722f2929fadcff89bfd8319c2af4e265c315cfa0e4d1be8119807fd3260001b61140d565b612ef67f13232ea34caf30d108d13c91fb2668d22fc6b088663a9619282e58dd8b5d1df360001b61140d565b805181602001fd5b612f2a7ff9c6b8a350054ff320b20d2ab933c99d25a9ba211e21320efd1cdf51e8d58abf60001b61140d565b612f567fd6e693a436ec7a569b8abcd1e9611ee8541bab64e0b0ac59bf2d9ba2bbbbdb2260001b61140d565b63150b7a0260e01b7bffffffffffffffffffffffffffffffffffffffffffffffffffffffff1916817bffffffffffffffffffffffffffffffffffffffffffffffffffffffff19161491505061302f565b612fd27fdc1205a3231145ebf91aaead931b451b5c6cccfb4422003fe989f77ff17324a560001b61140d565b612ffe7f2936ca4e2c9c28cddf4ef20279e7c5189dbcfba2ff0cda0f9126ccfe0dea63a660001b61140d565b61302a7fab3a06e4f77721d5a149fa10567092a4352b47f9873427da0b76e94a90ed2e7960001b61140d565b600190505b949350505050565b600080823b905060008111915050919050565b600061305d61305884613918565b6138f3565b90508281526020810184848401111561307557600080fd5b613080848285613ad3565b509392505050565b6000813590506130978161404d565b92915050565b6000813590506130ac81614064565b92915050565b6000813590506130c18161407b565b92915050565b6000813590506130d681614092565b92915050565b6000815190506130eb81614092565b92915050565b600082601f83011261310257600080fd5b813561311284826020860161304a565b91505092915050565b60008135905061312a816140a9565b92915050565b60006020828403121561314257600080fd5b600061315084828501613088565b91505092915050565b6000806040838503121561316c57600080fd5b600061317a85828601613088565b925050602061318b85828601613088565b9150509250929050565b6000806000606084860312156131aa57600080fd5b60006131b886828701613088565b93505060206131c986828701613088565b92505060406131da8682870161311b565b9150509250925092565b600080600080608085870312156131fa57600080fd5b600061320887828801613088565b945050602061321987828801613088565b935050604061322a8782880161311b565b925050606085013567ffffffffffffffff81111561324757600080fd5b613253878288016130f1565b91505092959194509250565b6000806040838503121561327257600080fd5b600061328085828601613088565b92505060206132918582860161309d565b9150509250929050565b600080604083850312156132ae57600080fd5b60006132bc85828601613088565b92505060206132cd8582860161311b565b9150509250929050565b6000602082840312156132e957600080fd5b60006132f7848285016130b2565b91505092915050565b60006020828403121561331257600080fd5b6000613320848285016130c7565b91505092915050565b60006020828403121561333b57600080fd5b6000613349848285016130dc565b91505092915050565b60006020828403121561336457600080fd5b60006133728482850161311b565b91505092915050565b61338481613a47565b82525050565b61339381613a59565b82525050565b6133a281613a65565b82525050565b60006133b382613949565b6133bd818561395f565b93506133cd818560208601613ae2565b6133d681613cae565b840191505092915050565b60006133ec82613954565b6133f68185613970565b9350613406818560208601613ae2565b61340f81613cae565b840191505092915050565b600061342582613954565b61342f8185613981565b935061343f818560208601613ae2565b80840191505092915050565b6000613458603283613970565b915061346382613cbf565b604082019050919050565b600061347b602483613970565b915061348682613d0e565b604082019050919050565b600061349e601983613970565b91506134a982613d5d565b602082019050919050565b60006134c1602c83613970565b91506134cc82613d86565b604082019050919050565b60006134e4603883613970565b91506134ef82613dd5565b604082019050919050565b6000613507602a83613970565b915061351282613e24565b604082019050919050565b600061352a602983613970565b915061353582613e73565b604082019050919050565b600061354d602c83613970565b915061355882613ec2565b604082019050919050565b6000613570602983613970565b915061357b82613f11565b604082019050919050565b6000613593602f83613970565b915061359e82613f60565b604082019050919050565b60006135b6602183613970565b91506135c182613faf565b604082019050919050565b60006135d9603183613970565b91506135e482613ffe565b604082019050919050565b6135f881613a9b565b82525050565b61360781613ac9565b82525050565b6000613619828561341a565b9150613625828461341a565b91508190509392505050565b6000602082019050613646600083018461337b565b92915050565b6000608082019050613661600083018761337b565b61366e602083018661337b565b61367b60408301856135fe565b818103606083015261368d81846133a8565b905095945050505050565b60006020820190506136ad600083018461338a565b92915050565b60006020820190506136c86000830184613399565b92915050565b600060c08201905081810360008301526136e881896133a8565b90506136f76020830188613399565b6137046040830187613399565b61371160608301866135ef565b61371e6080830185613399565b61372b60a0830184613399565b979650505050505050565b6000602082019050818103600083015261375081846133e1565b905092915050565b600060208201905081810360008301526137718161344b565b9050919050565b600060208201905081810360008301526137918161346e565b9050919050565b600060208201905081810360008301526137b181613491565b9050919050565b600060208201905081810360008301526137d1816134b4565b9050919050565b600060208201905081810360008301526137f1816134d7565b9050919050565b60006020820190508181036000830152613811816134fa565b9050919050565b600060208201905081810360008301526138318161351d565b9050919050565b6000602082019050818103600083015261385181613540565b9050919050565b6000602082019050818103600083015261387181613563565b9050919050565b6000602082019050818103600083015261389181613586565b9050919050565b600060208201905081810360008301526138b1816135a9565b9050919050565b600060208201905081810360008301526138d1816135cc565b9050919050565b60006020820190506138ed60008301846135fe565b92915050565b60006138fd61390e565b90506139098282613b47565b919050565b6000604051905090565b600067ffffffffffffffff82111561393357613932613c7f565b5b61393c82613cae565b9050602081019050919050565b600081519050919050565b600081519050919050565b600082825260208201905092915050565b600082825260208201905092915050565b600081905092915050565b600061399782613ac9565b91506139a283613ac9565b9250827fffffffffffffffffffffffffffffffffffffffffffffffffffffffffffffffff038211156139d7576139d6613bf2565b5b828201905092915050565b60006139ed82613ac9565b91506139f883613ac9565b925082613a0857613a07613c21565b5b828204905092915050565b6000613a1e82613ac9565b9150613a2983613ac9565b925082821015613a3c57613a3b613bf2565b5b828203905092915050565b6000613a5282613aa9565b9050919050565b60008115159050919050565b6000819050919050565b60007fffffffff0000000000000000000000000000000000000000000000000000000082169050919050565b600061ffff82169050919050565b600073ffffffffffffffffffffffffffffffffffffffff82169050919050565b6000819050919050565b82818337600083830152505050565b60005b83811015613b00578082015181840152602081019050613ae5565b83811115613b0f576000848401525b50505050565b60006002820490506001821680613b2d57607f821691505b60208210811415613b4157613b40613c50565b5b50919050565b613b5082613cae565b810181811067ffffffffffffffff82111715613b6f57613b6e613c7f565b5b80604052505050565b6000613b8382613ac9565b91507fffffffffffffffffffffffffffffffffffffffffffffffffffffffffffffffff821415613bb657613bb5613bf2565b5b600182019050919050565b6000613bcc82613ac9565b9150613bd783613ac9565b925082613be757613be6613c21565b5b828206905092915050565b7f4e487b7100000000000000000000000000000000000000000000000000000000600052601160045260246000fd5b7f4e487b7100000000000000000000000000000000000000000000000000000000600052601260045260246000fd5b7f4e487b7100000000000000000000000000000000000000000000000000000000600052602260045260246000fd5b7f4e487b7100000000000000000000000000000000000000000000000000000000600052604160045260246000fd5b6000601f19601f8301169050919050565b7f4552433732313a207472616e7366657220746f206e6f6e20455243373231526560008201527f63656976657220696d706c656d656e7465720000000000000000000000000000602082015250565b7f4552433732313a207472616e7366657220746f20746865207a65726f2061646460008201527f7265737300000000000000000000000000000000000000000000000000000000602082015250565b7f4552433732313a20617070726f766520746f2063616c6c657200000000000000600082015250565b7f4552433732313a206f70657261746f7220717565727920666f72206e6f6e657860008201527f697374656e7420746f6b656e0000000000000000000000000000000000000000602082015250565b7f4552433732313a20617070726f76652063616c6c6572206973206e6f74206f7760008201527f6e6572206e6f7220617070726f76656420666f7220616c6c0000000000000000602082015250565b7f4552433732313a2062616c616e636520717565727920666f7220746865207a6560008201527f726f206164647265737300000000000000000000000000000000000000000000602082015250565b7f4552433732313a206f776e657220717565727920666f72206e6f6e657869737460008201527f656e7420746f6b656e0000000000000000000000000000000000000000000000602082015250565b7f4552433732313a20617070726f76656420717565727920666f72206e6f6e657860008201527f697374656e7420746f6b656e0000000000000000000000000000000000000000602082015250565b7f4552433732313a207472616e73666572206f6620746f6b656e2074686174206960008201527f73206e6f74206f776e0000000000000000000000000000000000000000000000602082015250565b7f4552433732314d657461646174613a2055524920717565727920666f72206e6f60008201527f6e6578697374656e7420746f6b656e0000000000000000000000000000000000602082015250565b7f4552433732313a20617070726f76616c20746f2063757272656e74206f776e6560008201527f7200000000000000000000000000000000000000000000000000000000000000602082015250565b7f4552433732313a207472616e736665722063616c6c6572206973206e6f74206f60008201527f776e6572206e6f7220617070726f766564000000000000000000000000000000602082015250565b61405681613a47565b811461406157600080fd5b50565b61406d81613a59565b811461407857600080fd5b50565b61408481613a65565b811461408f57600080fd5b50565b61409b81613a6f565b81146140a657600080fd5b50565b6140b281613ac9565b81146140bd57600080fd5b5056fea264697066735822122077ddc4ddc1dfc9b3802d35f9d8d94430bead6e7892369437873fcefe30ca055364736f6c63430008040033",
  "linkReferences": {},
  "deployedLinkReferences": {}
}