{
  "_format": "hh-sol-artifact-1",
  "contractName": "WarriorGeneration",
  "sourceName": "contracts/modules/WarriorGeneration.sol",
  "abi": [
    {
      "inputs": [
        {
          "internalType": "uint256",
          "name": "_initialMaxPopulation",
          "type": "uint256"
        }
      ],
      "stateMutability": "nonpayable",
      "type": "constructor"
    },
    {
      "anonymous": false,
      "inputs": [
        {
          "indexed": true,
          "internalType": "address",
          "name": "owner",
          "type": "address"
        },
        {
          "indexed": true,
          "internalType": "address",
          "name": "approved",
          "type": "address"
        },
        {
          "indexed": true,
          "internalType": "uint256",
          "name": "tokenId",
          "type": "uint256"
        }
      ],
      "name": "Approval",
      "type": "event"
    },
    {
      "anonymous": false,
      "inputs": [
        {
          "indexed": true,
          "internalType": "address",
          "name": "owner",
          "type": "address"
        },
        {
          "indexed": true,
          "internalType": "address",
          "name": "operator",
          "type": "address"
        },
        {
          "indexed": false,
          "internalType": "bool",
          "name": "approved",
          "type": "bool"
        }
      ],
      "name": "ApprovalForAll",
      "type": "event"
    },
    {
      "anonymous": false,
      "inputs": [
        {
          "indexed": true,
          "internalType": "address",
          "name": "from",
          "type": "address"
        },
        {
          "indexed": true,
          "internalType": "address",
          "name": "to",
          "type": "address"
        },
        {
          "indexed": true,
          "internalType": "uint256",
          "name": "tokenId",
          "type": "uint256"
        }
      ],
      "name": "Transfer",
      "type": "event"
    },
    {
      "anonymous": false,
      "inputs": [
        {
          "indexed": true,
          "internalType": "address",
          "name": "owner",
          "type": "address"
        },
        {
          "indexed": true,
          "internalType": "uint256",
          "name": "warriorId",
          "type": "uint256"
        }
      ],
      "name": "WarriorGenerated",
      "type": "event"
    },
    {
      "inputs": [],
      "name": "GENERATION_COOLDOWN",
      "outputs": [
        {
          "internalType": "uint256",
          "name": "",
          "type": "uint256"
        }
      ],
      "stateMutability": "view",
      "type": "function"
    },
    {
      "inputs": [],
      "name": "GROWTH_PRECISION",
      "outputs": [
        {
          "internalType": "uint256",
          "name": "",
          "type": "uint256"
        }
      ],
      "stateMutability": "view",
      "type": "function"
    },
    {
      "inputs": [],
      "name": "PRECISION",
      "outputs": [
        {
          "internalType": "uint256",
          "name": "",
          "type": "uint256"
        }
      ],
      "stateMutability": "view",
      "type": "function"
    },
    {
      "inputs": [
        {
          "internalType": "address",
          "name": "to",
          "type": "address"
        },
        {
          "internalType": "uint256",
          "name": "tokenId",
          "type": "uint256"
        }
      ],
      "name": "approve",
      "outputs": [],
      "stateMutability": "nonpayable",
      "type": "function"
    },
    {
      "inputs": [
        {
          "internalType": "address",
          "name": "owner",
          "type": "address"
        }
      ],
      "name": "balanceOf",
      "outputs": [
        {
          "internalType": "uint256",
          "name": "",
          "type": "uint256"
        }
      ],
      "stateMutability": "view",
      "type": "function"
    },
    {
      "inputs": [
        {
          "internalType": "bytes32",
          "name": "c__0xb7f7bea8",
          "type": "bytes32"
        }
      ],
      "name": "c_0xb7f7bea8",
      "outputs": [],
      "stateMutability": "pure",
      "type": "function"
    },
    {
      "inputs": [
        {
          "internalType": "bytes32",
          "name": "c__0xd1105804",
          "type": "bytes32"
        }
      ],
      "name": "c_0xd1105804",
      "outputs": [],
      "stateMutability": "pure",
      "type": "function"
    },
    {
      "inputs": [
        {
          "internalType": "bytes32",
          "name": "c__0xf7581358",
          "type": "bytes32"
        }
      ],
      "name": "c_0xf7581358",
      "outputs": [],
      "stateMutability": "pure",
      "type": "function"
    },
    {
      "inputs": [],
      "name": "currentGeneration",
      "outputs": [
        {
          "internalType": "uint256",
          "name": "",
          "type": "uint256"
        }
      ],
      "stateMutability": "view",
      "type": "function"
    },
    {
      "inputs": [],
      "name": "currentGenerationMaxPopulation",
      "outputs": [
        {
          "internalType": "uint256",
          "name": "",
          "type": "uint256"
        }
      ],
      "stateMutability": "view",
      "type": "function"
    },
    {
      "inputs": [],
      "name": "currentGenerationPopulation",
      "outputs": [
        {
          "internalType": "uint256",
          "name": "",
          "type": "uint256"
        }
      ],
      "stateMutability": "view",
      "type": "function"
    },
    {
      "inputs": [
        {
          "internalType": "uint256",
          "name": "tokenId",
          "type": "uint256"
        }
      ],
      "name": "getApproved",
      "outputs": [
        {
          "internalType": "address",
          "name": "",
          "type": "address"
        }
      ],
      "stateMutability": "view",
      "type": "function"
    },
    {
      "inputs": [
        {
          "internalType": "uint256",
          "name": "_warriorId",
          "type": "uint256"
        }
      ],
      "name": "getWarrior",
      "outputs": [
        {
          "internalType": "uint256",
          "name": "warrior",
          "type": "uint256"
        }
      ],
      "stateMutability": "view",
      "type": "function"
    },
    {
      "inputs": [
        {
          "internalType": "uint256",
          "name": "_warriorId",
          "type": "uint256"
        }
      ],
      "name": "getWarriorGeneration",
      "outputs": [
        {
          "internalType": "uint256",
          "name": "",
          "type": "uint256"
        }
      ],
      "stateMutability": "view",
      "type": "function"
    },
    {
      "inputs": [],
      "name": "growthRate",
      "outputs": [
        {
          "internalType": "uint256",
          "name": "",
          "type": "uint256"
        }
      ],
      "stateMutability": "view",
      "type": "function"
    },
    {
      "inputs": [],
      "name": "isActive",
      "outputs": [
        {
          "internalType": "bool",
          "name": "",
          "type": "bool"
        }
      ],
      "stateMutability": "view",
      "type": "function"
    },
    {
      "inputs": [
        {
          "internalType": "address",
          "name": "owner",
          "type": "address"
        },
        {
          "internalType": "address",
          "name": "operator",
          "type": "address"
        }
      ],
      "name": "isApprovedForAll",
      "outputs": [
        {
          "internalType": "bool",
          "name": "",
          "type": "bool"
        }
      ],
      "stateMutability": "view",
      "type": "function"
    },
    {
      "inputs": [
        {
          "internalType": "uint256",
          "name": "",
          "type": "uint256"
        }
      ],
      "name": "isGeneUsed",
      "outputs": [
        {
          "internalType": "bool",
          "name": "",
          "type": "bool"
        }
      ],
      "stateMutability": "view",
      "type": "function"
    },
    {
      "inputs": [],
      "name": "lastGeneration",
      "outputs": [
        {
          "internalType": "uint256",
          "name": "",
          "type": "uint256"
        }
      ],
      "stateMutability": "view",
      "type": "function"
    },
    {
      "inputs": [],
      "name": "maxPopulation",
      "outputs": [
        {
          "internalType": "uint256",
          "name": "",
          "type": "uint256"
        }
      ],
      "stateMutability": "view",
      "type": "function"
    },
    {
      "inputs": [],
      "name": "maxPopulationPerGen",
      "outputs": [
        {
          "internalType": "uint256",
          "name": "",
          "type": "uint256"
        }
      ],
      "stateMutability": "view",
      "type": "function"
    },
    {
      "inputs": [],
      "name": "name",
      "outputs": [
        {
          "internalType": "string",
          "name": "",
          "type": "string"
        }
      ],
      "stateMutability": "view",
      "type": "function"
    },
    {
      "inputs": [],
      "name": "nextGenerationStartBlock",
      "outputs": [
        {
          "internalType": "uint256",
          "name": "",
          "type": "uint256"
        }
      ],
      "stateMutability": "view",
      "type": "function"
    },
    {
      "inputs": [
        {
          "internalType": "uint256",
          "name": "tokenId",
          "type": "uint256"
        }
      ],
      "name": "ownerOf",
      "outputs": [
        {
          "internalType": "address",
          "name": "",
          "type": "address"
        }
      ],
      "stateMutability": "view",
      "type": "function"
    },
    {
      "inputs": [],
      "name": "populationUntilLastGeneration",
      "outputs": [
        {
          "internalType": "uint256",
          "name": "",
          "type": "uint256"
        }
      ],
      "stateMutability": "view",
      "type": "function"
    },
    {
      "inputs": [
        {
          "internalType": "address",
          "name": "from",
          "type": "address"
        },
        {
          "internalType": "address",
          "name": "to",
          "type": "address"
        },
        {
          "internalType": "uint256",
          "name": "tokenId",
          "type": "uint256"
        }
      ],
      "name": "safeTransferFrom",
      "outputs": [],
      "stateMutability": "nonpayable",
      "type": "function"
    },
    {
      "inputs": [
        {
          "internalType": "address",
          "name": "from",
          "type": "address"
        },
        {
          "internalType": "address",
          "name": "to",
          "type": "address"
        },
        {
          "internalType": "uint256",
          "name": "tokenId",
          "type": "uint256"
        },
        {
          "internalType": "bytes",
          "name": "_data",
          "type": "bytes"
        }
      ],
      "name": "safeTransferFrom",
      "outputs": [],
      "stateMutability": "nonpayable",
      "type": "function"
    },
    {
      "inputs": [
        {
          "internalType": "address",
          "name": "operator",
          "type": "address"
        },
        {
          "internalType": "bool",
          "name": "approved",
          "type": "bool"
        }
      ],
      "name": "setApprovalForAll",
      "outputs": [],
      "stateMutability": "nonpayable",
      "type": "function"
    },
    {
      "inputs": [
        {
          "internalType": "bytes4",
          "name": "interfaceId",
          "type": "bytes4"
        }
      ],
      "name": "supportsInterface",
      "outputs": [
        {
          "internalType": "bool",
          "name": "",
          "type": "bool"
        }
      ],
      "stateMutability": "view",
      "type": "function"
    },
    {
      "inputs": [],
      "name": "symbol",
      "outputs": [
        {
          "internalType": "string",
          "name": "",
          "type": "string"
        }
      ],
      "stateMutability": "view",
      "type": "function"
    },
    {
      "inputs": [
        {
          "internalType": "uint256",
          "name": "tokenId",
          "type": "uint256"
        }
      ],
      "name": "tokenURI",
      "outputs": [
        {
          "internalType": "string",
          "name": "",
          "type": "string"
        }
      ],
      "stateMutability": "view",
      "type": "function"
    },
    {
      "inputs": [
        {
          "internalType": "address",
          "name": "from",
          "type": "address"
        },
        {
          "internalType": "address",
          "name": "to",
          "type": "address"
        },
        {
          "internalType": "uint256",
          "name": "tokenId",
          "type": "uint256"
        }
      ],
      "name": "transferFrom",
      "outputs": [],
      "stateMutability": "nonpayable",
      "type": "function"
    },
    {
      "inputs": [],
      "name": "warriorCounter",
      "outputs": [
        {
          "internalType": "uint256",
          "name": "",
          "type": "uint256"
        }
      ],
      "stateMutability": "view",
      "type": "function"
    }
  ],
  "bytecode": "0x608060405263019bfcc0600955620186a0600a55610187600d553480156200002657600080fd5b50604051620030fc380380620030fc83398181016040528101906200004c91906200034e565b806040518060400160405280600881526020017f57617272696f72730000000000000000000000000000000000000000000000008152506040518060400160405280600381526020017f57525400000000000000000000000000000000000000000000000000000000008152508160009080519060200190620000d192919062000287565b508060019080519060200190620000ea92919062000287565b505050620001217fcc599624320f4d60b0b25da1b6189aa8ed00cd46c9c4c66b871f691e7a77e8a960001b6200027e60201b60201c565b620001557ffb85bf63933d758d6116dcac2571fcb49bb6ad5051db2847dc35d3a5a71652fc60001b6200028160201b60201c565b620001897f3dfa11ab29fde1a34bfac235506f9d12a2b589f5536b1f444c5a192d1448112d60001b6200028160201b60201c565b620001bd7faa285f8facfdfc78994fcb15af25da55345df6371da2b4a2d34497b606c4ab6260001b6200028160201b60201c565b80600b8190555050620001f97f94f055c5f9ad307e65e180c9566ac90c89b96cf8eb265584f263bdff616d4cfe60001b6200028460201b60201c565b6200022d7fbab0897a56ed8d5030195bc66ebac66135a337c9f3b0ba57cd3d5545e73be6d060001b6200028460201b60201c565b620002617fb21d19aa8b06be2d1e04b34e07505358850be88a3acfd8f297affa97e254bcf360001b6200028460201b60201c565b6101f44362000271919062000380565b600f81905550506200049a565b50565b50565b50565b8280546200029590620003e7565b90600052602060002090601f016020900481019282620002b9576000855562000305565b82601f10620002d457805160ff191683800117855562000305565b8280016001018555821562000305579182015b8281111562000304578251825591602001919060010190620002e7565b5b50905062000314919062000318565b5090565b5b808211156200033357600081600090555060010162000319565b5090565b600081519050620003488162000480565b92915050565b6000602082840312156200036757620003666200047b565b5b6000620003778482850162000337565b91505092915050565b60006200038d82620003dd565b91506200039a83620003dd565b9250827fffffffffffffffffffffffffffffffffffffffffffffffffffffffffffffffff03821115620003d257620003d16200041d565b5b828201905092915050565b6000819050919050565b600060028204905060018216806200040057607f821691505b602082108114156200041757620004166200044c565b5b50919050565b7f4e487b7100000000000000000000000000000000000000000000000000000000600052601160045260246000fd5b7f4e487b7100000000000000000000000000000000000000000000000000000000600052602260045260246000fd5b600080fd5b6200048b81620003dd565b81146200049757600080fd5b50565b612c5280620004aa6000396000f3fe608060405234801561001057600080fd5b50600436106101fb5760003560e01c80636352211e1161011a578063a22cb465116100ad578063c4ffe2f41161007c578063c4ffe2f4146105b8578063c87b56dd146105d4578063cf26c52414610604578063d0b96ef914610622578063e985e9c514610640576101fb565b8063a22cb46514610544578063aaf5eb6814610560578063ad4ae8c31461057e578063b88d4fde1461059c576101fb565b8063720c6433116100e9578063720c6433146104bc5780638ddb428a146104d85780639422ee78146104f657806395d89b4114610526576101fb565b80636352211e146104205780636ae8f737146104505780636bba6c281461046e57806370a082311461048c576101fb565b806322cbeeb51161019257806342842e0e1161016157806342842e0e146103aa57806347697a04146103c65780634787dc65146103e45780635e30acb414610402576101fb565b806322cbeeb51461032457806322f3e2d41461034057806323b872dd1461035e57806329372ad01461037a576101fb565b8063095ea7b3116101ce578063095ea7b31461029c57806317729a82146102b85780631ae64d2f146102d65780631e15ec92146102f4576101fb565b8063014f25ab1461020057806301ffc9a71461021e57806306fdde031461024e578063081812fc1461026c575b600080fd5b610208610670565b60405161021591906123d6565b60405180910390f35b61023860048036038101906102339190611e50565b610675565b60405161024591906121f9565b60405180910390f35b610256610757565b6040516102639190612214565b60405180910390f35b61028660048036038101906102819190611eaa565b6107e9565b6040516102939190612192565b60405180910390f35b6102b660048036038101906102b19190611de3565b61086e565b005b6102c0610986565b6040516102cd91906123d6565b60405180910390f35b6102de61098c565b6040516102eb91906123d6565b60405180910390f35b61030e60048036038101906103099190611eaa565b610a27565b60405161031b91906123d6565b60405180910390f35b61033e60048036038101906103399190611e23565b610af3565b005b610348610af6565b60405161035591906121f9565b60405180910390f35b61037860048036038101906103739190611ccd565b610b87565b005b610394600480360381019061038f9190611eaa565b610be7565b6040516103a191906123d6565b60405180910390f35b6103c460048036038101906103bf9190611ccd565b610d7c565b005b6103ce610d9c565b6040516103db91906123d6565b60405180910390f35b6103ec610da2565b6040516103f991906123d6565b60405180910390f35b61040a610da8565b60405161041791906123d6565b60405180910390f35b61043a60048036038101906104359190611eaa565b610dae565b6040516104479190612192565b60405180910390f35b610458610e60565b60405161046591906123d6565b60405180910390f35b610476610e66565b60405161048391906123d6565b60405180910390f35b6104a660048036038101906104a19190611c60565b610e6c565b6040516104b391906123d6565b60405180910390f35b6104d660048036038101906104d19190611e23565b610f24565b005b6104e0610f27565b6040516104ed91906123d6565b60405180910390f35b610510600480360381019061050b9190611eaa565b610f2d565b60405161051d91906121f9565b60405180910390f35b61052e610f4d565b60405161053b9190612214565b60405180910390f35b61055e60048036038101906105599190611da3565b610fdf565b005b610568611160565b60405161057591906123d6565b60405180910390f35b61058661116c565b60405161059391906123d6565b60405180910390f35b6105b660048036038101906105b19190611d20565b611172565b005b6105d260048036038101906105cd9190611e23565b6111d4565b005b6105ee60048036038101906105e99190611eaa565b6111d7565b6040516105fb9190612214565b60405180910390f35b61060c61127e565b60405161061991906123d6565b60405180910390f35b61062a611284565b60405161063791906123d6565b60405180910390f35b61065a60048036038101906106559190611c8d565b61128a565b60405161066791906121f9565b60405180910390f35b606481565b60007f80ac58cd000000000000000000000000000000000000000000000000000000007bffffffffffffffffffffffffffffffffffffffffffffffffffffffff1916827bffffffffffffffffffffffffffffffffffffffffffffffffffffffff1916148061074057507f5b5e139f000000000000000000000000000000000000000000000000000000007bffffffffffffffffffffffffffffffffffffffffffffffffffffffff1916827bffffffffffffffffffffffffffffffffffffffffffffffffffffffff1916145b80610750575061074f8261131e565b5b9050919050565b60606000805461076690612605565b80601f016020809104026020016040519081016040528092919081815260200182805461079290612605565b80156107df5780601f106107b4576101008083540402835291602001916107df565b820191906000526020600020905b8154815290600101906020018083116107c257829003601f168201915b5050505050905090565b60006107f482611388565b610833576040517f08c379a000000000000000000000000000000000000000000000000000000000815260040161082a90612316565b60405180910390fd5b6004600083815260200190815260200160002060009054906101000a900473ffffffffffffffffffffffffffffffffffffffff169050919050565b600061087982610dae565b90508073ffffffffffffffffffffffffffffffffffffffff168373ffffffffffffffffffffffffffffffffffffffff1614156108ea576040517f08c379a00000000000000000000000000000000000000000000000000000000081526004016108e190612376565b60405180910390fd5b8073ffffffffffffffffffffffffffffffffffffffff166109096113f4565b73ffffffffffffffffffffffffffffffffffffffff1614806109385750610937816109326113f4565b61128a565b5b610977576040517f08c379a000000000000000000000000000000000000000000000000000000000815260040161096e906122b6565b60405180910390fd5b61098183836113fc565b505050565b60095481565b60006109ba7f268751a4dcab362f44e254234614ac473ae5064ed087b71dd71712575e736cfb60001b610af3565b6109e67f072ada8e99239700ac749b8a5df1b8f3e380550a77855037a0c7c04b3927933260001b610af3565b610a127f1612aed0064474c9292d7fff02e34456283bbc9794d64f446b15a16f83b1950c60001b610af3565b600c54600854610a229190612511565b905090565b6000610a557fd700c5dc05ca28d9a20cbf605e115ab90abe542a4cd51ab5c486ca7f8e73d02b60001b610af3565b610a817f9dcc63f36d735d290d31053b8ec9fc88d793795b4537306f3352d35c9f48f98460001b610af3565b610aad7f56d7033a8a0c0bdc38b5a81d547a2c4582c83cb112184646ae353b3cd962cd9260001b610af3565b6103e87d90e40fbeea1d3a4abc8955e946fe31cdcf66f634e1000000000000000000610ad884610be7565b610ae291906124e0565b610aec91906126b1565b9050919050565b50565b6000610b247f563fac133f30de9d32a2e41ce4c45a843b935a1a44b99cc59103ebd43c717b7860001b610af3565b610b507f80da5c282fbff87a77494d85a02a6e55243940fda0ab7ad9cfbd7ec4ee04afd760001b610af3565b610b7c7fcf117bba493fea1ecd683079767abfc9f9927997ccd80c9153d65682d8ca114560001b610af3565b43600f541115905090565b610b98610b926113f4565b826114b5565b610bd7576040517f08c379a0000000000000000000000000000000000000000000000000000000008152600401610bce90612396565b60405180910390fd5b610be2838383611593565b505050565b6000610c157fdc812eaf3fd1ffdd10f76c43f40531b24d33400ed9389a507fa062e12527f33a60001b610f24565b610c417f8989a1aff5a2c430389633e17b896d4eefdae942389dcc1544b2afdd012f0fe560001b610f24565b610c6d7f701b02f0cf66b6e2fca5c2fb1adac3753e4da98e99b3502bf23c2709f5564c3060001b610f24565b60066000838152602001908152602001600020549050610caf7fd31bf1c5716c4a6ca75f25ca6e350b873fa7be868ad0309b7c687682173421df60001b610f24565b610cdb7fce366b246e97a55c905a7c522441332ae97f8ea55041f67d802dd4c26221c17e60001b610f24565b610d077f53d140ff8342cf9c52b0dfb58cb6973e538ca0d6f2fa976b67ab5f7e86dc4c3460001b610f24565b6000811415610d4b576040517f08c379a0000000000000000000000000000000000000000000000000000000008152600401610d42906123b6565b60405180910390fd5b610d777fa7a2e4c23a5bd1924ab2683eb3e88b4ef9ba8f3356782e6594846e530bd4c94660001b610f24565b919050565b610d9783838360405180602001604052806000815250611172565b505050565b6101d281565b600b5481565b6156fe81565b6000806002600084815260200190815260200160002060009054906101000a900473ffffffffffffffffffffffffffffffffffffffff169050600073ffffffffffffffffffffffffffffffffffffffff168173ffffffffffffffffffffffffffffffffffffffff161415610e57576040517f08c379a0000000000000000000000000000000000000000000000000000000008152600401610e4e906122f6565b60405180910390fd5b80915050919050565b600c5481565b600a5481565b60008073ffffffffffffffffffffffffffffffffffffffff168273ffffffffffffffffffffffffffffffffffffffff161415610edd576040517f08c379a0000000000000000000000000000000000000000000000000000000008152600401610ed4906122d6565b60405180910390fd5b600360008373ffffffffffffffffffffffffffffffffffffffff1673ffffffffffffffffffffffffffffffffffffffff168152602001908152602001600020549050919050565b50565b600e5481565b60076020528060005260406000206000915054906101000a900460ff1681565b606060018054610f5c90612605565b80601f0160208091040260200160405190810160405280929190818152602001828054610f8890612605565b8015610fd55780601f10610faa57610100808354040283529160200191610fd5565b820191906000526020600020905b815481529060010190602001808311610fb857829003601f168201915b5050505050905090565b610fe76113f4565b73ffffffffffffffffffffffffffffffffffffffff168273ffffffffffffffffffffffffffffffffffffffff161415611055576040517f08c379a000000000000000000000000000000000000000000000000000000000815260040161104c90612276565b60405180910390fd5b80600560006110626113f4565b73ffffffffffffffffffffffffffffffffffffffff1673ffffffffffffffffffffffffffffffffffffffff16815260200190815260200160002060008473ffffffffffffffffffffffffffffffffffffffff1673ffffffffffffffffffffffffffffffffffffffff16815260200190815260200160002060006101000a81548160ff0219169083151502179055508173ffffffffffffffffffffffffffffffffffffffff1661110f6113f4565b73ffffffffffffffffffffffffffffffffffffffff167f17307eab39ab6107e8899845ad3d59bd9653f200f220920489ca2b5937696c318360405161115491906121f9565b60405180910390a35050565b670de0b6b3a764000081565b600d5481565b61118361117d6113f4565b836114b5565b6111c2576040517f08c379a00000000000000000000000000000000000000000000000000000000081526004016111b990612396565b60405180910390fd5b6111ce848484846117ef565b50505050565b50565b60606111e282611388565b611221576040517f08c379a000000000000000000000000000000000000000000000000000000000815260040161121890612356565b60405180910390fd5b600061122b61184b565b9050600081511161124b5760405180602001604052806000815250611276565b8061125584611862565b60405160200161126692919061216e565b6040516020818303038152906040525b915050919050565b600f5481565b60085481565b6000600560008473ffffffffffffffffffffffffffffffffffffffff1673ffffffffffffffffffffffffffffffffffffffff16815260200190815260200160002060008373ffffffffffffffffffffffffffffffffffffffff1673ffffffffffffffffffffffffffffffffffffffff16815260200190815260200160002060009054906101000a900460ff16905092915050565b60007f01ffc9a7000000000000000000000000000000000000000000000000000000007bffffffffffffffffffffffffffffffffffffffffffffffffffffffff1916827bffffffffffffffffffffffffffffffffffffffffffffffffffffffff1916149050919050565b60008073ffffffffffffffffffffffffffffffffffffffff166002600084815260200190815260200160002060009054906101000a900473ffffffffffffffffffffffffffffffffffffffff1673ffffffffffffffffffffffffffffffffffffffff1614159050919050565b600033905090565b816004600083815260200190815260200160002060006101000a81548173ffffffffffffffffffffffffffffffffffffffff021916908373ffffffffffffffffffffffffffffffffffffffff160217905550808273ffffffffffffffffffffffffffffffffffffffff1661146f83610dae565b73ffffffffffffffffffffffffffffffffffffffff167f8c5be1e5ebec7d5bd14f71427d1e84f3dd0314c0f7b2291e5b200ac8c7c3b92560405160405180910390a45050565b60006114c082611388565b6114ff576040517f08c379a00000000000000000000000000000000000000000000000000000000081526004016114f690612296565b60405180910390fd5b600061150a83610dae565b90508073ffffffffffffffffffffffffffffffffffffffff168473ffffffffffffffffffffffffffffffffffffffff16148061157957508373ffffffffffffffffffffffffffffffffffffffff16611561846107e9565b73ffffffffffffffffffffffffffffffffffffffff16145b8061158a5750611589818561128a565b5b91505092915050565b8273ffffffffffffffffffffffffffffffffffffffff166115b382610dae565b73ffffffffffffffffffffffffffffffffffffffff1614611609576040517f08c379a000000000000000000000000000000000000000000000000000000000815260040161160090612336565b60405180910390fd5b600073ffffffffffffffffffffffffffffffffffffffff168273ffffffffffffffffffffffffffffffffffffffff161415611679576040517f08c379a000000000000000000000000000000000000000000000000000000000815260040161167090612256565b60405180910390fd5b6116848383836119c3565b61168f6000826113fc565b6001600360008573ffffffffffffffffffffffffffffffffffffffff1673ffffffffffffffffffffffffffffffffffffffff16815260200190815260200160002060008282546116df9190612511565b925050819055506001600360008473ffffffffffffffffffffffffffffffffffffffff1673ffffffffffffffffffffffffffffffffffffffff1681526020019081526020016000206000828254611736919061248a565b92505081905550816002600083815260200190815260200160002060006101000a81548173ffffffffffffffffffffffffffffffffffffffff021916908373ffffffffffffffffffffffffffffffffffffffff160217905550808273ffffffffffffffffffffffffffffffffffffffff168473ffffffffffffffffffffffffffffffffffffffff167fddf252ad1be2c89b69c2b068fc378daa952ba7f163c4a11628f55a4df523b3ef60405160405180910390a4505050565b6117fa848484611593565b611806848484846119c8565b611845576040517f08c379a000000000000000000000000000000000000000000000000000000000815260040161183c90612236565b60405180910390fd5b50505050565b606060405180602001604052806000815250905090565b606060008214156118aa576040518060400160405280600181526020017f300000000000000000000000000000000000000000000000000000000000000081525090506119be565b600082905060005b600082146118dc5780806118c590612668565b915050600a826118d591906124e0565b91506118b2565b60008167ffffffffffffffff8111156118f8576118f761279e565b5b6040519080825280601f01601f19166020018201604052801561192a5781602001600182028036833780820191505090505b5090505b600085146119b7576001826119439190612511565b9150600a8561195291906126b1565b603061195e919061248a565b60f81b8183815181106119745761197361276f565b5b60200101907effffffffffffffffffffffffffffffffffffffffffffffffffffffffffffff1916908160001a905350600a856119b091906124e0565b945061192e565b8093505050505b919050565b505050565b60006119e98473ffffffffffffffffffffffffffffffffffffffff16611b5f565b15611b52578373ffffffffffffffffffffffffffffffffffffffff1663150b7a02611a126113f4565b8786866040518563ffffffff1660e01b8152600401611a3494939291906121ad565b602060405180830381600087803b158015611a4e57600080fd5b505af1925050508015611a7f57506040513d601f19601f82011682018060405250810190611a7c9190611e7d565b60015b611b02573d8060008114611aaf576040519150601f19603f3d011682016040523d82523d6000602084013e611ab4565b606091505b50600081511415611afa576040517f08c379a0000000000000000000000000000000000000000000000000000000008152600401611af190612236565b60405180910390fd5b805181602001fd5b63150b7a0260e01b7bffffffffffffffffffffffffffffffffffffffffffffffffffffffff1916817bffffffffffffffffffffffffffffffffffffffffffffffffffffffff191614915050611b57565b600190505b949350505050565b600080823b905060008111915050919050565b6000611b85611b8084612416565b6123f1565b905082815260208101848484011115611ba157611ba06127d2565b5b611bac8482856125c3565b509392505050565b600081359050611bc381612ba9565b92915050565b600081359050611bd881612bc0565b92915050565b600081359050611bed81612bd7565b92915050565b600081359050611c0281612bee565b92915050565b600081519050611c1781612bee565b92915050565b600082601f830112611c3257611c316127cd565b5b8135611c42848260208601611b72565b91505092915050565b600081359050611c5a81612c05565b92915050565b600060208284031215611c7657611c756127dc565b5b6000611c8484828501611bb4565b91505092915050565b60008060408385031215611ca457611ca36127dc565b5b6000611cb285828601611bb4565b9250506020611cc385828601611bb4565b9150509250929050565b600080600060608486031215611ce657611ce56127dc565b5b6000611cf486828701611bb4565b9350506020611d0586828701611bb4565b9250506040611d1686828701611c4b565b9150509250925092565b60008060008060808587031215611d3a57611d396127dc565b5b6000611d4887828801611bb4565b9450506020611d5987828801611bb4565b9350506040611d6a87828801611c4b565b925050606085013567ffffffffffffffff811115611d8b57611d8a6127d7565b5b611d9787828801611c1d565b91505092959194509250565b60008060408385031215611dba57611db96127dc565b5b6000611dc885828601611bb4565b9250506020611dd985828601611bc9565b9150509250929050565b60008060408385031215611dfa57611df96127dc565b5b6000611e0885828601611bb4565b9250506020611e1985828601611c4b565b9150509250929050565b600060208284031215611e3957611e386127dc565b5b6000611e4784828501611bde565b91505092915050565b600060208284031215611e6657611e656127dc565b5b6000611e7484828501611bf3565b91505092915050565b600060208284031215611e9357611e926127dc565b5b6000611ea184828501611c08565b91505092915050565b600060208284031215611ec057611ebf6127dc565b5b6000611ece84828501611c4b565b91505092915050565b611ee081612545565b82525050565b611eef81612557565b82525050565b6000611f0082612447565b611f0a818561245d565b9350611f1a8185602086016125d2565b611f23816127e1565b840191505092915050565b6000611f3982612452565b611f43818561246e565b9350611f538185602086016125d2565b611f5c816127e1565b840191505092915050565b6000611f7282612452565b611f7c818561247f565b9350611f8c8185602086016125d2565b80840191505092915050565b6000611fa560328361246e565b9150611fb0826127f2565b604082019050919050565b6000611fc860248361246e565b9150611fd382612841565b604082019050919050565b6000611feb60198361246e565b9150611ff682612890565b602082019050919050565b600061200e602c8361246e565b9150612019826128b9565b604082019050919050565b600061203160388361246e565b915061203c82612908565b604082019050919050565b6000612054602a8361246e565b915061205f82612957565b604082019050919050565b600061207760298361246e565b9150612082826129a6565b604082019050919050565b600061209a602c8361246e565b91506120a5826129f5565b604082019050919050565b60006120bd60298361246e565b91506120c882612a44565b604082019050919050565b60006120e0602f8361246e565b91506120eb82612a93565b604082019050919050565b600061210360218361246e565b915061210e82612ae2565b604082019050919050565b600061212660318361246e565b915061213182612b31565b604082019050919050565b600061214960208361246e565b915061215482612b80565b602082019050919050565b612168816125b9565b82525050565b600061217a8285611f67565b91506121868284611f67565b91508190509392505050565b60006020820190506121a76000830184611ed7565b92915050565b60006080820190506121c26000830187611ed7565b6121cf6020830186611ed7565b6121dc604083018561215f565b81810360608301526121ee8184611ef5565b905095945050505050565b600060208201905061220e6000830184611ee6565b92915050565b6000602082019050818103600083015261222e8184611f2e565b905092915050565b6000602082019050818103600083015261224f81611f98565b9050919050565b6000602082019050818103600083015261226f81611fbb565b9050919050565b6000602082019050818103600083015261228f81611fde565b9050919050565b600060208201905081810360008301526122af81612001565b9050919050565b600060208201905081810360008301526122cf81612024565b9050919050565b600060208201905081810360008301526122ef81612047565b9050919050565b6000602082019050818103600083015261230f8161206a565b9050919050565b6000602082019050818103600083015261232f8161208d565b9050919050565b6000602082019050818103600083015261234f816120b0565b9050919050565b6000602082019050818103600083015261236f816120d3565b9050919050565b6000602082019050818103600083015261238f816120f6565b9050919050565b600060208201905081810360008301526123af81612119565b9050919050565b600060208201905081810360008301526123cf8161213c565b9050919050565b60006020820190506123eb600083018461215f565b92915050565b60006123fb61240c565b90506124078282612637565b919050565b6000604051905090565b600067ffffffffffffffff8211156124315761243061279e565b5b61243a826127e1565b9050602081019050919050565b600081519050919050565b600081519050919050565b600082825260208201905092915050565b600082825260208201905092915050565b600081905092915050565b6000612495826125b9565b91506124a0836125b9565b9250827fffffffffffffffffffffffffffffffffffffffffffffffffffffffffffffffff038211156124d5576124d46126e2565b5b828201905092915050565b60006124eb826125b9565b91506124f6836125b9565b92508261250657612505612711565b5b828204905092915050565b600061251c826125b9565b9150612527836125b9565b92508282101561253a576125396126e2565b5b828203905092915050565b600061255082612599565b9050919050565b60008115159050919050565b6000819050919050565b60007fffffffff0000000000000000000000000000000000000000000000000000000082169050919050565b600073ffffffffffffffffffffffffffffffffffffffff82169050919050565b6000819050919050565b82818337600083830152505050565b60005b838110156125f05780820151818401526020810190506125d5565b838111156125ff576000848401525b50505050565b6000600282049050600182168061261d57607f821691505b6020821081141561263157612630612740565b5b50919050565b612640826127e1565b810181811067ffffffffffffffff8211171561265f5761265e61279e565b5b80604052505050565b6000612673826125b9565b91507fffffffffffffffffffffffffffffffffffffffffffffffffffffffffffffffff8214156126a6576126a56126e2565b5b600182019050919050565b60006126bc826125b9565b91506126c7836125b9565b9250826126d7576126d6612711565b5b828206905092915050565b7f4e487b7100000000000000000000000000000000000000000000000000000000600052601160045260246000fd5b7f4e487b7100000000000000000000000000000000000000000000000000000000600052601260045260246000fd5b7f4e487b7100000000000000000000000000000000000000000000000000000000600052602260045260246000fd5b7f4e487b7100000000000000000000000000000000000000000000000000000000600052603260045260246000fd5b7f4e487b7100000000000000000000000000000000000000000000000000000000600052604160045260246000fd5b600080fd5b600080fd5b600080fd5b600080fd5b6000601f19601f8301169050919050565b7f4552433732313a207472616e7366657220746f206e6f6e20455243373231526560008201527f63656976657220696d706c656d656e7465720000000000000000000000000000602082015250565b7f4552433732313a207472616e7366657220746f20746865207a65726f2061646460008201527f7265737300000000000000000000000000000000000000000000000000000000602082015250565b7f4552433732313a20617070726f766520746f2063616c6c657200000000000000600082015250565b7f4552433732313a206f70657261746f7220717565727920666f72206e6f6e657860008201527f697374656e7420746f6b656e0000000000000000000000000000000000000000602082015250565b7f4552433732313a20617070726f76652063616c6c6572206973206e6f74206f7760008201527f6e6572206e6f7220617070726f76656420666f7220616c6c0000000000000000602082015250565b7f4552433732313a2062616c616e636520717565727920666f7220746865207a6560008201527f726f206164647265737300000000000000000000000000000000000000000000602082015250565b7f4552433732313a206f776e657220717565727920666f72206e6f6e657869737460008201527f656e7420746f6b656e0000000000000000000000000000000000000000000000602082015250565b7f4552433732313a20617070726f76656420717565727920666f72206e6f6e657860008201527f697374656e7420746f6b656e0000000000000000000000000000000000000000602082015250565b7f4552433732313a207472616e73666572206f6620746f6b656e2074686174206960008201527f73206e6f74206f776e0000000000000000000000000000000000000000000000602082015250565b7f4552433732314d657461646174613a2055524920717565727920666f72206e6f60008201527f6e6578697374656e7420746f6b656e0000000000000000000000000000000000602082015250565b7f4552433732313a20617070726f76616c20746f2063757272656e74206f776e6560008201527f7200000000000000000000000000000000000000000000000000000000000000602082015250565b7f4552433732313a207472616e736665722063616c6c6572206973206e6f74206f60008201527f776e6572206e6f7220617070726f766564000000000000000000000000000000602082015250565b7f57617272696f72733a2077617272696f7220646f6573206e6f74206578697374600082015250565b612bb281612545565b8114612bbd57600080fd5b50565b612bc981612557565b8114612bd457600080fd5b50565b612be081612563565b8114612beb57600080fd5b50565b612bf78161256d565b8114612c0257600080fd5b50565b612c0e816125b9565b8114612c1957600080fd5b5056fea26469706673582212208c154afb3aff2221314d5de316c7dc23398b767a6c9032c1b3ed1190e5f4100464736f6c63430008060033",
  "linkReferences": {},
  "deployedLinkReferences": {}
}