{
  "_format": "hh-sol-artifact-1",
  "contractName": "WarriorGeneration",
  "sourceName": "contracts/modules/WarriorGeneration.sol",
  "abi": [
    {
      "inputs": [
        {
          "internalType": "uint256",
          "name": "_initialMaxPopulation",
          "type": "uint256"
        }
      ],
      "stateMutability": "nonpayable",
      "type": "constructor"
    },
    {
      "anonymous": false,
      "inputs": [
        {
          "indexed": true,
          "internalType": "address",
          "name": "owner",
          "type": "address"
        },
        {
          "indexed": true,
          "internalType": "address",
          "name": "approved",
          "type": "address"
        },
        {
          "indexed": true,
          "internalType": "uint256",
          "name": "tokenId",
          "type": "uint256"
        }
      ],
      "name": "Approval",
      "type": "event"
    },
    {
      "anonymous": false,
      "inputs": [
        {
          "indexed": true,
          "internalType": "address",
          "name": "owner",
          "type": "address"
        },
        {
          "indexed": true,
          "internalType": "address",
          "name": "operator",
          "type": "address"
        },
        {
          "indexed": false,
          "internalType": "bool",
          "name": "approved",
          "type": "bool"
        }
      ],
      "name": "ApprovalForAll",
      "type": "event"
    },
    {
      "anonymous": false,
      "inputs": [
        {
          "indexed": true,
          "internalType": "address",
          "name": "from",
          "type": "address"
        },
        {
          "indexed": true,
          "internalType": "address",
          "name": "to",
          "type": "address"
        },
        {
          "indexed": true,
          "internalType": "uint256",
          "name": "tokenId",
          "type": "uint256"
        }
      ],
      "name": "Transfer",
      "type": "event"
    },
    {
      "anonymous": false,
      "inputs": [
        {
          "indexed": true,
          "internalType": "address",
          "name": "owner",
          "type": "address"
        },
        {
          "indexed": true,
          "internalType": "uint256",
          "name": "warriorId",
          "type": "uint256"
        }
      ],
      "name": "WarriorGenerated",
      "type": "event"
    },
    {
      "inputs": [],
      "name": "GENERATION_COOLDOWN",
      "outputs": [
        {
          "internalType": "uint256",
          "name": "",
          "type": "uint256"
        }
      ],
      "stateMutability": "view",
      "type": "function"
    },
    {
      "inputs": [],
      "name": "GROWTH_PRECISION",
      "outputs": [
        {
          "internalType": "uint256",
          "name": "",
          "type": "uint256"
        }
      ],
      "stateMutability": "view",
      "type": "function"
    },
    {
      "inputs": [],
      "name": "PRECISION",
      "outputs": [
        {
          "internalType": "uint256",
          "name": "",
          "type": "uint256"
        }
      ],
      "stateMutability": "view",
      "type": "function"
    },
    {
      "inputs": [
        {
          "internalType": "address",
          "name": "to",
          "type": "address"
        },
        {
          "internalType": "uint256",
          "name": "tokenId",
          "type": "uint256"
        }
      ],
      "name": "approve",
      "outputs": [],
      "stateMutability": "nonpayable",
      "type": "function"
    },
    {
      "inputs": [
        {
          "internalType": "address",
          "name": "owner",
          "type": "address"
        }
      ],
      "name": "balanceOf",
      "outputs": [
        {
          "internalType": "uint256",
          "name": "",
          "type": "uint256"
        }
      ],
      "stateMutability": "view",
      "type": "function"
    },
    {
      "inputs": [],
      "name": "currentGeneration",
      "outputs": [
        {
          "internalType": "uint256",
          "name": "",
          "type": "uint256"
        }
      ],
      "stateMutability": "view",
      "type": "function"
    },
    {
      "inputs": [],
      "name": "currentGenerationMaxPopulation",
      "outputs": [
        {
          "internalType": "uint256",
          "name": "",
          "type": "uint256"
        }
      ],
      "stateMutability": "view",
      "type": "function"
    },
    {
      "inputs": [],
      "name": "currentGenerationPopulation",
      "outputs": [
        {
          "internalType": "uint256",
          "name": "",
          "type": "uint256"
        }
      ],
      "stateMutability": "view",
      "type": "function"
    },
    {
      "inputs": [
        {
          "internalType": "uint256",
          "name": "tokenId",
          "type": "uint256"
        }
      ],
      "name": "getApproved",
      "outputs": [
        {
          "internalType": "address",
          "name": "",
          "type": "address"
        }
      ],
      "stateMutability": "view",
      "type": "function"
    },
    {
      "inputs": [
        {
          "internalType": "uint256",
          "name": "_warriorId",
          "type": "uint256"
        }
      ],
      "name": "getWarrior",
      "outputs": [
        {
          "internalType": "uint256",
          "name": "warrior",
          "type": "uint256"
        }
      ],
      "stateMutability": "view",
      "type": "function"
    },
    {
      "inputs": [
        {
          "internalType": "uint256",
          "name": "_warriorId",
          "type": "uint256"
        }
      ],
      "name": "getWarriorGeneration",
      "outputs": [
        {
          "internalType": "uint256",
          "name": "",
          "type": "uint256"
        }
      ],
      "stateMutability": "view",
      "type": "function"
    },
    {
      "inputs": [],
      "name": "growthRate",
      "outputs": [
        {
          "internalType": "uint256",
          "name": "",
          "type": "uint256"
        }
      ],
      "stateMutability": "view",
      "type": "function"
    },
    {
      "inputs": [],
      "name": "isActive",
      "outputs": [
        {
          "internalType": "bool",
          "name": "",
          "type": "bool"
        }
      ],
      "stateMutability": "view",
      "type": "function"
    },
    {
      "inputs": [
        {
          "internalType": "address",
          "name": "owner",
          "type": "address"
        },
        {
          "internalType": "address",
          "name": "operator",
          "type": "address"
        }
      ],
      "name": "isApprovedForAll",
      "outputs": [
        {
          "internalType": "bool",
          "name": "",
          "type": "bool"
        }
      ],
      "stateMutability": "view",
      "type": "function"
    },
    {
      "inputs": [
        {
          "internalType": "uint256",
          "name": "",
          "type": "uint256"
        }
      ],
      "name": "isGeneUsed",
      "outputs": [
        {
          "internalType": "bool",
          "name": "",
          "type": "bool"
        }
      ],
      "stateMutability": "view",
      "type": "function"
    },
    {
      "inputs": [],
      "name": "lastGeneration",
      "outputs": [
        {
          "internalType": "uint256",
          "name": "",
          "type": "uint256"
        }
      ],
      "stateMutability": "view",
      "type": "function"
    },
    {
      "inputs": [],
      "name": "maxPopulation",
      "outputs": [
        {
          "internalType": "uint256",
          "name": "",
          "type": "uint256"
        }
      ],
      "stateMutability": "view",
      "type": "function"
    },
    {
      "inputs": [],
      "name": "maxPopulationPerGen",
      "outputs": [
        {
          "internalType": "uint256",
          "name": "",
          "type": "uint256"
        }
      ],
      "stateMutability": "view",
      "type": "function"
    },
    {
      "inputs": [],
      "name": "name",
      "outputs": [
        {
          "internalType": "string",
          "name": "",
          "type": "string"
        }
      ],
      "stateMutability": "view",
      "type": "function"
    },
    {
      "inputs": [],
      "name": "nextGenerationStartBlock",
      "outputs": [
        {
          "internalType": "uint256",
          "name": "",
          "type": "uint256"
        }
      ],
      "stateMutability": "view",
      "type": "function"
    },
    {
      "inputs": [
        {
          "internalType": "uint256",
          "name": "tokenId",
          "type": "uint256"
        }
      ],
      "name": "ownerOf",
      "outputs": [
        {
          "internalType": "address",
          "name": "",
          "type": "address"
        }
      ],
      "stateMutability": "view",
      "type": "function"
    },
    {
      "inputs": [],
      "name": "populationUntilLastGeneration",
      "outputs": [
        {
          "internalType": "uint256",
          "name": "",
          "type": "uint256"
        }
      ],
      "stateMutability": "view",
      "type": "function"
    },
    {
      "inputs": [
        {
          "internalType": "address",
          "name": "from",
          "type": "address"
        },
        {
          "internalType": "address",
          "name": "to",
          "type": "address"
        },
        {
          "internalType": "uint256",
          "name": "tokenId",
          "type": "uint256"
        }
      ],
      "name": "safeTransferFrom",
      "outputs": [],
      "stateMutability": "nonpayable",
      "type": "function"
    },
    {
      "inputs": [
        {
          "internalType": "address",
          "name": "from",
          "type": "address"
        },
        {
          "internalType": "address",
          "name": "to",
          "type": "address"
        },
        {
          "internalType": "uint256",
          "name": "tokenId",
          "type": "uint256"
        },
        {
          "internalType": "bytes",
          "name": "_data",
          "type": "bytes"
        }
      ],
      "name": "safeTransferFrom",
      "outputs": [],
      "stateMutability": "nonpayable",
      "type": "function"
    },
    {
      "inputs": [
        {
          "internalType": "address",
          "name": "operator",
          "type": "address"
        },
        {
          "internalType": "bool",
          "name": "approved",
          "type": "bool"
        }
      ],
      "name": "setApprovalForAll",
      "outputs": [],
      "stateMutability": "nonpayable",
      "type": "function"
    },
    {
      "inputs": [
        {
          "internalType": "bytes4",
          "name": "interfaceId",
          "type": "bytes4"
        }
      ],
      "name": "supportsInterface",
      "outputs": [
        {
          "internalType": "bool",
          "name": "",
          "type": "bool"
        }
      ],
      "stateMutability": "view",
      "type": "function"
    },
    {
      "inputs": [],
      "name": "symbol",
      "outputs": [
        {
          "internalType": "string",
          "name": "",
          "type": "string"
        }
      ],
      "stateMutability": "view",
      "type": "function"
    },
    {
      "inputs": [
        {
          "internalType": "uint256",
          "name": "tokenId",
          "type": "uint256"
        }
      ],
      "name": "tokenURI",
      "outputs": [
        {
          "internalType": "string",
          "name": "",
          "type": "string"
        }
      ],
      "stateMutability": "view",
      "type": "function"
    },
    {
      "inputs": [
        {
          "internalType": "address",
          "name": "from",
          "type": "address"
        },
        {
          "internalType": "address",
          "name": "to",
          "type": "address"
        },
        {
          "internalType": "uint256",
          "name": "tokenId",
          "type": "uint256"
        }
      ],
      "name": "transferFrom",
      "outputs": [],
      "stateMutability": "nonpayable",
      "type": "function"
    },
    {
      "inputs": [],
      "name": "warriorCounter",
      "outputs": [
        {
          "internalType": "uint256",
          "name": "",
          "type": "uint256"
        }
      ],
      "stateMutability": "view",
      "type": "function"
    }
  ],
  "bytecode": "0x608060405263019bfcc0600955620186a0600a55610187600d553480156200002657600080fd5b5060405162002be638038062002be683398181016040528101906200004c9190620001d9565b806040518060400160405280600881526020017f57617272696f72730000000000000000000000000000000000000000000000008152506040518060400160405280600381526020017f57525400000000000000000000000000000000000000000000000000000000008152508160009080519060200190620000d192919062000112565b508060019080519060200190620000ea92919062000112565b50505080600b81905550506101f4436200010591906200020b565b600f819055505062000325565b828054620001209062000272565b90600052602060002090601f01602090048101928262000144576000855562000190565b82601f106200015f57805160ff191683800117855562000190565b8280016001018555821562000190579182015b828111156200018f57825182559160200191906001019062000172565b5b5090506200019f9190620001a3565b5090565b5b80821115620001be576000816000905550600101620001a4565b5090565b600081519050620001d3816200030b565b92915050565b600060208284031215620001f257620001f162000306565b5b60006200020284828501620001c2565b91505092915050565b6000620002188262000268565b9150620002258362000268565b9250827fffffffffffffffffffffffffffffffffffffffffffffffffffffffffffffffff038211156200025d576200025c620002a8565b5b828201905092915050565b6000819050919050565b600060028204905060018216806200028b57607f821691505b60208210811415620002a257620002a1620002d7565b5b50919050565b7f4e487b7100000000000000000000000000000000000000000000000000000000600052601160045260246000fd5b7f4e487b7100000000000000000000000000000000000000000000000000000000600052602260045260246000fd5b600080fd5b620003168162000268565b81146200032257600080fd5b50565b6128b180620003356000396000f3fe608060405234801561001057600080fd5b50600436106101da5760003560e01c80636352211e11610104578063a22cb465116100a2578063c87b56dd11610071578063c87b56dd1461055f578063cf26c5241461058f578063d0b96ef9146105ad578063e985e9c5146105cb576101da565b8063a22cb465146104eb578063aaf5eb6814610507578063ad4ae8c314610525578063b88d4fde14610543576101da565b806370a08231116100de57806370a082311461044f5780638ddb428a1461047f5780639422ee781461049d57806395d89b41146104cd576101da565b80636352211e146103e35780636ae8f737146104135780636bba6c2814610431576101da565b80631e15ec921161017c57806342842e0e1161014b57806342842e0e1461036d57806347697a04146103895780634787dc65146103a75780635e30acb4146103c5576101da565b80631e15ec92146102d357806322f3e2d41461030357806323b872dd1461032157806329372ad01461033d576101da565b8063081812fc116101b8578063081812fc1461024b578063095ea7b31461027b57806317729a82146102975780631ae64d2f146102b5576101da565b8063014f25ab146101df57806301ffc9a7146101fd57806306fdde031461022d575b600080fd5b6101e76105fb565b6040516101f49190612056565b60405180910390f35b61021760048036038101906102129190611ad0565b610600565b6040516102249190611e79565b60405180910390f35b6102356106e2565b6040516102429190611e94565b60405180910390f35b61026560048036038101906102609190611b2a565b610774565b6040516102729190611e12565b60405180910390f35b61029560048036038101906102909190611a90565b6107f9565b005b61029f610911565b6040516102ac9190612056565b60405180910390f35b6102bd610917565b6040516102ca9190612056565b60405180910390f35b6102ed60048036038101906102e89190611b2a565b61092e565b6040516102fa9190612056565b60405180910390f35b61030b610976565b6040516103189190611e79565b60405180910390f35b61033b6004803603810190610336919061197a565b610983565b005b61035760048036038101906103529190611b2a565b6109e3565b6040516103649190612056565b60405180910390f35b6103876004803603810190610382919061197a565b610a44565b005b610391610a64565b60405161039e9190612056565b60405180910390f35b6103af610a6a565b6040516103bc9190612056565b60405180910390f35b6103cd610a70565b6040516103da9190612056565b60405180910390f35b6103fd60048036038101906103f89190611b2a565b610a76565b60405161040a9190611e12565b60405180910390f35b61041b610b28565b6040516104289190612056565b60405180910390f35b610439610b2e565b6040516104469190612056565b60405180910390f35b6104696004803603810190610464919061190d565b610b34565b6040516104769190612056565b60405180910390f35b610487610bec565b6040516104949190612056565b60405180910390f35b6104b760048036038101906104b29190611b2a565b610bf2565b6040516104c49190611e79565b60405180910390f35b6104d5610c12565b6040516104e29190611e94565b60405180910390f35b61050560048036038101906105009190611a50565b610ca4565b005b61050f610e25565b60405161051c9190612056565b60405180910390f35b61052d610e31565b60405161053a9190612056565b60405180910390f35b61055d600480360381019061055891906119cd565b610e37565b005b61057960048036038101906105749190611b2a565b610e99565b6040516105869190611e94565b60405180910390f35b610597610f40565b6040516105a49190612056565b60405180910390f35b6105b5610f46565b6040516105c29190612056565b60405180910390f35b6105e560048036038101906105e0919061193a565b610f4c565b6040516105f29190611e79565b60405180910390f35b606481565b60007f80ac58cd000000000000000000000000000000000000000000000000000000007bffffffffffffffffffffffffffffffffffffffffffffffffffffffff1916827bffffffffffffffffffffffffffffffffffffffffffffffffffffffff191614806106cb57507f5b5e139f000000000000000000000000000000000000000000000000000000007bffffffffffffffffffffffffffffffffffffffffffffffffffffffff1916827bffffffffffffffffffffffffffffffffffffffffffffffffffffffff1916145b806106db57506106da82610fe0565b5b9050919050565b6060600080546106f19061227b565b80601f016020809104026020016040519081016040528092919081815260200182805461071d9061227b565b801561076a5780601f1061073f5761010080835404028352916020019161076a565b820191906000526020600020905b81548152906001019060200180831161074d57829003601f168201915b5050505050905090565b600061077f8261104a565b6107be576040517f08c379a00000000000000000000000000000000000000000000000000000000081526004016107b590611f96565b60405180910390fd5b6004600083815260200190815260200160002060009054906101000a900473ffffffffffffffffffffffffffffffffffffffff169050919050565b600061080482610a76565b90508073ffffffffffffffffffffffffffffffffffffffff168373ffffffffffffffffffffffffffffffffffffffff161415610875576040517f08c379a000000000000000000000000000000000000000000000000000000000815260040161086c90611ff6565b60405180910390fd5b8073ffffffffffffffffffffffffffffffffffffffff166108946110b6565b73ffffffffffffffffffffffffffffffffffffffff1614806108c357506108c2816108bd6110b6565b610f4c565b5b610902576040517f08c379a00000000000000000000000000000000000000000000000000000000081526004016108f990611f36565b60405180910390fd5b61090c83836110be565b505050565b60095481565b6000600c546008546109299190612191565b905090565b60006103e87d90e40fbeea1d3a4abc8955e946fe31cdcf66f634e100000000000000000061095b846109e3565b6109659190612160565b61096f9190612327565b9050919050565b600043600f541115905090565b61099461098e6110b6565b82611177565b6109d3576040517f08c379a00000000000000000000000000000000000000000000000000000000081526004016109ca90612016565b60405180910390fd5b6109de838383611255565b505050565b6000600660008381526020019081526020016000205490506000811415610a3f576040517f08c379a0000000000000000000000000000000000000000000000000000000008152600401610a3690612036565b60405180910390fd5b919050565b610a5f83838360405180602001604052806000815250610e37565b505050565b6101d281565b600b5481565b6156fe81565b6000806002600084815260200190815260200160002060009054906101000a900473ffffffffffffffffffffffffffffffffffffffff169050600073ffffffffffffffffffffffffffffffffffffffff168173ffffffffffffffffffffffffffffffffffffffff161415610b1f576040517f08c379a0000000000000000000000000000000000000000000000000000000008152600401610b1690611f76565b60405180910390fd5b80915050919050565b600c5481565b600a5481565b60008073ffffffffffffffffffffffffffffffffffffffff168273ffffffffffffffffffffffffffffffffffffffff161415610ba5576040517f08c379a0000000000000000000000000000000000000000000000000000000008152600401610b9c90611f56565b60405180910390fd5b600360008373ffffffffffffffffffffffffffffffffffffffff1673ffffffffffffffffffffffffffffffffffffffff168152602001908152602001600020549050919050565b600e5481565b60076020528060005260406000206000915054906101000a900460ff1681565b606060018054610c219061227b565b80601f0160208091040260200160405190810160405280929190818152602001828054610c4d9061227b565b8015610c9a5780601f10610c6f57610100808354040283529160200191610c9a565b820191906000526020600020905b815481529060010190602001808311610c7d57829003601f168201915b5050505050905090565b610cac6110b6565b73ffffffffffffffffffffffffffffffffffffffff168273ffffffffffffffffffffffffffffffffffffffff161415610d1a576040517f08c379a0000000000000000000000000000000000000000000000000000000008152600401610d1190611ef6565b60405180910390fd5b8060056000610d276110b6565b73ffffffffffffffffffffffffffffffffffffffff1673ffffffffffffffffffffffffffffffffffffffff16815260200190815260200160002060008473ffffffffffffffffffffffffffffffffffffffff1673ffffffffffffffffffffffffffffffffffffffff16815260200190815260200160002060006101000a81548160ff0219169083151502179055508173ffffffffffffffffffffffffffffffffffffffff16610dd46110b6565b73ffffffffffffffffffffffffffffffffffffffff167f17307eab39ab6107e8899845ad3d59bd9653f200f220920489ca2b5937696c3183604051610e199190611e79565b60405180910390a35050565b670de0b6b3a764000081565b600d5481565b610e48610e426110b6565b83611177565b610e87576040517f08c379a0000000000000000000000000000000000000000000000000000000008152600401610e7e90612016565b60405180910390fd5b610e93848484846114b1565b50505050565b6060610ea48261104a565b610ee3576040517f08c379a0000000000000000000000000000000000000000000000000000000008152600401610eda90611fd6565b60405180910390fd5b6000610eed61150d565b90506000815111610f0d5760405180602001604052806000815250610f38565b80610f1784611524565b604051602001610f28929190611dee565b6040516020818303038152906040525b915050919050565b600f5481565b60085481565b6000600560008473ffffffffffffffffffffffffffffffffffffffff1673ffffffffffffffffffffffffffffffffffffffff16815260200190815260200160002060008373ffffffffffffffffffffffffffffffffffffffff1673ffffffffffffffffffffffffffffffffffffffff16815260200190815260200160002060009054906101000a900460ff16905092915050565b60007f01ffc9a7000000000000000000000000000000000000000000000000000000007bffffffffffffffffffffffffffffffffffffffffffffffffffffffff1916827bffffffffffffffffffffffffffffffffffffffffffffffffffffffff1916149050919050565b60008073ffffffffffffffffffffffffffffffffffffffff166002600084815260200190815260200160002060009054906101000a900473ffffffffffffffffffffffffffffffffffffffff1673ffffffffffffffffffffffffffffffffffffffff1614159050919050565b600033905090565b816004600083815260200190815260200160002060006101000a81548173ffffffffffffffffffffffffffffffffffffffff021916908373ffffffffffffffffffffffffffffffffffffffff160217905550808273ffffffffffffffffffffffffffffffffffffffff1661113183610a76565b73ffffffffffffffffffffffffffffffffffffffff167f8c5be1e5ebec7d5bd14f71427d1e84f3dd0314c0f7b2291e5b200ac8c7c3b92560405160405180910390a45050565b60006111828261104a565b6111c1576040517f08c379a00000000000000000000000000000000000000000000000000000000081526004016111b890611f16565b60405180910390fd5b60006111cc83610a76565b90508073ffffffffffffffffffffffffffffffffffffffff168473ffffffffffffffffffffffffffffffffffffffff16148061123b57508373ffffffffffffffffffffffffffffffffffffffff1661122384610774565b73ffffffffffffffffffffffffffffffffffffffff16145b8061124c575061124b8185610f4c565b5b91505092915050565b8273ffffffffffffffffffffffffffffffffffffffff1661127582610a76565b73ffffffffffffffffffffffffffffffffffffffff16146112cb576040517f08c379a00000000000000000000000000000000000000000000000000000000081526004016112c290611fb6565b60405180910390fd5b600073ffffffffffffffffffffffffffffffffffffffff168273ffffffffffffffffffffffffffffffffffffffff16141561133b576040517f08c379a000000000000000000000000000000000000000000000000000000000815260040161133290611ed6565b60405180910390fd5b611346838383611685565b6113516000826110be565b6001600360008573ffffffffffffffffffffffffffffffffffffffff1673ffffffffffffffffffffffffffffffffffffffff16815260200190815260200160002060008282546113a19190612191565b925050819055506001600360008473ffffffffffffffffffffffffffffffffffffffff1673ffffffffffffffffffffffffffffffffffffffff16815260200190815260200160002060008282546113f8919061210a565b92505081905550816002600083815260200190815260200160002060006101000a81548173ffffffffffffffffffffffffffffffffffffffff021916908373ffffffffffffffffffffffffffffffffffffffff160217905550808273ffffffffffffffffffffffffffffffffffffffff168473ffffffffffffffffffffffffffffffffffffffff167fddf252ad1be2c89b69c2b068fc378daa952ba7f163c4a11628f55a4df523b3ef60405160405180910390a4505050565b6114bc848484611255565b6114c88484848461168a565b611507576040517f08c379a00000000000000000000000000000000000000000000000000000000081526004016114fe90611eb6565b60405180910390fd5b50505050565b606060405180602001604052806000815250905090565b6060600082141561156c576040518060400160405280600181526020017f30000000000000000000000000000000000000000000000000000000000000008152509050611680565b600082905060005b6000821461159e578080611587906122de565b915050600a826115979190612160565b9150611574565b60008167ffffffffffffffff8111156115ba576115b9612414565b5b6040519080825280601f01601f1916602001820160405280156115ec5781602001600182028036833780820191505090505b5090505b60008514611679576001826116059190612191565b9150600a856116149190612327565b6030611620919061210a565b60f81b818381518110611636576116356123e5565b5b60200101907effffffffffffffffffffffffffffffffffffffffffffffffffffffffffffff1916908160001a905350600a856116729190612160565b94506115f0565b8093505050505b919050565b505050565b60006116ab8473ffffffffffffffffffffffffffffffffffffffff16611821565b15611814578373ffffffffffffffffffffffffffffffffffffffff1663150b7a026116d46110b6565b8786866040518563ffffffff1660e01b81526004016116f69493929190611e2d565b602060405180830381600087803b15801561171057600080fd5b505af192505050801561174157506040513d601f19601f8201168201806040525081019061173e9190611afd565b60015b6117c4573d8060008114611771576040519150601f19603f3d011682016040523d82523d6000602084013e611776565b606091505b506000815114156117bc576040517f08c379a00000000000000000000000000000000000000000000000000000000081526004016117b390611eb6565b60405180910390fd5b805181602001fd5b63150b7a0260e01b7bffffffffffffffffffffffffffffffffffffffffffffffffffffffff1916817bffffffffffffffffffffffffffffffffffffffffffffffffffffffff191614915050611819565b600190505b949350505050565b600080823b905060008111915050919050565b600061184761184284612096565b612071565b90508281526020810184848401111561186357611862612448565b5b61186e848285612239565b509392505050565b6000813590506118858161281f565b92915050565b60008135905061189a81612836565b92915050565b6000813590506118af8161284d565b92915050565b6000815190506118c48161284d565b92915050565b600082601f8301126118df576118de612443565b5b81356118ef848260208601611834565b91505092915050565b60008135905061190781612864565b92915050565b60006020828403121561192357611922612452565b5b600061193184828501611876565b91505092915050565b6000806040838503121561195157611950612452565b5b600061195f85828601611876565b925050602061197085828601611876565b9150509250929050565b60008060006060848603121561199357611992612452565b5b60006119a186828701611876565b93505060206119b286828701611876565b92505060406119c3868287016118f8565b9150509250925092565b600080600080608085870312156119e7576119e6612452565b5b60006119f587828801611876565b9450506020611a0687828801611876565b9350506040611a17878288016118f8565b925050606085013567ffffffffffffffff811115611a3857611a3761244d565b5b611a44878288016118ca565b91505092959194509250565b60008060408385031215611a6757611a66612452565b5b6000611a7585828601611876565b9250506020611a868582860161188b565b9150509250929050565b60008060408385031215611aa757611aa6612452565b5b6000611ab585828601611876565b9250506020611ac6858286016118f8565b9150509250929050565b600060208284031215611ae657611ae5612452565b5b6000611af4848285016118a0565b91505092915050565b600060208284031215611b1357611b12612452565b5b6000611b21848285016118b5565b91505092915050565b600060208284031215611b4057611b3f612452565b5b6000611b4e848285016118f8565b91505092915050565b611b60816121c5565b82525050565b611b6f816121d7565b82525050565b6000611b80826120c7565b611b8a81856120dd565b9350611b9a818560208601612248565b611ba381612457565b840191505092915050565b6000611bb9826120d2565b611bc381856120ee565b9350611bd3818560208601612248565b611bdc81612457565b840191505092915050565b6000611bf2826120d2565b611bfc81856120ff565b9350611c0c818560208601612248565b80840191505092915050565b6000611c256032836120ee565b9150611c3082612468565b604082019050919050565b6000611c486024836120ee565b9150611c53826124b7565b604082019050919050565b6000611c6b6019836120ee565b9150611c7682612506565b602082019050919050565b6000611c8e602c836120ee565b9150611c998261252f565b604082019050919050565b6000611cb16038836120ee565b9150611cbc8261257e565b604082019050919050565b6000611cd4602a836120ee565b9150611cdf826125cd565b604082019050919050565b6000611cf76029836120ee565b9150611d028261261c565b604082019050919050565b6000611d1a602c836120ee565b9150611d258261266b565b604082019050919050565b6000611d3d6029836120ee565b9150611d48826126ba565b604082019050919050565b6000611d60602f836120ee565b9150611d6b82612709565b604082019050919050565b6000611d836021836120ee565b9150611d8e82612758565b604082019050919050565b6000611da66031836120ee565b9150611db1826127a7565b604082019050919050565b6000611dc96020836120ee565b9150611dd4826127f6565b602082019050919050565b611de88161222f565b82525050565b6000611dfa8285611be7565b9150611e068284611be7565b91508190509392505050565b6000602082019050611e276000830184611b57565b92915050565b6000608082019050611e426000830187611b57565b611e4f6020830186611b57565b611e5c6040830185611ddf565b8181036060830152611e6e8184611b75565b905095945050505050565b6000602082019050611e8e6000830184611b66565b92915050565b60006020820190508181036000830152611eae8184611bae565b905092915050565b60006020820190508181036000830152611ecf81611c18565b9050919050565b60006020820190508181036000830152611eef81611c3b565b9050919050565b60006020820190508181036000830152611f0f81611c5e565b9050919050565b60006020820190508181036000830152611f2f81611c81565b9050919050565b60006020820190508181036000830152611f4f81611ca4565b9050919050565b60006020820190508181036000830152611f6f81611cc7565b9050919050565b60006020820190508181036000830152611f8f81611cea565b9050919050565b60006020820190508181036000830152611faf81611d0d565b9050919050565b60006020820190508181036000830152611fcf81611d30565b9050919050565b60006020820190508181036000830152611fef81611d53565b9050919050565b6000602082019050818103600083015261200f81611d76565b9050919050565b6000602082019050818103600083015261202f81611d99565b9050919050565b6000602082019050818103600083015261204f81611dbc565b9050919050565b600060208201905061206b6000830184611ddf565b92915050565b600061207b61208c565b905061208782826122ad565b919050565b6000604051905090565b600067ffffffffffffffff8211156120b1576120b0612414565b5b6120ba82612457565b9050602081019050919050565b600081519050919050565b600081519050919050565b600082825260208201905092915050565b600082825260208201905092915050565b600081905092915050565b60006121158261222f565b91506121208361222f565b9250827fffffffffffffffffffffffffffffffffffffffffffffffffffffffffffffffff0382111561215557612154612358565b5b828201905092915050565b600061216b8261222f565b91506121768361222f565b92508261218657612185612387565b5b828204905092915050565b600061219c8261222f565b91506121a78361222f565b9250828210156121ba576121b9612358565b5b828203905092915050565b60006121d08261220f565b9050919050565b60008115159050919050565b60007fffffffff0000000000000000000000000000000000000000000000000000000082169050919050565b600073ffffffffffffffffffffffffffffffffffffffff82169050919050565b6000819050919050565b82818337600083830152505050565b60005b8381101561226657808201518184015260208101905061224b565b83811115612275576000848401525b50505050565b6000600282049050600182168061229357607f821691505b602082108114156122a7576122a66123b6565b5b50919050565b6122b682612457565b810181811067ffffffffffffffff821117156122d5576122d4612414565b5b80604052505050565b60006122e98261222f565b91507fffffffffffffffffffffffffffffffffffffffffffffffffffffffffffffffff82141561231c5761231b612358565b5b600182019050919050565b60006123328261222f565b915061233d8361222f565b92508261234d5761234c612387565b5b828206905092915050565b7f4e487b7100000000000000000000000000000000000000000000000000000000600052601160045260246000fd5b7f4e487b7100000000000000000000000000000000000000000000000000000000600052601260045260246000fd5b7f4e487b7100000000000000000000000000000000000000000000000000000000600052602260045260246000fd5b7f4e487b7100000000000000000000000000000000000000000000000000000000600052603260045260246000fd5b7f4e487b7100000000000000000000000000000000000000000000000000000000600052604160045260246000fd5b600080fd5b600080fd5b600080fd5b600080fd5b6000601f19601f8301169050919050565b7f4552433732313a207472616e7366657220746f206e6f6e20455243373231526560008201527f63656976657220696d706c656d656e7465720000000000000000000000000000602082015250565b7f4552433732313a207472616e7366657220746f20746865207a65726f2061646460008201527f7265737300000000000000000000000000000000000000000000000000000000602082015250565b7f4552433732313a20617070726f766520746f2063616c6c657200000000000000600082015250565b7f4552433732313a206f70657261746f7220717565727920666f72206e6f6e657860008201527f697374656e7420746f6b656e0000000000000000000000000000000000000000602082015250565b7f4552433732313a20617070726f76652063616c6c6572206973206e6f74206f7760008201527f6e6572206e6f7220617070726f76656420666f7220616c6c0000000000000000602082015250565b7f4552433732313a2062616c616e636520717565727920666f7220746865207a6560008201527f726f206164647265737300000000000000000000000000000000000000000000602082015250565b7f4552433732313a206f776e657220717565727920666f72206e6f6e657869737460008201527f656e7420746f6b656e0000000000000000000000000000000000000000000000602082015250565b7f4552433732313a20617070726f76656420717565727920666f72206e6f6e657860008201527f697374656e7420746f6b656e0000000000000000000000000000000000000000602082015250565b7f4552433732313a207472616e73666572206f6620746f6b656e2074686174206960008201527f73206e6f74206f776e0000000000000000000000000000000000000000000000602082015250565b7f4552433732314d657461646174613a2055524920717565727920666f72206e6f60008201527f6e6578697374656e7420746f6b656e0000000000000000000000000000000000602082015250565b7f4552433732313a20617070726f76616c20746f2063757272656e74206f776e6560008201527f7200000000000000000000000000000000000000000000000000000000000000602082015250565b7f4552433732313a207472616e736665722063616c6c6572206973206e6f74206f60008201527f776e6572206e6f7220617070726f766564000000000000000000000000000000602082015250565b7f57617272696f72733a2077617272696f7220646f6573206e6f74206578697374600082015250565b612828816121c5565b811461283357600080fd5b50565b61283f816121d7565b811461284a57600080fd5b50565b612856816121e3565b811461286157600080fd5b50565b61286d8161222f565b811461287857600080fd5b5056fea26469706673582212207a3f4d22de43264b76068f34379ed4683e543594edc1e381e90ec011e7f3895264736f6c63430008060033",
  "linkReferences": {},
  "deployedLinkReferences": {}
}