{
  "_format": "hh-sol-artifact-1",
  "contractName": "IPVC",
  "sourceName": "contracts/IPVC/IPVC.sol",
  "abi": [
    {
      "inputs": [
        {
          "internalType": "bytes32",
          "name": "c__0xb19585b5",
          "type": "bytes32"
        }
      ],
      "name": "c_0xb19585b5",
      "outputs": [],
      "stateMutability": "pure",
      "type": "function"
    },
    {
      "inputs": [
        {
          "internalType": "address",
          "name": "",
          "type": "address"
        }
      ],
      "name": "vaccinator_crew",
      "outputs": [
        {
          "internalType": "bytes32",
          "name": "",
          "type": "bytes32"
        }
      ],
      "stateMutability": "view",
      "type": "function"
    },
    {
      "inputs": [
        {
          "internalType": "bytes32",
          "name": "",
          "type": "bytes32"
        }
      ],
      "name": "vaccinators",
      "outputs": [
        {
          "internalType": "uint16",
          "name": "country_id",
          "type": "uint16"
        },
        {
          "internalType": "bytes",
          "name": "vaccinator_registration_id",
          "type": "bytes"
        },
        {
          "internalType": "address",
          "name": "admin",
          "type": "address"
        },
        {
          "internalType": "uint8",
          "name": "rights_to_practice",
          "type": "uint8"
        }
      ],
      "stateMutability": "view",
      "type": "function"
    }
  ],
  "bytecode": "0x608060405234801561001057600080fd5b506104b4806100206000396000f3fe608060405234801561001057600080fd5b50600436106100415760003560e01c80632ec52b0f146100465780635de44cb714610079578063dd468973146100a9575b600080fd5b610060600480360381019061005b919061022a565b6100c5565b60405161007094939291906102e7565b60405180910390f35b610093600480360381019061008e91906101fd565b6101b8565b6040516100a091906102cc565b60405180910390f35b6100c360048036038101906100be919061022a565b6101d0565b005b60066020528060005260406000206000915090508060000160009054906101000a900461ffff16908060010180546100fc906103d9565b80601f0160208091040260200160405190810160405280929190818152602001828054610128906103d9565b80156101755780601f1061014a57610100808354040283529160200191610175565b820191906000526020600020905b81548152906001019060200180831161015857829003601f168201915b5050505050908060020160009054906101000a900473ffffffffffffffffffffffffffffffffffffffff16908060020160149054906101000a900460ff16905084565b60076020528060005260406000206000915090505481565b50565b6000813590506101e281610450565b92915050565b6000813590506101f781610467565b92915050565b6000602082840312156102135761021261043a565b5b6000610221848285016101d3565b91505092915050565b6000602082840312156102405761023f61043a565b5b600061024e848285016101e8565b91505092915050565b6102608161034f565b82525050565b61026f81610361565b82525050565b600061028082610333565b61028a818561033e565b935061029a8185602086016103a6565b6102a38161043f565b840191505092915050565b6102b78161036b565b82525050565b6102c681610399565b82525050565b60006020820190506102e16000830184610266565b92915050565b60006080820190506102fc60008301876102ae565b818103602083015261030e8186610275565b905061031d6040830185610257565b61032a60608301846102bd565b95945050505050565b600081519050919050565b600082825260208201905092915050565b600061035a82610379565b9050919050565b6000819050919050565b600061ffff82169050919050565b600073ffffffffffffffffffffffffffffffffffffffff82169050919050565b600060ff82169050919050565b60005b838110156103c45780820151818401526020810190506103a9565b838111156103d3576000848401525b50505050565b600060028204905060018216806103f157607f821691505b602082108114156104055761040461040b565b5b50919050565b7f4e487b7100000000000000000000000000000000000000000000000000000000600052602260045260246000fd5b600080fd5b6000601f19601f8301169050919050565b6104598161034f565b811461046457600080fd5b50565b61047081610361565b811461047b57600080fd5b5056fea2646970667358221220ab0ed883819403886203cbdc28c03d43c1980a473daa00b9000f744a130e186664736f6c63430008060033",
  "linkReferences": {},
  "deployedLinkReferences": {}
}