{
  "_format": "hh-sol-artifact-1",
  "contractName": "IPVC",
  "sourceName": "contracts/IPVC/IPVC.sol",
  "abi": [
    {
      "inputs": [
        {
          "internalType": "bytes32",
          "name": "c__0xb19585b5",
          "type": "bytes32"
        }
      ],
      "name": "c_0xb19585b5",
      "outputs": [],
      "stateMutability": "pure",
      "type": "function"
    },
    {
      "inputs": [
        {
          "internalType": "address",
          "name": "",
          "type": "address"
        }
      ],
      "name": "vaccinator_crew",
      "outputs": [
        {
          "internalType": "bytes32",
          "name": "",
          "type": "bytes32"
        }
      ],
      "stateMutability": "view",
      "type": "function"
    },
    {
      "inputs": [
        {
          "internalType": "bytes32",
          "name": "",
          "type": "bytes32"
        }
      ],
      "name": "vaccinators",
      "outputs": [
        {
          "internalType": "uint16",
          "name": "country_id",
          "type": "uint16"
        },
        {
          "internalType": "bytes",
          "name": "vaccinator_registration_id",
          "type": "bytes"
        },
        {
          "internalType": "address",
          "name": "admin",
          "type": "address"
        },
        {
          "internalType": "uint8",
          "name": "rights_to_practice",
          "type": "uint8"
        }
      ],
      "stateMutability": "view",
      "type": "function"
    }
  ],
  "bytecode": "0x608060405234801561001057600080fd5b506104a7806100206000396000f3fe608060405234801561001057600080fd5b50600436106100415760003560e01c80632ec52b0f146100465780635de44cb714610079578063dd468973146100a9575b600080fd5b610060600480360381019061005b9190610226565b6100c5565b60405161007094939291906102df565b60405180910390f35b610093600480360381019061008e91906101fd565b6101b8565b6040516100a091906102c4565b60405180910390f35b6100c360048036038101906100be9190610226565b6101d0565b005b60066020528060005260406000206000915090508060000160009054906101000a900461ffff16908060010180546100fc906103d1565b80601f0160208091040260200160405190810160405280929190818152602001828054610128906103d1565b80156101755780601f1061014a57610100808354040283529160200191610175565b820191906000526020600020905b81548152906001019060200180831161015857829003601f168201915b5050505050908060020160009054906101000a900473ffffffffffffffffffffffffffffffffffffffff16908060020160149054906101000a900460ff16905084565b60076020528060005260406000206000915090505481565b50565b6000813590506101e281610443565b92915050565b6000813590506101f78161045a565b92915050565b60006020828403121561020f57600080fd5b600061021d848285016101d3565b91505092915050565b60006020828403121561023857600080fd5b6000610246848285016101e8565b91505092915050565b61025881610347565b82525050565b61026781610359565b82525050565b60006102788261032b565b6102828185610336565b935061029281856020860161039e565b61029b81610432565b840191505092915050565b6102af81610363565b82525050565b6102be81610391565b82525050565b60006020820190506102d9600083018461025e565b92915050565b60006080820190506102f460008301876102a6565b8181036020830152610306818661026d565b9050610315604083018561024f565b61032260608301846102b5565b95945050505050565b600081519050919050565b600082825260208201905092915050565b600061035282610371565b9050919050565b6000819050919050565b600061ffff82169050919050565b600073ffffffffffffffffffffffffffffffffffffffff82169050919050565b600060ff82169050919050565b60005b838110156103bc5780820151818401526020810190506103a1565b838111156103cb576000848401525b50505050565b600060028204905060018216806103e957607f821691505b602082108114156103fd576103fc610403565b5b50919050565b7f4e487b7100000000000000000000000000000000000000000000000000000000600052602260045260246000fd5b6000601f19601f8301169050919050565b61044c81610347565b811461045757600080fd5b50565b61046381610359565b811461046e57600080fd5b5056fea2646970667358221220165ee05cf5b97151b01bddf3b38ea0f22e2f62b930a8f32f69853da5ff1078b764736f6c63430008040033",
  "linkReferences": {},
  "deployedLinkReferences": {}
}