{
  "_format": "hh-sol-artifact-1",
  "contractName": "IPVC",
  "sourceName": "contracts/IPVC/IPVC.sol",
  "abi": [
    {
      "inputs": [
        {
          "internalType": "address",
          "name": "",
          "type": "address"
        }
      ],
      "name": "vaccinator_crew",
      "outputs": [
        {
          "internalType": "bytes32",
          "name": "",
          "type": "bytes32"
        }
      ],
      "stateMutability": "view",
      "type": "function"
    },
    {
      "inputs": [
        {
          "internalType": "bytes32",
          "name": "",
          "type": "bytes32"
        }
      ],
      "name": "vaccinators",
      "outputs": [
        {
          "internalType": "uint16",
          "name": "country_id",
          "type": "uint16"
        },
        {
          "internalType": "bytes",
          "name": "vaccinator_registration_id",
          "type": "bytes"
        },
        {
          "internalType": "address",
          "name": "admin",
          "type": "address"
        },
        {
          "internalType": "uint8",
          "name": "rights_to_practice",
          "type": "uint8"
        }
      ],
      "stateMutability": "view",
      "type": "function"
    }
  ],
  "bytecode": "0x608060405234801561001057600080fd5b5061047d806100206000396000f3fe608060405234801561001057600080fd5b50600436106100365760003560e01c80632ec52b0f1461003b5780635de44cb71461006e575b600080fd5b610055600480360381019061005091906101fc565b61009e565b60405161006594939291906102b5565b60405180910390f35b610088600480360381019061008391906101d3565b610191565b604051610095919061029a565b60405180910390f35b60066020528060005260406000206000915090508060000160009054906101000a900461ffff16908060010180546100d5906103a7565b80601f0160208091040260200160405190810160405280929190818152602001828054610101906103a7565b801561014e5780601f106101235761010080835404028352916020019161014e565b820191906000526020600020905b81548152906001019060200180831161013157829003601f168201915b5050505050908060020160009054906101000a900473ffffffffffffffffffffffffffffffffffffffff16908060020160149054906101000a900460ff16905084565b60076020528060005260406000206000915090505481565b6000813590506101b881610419565b92915050565b6000813590506101cd81610430565b92915050565b6000602082840312156101e557600080fd5b60006101f3848285016101a9565b91505092915050565b60006020828403121561020e57600080fd5b600061021c848285016101be565b91505092915050565b61022e8161031d565b82525050565b61023d8161032f565b82525050565b600061024e82610301565b610258818561030c565b9350610268818560208601610374565b61027181610408565b840191505092915050565b61028581610339565b82525050565b61029481610367565b82525050565b60006020820190506102af6000830184610234565b92915050565b60006080820190506102ca600083018761027c565b81810360208301526102dc8186610243565b90506102eb6040830185610225565b6102f8606083018461028b565b95945050505050565b600081519050919050565b600082825260208201905092915050565b600061032882610347565b9050919050565b6000819050919050565b600061ffff82169050919050565b600073ffffffffffffffffffffffffffffffffffffffff82169050919050565b600060ff82169050919050565b60005b83811015610392578082015181840152602081019050610377565b838111156103a1576000848401525b50505050565b600060028204905060018216806103bf57607f821691505b602082108114156103d3576103d26103d9565b5b50919050565b7f4e487b7100000000000000000000000000000000000000000000000000000000600052602260045260246000fd5b6000601f19601f8301169050919050565b6104228161031d565b811461042d57600080fd5b50565b6104398161032f565b811461044457600080fd5b5056fea2646970667358221220bcca061f2f50f410f16dbc26df7fc0e921e77a813516fc5f09fcf4182618598364736f6c63430008040033",
  "linkReferences": {},
  "deployedLinkReferences": {}
}