{
  "_format": "hh-sol-artifact-1",
  "contractName": "VaccineToken",
  "sourceName": "contracts/VaccineToken.sol",
  "abi": [
    {
      "inputs": [],
      "stateMutability": "nonpayable",
      "type": "constructor"
    },
    {
      "anonymous": false,
      "inputs": [
        {
          "indexed": true,
          "internalType": "address",
          "name": "owner",
          "type": "address"
        },
        {
          "indexed": true,
          "internalType": "address",
          "name": "approved",
          "type": "address"
        },
        {
          "indexed": true,
          "internalType": "uint256",
          "name": "tokenId",
          "type": "uint256"
        }
      ],
      "name": "Approval",
      "type": "event"
    },
    {
      "anonymous": false,
      "inputs": [
        {
          "indexed": true,
          "internalType": "address",
          "name": "owner",
          "type": "address"
        },
        {
          "indexed": true,
          "internalType": "address",
          "name": "operator",
          "type": "address"
        },
        {
          "indexed": false,
          "internalType": "bool",
          "name": "approved",
          "type": "bool"
        }
      ],
      "name": "ApprovalForAll",
      "type": "event"
    },
    {
      "anonymous": false,
      "inputs": [
        {
          "indexed": true,
          "internalType": "address",
          "name": "from",
          "type": "address"
        },
        {
          "indexed": true,
          "internalType": "address",
          "name": "to",
          "type": "address"
        },
        {
          "indexed": true,
          "internalType": "uint256",
          "name": "tokenId",
          "type": "uint256"
        }
      ],
      "name": "Transfer",
      "type": "event"
    },
    {
      "inputs": [
        {
          "internalType": "address",
          "name": "to",
          "type": "address"
        },
        {
          "internalType": "uint256",
          "name": "tokenId",
          "type": "uint256"
        }
      ],
      "name": "approve",
      "outputs": [],
      "stateMutability": "nonpayable",
      "type": "function"
    },
    {
      "inputs": [
        {
          "internalType": "address",
          "name": "owner",
          "type": "address"
        }
      ],
      "name": "balanceOf",
      "outputs": [
        {
          "internalType": "uint256",
          "name": "",
          "type": "uint256"
        }
      ],
      "stateMutability": "view",
      "type": "function"
    },
    {
      "inputs": [
        {
          "internalType": "bytes32",
          "name": "c__0xe784d46f",
          "type": "bytes32"
        }
      ],
      "name": "c_0xe784d46f",
      "outputs": [],
      "stateMutability": "pure",
      "type": "function"
    },
    {
      "inputs": [
        {
          "internalType": "bytes32",
          "name": "c__0xedc1326a",
          "type": "bytes32"
        }
      ],
      "name": "c_0xedc1326a",
      "outputs": [],
      "stateMutability": "pure",
      "type": "function"
    },
    {
      "inputs": [
        {
          "internalType": "uint256",
          "name": "tokenId",
          "type": "uint256"
        }
      ],
      "name": "getApproved",
      "outputs": [
        {
          "internalType": "address",
          "name": "",
          "type": "address"
        }
      ],
      "stateMutability": "view",
      "type": "function"
    },
    {
      "inputs": [
        {
          "internalType": "address",
          "name": "owner",
          "type": "address"
        },
        {
          "internalType": "address",
          "name": "operator",
          "type": "address"
        }
      ],
      "name": "isApprovedForAll",
      "outputs": [
        {
          "internalType": "bool",
          "name": "",
          "type": "bool"
        }
      ],
      "stateMutability": "view",
      "type": "function"
    },
    {
      "inputs": [],
      "name": "name",
      "outputs": [
        {
          "internalType": "string",
          "name": "",
          "type": "string"
        }
      ],
      "stateMutability": "view",
      "type": "function"
    },
    {
      "inputs": [
        {
          "internalType": "uint256",
          "name": "tokenId",
          "type": "uint256"
        }
      ],
      "name": "ownerOf",
      "outputs": [
        {
          "internalType": "address",
          "name": "",
          "type": "address"
        }
      ],
      "stateMutability": "view",
      "type": "function"
    },
    {
      "inputs": [
        {
          "internalType": "address",
          "name": "from",
          "type": "address"
        },
        {
          "internalType": "address",
          "name": "to",
          "type": "address"
        },
        {
          "internalType": "uint256",
          "name": "tokenId",
          "type": "uint256"
        }
      ],
      "name": "safeTransferFrom",
      "outputs": [],
      "stateMutability": "nonpayable",
      "type": "function"
    },
    {
      "inputs": [
        {
          "internalType": "address",
          "name": "from",
          "type": "address"
        },
        {
          "internalType": "address",
          "name": "to",
          "type": "address"
        },
        {
          "internalType": "uint256",
          "name": "tokenId",
          "type": "uint256"
        },
        {
          "internalType": "bytes",
          "name": "_data",
          "type": "bytes"
        }
      ],
      "name": "safeTransferFrom",
      "outputs": [],
      "stateMutability": "nonpayable",
      "type": "function"
    },
    {
      "inputs": [
        {
          "internalType": "address",
          "name": "operator",
          "type": "address"
        },
        {
          "internalType": "bool",
          "name": "approved",
          "type": "bool"
        }
      ],
      "name": "setApprovalForAll",
      "outputs": [],
      "stateMutability": "nonpayable",
      "type": "function"
    },
    {
      "inputs": [
        {
          "internalType": "bytes4",
          "name": "interfaceId",
          "type": "bytes4"
        }
      ],
      "name": "supportsInterface",
      "outputs": [
        {
          "internalType": "bool",
          "name": "",
          "type": "bool"
        }
      ],
      "stateMutability": "view",
      "type": "function"
    },
    {
      "inputs": [],
      "name": "symbol",
      "outputs": [
        {
          "internalType": "string",
          "name": "",
          "type": "string"
        }
      ],
      "stateMutability": "view",
      "type": "function"
    },
    {
      "inputs": [
        {
          "internalType": "uint256",
          "name": "tokenId",
          "type": "uint256"
        }
      ],
      "name": "tokenURI",
      "outputs": [
        {
          "internalType": "string",
          "name": "",
          "type": "string"
        }
      ],
      "stateMutability": "view",
      "type": "function"
    },
    {
      "inputs": [
        {
          "internalType": "address",
          "name": "from",
          "type": "address"
        },
        {
          "internalType": "address",
          "name": "to",
          "type": "address"
        },
        {
          "internalType": "uint256",
          "name": "tokenId",
          "type": "uint256"
        }
      ],
      "name": "transferFrom",
      "outputs": [],
      "stateMutability": "nonpayable",
      "type": "function"
    },
    {
      "inputs": [
        {
          "internalType": "address",
          "name": "",
          "type": "address"
        }
      ],
      "name": "vaccinators",
      "outputs": [
        {
          "internalType": "bytes32",
          "name": "",
          "type": "bytes32"
        }
      ],
      "stateMutability": "view",
      "type": "function"
    },
    {
      "inputs": [
        {
          "internalType": "bytes32",
          "name": "",
          "type": "bytes32"
        }
      ],
      "name": "vaccineTokens",
      "outputs": [
        {
          "internalType": "bytes",
          "name": "ipfsHash",
          "type": "bytes"
        },
        {
          "internalType": "bytes32",
          "name": "certificate_id",
          "type": "bytes32"
        },
        {
          "internalType": "bytes32",
          "name": "beneficiary_id",
          "type": "bytes32"
        },
        {
          "internalType": "uint16",
          "name": "country_id",
          "type": "uint16"
        },
        {
          "internalType": "bytes32",
          "name": "ipvc_beneficiary_id",
          "type": "bytes32"
        },
        {
          "internalType": "bytes32",
          "name": "ipvc_vaccinator_id",
          "type": "bytes32"
        }
      ],
      "stateMutability": "view",
      "type": "function"
    }
  ],
  "bytecode": "0x60806040523480156200001157600080fd5b506040518060400160405280600c81526020017f56616363696e65546f6b656e00000000000000000000000000000000000000008152506040518060400160405280600281526020017f5654000000000000000000000000000000000000000000000000000000000000815250620000b27f6aeba3c0b5109b9f8a5dd80c1713efcf64e1e426ac505e03eb2f79b74e027f5960001b620001f060201b60201c565b620000e67f9defbc71f646bc6e1cf598792cf36b501626ba58fa909f1162efdf1b923a9dc860001b620001f060201b60201c565b6200011a7fd9c04b3ede1bc59da5b7c41e2e5cb7d6234f924c9ab75e36d0e068ff5040873460001b620001f060201b60201c565b816000908051906020019062000132929190620001f6565b50620001677f31c31820d6bed70d6a33c0b421a46c07685ff7e5912f0a6a9c4b7197484b0b7060001b620001f060201b60201c565b6200019b7f828ee2bff549a6682bc2ce234915ac5866990c41cb5d7ba6a5071d82643501ec60001b620001f060201b60201c565b8060019080519060200190620001b3929190620001f6565b505050620001ea7fac74548a9acf4acae3953cb4c30773de8e6c5c699f893aac3724f42e4a40aa0d60001b620001f360201b60201c565b6200030b565b50565b50565b8280546200020490620002a6565b90600052602060002090601f01602090048101928262000228576000855562000274565b82601f106200024357805160ff191683800117855562000274565b8280016001018555821562000274579182015b828111156200027357825182559160200191906001019062000256565b5b50905062000283919062000287565b5090565b5b80821115620002a257600081600090555060010162000288565b5090565b60006002820490506001821680620002bf57607f821691505b60208210811415620002d657620002d5620002dc565b5b50919050565b7f4e487b7100000000000000000000000000000000000000000000000000000000600052602260045260246000fd5b614047806200031b6000396000f3fe608060405234801561001057600080fd5b506004361061010b5760003560e01c80636352211e116100a2578063a22cb46511610071578063a22cb465146102e1578063b74281f1146102fd578063b88d4fde14610319578063c87b56dd14610335578063e985e9c5146103655761010b565b80636352211e1461024757806370a082311461027757806395d89b41146102a757806398f1112f146102c55761010b565b80630e92c8c5116100de5780630e92c8c5146101aa57806323b872dd146101da57806342842e0e146101f65780634a17f101146102125761010b565b806301ffc9a71461011057806306fdde0314610140578063081812fc1461015e578063095ea7b31461018e575b600080fd5b61012a60048036038101906101259190613251565b610395565b60405161013791906135e9565b60405180910390f35b6101486104fb565b6040516101559190613687565b60405180910390f35b610178600480360381019061017391906132a3565b610611565b6040516101859190613582565b60405180910390f35b6101a860048036038101906101a391906131ec565b6107ca565b005b6101c460048036038101906101bf9190613081565b610b1e565b6040516101d19190613604565b60405180910390f35b6101f460048036038101906101ef91906130e6565b610b36565b005b610210600480360381019061020b91906130e6565b610cca565b005b61022c60048036038101906102279190613228565b610d6e565b60405161023e9695949392919061361f565b60405180910390f35b610261600480360381019061025c91906132a3565b610e40565b60405161026e9190613582565b60405180910390f35b610291600480360381019061028c9190613081565b61107f565b60405161029e9190613829565b60405180910390f35b6102af61126c565b6040516102bc9190613687565b60405180910390f35b6102df60048036038101906102da9190613228565b611382565b005b6102fb60048036038101906102f691906131b0565b611385565b005b61031760048036038101906103129190613228565b611692565b005b610333600480360381019061032e9190613135565b611695565b005b61034f600480360381019061034a91906132a3565b61182b565b60405161035c9190613687565b60405180910390f35b61037f600480360381019061037a91906130aa565b611a5e565b60405161038c91906135e9565b60405180910390f35b60006103c37f47ddb580117d0667c11a754c348b2d723efe34641ee0dbed7135016bbaa8af3060001b611382565b6103ef7fd26093288d7894956559cf2de4b3402e2bb359bfabf901577305f62de0a33e9b60001b611382565b61041b7f0f61506e6c66214f420470f8cc905833f37da3b8043973bf95f0442666eef17a60001b611382565b7f80ac58cd000000000000000000000000000000000000000000000000000000007bffffffffffffffffffffffffffffffffffffffffffffffffffffffff1916827bffffffffffffffffffffffffffffffffffffffffffffffffffffffff191614806104e457507f5b5e139f000000000000000000000000000000000000000000000000000000007bffffffffffffffffffffffffffffffffffffffffffffffffffffffff1916827bffffffffffffffffffffffffffffffffffffffffffffffffffffffff1916145b806104f457506104f382611b76565b5b9050919050565b60606105297f8c4935b85bb01dc195328c277e2c21c74212e60c9c9417282532f6600a4ba30f60001b611382565b6105557f1e12455970d16ca39e63fc1fc1722e7db42ade952e5028c9f8abb44f389a757860001b611382565b6105817fdddbf271ef41e2b61e76cfdf93a626dc25a314ebb2e3e40c4ea5ee9dc9c1e6ad60001b611382565b6000805461058e90613a66565b80601f01602080910402602001604051908101604052809291908181526020018280546105ba90613a66565b80156106075780601f106105dc57610100808354040283529160200191610607565b820191906000526020600020905b8154815290600101906020018083116105ea57829003601f168201915b5050505050905090565b600061063f7f1827e584c6dd553aad2771bfef68b963fe28f633f79afad9a39196f576e57b6460001b611382565b61066b7f315428852f725b1e8c887d4b93e9b99b8ab944e2148ddcc57df8758b885fbfa660001b611382565b6106977f168b32863b7eae7b7568583947b76d3201e7101c4102f151b14cbc3aad5b208560001b611382565b6106c37f7a8b89539549bea52c6338357d201151d690a08ea7e0bf3eed5f8ed162a58b1b60001b611382565b6106cc82611be0565b61070b576040517f08c379a000000000000000000000000000000000000000000000000000000000815260040161070290613789565b60405180910390fd5b6107377f141cbf3e9a6da91df252497dc0f44458823707cf08942edd7955b1722dc7055660001b611382565b6107637f91314c5516b54b0816dfa534556526d401e08b5515cc39b940254831161d354d60001b611382565b61078f7f5d4a62610c767348e88e29764fe37856b6f775a1fcd4ac5e8a7e8373073430db60001b611382565b6004600083815260200190815260200160002060009054906101000a900473ffffffffffffffffffffffffffffffffffffffff169050919050565b6107f67ffea9446fea10a00a3b1aab6ab93bd4e9e98ffa1b9d6c4de58f45c7e0223fcfc560001b611382565b6108227fdd55a9acb86ab55083496d74008ab8643a1d0e36a51729272b4833d2ab83e63560001b611382565b61084e7f28f90f3b179d468fef6b405379d37f90b7dd7af083a4e73f61d6e5342b4b1fff60001b611382565b600061085982610e40565b90506108877f3b3911558ff5de48dc2e7fc275ee2114a0e4100ec2b8726aa5f3650dd39ec17d60001b611382565b6108b37ffdc8d91f3d0c07dbc02557b53364c0b3c97171306b8063375f8424e7bd6159fe60001b611382565b6108df7f8fb8e5023f60a6bbcdf26f4ce8e979298d03deac360b436958043ec48d94fe8660001b611382565b8073ffffffffffffffffffffffffffffffffffffffff168373ffffffffffffffffffffffffffffffffffffffff16141561094e576040517f08c379a0000000000000000000000000000000000000000000000000000000008152600401610945906137e9565b60405180910390fd5b61097a7fd804596a94818a944cc993bcd2781496d22556a1ab699f9eccc045d10b0ab4ee60001b611382565b6109a67ffafc9a820ce72ddf9d57188dcd20539cba921eae182add6a6ccfe1fc820b17d460001b611382565b6109d27f7545ad133543fbfe6a40e55c65a8e9fcddedbeaf41f72a872bb3ea06ca28f7eb60001b611382565b6109fe7fab65cb18f50a5cef5d9408391608219913c1d7c7beab7d0bcfdc70307114d6c460001b611382565b8073ffffffffffffffffffffffffffffffffffffffff16610a1d611cd1565b73ffffffffffffffffffffffffffffffffffffffff161480610a4c5750610a4b81610a46611cd1565b611a5e565b5b610a8b576040517f08c379a0000000000000000000000000000000000000000000000000000000008152600401610a8290613729565b60405180910390fd5b610ab77ff3c034b7969d676429a1e808a8ba39b315ede2dc38d5098f568acf86aac0b10b60001b611382565b610ae37f1677e3c59271b1658591e29b9c30ffdc4ff1aa3a8318e56b8bb8a4b8e6ea9fb460001b611382565b610b0f7f1ff2f1e88f61cab1ba0b20dd88221206932fc773776c76f26093efe6a49b7a1560001b611382565b610b198383611cd9565b505050565b60076020528060005260406000206000915090505481565b610b627fd578ef65dbfdde877983f75183761010903cc93a1ccf0756ef70067c8b6e109f60001b611382565b610b8e7fab134bce2c6a0486e3f06504b0b309ce483428c91a0b95059e28680e1b6dc25160001b611382565b610bba7f649cf62f5583d01a17cd4e0557ab084d8c8ff10dcd039ed66df1d41a5d2f99b160001b611382565b610be67faffcaf9890f9be32a833e128fdbf9bf60f8c67b95465780fc0500dc28b609f5d60001b611382565b610bf7610bf1611cd1565b82611e6e565b610c36576040517f08c379a0000000000000000000000000000000000000000000000000000000008152600401610c2d90613809565b60405180910390fd5b610c627f4a7b097b1a66fe0aa5851ad84fdf7701283026db369252fa79afb1df9476bfbd60001b611382565b610c8e7f0e4f4d553df0df7808d207d67fda19bd7828e3d7eefe4136856e14b2426909ea60001b611382565b610cba7f9111ca81da309cd93b6bfdaca7fae73ea71c22b23f0f0aa4d15acbcbd05bd48860001b611382565b610cc58383836120d8565b505050565b610cf67f07d2ca4cd53af481ee63ea49a28c11bd0464e8f1891cad8d293bf492411ba2c760001b611382565b610d227f93618e76dbb3d477951dfc28e280aae306855a07132b0cab327b0c548b9385d960001b611382565b610d4e7fa694b0c11ca1d3b798c810d0298f91993ab85deaa61b66c2d1ed2f993d4bd70860001b611382565b610d6983838360405180602001604052806000815250611695565b505050565b6006602052806000526040600020600091509050806000018054610d9190613a66565b80601f0160208091040260200160405190810160405280929190818152602001828054610dbd90613a66565b8015610e0a5780601f10610ddf57610100808354040283529160200191610e0a565b820191906000526020600020905b815481529060010190602001808311610ded57829003601f168201915b5050505050908060010154908060020154908060030160009054906101000a900461ffff16908060040154908060050154905086565b6000610e6e7f42e1a975f76bb9f58efb18fcf259a0aa1d33dd9d20cb38e3e457e6cb9e4ca5ad60001b611382565b610e9a7f331f11adcdd8205a85ecc05bfd100ed8fcc4e83329494921633b49ec2ec90c5460001b611382565b610ec67faf4f76cb2727d80126718fb8de5517c0c2af442e32afa57b6466a11368b9b17360001b611382565b60006002600084815260200190815260200160002060009054906101000a900473ffffffffffffffffffffffffffffffffffffffff169050610f2a7f2c1d589e37394411f4ed92613dadf4a6f87729432299cb995bb56b4eab0642a260001b611382565b610f567f4b8304d65b64a21078503c88a5d7fe71c3d3e7b9f6d41ca192a3213e9f92f0a060001b611382565b610f827fc84663a1dc598080e44d5c3747f4b963db625cb328b491d0d77951783c57082960001b611382565b600073ffffffffffffffffffffffffffffffffffffffff168173ffffffffffffffffffffffffffffffffffffffff161415610ff2576040517f08c379a0000000000000000000000000000000000000000000000000000000008152600401610fe990613769565b60405180910390fd5b61101e7fc57584526276c080d9e20a48d0f3f2217f4032269f7865a792884e9d76d0b82960001b611382565b61104a7fc70984790aeb5e33b93b4140e9050234436b5fe7a321f0093ddd5838b594729860001b611382565b6110767f29d1a812661e40617caf7eb37bd0594d69cd7e61d5d643e42d072ec61d506e7c60001b611382565b80915050919050565b60006110ad7fbcf3d57a4948bc1e0143b7ec5f0a3ddfd10ded02ad09f558ca2edbe73eaadbbc60001b611382565b6110d97fdd7f68d11dafee19cd4459015acbe8789a26fed5780c1ea394f988de00fd09e360001b611382565b6111057f13fd4e19979f3124f2411261f9348c9ecc098be3c348e7c7985b67a5323c110a60001b611382565b6111317fb6869ee5a9abc2e35f11154a2675c011ffc36e7338ed1c0020e4e1c81c8ba36460001b611382565b600073ffffffffffffffffffffffffffffffffffffffff168273ffffffffffffffffffffffffffffffffffffffff1614156111a1576040517f08c379a000000000000000000000000000000000000000000000000000000000815260040161119890613749565b60405180910390fd5b6111cd7fc8afc3fe568910fae96040bb98689e6fbadf38c6b1ef5578e7cf63378995c90360001b611382565b6111f97f71471a0005625f767cee763bd10469c5bb2528098ef11620bdd811f7cb54d14460001b611382565b6112257ff7daedb8bef0b80582d8f61d426cda8ea37516ba03a34036f646d65c0e764b6d60001b611382565b600360008373ffffffffffffffffffffffffffffffffffffffff1673ffffffffffffffffffffffffffffffffffffffff168152602001908152602001600020549050919050565b606061129a7ffd497cff94bf550dc43cdec07a4222c69aaff674c61339f3d74c1c63f3f7b72260001b611382565b6112c67f4e32b6348a71f607914c83496bc733e7dbab7ff2a0f7e01db1dc915c7f3bfd4960001b611382565b6112f27ff3a38e77e0943c9eb58b08c3198a8f334964f45f3af7771358bc497eecdc956560001b611382565b600180546112ff90613a66565b80601f016020809104026020016040519081016040528092919081815260200182805461132b90613a66565b80156113785780601f1061134d57610100808354040283529160200191611378565b820191906000526020600020905b81548152906001019060200180831161135b57829003601f168201915b5050505050905090565b50565b6113b17fa3a31ba2a169f22fd397b90f6ce18439ce50802e1850bf6a24fa05a24761dfe760001b611382565b6113dd7f0c7654d4b1501cad4da8cec963d50a82ee1b2b74a654b6a419c839449691848c60001b611382565b6114097f862e91f24da37c57d8d24478e4b195480569fc6eca7851053ff51e79d1f5222860001b611382565b6114357fa3658c5d416c22f14cbcbd604ef5bbd6f6d7cc04e965481b14cd073fb8d08a9560001b611382565b61143d611cd1565b73ffffffffffffffffffffffffffffffffffffffff168273ffffffffffffffffffffffffffffffffffffffff1614156114ab576040517f08c379a00000000000000000000000000000000000000000000000000000000081526004016114a2906136e9565b60405180910390fd5b6114d77ff63eefbc2c814d3e5e328cd8f99d09305021c4d4ce1b5988fd92be39186b57d360001b611382565b6115037f914b128c9b1b28aeeb4e2b821d49158da2d60412f740e9da4e62b1774cfb405e60001b611382565b61152f7fe3fbb3a23c51ef24c5bd6fa55325554e76c7d30b4cef226d0c71fcd0d496401660001b611382565b806005600061153c611cd1565b73ffffffffffffffffffffffffffffffffffffffff1673ffffffffffffffffffffffffffffffffffffffff16815260200190815260200160002060008473ffffffffffffffffffffffffffffffffffffffff1673ffffffffffffffffffffffffffffffffffffffff16815260200190815260200160002060006101000a81548160ff0219169083151502179055506115f67f55fe7cbb15b65b93c7b61d443c1ccc5d714db38bbd53d67978d8341485b8cab960001b611382565b6116227f9c37565e5ba9da9e0702c93a3e1c47b6b050ccfaa7879aa087ec944e04df876460001b611382565b8173ffffffffffffffffffffffffffffffffffffffff16611641611cd1565b73ffffffffffffffffffffffffffffffffffffffff167f17307eab39ab6107e8899845ad3d59bd9653f200f220920489ca2b5937696c318360405161168691906135e9565b60405180910390a35050565b50565b6116c17f7491f980b27ae2f3349ff685d8711db9e8621db50f2fd6fd49753c9ea9cfdb5c60001b611382565b6116ed7fd543427256921ecfe9d7b08a53d587a490b6bd3b5224555b96fea46de0b14d1860001b611382565b6117197f479955e70cfc0426ce4eacae23a8cf5a3ad80dbf1080e2aea74983ab3b5f50c860001b611382565b6117457f2d65dc8886b0159815ca4bff1563d609e10065ca9b314777e9195273d2bc60d460001b611382565b611756611750611cd1565b83611e6e565b611795576040517f08c379a000000000000000000000000000000000000000000000000000000000815260040161178c90613809565b60405180910390fd5b6117c17f9acdc9c84c198618e90e34723fb2913b27f7bdd278a5e8b33b85b25829e0e97360001b611382565b6117ed7fe6a55c41ab64e02cfe3447aa1ca828270e1b759ef9474e63272ab9b807a7d57160001b611382565b6118197f2d156354dac921722837253a2af82e05aa7dedf7bf04fb391afb0d2bdd5331bd60001b611382565b611825848484846126d0565b50505050565b60606118597fe23f4ed7effcc424244926d6628c8d7b620b7e120ae184e5f0a72540ae1df0be60001b611382565b6118857f3a2506c9d72728e8905d5cc9e1df5659a24d9d4b611faea97c40084642bebccb60001b611382565b6118b17f256d02d3b2e56f07ef4b2651eb03885e6e7799778540f09b1819350442c543fa60001b611382565b6118dd7fc2f64e4b2b5be7139911e2439380c5be6afb514546f543fd95ad70d779723c8e60001b611382565b6118e682611be0565b611925576040517f08c379a000000000000000000000000000000000000000000000000000000000815260040161191c906137c9565b60405180910390fd5b6119517f1650f46feab19d22092ff0857de88596c04c1ccd3bf5444e3907bef5089114af60001b611382565b61197d7fad8fcbbaa9776e8c7d5e0ebd2713e6efe850ff87047de1ab0c321dbeee0ca6fc60001b611382565b6119a97fd99f0f8e94890eb38bcb332bb627ec6411803c3fd8a92046d1531ddbbe218c0b60001b611382565b60006119b3612860565b90506119e17f7e2c7d977948cf92c0b0fcc7ab5b4f5da4cd8a8cf16158e40e6468ad215cb3e560001b611382565b611a0d7f0af56e2621134c7b99a12ecbec8e03ba57e6ac4b65c18c149d2e6b789e35313360001b611382565b6000815111611a2b5760405180602001604052806000815250611a56565b80611a35846128fb565b604051602001611a4692919061355e565b6040516020818303038152906040525b915050919050565b6000611a8c7f0afd240ec4ada26392122a88ddb4e79966bd72d2adfe4f3ca8c2e3f733bff1ac60001b611382565b611ab87f75a8c391562848343dfc3e5477c83e331018a892de73fa59165c0ed5f11dfbb560001b611382565b611ae47ff590d9b60b6ef96f71605397806e4c781d3898ca248ec90639ea2c70db691cab60001b611382565b600560008473ffffffffffffffffffffffffffffffffffffffff1673ffffffffffffffffffffffffffffffffffffffff16815260200190815260200160002060008373ffffffffffffffffffffffffffffffffffffffff1673ffffffffffffffffffffffffffffffffffffffff16815260200190815260200160002060009054906101000a900460ff16905092915050565b60007f01ffc9a7000000000000000000000000000000000000000000000000000000007bffffffffffffffffffffffffffffffffffffffffffffffffffffffff1916827bffffffffffffffffffffffffffffffffffffffffffffffffffffffff1916149050919050565b6000611c0e7f14b6dc363571bcacbb80a4ec61f76c5e5c56feda116c71789fd8f11e9d1b222160001b611382565b611c3a7ffac8c797f7feb47ba5f80b4efd9e67607750e599f65c5b775089687f667e62ef60001b611382565b611c667fba60798dc58c30ca2d339e36c20a49584c241ee3235f7d5bc1c5da33edddbfab60001b611382565b600073ffffffffffffffffffffffffffffffffffffffff166002600084815260200190815260200160002060009054906101000a900473ffffffffffffffffffffffffffffffffffffffff1673ffffffffffffffffffffffffffffffffffffffff1614159050919050565b600033905090565b611d057f2ea853659caff3b0e26fff5c46df4b866f0ac09dba3d93bf18cb5847287e872460001b611382565b611d317fdea50187207027ddef73a0c31a309ccc7bb2a89fcadff549710eeffeca04c7a060001b611382565b611d5d7f1173e6cdcd866b658ffdf2ad9464e8513bbd4c7b00d36f433cbd364c23ccb77860001b611382565b816004600083815260200190815260200160002060006101000a81548173ffffffffffffffffffffffffffffffffffffffff021916908373ffffffffffffffffffffffffffffffffffffffff160217905550611ddb7ff83a752baf8e008ef4ba9f27ae1117945fde69e645d33256c6816a0037f5574f60001b611382565b611e077fbceeddf5d3d69e49bccc3a0c0e8a680ed4500df1e3e4842051b4335354fcaf3c60001b611382565b808273ffffffffffffffffffffffffffffffffffffffff16611e2883610e40565b73ffffffffffffffffffffffffffffffffffffffff167f8c5be1e5ebec7d5bd14f71427d1e84f3dd0314c0f7b2291e5b200ac8c7c3b92560405160405180910390a45050565b6000611e9c7fd3f17f7f86bce4dafa752ae9fb69a9b6132e180eec4d62dcb3a40697d16fafd360001b611382565b611ec87fc55478f8dbd88b7c071cb05cc4811638f5e175f5351119727bbf6a96e4300e2360001b611382565b611ef47fb1caed4f59d8d2fbb57bf720677e45cf55b205e4312eadc1097e892a8d00ece360001b611382565b611f207fd3c8479f6751e26ac99617f5b2d6e6e7e9e3908f71684ef666f6b2f02478b7ef60001b611382565b611f2982611be0565b611f68576040517f08c379a0000000000000000000000000000000000000000000000000000000008152600401611f5f90613709565b60405180910390fd5b611f947fe36a74921da8bf8615353c2804c3013d27b91ca8d4fbbfdc6bd333fd38bbe3f460001b611382565b611fc07f814b96eb6793913d8d7c9532203ce2abe10a33c824fc1d7f97ac533ca593d66f60001b611382565b611fec7f343090315034402be552e428b5847b86ca3c36cfd0e192038e0a24bacd10e28d60001b611382565b6000611ff783610e40565b90506120257f98a6f586b48b3bb04464bdae4690a73c0d271386520db703253e90d1bebca8d360001b611382565b6120517f2d632afbf4010bb7b4ae6beb4311b49c2fdf721c4774655660d27481b7d8f12d60001b611382565b8073ffffffffffffffffffffffffffffffffffffffff168473ffffffffffffffffffffffffffffffffffffffff1614806120be57508373ffffffffffffffffffffffffffffffffffffffff166120a684610611565b73ffffffffffffffffffffffffffffffffffffffff16145b806120cf57506120ce8185611a5e565b5b91505092915050565b6121047fc78fc7f94a6d481c3f29bd5d3818843fcb1718e7dd646fc5385405744cd6b1d360001b611382565b6121307f18e19a9e92fd32f341f108a070484a27a76e97891faf104e324c3f15ebac3a9460001b611382565b61215c7f8f11b91d59060b17a22729a43fc7009893a5b8275b3d20182b5d2cd222d82f9f60001b611382565b6121887f9181ad9f50e241e806f592c0729e27d8398aec3671e7ef210e9dfc14ab34741660001b611382565b8273ffffffffffffffffffffffffffffffffffffffff166121a882610e40565b73ffffffffffffffffffffffffffffffffffffffff16146121fe576040517f08c379a00000000000000000000000000000000000000000000000000000000081526004016121f5906137a9565b60405180910390fd5b61222a7fdf09bb21d9c0ccd7dffd77c8f2e10d29b40a132e58822a51e69a070db83d010760001b611382565b6122567f317513a8c4d0934dad205598f48d0dad62e9767ba25969ea9266948676bbe7a160001b611382565b6122827f4a36e6ee1e2b0789d25dfa8a72ab5af678a7b7602b73306f99746112d8aedac260001b611382565b6122ae7f15e36972138a6ea319a93713c050740a59df9a58a3f36b603c3a88562630ab1c60001b611382565b600073ffffffffffffffffffffffffffffffffffffffff168273ffffffffffffffffffffffffffffffffffffffff16141561231e576040517f08c379a0000000000000000000000000000000000000000000000000000000008152600401612315906136c9565b60405180910390fd5b61234a7f5ca7be8bd271f78bb761d4d090e7c66688cfe23e7108f8e8a093a0d107154cbc60001b611382565b6123767fa1fe706dcf39e39db4e8b5822fd8f1162c0cfd3e74dbb76f5556871b34adfcff60001b611382565b6123a27f8cfb7459b13742d3d6d737a31d69544a451c064f100561b517d6deebadc4e34360001b611382565b6123ad838383612aa8565b6123d97f737da5afd6755ba66594b405c7ba0a34a964084bbd9a7da3feb4f67872b1bd6860001b611382565b6124057f1c1c057feab61b2a2576cee3d69b7d4837622523e3ff08f2a0cc2fc7e1d64ca260001b611382565b612410600082611cd9565b61243c7f0fb57949c1b384c1b3e96d27c96ecf109ca54e93349a07e06197b81b0c2359d960001b611382565b6124687f4e8cd8bec21cc4653793f3b450cf31252cc4b44899b45e5213c3e4ad5789795360001b611382565b6001600360008573ffffffffffffffffffffffffffffffffffffffff1673ffffffffffffffffffffffffffffffffffffffff16815260200190815260200160002060008282546124b89190613964565b925050819055506124eb7f5cc87b59b4d05a0c2bbd5bb75e89f5a78d32ff0bd0a3daab0ac975d9a1f5293660001b611382565b6125177f224116c5d598a8e08c1a2dc1a963604e05afaccfa95cfafc585f335b37404cf360001b611382565b6001600360008473ffffffffffffffffffffffffffffffffffffffff1673ffffffffffffffffffffffffffffffffffffffff168152602001908152602001600020600082825461256791906138dd565b9250508190555061259a7f58e931d3d59d3e80a227b25d8019e2f942e6cb9d57de1b4d753a84db4b8bd41060001b611382565b6125c67f16eb7943649a43eba0d942b7fca034529b45373a176f089098c5835325e5405660001b611382565b816002600083815260200190815260200160002060006101000a81548173ffffffffffffffffffffffffffffffffffffffff021916908373ffffffffffffffffffffffffffffffffffffffff1602179055506126447f892d84e04e5db03e511e723a1eacef76c9fbf79ce3548ebdc3a533cfb204d34360001b611382565b6126707f7fac5433aed1bb1d42f14dbcf884f4b6e84ebe32ca68c12a6a86bd71796071dc60001b611382565b808273ffffffffffffffffffffffffffffffffffffffff168473ffffffffffffffffffffffffffffffffffffffff167fddf252ad1be2c89b69c2b068fc378daa952ba7f163c4a11628f55a4df523b3ef60405160405180910390a4505050565b6126fc7fc7a302eaf6ca14c063e5ac66f254894d34484c0db5b04f312cfb2011cd36f1f860001b611382565b6127287f63ac46e44195980432d3dcf55d44b8aab385ac9e5c564a0b7885326017a9d32f60001b611382565b6127547f47de8cb4909a3a9e54772d6b6996823dad4047d36f1465bd7da42fd1edf8225160001b611382565b61275f8484846120d8565b61278b7f2cee920f5b80ef5995d0c082f088fe633b2c1a9dbf10ca8a606dd461c8af2a4760001b611382565b6127b77f38d5fc489742d1192b8155b8db93fe4fd100b60dfcf46b55422df1f2fe7e23d560001b611382565b6127e37f5f8b07e4f33aa1a66e31ae77e8d5538aac852d68de576ed7441b47e47502d8e560001b611382565b6127ef84848484612ad9565b61282e576040517f08c379a0000000000000000000000000000000000000000000000000000000008152600401612825906136a9565b60405180910390fd5b61285a7f1f0f07641600b3294085d7c04592830613e475853ac8e0ba9453513989092f7760001b611382565b50505050565b606061288e7fe6e62fd49054d6f135101450fd78aa19df5c66be1a58f4c5b7d95240b8d7e5cd60001b611382565b6128ba7f5737fbf0a7404785797cbf0bbdb43e56806a0a9d039f9fe2ac688d7d5c29a2db60001b611382565b6128e67f634b368443676da5e0a3df577e779e7881df2ccf03f56615fdd422b8a4b9ab3060001b611382565b60405180602001604052806000815250905090565b60606000821415612943576040518060400160405280600181526020017f30000000000000000000000000000000000000000000000000000000000000008152509050612aa3565b600082905060005b6000821461297557808061295e90613ac9565b915050600a8261296e9190613933565b915061294b565b60008167ffffffffffffffff8111156129b7577f4e487b7100000000000000000000000000000000000000000000000000000000600052604160045260246000fd5b6040519080825280601f01601f1916602001820160405280156129e95781602001600182028036833780820191505090505b5090505b60008514612a9c57600182612a029190613964565b9150600a85612a119190613b12565b6030612a1d91906138dd565b60f81b818381518110612a59577f4e487b7100000000000000000000000000000000000000000000000000000000600052603260045260246000fd5b60200101907effffffffffffffffffffffffffffffffffffffffffffffffffffffffffffff1916908160001a905350600a85612a959190613933565b94506129ed565b8093505050505b919050565b612ad47f3eac647962e411bc0ee7a2fe3d4c21b453232fdba0de60c1ab8a86c530164dd160001b611382565b505050565b6000612b077f29b7bc1f8f7df03b40f69ff0a5f32361630d8b65cbc19e9c4397ee08985c984c60001b611382565b612b337fd56b1d183952c3cdfb3b59ff8992aa85aee73061a4ce0c011c9c83f4a65894c860001b611382565b612b5f7f548aca03dc91cc82acac6c06ef0678a2480dec05c784641637f609b66e1ebfbf60001b611382565b612b7e8473ffffffffffffffffffffffffffffffffffffffff16612f88565b15612ef757612baf7f0bbb436ace3fc92910b9e180e4a5965634b61fca2d49c0b0ee1a846cf2fac97f60001b611382565b612bdb7f7ab22d251ea3be32b89e529e787a414ff1c5b9bee75a768965fb7a766d89cb6a60001b611382565b612c077f7a117378cde1ed75be4e21f9d5593eef809d9cbf46054d06fe4871648025375760001b611382565b8373ffffffffffffffffffffffffffffffffffffffff1663150b7a02612c2b611cd1565b8786866040518563ffffffff1660e01b8152600401612c4d949392919061359d565b602060405180830381600087803b158015612c6757600080fd5b505af1925050508015612c9857506040513d601f19601f82011682018060405250810190612c95919061327a565b60015b612e4f573d8060008114612cc8576040519150601f19603f3d011682016040523d82523d6000602084013e612ccd565b606091505b50612cfa7f0628c21a106464fbe0892d45f65948f20d73a98e677a55bf7b3c243dc03d17dc60001b611382565b612d267f9e07e7d2690ed5fce2c91fcd8f1b8412d36055fe1f5a853891e441ede327606660001b611382565b600081511415612def57612d5c7f9db7713cf8238f53e42880f5f22f89e0cb0cad9429309dc68798847906f9570460001b611382565b612d887fa052a97548ac27b07a9a4e88a0ff044775b4d5cd758b7484b8cac828745147ab60001b611382565b612db47f9a6bf052521c329501f49b907fac51900e8c625a6c1abed9d5b8e33ed11e5c3360001b611382565b6040517f08c379a0000000000000000000000000000000000000000000000000000000008152600401612de6906136a9565b60405180910390fd5b612e1b7f265f88c722f2929fadcff89bfd8319c2af4e265c315cfa0e4d1be8119807fd3260001b611382565b612e477f13232ea34caf30d108d13c91fb2668d22fc6b088663a9619282e58dd8b5d1df360001b611382565b805181602001fd5b612e7b7ff9c6b8a350054ff320b20d2ab933c99d25a9ba211e21320efd1cdf51e8d58abf60001b611382565b612ea77fd6e693a436ec7a569b8abcd1e9611ee8541bab64e0b0ac59bf2d9ba2bbbbdb2260001b611382565b63150b7a0260e01b7bffffffffffffffffffffffffffffffffffffffffffffffffffffffff1916817bffffffffffffffffffffffffffffffffffffffffffffffffffffffff191614915050612f80565b612f237fdc1205a3231145ebf91aaead931b451b5c6cccfb4422003fe989f77ff17324a560001b611382565b612f4f7f2936ca4e2c9c28cddf4ef20279e7c5189dbcfba2ff0cda0f9126ccfe0dea63a660001b611382565b612f7b7fab3a06e4f77721d5a149fa10567092a4352b47f9873427da0b76e94a90ed2e7960001b611382565b600190505b949350505050565b600080823b905060008111915050919050565b6000612fae612fa984613869565b613844565b905082815260208101848484011115612fc657600080fd5b612fd1848285613a24565b509392505050565b600081359050612fe881613f9e565b92915050565b600081359050612ffd81613fb5565b92915050565b60008135905061301281613fcc565b92915050565b60008135905061302781613fe3565b92915050565b60008151905061303c81613fe3565b92915050565b600082601f83011261305357600080fd5b8135613063848260208601612f9b565b91505092915050565b60008135905061307b81613ffa565b92915050565b60006020828403121561309357600080fd5b60006130a184828501612fd9565b91505092915050565b600080604083850312156130bd57600080fd5b60006130cb85828601612fd9565b92505060206130dc85828601612fd9565b9150509250929050565b6000806000606084860312156130fb57600080fd5b600061310986828701612fd9565b935050602061311a86828701612fd9565b925050604061312b8682870161306c565b9150509250925092565b6000806000806080858703121561314b57600080fd5b600061315987828801612fd9565b945050602061316a87828801612fd9565b935050604061317b8782880161306c565b925050606085013567ffffffffffffffff81111561319857600080fd5b6131a487828801613042565b91505092959194509250565b600080604083850312156131c357600080fd5b60006131d185828601612fd9565b92505060206131e285828601612fee565b9150509250929050565b600080604083850312156131ff57600080fd5b600061320d85828601612fd9565b925050602061321e8582860161306c565b9150509250929050565b60006020828403121561323a57600080fd5b600061324884828501613003565b91505092915050565b60006020828403121561326357600080fd5b600061327184828501613018565b91505092915050565b60006020828403121561328c57600080fd5b600061329a8482850161302d565b91505092915050565b6000602082840312156132b557600080fd5b60006132c38482850161306c565b91505092915050565b6132d581613998565b82525050565b6132e4816139aa565b82525050565b6132f3816139b6565b82525050565b60006133048261389a565b61330e81856138b0565b935061331e818560208601613a33565b61332781613bff565b840191505092915050565b600061333d826138a5565b61334781856138c1565b9350613357818560208601613a33565b61336081613bff565b840191505092915050565b6000613376826138a5565b61338081856138d2565b9350613390818560208601613a33565b80840191505092915050565b60006133a96032836138c1565b91506133b482613c10565b604082019050919050565b60006133cc6024836138c1565b91506133d782613c5f565b604082019050919050565b60006133ef6019836138c1565b91506133fa82613cae565b602082019050919050565b6000613412602c836138c1565b915061341d82613cd7565b604082019050919050565b60006134356038836138c1565b915061344082613d26565b604082019050919050565b6000613458602a836138c1565b915061346382613d75565b604082019050919050565b600061347b6029836138c1565b915061348682613dc4565b604082019050919050565b600061349e602c836138c1565b91506134a982613e13565b604082019050919050565b60006134c16029836138c1565b91506134cc82613e62565b604082019050919050565b60006134e4602f836138c1565b91506134ef82613eb1565b604082019050919050565b60006135076021836138c1565b915061351282613f00565b604082019050919050565b600061352a6031836138c1565b915061353582613f4f565b604082019050919050565b613549816139ec565b82525050565b61355881613a1a565b82525050565b600061356a828561336b565b9150613576828461336b565b91508190509392505050565b600060208201905061359760008301846132cc565b92915050565b60006080820190506135b260008301876132cc565b6135bf60208301866132cc565b6135cc604083018561354f565b81810360608301526135de81846132f9565b905095945050505050565b60006020820190506135fe60008301846132db565b92915050565b600060208201905061361960008301846132ea565b92915050565b600060c082019050818103600083015261363981896132f9565b905061364860208301886132ea565b61365560408301876132ea565b6136626060830186613540565b61366f60808301856132ea565b61367c60a08301846132ea565b979650505050505050565b600060208201905081810360008301526136a18184613332565b905092915050565b600060208201905081810360008301526136c28161339c565b9050919050565b600060208201905081810360008301526136e2816133bf565b9050919050565b60006020820190508181036000830152613702816133e2565b9050919050565b6000602082019050818103600083015261372281613405565b9050919050565b6000602082019050818103600083015261374281613428565b9050919050565b600060208201905081810360008301526137628161344b565b9050919050565b600060208201905081810360008301526137828161346e565b9050919050565b600060208201905081810360008301526137a281613491565b9050919050565b600060208201905081810360008301526137c2816134b4565b9050919050565b600060208201905081810360008301526137e2816134d7565b9050919050565b60006020820190508181036000830152613802816134fa565b9050919050565b600060208201905081810360008301526138228161351d565b9050919050565b600060208201905061383e600083018461354f565b92915050565b600061384e61385f565b905061385a8282613a98565b919050565b6000604051905090565b600067ffffffffffffffff82111561388457613883613bd0565b5b61388d82613bff565b9050602081019050919050565b600081519050919050565b600081519050919050565b600082825260208201905092915050565b600082825260208201905092915050565b600081905092915050565b60006138e882613a1a565b91506138f383613a1a565b9250827fffffffffffffffffffffffffffffffffffffffffffffffffffffffffffffffff0382111561392857613927613b43565b5b828201905092915050565b600061393e82613a1a565b915061394983613a1a565b92508261395957613958613b72565b5b828204905092915050565b600061396f82613a1a565b915061397a83613a1a565b92508282101561398d5761398c613b43565b5b828203905092915050565b60006139a3826139fa565b9050919050565b60008115159050919050565b6000819050919050565b60007fffffffff0000000000000000000000000000000000000000000000000000000082169050919050565b600061ffff82169050919050565b600073ffffffffffffffffffffffffffffffffffffffff82169050919050565b6000819050919050565b82818337600083830152505050565b60005b83811015613a51578082015181840152602081019050613a36565b83811115613a60576000848401525b50505050565b60006002820490506001821680613a7e57607f821691505b60208210811415613a9257613a91613ba1565b5b50919050565b613aa182613bff565b810181811067ffffffffffffffff82111715613ac057613abf613bd0565b5b80604052505050565b6000613ad482613a1a565b91507fffffffffffffffffffffffffffffffffffffffffffffffffffffffffffffffff821415613b0757613b06613b43565b5b600182019050919050565b6000613b1d82613a1a565b9150613b2883613a1a565b925082613b3857613b37613b72565b5b828206905092915050565b7f4e487b7100000000000000000000000000000000000000000000000000000000600052601160045260246000fd5b7f4e487b7100000000000000000000000000000000000000000000000000000000600052601260045260246000fd5b7f4e487b7100000000000000000000000000000000000000000000000000000000600052602260045260246000fd5b7f4e487b7100000000000000000000000000000000000000000000000000000000600052604160045260246000fd5b6000601f19601f8301169050919050565b7f4552433732313a207472616e7366657220746f206e6f6e20455243373231526560008201527f63656976657220696d706c656d656e7465720000000000000000000000000000602082015250565b7f4552433732313a207472616e7366657220746f20746865207a65726f2061646460008201527f7265737300000000000000000000000000000000000000000000000000000000602082015250565b7f4552433732313a20617070726f766520746f2063616c6c657200000000000000600082015250565b7f4552433732313a206f70657261746f7220717565727920666f72206e6f6e657860008201527f697374656e7420746f6b656e0000000000000000000000000000000000000000602082015250565b7f4552433732313a20617070726f76652063616c6c6572206973206e6f74206f7760008201527f6e6572206e6f7220617070726f76656420666f7220616c6c0000000000000000602082015250565b7f4552433732313a2062616c616e636520717565727920666f7220746865207a6560008201527f726f206164647265737300000000000000000000000000000000000000000000602082015250565b7f4552433732313a206f776e657220717565727920666f72206e6f6e657869737460008201527f656e7420746f6b656e0000000000000000000000000000000000000000000000602082015250565b7f4552433732313a20617070726f76656420717565727920666f72206e6f6e657860008201527f697374656e7420746f6b656e0000000000000000000000000000000000000000602082015250565b7f4552433732313a207472616e73666572206f6620746f6b656e2074686174206960008201527f73206e6f74206f776e0000000000000000000000000000000000000000000000602082015250565b7f4552433732314d657461646174613a2055524920717565727920666f72206e6f60008201527f6e6578697374656e7420746f6b656e0000000000000000000000000000000000602082015250565b7f4552433732313a20617070726f76616c20746f2063757272656e74206f776e6560008201527f7200000000000000000000000000000000000000000000000000000000000000602082015250565b7f4552433732313a207472616e736665722063616c6c6572206973206e6f74206f60008201527f776e6572206e6f7220617070726f766564000000000000000000000000000000602082015250565b613fa781613998565b8114613fb257600080fd5b50565b613fbe816139aa565b8114613fc957600080fd5b50565b613fd5816139b6565b8114613fe057600080fd5b50565b613fec816139c0565b8114613ff757600080fd5b50565b61400381613a1a565b811461400e57600080fd5b5056fea2646970667358221220dbe795bb478a24e76a91f56895e8aba3c5c185271531c18d687b227d9cf925f064736f6c63430008040033",
  "linkReferences": {},
  "deployedLinkReferences": {}
}