{
  "_format": "hh-sol-artifact-1",
  "contractName": "VaccineToken",
  "sourceName": "contracts/VaccineToken.sol",
  "abi": [
    {
      "inputs": [],
      "stateMutability": "nonpayable",
      "type": "constructor"
    },
    {
      "anonymous": false,
      "inputs": [
        {
          "indexed": true,
          "internalType": "address",
          "name": "owner",
          "type": "address"
        },
        {
          "indexed": true,
          "internalType": "address",
          "name": "approved",
          "type": "address"
        },
        {
          "indexed": true,
          "internalType": "uint256",
          "name": "tokenId",
          "type": "uint256"
        }
      ],
      "name": "Approval",
      "type": "event"
    },
    {
      "anonymous": false,
      "inputs": [
        {
          "indexed": true,
          "internalType": "address",
          "name": "owner",
          "type": "address"
        },
        {
          "indexed": true,
          "internalType": "address",
          "name": "operator",
          "type": "address"
        },
        {
          "indexed": false,
          "internalType": "bool",
          "name": "approved",
          "type": "bool"
        }
      ],
      "name": "ApprovalForAll",
      "type": "event"
    },
    {
      "anonymous": false,
      "inputs": [
        {
          "indexed": true,
          "internalType": "address",
          "name": "from",
          "type": "address"
        },
        {
          "indexed": true,
          "internalType": "address",
          "name": "to",
          "type": "address"
        },
        {
          "indexed": true,
          "internalType": "uint256",
          "name": "tokenId",
          "type": "uint256"
        }
      ],
      "name": "Transfer",
      "type": "event"
    },
    {
      "inputs": [
        {
          "internalType": "address",
          "name": "to",
          "type": "address"
        },
        {
          "internalType": "uint256",
          "name": "tokenId",
          "type": "uint256"
        }
      ],
      "name": "approve",
      "outputs": [],
      "stateMutability": "nonpayable",
      "type": "function"
    },
    {
      "inputs": [
        {
          "internalType": "address",
          "name": "owner",
          "type": "address"
        }
      ],
      "name": "balanceOf",
      "outputs": [
        {
          "internalType": "uint256",
          "name": "",
          "type": "uint256"
        }
      ],
      "stateMutability": "view",
      "type": "function"
    },
    {
      "inputs": [
        {
          "internalType": "bytes32",
          "name": "c__0xe784d46f",
          "type": "bytes32"
        }
      ],
      "name": "c_0xe784d46f",
      "outputs": [],
      "stateMutability": "pure",
      "type": "function"
    },
    {
      "inputs": [
        {
          "internalType": "bytes32",
          "name": "c__0xedc1326a",
          "type": "bytes32"
        }
      ],
      "name": "c_0xedc1326a",
      "outputs": [],
      "stateMutability": "pure",
      "type": "function"
    },
    {
      "inputs": [
        {
          "internalType": "uint256",
          "name": "tokenId",
          "type": "uint256"
        }
      ],
      "name": "getApproved",
      "outputs": [
        {
          "internalType": "address",
          "name": "",
          "type": "address"
        }
      ],
      "stateMutability": "view",
      "type": "function"
    },
    {
      "inputs": [
        {
          "internalType": "address",
          "name": "owner",
          "type": "address"
        },
        {
          "internalType": "address",
          "name": "operator",
          "type": "address"
        }
      ],
      "name": "isApprovedForAll",
      "outputs": [
        {
          "internalType": "bool",
          "name": "",
          "type": "bool"
        }
      ],
      "stateMutability": "view",
      "type": "function"
    },
    {
      "inputs": [],
      "name": "name",
      "outputs": [
        {
          "internalType": "string",
          "name": "",
          "type": "string"
        }
      ],
      "stateMutability": "view",
      "type": "function"
    },
    {
      "inputs": [
        {
          "internalType": "uint256",
          "name": "tokenId",
          "type": "uint256"
        }
      ],
      "name": "ownerOf",
      "outputs": [
        {
          "internalType": "address",
          "name": "",
          "type": "address"
        }
      ],
      "stateMutability": "view",
      "type": "function"
    },
    {
      "inputs": [
        {
          "internalType": "address",
          "name": "from",
          "type": "address"
        },
        {
          "internalType": "address",
          "name": "to",
          "type": "address"
        },
        {
          "internalType": "uint256",
          "name": "tokenId",
          "type": "uint256"
        }
      ],
      "name": "safeTransferFrom",
      "outputs": [],
      "stateMutability": "nonpayable",
      "type": "function"
    },
    {
      "inputs": [
        {
          "internalType": "address",
          "name": "from",
          "type": "address"
        },
        {
          "internalType": "address",
          "name": "to",
          "type": "address"
        },
        {
          "internalType": "uint256",
          "name": "tokenId",
          "type": "uint256"
        },
        {
          "internalType": "bytes",
          "name": "_data",
          "type": "bytes"
        }
      ],
      "name": "safeTransferFrom",
      "outputs": [],
      "stateMutability": "nonpayable",
      "type": "function"
    },
    {
      "inputs": [
        {
          "internalType": "address",
          "name": "operator",
          "type": "address"
        },
        {
          "internalType": "bool",
          "name": "approved",
          "type": "bool"
        }
      ],
      "name": "setApprovalForAll",
      "outputs": [],
      "stateMutability": "nonpayable",
      "type": "function"
    },
    {
      "inputs": [
        {
          "internalType": "bytes4",
          "name": "interfaceId",
          "type": "bytes4"
        }
      ],
      "name": "supportsInterface",
      "outputs": [
        {
          "internalType": "bool",
          "name": "",
          "type": "bool"
        }
      ],
      "stateMutability": "view",
      "type": "function"
    },
    {
      "inputs": [],
      "name": "symbol",
      "outputs": [
        {
          "internalType": "string",
          "name": "",
          "type": "string"
        }
      ],
      "stateMutability": "view",
      "type": "function"
    },
    {
      "inputs": [
        {
          "internalType": "uint256",
          "name": "tokenId",
          "type": "uint256"
        }
      ],
      "name": "tokenURI",
      "outputs": [
        {
          "internalType": "string",
          "name": "",
          "type": "string"
        }
      ],
      "stateMutability": "view",
      "type": "function"
    },
    {
      "inputs": [
        {
          "internalType": "address",
          "name": "from",
          "type": "address"
        },
        {
          "internalType": "address",
          "name": "to",
          "type": "address"
        },
        {
          "internalType": "uint256",
          "name": "tokenId",
          "type": "uint256"
        }
      ],
      "name": "transferFrom",
      "outputs": [],
      "stateMutability": "nonpayable",
      "type": "function"
    },
    {
      "inputs": [
        {
          "internalType": "address",
          "name": "",
          "type": "address"
        }
      ],
      "name": "vaccinators",
      "outputs": [
        {
          "internalType": "bytes32",
          "name": "",
          "type": "bytes32"
        }
      ],
      "stateMutability": "view",
      "type": "function"
    },
    {
      "inputs": [
        {
          "internalType": "bytes32",
          "name": "",
          "type": "bytes32"
        }
      ],
      "name": "vaccineTokens",
      "outputs": [
        {
          "internalType": "bytes",
          "name": "ipfsHash",
          "type": "bytes"
        },
        {
          "internalType": "bytes32",
          "name": "certificate_id",
          "type": "bytes32"
        },
        {
          "internalType": "bytes32",
          "name": "beneficiary_id",
          "type": "bytes32"
        },
        {
          "internalType": "uint16",
          "name": "country_id",
          "type": "uint16"
        },
        {
          "internalType": "bytes32",
          "name": "ipvc_beneficiary_id",
          "type": "bytes32"
        },
        {
          "internalType": "bytes32",
          "name": "ipvc_vaccinator_id",
          "type": "bytes32"
        }
      ],
      "stateMutability": "view",
      "type": "function"
    }
  ],
  "bytecode": "0x60806040523480156200001157600080fd5b506040518060400160405280600c81526020017f56616363696e65546f6b656e00000000000000000000000000000000000000008152506040518060400160405280600281526020017f5654000000000000000000000000000000000000000000000000000000000000815250620000b27f76683a516c9dc0dbd12dd5b61e70d370f66fbac2ae8d78501601e98e6754901d60001b620001ef60201b60201c565b620000e67f42b4b754d386e1c948091f99b728ecbca5ae93c576f999ccc79967e12d0c612e60001b620001ef60201b60201c565b6200011a7fe86d31caa909722eadcb676c24c6be412c3f9d997b0781e32d5606cf44982af960001b620001ef60201b60201c565b816000908051906020019062000132929190620001f5565b50620001667e83a7cbbb5f55f7dd12ed93bc6f5e5b4ae6d49780bde7ef9ec36800c130ae5260001b620001ef60201b60201c565b6200019a7fbed0dbf20f7a546076dd7e647aeaadff9b659acf32cfa8db01d3e97c0fa7ab4460001b620001ef60201b60201c565b8060019080519060200190620001b2929190620001f5565b505050620001e97f5a8b8049637d6138cbfc3bd62b6d7062cfa8125238cdb2f015732f3f728fa6c460001b620001f260201b60201c565b6200030a565b50565b50565b8280546200020390620002a5565b90600052602060002090601f01602090048101928262000227576000855562000273565b82601f106200024257805160ff191683800117855562000273565b8280016001018555821562000273579182015b828111156200027257825182559160200191906001019062000255565b5b50905062000282919062000286565b5090565b5b80821115620002a157600081600090555060010162000287565b5090565b60006002820490506001821680620002be57607f821691505b60208210811415620002d557620002d4620002db565b5b50919050565b7f4e487b7100000000000000000000000000000000000000000000000000000000600052602260045260246000fd5b614072806200031a6000396000f3fe608060405234801561001057600080fd5b506004361061010b5760003560e01c80636352211e116100a2578063a22cb46511610071578063a22cb465146102e1578063b74281f1146102fd578063b88d4fde14610319578063c87b56dd14610335578063e985e9c5146103655761010b565b80636352211e1461024757806370a082311461027757806395d89b41146102a757806398f1112f146102c55761010b565b80630e92c8c5116100de5780630e92c8c5146101aa57806323b872dd146101da57806342842e0e146101f65780634a17f101146102125761010b565b806301ffc9a71461011057806306fdde0314610140578063081812fc1461015e578063095ea7b31461018e575b600080fd5b61012a6004803603810190610125919061322d565b610395565b60405161013791906135d1565b60405180910390f35b6101486104fb565b604051610155919061366f565b60405180910390f35b61017860048036038101906101739190613287565b610611565b604051610185919061356a565b60405180910390f35b6101a860048036038101906101a391906131c0565b6107ca565b005b6101c460048036038101906101bf919061303d565b610b1e565b6040516101d191906135ec565b60405180910390f35b6101f460048036038101906101ef91906130aa565b610b36565b005b610210600480360381019061020b91906130aa565b610cca565b005b61022c60048036038101906102279190613200565b610d6e565b60405161023e96959493929190613607565b60405180910390f35b610261600480360381019061025c9190613287565b610e40565b60405161026e919061356a565b60405180910390f35b610291600480360381019061028c919061303d565b61107f565b60405161029e9190613811565b60405180910390f35b6102af61126c565b6040516102bc919061366f565b60405180910390f35b6102df60048036038101906102da9190613200565b611382565b005b6102fb60048036038101906102f69190613180565b611385565b005b61031760048036038101906103129190613200565b611692565b005b610333600480360381019061032e91906130fd565b611695565b005b61034f600480360381019061034a9190613287565b61182b565b60405161035c919061366f565b60405180910390f35b61037f600480360381019061037a919061306a565b611a5e565b60405161038c91906135d1565b60405180910390f35b60006103c37fac0ee51b88eda759d367a61081b71b16ad7114ebb65348fb17e751654b900afb60001b611382565b6103ef7f9de8895a2a2172f71f13de0f832bff5f86030e3f64247653046606f46648d55760001b611382565b61041b7f55677c8fb7d7f3e16efc80998408508041c46b839e4c5b52e226b90e463cd18860001b611382565b7f80ac58cd000000000000000000000000000000000000000000000000000000007bffffffffffffffffffffffffffffffffffffffffffffffffffffffff1916827bffffffffffffffffffffffffffffffffffffffffffffffffffffffff191614806104e457507f5b5e139f000000000000000000000000000000000000000000000000000000007bffffffffffffffffffffffffffffffffffffffffffffffffffffffff1916827bffffffffffffffffffffffffffffffffffffffffffffffffffffffff1916145b806104f457506104f382611b76565b5b9050919050565b60606105297f810a95a36b871f3c7cc8e085aaad89ebd94b5bad657644eff47a970202757d0360001b611382565b6105557f17a27c706bdd7d51c446cf005bab74015d0b48c7f7643c665a001cfddd43b56660001b611382565b6105817f89b33bd469d0b6a8ac86b043bd0fd6d3bdc512bb15193683681f1472cda6842960001b611382565b6000805461058e90613a4e565b80601f01602080910402602001604051908101604052809291908181526020018280546105ba90613a4e565b80156106075780601f106105dc57610100808354040283529160200191610607565b820191906000526020600020905b8154815290600101906020018083116105ea57829003601f168201915b5050505050905090565b600061063f7fe213da7685ceb0459addada609f91c2d9fbe73ddd5ad8a6269f85a57e4dfb1b160001b611382565b61066b7f2a6e849c8618d0b116f8eeddc9c82b9d067637f189419e0995daa5f076e1e7bd60001b611382565b6106977fabbea2825505a5aa3bf84eb8a33dde188b36e5e748e71bbfb9b844578c90d5dc60001b611382565b6106c37f4c699a5989404c59311abe0cc3032851211febe69d48adf08501677396bdba7d60001b611382565b6106cc82611be0565b61070b576040517f08c379a000000000000000000000000000000000000000000000000000000000815260040161070290613771565b60405180910390fd5b6107377ff2334e627731dafc43bcf57221885d6aa0047146883662564d2afbea3caac24160001b611382565b6107637f2e3081e1923ca712a03c381fff7a54802dbe62b00d75fddbc9eadc4d96f2b76360001b611382565b61078f7f15e45459072fcf18dcc017226a99ad7a2c9e60b9991a6c4482221751971096fb60001b611382565b6004600083815260200190815260200160002060009054906101000a900473ffffffffffffffffffffffffffffffffffffffff169050919050565b6107f67f152eafef9a9099d7373bfadf7dc9d726b50d7087859ebde2fdd8ef862031e38560001b611382565b6108227fedc7b04e443202c0c61785ea4917400c6933b4e21e26d714dbb5faf6d015ba1960001b611382565b61084e7f5468cb40a61739ff45a8dd5022acc5be5457fc639ab2de7e3c548795cbc98fbc60001b611382565b600061085982610e40565b90506108877f62c371d0819da4f4416f27c89681f66465886b305fb8b3710cdd0ae7089367a660001b611382565b6108b37f8ef2a0a6252c948f62a8ae861066a4875c0f853382a6d7da892c81d6c7ccacef60001b611382565b6108df7f9f567b476869fe7f08399308269cf19890b46ab21b621a48511976f324a5a63760001b611382565b8073ffffffffffffffffffffffffffffffffffffffff168373ffffffffffffffffffffffffffffffffffffffff16141561094e576040517f08c379a0000000000000000000000000000000000000000000000000000000008152600401610945906137d1565b60405180910390fd5b61097a7f88e85cccd6a7bd096eabd1a916402c158e1d8f4648756f9909eed1eb74abd56360001b611382565b6109a67f2f81021847891a1e33828a3f37e5816f36431b0f855e0f4c7cddd6da8e00c9f760001b611382565b6109d27fd003bbe4528c4cc4104eafd3ecfd2584e39112d602144f631684178ebe69aa8f60001b611382565b6109fe7f9360bc288a172c374c90828ad6ac2ee2eb2b132eda4e130a4e5b7e2ed165f02060001b611382565b8073ffffffffffffffffffffffffffffffffffffffff16610a1d611cd1565b73ffffffffffffffffffffffffffffffffffffffff161480610a4c5750610a4b81610a46611cd1565b611a5e565b5b610a8b576040517f08c379a0000000000000000000000000000000000000000000000000000000008152600401610a8290613711565b60405180910390fd5b610ab77f858b89039010798d082cb15c1280f0f4621a7874e36fca23f17d16d9a99f94bb60001b611382565b610ae37fadf166ffd56bde0a1a685949e482884fdd56bc509685cbacb00f4fb15ce1c88760001b611382565b610b0f7f62642e14fa9f3f7258c45be3e8f4c9f004c1c04932a1caa2e25d70a62045a73760001b611382565b610b198383611cd9565b505050565b60076020528060005260406000206000915090505481565b610b627f2795a77b9529512c53740ac1e07ffa68d7bd8507ac08a603c4897ca7c9043ab260001b611382565b610b8e7f479a32fd2520640c178255b847fd20ded427ac1a6d333b210f8b37a33d89fc3860001b611382565b610bba7f53ad25670050d471d6c302db5f1a5a1b4b4e404e20d275ced5d7faa005c05a7160001b611382565b610be67f4359453010007919fa170827cdb9a04ab4b7d003ff8984e1b8907b4b37b5ad2d60001b611382565b610bf7610bf1611cd1565b82611e6e565b610c36576040517f08c379a0000000000000000000000000000000000000000000000000000000008152600401610c2d906137f1565b60405180910390fd5b610c627fae53eb0c408486230c4a6e545bb08d1c48a402edda6588332a599768ec23b56c60001b611382565b610c8e7fb92b9845aaae564077bfa02eaf7cce3822a40bdf3c351230f5e14730e771aec560001b611382565b610cba7fd7ac79f22b2466225d4423cfbf285c9f4a07625f3139bfcb08e7e0e4bc87227860001b611382565b610cc58383836120d8565b505050565b610cf67f0cb4913f667ff8ef88b94d4dca671923a9046e8d9d48739b77646b83e63e8f2d60001b611382565b610d227f99d7ccdf3b216dcd59b3c09371a2088dae6135435a7997766ffc696d2a9fe91f60001b611382565b610d4e7ff5d3e0c03adb6cf9f590260b66bd741204095a100088b42e3a7d8a3c17898a8c60001b611382565b610d6983838360405180602001604052806000815250611695565b505050565b6006602052806000526040600020600091509050806000018054610d9190613a4e565b80601f0160208091040260200160405190810160405280929190818152602001828054610dbd90613a4e565b8015610e0a5780601f10610ddf57610100808354040283529160200191610e0a565b820191906000526020600020905b815481529060010190602001808311610ded57829003601f168201915b5050505050908060010154908060020154908060030160009054906101000a900461ffff16908060040154908060050154905086565b6000610e6e7f40750e10700bb2f7ebd5b376810bd1cac285b66c983bcdfd7c1e59fc33c4394560001b611382565b610e9a7feb92bb5ab5e24556b29c01cf396f638d301df908a125d76d5a8a0092e82ad33860001b611382565b610ec67f1aca67dea6e39fa9e66356197e24742dc9b50c60dd139c0d6ed54e1113c5eb3a60001b611382565b60006002600084815260200190815260200160002060009054906101000a900473ffffffffffffffffffffffffffffffffffffffff169050610f2a7f1c819e0c46041878ef5a330fb73ca5e9437717a6fcc710447dde46fe5d1cb72e60001b611382565b610f567fa0a69e8d08d51c5e636ffcbb76c6394f2a8f6b37fe486d313aca7808ef792a5c60001b611382565b610f827f2f4468829a23db790680505bf005e95974409be05b286d633fa63fd4b1ffba9a60001b611382565b600073ffffffffffffffffffffffffffffffffffffffff168173ffffffffffffffffffffffffffffffffffffffff161415610ff2576040517f08c379a0000000000000000000000000000000000000000000000000000000008152600401610fe990613751565b60405180910390fd5b61101e7f435ebeffa5bb32a4aee20c279c56195ef0f9f30d957fce720293e847c8db35d060001b611382565b61104a7f4601393a15164028ebc802133731628adc02e283b310d77e09a05ce138e7dc8d60001b611382565b6110767f1a41aa9ace0b7c08875b85339ca005d9aabc7452ede91bb0555a7dba1def2a1760001b611382565b80915050919050565b60006110ad7fe3d45a1141a58a907835c2a59873ed6a5f646e375966c56cc1eb0272d050669b60001b611382565b6110d97f898c3b683cca0bafa525122213064852d05ef0a673abadb1c5ecb02514c50f3860001b611382565b6111057f123efccfcbc52075d75ef90ebdbffa30c1595ce74fbf63807f48a25a6222e0d460001b611382565b6111317f3ca106fcd1a04628da00d0d7e3ee3459721e332fbf1ec990be8e8a39f0f96af660001b611382565b600073ffffffffffffffffffffffffffffffffffffffff168273ffffffffffffffffffffffffffffffffffffffff1614156111a1576040517f08c379a000000000000000000000000000000000000000000000000000000000815260040161119890613731565b60405180910390fd5b6111cd7f5146afa06c5820d0a464311bf50d35fc3372d08e4248ed6bb3dc073456c4808760001b611382565b6111f97f0e078bed2d2f6bdba81ddd83010ee42979a34a194170b4f221a7a6c4cb5e892660001b611382565b6112257f269fda7dc0191537cb6b92cbc2a3298e84bf63bcd9c6df1b1d29a2ef1734d51460001b611382565b600360008373ffffffffffffffffffffffffffffffffffffffff1673ffffffffffffffffffffffffffffffffffffffff168152602001908152602001600020549050919050565b606061129a7f69781d83c6fb1329c88954f1f3d9012ce54bd936a837a3b6fc15c52fe456183f60001b611382565b6112c67f0d7555527c37dc04f87e96524269051622fa49374ffc6c5fde26c09543f46c5a60001b611382565b6112f27fe18f909911c2f2fb94a203b70a100d4909936bd335a91c6fa898d8911727036260001b611382565b600180546112ff90613a4e565b80601f016020809104026020016040519081016040528092919081815260200182805461132b90613a4e565b80156113785780601f1061134d57610100808354040283529160200191611378565b820191906000526020600020905b81548152906001019060200180831161135b57829003601f168201915b5050505050905090565b50565b6113b17f9edf07d54efa7bbc7ff5efc957378bb5a49bf517f4733d594b356f3acd09fa5360001b611382565b6113dd7fa5d698c09d4a0cc4d3f7f2be2b61c1d58ad12d321e0510b9c5f862a7735ca5ab60001b611382565b6114097fe974dff0050dceb0a9bc31a5e830235a8cf3769631ba7951595db2fb09c80c8260001b611382565b6114357f368aec0bff52786c711c8bdd0a0c68604374a14a7da601423925293c519090aa60001b611382565b61143d611cd1565b73ffffffffffffffffffffffffffffffffffffffff168273ffffffffffffffffffffffffffffffffffffffff1614156114ab576040517f08c379a00000000000000000000000000000000000000000000000000000000081526004016114a2906136d1565b60405180910390fd5b6114d77fc352c543cc598223edef7e69a790b78070f22177e8a49630514542e0068743b860001b611382565b6115037f075155703d7884efdfbfddb3fad09368e3bef93346ec767b444b505c66a6d9af60001b611382565b61152f7f4d9a8a63891592ab08758133f753150dacc639f4bd14b7f563eddbe0c733e2fc60001b611382565b806005600061153c611cd1565b73ffffffffffffffffffffffffffffffffffffffff1673ffffffffffffffffffffffffffffffffffffffff16815260200190815260200160002060008473ffffffffffffffffffffffffffffffffffffffff1673ffffffffffffffffffffffffffffffffffffffff16815260200190815260200160002060006101000a81548160ff0219169083151502179055506115f67ff908aabfb7203d44260eafedffeff5717a3bb414888e7c70c791a6e8a1948f2c60001b611382565b6116227fca05ffa6c2994e0e17438ca07c393070fdefd47e645ad9a408a75fcd7b802a5660001b611382565b8173ffffffffffffffffffffffffffffffffffffffff16611641611cd1565b73ffffffffffffffffffffffffffffffffffffffff167f17307eab39ab6107e8899845ad3d59bd9653f200f220920489ca2b5937696c318360405161168691906135d1565b60405180910390a35050565b50565b6116c17f6aeba3c0b5109b9f8a5dd80c1713efcf64e1e426ac505e03eb2f79b74e027f5960001b611382565b6116ed7f9defbc71f646bc6e1cf598792cf36b501626ba58fa909f1162efdf1b923a9dc860001b611382565b6117197fd9c04b3ede1bc59da5b7c41e2e5cb7d6234f924c9ab75e36d0e068ff5040873460001b611382565b6117457f31c31820d6bed70d6a33c0b421a46c07685ff7e5912f0a6a9c4b7197484b0b7060001b611382565b611756611750611cd1565b83611e6e565b611795576040517f08c379a000000000000000000000000000000000000000000000000000000000815260040161178c906137f1565b60405180910390fd5b6117c17f828ee2bff549a6682bc2ce234915ac5866990c41cb5d7ba6a5071d82643501ec60001b611382565b6117ed7f47ddb580117d0667c11a754c348b2d723efe34641ee0dbed7135016bbaa8af3060001b611382565b6118197fd26093288d7894956559cf2de4b3402e2bb359bfabf901577305f62de0a33e9b60001b611382565b611825848484846126d0565b50505050565b60606118597fc547a14cd9c64d4804d0713fcd624ec478564b34f94fd17309c25348ec4732a360001b611382565b6118857fbbbfa44db2c1bda69c037ac8567f809c00c0b36133107c72d5eed7ea3190a9b360001b611382565b6118b17f818fd6b4626144eff9bf8a2bde6c3afc4dadcf810fb1c1b6dba9460868fbb2a260001b611382565b6118dd7f9ecedf62d13b80fc30cb56ae5c03186efb07d37ab5079cb7fec2d0dbf322e56e60001b611382565b6118e682611be0565b611925576040517f08c379a000000000000000000000000000000000000000000000000000000000815260040161191c906137b1565b60405180910390fd5b6119517fec0084b8a8d4424db5757ca1107737fd6d248458fd19477d8225a52a6dbce2d760001b611382565b61197d7fc1c12688b2fd9ca8bea2887f2f52edec3978912dfa72184548199f4590b9472860001b611382565b6119a97f676f8204495c23c83dc1bebdd22ac82a40d6fbaf821673ba0b0c5cec3441944360001b611382565b60006119b3612860565b90506119e17fbd9bed326322a92000df73aed9806e38b6de40f278056979637399785e8fc10c60001b611382565b611a0d7f935cd2aafc0b4663dbfc698853dddaa256c9ba23ca823b083110e35fd1873fc160001b611382565b6000815111611a2b5760405180602001604052806000815250611a56565b80611a35846128fb565b604051602001611a46929190613546565b6040516020818303038152906040525b915050919050565b6000611a8c7f902b7a0a920627e411b3daa0d299ffc088248103f4beac611e0aa7b5556584ad60001b611382565b611ab87fc9488f3ac4b0f1f17783e7e5593c98c76ebc5dca31eea432e9ce70eaf8ab4c3060001b611382565b611ae47f3620174cc965b2ecb3f9e011777de86020d3e3c42d8b05e531e644fe8376e91560001b611382565b600560008473ffffffffffffffffffffffffffffffffffffffff1673ffffffffffffffffffffffffffffffffffffffff16815260200190815260200160002060008373ffffffffffffffffffffffffffffffffffffffff1673ffffffffffffffffffffffffffffffffffffffff16815260200190815260200160002060009054906101000a900460ff16905092915050565b60007f01ffc9a7000000000000000000000000000000000000000000000000000000007bffffffffffffffffffffffffffffffffffffffffffffffffffffffff1916827bffffffffffffffffffffffffffffffffffffffffffffffffffffffff1916149050919050565b6000611c0e7ff7daedb8bef0b80582d8f61d426cda8ea37516ba03a34036f646d65c0e764b6d60001b611382565b611c3a7f42e1a975f76bb9f58efb18fcf259a0aa1d33dd9d20cb38e3e457e6cb9e4ca5ad60001b611382565b611c667f331f11adcdd8205a85ecc05bfd100ed8fcc4e83329494921633b49ec2ec90c5460001b611382565b600073ffffffffffffffffffffffffffffffffffffffff166002600084815260200190815260200160002060009054906101000a900473ffffffffffffffffffffffffffffffffffffffff1673ffffffffffffffffffffffffffffffffffffffff1614159050919050565b600033905090565b611d057f479955e70cfc0426ce4eacae23a8cf5a3ad80dbf1080e2aea74983ab3b5f50c860001b611382565b611d317f2d65dc8886b0159815ca4bff1563d609e10065ca9b314777e9195273d2bc60d460001b611382565b611d5d7f9acdc9c84c198618e90e34723fb2913b27f7bdd278a5e8b33b85b25829e0e97360001b611382565b816004600083815260200190815260200160002060006101000a81548173ffffffffffffffffffffffffffffffffffffffff021916908373ffffffffffffffffffffffffffffffffffffffff160217905550611ddb7fe6a55c41ab64e02cfe3447aa1ca828270e1b759ef9474e63272ab9b807a7d57160001b611382565b611e077f2d156354dac921722837253a2af82e05aa7dedf7bf04fb391afb0d2bdd5331bd60001b611382565b808273ffffffffffffffffffffffffffffffffffffffff16611e2883610e40565b73ffffffffffffffffffffffffffffffffffffffff167f8c5be1e5ebec7d5bd14f71427d1e84f3dd0314c0f7b2291e5b200ac8c7c3b92560405160405180910390a45050565b6000611e9c7faf4f76cb2727d80126718fb8de5517c0c2af442e32afa57b6466a11368b9b17360001b611382565b611ec87f2c1d589e37394411f4ed92613dadf4a6f87729432299cb995bb56b4eab0642a260001b611382565b611ef47f4b8304d65b64a21078503c88a5d7fe71c3d3e7b9f6d41ca192a3213e9f92f0a060001b611382565b611f207fc84663a1dc598080e44d5c3747f4b963db625cb328b491d0d77951783c57082960001b611382565b611f2982611be0565b611f68576040517f08c379a0000000000000000000000000000000000000000000000000000000008152600401611f5f906136f1565b60405180910390fd5b611f947fc57584526276c080d9e20a48d0f3f2217f4032269f7865a792884e9d76d0b82960001b611382565b611fc07fc70984790aeb5e33b93b4140e9050234436b5fe7a321f0093ddd5838b594729860001b611382565b611fec7f29d1a812661e40617caf7eb37bd0594d69cd7e61d5d643e42d072ec61d506e7c60001b611382565b6000611ff783610e40565b90506120257f8c4935b85bb01dc195328c277e2c21c74212e60c9c9417282532f6600a4ba30f60001b611382565b6120517f1e12455970d16ca39e63fc1fc1722e7db42ade952e5028c9f8abb44f389a757860001b611382565b8073ffffffffffffffffffffffffffffffffffffffff168473ffffffffffffffffffffffffffffffffffffffff1614806120be57508373ffffffffffffffffffffffffffffffffffffffff166120a684610611565b73ffffffffffffffffffffffffffffffffffffffff16145b806120cf57506120ce8185611a5e565b5b91505092915050565b6121047fa3658c5d416c22f14cbcbd604ef5bbd6f6d7cc04e965481b14cd073fb8d08a9560001b611382565b6121307ff63eefbc2c814d3e5e328cd8f99d09305021c4d4ce1b5988fd92be39186b57d360001b611382565b61215c7f914b128c9b1b28aeeb4e2b821d49158da2d60412f740e9da4e62b1774cfb405e60001b611382565b6121887fe3fbb3a23c51ef24c5bd6fa55325554e76c7d30b4cef226d0c71fcd0d496401660001b611382565b8273ffffffffffffffffffffffffffffffffffffffff166121a882610e40565b73ffffffffffffffffffffffffffffffffffffffff16146121fe576040517f08c379a00000000000000000000000000000000000000000000000000000000081526004016121f590613791565b60405180910390fd5b61222a7f55fe7cbb15b65b93c7b61d443c1ccc5d714db38bbd53d67978d8341485b8cab960001b611382565b6122567f9c37565e5ba9da9e0702c93a3e1c47b6b050ccfaa7879aa087ec944e04df876460001b611382565b6122827f0afd240ec4ada26392122a88ddb4e79966bd72d2adfe4f3ca8c2e3f733bff1ac60001b611382565b6122ae7f75a8c391562848343dfc3e5477c83e331018a892de73fa59165c0ed5f11dfbb560001b611382565b600073ffffffffffffffffffffffffffffffffffffffff168273ffffffffffffffffffffffffffffffffffffffff16141561231e576040517f08c379a0000000000000000000000000000000000000000000000000000000008152600401612315906136b1565b60405180910390fd5b61234a7ff590d9b60b6ef96f71605397806e4c781d3898ca248ec90639ea2c70db691cab60001b611382565b6123767fd578ef65dbfdde877983f75183761010903cc93a1ccf0756ef70067c8b6e109f60001b611382565b6123a27fab134bce2c6a0486e3f06504b0b309ce483428c91a0b95059e28680e1b6dc25160001b611382565b6123ad838383612a5c565b6123d97f649cf62f5583d01a17cd4e0557ab084d8c8ff10dcd039ed66df1d41a5d2f99b160001b611382565b6124057faffcaf9890f9be32a833e128fdbf9bf60f8c67b95465780fc0500dc28b609f5d60001b611382565b612410600082611cd9565b61243c7f4a7b097b1a66fe0aa5851ad84fdf7701283026db369252fa79afb1df9476bfbd60001b611382565b6124687f0e4f4d553df0df7808d207d67fda19bd7828e3d7eefe4136856e14b2426909ea60001b611382565b6001600360008573ffffffffffffffffffffffffffffffffffffffff1673ffffffffffffffffffffffffffffffffffffffff16815260200190815260200160002060008282546124b8919061394c565b925050819055506124eb7f9111ca81da309cd93b6bfdaca7fae73ea71c22b23f0f0aa4d15acbcbd05bd48860001b611382565b6125177f07d2ca4cd53af481ee63ea49a28c11bd0464e8f1891cad8d293bf492411ba2c760001b611382565b6001600360008473ffffffffffffffffffffffffffffffffffffffff1673ffffffffffffffffffffffffffffffffffffffff168152602001908152602001600020600082825461256791906138c5565b9250508190555061259a7f93618e76dbb3d477951dfc28e280aae306855a07132b0cab327b0c548b9385d960001b611382565b6125c67fa694b0c11ca1d3b798c810d0298f91993ab85deaa61b66c2d1ed2f993d4bd70860001b611382565b816002600083815260200190815260200160002060006101000a81548173ffffffffffffffffffffffffffffffffffffffff021916908373ffffffffffffffffffffffffffffffffffffffff1602179055506126447f7491f980b27ae2f3349ff685d8711db9e8621db50f2fd6fd49753c9ea9cfdb5c60001b611382565b6126707fd543427256921ecfe9d7b08a53d587a490b6bd3b5224555b96fea46de0b14d1860001b611382565b808273ffffffffffffffffffffffffffffffffffffffff168473ffffffffffffffffffffffffffffffffffffffff167fddf252ad1be2c89b69c2b068fc378daa952ba7f163c4a11628f55a4df523b3ef60405160405180910390a4505050565b6126fc7f0f61506e6c66214f420470f8cc905833f37da3b8043973bf95f0442666eef17a60001b611382565b6127287fbcf3d57a4948bc1e0143b7ec5f0a3ddfd10ded02ad09f558ca2edbe73eaadbbc60001b611382565b6127547fdd7f68d11dafee19cd4459015acbe8789a26fed5780c1ea394f988de00fd09e360001b611382565b61275f8484846120d8565b61278b7f13fd4e19979f3124f2411261f9348c9ecc098be3c348e7c7985b67a5323c110a60001b611382565b6127b77fb6869ee5a9abc2e35f11154a2675c011ffc36e7338ed1c0020e4e1c81c8ba36460001b611382565b6127e37fc8afc3fe568910fae96040bb98689e6fbadf38c6b1ef5578e7cf63378995c90360001b611382565b6127ef84848484612a8d565b61282e576040517f08c379a000000000000000000000000000000000000000000000000000000000815260040161282590613691565b60405180910390fd5b61285a7f71471a0005625f767cee763bd10469c5bb2528098ef11620bdd811f7cb54d14460001b611382565b50505050565b606061288e7f158e6045defd9d86f78f108caf6afd663d001d61f71b59d3f096a4b473a74a1e60001b611382565b6128ba7fe3f32e8c3b9958608087b0d3439fe813ff5baaf34029fcf97533ce14ad31bb1d60001b611382565b6128e67f9caeb6e2f2348301314daffba1f7a1d9414b06b08cb6225d49fd39ad1110274060001b611382565b60405180602001604052806000815250905090565b60606000821415612943576040518060400160405280600181526020017f30000000000000000000000000000000000000000000000000000000000000008152509050612a57565b600082905060005b6000821461297557808061295e90613ab1565b915050600a8261296e919061391b565b915061294b565b60008167ffffffffffffffff81111561299157612990613be7565b5b6040519080825280601f01601f1916602001820160405280156129c35781602001600182028036833780820191505090505b5090505b60008514612a50576001826129dc919061394c565b9150600a856129eb9190613afa565b60306129f791906138c5565b60f81b818381518110612a0d57612a0c613bb8565b5b60200101907effffffffffffffffffffffffffffffffffffffffffffffffffffffffffffff1916908160001a905350600a85612a49919061391b565b94506129c7565b8093505050505b919050565b612a887f2d632afbf4010bb7b4ae6beb4311b49c2fdf721c4774655660d27481b7d8f12d60001b611382565b505050565b6000612abb7fc7a302eaf6ca14c063e5ac66f254894d34484c0db5b04f312cfb2011cd36f1f860001b611382565b612ae77f63ac46e44195980432d3dcf55d44b8aab385ac9e5c564a0b7885326017a9d32f60001b611382565b612b137f47de8cb4909a3a9e54772d6b6996823dad4047d36f1465bd7da42fd1edf8225160001b611382565b612b328473ffffffffffffffffffffffffffffffffffffffff16612f3c565b15612eab57612b637f2cee920f5b80ef5995d0c082f088fe633b2c1a9dbf10ca8a606dd461c8af2a4760001b611382565b612b8f7f38d5fc489742d1192b8155b8db93fe4fd100b60dfcf46b55422df1f2fe7e23d560001b611382565b612bbb7f5f8b07e4f33aa1a66e31ae77e8d5538aac852d68de576ed7441b47e47502d8e560001b611382565b8373ffffffffffffffffffffffffffffffffffffffff1663150b7a02612bdf611cd1565b8786866040518563ffffffff1660e01b8152600401612c019493929190613585565b602060405180830381600087803b158015612c1b57600080fd5b505af1925050508015612c4c57506040513d601f19601f82011682018060405250810190612c49919061325a565b60015b612e03573d8060008114612c7c576040519150601f19603f3d011682016040523d82523d6000602084013e612c81565b606091505b50612cae7ffac8c797f7feb47ba5f80b4efd9e67607750e599f65c5b775089687f667e62ef60001b611382565b612cda7fba60798dc58c30ca2d339e36c20a49584c241ee3235f7d5bc1c5da33edddbfab60001b611382565b600081511415612da357612d107fd3f17f7f86bce4dafa752ae9fb69a9b6132e180eec4d62dcb3a40697d16fafd360001b611382565b612d3c7fc55478f8dbd88b7c071cb05cc4811638f5e175f5351119727bbf6a96e4300e2360001b611382565b612d687fb1caed4f59d8d2fbb57bf720677e45cf55b205e4312eadc1097e892a8d00ece360001b611382565b6040517f08c379a0000000000000000000000000000000000000000000000000000000008152600401612d9a90613691565b60405180910390fd5b612dcf7fd3c8479f6751e26ac99617f5b2d6e6e7e9e3908f71684ef666f6b2f02478b7ef60001b611382565b612dfb7fe36a74921da8bf8615353c2804c3013d27b91ca8d4fbbfdc6bd333fd38bbe3f460001b611382565b805181602001fd5b612e2f7f1f0f07641600b3294085d7c04592830613e475853ac8e0ba9453513989092f7760001b611382565b612e5b7f14b6dc363571bcacbb80a4ec61f76c5e5c56feda116c71789fd8f11e9d1b222160001b611382565b63150b7a0260e01b7bffffffffffffffffffffffffffffffffffffffffffffffffffffffff1916817bffffffffffffffffffffffffffffffffffffffffffffffffffffffff191614915050612f34565b612ed77f814b96eb6793913d8d7c9532203ce2abe10a33c824fc1d7f97ac533ca593d66f60001b611382565b612f037f343090315034402be552e428b5847b86ca3c36cfd0e192038e0a24bacd10e28d60001b611382565b612f2f7f98a6f586b48b3bb04464bdae4690a73c0d271386520db703253e90d1bebca8d360001b611382565b600190505b949350505050565b600080823b905060008111915050919050565b6000612f62612f5d84613851565b61382c565b905082815260208101848484011115612f7e57612f7d613c1b565b5b612f89848285613a0c565b509392505050565b600081359050612fa081613fc9565b92915050565b600081359050612fb581613fe0565b92915050565b600081359050612fca81613ff7565b92915050565b600081359050612fdf8161400e565b92915050565b600081519050612ff48161400e565b92915050565b600082601f83011261300f5761300e613c16565b5b813561301f848260208601612f4f565b91505092915050565b60008135905061303781614025565b92915050565b60006020828403121561305357613052613c25565b5b600061306184828501612f91565b91505092915050565b6000806040838503121561308157613080613c25565b5b600061308f85828601612f91565b92505060206130a085828601612f91565b9150509250929050565b6000806000606084860312156130c3576130c2613c25565b5b60006130d186828701612f91565b93505060206130e286828701612f91565b92505060406130f386828701613028565b9150509250925092565b6000806000806080858703121561311757613116613c25565b5b600061312587828801612f91565b945050602061313687828801612f91565b935050604061314787828801613028565b925050606085013567ffffffffffffffff81111561316857613167613c20565b5b61317487828801612ffa565b91505092959194509250565b6000806040838503121561319757613196613c25565b5b60006131a585828601612f91565b92505060206131b685828601612fa6565b9150509250929050565b600080604083850312156131d7576131d6613c25565b5b60006131e585828601612f91565b92505060206131f685828601613028565b9150509250929050565b60006020828403121561321657613215613c25565b5b600061322484828501612fbb565b91505092915050565b60006020828403121561324357613242613c25565b5b600061325184828501612fd0565b91505092915050565b6000602082840312156132705761326f613c25565b5b600061327e84828501612fe5565b91505092915050565b60006020828403121561329d5761329c613c25565b5b60006132ab84828501613028565b91505092915050565b6132bd81613980565b82525050565b6132cc81613992565b82525050565b6132db8161399e565b82525050565b60006132ec82613882565b6132f68185613898565b9350613306818560208601613a1b565b61330f81613c2a565b840191505092915050565b60006133258261388d565b61332f81856138a9565b935061333f818560208601613a1b565b61334881613c2a565b840191505092915050565b600061335e8261388d565b61336881856138ba565b9350613378818560208601613a1b565b80840191505092915050565b60006133916032836138a9565b915061339c82613c3b565b604082019050919050565b60006133b46024836138a9565b91506133bf82613c8a565b604082019050919050565b60006133d76019836138a9565b91506133e282613cd9565b602082019050919050565b60006133fa602c836138a9565b915061340582613d02565b604082019050919050565b600061341d6038836138a9565b915061342882613d51565b604082019050919050565b6000613440602a836138a9565b915061344b82613da0565b604082019050919050565b60006134636029836138a9565b915061346e82613def565b604082019050919050565b6000613486602c836138a9565b915061349182613e3e565b604082019050919050565b60006134a96029836138a9565b91506134b482613e8d565b604082019050919050565b60006134cc602f836138a9565b91506134d782613edc565b604082019050919050565b60006134ef6021836138a9565b91506134fa82613f2b565b604082019050919050565b60006135126031836138a9565b915061351d82613f7a565b604082019050919050565b613531816139d4565b82525050565b61354081613a02565b82525050565b60006135528285613353565b915061355e8284613353565b91508190509392505050565b600060208201905061357f60008301846132b4565b92915050565b600060808201905061359a60008301876132b4565b6135a760208301866132b4565b6135b46040830185613537565b81810360608301526135c681846132e1565b905095945050505050565b60006020820190506135e660008301846132c3565b92915050565b600060208201905061360160008301846132d2565b92915050565b600060c082019050818103600083015261362181896132e1565b905061363060208301886132d2565b61363d60408301876132d2565b61364a6060830186613528565b61365760808301856132d2565b61366460a08301846132d2565b979650505050505050565b60006020820190508181036000830152613689818461331a565b905092915050565b600060208201905081810360008301526136aa81613384565b9050919050565b600060208201905081810360008301526136ca816133a7565b9050919050565b600060208201905081810360008301526136ea816133ca565b9050919050565b6000602082019050818103600083015261370a816133ed565b9050919050565b6000602082019050818103600083015261372a81613410565b9050919050565b6000602082019050818103600083015261374a81613433565b9050919050565b6000602082019050818103600083015261376a81613456565b9050919050565b6000602082019050818103600083015261378a81613479565b9050919050565b600060208201905081810360008301526137aa8161349c565b9050919050565b600060208201905081810360008301526137ca816134bf565b9050919050565b600060208201905081810360008301526137ea816134e2565b9050919050565b6000602082019050818103600083015261380a81613505565b9050919050565b60006020820190506138266000830184613537565b92915050565b6000613836613847565b90506138428282613a80565b919050565b6000604051905090565b600067ffffffffffffffff82111561386c5761386b613be7565b5b61387582613c2a565b9050602081019050919050565b600081519050919050565b600081519050919050565b600082825260208201905092915050565b600082825260208201905092915050565b600081905092915050565b60006138d082613a02565b91506138db83613a02565b9250827fffffffffffffffffffffffffffffffffffffffffffffffffffffffffffffffff038211156139105761390f613b2b565b5b828201905092915050565b600061392682613a02565b915061393183613a02565b92508261394157613940613b5a565b5b828204905092915050565b600061395782613a02565b915061396283613a02565b92508282101561397557613974613b2b565b5b828203905092915050565b600061398b826139e2565b9050919050565b60008115159050919050565b6000819050919050565b60007fffffffff0000000000000000000000000000000000000000000000000000000082169050919050565b600061ffff82169050919050565b600073ffffffffffffffffffffffffffffffffffffffff82169050919050565b6000819050919050565b82818337600083830152505050565b60005b83811015613a39578082015181840152602081019050613a1e565b83811115613a48576000848401525b50505050565b60006002820490506001821680613a6657607f821691505b60208210811415613a7a57613a79613b89565b5b50919050565b613a8982613c2a565b810181811067ffffffffffffffff82111715613aa857613aa7613be7565b5b80604052505050565b6000613abc82613a02565b91507fffffffffffffffffffffffffffffffffffffffffffffffffffffffffffffffff821415613aef57613aee613b2b565b5b600182019050919050565b6000613b0582613a02565b9150613b1083613a02565b925082613b2057613b1f613b5a565b5b828206905092915050565b7f4e487b7100000000000000000000000000000000000000000000000000000000600052601160045260246000fd5b7f4e487b7100000000000000000000000000000000000000000000000000000000600052601260045260246000fd5b7f4e487b7100000000000000000000000000000000000000000000000000000000600052602260045260246000fd5b7f4e487b7100000000000000000000000000000000000000000000000000000000600052603260045260246000fd5b7f4e487b7100000000000000000000000000000000000000000000000000000000600052604160045260246000fd5b600080fd5b600080fd5b600080fd5b600080fd5b6000601f19601f8301169050919050565b7f4552433732313a207472616e7366657220746f206e6f6e20455243373231526560008201527f63656976657220696d706c656d656e7465720000000000000000000000000000602082015250565b7f4552433732313a207472616e7366657220746f20746865207a65726f2061646460008201527f7265737300000000000000000000000000000000000000000000000000000000602082015250565b7f4552433732313a20617070726f766520746f2063616c6c657200000000000000600082015250565b7f4552433732313a206f70657261746f7220717565727920666f72206e6f6e657860008201527f697374656e7420746f6b656e0000000000000000000000000000000000000000602082015250565b7f4552433732313a20617070726f76652063616c6c6572206973206e6f74206f7760008201527f6e6572206e6f7220617070726f76656420666f7220616c6c0000000000000000602082015250565b7f4552433732313a2062616c616e636520717565727920666f7220746865207a6560008201527f726f206164647265737300000000000000000000000000000000000000000000602082015250565b7f4552433732313a206f776e657220717565727920666f72206e6f6e657869737460008201527f656e7420746f6b656e0000000000000000000000000000000000000000000000602082015250565b7f4552433732313a20617070726f76656420717565727920666f72206e6f6e657860008201527f697374656e7420746f6b656e0000000000000000000000000000000000000000602082015250565b7f4552433732313a207472616e73666572206f6620746f6b656e2074686174206960008201527f73206e6f74206f776e0000000000000000000000000000000000000000000000602082015250565b7f4552433732314d657461646174613a2055524920717565727920666f72206e6f60008201527f6e6578697374656e7420746f6b656e0000000000000000000000000000000000602082015250565b7f4552433732313a20617070726f76616c20746f2063757272656e74206f776e6560008201527f7200000000000000000000000000000000000000000000000000000000000000602082015250565b7f4552433732313a207472616e736665722063616c6c6572206973206e6f74206f60008201527f776e6572206e6f7220617070726f766564000000000000000000000000000000602082015250565b613fd281613980565b8114613fdd57600080fd5b50565b613fe981613992565b8114613ff457600080fd5b50565b6140008161399e565b811461400b57600080fd5b50565b614017816139a8565b811461402257600080fd5b50565b61402e81613a02565b811461403957600080fd5b5056fea2646970667358221220e303d6640010f47a1aebe12920f91102521c67f28bedea8e30e219e9951172ee64736f6c63430008060033",
  "linkReferences": {},
  "deployedLinkReferences": {}
}