{
  "_format": "hh-sol-artifact-1",
  "contractName": "VaccineToken",
  "sourceName": "contracts/VaccineToken.sol",
  "abi": [
    {
      "inputs": [],
      "stateMutability": "nonpayable",
      "type": "constructor"
    },
    {
      "anonymous": false,
      "inputs": [
        {
          "indexed": true,
          "internalType": "address",
          "name": "owner",
          "type": "address"
        },
        {
          "indexed": true,
          "internalType": "address",
          "name": "approved",
          "type": "address"
        },
        {
          "indexed": true,
          "internalType": "uint256",
          "name": "tokenId",
          "type": "uint256"
        }
      ],
      "name": "Approval",
      "type": "event"
    },
    {
      "anonymous": false,
      "inputs": [
        {
          "indexed": true,
          "internalType": "address",
          "name": "owner",
          "type": "address"
        },
        {
          "indexed": true,
          "internalType": "address",
          "name": "operator",
          "type": "address"
        },
        {
          "indexed": false,
          "internalType": "bool",
          "name": "approved",
          "type": "bool"
        }
      ],
      "name": "ApprovalForAll",
      "type": "event"
    },
    {
      "anonymous": false,
      "inputs": [
        {
          "indexed": true,
          "internalType": "address",
          "name": "from",
          "type": "address"
        },
        {
          "indexed": true,
          "internalType": "address",
          "name": "to",
          "type": "address"
        },
        {
          "indexed": true,
          "internalType": "uint256",
          "name": "tokenId",
          "type": "uint256"
        }
      ],
      "name": "Transfer",
      "type": "event"
    },
    {
      "inputs": [
        {
          "internalType": "address",
          "name": "to",
          "type": "address"
        },
        {
          "internalType": "uint256",
          "name": "tokenId",
          "type": "uint256"
        }
      ],
      "name": "approve",
      "outputs": [],
      "stateMutability": "nonpayable",
      "type": "function"
    },
    {
      "inputs": [
        {
          "internalType": "address",
          "name": "owner",
          "type": "address"
        }
      ],
      "name": "balanceOf",
      "outputs": [
        {
          "internalType": "uint256",
          "name": "",
          "type": "uint256"
        }
      ],
      "stateMutability": "view",
      "type": "function"
    },
    {
      "inputs": [
        {
          "internalType": "uint256",
          "name": "tokenId",
          "type": "uint256"
        }
      ],
      "name": "getApproved",
      "outputs": [
        {
          "internalType": "address",
          "name": "",
          "type": "address"
        }
      ],
      "stateMutability": "view",
      "type": "function"
    },
    {
      "inputs": [
        {
          "internalType": "address",
          "name": "owner",
          "type": "address"
        },
        {
          "internalType": "address",
          "name": "operator",
          "type": "address"
        }
      ],
      "name": "isApprovedForAll",
      "outputs": [
        {
          "internalType": "bool",
          "name": "",
          "type": "bool"
        }
      ],
      "stateMutability": "view",
      "type": "function"
    },
    {
      "inputs": [],
      "name": "name",
      "outputs": [
        {
          "internalType": "string",
          "name": "",
          "type": "string"
        }
      ],
      "stateMutability": "view",
      "type": "function"
    },
    {
      "inputs": [
        {
          "internalType": "uint256",
          "name": "tokenId",
          "type": "uint256"
        }
      ],
      "name": "ownerOf",
      "outputs": [
        {
          "internalType": "address",
          "name": "",
          "type": "address"
        }
      ],
      "stateMutability": "view",
      "type": "function"
    },
    {
      "inputs": [
        {
          "internalType": "address",
          "name": "from",
          "type": "address"
        },
        {
          "internalType": "address",
          "name": "to",
          "type": "address"
        },
        {
          "internalType": "uint256",
          "name": "tokenId",
          "type": "uint256"
        }
      ],
      "name": "safeTransferFrom",
      "outputs": [],
      "stateMutability": "nonpayable",
      "type": "function"
    },
    {
      "inputs": [
        {
          "internalType": "address",
          "name": "from",
          "type": "address"
        },
        {
          "internalType": "address",
          "name": "to",
          "type": "address"
        },
        {
          "internalType": "uint256",
          "name": "tokenId",
          "type": "uint256"
        },
        {
          "internalType": "bytes",
          "name": "_data",
          "type": "bytes"
        }
      ],
      "name": "safeTransferFrom",
      "outputs": [],
      "stateMutability": "nonpayable",
      "type": "function"
    },
    {
      "inputs": [
        {
          "internalType": "address",
          "name": "operator",
          "type": "address"
        },
        {
          "internalType": "bool",
          "name": "approved",
          "type": "bool"
        }
      ],
      "name": "setApprovalForAll",
      "outputs": [],
      "stateMutability": "nonpayable",
      "type": "function"
    },
    {
      "inputs": [
        {
          "internalType": "bytes4",
          "name": "interfaceId",
          "type": "bytes4"
        }
      ],
      "name": "supportsInterface",
      "outputs": [
        {
          "internalType": "bool",
          "name": "",
          "type": "bool"
        }
      ],
      "stateMutability": "view",
      "type": "function"
    },
    {
      "inputs": [],
      "name": "symbol",
      "outputs": [
        {
          "internalType": "string",
          "name": "",
          "type": "string"
        }
      ],
      "stateMutability": "view",
      "type": "function"
    },
    {
      "inputs": [
        {
          "internalType": "uint256",
          "name": "tokenId",
          "type": "uint256"
        }
      ],
      "name": "tokenURI",
      "outputs": [
        {
          "internalType": "string",
          "name": "",
          "type": "string"
        }
      ],
      "stateMutability": "view",
      "type": "function"
    },
    {
      "inputs": [
        {
          "internalType": "address",
          "name": "from",
          "type": "address"
        },
        {
          "internalType": "address",
          "name": "to",
          "type": "address"
        },
        {
          "internalType": "uint256",
          "name": "tokenId",
          "type": "uint256"
        }
      ],
      "name": "transferFrom",
      "outputs": [],
      "stateMutability": "nonpayable",
      "type": "function"
    },
    {
      "inputs": [
        {
          "internalType": "address",
          "name": "",
          "type": "address"
        }
      ],
      "name": "vaccinators",
      "outputs": [
        {
          "internalType": "bytes32",
          "name": "",
          "type": "bytes32"
        }
      ],
      "stateMutability": "view",
      "type": "function"
    },
    {
      "inputs": [
        {
          "internalType": "bytes32",
          "name": "",
          "type": "bytes32"
        }
      ],
      "name": "vaccineTokens",
      "outputs": [
        {
          "internalType": "bytes",
          "name": "ipfsHash",
          "type": "bytes"
        },
        {
          "internalType": "bytes32",
          "name": "certificate_id",
          "type": "bytes32"
        },
        {
          "internalType": "bytes32",
          "name": "beneficiary_id",
          "type": "bytes32"
        },
        {
          "internalType": "uint16",
          "name": "country_id",
          "type": "uint16"
        },
        {
          "internalType": "bytes32",
          "name": "ipvc_beneficiary_id",
          "type": "bytes32"
        },
        {
          "internalType": "bytes32",
          "name": "ipvc_vaccinator_id",
          "type": "bytes32"
        }
      ],
      "stateMutability": "view",
      "type": "function"
    }
  ],
  "bytecode": "0x60806040523480156200001157600080fd5b506040518060400160405280600c81526020017f56616363696e65546f6b656e00000000000000000000000000000000000000008152506040518060400160405280600281526020017f5654000000000000000000000000000000000000000000000000000000000000815250816000908051906020019062000096929190620000b8565b508060019080519060200190620000af929190620000b8565b505050620001cd565b828054620000c69062000168565b90600052602060002090601f016020900481019282620000ea576000855562000136565b82601f106200010557805160ff191683800117855562000136565b8280016001018555821562000136579182015b828111156200013557825182559160200191906001019062000118565b5b50905062000145919062000149565b5090565b5b80821115620001645760008160009055506001016200014a565b5090565b600060028204905060018216806200018157607f821691505b602082108114156200019857620001976200019e565b5b50919050565b7f4e487b7100000000000000000000000000000000000000000000000000000000600052602260045260246000fd5b61262880620001dd6000396000f3fe608060405234801561001057600080fd5b50600436106100f55760003560e01c80634a17f10111610097578063a22cb46511610066578063a22cb465146102af578063b88d4fde146102cb578063c87b56dd146102e7578063e985e9c514610317576100f5565b80634a17f101146101fc5780636352211e1461023157806370a082311461026157806395d89b4114610291576100f5565b8063095ea7b3116100d3578063095ea7b3146101785780630e92c8c51461019457806323b872dd146101c457806342842e0e146101e0576100f5565b806301ffc9a7146100fa57806306fdde031461012a578063081812fc14610148575b600080fd5b610114600480360381019061010f9190611832565b610347565b6040516101219190611bca565b60405180910390f35b610132610429565b60405161013f9190611c68565b60405180910390f35b610162600480360381019061015d9190611884565b6104bb565b60405161016f9190611b63565b60405180910390f35b610192600480360381019061018d91906117cd565b610540565b005b6101ae60048036038101906101a99190611662565b610658565b6040516101bb9190611be5565b60405180910390f35b6101de60048036038101906101d991906116c7565b610670565b005b6101fa60048036038101906101f591906116c7565b6106d0565b005b61021660048036038101906102119190611809565b6106f0565b60405161022896959493929190611c00565b60405180910390f35b61024b60048036038101906102469190611884565b6107c2565b6040516102589190611b63565b60405180910390f35b61027b60048036038101906102769190611662565b610874565b6040516102889190611e0a565b60405180910390f35b61029961092c565b6040516102a69190611c68565b60405180910390f35b6102c960048036038101906102c49190611791565b6109be565b005b6102e560048036038101906102e09190611716565b610b3f565b005b61030160048036038101906102fc9190611884565b610ba1565b60405161030e9190611c68565b60405180910390f35b610331600480360381019061032c919061168b565b610c48565b60405161033e9190611bca565b60405180910390f35b60007f80ac58cd000000000000000000000000000000000000000000000000000000007bffffffffffffffffffffffffffffffffffffffffffffffffffffffff1916827bffffffffffffffffffffffffffffffffffffffffffffffffffffffff1916148061041257507f5b5e139f000000000000000000000000000000000000000000000000000000007bffffffffffffffffffffffffffffffffffffffffffffffffffffffff1916827bffffffffffffffffffffffffffffffffffffffffffffffffffffffff1916145b80610422575061042182610cdc565b5b9050919050565b60606000805461043890612047565b80601f016020809104026020016040519081016040528092919081815260200182805461046490612047565b80156104b15780601f10610486576101008083540402835291602001916104b1565b820191906000526020600020905b81548152906001019060200180831161049457829003601f168201915b5050505050905090565b60006104c682610d46565b610505576040517f08c379a00000000000000000000000000000000000000000000000000000000081526004016104fc90611d6a565b60405180910390fd5b6004600083815260200190815260200160002060009054906101000a900473ffffffffffffffffffffffffffffffffffffffff169050919050565b600061054b826107c2565b90508073ffffffffffffffffffffffffffffffffffffffff168373ffffffffffffffffffffffffffffffffffffffff1614156105bc576040517f08c379a00000000000000000000000000000000000000000000000000000000081526004016105b390611dca565b60405180910390fd5b8073ffffffffffffffffffffffffffffffffffffffff166105db610db2565b73ffffffffffffffffffffffffffffffffffffffff16148061060a575061060981610604610db2565b610c48565b5b610649576040517f08c379a000000000000000000000000000000000000000000000000000000000815260040161064090611d0a565b60405180910390fd5b6106538383610dba565b505050565b60076020528060005260406000206000915090505481565b61068161067b610db2565b82610e73565b6106c0576040517f08c379a00000000000000000000000000000000000000000000000000000000081526004016106b790611dea565b60405180910390fd5b6106cb838383610f51565b505050565b6106eb83838360405180602001604052806000815250610b3f565b505050565b600660205280600052604060002060009150905080600001805461071390612047565b80601f016020809104026020016040519081016040528092919081815260200182805461073f90612047565b801561078c5780601f106107615761010080835404028352916020019161078c565b820191906000526020600020905b81548152906001019060200180831161076f57829003601f168201915b5050505050908060010154908060020154908060030160009054906101000a900461ffff16908060040154908060050154905086565b6000806002600084815260200190815260200160002060009054906101000a900473ffffffffffffffffffffffffffffffffffffffff169050600073ffffffffffffffffffffffffffffffffffffffff168173ffffffffffffffffffffffffffffffffffffffff16141561086b576040517f08c379a000000000000000000000000000000000000000000000000000000000815260040161086290611d4a565b60405180910390fd5b80915050919050565b60008073ffffffffffffffffffffffffffffffffffffffff168273ffffffffffffffffffffffffffffffffffffffff1614156108e5576040517f08c379a00000000000000000000000000000000000000000000000000000000081526004016108dc90611d2a565b60405180910390fd5b600360008373ffffffffffffffffffffffffffffffffffffffff1673ffffffffffffffffffffffffffffffffffffffff168152602001908152602001600020549050919050565b60606001805461093b90612047565b80601f016020809104026020016040519081016040528092919081815260200182805461096790612047565b80156109b45780601f10610989576101008083540402835291602001916109b4565b820191906000526020600020905b81548152906001019060200180831161099757829003601f168201915b5050505050905090565b6109c6610db2565b73ffffffffffffffffffffffffffffffffffffffff168273ffffffffffffffffffffffffffffffffffffffff161415610a34576040517f08c379a0000000000000000000000000000000000000000000000000000000008152600401610a2b90611cca565b60405180910390fd5b8060056000610a41610db2565b73ffffffffffffffffffffffffffffffffffffffff1673ffffffffffffffffffffffffffffffffffffffff16815260200190815260200160002060008473ffffffffffffffffffffffffffffffffffffffff1673ffffffffffffffffffffffffffffffffffffffff16815260200190815260200160002060006101000a81548160ff0219169083151502179055508173ffffffffffffffffffffffffffffffffffffffff16610aee610db2565b73ffffffffffffffffffffffffffffffffffffffff167f17307eab39ab6107e8899845ad3d59bd9653f200f220920489ca2b5937696c3183604051610b339190611bca565b60405180910390a35050565b610b50610b4a610db2565b83610e73565b610b8f576040517f08c379a0000000000000000000000000000000000000000000000000000000008152600401610b8690611dea565b60405180910390fd5b610b9b848484846111ad565b50505050565b6060610bac82610d46565b610beb576040517f08c379a0000000000000000000000000000000000000000000000000000000008152600401610be290611daa565b60405180910390fd5b6000610bf5611209565b90506000815111610c155760405180602001604052806000815250610c40565b80610c1f84611220565b604051602001610c30929190611b3f565b6040516020818303038152906040525b915050919050565b6000600560008473ffffffffffffffffffffffffffffffffffffffff1673ffffffffffffffffffffffffffffffffffffffff16815260200190815260200160002060008373ffffffffffffffffffffffffffffffffffffffff1673ffffffffffffffffffffffffffffffffffffffff16815260200190815260200160002060009054906101000a900460ff16905092915050565b60007f01ffc9a7000000000000000000000000000000000000000000000000000000007bffffffffffffffffffffffffffffffffffffffffffffffffffffffff1916827bffffffffffffffffffffffffffffffffffffffffffffffffffffffff1916149050919050565b60008073ffffffffffffffffffffffffffffffffffffffff166002600084815260200190815260200160002060009054906101000a900473ffffffffffffffffffffffffffffffffffffffff1673ffffffffffffffffffffffffffffffffffffffff1614159050919050565b600033905090565b816004600083815260200190815260200160002060006101000a81548173ffffffffffffffffffffffffffffffffffffffff021916908373ffffffffffffffffffffffffffffffffffffffff160217905550808273ffffffffffffffffffffffffffffffffffffffff16610e2d836107c2565b73ffffffffffffffffffffffffffffffffffffffff167f8c5be1e5ebec7d5bd14f71427d1e84f3dd0314c0f7b2291e5b200ac8c7c3b92560405160405180910390a45050565b6000610e7e82610d46565b610ebd576040517f08c379a0000000000000000000000000000000000000000000000000000000008152600401610eb490611cea565b60405180910390fd5b6000610ec8836107c2565b90508073ffffffffffffffffffffffffffffffffffffffff168473ffffffffffffffffffffffffffffffffffffffff161480610f3757508373ffffffffffffffffffffffffffffffffffffffff16610f1f846104bb565b73ffffffffffffffffffffffffffffffffffffffff16145b80610f485750610f478185610c48565b5b91505092915050565b8273ffffffffffffffffffffffffffffffffffffffff16610f71826107c2565b73ffffffffffffffffffffffffffffffffffffffff1614610fc7576040517f08c379a0000000000000000000000000000000000000000000000000000000008152600401610fbe90611d8a565b60405180910390fd5b600073ffffffffffffffffffffffffffffffffffffffff168273ffffffffffffffffffffffffffffffffffffffff161415611037576040517f08c379a000000000000000000000000000000000000000000000000000000000815260040161102e90611caa565b60405180910390fd5b6110428383836113cd565b61104d600082610dba565b6001600360008573ffffffffffffffffffffffffffffffffffffffff1673ffffffffffffffffffffffffffffffffffffffff168152602001908152602001600020600082825461109d9190611f45565b925050819055506001600360008473ffffffffffffffffffffffffffffffffffffffff1673ffffffffffffffffffffffffffffffffffffffff16815260200190815260200160002060008282546110f49190611ebe565b92505081905550816002600083815260200190815260200160002060006101000a81548173ffffffffffffffffffffffffffffffffffffffff021916908373ffffffffffffffffffffffffffffffffffffffff160217905550808273ffffffffffffffffffffffffffffffffffffffff168473ffffffffffffffffffffffffffffffffffffffff167fddf252ad1be2c89b69c2b068fc378daa952ba7f163c4a11628f55a4df523b3ef60405160405180910390a4505050565b6111b8848484610f51565b6111c4848484846113d2565b611203576040517f08c379a00000000000000000000000000000000000000000000000000000000081526004016111fa90611c8a565b60405180910390fd5b50505050565b606060405180602001604052806000815250905090565b60606000821415611268576040518060400160405280600181526020017f300000000000000000000000000000000000000000000000000000000000000081525090506113c8565b600082905060005b6000821461129a578080611283906120aa565b915050600a826112939190611f14565b9150611270565b60008167ffffffffffffffff8111156112dc577f4e487b7100000000000000000000000000000000000000000000000000000000600052604160045260246000fd5b6040519080825280601f01601f19166020018201604052801561130e5781602001600182028036833780820191505090505b5090505b600085146113c1576001826113279190611f45565b9150600a8561133691906120f3565b60306113429190611ebe565b60f81b81838151811061137e577f4e487b7100000000000000000000000000000000000000000000000000000000600052603260045260246000fd5b60200101907effffffffffffffffffffffffffffffffffffffffffffffffffffffffffffff1916908160001a905350600a856113ba9190611f14565b9450611312565b8093505050505b919050565b505050565b60006113f38473ffffffffffffffffffffffffffffffffffffffff16611569565b1561155c578373ffffffffffffffffffffffffffffffffffffffff1663150b7a0261141c610db2565b8786866040518563ffffffff1660e01b815260040161143e9493929190611b7e565b602060405180830381600087803b15801561145857600080fd5b505af192505050801561148957506040513d601f19601f82011682018060405250810190611486919061185b565b60015b61150c573d80600081146114b9576040519150601f19603f3d011682016040523d82523d6000602084013e6114be565b606091505b50600081511415611504576040517f08c379a00000000000000000000000000000000000000000000000000000000081526004016114fb90611c8a565b60405180910390fd5b805181602001fd5b63150b7a0260e01b7bffffffffffffffffffffffffffffffffffffffffffffffffffffffff1916817bffffffffffffffffffffffffffffffffffffffffffffffffffffffff191614915050611561565b600190505b949350505050565b600080823b905060008111915050919050565b600061158f61158a84611e4a565b611e25565b9050828152602081018484840111156115a757600080fd5b6115b2848285612005565b509392505050565b6000813590506115c98161257f565b92915050565b6000813590506115de81612596565b92915050565b6000813590506115f3816125ad565b92915050565b600081359050611608816125c4565b92915050565b60008151905061161d816125c4565b92915050565b600082601f83011261163457600080fd5b813561164484826020860161157c565b91505092915050565b60008135905061165c816125db565b92915050565b60006020828403121561167457600080fd5b6000611682848285016115ba565b91505092915050565b6000806040838503121561169e57600080fd5b60006116ac858286016115ba565b92505060206116bd858286016115ba565b9150509250929050565b6000806000606084860312156116dc57600080fd5b60006116ea868287016115ba565b93505060206116fb868287016115ba565b925050604061170c8682870161164d565b9150509250925092565b6000806000806080858703121561172c57600080fd5b600061173a878288016115ba565b945050602061174b878288016115ba565b935050604061175c8782880161164d565b925050606085013567ffffffffffffffff81111561177957600080fd5b61178587828801611623565b91505092959194509250565b600080604083850312156117a457600080fd5b60006117b2858286016115ba565b92505060206117c3858286016115cf565b9150509250929050565b600080604083850312156117e057600080fd5b60006117ee858286016115ba565b92505060206117ff8582860161164d565b9150509250929050565b60006020828403121561181b57600080fd5b6000611829848285016115e4565b91505092915050565b60006020828403121561184457600080fd5b6000611852848285016115f9565b91505092915050565b60006020828403121561186d57600080fd5b600061187b8482850161160e565b91505092915050565b60006020828403121561189657600080fd5b60006118a48482850161164d565b91505092915050565b6118b681611f79565b82525050565b6118c581611f8b565b82525050565b6118d481611f97565b82525050565b60006118e582611e7b565b6118ef8185611e91565b93506118ff818560208601612014565b611908816121e0565b840191505092915050565b600061191e82611e86565b6119288185611ea2565b9350611938818560208601612014565b611941816121e0565b840191505092915050565b600061195782611e86565b6119618185611eb3565b9350611971818560208601612014565b80840191505092915050565b600061198a603283611ea2565b9150611995826121f1565b604082019050919050565b60006119ad602483611ea2565b91506119b882612240565b604082019050919050565b60006119d0601983611ea2565b91506119db8261228f565b602082019050919050565b60006119f3602c83611ea2565b91506119fe826122b8565b604082019050919050565b6000611a16603883611ea2565b9150611a2182612307565b604082019050919050565b6000611a39602a83611ea2565b9150611a4482612356565b604082019050919050565b6000611a5c602983611ea2565b9150611a67826123a5565b604082019050919050565b6000611a7f602c83611ea2565b9150611a8a826123f4565b604082019050919050565b6000611aa2602983611ea2565b9150611aad82612443565b604082019050919050565b6000611ac5602f83611ea2565b9150611ad082612492565b604082019050919050565b6000611ae8602183611ea2565b9150611af3826124e1565b604082019050919050565b6000611b0b603183611ea2565b9150611b1682612530565b604082019050919050565b611b2a81611fcd565b82525050565b611b3981611ffb565b82525050565b6000611b4b828561194c565b9150611b57828461194c565b91508190509392505050565b6000602082019050611b7860008301846118ad565b92915050565b6000608082019050611b9360008301876118ad565b611ba060208301866118ad565b611bad6040830185611b30565b8181036060830152611bbf81846118da565b905095945050505050565b6000602082019050611bdf60008301846118bc565b92915050565b6000602082019050611bfa60008301846118cb565b92915050565b600060c0820190508181036000830152611c1a81896118da565b9050611c2960208301886118cb565b611c3660408301876118cb565b611c436060830186611b21565b611c5060808301856118cb565b611c5d60a08301846118cb565b979650505050505050565b60006020820190508181036000830152611c828184611913565b905092915050565b60006020820190508181036000830152611ca38161197d565b9050919050565b60006020820190508181036000830152611cc3816119a0565b9050919050565b60006020820190508181036000830152611ce3816119c3565b9050919050565b60006020820190508181036000830152611d03816119e6565b9050919050565b60006020820190508181036000830152611d2381611a09565b9050919050565b60006020820190508181036000830152611d4381611a2c565b9050919050565b60006020820190508181036000830152611d6381611a4f565b9050919050565b60006020820190508181036000830152611d8381611a72565b9050919050565b60006020820190508181036000830152611da381611a95565b9050919050565b60006020820190508181036000830152611dc381611ab8565b9050919050565b60006020820190508181036000830152611de381611adb565b9050919050565b60006020820190508181036000830152611e0381611afe565b9050919050565b6000602082019050611e1f6000830184611b30565b92915050565b6000611e2f611e40565b9050611e3b8282612079565b919050565b6000604051905090565b600067ffffffffffffffff821115611e6557611e646121b1565b5b611e6e826121e0565b9050602081019050919050565b600081519050919050565b600081519050919050565b600082825260208201905092915050565b600082825260208201905092915050565b600081905092915050565b6000611ec982611ffb565b9150611ed483611ffb565b9250827fffffffffffffffffffffffffffffffffffffffffffffffffffffffffffffffff03821115611f0957611f08612124565b5b828201905092915050565b6000611f1f82611ffb565b9150611f2a83611ffb565b925082611f3a57611f39612153565b5b828204905092915050565b6000611f5082611ffb565b9150611f5b83611ffb565b925082821015611f6e57611f6d612124565b5b828203905092915050565b6000611f8482611fdb565b9050919050565b60008115159050919050565b6000819050919050565b60007fffffffff0000000000000000000000000000000000000000000000000000000082169050919050565b600061ffff82169050919050565b600073ffffffffffffffffffffffffffffffffffffffff82169050919050565b6000819050919050565b82818337600083830152505050565b60005b83811015612032578082015181840152602081019050612017565b83811115612041576000848401525b50505050565b6000600282049050600182168061205f57607f821691505b6020821081141561207357612072612182565b5b50919050565b612082826121e0565b810181811067ffffffffffffffff821117156120a1576120a06121b1565b5b80604052505050565b60006120b582611ffb565b91507fffffffffffffffffffffffffffffffffffffffffffffffffffffffffffffffff8214156120e8576120e7612124565b5b600182019050919050565b60006120fe82611ffb565b915061210983611ffb565b92508261211957612118612153565b5b828206905092915050565b7f4e487b7100000000000000000000000000000000000000000000000000000000600052601160045260246000fd5b7f4e487b7100000000000000000000000000000000000000000000000000000000600052601260045260246000fd5b7f4e487b7100000000000000000000000000000000000000000000000000000000600052602260045260246000fd5b7f4e487b7100000000000000000000000000000000000000000000000000000000600052604160045260246000fd5b6000601f19601f8301169050919050565b7f4552433732313a207472616e7366657220746f206e6f6e20455243373231526560008201527f63656976657220696d706c656d656e7465720000000000000000000000000000602082015250565b7f4552433732313a207472616e7366657220746f20746865207a65726f2061646460008201527f7265737300000000000000000000000000000000000000000000000000000000602082015250565b7f4552433732313a20617070726f766520746f2063616c6c657200000000000000600082015250565b7f4552433732313a206f70657261746f7220717565727920666f72206e6f6e657860008201527f697374656e7420746f6b656e0000000000000000000000000000000000000000602082015250565b7f4552433732313a20617070726f76652063616c6c6572206973206e6f74206f7760008201527f6e6572206e6f7220617070726f76656420666f7220616c6c0000000000000000602082015250565b7f4552433732313a2062616c616e636520717565727920666f7220746865207a6560008201527f726f206164647265737300000000000000000000000000000000000000000000602082015250565b7f4552433732313a206f776e657220717565727920666f72206e6f6e657869737460008201527f656e7420746f6b656e0000000000000000000000000000000000000000000000602082015250565b7f4552433732313a20617070726f76656420717565727920666f72206e6f6e657860008201527f697374656e7420746f6b656e0000000000000000000000000000000000000000602082015250565b7f4552433732313a207472616e73666572206f6620746f6b656e2074686174206960008201527f73206e6f74206f776e0000000000000000000000000000000000000000000000602082015250565b7f4552433732314d657461646174613a2055524920717565727920666f72206e6f60008201527f6e6578697374656e7420746f6b656e0000000000000000000000000000000000602082015250565b7f4552433732313a20617070726f76616c20746f2063757272656e74206f776e6560008201527f7200000000000000000000000000000000000000000000000000000000000000602082015250565b7f4552433732313a207472616e736665722063616c6c6572206973206e6f74206f60008201527f776e6572206e6f7220617070726f766564000000000000000000000000000000602082015250565b61258881611f79565b811461259357600080fd5b50565b61259f81611f8b565b81146125aa57600080fd5b50565b6125b681611f97565b81146125c157600080fd5b50565b6125cd81611fa1565b81146125d857600080fd5b50565b6125e481611ffb565b81146125ef57600080fd5b5056fea264697066735822122029083674927f4939030656486d0402e45a72654c75a478642fdbe27145f3b11a64736f6c63430008040033",
  "linkReferences": {},
  "deployedLinkReferences": {}
}