{
  "_format": "hh-sol-artifact-1",
  "contractName": "Warriors",
  "sourceName": "contracts/demo/Warriors.sol",
  "abi": [
    {
      "inputs": [
        {
          "internalType": "address",
          "name": "_controller",
          "type": "address"
        }
      ],
      "stateMutability": "nonpayable",
      "type": "constructor"
    },
    {
      "anonymous": false,
      "inputs": [
        {
          "indexed": true,
          "internalType": "address",
          "name": "owner",
          "type": "address"
        },
        {
          "indexed": true,
          "internalType": "address",
          "name": "approved",
          "type": "address"
        },
        {
          "indexed": true,
          "internalType": "uint256",
          "name": "tokenId",
          "type": "uint256"
        }
      ],
      "name": "Approval",
      "type": "event"
    },
    {
      "anonymous": false,
      "inputs": [
        {
          "indexed": true,
          "internalType": "address",
          "name": "owner",
          "type": "address"
        },
        {
          "indexed": true,
          "internalType": "address",
          "name": "operator",
          "type": "address"
        },
        {
          "indexed": false,
          "internalType": "bool",
          "name": "approved",
          "type": "bool"
        }
      ],
      "name": "ApprovalForAll",
      "type": "event"
    },
    {
      "anonymous": false,
      "inputs": [
        {
          "indexed": true,
          "internalType": "address",
          "name": "from",
          "type": "address"
        },
        {
          "indexed": true,
          "internalType": "address",
          "name": "to",
          "type": "address"
        },
        {
          "indexed": true,
          "internalType": "uint256",
          "name": "tokenId",
          "type": "uint256"
        }
      ],
      "name": "Transfer",
      "type": "event"
    },
    {
      "anonymous": false,
      "inputs": [
        {
          "indexed": true,
          "internalType": "address",
          "name": "owner",
          "type": "address"
        },
        {
          "indexed": true,
          "internalType": "uint256",
          "name": "warriorId",
          "type": "uint256"
        }
      ],
      "name": "WarriorGenerated",
      "type": "event"
    },
    {
      "inputs": [
        {
          "internalType": "address",
          "name": "to",
          "type": "address"
        },
        {
          "internalType": "uint256",
          "name": "tokenId",
          "type": "uint256"
        }
      ],
      "name": "approve",
      "outputs": [],
      "stateMutability": "nonpayable",
      "type": "function"
    },
    {
      "inputs": [
        {
          "internalType": "address",
          "name": "owner",
          "type": "address"
        }
      ],
      "name": "balanceOf",
      "outputs": [
        {
          "internalType": "uint256",
          "name": "",
          "type": "uint256"
        }
      ],
      "stateMutability": "view",
      "type": "function"
    },
    {
      "inputs": [],
      "name": "controller",
      "outputs": [
        {
          "internalType": "address",
          "name": "",
          "type": "address"
        }
      ],
      "stateMutability": "view",
      "type": "function"
    },
    {
      "inputs": [
        {
          "internalType": "uint256",
          "name": "_gene",
          "type": "uint256"
        },
        {
          "internalType": "address",
          "name": "_owner",
          "type": "address"
        }
      ],
      "name": "generateWarrior",
      "outputs": [],
      "stateMutability": "nonpayable",
      "type": "function"
    },
    {
      "inputs": [
        {
          "internalType": "uint256",
          "name": "tokenId",
          "type": "uint256"
        }
      ],
      "name": "getApproved",
      "outputs": [
        {
          "internalType": "address",
          "name": "",
          "type": "address"
        }
      ],
      "stateMutability": "view",
      "type": "function"
    },
    {
      "inputs": [
        {
          "internalType": "address",
          "name": "owner",
          "type": "address"
        },
        {
          "internalType": "address",
          "name": "operator",
          "type": "address"
        }
      ],
      "name": "isApprovedForAll",
      "outputs": [
        {
          "internalType": "bool",
          "name": "",
          "type": "bool"
        }
      ],
      "stateMutability": "view",
      "type": "function"
    },
    {
      "inputs": [],
      "name": "name",
      "outputs": [
        {
          "internalType": "string",
          "name": "",
          "type": "string"
        }
      ],
      "stateMutability": "view",
      "type": "function"
    },
    {
      "inputs": [
        {
          "internalType": "uint256",
          "name": "tokenId",
          "type": "uint256"
        }
      ],
      "name": "ownerOf",
      "outputs": [
        {
          "internalType": "address",
          "name": "",
          "type": "address"
        }
      ],
      "stateMutability": "view",
      "type": "function"
    },
    {
      "inputs": [
        {
          "internalType": "address",
          "name": "from",
          "type": "address"
        },
        {
          "internalType": "address",
          "name": "to",
          "type": "address"
        },
        {
          "internalType": "uint256",
          "name": "tokenId",
          "type": "uint256"
        }
      ],
      "name": "safeTransferFrom",
      "outputs": [],
      "stateMutability": "nonpayable",
      "type": "function"
    },
    {
      "inputs": [
        {
          "internalType": "address",
          "name": "from",
          "type": "address"
        },
        {
          "internalType": "address",
          "name": "to",
          "type": "address"
        },
        {
          "internalType": "uint256",
          "name": "tokenId",
          "type": "uint256"
        },
        {
          "internalType": "bytes",
          "name": "_data",
          "type": "bytes"
        }
      ],
      "name": "safeTransferFrom",
      "outputs": [],
      "stateMutability": "nonpayable",
      "type": "function"
    },
    {
      "inputs": [
        {
          "internalType": "address",
          "name": "operator",
          "type": "address"
        },
        {
          "internalType": "bool",
          "name": "approved",
          "type": "bool"
        }
      ],
      "name": "setApprovalForAll",
      "outputs": [],
      "stateMutability": "nonpayable",
      "type": "function"
    },
    {
      "inputs": [
        {
          "internalType": "bytes4",
          "name": "interfaceId",
          "type": "bytes4"
        }
      ],
      "name": "supportsInterface",
      "outputs": [
        {
          "internalType": "bool",
          "name": "",
          "type": "bool"
        }
      ],
      "stateMutability": "view",
      "type": "function"
    },
    {
      "inputs": [],
      "name": "symbol",
      "outputs": [
        {
          "internalType": "string",
          "name": "",
          "type": "string"
        }
      ],
      "stateMutability": "view",
      "type": "function"
    },
    {
      "inputs": [
        {
          "internalType": "uint256",
          "name": "tokenId",
          "type": "uint256"
        }
      ],
      "name": "tokenURI",
      "outputs": [
        {
          "internalType": "string",
          "name": "",
          "type": "string"
        }
      ],
      "stateMutability": "view",
      "type": "function"
    },
    {
      "inputs": [],
      "name": "token_version",
      "outputs": [
        {
          "internalType": "string",
          "name": "",
          "type": "string"
        }
      ],
      "stateMutability": "view",
      "type": "function"
    },
    {
      "inputs": [
        {
          "internalType": "address",
          "name": "from",
          "type": "address"
        },
        {
          "internalType": "address",
          "name": "to",
          "type": "address"
        },
        {
          "internalType": "uint256",
          "name": "tokenId",
          "type": "uint256"
        }
      ],
      "name": "transferFrom",
      "outputs": [],
      "stateMutability": "nonpayable",
      "type": "function"
    },
    {
      "inputs": [
        {
          "internalType": "uint256",
          "name": "",
          "type": "uint256"
        }
      ],
      "name": "warriors",
      "outputs": [
        {
          "internalType": "uint256",
          "name": "",
          "type": "uint256"
        }
      ],
      "stateMutability": "view",
      "type": "function"
    }
  ],
  "bytecode": "0x60a06040523480156200001157600080fd5b5060405162002f3f38038062002f3f83398181016040528101906200003791906200024f565b6040518060400160405280600c81526020017f56616363696e65546f6b656e00000000000000000000000000000000000000008152506040518060400160405280600281526020017f56540000000000000000000000000000000000000000000000000000000000008152508160009080519060200190620000bb92919062000188565b508060019080519060200190620000d492919062000188565b505050600073ffffffffffffffffffffffffffffffffffffffff168173ffffffffffffffffffffffffffffffffffffffff1614156200014a576040517f08c379a00000000000000000000000000000000000000000000000000000000081526004016200014190620002a2565b60405180910390fd5b8073ffffffffffffffffffffffffffffffffffffffff1660808173ffffffffffffffffffffffffffffffffffffffff1660601b8152505050620003d7565b828054620001969062000309565b90600052602060002090601f016020900481019282620001ba576000855562000206565b82601f10620001d557805160ff191683800117855562000206565b8280016001018555821562000206579182015b8281111562000205578251825591602001919060010190620001e8565b5b50905062000215919062000219565b5090565b5b80821115620002345760008160009055506001016200021a565b5090565b6000815190506200024981620003bd565b92915050565b6000602082840312156200026257600080fd5b6000620002728482850162000238565b91505092915050565b60006200028a603383620002c4565b915062000297826200036e565b604082019050919050565b60006020820190508181036000830152620002bd816200027b565b9050919050565b600082825260208201905092915050565b6000620002e282620002e9565b9050919050565b600073ffffffffffffffffffffffffffffffffffffffff82169050919050565b600060028204905060018216806200032257607f821691505b602082108114156200033957620003386200033f565b5b50919050565b7f4e487b7100000000000000000000000000000000000000000000000000000000600052602260045260246000fd5b7f57617272696f72733a20436f6e74726f6c6c657220616464726573732063616e60008201527f6e6f74206265207a65726f206164647265737300000000000000000000000000602082015250565b620003c881620002d5565b8114620003d457600080fd5b50565b60805160601c612b42620003fd60003960008181610ae10152610e4a0152612b426000f3fe608060405234801561001057600080fd5b506004361061010b5760003560e01c806370a08231116100a2578063b71df98911610071578063b71df989146102ca578063b88d4fde146102e6578063c87b56dd14610302578063e985e9c514610332578063f77c4791146103625761010b565b806370a08231146102425780637fdaa7341461027257806395d89b4114610290578063a22cb465146102ae5761010b565b80631a170712116100de5780631a170712146101aa57806323b872dd146101da57806342842e0e146101f65780636352211e146102125761010b565b806301ffc9a71461011057806306fdde0314610140578063081812fc1461015e578063095ea7b31461018e575b600080fd5b61012a60048036038101906101259190611b52565b610380565b6040516101379190611fb7565b60405180910390f35b610148610462565b6040516101559190611fd2565b60405180910390f35b61017860048036038101906101739190611ba4565b6104f4565b6040516101859190611f50565b60405180910390f35b6101a860048036038101906101a39190611b16565b610579565b005b6101c460048036038101906101bf9190611ba4565b610691565b6040516101d19190612214565b60405180910390f35b6101f460048036038101906101ef9190611a10565b6106a9565b005b610210600480360381019061020b9190611a10565b610709565b005b61022c60048036038101906102279190611ba4565b610729565b6040516102399190611f50565b60405180910390f35b61025c600480360381019061025791906119ab565b6107db565b6040516102699190612214565b60405180910390f35b61027a610893565b6040516102879190611fd2565b60405180910390f35b6102986108cc565b6040516102a59190611fd2565b60405180910390f35b6102c860048036038101906102c39190611ada565b61095e565b005b6102e460048036038101906102df9190611bcd565b610adf565b005b61030060048036038101906102fb9190611a5f565b610cab565b005b61031c60048036038101906103179190611ba4565b610d0d565b6040516103299190611fd2565b60405180910390f35b61034c600480360381019061034791906119d4565b610db4565b6040516103599190611fb7565b60405180910390f35b61036a610e48565b6040516103779190611f50565b60405180910390f35b60007f80ac58cd000000000000000000000000000000000000000000000000000000007bffffffffffffffffffffffffffffffffffffffffffffffffffffffff1916827bffffffffffffffffffffffffffffffffffffffffffffffffffffffff1916148061044b57507f5b5e139f000000000000000000000000000000000000000000000000000000007bffffffffffffffffffffffffffffffffffffffffffffffffffffffff1916827bffffffffffffffffffffffffffffffffffffffffffffffffffffffff1916145b8061045b575061045a82610e6c565b5b9050919050565b60606000805461047190612439565b80601f016020809104026020016040519081016040528092919081815260200182805461049d90612439565b80156104ea5780601f106104bf576101008083540402835291602001916104ea565b820191906000526020600020905b8154815290600101906020018083116104cd57829003601f168201915b5050505050905090565b60006104ff82610ed6565b61053e576040517f08c379a000000000000000000000000000000000000000000000000000000000815260040161053590612134565b60405180910390fd5b6004600083815260200190815260200160002060009054906101000a900473ffffffffffffffffffffffffffffffffffffffff169050919050565b600061058482610729565b90508073ffffffffffffffffffffffffffffffffffffffff168373ffffffffffffffffffffffffffffffffffffffff1614156105f5576040517f08c379a00000000000000000000000000000000000000000000000000000000081526004016105ec90612194565b60405180910390fd5b8073ffffffffffffffffffffffffffffffffffffffff16610614610f42565b73ffffffffffffffffffffffffffffffffffffffff16148061064357506106428161063d610f42565b610db4565b5b610682576040517f08c379a000000000000000000000000000000000000000000000000000000000815260040161067990612094565b60405180910390fd5b61068c8383610f4a565b505050565b60066020528060005260406000206000915090505481565b6106ba6106b4610f42565b82611003565b6106f9576040517f08c379a00000000000000000000000000000000000000000000000000000000081526004016106f0906121b4565b60405180910390fd5b6107048383836110e1565b505050565b61072483838360405180602001604052806000815250610cab565b505050565b6000806002600084815260200190815260200160002060009054906101000a900473ffffffffffffffffffffffffffffffffffffffff169050600073ffffffffffffffffffffffffffffffffffffffff168173ffffffffffffffffffffffffffffffffffffffff1614156107d2576040517f08c379a00000000000000000000000000000000000000000000000000000000081526004016107c9906120d4565b60405180910390fd5b80915050919050565b60008073ffffffffffffffffffffffffffffffffffffffff168273ffffffffffffffffffffffffffffffffffffffff16141561084c576040517f08c379a0000000000000000000000000000000000000000000000000000000008152600401610843906120b4565b60405180910390fd5b600360008373ffffffffffffffffffffffffffffffffffffffff1673ffffffffffffffffffffffffffffffffffffffff168152602001908152602001600020549050919050565b6040518060400160405280600a81526020017f302e312e302d626574610000000000000000000000000000000000000000000081525081565b6060600180546108db90612439565b80601f016020809104026020016040519081016040528092919081815260200182805461090790612439565b80156109545780601f1061092957610100808354040283529160200191610954565b820191906000526020600020905b81548152906001019060200180831161093757829003601f168201915b5050505050905090565b610966610f42565b73ffffffffffffffffffffffffffffffffffffffff168273ffffffffffffffffffffffffffffffffffffffff1614156109d4576040517f08c379a00000000000000000000000000000000000000000000000000000000081526004016109cb90612054565b60405180910390fd5b80600560006109e1610f42565b73ffffffffffffffffffffffffffffffffffffffff1673ffffffffffffffffffffffffffffffffffffffff16815260200190815260200160002060008473ffffffffffffffffffffffffffffffffffffffff1673ffffffffffffffffffffffffffffffffffffffff16815260200190815260200160002060006101000a81548160ff0219169083151502179055508173ffffffffffffffffffffffffffffffffffffffff16610a8e610f42565b73ffffffffffffffffffffffffffffffffffffffff167f17307eab39ab6107e8899845ad3d59bd9653f200f220920489ca2b5937696c3183604051610ad39190611fb7565b60405180910390a35050565b7f000000000000000000000000000000000000000000000000000000000000000073ffffffffffffffffffffffffffffffffffffffff163373ffffffffffffffffffffffffffffffffffffffff1614610b6d576040517f08c379a0000000000000000000000000000000000000000000000000000000008152600401610b64906121d4565b60405180910390fd5b6000821415610bb1576040517f08c379a0000000000000000000000000000000000000000000000000000000008152600401610ba8906120f4565b60405180910390fd5b600073ffffffffffffffffffffffffffffffffffffffff168173ffffffffffffffffffffffffffffffffffffffff161415610c21576040517f08c379a0000000000000000000000000000000000000000000000000000000008152600401610c18906121f4565b60405180910390fd5b6000600754905060076000815480929190610c3b9061249c565b9190505550826006600083815260200190815260200160002081905550610c62828261133d565b808273ffffffffffffffffffffffffffffffffffffffff167fd9a79f971481095a2a2336c344c7c01f5cc75128249ee793845743040b1c56ee60405160405180910390a3505050565b610cbc610cb6610f42565b83611003565b610cfb576040517f08c379a0000000000000000000000000000000000000000000000000000000008152600401610cf2906121b4565b60405180910390fd5b610d078484848461150b565b50505050565b6060610d1882610ed6565b610d57576040517f08c379a0000000000000000000000000000000000000000000000000000000008152600401610d4e90612174565b60405180910390fd5b6000610d61611567565b90506000815111610d815760405180602001604052806000815250610dac565b80610d8b8461157e565b604051602001610d9c929190611f2c565b6040516020818303038152906040525b915050919050565b6000600560008473ffffffffffffffffffffffffffffffffffffffff1673ffffffffffffffffffffffffffffffffffffffff16815260200190815260200160002060008373ffffffffffffffffffffffffffffffffffffffff1673ffffffffffffffffffffffffffffffffffffffff16815260200190815260200160002060009054906101000a900460ff16905092915050565b7f000000000000000000000000000000000000000000000000000000000000000081565b60007f01ffc9a7000000000000000000000000000000000000000000000000000000007bffffffffffffffffffffffffffffffffffffffffffffffffffffffff1916827bffffffffffffffffffffffffffffffffffffffffffffffffffffffff1916149050919050565b60008073ffffffffffffffffffffffffffffffffffffffff166002600084815260200190815260200160002060009054906101000a900473ffffffffffffffffffffffffffffffffffffffff1673ffffffffffffffffffffffffffffffffffffffff1614159050919050565b600033905090565b816004600083815260200190815260200160002060006101000a81548173ffffffffffffffffffffffffffffffffffffffff021916908373ffffffffffffffffffffffffffffffffffffffff160217905550808273ffffffffffffffffffffffffffffffffffffffff16610fbd83610729565b73ffffffffffffffffffffffffffffffffffffffff167f8c5be1e5ebec7d5bd14f71427d1e84f3dd0314c0f7b2291e5b200ac8c7c3b92560405160405180910390a45050565b600061100e82610ed6565b61104d576040517f08c379a000000000000000000000000000000000000000000000000000000000815260040161104490612074565b60405180910390fd5b600061105883610729565b90508073ffffffffffffffffffffffffffffffffffffffff168473ffffffffffffffffffffffffffffffffffffffff1614806110c757508373ffffffffffffffffffffffffffffffffffffffff166110af846104f4565b73ffffffffffffffffffffffffffffffffffffffff16145b806110d857506110d78185610db4565b5b91505092915050565b8273ffffffffffffffffffffffffffffffffffffffff1661110182610729565b73ffffffffffffffffffffffffffffffffffffffff1614611157576040517f08c379a000000000000000000000000000000000000000000000000000000000815260040161114e90612154565b60405180910390fd5b600073ffffffffffffffffffffffffffffffffffffffff168273ffffffffffffffffffffffffffffffffffffffff1614156111c7576040517f08c379a00000000000000000000000000000000000000000000000000000000081526004016111be90612034565b60405180910390fd5b6111d283838361172b565b6111dd600082610f4a565b6001600360008573ffffffffffffffffffffffffffffffffffffffff1673ffffffffffffffffffffffffffffffffffffffff168152602001908152602001600020600082825461122d919061234f565b925050819055506001600360008473ffffffffffffffffffffffffffffffffffffffff1673ffffffffffffffffffffffffffffffffffffffff168152602001908152602001600020600082825461128491906122c8565b92505081905550816002600083815260200190815260200160002060006101000a81548173ffffffffffffffffffffffffffffffffffffffff021916908373ffffffffffffffffffffffffffffffffffffffff160217905550808273ffffffffffffffffffffffffffffffffffffffff168473ffffffffffffffffffffffffffffffffffffffff167fddf252ad1be2c89b69c2b068fc378daa952ba7f163c4a11628f55a4df523b3ef60405160405180910390a4505050565b600073ffffffffffffffffffffffffffffffffffffffff168273ffffffffffffffffffffffffffffffffffffffff1614156113ad576040517f08c379a00000000000000000000000000000000000000000000000000000000081526004016113a490612114565b60405180910390fd5b6113b681610ed6565b156113f6576040517f08c379a00000000000000000000000000000000000000000000000000000000081526004016113ed90612014565b60405180910390fd5b6114026000838361172b565b6001600360008473ffffffffffffffffffffffffffffffffffffffff1673ffffffffffffffffffffffffffffffffffffffff168152602001908152602001600020600082825461145291906122c8565b92505081905550816002600083815260200190815260200160002060006101000a81548173ffffffffffffffffffffffffffffffffffffffff021916908373ffffffffffffffffffffffffffffffffffffffff160217905550808273ffffffffffffffffffffffffffffffffffffffff16600073ffffffffffffffffffffffffffffffffffffffff167fddf252ad1be2c89b69c2b068fc378daa952ba7f163c4a11628f55a4df523b3ef60405160405180910390a45050565b6115168484846110e1565b61152284848484611730565b611561576040517f08c379a000000000000000000000000000000000000000000000000000000000815260040161155890611ff4565b60405180910390fd5b50505050565b606060405180602001604052806000815250905090565b606060008214156115c6576040518060400160405280600181526020017f30000000000000000000000000000000000000000000000000000000000000008152509050611726565b600082905060005b600082146115f85780806115e19061249c565b915050600a826115f1919061231e565b91506115ce565b60008167ffffffffffffffff81111561163a577f4e487b7100000000000000000000000000000000000000000000000000000000600052604160045260246000fd5b6040519080825280601f01601f19166020018201604052801561166c5781602001600182028036833780820191505090505b5090505b6000851461171f57600182611685919061234f565b9150600a8561169491906124e5565b60306116a091906122c8565b60f81b8183815181106116dc577f4e487b7100000000000000000000000000000000000000000000000000000000600052603260045260246000fd5b60200101907effffffffffffffffffffffffffffffffffffffffffffffffffffffffffffff1916908160001a905350600a85611718919061231e565b9450611670565b8093505050505b919050565b505050565b60006117518473ffffffffffffffffffffffffffffffffffffffff166118c7565b156118ba578373ffffffffffffffffffffffffffffffffffffffff1663150b7a0261177a610f42565b8786866040518563ffffffff1660e01b815260040161179c9493929190611f6b565b602060405180830381600087803b1580156117b657600080fd5b505af19250505080156117e757506040513d601f19601f820116820180604052508101906117e49190611b7b565b60015b61186a573d8060008114611817576040519150601f19603f3d011682016040523d82523d6000602084013e61181c565b606091505b50600081511415611862576040517f08c379a000000000000000000000000000000000000000000000000000000000815260040161185990611ff4565b60405180910390fd5b805181602001fd5b63150b7a0260e01b7bffffffffffffffffffffffffffffffffffffffffffffffffffffffff1916817bffffffffffffffffffffffffffffffffffffffffffffffffffffffff1916149150506118bf565b600190505b949350505050565b600080823b905060008111915050919050565b60006118ed6118e884612254565b61222f565b90508281526020810184848401111561190557600080fd5b6119108482856123f7565b509392505050565b60008135905061192781612ab0565b92915050565b60008135905061193c81612ac7565b92915050565b60008135905061195181612ade565b92915050565b60008151905061196681612ade565b92915050565b600082601f83011261197d57600080fd5b813561198d8482602086016118da565b91505092915050565b6000813590506119a581612af5565b92915050565b6000602082840312156119bd57600080fd5b60006119cb84828501611918565b91505092915050565b600080604083850312156119e757600080fd5b60006119f585828601611918565b9250506020611a0685828601611918565b9150509250929050565b600080600060608486031215611a2557600080fd5b6000611a3386828701611918565b9350506020611a4486828701611918565b9250506040611a5586828701611996565b9150509250925092565b60008060008060808587031215611a7557600080fd5b6000611a8387828801611918565b9450506020611a9487828801611918565b9350506040611aa587828801611996565b925050606085013567ffffffffffffffff811115611ac257600080fd5b611ace8782880161196c565b91505092959194509250565b60008060408385031215611aed57600080fd5b6000611afb85828601611918565b9250506020611b0c8582860161192d565b9150509250929050565b60008060408385031215611b2957600080fd5b6000611b3785828601611918565b9250506020611b4885828601611996565b9150509250929050565b600060208284031215611b6457600080fd5b6000611b7284828501611942565b91505092915050565b600060208284031215611b8d57600080fd5b6000611b9b84828501611957565b91505092915050565b600060208284031215611bb657600080fd5b6000611bc484828501611996565b91505092915050565b60008060408385031215611be057600080fd5b6000611bee85828601611996565b9250506020611bff85828601611918565b9150509250929050565b611c1281612383565b82525050565b611c2181612395565b82525050565b6000611c3282612285565b611c3c818561229b565b9350611c4c818560208601612406565b611c55816125d2565b840191505092915050565b6000611c6b82612290565b611c7581856122ac565b9350611c85818560208601612406565b611c8e816125d2565b840191505092915050565b6000611ca482612290565b611cae81856122bd565b9350611cbe818560208601612406565b80840191505092915050565b6000611cd76032836122ac565b9150611ce2826125e3565b604082019050919050565b6000611cfa601c836122ac565b9150611d0582612632565b602082019050919050565b6000611d1d6024836122ac565b9150611d288261265b565b604082019050919050565b6000611d406019836122ac565b9150611d4b826126aa565b602082019050919050565b6000611d63602c836122ac565b9150611d6e826126d3565b604082019050919050565b6000611d866038836122ac565b9150611d9182612722565b604082019050919050565b6000611da9602a836122ac565b9150611db482612771565b604082019050919050565b6000611dcc6029836122ac565b9150611dd7826127c0565b604082019050919050565b6000611def6021836122ac565b9150611dfa8261280f565b604082019050919050565b6000611e126020836122ac565b9150611e1d8261285e565b602082019050919050565b6000611e35602c836122ac565b9150611e4082612887565b604082019050919050565b6000611e586029836122ac565b9150611e63826128d6565b604082019050919050565b6000611e7b602f836122ac565b9150611e8682612925565b604082019050919050565b6000611e9e6021836122ac565b9150611ea982612974565b604082019050919050565b6000611ec16031836122ac565b9150611ecc826129c3565b604082019050919050565b6000611ee46032836122ac565b9150611eef82612a12565b604082019050919050565b6000611f076034836122ac565b9150611f1282612a61565b604082019050919050565b611f26816123ed565b82525050565b6000611f388285611c99565b9150611f448284611c99565b91508190509392505050565b6000602082019050611f656000830184611c09565b92915050565b6000608082019050611f806000830187611c09565b611f8d6020830186611c09565b611f9a6040830185611f1d565b8181036060830152611fac8184611c27565b905095945050505050565b6000602082019050611fcc6000830184611c18565b92915050565b60006020820190508181036000830152611fec8184611c60565b905092915050565b6000602082019050818103600083015261200d81611cca565b9050919050565b6000602082019050818103600083015261202d81611ced565b9050919050565b6000602082019050818103600083015261204d81611d10565b9050919050565b6000602082019050818103600083015261206d81611d33565b9050919050565b6000602082019050818103600083015261208d81611d56565b9050919050565b600060208201905081810360008301526120ad81611d79565b9050919050565b600060208201905081810360008301526120cd81611d9c565b9050919050565b600060208201905081810360008301526120ed81611dbf565b9050919050565b6000602082019050818103600083015261210d81611de2565b9050919050565b6000602082019050818103600083015261212d81611e05565b9050919050565b6000602082019050818103600083015261214d81611e28565b9050919050565b6000602082019050818103600083015261216d81611e4b565b9050919050565b6000602082019050818103600083015261218d81611e6e565b9050919050565b600060208201905081810360008301526121ad81611e91565b9050919050565b600060208201905081810360008301526121cd81611eb4565b9050919050565b600060208201905081810360008301526121ed81611ed7565b9050919050565b6000602082019050818103600083015261220d81611efa565b9050919050565b60006020820190506122296000830184611f1d565b92915050565b600061223961224a565b9050612245828261246b565b919050565b6000604051905090565b600067ffffffffffffffff82111561226f5761226e6125a3565b5b612278826125d2565b9050602081019050919050565b600081519050919050565b600081519050919050565b600082825260208201905092915050565b600082825260208201905092915050565b600081905092915050565b60006122d3826123ed565b91506122de836123ed565b9250827fffffffffffffffffffffffffffffffffffffffffffffffffffffffffffffffff0382111561231357612312612516565b5b828201905092915050565b6000612329826123ed565b9150612334836123ed565b92508261234457612343612545565b5b828204905092915050565b600061235a826123ed565b9150612365836123ed565b92508282101561237857612377612516565b5b828203905092915050565b600061238e826123cd565b9050919050565b60008115159050919050565b60007fffffffff0000000000000000000000000000000000000000000000000000000082169050919050565b600073ffffffffffffffffffffffffffffffffffffffff82169050919050565b6000819050919050565b82818337600083830152505050565b60005b83811015612424578082015181840152602081019050612409565b83811115612433576000848401525b50505050565b6000600282049050600182168061245157607f821691505b6020821081141561246557612464612574565b5b50919050565b612474826125d2565b810181811067ffffffffffffffff82111715612493576124926125a3565b5b80604052505050565b60006124a7826123ed565b91507fffffffffffffffffffffffffffffffffffffffffffffffffffffffffffffffff8214156124da576124d9612516565b5b600182019050919050565b60006124f0826123ed565b91506124fb836123ed565b92508261250b5761250a612545565b5b828206905092915050565b7f4e487b7100000000000000000000000000000000000000000000000000000000600052601160045260246000fd5b7f4e487b7100000000000000000000000000000000000000000000000000000000600052601260045260246000fd5b7f4e487b7100000000000000000000000000000000000000000000000000000000600052602260045260246000fd5b7f4e487b7100000000000000000000000000000000000000000000000000000000600052604160045260246000fd5b6000601f19601f8301169050919050565b7f4552433732313a207472616e7366657220746f206e6f6e20455243373231526560008201527f63656976657220696d706c656d656e7465720000000000000000000000000000602082015250565b7f4552433732313a20746f6b656e20616c7265616479206d696e74656400000000600082015250565b7f4552433732313a207472616e7366657220746f20746865207a65726f2061646460008201527f7265737300000000000000000000000000000000000000000000000000000000602082015250565b7f4552433732313a20617070726f766520746f2063616c6c657200000000000000600082015250565b7f4552433732313a206f70657261746f7220717565727920666f72206e6f6e657860008201527f697374656e7420746f6b656e0000000000000000000000000000000000000000602082015250565b7f4552433732313a20617070726f76652063616c6c6572206973206e6f74206f7760008201527f6e6572206e6f7220617070726f76656420666f7220616c6c0000000000000000602082015250565b7f4552433732313a2062616c616e636520717565727920666f7220746865207a6560008201527f726f206164647265737300000000000000000000000000000000000000000000602082015250565b7f4552433732313a206f776e657220717565727920666f72206e6f6e657869737460008201527f656e7420746f6b656e0000000000000000000000000000000000000000000000602082015250565b7f57617272696f72733a206e6f2077617272696f7220776974686f75742067656e60008201527f6500000000000000000000000000000000000000000000000000000000000000602082015250565b7f4552433732313a206d696e7420746f20746865207a65726f2061646472657373600082015250565b7f4552433732313a20617070726f76656420717565727920666f72206e6f6e657860008201527f697374656e7420746f6b656e0000000000000000000000000000000000000000602082015250565b7f4552433732313a207472616e73666572206f6620746f6b656e2074686174206960008201527f73206e6f74206f776e0000000000000000000000000000000000000000000000602082015250565b7f4552433732314d657461646174613a2055524920717565727920666f72206e6f60008201527f6e6578697374656e7420746f6b656e0000000000000000000000000000000000602082015250565b7f4552433732313a20617070726f76616c20746f2063757272656e74206f776e6560008201527f7200000000000000000000000000000000000000000000000000000000000000602082015250565b7f4552433732313a207472616e736665722063616c6c6572206973206e6f74206f60008201527f776e6572206e6f7220617070726f766564000000000000000000000000000000602082015250565b7f57617272696f72733a204f6e6c7920636f6e74726f6c6c65722063616e20616360008201527f6365737320746869732066756e6374696f6e0000000000000000000000000000602082015250565b7f57617272696f72733a206e6f2077617272696f722063616e206265206173736960008201527f676e656420746f207a65726f2061646472657373000000000000000000000000602082015250565b612ab981612383565b8114612ac457600080fd5b50565b612ad081612395565b8114612adb57600080fd5b50565b612ae7816123a1565b8114612af257600080fd5b50565b612afe816123ed565b8114612b0957600080fd5b5056fea264697066735822122004f6911ad0d70e1b2545f267c85d3b0c9ddb30d6109bc35e6feae6e9118c65f264736f6c63430008040033",
  "linkReferences": {},
  "deployedLinkReferences": {}
}