{
  "_format": "hh-sol-artifact-1",
  "contractName": "Controller",
  "sourceName": "contracts/demo/Controller.sol",
  "abi": [
    {
      "inputs": [],
      "name": "ipvc_version",
      "outputs": [
        {
          "internalType": "string",
          "name": "",
          "type": "string"
        }
      ],
      "stateMutability": "view",
      "type": "function"
    }
  ],
  "bytecode": "0x608060405234801561001057600080fd5b50610178806100206000396000f3fe608060405234801561001057600080fd5b506004361061002b5760003560e01c8063575f6a9d14610030575b600080fd5b61003861004e565b60405161004591906100c0565b60405180910390f35b6040518060400160405280600a81526020017f302e312e302d626574610000000000000000000000000000000000000000000081525081565b6000610092826100e2565b61009c81856100ed565b93506100ac8185602086016100fe565b6100b581610131565b840191505092915050565b600060208201905081810360008301526100da8184610087565b905092915050565b600081519050919050565b600082825260208201905092915050565b60005b8381101561011c578082015181840152602081019050610101565b8381111561012b576000848401525b50505050565b6000601f19601f830116905091905056fea2646970667358221220858d65c9eb65cfee54b6ae153c52d7458553964a7fe9bf4d400b891a8622e45264736f6c63430008040033",
  "linkReferences": {},
  "deployedLinkReferences": {}
}