{
  "_format": "hh-sol-artifact-1",
  "contractName": "Controller",
  "sourceName": "contracts/demo/Controller.sol",
  "abi": [
    {
      "inputs": [
        {
          "internalType": "bytes32",
          "name": "c__0xa30a961f",
          "type": "bytes32"
        }
      ],
      "name": "c_0xa30a961f",
      "outputs": [],
      "stateMutability": "pure",
      "type": "function"
    },
    {
      "inputs": [],
      "name": "ipvc_version",
      "outputs": [
        {
          "internalType": "string",
          "name": "",
          "type": "string"
        }
      ],
      "stateMutability": "view",
      "type": "function"
    }
  ],
  "bytecode": "0x608060405234801561001057600080fd5b50610201806100206000396000f3fe608060405234801561001057600080fd5b50600436106100365760003560e01c8063575f6a9d1461003b578063d40efa4214610059575b600080fd5b610043610075565b6040516100509190610128565b60405180910390f35b610073600480360381019061006e91906100c6565b6100ae565b005b6040518060400160405280600a81526020017f302e312e302d626574610000000000000000000000000000000000000000000081525081565b50565b6000813590506100c0816101b4565b92915050565b6000602082840312156100d857600080fd5b60006100e6848285016100b1565b91505092915050565b60006100fa8261014a565b6101048185610155565b9350610114818560208601610170565b61011d816101a3565b840191505092915050565b6000602082019050818103600083015261014281846100ef565b905092915050565b600081519050919050565b600082825260208201905092915050565b6000819050919050565b60005b8381101561018e578082015181840152602081019050610173565b8381111561019d576000848401525b50505050565b6000601f19601f8301169050919050565b6101bd81610166565b81146101c857600080fd5b5056fea26469706673582212202ff2437b04be3e4e7fd47e245e1abb31eb95489fe8a63b8b2440d9b18184165464736f6c63430008040033",
  "linkReferences": {},
  "deployedLinkReferences": {}
}