{
  "_format": "hh-sol-artifact-1",
  "contractName": "SignatureHelper",
  "sourceName": "contracts/utils/SignatureHelper.sol",
  "abi": [
    {
      "inputs": [
        {
          "internalType": "bytes32",
          "name": "c__0x2990dd1c",
          "type": "bytes32"
        }
      ],
      "name": "c_0x2990dd1c",
      "outputs": [],
      "stateMutability": "pure",
      "type": "function"
    },
    {
      "inputs": [
        {
          "internalType": "bytes32",
          "name": "_messageHash",
          "type": "bytes32"
        }
      ],
      "name": "getEthSignedMessageHash",
      "outputs": [
        {
          "internalType": "bytes32",
          "name": "",
          "type": "bytes32"
        }
      ],
      "stateMutability": "pure",
      "type": "function"
    },
    {
      "inputs": [
        {
          "internalType": "bytes32",
          "name": "_ethSignedMessageHash",
          "type": "bytes32"
        },
        {
          "internalType": "bytes",
          "name": "_signature",
          "type": "bytes"
        }
      ],
      "name": "recoverSigner",
      "outputs": [
        {
          "internalType": "address",
          "name": "",
          "type": "address"
        }
      ],
      "stateMutability": "pure",
      "type": "function"
    },
    {
      "inputs": [
        {
          "internalType": "bytes",
          "name": "sig",
          "type": "bytes"
        }
      ],
      "name": "splitSignature",
      "outputs": [
        {
          "internalType": "bytes32",
          "name": "r",
          "type": "bytes32"
        },
        {
          "internalType": "bytes32",
          "name": "s",
          "type": "bytes32"
        },
        {
          "internalType": "uint8",
          "name": "v",
          "type": "uint8"
        }
      ],
      "stateMutability": "pure",
      "type": "function"
    }
  ],
  "bytecode": "0x608060405234801561001057600080fd5b50610943806100206000396000f3fe608060405234801561001057600080fd5b506004361061004c5760003560e01c806397aba7f914610051578063a7bb580314610081578063a8a3c4cd146100b3578063fa540801146100cf575b600080fd5b61006b60048036038101906100669190610524565b6100ff565b6040516100789190610679565b60405180910390f35b61009b60048036038101906100969190610580565b61024b565b6040516100aa939291906106af565b60405180910390f35b6100cd60048036038101906100c891906104f7565b6103bb565b005b6100e960048036038101906100e491906104f7565b6103be565b6040516100f69190610694565b60405180910390f35b600061012d7fddbe44bdc8cddb23b55a7af76a6d7602b7892b70436fd7d07d0d96a0b78c633160001b6103bb565b6101597f8967ece99b5125969215602ba9232811b818276c1831fca8e2af7c6bcb1f646460001b6103bb565b6101857fa6b6eebc3667b9870a2426c825a9401335b7cdb43562cf71b84f555a2f81bd2b60001b6103bb565b60008060006101938561024b565b9250925092506101c57fcce276c5b267334e5808039f3f4e3267bd729d0074ff4604abc4194ed4205fc660001b6103bb565b6101f17fa38cf99f068998872e1b2157a88b013f1ec41610acb73668ce05a4fc7a0a2fc060001b6103bb565b6001868285856040516000815260200160405260405161021494939291906106e6565b6020604051602081039080840390855afa158015610236573d6000803e3d6000fd5b50505060206040510351935050505092915050565b600080600061027c7f193f4b7ef915a758eaf8b46ca98a036345773bd3740c831059c5174bb46e5dca60001b6103bb565b6102a87fb2422e47f377da482db156fcad6182ea0921aed0b956e29e6c3e287bd0def38360001b6103bb565b6102d47f6df93e0d3df45c45856d338eae40e336e8471ebcd7d9e7518ba399b62903d52560001b6103bb565b6103007f4f954ef4955fe7993b48a3ef2794a5803a81b4feef6dc157f2bfa9801e23434d60001b6103bb565b6041845114610344576040517f08c379a000000000000000000000000000000000000000000000000000000000815260040161033b9061072b565b60405180910390fd5b6103707fb93e0a2a3c80a44532ca67403840edb1a0aa54a05bb88745d019bd775767cccb60001b6103bb565b61039c7f5a961f71ad312d614461e75a73284fb6ba60e9131717251417c74ad564fe68c660001b6103bb565b6020840151925060408401519150606084015160001a90509193909250565b50565b60006103ec7f9ed6c50f39590b7773dae757c93801284810a4f93fb0421f9616139d0b80b8b760001b6103bb565b6104187f27ff01305f78ec8eb942e08356c1168c638c1150bd8bfc432aadb9c8a32abc3e60001b6103bb565b6104447ff8c0fa54c76e6acd10c879c858ce73af03843c147899f4c75ec798ef84ab009f60001b6103bb565b816040516020016104559190610653565b604051602081830303815290604052805190602001209050919050565b600061048561048084610770565b61074b565b9050828152602081018484840111156104a1576104a0610884565b5b6104ac848285610806565b509392505050565b6000813590506104c3816108f6565b92915050565b600082601f8301126104de576104dd61087f565b5b81356104ee848260208601610472565b91505092915050565b60006020828403121561050d5761050c61088e565b5b600061051b848285016104b4565b91505092915050565b6000806040838503121561053b5761053a61088e565b5b6000610549858286016104b4565b925050602083013567ffffffffffffffff81111561056a57610569610889565b5b610576858286016104c9565b9150509250929050565b6000602082840312156105965761059561088e565b5b600082013567ffffffffffffffff8111156105b4576105b3610889565b5b6105c0848285016104c9565b91505092915050565b6105d2816107bd565b82525050565b6105e1816107cf565b82525050565b6105f86105f3826107cf565b610846565b82525050565b600061060b601c836107b2565b9150610616826108a4565b601c82019050919050565b600061062e6018836107a1565b9150610639826108cd565b602082019050919050565b61064d816107f9565b82525050565b600061065e826105fe565b915061066a82846105e7565b60208201915081905092915050565b600060208201905061068e60008301846105c9565b92915050565b60006020820190506106a960008301846105d8565b92915050565b60006060820190506106c460008301866105d8565b6106d160208301856105d8565b6106de6040830184610644565b949350505050565b60006080820190506106fb60008301876105d8565b6107086020830186610644565b61071560408301856105d8565b61072260608301846105d8565b95945050505050565b6000602082019050818103600083015261074481610621565b9050919050565b6000610755610766565b90506107618282610815565b919050565b6000604051905090565b600067ffffffffffffffff82111561078b5761078a610850565b5b61079482610893565b9050602081019050919050565b600082825260208201905092915050565b600081905092915050565b60006107c8826107d9565b9050919050565b6000819050919050565b600073ffffffffffffffffffffffffffffffffffffffff82169050919050565b600060ff82169050919050565b82818337600083830152505050565b61081e82610893565b810181811067ffffffffffffffff8211171561083d5761083c610850565b5b80604052505050565b6000819050919050565b7f4e487b7100000000000000000000000000000000000000000000000000000000600052604160045260246000fd5b600080fd5b600080fd5b600080fd5b600080fd5b6000601f19601f8301169050919050565b7f19457468657265756d205369676e6564204d6573736167653a0a333200000000600082015250565b7f696e76616c6964207369676e6174757265206c656e6774680000000000000000600082015250565b6108ff816107cf565b811461090a57600080fd5b5056fea264697066735822122007bb4cc1cc2f88a81556dcec4e9f59f9fa8a4869ae448193112efc9848a46fd964736f6c63430008060033",
  "linkReferences": {},
  "deployedLinkReferences": {}
}