{
  "_format": "hh-sol-artifact-1",
  "contractName": "SignatureHelper",
  "sourceName": "contracts/utils/SignatureHelper.sol",
  "abi": [
    {
      "inputs": [
        {
          "internalType": "bytes32",
          "name": "c__0x2990dd1c",
          "type": "bytes32"
        }
      ],
      "name": "c_0x2990dd1c",
      "outputs": [],
      "stateMutability": "pure",
      "type": "function"
    },
    {
      "inputs": [
        {
          "internalType": "bytes32",
          "name": "_messageHash",
          "type": "bytes32"
        }
      ],
      "name": "getEthSignedMessageHash",
      "outputs": [
        {
          "internalType": "bytes32",
          "name": "",
          "type": "bytes32"
        }
      ],
      "stateMutability": "pure",
      "type": "function"
    },
    {
      "inputs": [
        {
          "internalType": "bytes32",
          "name": "_ethSignedMessageHash",
          "type": "bytes32"
        },
        {
          "internalType": "bytes",
          "name": "_signature",
          "type": "bytes"
        }
      ],
      "name": "recoverSigner",
      "outputs": [
        {
          "internalType": "address",
          "name": "",
          "type": "address"
        }
      ],
      "stateMutability": "pure",
      "type": "function"
    },
    {
      "inputs": [
        {
          "internalType": "bytes",
          "name": "sig",
          "type": "bytes"
        }
      ],
      "name": "splitSignature",
      "outputs": [
        {
          "internalType": "bytes32",
          "name": "r",
          "type": "bytes32"
        },
        {
          "internalType": "bytes32",
          "name": "s",
          "type": "bytes32"
        },
        {
          "internalType": "uint8",
          "name": "v",
          "type": "uint8"
        }
      ],
      "stateMutability": "pure",
      "type": "function"
    }
  ],
  "bytecode": "0x608060405234801561001057600080fd5b50610969806100206000396000f3fe608060405234801561001057600080fd5b506004361061004c5760003560e01c806397aba7f914610051578063a7bb580314610081578063a8a3c4cd146100b3578063fa540801146100cf575b600080fd5b61006b60048036038101906100669190610524565b6100ff565b6040516100789190610679565b60405180910390f35b61009b60048036038101906100969190610580565b61024b565b6040516100aa939291906106af565b60405180910390f35b6100cd60048036038101906100c891906104f7565b6103bb565b005b6100e960048036038101906100e491906104f7565b6103be565b6040516100f69190610694565b60405180910390f35b600061012d7fd9ac1063bb20b10a7cabf0a12fa0deca484aa5ac04855e9e62e0d13f4e0d9d7860001b6103bb565b6101597faf92b2aa8baa1aa1813f82f5096c499a2a50ebd728e16ea434c65ba586ba814960001b6103bb565b6101857f5fadafdbf18fa4894c113ae24419291ec99f8a42e7089a81ebba2625de053b5f60001b6103bb565b60008060006101938561024b565b9250925092506101c57f1ee8cd755ba2bd85ec500988f24a34cc8c77c9367cad2e781c2d21f95274716660001b6103bb565b6101f17f05813349e71b6151bb6827ef3b50e837a6727fca3e5bd60edbe3253c67bb3f1b60001b6103bb565b6001868285856040516000815260200160405260405161021494939291906106e6565b6020604051602081039080840390855afa158015610236573d6000803e3d6000fd5b50505060206040510351935050505092915050565b600080600061027c7fd9eb42db19d36ba08afdf76569895660e246593397cc1c0de9a120798c26179960001b6103bb565b6102a87f29af21383d7cf85cef2dd53fb1679069dbebd2f0ae2c118a190684d5434b877f60001b6103bb565b6102d47fe65a51732487d9eaf14f6018266da224d1b558238143577726fbf08a1a0699cd60001b6103bb565b6103007f279b11dd981cc5c64f032294e7c2828e93d2531777867795e6f8bf0f15c2d4cd60001b6103bb565b6041845114610344576040517f08c379a000000000000000000000000000000000000000000000000000000000815260040161033b9061072b565b60405180910390fd5b6103707f30edfe9f8d5d503332fe8d9d4c509b688dd80bd7bf7c45d4e96d499b78c1776760001b6103bb565b61039c7fc8f2a8377e67ed37fc14e5c078c0e2029615aa3d5370a92b75cdb2736cc0419960001b6103bb565b6020840151925060408401519150606084015160001a90509193909250565b50565b60006103ec7ffcb4704cd96d9c53329a4c99fba3efb0260a8adc5e7c32ccbad3147f581c1f6c60001b6103bb565b6104187f56d68e583482e39bdbe2180f142f7bc4caf776a6e5db8ecb0c38499db1be2acc60001b6103bb565b6104447f72b8c5801540b2f7ba4f5d8cd90606b6d4d99169b1148d1560ffa0c6c37958e660001b6103bb565b816040516020016104559190610653565b604051602081830303815290604052805190602001209050919050565b600061048561048084610770565b61074b565b9050828152602081018484840111156104a1576104a0610884565b5b6104ac848285610806565b509392505050565b6000813590506104c38161091c565b92915050565b600082601f8301126104de576104dd61087f565b5b81356104ee848260208601610472565b91505092915050565b60006020828403121561050d5761050c61088e565b5b600061051b848285016104b4565b91505092915050565b6000806040838503121561053b5761053a61088e565b5b6000610549858286016104b4565b925050602083013567ffffffffffffffff81111561056a57610569610889565b5b610576858286016104c9565b9150509250929050565b6000602082840312156105965761059561088e565b5b600082013567ffffffffffffffff8111156105b4576105b3610889565b5b6105c0848285016104c9565b91505092915050565b6105d2816107bd565b82525050565b6105e1816107cf565b82525050565b6105f86105f3826107cf565b610846565b82525050565b600061060b601c836107b2565b9150610616826108a4565b601c82019050919050565b600061062e6029836107a1565b9150610639826108cd565b604082019050919050565b61064d816107f9565b82525050565b600061065e826105fe565b915061066a82846105e7565b60208201915081905092915050565b600060208201905061068e60008301846105c9565b92915050565b60006020820190506106a960008301846105d8565b92915050565b60006060820190506106c460008301866105d8565b6106d160208301856105d8565b6106de6040830184610644565b949350505050565b60006080820190506106fb60008301876105d8565b6107086020830186610644565b61071560408301856105d8565b61072260608301846105d8565b95945050505050565b6000602082019050818103600083015261074481610621565b9050919050565b6000610755610766565b90506107618282610815565b919050565b6000604051905090565b600067ffffffffffffffff82111561078b5761078a610850565b5b61079482610893565b9050602081019050919050565b600082825260208201905092915050565b600081905092915050565b60006107c8826107d9565b9050919050565b6000819050919050565b600073ffffffffffffffffffffffffffffffffffffffff82169050919050565b600060ff82169050919050565b82818337600083830152505050565b61081e82610893565b810181811067ffffffffffffffff8211171561083d5761083c610850565b5b80604052505050565b6000819050919050565b7f4e487b7100000000000000000000000000000000000000000000000000000000600052604160045260246000fd5b600080fd5b600080fd5b600080fd5b600080fd5b6000601f19601f8301169050919050565b7f19457468657265756d205369676e6564204d6573736167653a0a333200000000600082015250565b7f5369676e617475726548656c7065723a20696e76616c6964207369676e61747560008201527f7265206c656e6774680000000000000000000000000000000000000000000000602082015250565b610925816107cf565b811461093057600080fd5b5056fea2646970667358221220584d6aa0289e10955a6604e56331f86708731f8ad0042cea64678c07eb52469d64736f6c63430008060033",
  "linkReferences": {},
  "deployedLinkReferences": {}
}