{
  "_format": "hh-sol-artifact-1",
  "contractName": "SignatureHelper",
  "sourceName": "contracts/utils/SignatureHelper.sol",
  "abi": [
    {
      "inputs": [
        {
          "internalType": "bytes32",
          "name": "_messageHash",
          "type": "bytes32"
        }
      ],
      "name": "getEthSignedMessageHash",
      "outputs": [
        {
          "internalType": "bytes32",
          "name": "",
          "type": "bytes32"
        }
      ],
      "stateMutability": "pure",
      "type": "function"
    },
    {
      "inputs": [
        {
          "internalType": "bytes32",
          "name": "_ethSignedMessageHash",
          "type": "bytes32"
        },
        {
          "internalType": "bytes",
          "name": "_signature",
          "type": "bytes"
        }
      ],
      "name": "recoverSigner",
      "outputs": [
        {
          "internalType": "address",
          "name": "",
          "type": "address"
        }
      ],
      "stateMutability": "pure",
      "type": "function"
    },
    {
      "inputs": [
        {
          "internalType": "bytes",
          "name": "sig",
          "type": "bytes"
        }
      ],
      "name": "splitSignature",
      "outputs": [
        {
          "internalType": "bytes32",
          "name": "r",
          "type": "bytes32"
        },
        {
          "internalType": "bytes32",
          "name": "s",
          "type": "bytes32"
        },
        {
          "internalType": "uint8",
          "name": "v",
          "type": "uint8"
        }
      ],
      "stateMutability": "pure",
      "type": "function"
    }
  ],
  "bytecode": "0x608060405234801561001057600080fd5b506106d6806100206000396000f3fe608060405234801561001057600080fd5b50600436106100415760003560e01c806397aba7f914610046578063a7bb580314610076578063fa540801146100a8575b600080fd5b610060600480360381019061005b9190610291565b6100d8565b60405161006d91906103e6565b60405180910390f35b610090600480360381019061008b91906102ed565b610147565b60405161009f9392919061041c565b60405180910390f35b6100c260048036038101906100bd9190610264565b6101af565b6040516100cf9190610401565b60405180910390f35b6000806000806100e785610147565b925092509250600186828585604051600081526020016040526040516101109493929190610453565b6020604051602081039080840390855afa158015610132573d6000803e3d6000fd5b50505060206040510351935050505092915050565b60008060006041845114610190576040517f08c379a000000000000000000000000000000000000000000000000000000000815260040161018790610498565b60405180910390fd5b6020840151925060408401519150606084015160001a90509193909250565b6000816040516020016101c291906103c0565b604051602081830303815290604052805190602001209050919050565b60006101f26101ed846104dd565b6104b8565b90508281526020810184848401111561020e5761020d6105f1565b5b610219848285610573565b509392505050565b60008135905061023081610689565b92915050565b600082601f83011261024b5761024a6105ec565b5b813561025b8482602086016101df565b91505092915050565b60006020828403121561027a576102796105fb565b5b600061028884828501610221565b91505092915050565b600080604083850312156102a8576102a76105fb565b5b60006102b685828601610221565b925050602083013567ffffffffffffffff8111156102d7576102d66105f6565b5b6102e385828601610236565b9150509250929050565b600060208284031215610303576103026105fb565b5b600082013567ffffffffffffffff811115610321576103206105f6565b5b61032d84828501610236565b91505092915050565b61033f8161052a565b82525050565b61034e8161053c565b82525050565b6103656103608261053c565b6105b3565b82525050565b6000610378601c8361051f565b915061038382610611565b601c82019050919050565b600061039b60298361050e565b91506103a68261063a565b604082019050919050565b6103ba81610566565b82525050565b60006103cb8261036b565b91506103d78284610354565b60208201915081905092915050565b60006020820190506103fb6000830184610336565b92915050565b60006020820190506104166000830184610345565b92915050565b60006060820190506104316000830186610345565b61043e6020830185610345565b61044b60408301846103b1565b949350505050565b60006080820190506104686000830187610345565b61047560208301866103b1565b6104826040830185610345565b61048f6060830184610345565b95945050505050565b600060208201905081810360008301526104b18161038e565b9050919050565b60006104c26104d3565b90506104ce8282610582565b919050565b6000604051905090565b600067ffffffffffffffff8211156104f8576104f76105bd565b5b61050182610600565b9050602081019050919050565b600082825260208201905092915050565b600081905092915050565b600061053582610546565b9050919050565b6000819050919050565b600073ffffffffffffffffffffffffffffffffffffffff82169050919050565b600060ff82169050919050565b82818337600083830152505050565b61058b82610600565b810181811067ffffffffffffffff821117156105aa576105a96105bd565b5b80604052505050565b6000819050919050565b7f4e487b7100000000000000000000000000000000000000000000000000000000600052604160045260246000fd5b600080fd5b600080fd5b600080fd5b600080fd5b6000601f19601f8301169050919050565b7f19457468657265756d205369676e6564204d6573736167653a0a333200000000600082015250565b7f5369676e617475726548656c7065723a20696e76616c6964207369676e61747560008201527f7265206c656e6774680000000000000000000000000000000000000000000000602082015250565b6106928161053c565b811461069d57600080fd5b5056fea26469706673582212204822f680d89bdeb769cb89c2c01494cd32a9a3f0edc64fef3e3d1d617879ed7f64736f6c63430008060033",
  "linkReferences": {},
  "deployedLinkReferences": {}
}