{
  "_format": "hh-sol-artifact-1",
  "contractName": "WarriorCore",
  "sourceName": "contracts/WarriorCore.sol",
  "abi": [
    {
      "inputs": [
        {
          "internalType": "uint256",
          "name": "_initialMaxPopulation",
          "type": "uint256"
        }
      ],
      "stateMutability": "nonpayable",
      "type": "constructor"
    },
    {
      "anonymous": false,
      "inputs": [
        {
          "indexed": true,
          "internalType": "address",
          "name": "owner",
          "type": "address"
        },
        {
          "indexed": true,
          "internalType": "address",
          "name": "approved",
          "type": "address"
        },
        {
          "indexed": true,
          "internalType": "uint256",
          "name": "tokenId",
          "type": "uint256"
        }
      ],
      "name": "Approval",
      "type": "event"
    },
    {
      "anonymous": false,
      "inputs": [
        {
          "indexed": true,
          "internalType": "address",
          "name": "owner",
          "type": "address"
        },
        {
          "indexed": true,
          "internalType": "address",
          "name": "operator",
          "type": "address"
        },
        {
          "indexed": false,
          "internalType": "bool",
          "name": "approved",
          "type": "bool"
        }
      ],
      "name": "ApprovalForAll",
      "type": "event"
    },
    {
      "anonymous": false,
      "inputs": [
        {
          "indexed": true,
          "internalType": "address",
          "name": "from",
          "type": "address"
        },
        {
          "indexed": true,
          "internalType": "address",
          "name": "to",
          "type": "address"
        },
        {
          "indexed": true,
          "internalType": "uint256",
          "name": "tokenId",
          "type": "uint256"
        }
      ],
      "name": "Transfer",
      "type": "event"
    },
    {
      "anonymous": false,
      "inputs": [
        {
          "indexed": true,
          "internalType": "address",
          "name": "owner",
          "type": "address"
        },
        {
          "indexed": true,
          "internalType": "uint256",
          "name": "warriorId",
          "type": "uint256"
        }
      ],
      "name": "WarriorGenerated",
      "type": "event"
    },
    {
      "inputs": [],
      "name": "GENERATION_COOLDOWN",
      "outputs": [
        {
          "internalType": "uint256",
          "name": "",
          "type": "uint256"
        }
      ],
      "stateMutability": "view",
      "type": "function"
    },
    {
      "inputs": [],
      "name": "GROWTH_PRECISION",
      "outputs": [
        {
          "internalType": "uint256",
          "name": "",
          "type": "uint256"
        }
      ],
      "stateMutability": "view",
      "type": "function"
    },
    {
      "inputs": [],
      "name": "PRECISION",
      "outputs": [
        {
          "internalType": "uint256",
          "name": "",
          "type": "uint256"
        }
      ],
      "stateMutability": "view",
      "type": "function"
    },
    {
      "inputs": [],
      "name": "SALT",
      "outputs": [
        {
          "internalType": "bytes32",
          "name": "",
          "type": "bytes32"
        }
      ],
      "stateMutability": "view",
      "type": "function"
    },
    {
      "inputs": [],
      "name": "admin",
      "outputs": [
        {
          "internalType": "address",
          "name": "",
          "type": "address"
        }
      ],
      "stateMutability": "view",
      "type": "function"
    },
    {
      "inputs": [
        {
          "internalType": "address",
          "name": "to",
          "type": "address"
        },
        {
          "internalType": "uint256",
          "name": "tokenId",
          "type": "uint256"
        }
      ],
      "name": "approve",
      "outputs": [],
      "stateMutability": "nonpayable",
      "type": "function"
    },
    {
      "inputs": [
        {
          "internalType": "address",
          "name": "owner",
          "type": "address"
        }
      ],
      "name": "balanceOf",
      "outputs": [
        {
          "internalType": "uint256",
          "name": "",
          "type": "uint256"
        }
      ],
      "stateMutability": "view",
      "type": "function"
    },
    {
      "inputs": [],
      "name": "currentGeneration",
      "outputs": [
        {
          "internalType": "uint256",
          "name": "",
          "type": "uint256"
        }
      ],
      "stateMutability": "view",
      "type": "function"
    },
    {
      "inputs": [],
      "name": "currentGenerationMaxPopulation",
      "outputs": [
        {
          "internalType": "uint256",
          "name": "",
          "type": "uint256"
        }
      ],
      "stateMutability": "view",
      "type": "function"
    },
    {
      "inputs": [],
      "name": "currentGenerationPopulation",
      "outputs": [
        {
          "internalType": "uint256",
          "name": "",
          "type": "uint256"
        }
      ],
      "stateMutability": "view",
      "type": "function"
    },
    {
      "inputs": [
        {
          "internalType": "address",
          "name": "_to",
          "type": "address"
        },
        {
          "internalType": "address",
          "name": "_from",
          "type": "address"
        },
        {
          "internalType": "bytes32",
          "name": "_metadata",
          "type": "bytes32"
        }
      ],
      "name": "generateHash",
      "outputs": [
        {
          "internalType": "bytes32",
          "name": "",
          "type": "bytes32"
        }
      ],
      "stateMutability": "pure",
      "type": "function"
    },
    {
      "inputs": [
        {
          "internalType": "address",
          "name": "_owner",
          "type": "address"
        },
        {
          "internalType": "bytes32",
          "name": "_metadata",
          "type": "bytes32"
        },
        {
          "internalType": "bytes",
          "name": "_originSignature",
          "type": "bytes"
        }
      ],
      "name": "generateWarrior",
      "outputs": [],
      "stateMutability": "nonpayable",
      "type": "function"
    },
    {
      "inputs": [
        {
          "internalType": "uint256",
          "name": "tokenId",
          "type": "uint256"
        }
      ],
      "name": "getApproved",
      "outputs": [
        {
          "internalType": "address",
          "name": "",
          "type": "address"
        }
      ],
      "stateMutability": "view",
      "type": "function"
    },
    {
      "inputs": [
        {
          "internalType": "bytes32",
          "name": "_messageHash",
          "type": "bytes32"
        }
      ],
      "name": "getEthSignedMessageHash",
      "outputs": [
        {
          "internalType": "bytes32",
          "name": "",
          "type": "bytes32"
        }
      ],
      "stateMutability": "pure",
      "type": "function"
    },
    {
      "inputs": [
        {
          "internalType": "uint256",
          "name": "_warriorId",
          "type": "uint256"
        }
      ],
      "name": "getWarrior",
      "outputs": [
        {
          "internalType": "uint256",
          "name": "warrior",
          "type": "uint256"
        }
      ],
      "stateMutability": "view",
      "type": "function"
    },
    {
      "inputs": [
        {
          "internalType": "uint256",
          "name": "_warriorId",
          "type": "uint256"
        }
      ],
      "name": "getWarriorGeneration",
      "outputs": [
        {
          "internalType": "uint256",
          "name": "",
          "type": "uint256"
        }
      ],
      "stateMutability": "view",
      "type": "function"
    },
    {
      "inputs": [],
      "name": "growthRate",
      "outputs": [
        {
          "internalType": "uint256",
          "name": "",
          "type": "uint256"
        }
      ],
      "stateMutability": "view",
      "type": "function"
    },
    {
      "inputs": [
        {
          "internalType": "address",
          "name": "_origin",
          "type": "address"
        },
        {
          "internalType": "address",
          "name": "_warriorGeneGeneratorContract",
          "type": "address"
        }
      ],
      "name": "initialize",
      "outputs": [],
      "stateMutability": "nonpayable",
      "type": "function"
    },
    {
      "inputs": [],
      "name": "isActive",
      "outputs": [
        {
          "internalType": "bool",
          "name": "",
          "type": "bool"
        }
      ],
      "stateMutability": "view",
      "type": "function"
    },
    {
      "inputs": [
        {
          "internalType": "address",
          "name": "owner",
          "type": "address"
        },
        {
          "internalType": "address",
          "name": "operator",
          "type": "address"
        }
      ],
      "name": "isApprovedForAll",
      "outputs": [
        {
          "internalType": "bool",
          "name": "",
          "type": "bool"
        }
      ],
      "stateMutability": "view",
      "type": "function"
    },
    {
      "inputs": [
        {
          "internalType": "uint256",
          "name": "",
          "type": "uint256"
        }
      ],
      "name": "isGeneUsed",
      "outputs": [
        {
          "internalType": "bool",
          "name": "",
          "type": "bool"
        }
      ],
      "stateMutability": "view",
      "type": "function"
    },
    {
      "inputs": [],
      "name": "isInitialized",
      "outputs": [
        {
          "internalType": "bool",
          "name": "",
          "type": "bool"
        }
      ],
      "stateMutability": "view",
      "type": "function"
    },
    {
      "inputs": [
        {
          "internalType": "bytes32",
          "name": "",
          "type": "bytes32"
        }
      ],
      "name": "isMetadataUsed",
      "outputs": [
        {
          "internalType": "bool",
          "name": "",
          "type": "bool"
        }
      ],
      "stateMutability": "view",
      "type": "function"
    },
    {
      "inputs": [],
      "name": "lastGeneration",
      "outputs": [
        {
          "internalType": "uint256",
          "name": "",
          "type": "uint256"
        }
      ],
      "stateMutability": "view",
      "type": "function"
    },
    {
      "inputs": [],
      "name": "maxPopulation",
      "outputs": [
        {
          "internalType": "uint256",
          "name": "",
          "type": "uint256"
        }
      ],
      "stateMutability": "view",
      "type": "function"
    },
    {
      "inputs": [],
      "name": "maxPopulationPerGen",
      "outputs": [
        {
          "internalType": "uint256",
          "name": "",
          "type": "uint256"
        }
      ],
      "stateMutability": "view",
      "type": "function"
    },
    {
      "inputs": [],
      "name": "name",
      "outputs": [
        {
          "internalType": "string",
          "name": "",
          "type": "string"
        }
      ],
      "stateMutability": "view",
      "type": "function"
    },
    {
      "inputs": [],
      "name": "nextGenerationStartBlock",
      "outputs": [
        {
          "internalType": "uint256",
          "name": "",
          "type": "uint256"
        }
      ],
      "stateMutability": "view",
      "type": "function"
    },
    {
      "inputs": [],
      "name": "origin",
      "outputs": [
        {
          "internalType": "address",
          "name": "",
          "type": "address"
        }
      ],
      "stateMutability": "view",
      "type": "function"
    },
    {
      "inputs": [
        {
          "internalType": "uint256",
          "name": "tokenId",
          "type": "uint256"
        }
      ],
      "name": "ownerOf",
      "outputs": [
        {
          "internalType": "address",
          "name": "",
          "type": "address"
        }
      ],
      "stateMutability": "view",
      "type": "function"
    },
    {
      "inputs": [],
      "name": "populationUntilLastGeneration",
      "outputs": [
        {
          "internalType": "uint256",
          "name": "",
          "type": "uint256"
        }
      ],
      "stateMutability": "view",
      "type": "function"
    },
    {
      "inputs": [
        {
          "internalType": "bytes32",
          "name": "_ethSignedMessageHash",
          "type": "bytes32"
        },
        {
          "internalType": "bytes",
          "name": "_signature",
          "type": "bytes"
        }
      ],
      "name": "recoverSigner",
      "outputs": [
        {
          "internalType": "address",
          "name": "",
          "type": "address"
        }
      ],
      "stateMutability": "pure",
      "type": "function"
    },
    {
      "inputs": [
        {
          "internalType": "address",
          "name": "from",
          "type": "address"
        },
        {
          "internalType": "address",
          "name": "to",
          "type": "address"
        },
        {
          "internalType": "uint256",
          "name": "tokenId",
          "type": "uint256"
        }
      ],
      "name": "safeTransferFrom",
      "outputs": [],
      "stateMutability": "nonpayable",
      "type": "function"
    },
    {
      "inputs": [
        {
          "internalType": "address",
          "name": "from",
          "type": "address"
        },
        {
          "internalType": "address",
          "name": "to",
          "type": "address"
        },
        {
          "internalType": "uint256",
          "name": "tokenId",
          "type": "uint256"
        },
        {
          "internalType": "bytes",
          "name": "_data",
          "type": "bytes"
        }
      ],
      "name": "safeTransferFrom",
      "outputs": [],
      "stateMutability": "nonpayable",
      "type": "function"
    },
    {
      "inputs": [
        {
          "internalType": "address",
          "name": "operator",
          "type": "address"
        },
        {
          "internalType": "bool",
          "name": "approved",
          "type": "bool"
        }
      ],
      "name": "setApprovalForAll",
      "outputs": [],
      "stateMutability": "nonpayable",
      "type": "function"
    },
    {
      "inputs": [
        {
          "internalType": "address",
          "name": "_newGeneGenerator",
          "type": "address"
        }
      ],
      "name": "setGeneGenerator",
      "outputs": [],
      "stateMutability": "nonpayable",
      "type": "function"
    },
    {
      "inputs": [
        {
          "internalType": "address",
          "name": "_newOrigin",
          "type": "address"
        }
      ],
      "name": "setOrigin",
      "outputs": [],
      "stateMutability": "nonpayable",
      "type": "function"
    },
    {
      "inputs": [
        {
          "internalType": "bytes",
          "name": "sig",
          "type": "bytes"
        }
      ],
      "name": "splitSignature",
      "outputs": [
        {
          "internalType": "bytes32",
          "name": "r",
          "type": "bytes32"
        },
        {
          "internalType": "bytes32",
          "name": "s",
          "type": "bytes32"
        },
        {
          "internalType": "uint8",
          "name": "v",
          "type": "uint8"
        }
      ],
      "stateMutability": "pure",
      "type": "function"
    },
    {
      "inputs": [
        {
          "internalType": "bytes4",
          "name": "interfaceId",
          "type": "bytes4"
        }
      ],
      "name": "supportsInterface",
      "outputs": [
        {
          "internalType": "bool",
          "name": "",
          "type": "bool"
        }
      ],
      "stateMutability": "view",
      "type": "function"
    },
    {
      "inputs": [],
      "name": "symbol",
      "outputs": [
        {
          "internalType": "string",
          "name": "",
          "type": "string"
        }
      ],
      "stateMutability": "view",
      "type": "function"
    },
    {
      "inputs": [
        {
          "internalType": "uint256",
          "name": "tokenId",
          "type": "uint256"
        }
      ],
      "name": "tokenURI",
      "outputs": [
        {
          "internalType": "string",
          "name": "",
          "type": "string"
        }
      ],
      "stateMutability": "view",
      "type": "function"
    },
    {
      "inputs": [
        {
          "internalType": "address",
          "name": "from",
          "type": "address"
        },
        {
          "internalType": "address",
          "name": "to",
          "type": "address"
        },
        {
          "internalType": "uint256",
          "name": "tokenId",
          "type": "uint256"
        }
      ],
      "name": "transferFrom",
      "outputs": [],
      "stateMutability": "nonpayable",
      "type": "function"
    },
    {
      "inputs": [],
      "name": "version",
      "outputs": [
        {
          "internalType": "string",
          "name": "",
          "type": "string"
        }
      ],
      "stateMutability": "view",
      "type": "function"
    },
    {
      "inputs": [],
      "name": "warriorCounter",
      "outputs": [
        {
          "internalType": "uint256",
          "name": "",
          "type": "uint256"
        }
      ],
      "stateMutability": "view",
      "type": "function"
    },
    {
      "inputs": [],
      "name": "warriorGeneGeneratorContract",
      "outputs": [
        {
          "internalType": "address",
          "name": "",
          "type": "address"
        }
      ],
      "stateMutability": "view",
      "type": "function"
    }
  ],
  "bytecode": "0x608060405263019bfcc0600b55620186a0600c55610187600f553480156200002657600080fd5b5060405162004a6d38038062004a6d83398181016040528101906200004c91906200021b565b80806040518060400160405280600881526020017f57617272696f72730000000000000000000000000000000000000000000000008152506040518060400160405280600381526020017f5752540000000000000000000000000000000000000000000000000000000000815250336000806101000a81548173ffffffffffffffffffffffffffffffffffffffff021916908373ffffffffffffffffffffffffffffffffffffffff16021790555081600290805190602001906200011292919062000154565b5080600390805190602001906200012b92919062000154565b50505080600d81905550506101f4436200014691906200024d565b601181905550505062000367565b8280546200016290620002b4565b90600052602060002090601f016020900481019282620001865760008555620001d2565b82601f10620001a157805160ff1916838001178555620001d2565b82800160010185558215620001d2579182015b82811115620001d1578251825591602001919060010190620001b4565b5b509050620001e19190620001e5565b5090565b5b8082111562000200576000816000905550600101620001e6565b5090565b60008151905062000215816200034d565b92915050565b60006020828403121562000234576200023362000348565b5b6000620002448482850162000204565b91505092915050565b60006200025a82620002aa565b91506200026783620002aa565b9250827fffffffffffffffffffffffffffffffffffffffffffffffffffffffffffffffff038211156200029f576200029e620002ea565b5b828201905092915050565b6000819050919050565b60006002820490506001821680620002cd57607f821691505b60208210811415620002e457620002e362000319565b5b50919050565b7f4e487b7100000000000000000000000000000000000000000000000000000000600052601160045260246000fd5b7f4e487b7100000000000000000000000000000000000000000000000000000000600052602260045260246000fd5b600080fd5b6200035881620002aa565b81146200036457600080fd5b50565b6146f680620003776000396000f3fe608060405234801561001057600080fd5b506004361061027f5760003560e01c80636352211e1161015c578063a7bb5803116100ce578063c87b56dd11610087578063c87b56dd146107cc578063cf26c524146107fc578063d0b96ef91461081a578063e985e9c514610838578063f851a44014610868578063fa540801146108865761027f565b8063a7bb580314610706578063aaf5eb6814610738578063ad4ae8c314610756578063b88d4fde14610774578063ba9a91a514610790578063c3236983146107ae5761027f565b8063938b5f3211610120578063938b5f321461061e5780639422ee781461063c57806395d89b411461066c57806397aba7f91461068a5780639c7b2394146106ba578063a22cb465146106ea5761027f565b80636352211e146105645780636ae8f737146105945780636bba6c28146105b257806370a08231146105d05780638ddb428a146106005761027f565b806329372ad0116101f557806347697a04116101b957806347697a04146104b45780634787dc65146104d257806347c484e9146104f0578063485cc9551461050c57806354fd4d50146105285780635e30acb4146105465761027f565b806329372ad0146104125780633890d1f714610442578063392e53cd1461045e578063426b41131461047c57806342842e0e146104985761027f565b8063095ea7b311610247578063095ea7b31461035057806317729a821461036c5780631ae64d2f1461038a5780631e15ec92146103a857806322f3e2d4146103d857806323b872dd146103f65761027f565b8063014f25ab1461028457806301ffc9a7146102a2578063043baf80146102d257806306fdde0314610302578063081812fc14610320575b600080fd5b61028c6108b6565b6040516102999190613954565b60405180910390f35b6102bc60048036038101906102b79190612da8565b6108bb565b6040516102c99190613500565b60405180910390f35b6102ec60048036038101906102e79190612b07565b61099d565b6040516102f9919061351b565b60405180910390f35b61030a6109d3565b60405161031791906135b2565b60405180910390f35b61033a60048036038101906103359190612e4b565b610a65565b6040516103479190613499565b60405180910390f35b61036a60048036038101906103659190612cdf565b610aea565b005b610374610c02565b6040516103819190613954565b60405180910390f35b610392610c08565b60405161039f9190613954565b60405180910390f35b6103c260048036038101906103bd9190612e4b565b610c1f565b6040516103cf9190613954565b60405180910390f35b6103e0610c67565b6040516103ed9190613500565b60405180910390f35b610410600480360381019061040b9190612b5a565b610c74565b005b61042c60048036038101906104279190612e4b565b610cd4565b6040516104399190613954565b60405180910390f35b61045c60048036038101906104579190612a9a565b610d35565b005b610466610e77565b6040516104739190613500565b60405180910390f35b61049660048036038101906104919190612c70565b610e8a565b005b6104b260048036038101906104ad9190612b5a565b6112b7565b005b6104bc6112d7565b6040516104c99190613954565b60405180910390f35b6104da6112dd565b6040516104e79190613954565b60405180910390f35b61050a60048036038101906105059190612a9a565b6112e3565b005b61052660048036038101906105219190612ac7565b611425565b005b61053061164d565b60405161053d91906135b2565b60405180910390f35b61054e611686565b60405161055b9190613954565b60405180910390f35b61057e60048036038101906105799190612e4b565b61168c565b60405161058b9190613499565b60405180910390f35b61059c61173e565b6040516105a99190613954565b60405180910390f35b6105ba611744565b6040516105c79190613954565b60405180910390f35b6105ea60048036038101906105e59190612a9a565b61174a565b6040516105f79190613954565b60405180910390f35b610608611802565b6040516106159190613954565b60405180910390f35b610626611808565b6040516106339190613499565b60405180910390f35b61065660048036038101906106519190612e4b565b61182e565b6040516106639190613500565b60405180910390f35b61067461184e565b60405161068191906135b2565b60405180910390f35b6106a4600480360381019061069f9190612d4c565b6118e0565b6040516106b19190613499565b60405180910390f35b6106d460048036038101906106cf9190612d1f565b61194f565b6040516106e19190613500565b60405180910390f35b61070460048036038101906106ff9190612c30565b61196f565b005b610720600480360381019061071b9190612e02565b611af0565b60405161072f93929190613536565b60405180910390f35b610740611b58565b60405161074d9190613954565b60405180910390f35b61075e611b64565b60405161076b9190613954565b60405180910390f35b61078e60048036038101906107899190612bad565b611b6a565b005b610798611bcc565b6040516107a5919061351b565b60405180910390f35b6107b6611bf0565b6040516107c39190613499565b60405180910390f35b6107e660048036038101906107e19190612e4b565b611c16565b6040516107f391906135b2565b60405180910390f35b610804611cbd565b6040516108119190613954565b60405180910390f35b610822611cc3565b60405161082f9190613954565b60405180910390f35b610852600480360381019061084d9190612ac7565b611cc9565b60405161085f9190613500565b60405180910390f35b610870611d5d565b60405161087d9190613499565b60405180910390f35b6108a0600480360381019061089b9190612d1f565b611d81565b6040516108ad919061351b565b60405180910390f35b606481565b60007f80ac58cd000000000000000000000000000000000000000000000000000000007bffffffffffffffffffffffffffffffffffffffffffffffffffffffff1916827bffffffffffffffffffffffffffffffffffffffffffffffffffffffff1916148061098657507f5b5e139f000000000000000000000000000000000000000000000000000000007bffffffffffffffffffffffffffffffffffffffffffffffffffffffff1916827bffffffffffffffffffffffffffffffffffffffffffffffffffffffff1916145b80610996575061099582611db1565b5b9050919050565b60008383836040516020016109b4939291906133db565b6040516020818303038152906040528051906020012090509392505050565b6060600280546109e290613c13565b80601f0160208091040260200160405190810160405280929190818152602001828054610a0e90613c13565b8015610a5b5780601f10610a3057610100808354040283529160200191610a5b565b820191906000526020600020905b815481529060010190602001808311610a3e57829003601f168201915b5050505050905090565b6000610a7082611e1b565b610aaf576040517f08c379a0000000000000000000000000000000000000000000000000000000008152600401610aa690613754565b60405180910390fd5b6006600083815260200190815260200160002060009054906101000a900473ffffffffffffffffffffffffffffffffffffffff169050919050565b6000610af58261168c565b90508073ffffffffffffffffffffffffffffffffffffffff168373ffffffffffffffffffffffffffffffffffffffff161415610b66576040517f08c379a0000000000000000000000000000000000000000000000000000000008152600401610b5d906137f4565b60405180910390fd5b8073ffffffffffffffffffffffffffffffffffffffff16610b85611e87565b73ffffffffffffffffffffffffffffffffffffffff161480610bb45750610bb381610bae611e87565b611cc9565b5b610bf3576040517f08c379a0000000000000000000000000000000000000000000000000000000008152600401610bea90613694565b60405180910390fd5b610bfd8383611e8f565b505050565b600b5481565b6000600e54600a54610c1a9190613b12565b905090565b60006103e87d90e40fbeea1d3a4abc8955e946fe31cdcf66f634e1000000000000000000610c4c84610cd4565b610c569190613a87565b610c609190613ced565b9050919050565b6000436011541115905090565b610c85610c7f611e87565b82611f48565b610cc4576040517f08c379a0000000000000000000000000000000000000000000000000000000008152600401610cbb90613854565b60405180910390fd5b610ccf838383612026565b505050565b6000600860008381526020019081526020016000205490506000811415610d30576040517f08c379a0000000000000000000000000000000000000000000000000000000008152600401610d2790613934565b60405180910390fd5b919050565b60008054906101000a900473ffffffffffffffffffffffffffffffffffffffff1673ffffffffffffffffffffffffffffffffffffffff163373ffffffffffffffffffffffffffffffffffffffff1614610dc3576040517f08c379a0000000000000000000000000000000000000000000000000000000008152600401610dba90613614565b60405180910390fd5b600073ffffffffffffffffffffffffffffffffffffffff168173ffffffffffffffffffffffffffffffffffffffff161415610e33576040517f08c379a0000000000000000000000000000000000000000000000000000000008152600401610e2a906136f4565b60405180910390fd5b80601260006101000a81548173ffffffffffffffffffffffffffffffffffffffff021916908373ffffffffffffffffffffffffffffffffffffffff16021790555050565b601260149054906101000a900460ff1681565b600d54610e95610c08565b10610ed5576040517f08c379a0000000000000000000000000000000000000000000000000000000008152600401610ecc90613834565b60405180910390fd5b8282826000610ee530858561099d565b90506000610ef282611d81565b9050600160009054906101000a900473ffffffffffffffffffffffffffffffffffffffff1673ffffffffffffffffffffffffffffffffffffffff16610f3782856118e0565b73ffffffffffffffffffffffffffffffffffffffff1614610f8d576040517f08c379a0000000000000000000000000000000000000000000000000000000008152600401610f8490613714565b60405180910390fd5b6000801b871415610fd3576040517f08c379a0000000000000000000000000000000000000000000000000000000008152600401610fca906137d4565b60405180910390fd5b600073ffffffffffffffffffffffffffffffffffffffff168873ffffffffffffffffffffffffffffffffffffffff161415611043576040517f08c379a000000000000000000000000000000000000000000000000000000000815260040161103a90613894565b60405180910390fd5b6013600088815260200190815260200160002060009054906101000a900460ff16156110a4576040517f08c379a000000000000000000000000000000000000000000000000000000000815260040161109b906138f4565b60405180910390fd5b6110ac610c67565b6110eb576040517f08c379a00000000000000000000000000000000000000000000000000000000081526004016110e2906138b4565b60405180910390fd5b60008790506001601360008a815260200190815260200160002060006101000a81548160ff02191690831515021790555060005b6002811015611271576000601260009054906101000a900473ffffffffffffffffffffffffffffffffffffffff1673ffffffffffffffffffffffffffffffffffffffff1663c11eef22601054856040518363ffffffff1660e01b815260040161118992919061396f565b60206040518083038186803b1580156111a157600080fd5b505afa1580156111b5573d6000803e3d6000fd5b505050506040513d601f19601f820116820180604052508101906111d99190612e78565b90506009600082815260200190815260200160002060009054906101000a900460ff166112125761120a818c612282565b5050506112ad565b7f62cfa4cce40ef7d4f78e3de602d69dac41277d80b8d910c8af07ffe40d73e14c83604051602001611245929190613423565b60405160208183030381529060405280519060200120925050808061126990613c76565b91505061111f565b506040517f08c379a00000000000000000000000000000000000000000000000000000000081526004016112a4906138d4565b60405180910390fd5b5050505050505050565b6112d283838360405180602001604052806000815250611b6a565b505050565b6101d281565b600d5481565b60008054906101000a900473ffffffffffffffffffffffffffffffffffffffff1673ffffffffffffffffffffffffffffffffffffffff163373ffffffffffffffffffffffffffffffffffffffff1614611371576040517f08c379a000000000000000000000000000000000000000000000000000000000815260040161136890613614565b60405180910390fd5b600073ffffffffffffffffffffffffffffffffffffffff168173ffffffffffffffffffffffffffffffffffffffff1614156113e1576040517f08c379a00000000000000000000000000000000000000000000000000000000081526004016113d890613774565b60405180910390fd5b80600160006101000a81548173ffffffffffffffffffffffffffffffffffffffff021916908373ffffffffffffffffffffffffffffffffffffffff16021790555050565b60008054906101000a900473ffffffffffffffffffffffffffffffffffffffff1673ffffffffffffffffffffffffffffffffffffffff163373ffffffffffffffffffffffffffffffffffffffff16146114b3576040517f08c379a00000000000000000000000000000000000000000000000000000000081526004016114aa90613614565b60405180910390fd5b601260149054906101000a900460ff1615611503576040517f08c379a00000000000000000000000000000000000000000000000000000000081526004016114fa90613914565b60405180910390fd5b600073ffffffffffffffffffffffffffffffffffffffff168273ffffffffffffffffffffffffffffffffffffffff161415801561156d5750600073ffffffffffffffffffffffffffffffffffffffff168173ffffffffffffffffffffffffffffffffffffffff1614155b6115ac576040517f08c379a00000000000000000000000000000000000000000000000000000000081526004016115a390613814565b60405180910390fd5b81600160006101000a81548173ffffffffffffffffffffffffffffffffffffffff021916908373ffffffffffffffffffffffffffffffffffffffff16021790555080601260006101000a81548173ffffffffffffffffffffffffffffffffffffffff021916908373ffffffffffffffffffffffffffffffffffffffff1602179055506001601260146101000a81548160ff0219169083151502179055505050565b6040518060400160405280600a81526020017f302e312e302d626574610000000000000000000000000000000000000000000081525081565b6156fe81565b6000806004600084815260200190815260200160002060009054906101000a900473ffffffffffffffffffffffffffffffffffffffff169050600073ffffffffffffffffffffffffffffffffffffffff168173ffffffffffffffffffffffffffffffffffffffff161415611735576040517f08c379a000000000000000000000000000000000000000000000000000000000815260040161172c906136d4565b60405180910390fd5b80915050919050565b600e5481565b600c5481565b60008073ffffffffffffffffffffffffffffffffffffffff168273ffffffffffffffffffffffffffffffffffffffff1614156117bb576040517f08c379a00000000000000000000000000000000000000000000000000000000081526004016117b2906136b4565b60405180910390fd5b600560008373ffffffffffffffffffffffffffffffffffffffff1673ffffffffffffffffffffffffffffffffffffffff168152602001908152602001600020549050919050565b60105481565b600160009054906101000a900473ffffffffffffffffffffffffffffffffffffffff1681565b60096020528060005260406000206000915054906101000a900460ff1681565b60606003805461185d90613c13565b80601f016020809104026020016040519081016040528092919081815260200182805461188990613c13565b80156118d65780601f106118ab576101008083540402835291602001916118d6565b820191906000526020600020905b8154815290600101906020018083116118b957829003601f168201915b5050505050905090565b6000806000806118ef85611af0565b92509250925060018682858560405160008152602001604052604051611918949392919061356d565b6020604051602081039080840390855afa15801561193a573d6000803e3d6000fd5b50505060206040510351935050505092915050565b60136020528060005260406000206000915054906101000a900460ff1681565b611977611e87565b73ffffffffffffffffffffffffffffffffffffffff168273ffffffffffffffffffffffffffffffffffffffff1614156119e5576040517f08c379a00000000000000000000000000000000000000000000000000000000081526004016119dc90613654565b60405180910390fd5b80600760006119f2611e87565b73ffffffffffffffffffffffffffffffffffffffff1673ffffffffffffffffffffffffffffffffffffffff16815260200190815260200160002060008473ffffffffffffffffffffffffffffffffffffffff1673ffffffffffffffffffffffffffffffffffffffff16815260200190815260200160002060006101000a81548160ff0219169083151502179055508173ffffffffffffffffffffffffffffffffffffffff16611a9f611e87565b73ffffffffffffffffffffffffffffffffffffffff167f17307eab39ab6107e8899845ad3d59bd9653f200f220920489ca2b5937696c3183604051611ae49190613500565b60405180910390a35050565b60008060006041845114611b39576040517f08c379a0000000000000000000000000000000000000000000000000000000008152600401611b3090613874565b60405180910390fd5b6020840151925060408401519150606084015160001a90509193909250565b670de0b6b3a764000081565b600f5481565b611b7b611b75611e87565b83611f48565b611bba576040517f08c379a0000000000000000000000000000000000000000000000000000000008152600401611bb190613854565b60405180910390fd5b611bc684848484612340565b50505050565b7f62cfa4cce40ef7d4f78e3de602d69dac41277d80b8d910c8af07ffe40d73e14c81565b601260009054906101000a900473ffffffffffffffffffffffffffffffffffffffff1681565b6060611c2182611e1b565b611c60576040517f08c379a0000000000000000000000000000000000000000000000000000000008152600401611c57906137b4565b60405180910390fd5b6000611c6a61239c565b90506000815111611c8a5760405180602001604052806000815250611cb5565b80611c94846123b3565b604051602001611ca592919061344f565b6040516020818303038152906040525b915050919050565b60115481565b600a5481565b6000600760008473ffffffffffffffffffffffffffffffffffffffff1673ffffffffffffffffffffffffffffffffffffffff16815260200190815260200160002060008373ffffffffffffffffffffffffffffffffffffffff1673ffffffffffffffffffffffffffffffffffffffff16815260200190815260200160002060009054906101000a900460ff16905092915050565b60008054906101000a900473ffffffffffffffffffffffffffffffffffffffff1681565b600081604051602001611d949190613473565b604051602081830303815290604052805190602001209050919050565b60007f01ffc9a7000000000000000000000000000000000000000000000000000000007bffffffffffffffffffffffffffffffffffffffffffffffffffffffff1916827bffffffffffffffffffffffffffffffffffffffffffffffffffffffff1916149050919050565b60008073ffffffffffffffffffffffffffffffffffffffff166004600084815260200190815260200160002060009054906101000a900473ffffffffffffffffffffffffffffffffffffffff1673ffffffffffffffffffffffffffffffffffffffff1614159050919050565b600033905090565b816006600083815260200190815260200160002060006101000a81548173ffffffffffffffffffffffffffffffffffffffff021916908373ffffffffffffffffffffffffffffffffffffffff160217905550808273ffffffffffffffffffffffffffffffffffffffff16611f028361168c565b73ffffffffffffffffffffffffffffffffffffffff167f8c5be1e5ebec7d5bd14f71427d1e84f3dd0314c0f7b2291e5b200ac8c7c3b92560405160405180910390a45050565b6000611f5382611e1b565b611f92576040517f08c379a0000000000000000000000000000000000000000000000000000000008152600401611f8990613674565b60405180910390fd5b6000611f9d8361168c565b90508073ffffffffffffffffffffffffffffffffffffffff168473ffffffffffffffffffffffffffffffffffffffff16148061200c57508373ffffffffffffffffffffffffffffffffffffffff16611ff484610a65565b73ffffffffffffffffffffffffffffffffffffffff16145b8061201d575061201c8185611cc9565b5b91505092915050565b8273ffffffffffffffffffffffffffffffffffffffff166120468261168c565b73ffffffffffffffffffffffffffffffffffffffff161461209c576040517f08c379a000000000000000000000000000000000000000000000000000000000815260040161209390613794565b60405180910390fd5b600073ffffffffffffffffffffffffffffffffffffffff168273ffffffffffffffffffffffffffffffffffffffff16141561210c576040517f08c379a000000000000000000000000000000000000000000000000000000000815260040161210390613634565b60405180910390fd5b612117838383612514565b612122600082611e8f565b6001600560008573ffffffffffffffffffffffffffffffffffffffff1673ffffffffffffffffffffffffffffffffffffffff16815260200190815260200160002060008282546121729190613b12565b925050819055506001600560008473ffffffffffffffffffffffffffffffffffffffff1673ffffffffffffffffffffffffffffffffffffffff16815260200190815260200160002060008282546121c99190613a31565b92505081905550816004600083815260200190815260200160002060006101000a81548173ffffffffffffffffffffffffffffffffffffffff021916908373ffffffffffffffffffffffffffffffffffffffff160217905550808273ffffffffffffffffffffffffffffffffffffffff168473ffffffffffffffffffffffffffffffffffffffff167fddf252ad1be2c89b69c2b068fc378daa952ba7f163c4a11628f55a4df523b3ef60405160405180910390a4505050565b6000600a549050600a600081548092919061229c90613c76565b919050555082600860008381526020019081526020016000208190555060016009600085815260200190815260200160002060006101000a81548160ff0219169083151502179055506122ed612519565b6122f78282612535565b808273ffffffffffffffffffffffffffffffffffffffff167fd9a79f971481095a2a2336c344c7c01f5cc75128249ee793845743040b1c56ee60405160405180910390a3505050565b61234b848484612026565b61235784848484612703565b612396576040517f08c379a000000000000000000000000000000000000000000000000000000000815260040161238d906135d4565b60405180910390fd5b50505050565b606060405180602001604052806000815250905090565b606060008214156123fb576040518060400160405280600181526020017f3000000000000000000000000000000000000000000000000000000000000000815250905061250f565b600082905060005b6000821461242d57808061241690613c76565b915050600a826124269190613a87565b9150612403565b60008167ffffffffffffffff81111561244957612448613dda565b5b6040519080825280601f01601f19166020018201604052801561247b5781602001600182028036833780820191505090505b5090505b60008514612508576001826124949190613b12565b9150600a856124a39190613ced565b60306124af9190613a31565b60f81b8183815181106124c5576124c4613dab565b5b60200101907effffffffffffffffffffffffffffffffffffffffffffffffffffffffffffff1916908160001a905350600a856125019190613a87565b945061247f565b8093505050505b919050565b505050565b600d54612524610c08565b14156125335761253261289a565b5b565b600073ffffffffffffffffffffffffffffffffffffffff168273ffffffffffffffffffffffffffffffffffffffff1614156125a5576040517f08c379a000000000000000000000000000000000000000000000000000000000815260040161259c90613734565b60405180910390fd5b6125ae81611e1b565b156125ee576040517f08c379a00000000000000000000000000000000000000000000000000000000081526004016125e5906135f4565b60405180910390fd5b6125fa60008383612514565b6001600560008473ffffffffffffffffffffffffffffffffffffffff1673ffffffffffffffffffffffffffffffffffffffff168152602001908152602001600020600082825461264a9190613a31565b92505081905550816004600083815260200190815260200160002060006101000a81548173ffffffffffffffffffffffffffffffffffffffff021916908373ffffffffffffffffffffffffffffffffffffffff160217905550808273ffffffffffffffffffffffffffffffffffffffff16600073ffffffffffffffffffffffffffffffffffffffff167fddf252ad1be2c89b69c2b068fc378daa952ba7f163c4a11628f55a4df523b3ef60405160405180910390a45050565b60006127248473ffffffffffffffffffffffffffffffffffffffff166128df565b1561288d578373ffffffffffffffffffffffffffffffffffffffff1663150b7a0261274d611e87565b8786866040518563ffffffff1660e01b815260040161276f94939291906134b4565b602060405180830381600087803b15801561278957600080fd5b505af19250505080156127ba57506040513d601f19601f820116820180604052508101906127b79190612dd5565b60015b61283d573d80600081146127ea576040519150601f19603f3d011682016040523d82523d6000602084013e6127ef565b606091505b50600081511415612835576040517f08c379a000000000000000000000000000000000000000000000000000000000815260040161282c906135d4565b60405180910390fd5b805181602001fd5b63150b7a0260e01b7bffffffffffffffffffffffffffffffffffffffffffffffffffffffff1916817bffffffffffffffffffffffffffffffffffffffffffffffffffffffff191614915050612892565b600190505b949350505050565b6156fe436128a89190613a31565b6011819055506128b66128f2565b600d81905550600a54600e81905550601060008154809291906128d890613c76565b9190505550565b600080823b905060008111915050919050565b600080600c54670de0b6b3a7640000600d5461290e9190613ab8565b6129189190613a87565b905060006064670de0b6b3a76400006129319190613ab8565b905060008183670de0b6b3a764000061294a9190613b12565b84600f546129589190613ab8565b6129629190613ab8565b61296c9190613a87565b9050670de0b6b3a7640000600c54826129859190613ab8565b61298f9190613a87565b935050505090565b60006129aa6129a5846139bd565b613998565b9050828152602081018484840111156129c6576129c5613e0e565b5b6129d1848285613bd1565b509392505050565b6000813590506129e88161464d565b92915050565b6000813590506129fd81614664565b92915050565b600081359050612a128161467b565b92915050565b600081359050612a2781614692565b92915050565b600081519050612a3c81614692565b92915050565b600082601f830112612a5757612a56613e09565b5b8135612a67848260208601612997565b91505092915050565b600081359050612a7f816146a9565b92915050565b600081519050612a94816146a9565b92915050565b600060208284031215612ab057612aaf613e18565b5b6000612abe848285016129d9565b91505092915050565b60008060408385031215612ade57612add613e18565b5b6000612aec858286016129d9565b9250506020612afd858286016129d9565b9150509250929050565b600080600060608486031215612b2057612b1f613e18565b5b6000612b2e868287016129d9565b9350506020612b3f868287016129d9565b9250506040612b5086828701612a03565b9150509250925092565b600080600060608486031215612b7357612b72613e18565b5b6000612b81868287016129d9565b9350506020612b92868287016129d9565b9250506040612ba386828701612a70565b9150509250925092565b60008060008060808587031215612bc757612bc6613e18565b5b6000612bd5878288016129d9565b9450506020612be6878288016129d9565b9350506040612bf787828801612a70565b925050606085013567ffffffffffffffff811115612c1857612c17613e13565b5b612c2487828801612a42565b91505092959194509250565b60008060408385031215612c4757612c46613e18565b5b6000612c55858286016129d9565b9250506020612c66858286016129ee565b9150509250929050565b600080600060608486031215612c8957612c88613e18565b5b6000612c97868287016129d9565b9350506020612ca886828701612a03565b925050604084013567ffffffffffffffff811115612cc957612cc8613e13565b5b612cd586828701612a42565b9150509250925092565b60008060408385031215612cf657612cf5613e18565b5b6000612d04858286016129d9565b9250506020612d1585828601612a70565b9150509250929050565b600060208284031215612d3557612d34613e18565b5b6000612d4384828501612a03565b91505092915050565b60008060408385031215612d6357612d62613e18565b5b6000612d7185828601612a03565b925050602083013567ffffffffffffffff811115612d9257612d91613e13565b5b612d9e85828601612a42565b9150509250929050565b600060208284031215612dbe57612dbd613e18565b5b6000612dcc84828501612a18565b91505092915050565b600060208284031215612deb57612dea613e18565b5b6000612df984828501612a2d565b91505092915050565b600060208284031215612e1857612e17613e18565b5b600082013567ffffffffffffffff811115612e3657612e35613e13565b5b612e4284828501612a42565b91505092915050565b600060208284031215612e6157612e60613e18565b5b6000612e6f84828501612a70565b91505092915050565b600060208284031215612e8e57612e8d613e18565b5b6000612e9c84828501612a85565b91505092915050565b612eae81613b46565b82525050565b612ec5612ec082613b46565b613cbf565b82525050565b612ed481613b58565b82525050565b612ee381613b64565b82525050565b612efa612ef582613b64565b613cd1565b82525050565b6000612f0b826139ee565b612f158185613a04565b9350612f25818560208601613be0565b612f2e81613e1d565b840191505092915050565b6000612f44826139f9565b612f4e8185613a15565b9350612f5e818560208601613be0565b612f6781613e1d565b840191505092915050565b6000612f7d826139f9565b612f878185613a26565b9350612f97818560208601613be0565b80840191505092915050565b6000612fb0601c83613a26565b9150612fbb82613e3b565b601c82019050919050565b6000612fd3603283613a15565b9150612fde82613e64565b604082019050919050565b6000612ff6601c83613a15565b915061300182613eb3565b602082019050919050565b6000613019602483613a15565b915061302482613edc565b604082019050919050565b600061303c602483613a15565b915061304782613f2b565b604082019050919050565b600061305f601983613a15565b915061306a82613f7a565b602082019050919050565b6000613082602c83613a15565b915061308d82613fa3565b604082019050919050565b60006130a5603883613a15565b91506130b082613ff2565b604082019050919050565b60006130c8602a83613a15565b91506130d382614041565b604082019050919050565b60006130eb602983613a15565b91506130f682614090565b604082019050919050565b600061310e603183613a15565b9150613119826140df565b604082019050919050565b6000613131601a83613a15565b915061313c8261412e565b602082019050919050565b6000613154602083613a15565b915061315f82614157565b602082019050919050565b6000613177602c83613a15565b915061318282614180565b604082019050919050565b600061319a602983613a15565b91506131a5826141cf565b604082019050919050565b60006131bd602983613a15565b91506131c88261421e565b604082019050919050565b60006131e0602f83613a15565b91506131eb8261426d565b604082019050919050565b6000613203603083613a15565b915061320e826142bc565b604082019050919050565b6000613226602183613a15565b91506132318261430b565b604082019050919050565b6000613249602483613a15565b91506132548261435a565b604082019050919050565b600061326c603b83613a15565b9150613277826143a9565b604082019050919050565b600061328f603183613a15565b915061329a826143f8565b604082019050919050565b60006132b2602983613a15565b91506132bd82614447565b604082019050919050565b60006132d5603483613a15565b91506132e082614496565b604082019050919050565b60006132f8603783613a15565b9150613303826144e5565b604082019050919050565b600061331b601b83613a15565b915061332682614534565b602082019050919050565b600061333e602283613a15565b91506133498261455d565b604082019050919050565b6000613361602f83613a26565b915061336c826145ac565b602f82019050919050565b6000613384601f83613a15565b915061338f826145fb565b602082019050919050565b60006133a7602083613a15565b91506133b282614624565b602082019050919050565b6133c681613bba565b82525050565b6133d581613bc4565b82525050565b60006133e78286612eb4565b6014820191506133f78285612eb4565b6014820191506134078284612ee9565b60208201915061341682613354565b9150819050949350505050565b600061342f8285612ee9565b60208201915061343f8284612ee9565b6020820191508190509392505050565b600061345b8285612f72565b91506134678284612f72565b91508190509392505050565b600061347e82612fa3565b915061348a8284612ee9565b60208201915081905092915050565b60006020820190506134ae6000830184612ea5565b92915050565b60006080820190506134c96000830187612ea5565b6134d66020830186612ea5565b6134e360408301856133bd565b81810360608301526134f58184612f00565b905095945050505050565b60006020820190506135156000830184612ecb565b92915050565b60006020820190506135306000830184612eda565b92915050565b600060608201905061354b6000830186612eda565b6135586020830185612eda565b61356560408301846133cc565b949350505050565b60006080820190506135826000830187612eda565b61358f60208301866133cc565b61359c6040830185612eda565b6135a96060830184612eda565b95945050505050565b600060208201905081810360008301526135cc8184612f39565b905092915050565b600060208201905081810360008301526135ed81612fc6565b9050919050565b6000602082019050818103600083015261360d81612fe9565b9050919050565b6000602082019050818103600083015261362d8161300c565b9050919050565b6000602082019050818103600083015261364d8161302f565b9050919050565b6000602082019050818103600083015261366d81613052565b9050919050565b6000602082019050818103600083015261368d81613075565b9050919050565b600060208201905081810360008301526136ad81613098565b9050919050565b600060208201905081810360008301526136cd816130bb565b9050919050565b600060208201905081810360008301526136ed816130de565b9050919050565b6000602082019050818103600083015261370d81613101565b9050919050565b6000602082019050818103600083015261372d81613124565b9050919050565b6000602082019050818103600083015261374d81613147565b9050919050565b6000602082019050818103600083015261376d8161316a565b9050919050565b6000602082019050818103600083015261378d8161318d565b9050919050565b600060208201905081810360008301526137ad816131b0565b9050919050565b600060208201905081810360008301526137cd816131d3565b9050919050565b600060208201905081810360008301526137ed816131f6565b9050919050565b6000602082019050818103600083015261380d81613219565b9050919050565b6000602082019050818103600083015261382d8161323c565b9050919050565b6000602082019050818103600083015261384d8161325f565b9050919050565b6000602082019050818103600083015261386d81613282565b9050919050565b6000602082019050818103600083015261388d816132a5565b9050919050565b600060208201905081810360008301526138ad816132c8565b9050919050565b600060208201905081810360008301526138cd816132eb565b9050919050565b600060208201905081810360008301526138ed8161330e565b9050919050565b6000602082019050818103600083015261390d81613331565b9050919050565b6000602082019050818103600083015261392d81613377565b9050919050565b6000602082019050818103600083015261394d8161339a565b9050919050565b600060208201905061396960008301846133bd565b92915050565b600060408201905061398460008301856133bd565b6139916020830184612eda565b9392505050565b60006139a26139b3565b90506139ae8282613c45565b919050565b6000604051905090565b600067ffffffffffffffff8211156139d8576139d7613dda565b5b6139e182613e1d565b9050602081019050919050565b600081519050919050565b600081519050919050565b600082825260208201905092915050565b600082825260208201905092915050565b600081905092915050565b6000613a3c82613bba565b9150613a4783613bba565b9250827fffffffffffffffffffffffffffffffffffffffffffffffffffffffffffffffff03821115613a7c57613a7b613d1e565b5b828201905092915050565b6000613a9282613bba565b9150613a9d83613bba565b925082613aad57613aac613d4d565b5b828204905092915050565b6000613ac382613bba565b9150613ace83613bba565b9250817fffffffffffffffffffffffffffffffffffffffffffffffffffffffffffffffff0483118215151615613b0757613b06613d1e565b5b828202905092915050565b6000613b1d82613bba565b9150613b2883613bba565b925082821015613b3b57613b3a613d1e565b5b828203905092915050565b6000613b5182613b9a565b9050919050565b60008115159050919050565b6000819050919050565b60007fffffffff0000000000000000000000000000000000000000000000000000000082169050919050565b600073ffffffffffffffffffffffffffffffffffffffff82169050919050565b6000819050919050565b600060ff82169050919050565b82818337600083830152505050565b60005b83811015613bfe578082015181840152602081019050613be3565b83811115613c0d576000848401525b50505050565b60006002820490506001821680613c2b57607f821691505b60208210811415613c3f57613c3e613d7c565b5b50919050565b613c4e82613e1d565b810181811067ffffffffffffffff82111715613c6d57613c6c613dda565b5b80604052505050565b6000613c8182613bba565b91507fffffffffffffffffffffffffffffffffffffffffffffffffffffffffffffffff821415613cb457613cb3613d1e565b5b600182019050919050565b6000613cca82613cdb565b9050919050565b6000819050919050565b6000613ce682613e2e565b9050919050565b6000613cf882613bba565b9150613d0383613bba565b925082613d1357613d12613d4d565b5b828206905092915050565b7f4e487b7100000000000000000000000000000000000000000000000000000000600052601160045260246000fd5b7f4e487b7100000000000000000000000000000000000000000000000000000000600052601260045260246000fd5b7f4e487b7100000000000000000000000000000000000000000000000000000000600052602260045260246000fd5b7f4e487b7100000000000000000000000000000000000000000000000000000000600052603260045260246000fd5b7f4e487b7100000000000000000000000000000000000000000000000000000000600052604160045260246000fd5b600080fd5b600080fd5b600080fd5b600080fd5b6000601f19601f8301169050919050565b60008160601b9050919050565b7f19457468657265756d205369676e6564204d6573736167653a0a333200000000600082015250565b7f4552433732313a207472616e7366657220746f206e6f6e20455243373231526560008201527f63656976657220696d706c656d656e7465720000000000000000000000000000602082015250565b7f4552433732313a20746f6b656e20616c7265616479206d696e74656400000000600082015250565b7f436f6e74726f6c6c65723a206f6e6c792061646d696e2066756e6374696f6e6160008201527f6c69747900000000000000000000000000000000000000000000000000000000602082015250565b7f4552433732313a207472616e7366657220746f20746865207a65726f2061646460008201527f7265737300000000000000000000000000000000000000000000000000000000602082015250565b7f4552433732313a20617070726f766520746f2063616c6c657200000000000000600082015250565b7f4552433732313a206f70657261746f7220717565727920666f72206e6f6e657860008201527f697374656e7420746f6b656e0000000000000000000000000000000000000000602082015250565b7f4552433732313a20617070726f76652063616c6c6572206973206e6f74206f7760008201527f6e6572206e6f7220617070726f76656420666f7220616c6c0000000000000000602082015250565b7f4552433732313a2062616c616e636520717565727920666f7220746865207a6560008201527f726f206164647265737300000000000000000000000000000000000000000000602082015250565b7f4552433732313a206f776e657220717565727920666f72206e6f6e657869737460008201527f656e7420746f6b656e0000000000000000000000000000000000000000000000602082015250565b7f436f6e74726f6c6c65723a2067656e652067656e657261746f722063616e6e6f60008201527f74206265207a65726f2061646472657373000000000000000000000000000000602082015250565b7f436f6e74726f6c6c65723a20696e76616c6964206f726967696e000000000000600082015250565b7f4552433732313a206d696e7420746f20746865207a65726f2061646472657373600082015250565b7f4552433732313a20617070726f76656420717565727920666f72206e6f6e657860008201527f697374656e7420746f6b656e0000000000000000000000000000000000000000602082015250565b7f436f6e74726f6c6c65723a206f726967696e2063616e6e6f74206265207a657260008201527f6f20616464726573730000000000000000000000000000000000000000000000602082015250565b7f4552433732313a207472616e73666572206f6620746f6b656e2074686174206960008201527f73206e6f74206f776e0000000000000000000000000000000000000000000000602082015250565b7f4552433732314d657461646174613a2055524920717565727920666f72206e6f60008201527f6e6578697374656e7420746f6b656e0000000000000000000000000000000000602082015250565b7f57617272696f72733a2063616e6e6f74206d696e742077617272696f7220776960008201527f74686f7574206174747269627574657300000000000000000000000000000000602082015250565b7f4552433732313a20617070726f76616c20746f2063757272656e74206f776e6560008201527f7200000000000000000000000000000000000000000000000000000000000000602082015250565b7f436f6e74726f6c6c65723a207a65726f2061646472657373206e6f7420616c6c60008201527f6f77656400000000000000000000000000000000000000000000000000000000602082015250565b7f57617272696f72733a206e6f206d6f72652077617272696f722063616e20626560008201527f206d696e74656420666f7220746869732067656e65726174696f6e0000000000602082015250565b7f4552433732313a207472616e736665722063616c6c6572206973206e6f74206f60008201527f776e6572206e6f7220617070726f766564000000000000000000000000000000602082015250565b7f5369676e617475726548656c7065723a20696e76616c6964207369676e61747560008201527f7265206c656e6774680000000000000000000000000000000000000000000000602082015250565b7f57617272696f72733a206e6f2077617272696f722063616e206265206173736960008201527f676e656420746f207a65726f2061646472657373000000000000000000000000602082015250565b7f436f6e74726f6c6c65723a207761697420666f72206e6578742067656e65726160008201527f74696f6e2077617272696f727320746f20617272697665000000000000000000602082015250565b7f57617272696f72733a2067656e6520616c726561647920757365640000000000600082015250565b7f57617272696f72436f72653a206d6574616461746120616c726561647920757360008201527f6564000000000000000000000000000000000000000000000000000000000000602082015250565b7f67656e657261746557617272696f7228616464726573732c206279746573333260008201527f2c206279746573206d656d6f7279290000000000000000000000000000000000602082015250565b7f436f6e74726f6c6c65723a20616c726561647920696e697469616c697a656400600082015250565b7f57617272696f72733a2077617272696f7220646f6573206e6f74206578697374600082015250565b61465681613b46565b811461466157600080fd5b50565b61466d81613b58565b811461467857600080fd5b50565b61468481613b64565b811461468f57600080fd5b50565b61469b81613b6e565b81146146a657600080fd5b50565b6146b281613bba565b81146146bd57600080fd5b5056fea26469706673582212205de1ebc1cae9b9b6bedb63b4af8eae34a8270e6aa21f650672536eb2e2b900da64736f6c63430008060033",
  "linkReferences": {},
  "deployedLinkReferences": {}
}