{
  "_format": "hh-sol-artifact-1",
  "contractName": "WarriorCore",
  "sourceName": "contracts/WarriorCore.sol",
  "abi": [
    {
      "inputs": [
        {
          "internalType": "uint256",
          "name": "_initialMaxPopulation",
          "type": "uint256"
        }
      ],
      "stateMutability": "nonpayable",
      "type": "constructor"
    },
    {
      "anonymous": false,
      "inputs": [
        {
          "indexed": true,
          "internalType": "address",
          "name": "owner",
          "type": "address"
        },
        {
          "indexed": true,
          "internalType": "address",
          "name": "approved",
          "type": "address"
        },
        {
          "indexed": true,
          "internalType": "uint256",
          "name": "tokenId",
          "type": "uint256"
        }
      ],
      "name": "Approval",
      "type": "event"
    },
    {
      "anonymous": false,
      "inputs": [
        {
          "indexed": true,
          "internalType": "address",
          "name": "owner",
          "type": "address"
        },
        {
          "indexed": true,
          "internalType": "address",
          "name": "operator",
          "type": "address"
        },
        {
          "indexed": false,
          "internalType": "bool",
          "name": "approved",
          "type": "bool"
        }
      ],
      "name": "ApprovalForAll",
      "type": "event"
    },
    {
      "anonymous": false,
      "inputs": [
        {
          "indexed": true,
          "internalType": "address",
          "name": "from",
          "type": "address"
        },
        {
          "indexed": true,
          "internalType": "address",
          "name": "to",
          "type": "address"
        },
        {
          "indexed": true,
          "internalType": "uint256",
          "name": "tokenId",
          "type": "uint256"
        }
      ],
      "name": "Transfer",
      "type": "event"
    },
    {
      "anonymous": false,
      "inputs": [
        {
          "indexed": true,
          "internalType": "address",
          "name": "owner",
          "type": "address"
        },
        {
          "indexed": true,
          "internalType": "uint256",
          "name": "warriorId",
          "type": "uint256"
        }
      ],
      "name": "WarriorGenerated",
      "type": "event"
    },
    {
      "inputs": [],
      "name": "GENERATION_COOLDOWN",
      "outputs": [
        {
          "internalType": "uint256",
          "name": "",
          "type": "uint256"
        }
      ],
      "stateMutability": "view",
      "type": "function"
    },
    {
      "inputs": [],
      "name": "GROWTH_PRECISION",
      "outputs": [
        {
          "internalType": "uint256",
          "name": "",
          "type": "uint256"
        }
      ],
      "stateMutability": "view",
      "type": "function"
    },
    {
      "inputs": [],
      "name": "PRECISION",
      "outputs": [
        {
          "internalType": "uint256",
          "name": "",
          "type": "uint256"
        }
      ],
      "stateMutability": "view",
      "type": "function"
    },
    {
      "inputs": [],
      "name": "SALT",
      "outputs": [
        {
          "internalType": "bytes32",
          "name": "",
          "type": "bytes32"
        }
      ],
      "stateMutability": "view",
      "type": "function"
    },
    {
      "inputs": [],
      "name": "admin",
      "outputs": [
        {
          "internalType": "address",
          "name": "",
          "type": "address"
        }
      ],
      "stateMutability": "view",
      "type": "function"
    },
    {
      "inputs": [
        {
          "internalType": "address",
          "name": "to",
          "type": "address"
        },
        {
          "internalType": "uint256",
          "name": "tokenId",
          "type": "uint256"
        }
      ],
      "name": "approve",
      "outputs": [],
      "stateMutability": "nonpayable",
      "type": "function"
    },
    {
      "inputs": [
        {
          "internalType": "address",
          "name": "owner",
          "type": "address"
        }
      ],
      "name": "balanceOf",
      "outputs": [
        {
          "internalType": "uint256",
          "name": "",
          "type": "uint256"
        }
      ],
      "stateMutability": "view",
      "type": "function"
    },
    {
      "inputs": [
        {
          "internalType": "bytes32",
          "name": "c__0x2990dd1c",
          "type": "bytes32"
        }
      ],
      "name": "c_0x2990dd1c",
      "outputs": [],
      "stateMutability": "pure",
      "type": "function"
    },
    {
      "inputs": [
        {
          "internalType": "bytes32",
          "name": "c__0x35965594",
          "type": "bytes32"
        }
      ],
      "name": "c_0x35965594",
      "outputs": [],
      "stateMutability": "pure",
      "type": "function"
    },
    {
      "inputs": [
        {
          "internalType": "bytes32",
          "name": "c__0x90b130ba",
          "type": "bytes32"
        }
      ],
      "name": "c_0x90b130ba",
      "outputs": [],
      "stateMutability": "pure",
      "type": "function"
    },
    {
      "inputs": [
        {
          "internalType": "bytes32",
          "name": "c__0xb7f7bea8",
          "type": "bytes32"
        }
      ],
      "name": "c_0xb7f7bea8",
      "outputs": [],
      "stateMutability": "pure",
      "type": "function"
    },
    {
      "inputs": [
        {
          "internalType": "bytes32",
          "name": "c__0xd1105804",
          "type": "bytes32"
        }
      ],
      "name": "c_0xd1105804",
      "outputs": [],
      "stateMutability": "pure",
      "type": "function"
    },
    {
      "inputs": [
        {
          "internalType": "bytes32",
          "name": "c__0xf7581358",
          "type": "bytes32"
        }
      ],
      "name": "c_0xf7581358",
      "outputs": [],
      "stateMutability": "pure",
      "type": "function"
    },
    {
      "inputs": [
        {
          "internalType": "bytes32",
          "name": "c__0xfe7be20b",
          "type": "bytes32"
        }
      ],
      "name": "c_0xfe7be20b",
      "outputs": [],
      "stateMutability": "pure",
      "type": "function"
    },
    {
      "inputs": [],
      "name": "currentGeneration",
      "outputs": [
        {
          "internalType": "uint256",
          "name": "",
          "type": "uint256"
        }
      ],
      "stateMutability": "view",
      "type": "function"
    },
    {
      "inputs": [],
      "name": "currentGenerationMaxPopulation",
      "outputs": [
        {
          "internalType": "uint256",
          "name": "",
          "type": "uint256"
        }
      ],
      "stateMutability": "view",
      "type": "function"
    },
    {
      "inputs": [],
      "name": "currentGenerationPopulation",
      "outputs": [
        {
          "internalType": "uint256",
          "name": "",
          "type": "uint256"
        }
      ],
      "stateMutability": "view",
      "type": "function"
    },
    {
      "inputs": [
        {
          "internalType": "address",
          "name": "_to",
          "type": "address"
        },
        {
          "internalType": "address",
          "name": "_from",
          "type": "address"
        },
        {
          "internalType": "bytes32",
          "name": "_metadata",
          "type": "bytes32"
        }
      ],
      "name": "generateHash",
      "outputs": [
        {
          "internalType": "bytes32",
          "name": "",
          "type": "bytes32"
        }
      ],
      "stateMutability": "pure",
      "type": "function"
    },
    {
      "inputs": [
        {
          "internalType": "address",
          "name": "_owner",
          "type": "address"
        },
        {
          "internalType": "bytes32",
          "name": "_metadata",
          "type": "bytes32"
        },
        {
          "internalType": "bytes",
          "name": "_originSignature",
          "type": "bytes"
        }
      ],
      "name": "generateWarrior",
      "outputs": [],
      "stateMutability": "nonpayable",
      "type": "function"
    },
    {
      "inputs": [
        {
          "internalType": "uint256",
          "name": "tokenId",
          "type": "uint256"
        }
      ],
      "name": "getApproved",
      "outputs": [
        {
          "internalType": "address",
          "name": "",
          "type": "address"
        }
      ],
      "stateMutability": "view",
      "type": "function"
    },
    {
      "inputs": [
        {
          "internalType": "bytes32",
          "name": "_messageHash",
          "type": "bytes32"
        }
      ],
      "name": "getEthSignedMessageHash",
      "outputs": [
        {
          "internalType": "bytes32",
          "name": "",
          "type": "bytes32"
        }
      ],
      "stateMutability": "pure",
      "type": "function"
    },
    {
      "inputs": [
        {
          "internalType": "uint256",
          "name": "_warriorId",
          "type": "uint256"
        }
      ],
      "name": "getWarrior",
      "outputs": [
        {
          "internalType": "uint256",
          "name": "warrior",
          "type": "uint256"
        }
      ],
      "stateMutability": "view",
      "type": "function"
    },
    {
      "inputs": [
        {
          "internalType": "uint256",
          "name": "_warriorId",
          "type": "uint256"
        }
      ],
      "name": "getWarriorGeneration",
      "outputs": [
        {
          "internalType": "uint256",
          "name": "",
          "type": "uint256"
        }
      ],
      "stateMutability": "view",
      "type": "function"
    },
    {
      "inputs": [],
      "name": "growthRate",
      "outputs": [
        {
          "internalType": "uint256",
          "name": "",
          "type": "uint256"
        }
      ],
      "stateMutability": "view",
      "type": "function"
    },
    {
      "inputs": [
        {
          "internalType": "address",
          "name": "_origin",
          "type": "address"
        },
        {
          "internalType": "address",
          "name": "_warriorGeneGeneratorContract",
          "type": "address"
        }
      ],
      "name": "initialize",
      "outputs": [],
      "stateMutability": "nonpayable",
      "type": "function"
    },
    {
      "inputs": [],
      "name": "isActive",
      "outputs": [
        {
          "internalType": "bool",
          "name": "",
          "type": "bool"
        }
      ],
      "stateMutability": "view",
      "type": "function"
    },
    {
      "inputs": [
        {
          "internalType": "address",
          "name": "owner",
          "type": "address"
        },
        {
          "internalType": "address",
          "name": "operator",
          "type": "address"
        }
      ],
      "name": "isApprovedForAll",
      "outputs": [
        {
          "internalType": "bool",
          "name": "",
          "type": "bool"
        }
      ],
      "stateMutability": "view",
      "type": "function"
    },
    {
      "inputs": [
        {
          "internalType": "uint256",
          "name": "",
          "type": "uint256"
        }
      ],
      "name": "isGeneUsed",
      "outputs": [
        {
          "internalType": "bool",
          "name": "",
          "type": "bool"
        }
      ],
      "stateMutability": "view",
      "type": "function"
    },
    {
      "inputs": [],
      "name": "isInitialized",
      "outputs": [
        {
          "internalType": "bool",
          "name": "",
          "type": "bool"
        }
      ],
      "stateMutability": "view",
      "type": "function"
    },
    {
      "inputs": [
        {
          "internalType": "bytes32",
          "name": "",
          "type": "bytes32"
        }
      ],
      "name": "isMetadataUsed",
      "outputs": [
        {
          "internalType": "bool",
          "name": "",
          "type": "bool"
        }
      ],
      "stateMutability": "view",
      "type": "function"
    },
    {
      "inputs": [],
      "name": "lastGeneration",
      "outputs": [
        {
          "internalType": "uint256",
          "name": "",
          "type": "uint256"
        }
      ],
      "stateMutability": "view",
      "type": "function"
    },
    {
      "inputs": [],
      "name": "maxPopulation",
      "outputs": [
        {
          "internalType": "uint256",
          "name": "",
          "type": "uint256"
        }
      ],
      "stateMutability": "view",
      "type": "function"
    },
    {
      "inputs": [],
      "name": "maxPopulationPerGen",
      "outputs": [
        {
          "internalType": "uint256",
          "name": "",
          "type": "uint256"
        }
      ],
      "stateMutability": "view",
      "type": "function"
    },
    {
      "inputs": [],
      "name": "name",
      "outputs": [
        {
          "internalType": "string",
          "name": "",
          "type": "string"
        }
      ],
      "stateMutability": "view",
      "type": "function"
    },
    {
      "inputs": [],
      "name": "nextGenerationStartBlock",
      "outputs": [
        {
          "internalType": "uint256",
          "name": "",
          "type": "uint256"
        }
      ],
      "stateMutability": "view",
      "type": "function"
    },
    {
      "inputs": [],
      "name": "origin",
      "outputs": [
        {
          "internalType": "address",
          "name": "",
          "type": "address"
        }
      ],
      "stateMutability": "view",
      "type": "function"
    },
    {
      "inputs": [
        {
          "internalType": "uint256",
          "name": "tokenId",
          "type": "uint256"
        }
      ],
      "name": "ownerOf",
      "outputs": [
        {
          "internalType": "address",
          "name": "",
          "type": "address"
        }
      ],
      "stateMutability": "view",
      "type": "function"
    },
    {
      "inputs": [],
      "name": "populationUntilLastGeneration",
      "outputs": [
        {
          "internalType": "uint256",
          "name": "",
          "type": "uint256"
        }
      ],
      "stateMutability": "view",
      "type": "function"
    },
    {
      "inputs": [
        {
          "internalType": "bytes32",
          "name": "_ethSignedMessageHash",
          "type": "bytes32"
        },
        {
          "internalType": "bytes",
          "name": "_signature",
          "type": "bytes"
        }
      ],
      "name": "recoverSigner",
      "outputs": [
        {
          "internalType": "address",
          "name": "",
          "type": "address"
        }
      ],
      "stateMutability": "pure",
      "type": "function"
    },
    {
      "inputs": [
        {
          "internalType": "address",
          "name": "from",
          "type": "address"
        },
        {
          "internalType": "address",
          "name": "to",
          "type": "address"
        },
        {
          "internalType": "uint256",
          "name": "tokenId",
          "type": "uint256"
        }
      ],
      "name": "safeTransferFrom",
      "outputs": [],
      "stateMutability": "nonpayable",
      "type": "function"
    },
    {
      "inputs": [
        {
          "internalType": "address",
          "name": "from",
          "type": "address"
        },
        {
          "internalType": "address",
          "name": "to",
          "type": "address"
        },
        {
          "internalType": "uint256",
          "name": "tokenId",
          "type": "uint256"
        },
        {
          "internalType": "bytes",
          "name": "_data",
          "type": "bytes"
        }
      ],
      "name": "safeTransferFrom",
      "outputs": [],
      "stateMutability": "nonpayable",
      "type": "function"
    },
    {
      "inputs": [
        {
          "internalType": "address",
          "name": "operator",
          "type": "address"
        },
        {
          "internalType": "bool",
          "name": "approved",
          "type": "bool"
        }
      ],
      "name": "setApprovalForAll",
      "outputs": [],
      "stateMutability": "nonpayable",
      "type": "function"
    },
    {
      "inputs": [
        {
          "internalType": "address",
          "name": "_newGeneGenerator",
          "type": "address"
        }
      ],
      "name": "setGeneGenerator",
      "outputs": [],
      "stateMutability": "nonpayable",
      "type": "function"
    },
    {
      "inputs": [
        {
          "internalType": "address",
          "name": "_newOrigin",
          "type": "address"
        }
      ],
      "name": "setOrigin",
      "outputs": [],
      "stateMutability": "nonpayable",
      "type": "function"
    },
    {
      "inputs": [
        {
          "internalType": "bytes",
          "name": "sig",
          "type": "bytes"
        }
      ],
      "name": "splitSignature",
      "outputs": [
        {
          "internalType": "bytes32",
          "name": "r",
          "type": "bytes32"
        },
        {
          "internalType": "bytes32",
          "name": "s",
          "type": "bytes32"
        },
        {
          "internalType": "uint8",
          "name": "v",
          "type": "uint8"
        }
      ],
      "stateMutability": "pure",
      "type": "function"
    },
    {
      "inputs": [
        {
          "internalType": "bytes4",
          "name": "interfaceId",
          "type": "bytes4"
        }
      ],
      "name": "supportsInterface",
      "outputs": [
        {
          "internalType": "bool",
          "name": "",
          "type": "bool"
        }
      ],
      "stateMutability": "view",
      "type": "function"
    },
    {
      "inputs": [],
      "name": "symbol",
      "outputs": [
        {
          "internalType": "string",
          "name": "",
          "type": "string"
        }
      ],
      "stateMutability": "view",
      "type": "function"
    },
    {
      "inputs": [
        {
          "internalType": "uint256",
          "name": "tokenId",
          "type": "uint256"
        }
      ],
      "name": "tokenURI",
      "outputs": [
        {
          "internalType": "string",
          "name": "",
          "type": "string"
        }
      ],
      "stateMutability": "view",
      "type": "function"
    },
    {
      "inputs": [
        {
          "internalType": "address",
          "name": "from",
          "type": "address"
        },
        {
          "internalType": "address",
          "name": "to",
          "type": "address"
        },
        {
          "internalType": "uint256",
          "name": "tokenId",
          "type": "uint256"
        }
      ],
      "name": "transferFrom",
      "outputs": [],
      "stateMutability": "nonpayable",
      "type": "function"
    },
    {
      "inputs": [],
      "name": "version",
      "outputs": [
        {
          "internalType": "string",
          "name": "",
          "type": "string"
        }
      ],
      "stateMutability": "view",
      "type": "function"
    },
    {
      "inputs": [],
      "name": "warriorCounter",
      "outputs": [
        {
          "internalType": "uint256",
          "name": "",
          "type": "uint256"
        }
      ],
      "stateMutability": "view",
      "type": "function"
    },
    {
      "inputs": [],
      "name": "warriorGeneGeneratorContract",
      "outputs": [
        {
          "internalType": "address",
          "name": "",
          "type": "address"
        }
      ],
      "stateMutability": "view",
      "type": "function"
    }
  ],
  "bytecode": "0x608060405263019bfcc0600b55620186a0600c55610187600f553480156200002657600080fd5b5060405162006b8938038062006b8983398181016040528101906200004c919062000466565b80806040518060400160405280600881526020017f57617272696f72730000000000000000000000000000000000000000000000008152506040518060400160405280600381526020017f5752540000000000000000000000000000000000000000000000000000000000815250620000ee7fab356af44e70dfaa571c9eff4e95bec7e8b3e404e2ec52d0d4b7fb5cb8cbc38660001b6200039060201b60201c565b620001227fc97dd08e0216f5daf69d4ced9e1cd33817800eb601c7e8e1f62926d6ca2d1bef60001b6200039060201b60201c565b620001567fab21c9b0efbd8e582404024f54c4147710cf8bfc0d76618541a3b4b7b8047ef360001b6200039060201b60201c565b336000806101000a81548173ffffffffffffffffffffffffffffffffffffffff021916908373ffffffffffffffffffffffffffffffffffffffff1602179055508160029080519060200190620001ae9291906200039f565b508060039080519060200190620001c79291906200039f565b505050620001fe7fd50e3a71318cdd9a58793c47abf089f572962e2a1ebda3ae2eee610b7c61512360001b6200039360201b60201c565b620002327ffb85bf63933d758d6116dcac2571fcb49bb6ad5051db2847dc35d3a5a71652fc60001b6200039660201b60201c565b620002667f3dfa11ab29fde1a34bfac235506f9d12a2b589f5536b1f444c5a192d1448112d60001b6200039660201b60201c565b6200029a7faa285f8facfdfc78994fcb15af25da55345df6371da2b4a2d34497b606c4ab6260001b6200039660201b60201c565b80600d8190555050620002d67f94f055c5f9ad307e65e180c9566ac90c89b96cf8eb265584f263bdff616d4cfe60001b6200039960201b60201c565b6200030a7fbab0897a56ed8d5030195bc66ebac66135a337c9f3b0ba57cd3d5545e73be6d060001b6200039960201b60201c565b6200033e7fb21d19aa8b06be2d1e04b34e07505358850be88a3acfd8f297affa97e254bcf360001b6200039960201b60201c565b6101f4436200034e919062000498565b60118190555050620003897f86485962a541d484fcddd3d5a60745db5589cbcf17bcca05dcbba3d8f02b5bec60001b6200039c60201b60201c565b50620005b2565b50565b50565b50565b50565b50565b828054620003ad90620004ff565b90600052602060002090601f016020900481019282620003d157600085556200041d565b82601f10620003ec57805160ff19168380011785556200041d565b828001600101855582156200041d579182015b828111156200041c578251825591602001919060010190620003ff565b5b5090506200042c919062000430565b5090565b5b808211156200044b57600081600090555060010162000431565b5090565b600081519050620004608162000598565b92915050565b6000602082840312156200047f576200047e62000593565b5b60006200048f848285016200044f565b91505092915050565b6000620004a582620004f5565b9150620004b283620004f5565b9250827fffffffffffffffffffffffffffffffffffffffffffffffffffffffffffffffff03821115620004ea57620004e962000535565b5b828201905092915050565b6000819050919050565b600060028204905060018216806200051857607f821691505b602082108114156200052f576200052e62000564565b5b50919050565b7f4e487b7100000000000000000000000000000000000000000000000000000000600052601160045260246000fd5b7f4e487b7100000000000000000000000000000000000000000000000000000000600052602260045260246000fd5b600080fd5b620005a381620004f5565b8114620005af57600080fd5b50565b6165c780620005c26000396000f3fe608060405234801561001057600080fd5b506004361061030c5760003560e01c80636ae8f7371161019d578063a8a3c4cd116100e9578063c4ffe2f4116100a2578063d0b96ef91161007c578063d0b96ef91461096b578063e985e9c514610989578063f851a440146109b9578063fa540801146109d75761030c565b8063c4ffe2f414610901578063c87b56dd1461091d578063cf26c5241461094d5761030c565b8063a8a3c4cd14610851578063aaf5eb681461086d578063ad4ae8c31461088b578063b88d4fde146108a9578063ba9a91a5146108c5578063c3236983146108e35761030c565b80639422ee781161015657806397aba7f91161013057806397aba7f9146107a35780639c7b2394146107d3578063a22cb46514610803578063a7bb58031461081f5761030c565b80639422ee781461073957806395d89b411461076957806396100acf146107875761030c565b80636ae8f737146106755780636bba6c281461069357806370a08231146106b1578063720c6433146106e15780638ddb428a146106fd578063938b5f321461071b5761030c565b80633890d1f71161025c5780634787dc651161021557806354fd4d50116101ef57806354fd4d50146105ed5780635e30acb41461060b5780636352211e1461062957806366f07bfe146106595761030c565b80634787dc651461059757806347c484e9146105b5578063485cc955146105d15761030c565b80633890d1f7146104eb578063392e53cd146105075780633b7efe1a14610525578063426b41131461054157806342842e0e1461055d57806347697a04146105795761030c565b806317729a82116102c957806322cbeeb5116102a357806322cbeeb51461046557806322f3e2d41461048157806323b872dd1461049f57806329372ad0146104bb5761030c565b806317729a82146103f95780631ae64d2f146104175780631e15ec92146104355761030c565b8063014f25ab1461031157806301ffc9a71461032f578063043baf801461035f57806306fdde031461038f578063081812fc146103ad578063095ea7b3146103dd575b600080fd5b610319610a07565b6040516103269190615825565b60405180910390f35b61034960048036038101906103449190614c79565b610a0c565b60405161035691906153d1565b60405180910390f35b610379600480360381019061037491906149d8565b610aee565b60405161038691906153ec565b60405180910390f35b610397610ba8565b6040516103a49190615483565b60405180910390f35b6103c760048036038101906103c29190614d1c565b610c3a565b6040516103d4919061536a565b60405180910390f35b6103f760048036038101906103f29190614bb0565b610cbf565b005b610401610dd7565b60405161040e9190615825565b60405180910390f35b61041f610ddd565b60405161042c9190615825565b60405180910390f35b61044f600480360381019061044a9190614d1c565b610e78565b60405161045c9190615825565b60405180910390f35b61047f600480360381019061047a9190614bf0565b610f44565b005b610489610f47565b60405161049691906153d1565b60405180910390f35b6104b960048036038101906104b49190614a2b565b610fd8565b005b6104d560048036038101906104d09190614d1c565b611038565b6040516104e29190615825565b60405180910390f35b6105056004803603810190610500919061496b565b6111cd565b005b61050f61154b565b60405161051c91906153d1565b60405180910390f35b61053f600480360381019061053a9190614bf0565b61155e565b005b61055b60048036038101906105569190614b41565b611561565b005b61057760048036038101906105729190614a2b565b6122aa565b005b6105816122ca565b60405161058e9190615825565b60405180910390f35b61059f6122d0565b6040516105ac9190615825565b60405180910390f35b6105cf60048036038101906105ca919061496b565b6122d6565b005b6105eb60048036038101906105e69190614998565b612654565b005b6105f5612c18565b6040516106029190615483565b60405180910390f35b610613612c51565b6040516106209190615825565b60405180910390f35b610643600480360381019061063e9190614d1c565b612c57565b604051610650919061536a565b60405180910390f35b610673600480360381019061066e9190614bf0565b612d09565b005b61067d612d0c565b60405161068a9190615825565b60405180910390f35b61069b612d12565b6040516106a89190615825565b60405180910390f35b6106cb60048036038101906106c6919061496b565b612d18565b6040516106d89190615825565b60405180910390f35b6106fb60048036038101906106f69190614bf0565b612dd0565b005b610705612dd3565b6040516107129190615825565b60405180910390f35b610723612dd9565b604051610730919061536a565b60405180910390f35b610753600480360381019061074e9190614d1c565b612dff565b60405161076091906153d1565b60405180910390f35b610771612e1f565b60405161077e9190615483565b60405180910390f35b6107a1600480360381019061079c9190614bf0565b612eb1565b005b6107bd60048036038101906107b89190614c1d565b612eb4565b6040516107ca919061536a565b60405180910390f35b6107ed60048036038101906107e89190614bf0565b613000565b6040516107fa91906153d1565b60405180910390f35b61081d60048036038101906108189190614b01565b613020565b005b61083960048036038101906108349190614cd3565b6131a1565b60405161084893929190615407565b60405180910390f35b61086b60048036038101906108669190614bf0565b613311565b005b610875613314565b6040516108829190615825565b60405180910390f35b610893613320565b6040516108a09190615825565b60405180910390f35b6108c360048036038101906108be9190614a7e565b613326565b005b6108cd613388565b6040516108da91906153ec565b60405180910390f35b6108eb6133ac565b6040516108f8919061536a565b60405180910390f35b61091b60048036038101906109169190614bf0565b6133d2565b005b61093760048036038101906109329190614d1c565b6133d5565b6040516109449190615483565b60405180910390f35b61095561347c565b6040516109629190615825565b60405180910390f35b610973613482565b6040516109809190615825565b60405180910390f35b6109a3600480360381019061099e9190614998565b613488565b6040516109b091906153d1565b60405180910390f35b6109c161351c565b6040516109ce919061536a565b60405180910390f35b6109f160048036038101906109ec9190614bf0565b613540565b6040516109fe91906153ec565b60405180910390f35b606481565b60007f80ac58cd000000000000000000000000000000000000000000000000000000007bffffffffffffffffffffffffffffffffffffffffffffffffffffffff1916827bffffffffffffffffffffffffffffffffffffffffffffffffffffffff19161480610ad757507f5b5e139f000000000000000000000000000000000000000000000000000000007bffffffffffffffffffffffffffffffffffffffffffffffffffffffff1916827bffffffffffffffffffffffffffffffffffffffffffffffffffffffff1916145b80610ae75750610ae6826135f4565b5b9050919050565b6000610b1c7fc114c1a8ff6203e3a676e84bc62fb96c9e82a200ca778aba9fc1489123ba9e5d60001b612d09565b610b487f4721ff9508e3a9ba068c830554fa10ab206963bba498ad0781e381f486baf6d160001b612d09565b610b747f1c899f81e3a1e580803f797a154f6615c1be27b6d8b7f5ac98c636413ad22be660001b612d09565b838383604051602001610b89939291906152ac565b6040516020818303038152906040528051906020012090509392505050565b606060028054610bb790615ae4565b80601f0160208091040260200160405190810160405280929190818152602001828054610be390615ae4565b8015610c305780601f10610c0557610100808354040283529160200191610c30565b820191906000526020600020905b815481529060010190602001808311610c1357829003601f168201915b5050505050905090565b6000610c458261365e565b610c84576040517f08c379a0000000000000000000000000000000000000000000000000000000008152600401610c7b90615625565b60405180910390fd5b6006600083815260200190815260200160002060009054906101000a900473ffffffffffffffffffffffffffffffffffffffff169050919050565b6000610cca82612c57565b90508073ffffffffffffffffffffffffffffffffffffffff168373ffffffffffffffffffffffffffffffffffffffff161415610d3b576040517f08c379a0000000000000000000000000000000000000000000000000000000008152600401610d32906156c5565b60405180910390fd5b8073ffffffffffffffffffffffffffffffffffffffff16610d5a6136ca565b73ffffffffffffffffffffffffffffffffffffffff161480610d895750610d8881610d836136ca565b613488565b5b610dc8576040517f08c379a0000000000000000000000000000000000000000000000000000000008152600401610dbf90615565565b60405180910390fd5b610dd283836136d2565b505050565b600b5481565b6000610e0b7f268751a4dcab362f44e254234614ac473ae5064ed087b71dd71712575e736cfb60001b610f44565b610e377f072ada8e99239700ac749b8a5df1b8f3e380550a77855037a0c7c04b3927933260001b610f44565b610e637f1612aed0064474c9292d7fff02e34456283bbc9794d64f446b15a16f83b1950c60001b610f44565b600e54600a54610e7391906159e3565b905090565b6000610ea67fd700c5dc05ca28d9a20cbf605e115ab90abe542a4cd51ab5c486ca7f8e73d02b60001b610f44565b610ed27f9dcc63f36d735d290d31053b8ec9fc88d793795b4537306f3352d35c9f48f98460001b610f44565b610efe7f56d7033a8a0c0bdc38b5a81d547a2c4582c83cb112184646ae353b3cd962cd9260001b610f44565b6103e87d90e40fbeea1d3a4abc8955e946fe31cdcf66f634e1000000000000000000610f2984611038565b610f339190615958565b610f3d9190615bbe565b9050919050565b50565b6000610f757f563fac133f30de9d32a2e41ce4c45a843b935a1a44b99cc59103ebd43c717b7860001b610f44565b610fa17f80da5c282fbff87a77494d85a02a6e55243940fda0ab7ad9cfbd7ec4ee04afd760001b610f44565b610fcd7fcf117bba493fea1ecd683079767abfc9f9927997ccd80c9153d65682d8ca114560001b610f44565b436011541115905090565b610fe9610fe36136ca565b8261378b565b611028576040517f08c379a000000000000000000000000000000000000000000000000000000000815260040161101f90615725565b60405180910390fd5b611033838383613869565b505050565b60006110667f701b02f0cf66b6e2fca5c2fb1adac3753e4da98e99b3502bf23c2709f5564c3060001b612dd0565b6110927fd31bf1c5716c4a6ca75f25ca6e350b873fa7be868ad0309b7c687682173421df60001b612dd0565b6110be7fce366b246e97a55c905a7c522441332ae97f8ea55041f67d802dd4c26221c17e60001b612dd0565b600860008381526020019081526020016000205490506111007f53d140ff8342cf9c52b0dfb58cb6973e538ca0d6f2fa976b67ab5f7e86dc4c3460001b612dd0565b61112c7fa7a2e4c23a5bd1924ab2683eb3e88b4ef9ba8f3356782e6594846e530bd4c94660001b612dd0565b6111587f25b40f4f7927c961097408bf995aa5648fc4d2ce202121b22f5114d5b7674d5060001b612dd0565b600081141561119c576040517f08c379a000000000000000000000000000000000000000000000000000000000815260040161119390615805565b60405180910390fd5b6111c87fb7974f1c4d5b0ff03f2fa0db8db68527328756ff6532b4e80f61be85f4ed4fa560001b612dd0565b919050565b6111f97fa8f9d7948db65fae211860092525fc5eb37e952e314981f059246efd6f16906d60001b61155e565b6112257fb8dac615c01a31f9131427062142c6506d5e94d74953208eafa4ce8094383d9060001b61155e565b6112517fc628d02aabf0211aef84eec60b903ae06507ad22f4d767d6ad08550e929d604260001b61155e565b61127d7f9788ab210042dcec27b8ca223a55988e807c5de1dd722015bd16ee100e43b1a760001b61155e565b60008054906101000a900473ffffffffffffffffffffffffffffffffffffffff1673ffffffffffffffffffffffffffffffffffffffff163373ffffffffffffffffffffffffffffffffffffffff161461130b576040517f08c379a0000000000000000000000000000000000000000000000000000000008152600401611302906154e5565b60405180910390fd5b6113377f923852c9e9ac990c2f7281435502304e5fefb65ce421e3de95c8194f05cf2f2a60001b61155e565b6113637fa83cd916d47ec1de64e2045e0c5cf2afa3a01a5f0a798ddfb57dcc1bdf48067460001b61155e565b61138f7f2785ef0ed86bae5ed00a0520efe2f4f027543a916a2f068336ccd88f924d308760001b612eb1565b6113bb7feeb93bbc69ebecf7a15159cb92f10dc1baf54c744b5c49c03df04862f847d11860001b612eb1565b6113e77fc9e63e00cf3741fe654820541523a1832ca30aaf2e4f061793cfe1a19ddf673b60001b612eb1565b6114137f90cbc22014eb9e991361a8110a569245c193172e1a620126d3a464040071476160001b612eb1565b600073ffffffffffffffffffffffffffffffffffffffff168173ffffffffffffffffffffffffffffffffffffffff161415611483576040517f08c379a000000000000000000000000000000000000000000000000000000000815260040161147a906155c5565b60405180910390fd5b6114af7ffb9e91302cc8807f7a7e1a1a3fd6f4dea75198912e631caa3a91234c6b9d28e960001b612eb1565b6114db7f88b3e66469200d3d061439fb46a6a92c4136d0eee2a8eb248f8a1f56b746806a60001b612eb1565b6115077f2a2bae46affa6ec067f5a8b2a3d9e80fb8619a2491e19e08db0a5fac7972930c60001b612eb1565b80601260006101000a81548173ffffffffffffffffffffffffffffffffffffffff021916908373ffffffffffffffffffffffffffffffffffffffff16021790555050565b601260149054906101000a900460ff1681565b50565b61158d7f6ab5e6b9a016d4db6c9864da9641a59ecfebe773901df6d53dda80be74cae17460001b610f44565b6115b97f6b6b0cc448f34e22aa5fcbf8d068cb57ff8559cbd2a240085489747abef1e24960001b610f44565b6115e57f1da5d56470237104c07d1ea3d8e2763a88a9d0af350cf70ceb2e9256ea1f043c60001b610f44565b6116117f2ca9ed25ad451d2f9c5b092e304a4cd949687013d3fb5e30310ac090d03e3c4d60001b610f44565b600d5461161c610ddd565b1061165c576040517f08c379a000000000000000000000000000000000000000000000000000000000815260040161165390615705565b60405180910390fd5b6116887fa1a7f0fe93f78b8f500f9b7d2c136c10f4ebbd2bd6b9a579df58e02e2bc59a8e60001b610f44565b6116b47fca498606fbe6a32e4169fe85700bf42ada72d008d6dc7bc1a668f0278aa9ac8660001b610f44565b8282826116e37f71f1a0143366b844a0575ef0d7d75a3b0bae6a8678eae20f0a4da98e070ab12860001b612d09565b61170f7fd1eea9d04892938cb4c20b30e529c1ea25077ea7244293bbb1a38d73b17accde60001b612d09565b61173b7f01298527ef9950111aa23ebfd32433802c9112b413e2358c09d782430bf0dc9360001b612d09565b6000611748308585610aee565b90506117767fe0ca31cbfc05e5c6a1f68b98d9f16c2af2d8acd0508ab051d609fc440bfd438060001b612d09565b6117a27f2d2adc34cb1e3debd8925b29997b7414c94a4ac0a54b80bd1e5ef9ff83f31b3560001b612d09565b60006117ad82613540565b90506117db7f401c5c1f67f1b3ba157e0ddf8df7cd7ddec3e7ef880039a491a9ea973f5e8cc060001b612d09565b6118077f20303bc17c1a084db7a147109d22cd69e4362f552c64730842fc9812932b3b1960001b612d09565b6118337fcda39c7b0b32100300230702cd219e357b29abec6de674d071d320ecec747b5260001b612d09565b600160009054906101000a900473ffffffffffffffffffffffffffffffffffffffff1673ffffffffffffffffffffffffffffffffffffffff166118768285612eb4565b73ffffffffffffffffffffffffffffffffffffffff16146118cc576040517f08c379a00000000000000000000000000000000000000000000000000000000081526004016118c3906155e5565b60405180910390fd5b6118f87f0fb63b3370c775e02cea608ad08d06fc3404d6b6d77ecbf4c093e25673714b2960001b612d09565b6119247f0a0f79ba092eb6feac65143e3f8d57af650374509ac29ad2c8c7de1bc4afff0f60001b612d09565b6119507fa9e9c7e68e8469d6f8797ad3500f50542810aa8a02cd7ddc71d52f057f102e5360001b612eb1565b61197c7f561515dbaba957bc0d1687faaba6d3bbeae621e2c360d681296ad0deb6fb242260001b612eb1565b6119a87f9f99997205cb73b5a661ba79d01679e4b212211d5e3bd893a7468c135b29506260001b612eb1565b6119d47f810f1ad65d307ab335592d43183a9e3aeb4c996d337c87847690dccace44355860001b612eb1565b6000801b871415611a1a576040517f08c379a0000000000000000000000000000000000000000000000000000000008152600401611a11906156a5565b60405180910390fd5b611a467f210de0953b864b3058288b1ab5a1633e3c9be277f62e8a11986cd700e325142d60001b612eb1565b611a727f7c0091ef5d9fa6b92311c63eafb127f4fe374d44d0e901463e81b0addd6177fc60001b612eb1565b611a9e7f07e6e949ea2e7a167be69fc306d861048a9deafdc817662453148717b640ef0b60001b612eb1565b611aca7faf75d6e875268f1fda764e1053ecdd8243d472c3a1cc8ffe91ff4be7cd4bd8a460001b612eb1565b600073ffffffffffffffffffffffffffffffffffffffff168873ffffffffffffffffffffffffffffffffffffffff161415611b3a576040517f08c379a0000000000000000000000000000000000000000000000000000000008152600401611b3190615765565b60405180910390fd5b611b667fb6f459715ceca3f4e5b3918f31d59d183bd10321253c6c1aac986929271a702b60001b612eb1565b611b927fd0eb4e8035c491dc83ab559eb8b2b2ed706cbc6dc5d59a9ab9e7c53fd4cf548b60001b612eb1565b611bbe7f15b022d2c85a3944c224f2d43bfb377f966d12b16eb714cae553c255e1e5ff8760001b612eb1565b611bea7ff0209f256eefdf8aac2b1c6317ec5afd49604a535555c9a5a4c31f16ba3163bb60001b612eb1565b6013600088815260200190815260200160002060009054906101000a900460ff1615611c4b576040517f08c379a0000000000000000000000000000000000000000000000000000000008152600401611c42906157c5565b60405180910390fd5b611c777f4f7839d53eae7cf8fc131ea9e7d1c10731428560d609644bf4c25ae78a72710d60001b612eb1565b611ca37f626aec549965c68e077ee491b138214bdd4faa51cfe0bea9d55136d71cead35660001b612eb1565b611ccf7f36d421042c439a84a26a8681726d4df853589c4dca88e13dadeb56d2bd10e34c60001b612eb1565b611cfb7fcd8fe5182e720b51f4b63fe7ca10aa2a3a0b38bcb0c0cb210378ec3f6e9a8c4a60001b612eb1565b611d03610f47565b611d42576040517f08c379a0000000000000000000000000000000000000000000000000000000008152600401611d3990615785565b60405180910390fd5b611d6e7f04fbe44ade974e1c772ff7ad602810daa5a1db0d37e4969723a796d2967fce4160001b612eb1565b611d9a7f9ad19ccde99b4d65746de17ee78f256390b578f02153cbf5ef803263f6982ed660001b612eb1565b611dc67ffbfcf5ee29c45ac14611eb7a7cb5a2e8b3a068a97d41b0013ddb78543cabd07260001b612eb1565b6000879050611df77f7bf7342e618a49bdcc5bf915d5568371df833c2890bd86aa86d81631ea06407960001b612eb1565b611e237fc01a14e64cc2f26f1015c7b9b4258b67d4bab45cf8cb306dd611ecfad77992b660001b612eb1565b6001601360008a815260200190815260200160002060006101000a81548160ff021916908315150217905550611e7b7f1da0676c1610265da31b01d31e13805dfe57666b1f504187f89cd9770e4fbdac60001b612eb1565b611ea77f77878fed946e7d0d2516ea5e8b37125b64ceb71ee44193ff22003fcac8f8b1b860001b612eb1565b60005b600281101561220c57611edf7fd2a0d4e81d28a1a6801af14447720ef52f1696e644671beb491b6931cf769f7660001b612eb1565b611f0b7f66a33d6647392a1f10eba8c86b1460cfb2437d9674d740aba53c091d3c503f2e60001b612eb1565b6000601260009054906101000a900473ffffffffffffffffffffffffffffffffffffffff1673ffffffffffffffffffffffffffffffffffffffff1663c11eef22601054856040518363ffffffff1660e01b8152600401611f6c929190615840565b60206040518083038186803b158015611f8457600080fd5b505afa158015611f98573d6000803e3d6000fd5b505050506040513d601f19601f82011682018060405250810190611fbc9190614d49565b9050611fea7f594e6ae34dffd03ec355e91085f56ed404f933138096fe8f05f705277c51864f60001b612eb1565b6120167f75b1ac84a24e7d05eb5ed632a13c90f8f65212dc3e1f53c1961d39c77013c5fd60001b612eb1565b6009600082815260200190815260200160002060009054906101000a900460ff16612129576120677f8284e5b7b20e88c2772b9aa81c0a1f1c964a7a1f8ef04780c0a4bc2b918f524760001b612eb1565b6120937f0db150425f13868c71aa97ffaff52e60e74133595fbe90024f2f204d877e3f0960001b612eb1565b6120bf7f72189a34b502bdf007ebe6ae63614b0a786c6eb547edc14f6e47914212c5fe9560001b612eb1565b6120c9818c613ac5565b6120f57fccc85336705eb542da86e87f6100869f70c60f5ded3f54319811d731af5d16d860001b612eb1565b6121217fe673b5fa7c62f3afb705e0a40491a364d680b08b160991a5ab3bf4697bd6d9d560001b612eb1565b5050506122a0565b6121557fab6ea71fa6aec162830c97731d17686d691dce52be2eb90b2a0c2479b954085e60001b612eb1565b6121817fd77ae945bb1c2bbfb727637a62364911366b69ecd203abe36a8137a90a5e9d6860001b612eb1565b6121ad7fe9ae2fe42c60f436f3d903f3961210d5cc7712003158e3342e67714f2f179bb060001b612eb1565b7f62cfa4cce40ef7d4f78e3de602d69dac41277d80b8d910c8af07ffe40d73e14c836040516020016121e09291906152f4565b60405160208183030381529060405280519060200120925050808061220490615b47565b915050611eaa565b506122397f7dad49e9cabddf3fb82162d0375488cef149dd9fe424e099a110540e4dbcd43560001b612eb1565b6122657feabe8412f1ceec84bc01c30e7f905eaec8987ce0f8ebc9daed69a050a8519d9860001b612eb1565b6040517f08c379a0000000000000000000000000000000000000000000000000000000008152600401612297906157a5565b60405180910390fd5b5050505050505050565b6122c583838360405180602001604052806000815250613326565b505050565b6101d281565b600d5481565b6123027fa8f9d7948db65fae211860092525fc5eb37e952e314981f059246efd6f16906d60001b61155e565b61232e7fb8dac615c01a31f9131427062142c6506d5e94d74953208eafa4ce8094383d9060001b61155e565b61235a7fc628d02aabf0211aef84eec60b903ae06507ad22f4d767d6ad08550e929d604260001b61155e565b6123867f9788ab210042dcec27b8ca223a55988e807c5de1dd722015bd16ee100e43b1a760001b61155e565b60008054906101000a900473ffffffffffffffffffffffffffffffffffffffff1673ffffffffffffffffffffffffffffffffffffffff163373ffffffffffffffffffffffffffffffffffffffff1614612414576040517f08c379a000000000000000000000000000000000000000000000000000000000815260040161240b906154e5565b60405180910390fd5b6124407f923852c9e9ac990c2f7281435502304e5fefb65ce421e3de95c8194f05cf2f2a60001b61155e565b61246c7fa83cd916d47ec1de64e2045e0c5cf2afa3a01a5f0a798ddfb57dcc1bdf48067460001b61155e565b6124987f11564ba513f75f6c17d5090f57c7911bd5da4b6f75c9c340ec7c4688411a1df860001b612d09565b6124c47f9eeb6d4840a2d0e50be15960516d39f1d149f78747b33e90cd3b58a8700197eb60001b612d09565b6124f07f285c810941d489a9f60ad8ac8d2192ef67dea46ca4c7fa8fba24483524d7ece860001b612d09565b61251c7fe38ad4030eb69ddb7f1feefbe6f81cbb26d9d9a44f826cba07c36b273aa93cbd60001b612d09565b600073ffffffffffffffffffffffffffffffffffffffff168173ffffffffffffffffffffffffffffffffffffffff16141561258c576040517f08c379a000000000000000000000000000000000000000000000000000000000815260040161258390615645565b60405180910390fd5b6125b87f320eb6ebaaa304e33ef8f9e205b680dac8cdddd22f39d737878c05573e004bec60001b612d09565b6125e47f0263d49268a56e65bcaa127b297af04f766c0a4360043a5123c561c7827eeece60001b612d09565b6126107fb64c711c8782049959e1bc689495139431b3a3aeef4e46e9a507f19bc2fb045960001b612d09565b80600160006101000a81548173ffffffffffffffffffffffffffffffffffffffff021916908373ffffffffffffffffffffffffffffffffffffffff16021790555050565b6126807fa8f9d7948db65fae211860092525fc5eb37e952e314981f059246efd6f16906d60001b61155e565b6126ac7fb8dac615c01a31f9131427062142c6506d5e94d74953208eafa4ce8094383d9060001b61155e565b6126d87fc628d02aabf0211aef84eec60b903ae06507ad22f4d767d6ad08550e929d604260001b61155e565b6127047f9788ab210042dcec27b8ca223a55988e807c5de1dd722015bd16ee100e43b1a760001b61155e565b60008054906101000a900473ffffffffffffffffffffffffffffffffffffffff1673ffffffffffffffffffffffffffffffffffffffff163373ffffffffffffffffffffffffffffffffffffffff1614612792576040517f08c379a0000000000000000000000000000000000000000000000000000000008152600401612789906154e5565b60405180910390fd5b6127be7f923852c9e9ac990c2f7281435502304e5fefb65ce421e3de95c8194f05cf2f2a60001b61155e565b6127ea7fa83cd916d47ec1de64e2045e0c5cf2afa3a01a5f0a798ddfb57dcc1bdf48067460001b61155e565b6128167fe07992aa2d4e33732815b35f8c16d1b7e16eecc522e6f4c18c71980e3276686160001b612eb1565b6128427f7235346f2349ed159d8adb60779555fe3b89a4c38ce1b21e823ad5dff08f961760001b612eb1565b61286e7ff571aa0449da5bf9768758adf291d4bc4f8f0b2d20f57b48c8dc5e5a057dc42460001b612eb1565b61289a7f2753729781e687904cbbcce46648aed39a9cbc28934cf3f6ad3829fe61ce108760001b612eb1565b601260149054906101000a900460ff16156128ea576040517f08c379a00000000000000000000000000000000000000000000000000000000081526004016128e1906157e5565b60405180910390fd5b6129167fecc4e9260d8f0f82ed638e8b05370bc643753418d6802a5b264a79f2b3a85c9360001b612eb1565b6129427f8da406c76e9e2128e02103fc3cf779e6efb1e245633f697a45c992b1879a9e0b60001b612eb1565b61296e7f6f58037af8480a5cef5f0da427d48f2fa059a2946c596c391eec180a2485251360001b612eb1565b61299a7f582b1413009af6c876ac5f4e9b2f60adc8a798399e2ba523cc7a501c984996c860001b612eb1565b600073ffffffffffffffffffffffffffffffffffffffff168273ffffffffffffffffffffffffffffffffffffffff1614158015612a045750600073ffffffffffffffffffffffffffffffffffffffff168173ffffffffffffffffffffffffffffffffffffffff1614155b612a43576040517f08c379a0000000000000000000000000000000000000000000000000000000008152600401612a3a906156e5565b60405180910390fd5b612a6f7f91931cf27660001d6acd75e717c113f85be81d8d2d73e445dbfd787f1de6870460001b612eb1565b612a9b7fdc7fddcbb3bccdec7891f4b8118b9209a05919606881ebf8c247b16dc0e6c94560001b612eb1565b612ac77f54437eab88d247f04bbb9f92b1c8419b5a9e4f1d81528dd006f4e843b7ca36e460001b612eb1565b81600160006101000a81548173ffffffffffffffffffffffffffffffffffffffff021916908373ffffffffffffffffffffffffffffffffffffffff160217905550612b347f5d042ecc9b3795eafe94c82a488b142ae2547eb089b5e9f9356f08cc9725c55e60001b612eb1565b612b607f59e815f997ecbe7002597e1251a74064dadf4d6b6dca95419fc4dd39c1ad248060001b612eb1565b80601260006101000a81548173ffffffffffffffffffffffffffffffffffffffff021916908373ffffffffffffffffffffffffffffffffffffffff160217905550612bcd7ffc6fd4558c145b028f5011c31333bf0f4ebc60c916652d1cc0a2c1c0aadbcccf60001b612eb1565b612bf97f886766976c573691f9d3982f8883bf50d28f32d164195c97978986f0e0ab064260001b612eb1565b6001601260146101000a81548160ff0219169083151502179055505050565b6040518060400160405280600a81526020017f302e312e302d626574610000000000000000000000000000000000000000000081525081565b6156fe81565b6000806004600084815260200190815260200160002060009054906101000a900473ffffffffffffffffffffffffffffffffffffffff169050600073ffffffffffffffffffffffffffffffffffffffff168173ffffffffffffffffffffffffffffffffffffffff161415612d00576040517f08c379a0000000000000000000000000000000000000000000000000000000008152600401612cf7906155a5565b60405180910390fd5b80915050919050565b50565b600e5481565b600c5481565b60008073ffffffffffffffffffffffffffffffffffffffff168273ffffffffffffffffffffffffffffffffffffffff161415612d89576040517f08c379a0000000000000000000000000000000000000000000000000000000008152600401612d8090615585565b60405180910390fd5b600560008373ffffffffffffffffffffffffffffffffffffffff1673ffffffffffffffffffffffffffffffffffffffff168152602001908152602001600020549050919050565b50565b60105481565b600160009054906101000a900473ffffffffffffffffffffffffffffffffffffffff1681565b60096020528060005260406000206000915054906101000a900460ff1681565b606060038054612e2e90615ae4565b80601f0160208091040260200160405190810160405280929190818152602001828054612e5a90615ae4565b8015612ea75780601f10612e7c57610100808354040283529160200191612ea7565b820191906000526020600020905b815481529060010190602001808311612e8a57829003601f168201915b5050505050905090565b50565b6000612ee27fd9ac1063bb20b10a7cabf0a12fa0deca484aa5ac04855e9e62e0d13f4e0d9d7860001b613311565b612f0e7faf92b2aa8baa1aa1813f82f5096c499a2a50ebd728e16ea434c65ba586ba814960001b613311565b612f3a7f5fadafdbf18fa4894c113ae24419291ec99f8a42e7089a81ebba2625de053b5f60001b613311565b6000806000612f48856131a1565b925092509250612f7a7f1ee8cd755ba2bd85ec500988f24a34cc8c77c9367cad2e781c2d21f95274716660001b613311565b612fa67f05813349e71b6151bb6827ef3b50e837a6727fca3e5bd60edbe3253c67bb3f1b60001b613311565b60018682858560405160008152602001604052604051612fc9949392919061543e565b6020604051602081039080840390855afa158015612feb573d6000803e3d6000fd5b50505060206040510351935050505092915050565b60136020528060005260406000206000915054906101000a900460ff1681565b6130286136ca565b73ffffffffffffffffffffffffffffffffffffffff168273ffffffffffffffffffffffffffffffffffffffff161415613096576040517f08c379a000000000000000000000000000000000000000000000000000000000815260040161308d90615525565b60405180910390fd5b80600760006130a36136ca565b73ffffffffffffffffffffffffffffffffffffffff1673ffffffffffffffffffffffffffffffffffffffff16815260200190815260200160002060008473ffffffffffffffffffffffffffffffffffffffff1673ffffffffffffffffffffffffffffffffffffffff16815260200190815260200160002060006101000a81548160ff0219169083151502179055508173ffffffffffffffffffffffffffffffffffffffff166131506136ca565b73ffffffffffffffffffffffffffffffffffffffff167f17307eab39ab6107e8899845ad3d59bd9653f200f220920489ca2b5937696c318360405161319591906153d1565b60405180910390a35050565b60008060006131d27fd9eb42db19d36ba08afdf76569895660e246593397cc1c0de9a120798c26179960001b613311565b6131fe7f29af21383d7cf85cef2dd53fb1679069dbebd2f0ae2c118a190684d5434b877f60001b613311565b61322a7fe65a51732487d9eaf14f6018266da224d1b558238143577726fbf08a1a0699cd60001b613311565b6132567f279b11dd981cc5c64f032294e7c2828e93d2531777867795e6f8bf0f15c2d4cd60001b613311565b604184511461329a576040517f08c379a000000000000000000000000000000000000000000000000000000000815260040161329190615745565b60405180910390fd5b6132c67f30edfe9f8d5d503332fe8d9d4c509b688dd80bd7bf7c45d4e96d499b78c1776760001b613311565b6132f27fc8f2a8377e67ed37fc14e5c078c0e2029615aa3d5370a92b75cdb2736cc0419960001b613311565b6020840151925060408401519150606084015160001a90509193909250565b50565b670de0b6b3a764000081565b600f5481565b6133376133316136ca565b8361378b565b613376576040517f08c379a000000000000000000000000000000000000000000000000000000000815260040161336d90615725565b60405180910390fd5b61338284848484613deb565b50505050565b7f62cfa4cce40ef7d4f78e3de602d69dac41277d80b8d910c8af07ffe40d73e14c81565b601260009054906101000a900473ffffffffffffffffffffffffffffffffffffffff1681565b50565b60606133e08261365e565b61341f576040517f08c379a000000000000000000000000000000000000000000000000000000000815260040161341690615685565b60405180910390fd5b6000613429613e47565b905060008151116134495760405180602001604052806000815250613474565b8061345384613e5e565b604051602001613464929190615320565b6040516020818303038152906040525b915050919050565b60115481565b600a5481565b6000600760008473ffffffffffffffffffffffffffffffffffffffff1673ffffffffffffffffffffffffffffffffffffffff16815260200190815260200160002060008373ffffffffffffffffffffffffffffffffffffffff1673ffffffffffffffffffffffffffffffffffffffff16815260200190815260200160002060009054906101000a900460ff16905092915050565b60008054906101000a900473ffffffffffffffffffffffffffffffffffffffff1681565b600061356e7ffcb4704cd96d9c53329a4c99fba3efb0260a8adc5e7c32ccbad3147f581c1f6c60001b613311565b61359a7f56d68e583482e39bdbe2180f142f7bc4caf776a6e5db8ecb0c38499db1be2acc60001b613311565b6135c67f72b8c5801540b2f7ba4f5d8cd90606b6d4d99169b1148d1560ffa0c6c37958e660001b613311565b816040516020016135d79190615344565b604051602081830303815290604052805190602001209050919050565b60007f01ffc9a7000000000000000000000000000000000000000000000000000000007bffffffffffffffffffffffffffffffffffffffffffffffffffffffff1916827bffffffffffffffffffffffffffffffffffffffffffffffffffffffff1916149050919050565b60008073ffffffffffffffffffffffffffffffffffffffff166004600084815260200190815260200160002060009054906101000a900473ffffffffffffffffffffffffffffffffffffffff1673ffffffffffffffffffffffffffffffffffffffff1614159050919050565b600033905090565b816006600083815260200190815260200160002060006101000a81548173ffffffffffffffffffffffffffffffffffffffff021916908373ffffffffffffffffffffffffffffffffffffffff160217905550808273ffffffffffffffffffffffffffffffffffffffff1661374583612c57565b73ffffffffffffffffffffffffffffffffffffffff167f8c5be1e5ebec7d5bd14f71427d1e84f3dd0314c0f7b2291e5b200ac8c7c3b92560405160405180910390a45050565b60006137968261365e565b6137d5576040517f08c379a00000000000000000000000000000000000000000000000000000000081526004016137cc90615545565b60405180910390fd5b60006137e083612c57565b90508073ffffffffffffffffffffffffffffffffffffffff168473ffffffffffffffffffffffffffffffffffffffff16148061384f57508373ffffffffffffffffffffffffffffffffffffffff1661383784610c3a565b73ffffffffffffffffffffffffffffffffffffffff16145b80613860575061385f8185613488565b5b91505092915050565b8273ffffffffffffffffffffffffffffffffffffffff1661388982612c57565b73ffffffffffffffffffffffffffffffffffffffff16146138df576040517f08c379a00000000000000000000000000000000000000000000000000000000081526004016138d690615665565b60405180910390fd5b600073ffffffffffffffffffffffffffffffffffffffff168273ffffffffffffffffffffffffffffffffffffffff16141561394f576040517f08c379a000000000000000000000000000000000000000000000000000000000815260040161394690615505565b60405180910390fd5b61395a838383613fbf565b6139656000826136d2565b6001600560008573ffffffffffffffffffffffffffffffffffffffff1673ffffffffffffffffffffffffffffffffffffffff16815260200190815260200160002060008282546139b591906159e3565b925050819055506001600560008473ffffffffffffffffffffffffffffffffffffffff1673ffffffffffffffffffffffffffffffffffffffff1681526020019081526020016000206000828254613a0c9190615902565b92505081905550816004600083815260200190815260200160002060006101000a81548173ffffffffffffffffffffffffffffffffffffffff021916908373ffffffffffffffffffffffffffffffffffffffff160217905550808273ffffffffffffffffffffffffffffffffffffffff168473ffffffffffffffffffffffffffffffffffffffff167fddf252ad1be2c89b69c2b068fc378daa952ba7f163c4a11628f55a4df523b3ef60405160405180910390a4505050565b613af17fe5b4df655186e20eaae2ebfd7785fef6976657dcdaeca7e45cf9603406996e3960001b612dd0565b613b1d7f2ca2f7eb756fd15eac672a665145d8ddbe9f923d6717f328fe7676a0dc45e1ae60001b612dd0565b613b497f2960d3b3fb4563215414979a321ce0c32490bcfe2fead7f818a161c9b46eb64e60001b612dd0565b6000600a549050613b7c7f2e6cf5103d3c93d71bf58b7ee282c429696c3e12c9a7580b9b365f612c213a6060001b612dd0565b600a6000815480929190613b8f90615b47565b9190505550613bc07fadafa34cdf7fd63019b647c48aaab67a9823c1ea26bd0221747a1f4a83c7712660001b612dd0565b613bec7f90f861834327b94d925ca4edba59a25b5e9672bc562e22787602fc10895c495860001b612dd0565b826008600083815260200190815260200160002081905550613c307f855b1cf018d1884f099d913e3d508ec21a50ad378c62375091547e6f18a0b3a460001b612dd0565b613c5c7fc8c5136f9692a3716696d2c160ccc071fa5a86b85afa6f8b648efc583feb15e060001b612dd0565b60016009600085815260200190815260200160002060006101000a81548160ff021916908315150217905550613cb47f1aaabb967d3077d3bb502c971460191f4cbcf42413f9d64bdb9983c7a1699c7160001b612dd0565b613ce07f062a202e51c75734f70395d41455bb87ac882869ee8d374aec80b02c1259cfdf60001b612dd0565b613ce8613fc4565b613d147f61e834b06ed0b06313c891c1096fd7a0a900bd2d514925bcd288551d9d55dab360001b612dd0565b613d407fd6b4cf3b33038a8163e8bef57b7e01d35816bcd0cdd4aac1a476457bfd5809a160001b612dd0565b613d4a8282614119565b613d767fdc812eaf3fd1ffdd10f76c43f40531b24d33400ed9389a507fa062e12527f33a60001b612dd0565b613da27f8989a1aff5a2c430389633e17b896d4eefdae942389dcc1544b2afdd012f0fe560001b612dd0565b808273ffffffffffffffffffffffffffffffffffffffff167fd9a79f971481095a2a2336c344c7c01f5cc75128249ee793845743040b1c56ee60405160405180910390a3505050565b613df6848484613869565b613e02848484846142e7565b613e41576040517f08c379a0000000000000000000000000000000000000000000000000000000008152600401613e38906154a5565b60405180910390fd5b50505050565b606060405180602001604052806000815250905090565b60606000821415613ea6576040518060400160405280600181526020017f30000000000000000000000000000000000000000000000000000000000000008152509050613fba565b600082905060005b60008214613ed8578080613ec190615b47565b915050600a82613ed19190615958565b9150613eae565b60008167ffffffffffffffff811115613ef457613ef3615cab565b5b6040519080825280601f01601f191660200182016040528015613f265781602001600182028036833780820191505090505b5090505b60008514613fb357600182613f3f91906159e3565b9150600a85613f4e9190615bbe565b6030613f5a9190615902565b60f81b818381518110613f7057613f6f615c7c565b5b60200101907effffffffffffffffffffffffffffffffffffffffffffffffffffffffffffff1916908160001a905350600a85613fac9190615958565b9450613f2a565b8093505050505b919050565b505050565b613ff07fc9e3c99d5a9d97e42e8d46f147220593416bce6962ac10e3ab35e8e8763079fb60001b610f44565b61401c7f18cab994371191c9e297712628939d48a3b8ce4dd4b806089a52bfb2e6738fe260001b610f44565b6140487f9ff511dad4747020474197b77aea05f3d48af24b3aecd821c4c6e96397e2200060001b610f44565b600d54614053610ddd565b14156140ea576140857fd510203a2ace1ea3b3519af401692e2ad1f8c0b63b6c1b9ef25d480f97dd1d5960001b610f44565b6140b17f6b53976f27197bd24f49c63bb2fc2cc36d327b23dbb1d4e5ab813f12f0abf35460001b610f44565b6140dd7f91317396791306d828015e70348b378a92bbf145d7692f50c3f863c356b2257d60001b610f44565b6140e561447e565b614117565b6141167f7e5fda7b0ef98e95d40272b51678dcae45632d53907ff9d946e0c4ee1364e89860001b610f44565b5b565b600073ffffffffffffffffffffffffffffffffffffffff168273ffffffffffffffffffffffffffffffffffffffff161415614189576040517f08c379a000000000000000000000000000000000000000000000000000000000815260040161418090615605565b60405180910390fd5b6141928161365e565b156141d2576040517f08c379a00000000000000000000000000000000000000000000000000000000081526004016141c9906154c5565b60405180910390fd5b6141de60008383613fbf565b6001600560008473ffffffffffffffffffffffffffffffffffffffff1673ffffffffffffffffffffffffffffffffffffffff168152602001908152602001600020600082825461422e9190615902565b92505081905550816004600083815260200190815260200160002060006101000a81548173ffffffffffffffffffffffffffffffffffffffff021916908373ffffffffffffffffffffffffffffffffffffffff160217905550808273ffffffffffffffffffffffffffffffffffffffff16600073ffffffffffffffffffffffffffffffffffffffff167fddf252ad1be2c89b69c2b068fc378daa952ba7f163c4a11628f55a4df523b3ef60405160405180910390a45050565b60006143088473ffffffffffffffffffffffffffffffffffffffff16614623565b15614471578373ffffffffffffffffffffffffffffffffffffffff1663150b7a026143316136ca565b8786866040518563ffffffff1660e01b81526004016143539493929190615385565b602060405180830381600087803b15801561436d57600080fd5b505af192505050801561439e57506040513d601f19601f8201168201806040525081019061439b9190614ca6565b60015b614421573d80600081146143ce576040519150601f19603f3d011682016040523d82523d6000602084013e6143d3565b606091505b50600081511415614419576040517f08c379a0000000000000000000000000000000000000000000000000000000008152600401614410906154a5565b60405180910390fd5b805181602001fd5b63150b7a0260e01b7bffffffffffffffffffffffffffffffffffffffffffffffffffffffff1916817bffffffffffffffffffffffffffffffffffffffffffffffffffffffff191614915050614476565b600190505b949350505050565b6144aa7fc39e39bd45ff4c4767785ecdfc392dbf30da041ae15d978a242645deecc4126660001b610f44565b6144d67fe6e5b1ef4c76a8918af9114cd484529d1649e404addab50c4637e0f5d13460d660001b610f44565b6145027fca6e8113ffc0a8ac881e2bb6f1141c949012cbedc84e97cc05739287aebbcbab60001b610f44565b6156fe436145109190615902565b6011819055506145427fe1d9568b754b0177958bcf287af61c681bcd83e91e05a59bde2740239cdab0a260001b610f44565b61456e7f7dd617a91801e4fc7c4d9b05f2dcc9135fe0bb2f8ce4437ed54f0d28b84478e860001b610f44565b614576614636565b600d819055506145a87f7160c21cdc8c93f2825563b68c00a7a55fc6df3210dd3e69b49bfb54c655c12760001b610f44565b6145d47f5678bc787c93ed97df9ca0abc41d3c4d09e8bff97d58b9e4d26e3414d8fa26d760001b610f44565b600a54600e819055506146097fd00868bd34a5aabd334bd9d308e82620ddbb4c71eb1afef3c6e5803340d362f160001b610f44565b6010600081548092919061461c90615b47565b9190505550565b600080823b905060008111915050919050565b60006146647ff08ae7d37e7c12eea314b5ac82b8c0e89b53fb44084793d8f3d7f76e4782664060001b6133d2565b6146907f4aedb3b3b104218d201ead54733b143ce04fd4759aba36c7bc106246d57fa08b60001b6133d2565b6146bc7fe8ce2e3f92cf7651662d8c1f75b092ece16049fd0abd38d5d167c8d01223ede760001b6133d2565b6000600c54670de0b6b3a7640000600d546146d79190615989565b6146e19190615958565b905061470f7f56295150d26223bc480acf57e6696383624e297fd985925c7e8756a142d09f5260001b6133d2565b61473b7fb95368f68d386e2aac127dbb60ef1b91449b5dcfd96bfd7dfa848887b51b4efd60001b6133d2565b60006064670de0b6b3a76400006147529190615989565b90506147807f831ef4e4e1010d3badaea5166e65e86bad5dc8dbf4e1af7d9a1eeeab80cbf88c60001b6133d2565b6147ac7f137966c3652a4a3f1f0d0fdba350426e22eab0b408e21466a3024aeb5e6d0d5660001b6133d2565b60008183670de0b6b3a76400006147c391906159e3565b84600f546147d19190615989565b6147db9190615989565b6147e59190615958565b90506148137f95cd2851444f1c6e734743605e35ac0796c75ead2c6f9cfe4f6419ae1f3026ef60001b6133d2565b61483f7fdc2b407038d95a972f3f2e486459289a55d81c5d6c983390a76be40872f337a060001b6133d2565b670de0b6b3a7640000600c54826148569190615989565b6148609190615958565b935050505090565b600061487b6148768461588e565b615869565b90508281526020810184848401111561489757614896615cdf565b5b6148a2848285615aa2565b509392505050565b6000813590506148b98161651e565b92915050565b6000813590506148ce81616535565b92915050565b6000813590506148e38161654c565b92915050565b6000813590506148f881616563565b92915050565b60008151905061490d81616563565b92915050565b600082601f83011261492857614927615cda565b5b8135614938848260208601614868565b91505092915050565b6000813590506149508161657a565b92915050565b6000815190506149658161657a565b92915050565b60006020828403121561498157614980615ce9565b5b600061498f848285016148aa565b91505092915050565b600080604083850312156149af576149ae615ce9565b5b60006149bd858286016148aa565b92505060206149ce858286016148aa565b9150509250929050565b6000806000606084860312156149f1576149f0615ce9565b5b60006149ff868287016148aa565b9350506020614a10868287016148aa565b9250506040614a21868287016148d4565b9150509250925092565b600080600060608486031215614a4457614a43615ce9565b5b6000614a52868287016148aa565b9350506020614a63868287016148aa565b9250506040614a7486828701614941565b9150509250925092565b60008060008060808587031215614a9857614a97615ce9565b5b6000614aa6878288016148aa565b9450506020614ab7878288016148aa565b9350506040614ac887828801614941565b925050606085013567ffffffffffffffff811115614ae957614ae8615ce4565b5b614af587828801614913565b91505092959194509250565b60008060408385031215614b1857614b17615ce9565b5b6000614b26858286016148aa565b9250506020614b37858286016148bf565b9150509250929050565b600080600060608486031215614b5a57614b59615ce9565b5b6000614b68868287016148aa565b9350506020614b79868287016148d4565b925050604084013567ffffffffffffffff811115614b9a57614b99615ce4565b5b614ba686828701614913565b9150509250925092565b60008060408385031215614bc757614bc6615ce9565b5b6000614bd5858286016148aa565b9250506020614be685828601614941565b9150509250929050565b600060208284031215614c0657614c05615ce9565b5b6000614c14848285016148d4565b91505092915050565b60008060408385031215614c3457614c33615ce9565b5b6000614c42858286016148d4565b925050602083013567ffffffffffffffff811115614c6357614c62615ce4565b5b614c6f85828601614913565b9150509250929050565b600060208284031215614c8f57614c8e615ce9565b5b6000614c9d848285016148e9565b91505092915050565b600060208284031215614cbc57614cbb615ce9565b5b6000614cca848285016148fe565b91505092915050565b600060208284031215614ce957614ce8615ce9565b5b600082013567ffffffffffffffff811115614d0757614d06615ce4565b5b614d1384828501614913565b91505092915050565b600060208284031215614d3257614d31615ce9565b5b6000614d4084828501614941565b91505092915050565b600060208284031215614d5f57614d5e615ce9565b5b6000614d6d84828501614956565b91505092915050565b614d7f81615a17565b82525050565b614d96614d9182615a17565b615b90565b82525050565b614da581615a29565b82525050565b614db481615a35565b82525050565b614dcb614dc682615a35565b615ba2565b82525050565b6000614ddc826158bf565b614de681856158d5565b9350614df6818560208601615ab1565b614dff81615cee565b840191505092915050565b6000614e15826158ca565b614e1f81856158e6565b9350614e2f818560208601615ab1565b614e3881615cee565b840191505092915050565b6000614e4e826158ca565b614e5881856158f7565b9350614e68818560208601615ab1565b80840191505092915050565b6000614e81601c836158f7565b9150614e8c82615d0c565b601c82019050919050565b6000614ea46032836158e6565b9150614eaf82615d35565b604082019050919050565b6000614ec7601c836158e6565b9150614ed282615d84565b602082019050919050565b6000614eea6024836158e6565b9150614ef582615dad565b604082019050919050565b6000614f0d6024836158e6565b9150614f1882615dfc565b604082019050919050565b6000614f306019836158e6565b9150614f3b82615e4b565b602082019050919050565b6000614f53602c836158e6565b9150614f5e82615e74565b604082019050919050565b6000614f766038836158e6565b9150614f8182615ec3565b604082019050919050565b6000614f99602a836158e6565b9150614fa482615f12565b604082019050919050565b6000614fbc6029836158e6565b9150614fc782615f61565b604082019050919050565b6000614fdf6031836158e6565b9150614fea82615fb0565b604082019050919050565b6000615002601a836158e6565b915061500d82615fff565b602082019050919050565b60006150256020836158e6565b915061503082616028565b602082019050919050565b6000615048602c836158e6565b915061505382616051565b604082019050919050565b600061506b6029836158e6565b9150615076826160a0565b604082019050919050565b600061508e6029836158e6565b9150615099826160ef565b604082019050919050565b60006150b1602f836158e6565b91506150bc8261613e565b604082019050919050565b60006150d46030836158e6565b91506150df8261618d565b604082019050919050565b60006150f76021836158e6565b9150615102826161dc565b604082019050919050565b600061511a6024836158e6565b91506151258261622b565b604082019050919050565b600061513d603b836158e6565b91506151488261627a565b604082019050919050565b60006151606031836158e6565b915061516b826162c9565b604082019050919050565b60006151836029836158e6565b915061518e82616318565b604082019050919050565b60006151a66034836158e6565b91506151b182616367565b604082019050919050565b60006151c96037836158e6565b91506151d4826163b6565b604082019050919050565b60006151ec601b836158e6565b91506151f782616405565b602082019050919050565b600061520f6022836158e6565b915061521a8261642e565b604082019050919050565b6000615232602f836158f7565b915061523d8261647d565b602f82019050919050565b6000615255601f836158e6565b9150615260826164cc565b602082019050919050565b60006152786020836158e6565b9150615283826164f5565b602082019050919050565b61529781615a8b565b82525050565b6152a681615a95565b82525050565b60006152b88286614d85565b6014820191506152c88285614d85565b6014820191506152d88284614dba565b6020820191506152e782615225565b9150819050949350505050565b60006153008285614dba565b6020820191506153108284614dba565b6020820191508190509392505050565b600061532c8285614e43565b91506153388284614e43565b91508190509392505050565b600061534f82614e74565b915061535b8284614dba565b60208201915081905092915050565b600060208201905061537f6000830184614d76565b92915050565b600060808201905061539a6000830187614d76565b6153a76020830186614d76565b6153b4604083018561528e565b81810360608301526153c68184614dd1565b905095945050505050565b60006020820190506153e66000830184614d9c565b92915050565b60006020820190506154016000830184614dab565b92915050565b600060608201905061541c6000830186614dab565b6154296020830185614dab565b615436604083018461529d565b949350505050565b60006080820190506154536000830187614dab565b615460602083018661529d565b61546d6040830185614dab565b61547a6060830184614dab565b95945050505050565b6000602082019050818103600083015261549d8184614e0a565b905092915050565b600060208201905081810360008301526154be81614e97565b9050919050565b600060208201905081810360008301526154de81614eba565b9050919050565b600060208201905081810360008301526154fe81614edd565b9050919050565b6000602082019050818103600083015261551e81614f00565b9050919050565b6000602082019050818103600083015261553e81614f23565b9050919050565b6000602082019050818103600083015261555e81614f46565b9050919050565b6000602082019050818103600083015261557e81614f69565b9050919050565b6000602082019050818103600083015261559e81614f8c565b9050919050565b600060208201905081810360008301526155be81614faf565b9050919050565b600060208201905081810360008301526155de81614fd2565b9050919050565b600060208201905081810360008301526155fe81614ff5565b9050919050565b6000602082019050818103600083015261561e81615018565b9050919050565b6000602082019050818103600083015261563e8161503b565b9050919050565b6000602082019050818103600083015261565e8161505e565b9050919050565b6000602082019050818103600083015261567e81615081565b9050919050565b6000602082019050818103600083015261569e816150a4565b9050919050565b600060208201905081810360008301526156be816150c7565b9050919050565b600060208201905081810360008301526156de816150ea565b9050919050565b600060208201905081810360008301526156fe8161510d565b9050919050565b6000602082019050818103600083015261571e81615130565b9050919050565b6000602082019050818103600083015261573e81615153565b9050919050565b6000602082019050818103600083015261575e81615176565b9050919050565b6000602082019050818103600083015261577e81615199565b9050919050565b6000602082019050818103600083015261579e816151bc565b9050919050565b600060208201905081810360008301526157be816151df565b9050919050565b600060208201905081810360008301526157de81615202565b9050919050565b600060208201905081810360008301526157fe81615248565b9050919050565b6000602082019050818103600083015261581e8161526b565b9050919050565b600060208201905061583a600083018461528e565b92915050565b6000604082019050615855600083018561528e565b6158626020830184614dab565b9392505050565b6000615873615884565b905061587f8282615b16565b919050565b6000604051905090565b600067ffffffffffffffff8211156158a9576158a8615cab565b5b6158b282615cee565b9050602081019050919050565b600081519050919050565b600081519050919050565b600082825260208201905092915050565b600082825260208201905092915050565b600081905092915050565b600061590d82615a8b565b915061591883615a8b565b9250827fffffffffffffffffffffffffffffffffffffffffffffffffffffffffffffffff0382111561594d5761594c615bef565b5b828201905092915050565b600061596382615a8b565b915061596e83615a8b565b92508261597e5761597d615c1e565b5b828204905092915050565b600061599482615a8b565b915061599f83615a8b565b9250817fffffffffffffffffffffffffffffffffffffffffffffffffffffffffffffffff04831182151516156159d8576159d7615bef565b5b828202905092915050565b60006159ee82615a8b565b91506159f983615a8b565b925082821015615a0c57615a0b615bef565b5b828203905092915050565b6000615a2282615a6b565b9050919050565b60008115159050919050565b6000819050919050565b60007fffffffff0000000000000000000000000000000000000000000000000000000082169050919050565b600073ffffffffffffffffffffffffffffffffffffffff82169050919050565b6000819050919050565b600060ff82169050919050565b82818337600083830152505050565b60005b83811015615acf578082015181840152602081019050615ab4565b83811115615ade576000848401525b50505050565b60006002820490506001821680615afc57607f821691505b60208210811415615b1057615b0f615c4d565b5b50919050565b615b1f82615cee565b810181811067ffffffffffffffff82111715615b3e57615b3d615cab565b5b80604052505050565b6000615b5282615a8b565b91507fffffffffffffffffffffffffffffffffffffffffffffffffffffffffffffffff821415615b8557615b84615bef565b5b600182019050919050565b6000615b9b82615bac565b9050919050565b6000819050919050565b6000615bb782615cff565b9050919050565b6000615bc982615a8b565b9150615bd483615a8b565b925082615be457615be3615c1e565b5b828206905092915050565b7f4e487b7100000000000000000000000000000000000000000000000000000000600052601160045260246000fd5b7f4e487b7100000000000000000000000000000000000000000000000000000000600052601260045260246000fd5b7f4e487b7100000000000000000000000000000000000000000000000000000000600052602260045260246000fd5b7f4e487b7100000000000000000000000000000000000000000000000000000000600052603260045260246000fd5b7f4e487b7100000000000000000000000000000000000000000000000000000000600052604160045260246000fd5b600080fd5b600080fd5b600080fd5b600080fd5b6000601f19601f8301169050919050565b60008160601b9050919050565b7f19457468657265756d205369676e6564204d6573736167653a0a333200000000600082015250565b7f4552433732313a207472616e7366657220746f206e6f6e20455243373231526560008201527f63656976657220696d706c656d656e7465720000000000000000000000000000602082015250565b7f4552433732313a20746f6b656e20616c7265616479206d696e74656400000000600082015250565b7f436f6e74726f6c6c65723a206f6e6c792061646d696e2066756e6374696f6e6160008201527f6c69747900000000000000000000000000000000000000000000000000000000602082015250565b7f4552433732313a207472616e7366657220746f20746865207a65726f2061646460008201527f7265737300000000000000000000000000000000000000000000000000000000602082015250565b7f4552433732313a20617070726f766520746f2063616c6c657200000000000000600082015250565b7f4552433732313a206f70657261746f7220717565727920666f72206e6f6e657860008201527f697374656e7420746f6b656e0000000000000000000000000000000000000000602082015250565b7f4552433732313a20617070726f76652063616c6c6572206973206e6f74206f7760008201527f6e6572206e6f7220617070726f76656420666f7220616c6c0000000000000000602082015250565b7f4552433732313a2062616c616e636520717565727920666f7220746865207a6560008201527f726f206164647265737300000000000000000000000000000000000000000000602082015250565b7f4552433732313a206f776e657220717565727920666f72206e6f6e657869737460008201527f656e7420746f6b656e0000000000000000000000000000000000000000000000602082015250565b7f436f6e74726f6c6c65723a2067656e652067656e657261746f722063616e6e6f60008201527f74206265207a65726f2061646472657373000000000000000000000000000000602082015250565b7f436f6e74726f6c6c65723a20696e76616c6964206f726967696e000000000000600082015250565b7f4552433732313a206d696e7420746f20746865207a65726f2061646472657373600082015250565b7f4552433732313a20617070726f76656420717565727920666f72206e6f6e657860008201527f697374656e7420746f6b656e0000000000000000000000000000000000000000602082015250565b7f436f6e74726f6c6c65723a206f726967696e2063616e6e6f74206265207a657260008201527f6f20616464726573730000000000000000000000000000000000000000000000602082015250565b7f4552433732313a207472616e73666572206f6620746f6b656e2074686174206960008201527f73206e6f74206f776e0000000000000000000000000000000000000000000000602082015250565b7f4552433732314d657461646174613a2055524920717565727920666f72206e6f60008201527f6e6578697374656e7420746f6b656e0000000000000000000000000000000000602082015250565b7f57617272696f72733a2063616e6e6f74206d696e742077617272696f7220776960008201527f74686f7574206174747269627574657300000000000000000000000000000000602082015250565b7f4552433732313a20617070726f76616c20746f2063757272656e74206f776e6560008201527f7200000000000000000000000000000000000000000000000000000000000000602082015250565b7f436f6e74726f6c6c65723a207a65726f2061646472657373206e6f7420616c6c60008201527f6f77656400000000000000000000000000000000000000000000000000000000602082015250565b7f57617272696f72733a206e6f206d6f72652077617272696f722063616e20626560008201527f206d696e74656420666f7220746869732067656e65726174696f6e0000000000602082015250565b7f4552433732313a207472616e736665722063616c6c6572206973206e6f74206f60008201527f776e6572206e6f7220617070726f766564000000000000000000000000000000602082015250565b7f5369676e617475726548656c7065723a20696e76616c6964207369676e61747560008201527f7265206c656e6774680000000000000000000000000000000000000000000000602082015250565b7f57617272696f72733a206e6f2077617272696f722063616e206265206173736960008201527f676e656420746f207a65726f2061646472657373000000000000000000000000602082015250565b7f436f6e74726f6c6c65723a207761697420666f72206e6578742067656e65726160008201527f74696f6e2077617272696f727320746f20617272697665000000000000000000602082015250565b7f57617272696f72733a2067656e6520616c726561647920757365640000000000600082015250565b7f57617272696f72436f72653a206d6574616461746120616c726561647920757360008201527f6564000000000000000000000000000000000000000000000000000000000000602082015250565b7f67656e657261746557617272696f7228616464726573732c206279746573333260008201527f2c206279746573206d656d6f7279290000000000000000000000000000000000602082015250565b7f436f6e74726f6c6c65723a20616c726561647920696e697469616c697a656400600082015250565b7f57617272696f72733a2077617272696f7220646f6573206e6f74206578697374600082015250565b61652781615a17565b811461653257600080fd5b50565b61653e81615a29565b811461654957600080fd5b50565b61655581615a35565b811461656057600080fd5b50565b61656c81615a3f565b811461657757600080fd5b50565b61658381615a8b565b811461658e57600080fd5b5056fea26469706673582212201558d4f1c69c7939c4f870e24ce78d6a6235d5c6b27146dbc2b47d27c742fcaa64736f6c63430008060033",
  "linkReferences": {},
  "deployedLinkReferences": {}
}