{
  "_format": "hh-sol-artifact-1",
  "contractName": "WarriorGeneGenerator",
  "sourceName": "contracts/MVP/WarriorGeneGenerator.sol",
  "abi": [
    {
      "inputs": [
        {
          "internalType": "bytes32",
          "name": "c__0x006152c5",
          "type": "bytes32"
        }
      ],
      "name": "c_0x006152c5",
      "outputs": [],
      "stateMutability": "pure",
      "type": "function"
    }
  ],
  "bytecode": "0x608060405234801561001057600080fd5b5060dc8061001f6000396000f3fe6080604052348015600f57600080fd5b506004361060285760003560e01c8063c43210e114602d575b600080fd5b60436004803603810190603f9190605b565b6045565b005b50565b6000813590506055816092565b92915050565b600060208284031215606e57606d608d565b5b6000607a848285016048565b91505092915050565b6000819050919050565b600080fd5b6099816083565b811460a357600080fd5b5056fea26469706673582212205a3ae131e40ebc95bca001ad3a87750a00fb1bfdd0a848a0013ba162e8b5797d64736f6c63430008060033",
  "linkReferences": {},
  "deployedLinkReferences": {}
}