{
  "_format": "hh-sol-artifact-1",
  "contractName": "WarriorGeneGenerator",
  "sourceName": "contracts/MVP/WarriorGeneGenerator.sol",
  "abi": [
    {
      "inputs": [],
      "stateMutability": "nonpayable",
      "type": "constructor"
    },
    {
      "inputs": [
        {
          "internalType": "bytes32",
          "name": "c__0x006152c5",
          "type": "bytes32"
        }
      ],
      "name": "c_0x006152c5",
      "outputs": [],
      "stateMutability": "pure",
      "type": "function"
    },
    {
      "inputs": [],
      "name": "controller",
      "outputs": [
        {
          "internalType": "address",
          "name": "",
          "type": "address"
        }
      ],
      "stateMutability": "view",
      "type": "function"
    },
    {
      "inputs": [
        {
          "internalType": "bytes32",
          "name": "_metadata",
          "type": "bytes32"
        }
      ],
      "name": "geneGenerator",
      "outputs": [
        {
          "internalType": "uint256",
          "name": "gene",
          "type": "uint256"
        }
      ],
      "stateMutability": "view",
      "type": "function"
    },
    {
      "inputs": [],
      "name": "geneModulus",
      "outputs": [
        {
          "internalType": "uint256",
          "name": "",
          "type": "uint256"
        }
      ],
      "stateMutability": "view",
      "type": "function"
    },
    {
      "inputs": [
        {
          "internalType": "address",
          "name": "_newController",
          "type": "address"
        }
      ],
      "name": "setController",
      "outputs": [],
      "stateMutability": "nonpayable",
      "type": "function"
    },
    {
      "inputs": [
        {
          "internalType": "uint8",
          "name": "_newTotalGeneAttributes",
          "type": "uint8"
        }
      ],
      "name": "setTotalGeneAttributes",
      "outputs": [],
      "stateMutability": "nonpayable",
      "type": "function"
    },
    {
      "inputs": [],
      "name": "totalGeneAttributes",
      "outputs": [
        {
          "internalType": "uint8",
          "name": "",
          "type": "uint8"
        }
      ],
      "stateMutability": "view",
      "type": "function"
    }
  ],
  "bytecode": "0x60806040523480156200001157600080fd5b50620000467fc906efbd564912b9d87a024cd49c81dcd2fe0e9171a76a54f88a40f0f15937fb60001b620001ec60201b60201c565b6200007a7ffcd850a1c3278be0c93f769e266c03524271f1fd960df6e5d966d20b8d05701060001b620001ec60201b60201c565b620000ae7fa78dc2d4632b6a4fae885dd01d9bf8212ada4762ddd06a688d54847eeeedbb2a60001b620001ec60201b60201c565b336000806101000a81548173ffffffffffffffffffffffffffffffffffffffff021916908373ffffffffffffffffffffffffffffffffffffffff160217905550620001227f6862372627cf92e7172e7d9e00b6ae9c698cfc756634fa2b01c1c17053d1013f60001b620001ec60201b60201c565b620001567f60f10c2ef5f76c6479f2defbd55500e23ca18dc4c93dd076d6ec3f8a4bf773a460001b620001ec60201b60201c565b6005600060146101000a81548160ff021916908360ff160217905550620001a67fcaabd7f97783c4c6a6fd849e146f263c1757d3a26899850392dbec3911f7c3c560001b620001ec60201b60201c565b620001da7face1e257f6cf71c1c3012902685ced17a9b6042294da9f0cf52a5368324d385360001b620001ec60201b60201c565b6402540be400600181905550620001ef565b50565b61100180620001ff6000396000f3fe608060405234801561001057600080fd5b506004361061007d5760003560e01c8063c43210e11161005b578063c43210e1146100d8578063e92a0902146100f4578063efad80fd14610112578063f77c4791146101425761007d565b80632badd3bb14610082578063622cce67146100a057806392eefe9b146100bc575b600080fd5b61008a610160565b6040516100979190610bcd565b60405180910390f35b6100ba60048036038101906100b59190610a74565b610173565b005b6100d660048036038101906100d19190610a1a565b610538565b005b6100f260048036038101906100ed9190610a47565b6108b5565b005b6100fc6108b8565b6040516101099190610bb2565b60405180910390f35b61012c60048036038101906101279190610a47565b6108be565b6040516101399190610bb2565b60405180910390f35b61014a6109b7565b6040516101579190610b37565b60405180910390f35b600060149054906101000a900460ff1681565b61019f7f96b8b58a878edae7b09d5a4c567d6597cd170ad27a2b75d03895fbe554db840960001b6108b5565b6101cb7fda63d9929aea9097362eeb88c9019675668d6e77604e87a24cfe20d464b0f22960001b6108b5565b6101f77f32ba2700e22878290b24396ce8f99c51640de86cc1079957ee724c0ddc3ea97460001b6108b5565b6102237ffe9e0fb0a04949ac061e3b905f0a03e1c4541467e69c78c54610f5bdaccf970c60001b6108b5565b60008054906101000a900473ffffffffffffffffffffffffffffffffffffffff1673ffffffffffffffffffffffffffffffffffffffff163373ffffffffffffffffffffffffffffffffffffffff16146102b1576040517f08c379a00000000000000000000000000000000000000000000000000000000081526004016102a890610b52565b60405180910390fd5b6102dd7f5db94d0cc2caeb8d6dcc8e61235f4fa94b6ddf0959fa90a8b228e98f5e0c14fc60001b6108b5565b6103097f8c87b4f8d02df87bb01eae285d38a06cdd83e5b8631f13ac894b98c0ffc566df60001b6108b5565b6103357ff3fe639e9177e8a326b4d58f1d57ba83961727164829b4b0725501606c715b7860001b6108b5565b6103617f1a35f5134ed2fa70e172dab7780c5c8809ce834edae4e5acc45797f19f9ea86060001b6108b5565b61038d7f4e8c404e23722be49784fedcb1fac12bbdf2124573df8f0dc55d88f7194a1fce60001b6108b5565b6103b97fabd6527ea69f5b5531113bb42b3eb5b78f498e23c648c9abce00b8fa0c28fff660001b6108b5565b600060149054906101000a900460ff1660ff168160ff1611610410576040517f08c379a000000000000000000000000000000000000000000000000000000000815260040161040790610b92565b60405180910390fd5b61043c7fa12774bdafb808a81151bebcbbbf135cc68ea9498ee61199dbed59cc9e05cd5a60001b6108b5565b6104687f1048852ab1f9f312a9de194c5aaa6236ee5cacdf5f1330c2693dfa3472fe501060001b6108b5565b6104947f7d473ccfa33bb4f2b4fef6571712c20576fd840a2f39d25289f446ada70cf83560001b6108b5565b80600060146101000a81548160ff021916908360ff1602179055506104db7f4087a5251145d1cc1f851a6c928cc9e7af0ba3e6d1bde1ad72574162a4ba2a3260001b6108b5565b6105077f4f1519dc0200ffc0ff9207af2dd99c60db23217c1770f452c6ab24f12a2bb4fe60001b6108b5565b6002600060149054906101000a900460ff166105239190610d6a565b600a61052f9190610c4c565b60018190555050565b6105647f96b8b58a878edae7b09d5a4c567d6597cd170ad27a2b75d03895fbe554db840960001b6108b5565b6105907fda63d9929aea9097362eeb88c9019675668d6e77604e87a24cfe20d464b0f22960001b6108b5565b6105bc7f32ba2700e22878290b24396ce8f99c51640de86cc1079957ee724c0ddc3ea97460001b6108b5565b6105e87ffe9e0fb0a04949ac061e3b905f0a03e1c4541467e69c78c54610f5bdaccf970c60001b6108b5565b60008054906101000a900473ffffffffffffffffffffffffffffffffffffffff1673ffffffffffffffffffffffffffffffffffffffff163373ffffffffffffffffffffffffffffffffffffffff1614610676576040517f08c379a000000000000000000000000000000000000000000000000000000000815260040161066d90610b52565b60405180910390fd5b6106a27f5db94d0cc2caeb8d6dcc8e61235f4fa94b6ddf0959fa90a8b228e98f5e0c14fc60001b6108b5565b6106ce7f8c87b4f8d02df87bb01eae285d38a06cdd83e5b8631f13ac894b98c0ffc566df60001b6108b5565b6106fa7f27ff21967b68dab1425355fa52c86fd79f680ab29519cc0cf2c35468b242d0b360001b6108b5565b6107267f609518971e326a91e170397c68fc4fc710a87cd43041fc6429e68f32a2899e8060001b6108b5565b6107527f2d4b5d8f15bc828ab384ea7c8dbba2eb9d4da74dae8061b72867273ccca26b0660001b6108b5565b61077e7f8403e7a105e401caf2a61b4f4bbeace581cd4283a8e6eac3124494fb5d2270a360001b6108b5565b600073ffffffffffffffffffffffffffffffffffffffff168173ffffffffffffffffffffffffffffffffffffffff1614156107ee576040517f08c379a00000000000000000000000000000000000000000000000000000000081526004016107e590610b72565b60405180910390fd5b61081a7f4e619da122b7b30a07813d905b2711fe1590ce95cc2159a0516c3388f3bac32b60001b6108b5565b6108467f358f80dcb26e094a81b67873d443cfc338aff53dc230ee08d6e78b4bcc87af2a60001b6108b5565b6108727f35ade7b8e2be90130b12b70ca83f47ad044b54c4690f2b52c8c4541f76325c1860001b6108b5565b806000806101000a81548173ffffffffffffffffffffffffffffffffffffffff021916908373ffffffffffffffffffffffffffffffffffffffff16021790555050565b50565b60015481565b60006108ec7fec1926081165a56adabb1095ed78f6e208ccfcc11c2a76a033a841b805fde7cc60001b6108b5565b6109187f2aa926e8fc7dce1a74f31a0c724075b0ac5216976cded72ef257b810c02e965d60001b6108b5565b6109447ff553b802040db4c0943c6744544257af22d102bc4ab5f5afdbb6221385380e2960001b6108b5565b8160001c90506109767fc99f57ba82f1b1d4aead90714001f793de72e502f5e33e768db64bb825d2b16960001b6108b5565b6109a27f32390084d15dd868fc997c74ef583d427b17fe8957ee694ec1a9d3d856847d7860001b6108b5565b600154816109b09190610df8565b9050919050565b60008054906101000a900473ffffffffffffffffffffffffffffffffffffffff1681565b6000813590506109ea81610f86565b92915050565b6000813590506109ff81610f9d565b92915050565b600081359050610a1481610fb4565b92915050565b600060208284031215610a3057610a2f610e87565b5b6000610a3e848285016109db565b91505092915050565b600060208284031215610a5d57610a5c610e87565b5b6000610a6b848285016109f0565b91505092915050565b600060208284031215610a8a57610a89610e87565b5b6000610a9884828501610a05565b91505092915050565b610aaa81610da5565b82525050565b6000610abd603383610be8565b9150610ac882610e99565b604082019050919050565b6000610ae0603383610be8565b9150610aeb82610ee8565b604082019050919050565b6000610b03603583610be8565b9150610b0e82610f37565b604082019050919050565b610b2281610de1565b82525050565b610b3181610deb565b82525050565b6000602082019050610b4c6000830184610aa1565b92915050565b60006020820190508181036000830152610b6b81610ab0565b9050919050565b60006020820190508181036000830152610b8b81610ad3565b9050919050565b60006020820190508181036000830152610bab81610af6565b9050919050565b6000602082019050610bc76000830184610b19565b92915050565b6000602082019050610be26000830184610b28565b92915050565b600082825260208201905092915050565b6000808291508390505b6001851115610c4357808604811115610c1f57610c1e610e29565b5b6001851615610c2e5780820291505b8081029050610c3c85610e8c565b9450610c03565b94509492505050565b6000610c5782610de1565b9150610c6283610deb565b9250610c8f7fffffffffffffffffffffffffffffffffffffffffffffffffffffffffffffffff8484610c97565b905092915050565b600082610ca75760019050610d63565b81610cb55760009050610d63565b8160018114610ccb5760028114610cd557610d04565b6001915050610d63565b60ff841115610ce757610ce6610e29565b5b8360020a915084821115610cfe57610cfd610e29565b5b50610d63565b5060208310610133831016604e8410600b8410161715610d395782820a905083811115610d3457610d33610e29565b5b610d63565b610d468484846001610bf9565b92509050818404811115610d5d57610d5c610e29565b5b81810290505b9392505050565b6000610d7582610deb565b9150610d8083610deb565b92508160ff0483118215151615610d9a57610d99610e29565b5b828202905092915050565b6000610db082610dc1565b9050919050565b6000819050919050565b600073ffffffffffffffffffffffffffffffffffffffff82169050919050565b6000819050919050565b600060ff82169050919050565b6000610e0382610de1565b9150610e0e83610de1565b925082610e1e57610e1d610e58565b5b828206905092915050565b7f4e487b7100000000000000000000000000000000000000000000000000000000600052601160045260246000fd5b7f4e487b7100000000000000000000000000000000000000000000000000000000600052601260045260246000fd5b600080fd5b60008160011c9050919050565b7f57617272696f7247656e6547656e657261746f723a206f6e6c7920636f6e747260008201527f6f6c6c65722066756e6374696f6e616c69747900000000000000000000000000602082015250565b7f57617272696f7247656e6547656e657261746f723a206e657720636f6e74726f60008201527f6c6c65722063616e6e6f74206265207a65726f00000000000000000000000000602082015250565b7f57617272696f7247656e6547656e657261746f723a2063616e6e6f742064656360008201527f72656173652067656e6520617474726962757465730000000000000000000000602082015250565b610f8f81610da5565b8114610f9a57600080fd5b50565b610fa681610db7565b8114610fb157600080fd5b50565b610fbd81610deb565b8114610fc857600080fd5b5056fea26469706673582212204fb07a37203f1df98f82659ab3750a3608777e3b5669524b4d714bdfa6fda20064736f6c63430008060033",
  "linkReferences": {},
  "deployedLinkReferences": {}
}