{
  "_format": "hh-sol-artifact-1",
  "contractName": "WarriorGeneGenerator",
  "sourceName": "contracts/utils/WarriorGeneGenerator.sol",
  "abi": [
    {
      "inputs": [
        {
          "internalType": "address",
          "name": "_core",
          "type": "address"
        }
      ],
      "stateMutability": "nonpayable",
      "type": "constructor"
    },
    {
      "inputs": [],
      "name": "GEN_PREFIX",
      "outputs": [
        {
          "internalType": "uint256",
          "name": "",
          "type": "uint256"
        }
      ],
      "stateMutability": "view",
      "type": "function"
    },
    {
      "inputs": [],
      "name": "attributeStartPosition",
      "outputs": [
        {
          "internalType": "uint256",
          "name": "",
          "type": "uint256"
        }
      ],
      "stateMutability": "view",
      "type": "function"
    },
    {
      "inputs": [
        {
          "internalType": "bytes32",
          "name": "c__0x59330a26",
          "type": "bytes32"
        }
      ],
      "name": "c_0x59330a26",
      "outputs": [],
      "stateMutability": "pure",
      "type": "function"
    },
    {
      "inputs": [],
      "name": "core",
      "outputs": [
        {
          "internalType": "address",
          "name": "",
          "type": "address"
        }
      ],
      "stateMutability": "view",
      "type": "function"
    },
    {
      "inputs": [],
      "name": "genModulus",
      "outputs": [
        {
          "internalType": "uint256",
          "name": "",
          "type": "uint256"
        }
      ],
      "stateMutability": "view",
      "type": "function"
    },
    {
      "inputs": [],
      "name": "genStartPosition",
      "outputs": [
        {
          "internalType": "uint256",
          "name": "",
          "type": "uint256"
        }
      ],
      "stateMutability": "view",
      "type": "function"
    },
    {
      "inputs": [
        {
          "internalType": "uint256",
          "name": "_currentGen",
          "type": "uint256"
        },
        {
          "internalType": "bytes32",
          "name": "_metadata",
          "type": "bytes32"
        }
      ],
      "name": "generateGene",
      "outputs": [
        {
          "internalType": "uint256",
          "name": "gene",
          "type": "uint256"
        }
      ],
      "stateMutability": "view",
      "type": "function"
    },
    {
      "inputs": [
        {
          "internalType": "address",
          "name": "_newCore",
          "type": "address"
        }
      ],
      "name": "setCore",
      "outputs": [],
      "stateMutability": "nonpayable",
      "type": "function"
    }
  ],
  "bytecode": "0x60806040523480156200001157600080fd5b5060405162000eba38038062000eba833981810160405281019062000037919062000134565b6200006b7fe978b1cae14321b94d1e8408c5af4c948b79a285031e9ba5d65f66b6ae38570b60001b6200011a60201b60201c565b6200009f7ffd9f96643abe63b5d7a3979bf938028eba1d94caa206bc08fef91ca245efaf5960001b6200011a60201b60201c565b620000d37fbabd72bdde6fcb7ff81894503c63113955dfcb8befb4b16a5948093d2cf5379c60001b6200011a60201b60201c565b806000806101000a81548173ffffffffffffffffffffffffffffffffffffffff021916908373ffffffffffffffffffffffffffffffffffffffff16021790555050620001b9565b50565b6000815190506200012e816200019f565b92915050565b6000602082840312156200014d576200014c6200019a565b5b60006200015d848285016200011d565b91505092915050565b600062000173826200017a565b9050919050565b600073ffffffffffffffffffffffffffffffffffffffff82169050919050565b600080fd5b620001aa8162000166565b8114620001b657600080fd5b50565b610cf180620001c96000396000f3fe608060405234801561001057600080fd5b50600436106100885760003560e01c8063c482877b1161005b578063c482877b14610115578063d63caabb14610133578063e8a85ab11461014f578063f2f4eb261461016d57610088565b8063524a2a6d1461008d57806380009630146100ab578063850824a0146100c7578063c11eef22146100e5575b600080fd5b61009561018b565b6040516100a29190610a22565b60405180910390f35b6100c560048036038101906100c091906108c9565b6101af565b005b6100cf61052c565b6040516100dc9190610a22565b60405180910390f35b6100ff60048036038101906100fa9190610923565b610531565b60405161010c9190610a22565b60405180910390f35b61011d61083c565b60405161012a9190610a22565b60405180910390f35b61014d600480360381019061014891906108f6565b610841565b005b610157610844565b6040516101649190610a22565b60405180910390f35b610175610866565b60405161018291906109c7565b60405180910390f35b7f0235fadd81c2822bb3f07877973d50f28bf22a31be8ee800000000000000000081565b6101db7f7d907d9d475a4c5a67a49d3884c35c5deb995111996ac1683ec21f38bf89d42e60001b610841565b6102077fdc105be2c804d5a8fac19248cd8952ced73a24e6276add7f034a7dd65348396d60001b610841565b6102337fbfe1341fc855905f682011f3b5cc404117891448adcf6b829e7b4f7fdc58d88360001b610841565b61025f7f391dafa240ad0b6ac7a19efb04df458ff4b0633657d7e2eb2965ff435f90d5a260001b610841565b60008054906101000a900473ffffffffffffffffffffffffffffffffffffffff1673ffffffffffffffffffffffffffffffffffffffff163373ffffffffffffffffffffffffffffffffffffffff16146102ed576040517f08c379a00000000000000000000000000000000000000000000000000000000081526004016102e4906109e2565b60405180910390fd5b6103197f304e9fbff5ecf62db777a384dd073b53628829692bafb5aa86726eda601fec9760001b610841565b6103457ff4c7c6ca25083b6242ccb6f67dfd1d19ee02571e61932056227f550f30796dfe60001b610841565b6103717fbdcb0b027b1b91d5160d594d5bc4a8cb5820b28844027e16890863379e94267460001b610841565b61039d7f65165eec55157fec5bf27e4c3899532db8946038ed6f57b5a118ad5b0270ea2960001b610841565b6103c97f38adc5c62d36c07958db74ef8528cf1f37023ec49e1d893fc6074cd389710e3f60001b610841565b6103f57f755d43d0d76f3c12e160e28d616cf1316c7c621eab083aa7e265ef77c136fdd360001b610841565b600073ffffffffffffffffffffffffffffffffffffffff168173ffffffffffffffffffffffffffffffffffffffff161415610465576040517f08c379a000000000000000000000000000000000000000000000000000000000815260040161045c90610a02565b60405180910390fd5b6104917fbf5748d9948be3122ecb3100b5882962f1bb063df8c9351f1a3a0ba996ef68e260001b610841565b6104bd7ff1e9aa23a3eba38d1e64bc9c47ab02345eac54255ffbd877ae4990c1060b9bb860001b610841565b6104e97f6f2bbecd279cd00c96f3ba06eb3dc3a4b3cd9964b3efebf935df88355a9f27d460001b610841565b806000806101000a81548173ffffffffffffffffffffffffffffffffffffffff021916908373ffffffffffffffffffffffffffffffffffffffff16021790555050565b600481565b600061055f7f7d907d9d475a4c5a67a49d3884c35c5deb995111996ac1683ec21f38bf89d42e60001b610841565b61058b7fdc105be2c804d5a8fac19248cd8952ced73a24e6276add7f034a7dd65348396d60001b610841565b6105b77fbfe1341fc855905f682011f3b5cc404117891448adcf6b829e7b4f7fdc58d88360001b610841565b6105e37f391dafa240ad0b6ac7a19efb04df458ff4b0633657d7e2eb2965ff435f90d5a260001b610841565b60008054906101000a900473ffffffffffffffffffffffffffffffffffffffff1673ffffffffffffffffffffffffffffffffffffffff163373ffffffffffffffffffffffffffffffffffffffff1614610671576040517f08c379a0000000000000000000000000000000000000000000000000000000008152600401610668906109e2565b60405180910390fd5b61069d7f304e9fbff5ecf62db777a384dd073b53628829692bafb5aa86726eda601fec9760001b610841565b6106c97ff4c7c6ca25083b6242ccb6f67dfd1d19ee02571e61932056227f550f30796dfe60001b610841565b6106f57fbf3e4375a8cc0b2a6256fa23b47527866a5198d57fda4d3b441ccb1f046ee7a660001b610841565b6107217feb52090121766fbc23adfdf40590392748dd97eb954fd55af04d2f9333aa11e160001b610841565b61074d7f246dce3d6d9ec69ec7e128f68d0012b614757804d764a484bee06e144856686960001b610841565b8160001c905061077f7fd1df49393f201556be712a39fb142638cf88384963422c7df996bdbd64800dd060001b610841565b6107ab7f8439b8ea97140236c851c14f7f4e2ef88c445c5914260e4a1727e450899db53a60001b610841565b7f0235fadd81c2822bb3f07877973d50f28bf22a31be8ee80000000000000000007d90e40fbeea1d3a4abc8955e946fe31cdcf66f634e1000000000000000000846107f69190610aa4565b7d90e40fbeea1d3a4abc8955e946fe31cdcf66f634e1000000000000000000836108209190610b44565b61082a9190610a4e565b6108349190610a4e565b905092915050565b600181565b50565b7d90e40fbeea1d3a4abc8955e946fe31cdcf66f634e100000000000000000081565b60008054906101000a900473ffffffffffffffffffffffffffffffffffffffff1681565b60008135905061089981610c76565b92915050565b6000813590506108ae81610c8d565b92915050565b6000813590506108c381610ca4565b92915050565b6000602082840312156108df576108de610bd3565b5b60006108ed8482850161088a565b91505092915050565b60006020828403121561090c5761090b610bd3565b5b600061091a8482850161089f565b91505092915050565b6000806040838503121561093a57610939610bd3565b5b6000610948858286016108b4565b92505060206109598582860161089f565b9150509250929050565b61096c81610afe565b82525050565b600061097f602d83610a3d565b915061098a82610bd8565b604082019050919050565b60006109a2602d83610a3d565b91506109ad82610c27565b604082019050919050565b6109c181610b3a565b82525050565b60006020820190506109dc6000830184610963565b92915050565b600060208201905081810360008301526109fb81610972565b9050919050565b60006020820190508181036000830152610a1b81610995565b9050919050565b6000602082019050610a3760008301846109b8565b92915050565b600082825260208201905092915050565b6000610a5982610b3a565b9150610a6483610b3a565b9250827fffffffffffffffffffffffffffffffffffffffffffffffffffffffffffffffff03821115610a9957610a98610b75565b5b828201905092915050565b6000610aaf82610b3a565b9150610aba83610b3a565b9250817fffffffffffffffffffffffffffffffffffffffffffffffffffffffffffffffff0483118215151615610af357610af2610b75565b5b828202905092915050565b6000610b0982610b1a565b9050919050565b6000819050919050565b600073ffffffffffffffffffffffffffffffffffffffff82169050919050565b6000819050919050565b6000610b4f82610b3a565b9150610b5a83610b3a565b925082610b6a57610b69610ba4565b5b828206905092915050565b7f4e487b7100000000000000000000000000000000000000000000000000000000600052601160045260246000fd5b7f4e487b7100000000000000000000000000000000000000000000000000000000600052601260045260246000fd5b600080fd5b7f57617272696f7247656e6547656e657261746f723a206f6e6c7920636f72652060008201527f66756e6374696f6e616c69747900000000000000000000000000000000000000602082015250565b7f57617272696f7247656e6547656e657261746f723a206e657720636f7265206360008201527f616e6e6f74206265207a65726f00000000000000000000000000000000000000602082015250565b610c7f81610afe565b8114610c8a57600080fd5b50565b610c9681610b10565b8114610ca157600080fd5b50565b610cad81610b3a565b8114610cb857600080fd5b5056fea2646970667358221220c4e26dec388a5b865483ee57154e5c7e3aedf052a7a6bb5535a4151a3e0fda0c64736f6c63430008060033",
  "linkReferences": {},
  "deployedLinkReferences": {}
}