{
  "_format": "hh-sol-artifact-1",
  "contractName": "WarriorGeneGenerator",
  "sourceName": "contracts/utils/WarriorGeneGenerator.sol",
  "abi": [
    {
      "inputs": [
        {
          "internalType": "address",
          "name": "_core",
          "type": "address"
        }
      ],
      "stateMutability": "nonpayable",
      "type": "constructor"
    },
    {
      "inputs": [],
      "name": "GEN_PREFIX",
      "outputs": [
        {
          "internalType": "uint256",
          "name": "",
          "type": "uint256"
        }
      ],
      "stateMutability": "view",
      "type": "function"
    },
    {
      "inputs": [],
      "name": "attributeStartPosition",
      "outputs": [
        {
          "internalType": "uint256",
          "name": "",
          "type": "uint256"
        }
      ],
      "stateMutability": "view",
      "type": "function"
    },
    {
      "inputs": [],
      "name": "core",
      "outputs": [
        {
          "internalType": "address",
          "name": "",
          "type": "address"
        }
      ],
      "stateMutability": "view",
      "type": "function"
    },
    {
      "inputs": [],
      "name": "genModulus",
      "outputs": [
        {
          "internalType": "uint256",
          "name": "",
          "type": "uint256"
        }
      ],
      "stateMutability": "view",
      "type": "function"
    },
    {
      "inputs": [],
      "name": "genStartPosition",
      "outputs": [
        {
          "internalType": "uint256",
          "name": "",
          "type": "uint256"
        }
      ],
      "stateMutability": "view",
      "type": "function"
    },
    {
      "inputs": [
        {
          "internalType": "uint256",
          "name": "_currentGen",
          "type": "uint256"
        },
        {
          "internalType": "bytes32",
          "name": "_metadata",
          "type": "bytes32"
        }
      ],
      "name": "generateGene",
      "outputs": [
        {
          "internalType": "uint256",
          "name": "gene",
          "type": "uint256"
        }
      ],
      "stateMutability": "view",
      "type": "function"
    },
    {
      "inputs": [
        {
          "internalType": "address",
          "name": "_newCore",
          "type": "address"
        }
      ],
      "name": "setCore",
      "outputs": [],
      "stateMutability": "nonpayable",
      "type": "function"
    }
  ],
  "bytecode": "0x608060405234801561001057600080fd5b506040516109923803806109928339818101604052810190610032919061008d565b806000806101000a81548173ffffffffffffffffffffffffffffffffffffffff021916908373ffffffffffffffffffffffffffffffffffffffff16021790555050610108565b600081519050610087816100f1565b92915050565b6000602082840312156100a3576100a26100ec565b5b60006100b184828501610078565b91505092915050565b60006100c5826100cc565b9050919050565b600073ffffffffffffffffffffffffffffffffffffffff82169050919050565b600080fd5b6100fa816100ba565b811461010557600080fd5b50565b61087b806101176000396000f3fe608060405234801561001057600080fd5b506004361061007d5760003560e01c8063c11eef221161005b578063c11eef22146100da578063c482877b1461010a578063e8a85ab114610128578063f2f4eb26146101465761007d565b8063524a2a6d1461008257806380009630146100a0578063850824a0146100bc575b600080fd5b61008a610164565b60405161009791906105ac565b60405180910390f35b6100ba60048036038101906100b59190610480565b610188565b005b6100c46102c9565b6040516100d191906105ac565b60405180910390f35b6100f460048036038101906100ef91906104ad565b6102ce565b60405161010191906105ac565b60405180910390f35b6101126103f6565b60405161011f91906105ac565b60405180910390f35b6101306103fb565b60405161013d91906105ac565b60405180910390f35b61014e61041d565b60405161015b9190610551565b60405180910390f35b7f0235fadd81c2822bb3f07877973d50f28bf22a31be8ee800000000000000000081565b60008054906101000a900473ffffffffffffffffffffffffffffffffffffffff1673ffffffffffffffffffffffffffffffffffffffff163373ffffffffffffffffffffffffffffffffffffffff1614610216576040517f08c379a000000000000000000000000000000000000000000000000000000000815260040161020d9061056c565b60405180910390fd5b600073ffffffffffffffffffffffffffffffffffffffff168173ffffffffffffffffffffffffffffffffffffffff161415610286576040517f08c379a000000000000000000000000000000000000000000000000000000000815260040161027d9061058c565b60405180910390fd5b806000806101000a81548173ffffffffffffffffffffffffffffffffffffffff021916908373ffffffffffffffffffffffffffffffffffffffff16021790555050565b600481565b60008060009054906101000a900473ffffffffffffffffffffffffffffffffffffffff1673ffffffffffffffffffffffffffffffffffffffff163373ffffffffffffffffffffffffffffffffffffffff161461035f576040517f08c379a00000000000000000000000000000000000000000000000000000000081526004016103569061056c565b60405180910390fd5b8160001c90507f0235fadd81c2822bb3f07877973d50f28bf22a31be8ee80000000000000000007d90e40fbeea1d3a4abc8955e946fe31cdcf66f634e1000000000000000000846103b0919061062e565b7d90e40fbeea1d3a4abc8955e946fe31cdcf66f634e1000000000000000000836103da91906106ce565b6103e491906105d8565b6103ee91906105d8565b905092915050565b600181565b7d90e40fbeea1d3a4abc8955e946fe31cdcf66f634e100000000000000000081565b60008054906101000a900473ffffffffffffffffffffffffffffffffffffffff1681565b60008135905061045081610800565b92915050565b60008135905061046581610817565b92915050565b60008135905061047a8161082e565b92915050565b6000602082840312156104965761049561075d565b5b60006104a484828501610441565b91505092915050565b600080604083850312156104c4576104c361075d565b5b60006104d28582860161046b565b92505060206104e385828601610456565b9150509250929050565b6104f681610688565b82525050565b6000610509602d836105c7565b915061051482610762565b604082019050919050565b600061052c602d836105c7565b9150610537826107b1565b604082019050919050565b61054b816106c4565b82525050565b600060208201905061056660008301846104ed565b92915050565b60006020820190508181036000830152610585816104fc565b9050919050565b600060208201905081810360008301526105a58161051f565b9050919050565b60006020820190506105c16000830184610542565b92915050565b600082825260208201905092915050565b60006105e3826106c4565b91506105ee836106c4565b9250827fffffffffffffffffffffffffffffffffffffffffffffffffffffffffffffffff03821115610623576106226106ff565b5b828201905092915050565b6000610639826106c4565b9150610644836106c4565b9250817fffffffffffffffffffffffffffffffffffffffffffffffffffffffffffffffff048311821515161561067d5761067c6106ff565b5b828202905092915050565b6000610693826106a4565b9050919050565b6000819050919050565b600073ffffffffffffffffffffffffffffffffffffffff82169050919050565b6000819050919050565b60006106d9826106c4565b91506106e4836106c4565b9250826106f4576106f361072e565b5b828206905092915050565b7f4e487b7100000000000000000000000000000000000000000000000000000000600052601160045260246000fd5b7f4e487b7100000000000000000000000000000000000000000000000000000000600052601260045260246000fd5b600080fd5b7f57617272696f7247656e6547656e657261746f723a206f6e6c7920636f72652060008201527f66756e6374696f6e616c69747900000000000000000000000000000000000000602082015250565b7f57617272696f7247656e6547656e657261746f723a206e657720636f7265206360008201527f616e6e6f74206265207a65726f00000000000000000000000000000000000000602082015250565b61080981610688565b811461081457600080fd5b50565b6108208161069a565b811461082b57600080fd5b50565b610837816106c4565b811461084257600080fd5b5056fea2646970667358221220a7a0312f4d081a0505cc75b2162fe97a67e3218e877ed89f5ea183c8fe2dc11a64736f6c63430008060033",
  "linkReferences": {},
  "deployedLinkReferences": {}
}