{
  "_format": "hh-sol-artifact-1",
  "contractName": "Authorized",
  "sourceName": "contracts/access/Authorized.sol",
  "abi": [
    {
      "inputs": [],
      "stateMutability": "nonpayable",
      "type": "constructor"
    },
    {
      "inputs": [],
      "name": "admin",
      "outputs": [
        {
          "internalType": "address",
          "name": "",
          "type": "address"
        }
      ],
      "stateMutability": "view",
      "type": "function"
    },
    {
      "inputs": [
        {
          "internalType": "bytes32",
          "name": "c__0xfe7be20b",
          "type": "bytes32"
        }
      ],
      "name": "c_0xfe7be20b",
      "outputs": [],
      "stateMutability": "pure",
      "type": "function"
    }
  ],
  "bytecode": "0x608060405234801561001057600080fd5b506100437fab356af44e70dfaa571c9eff4e95bec7e8b3e404e2ec52d0d4b7fb5cb8cbc38660001b6100ec60201b60201c565b6100757fc97dd08e0216f5daf69d4ced9e1cd33817800eb601c7e8e1f62926d6ca2d1bef60001b6100ec60201b60201c565b6100a77fab21c9b0efbd8e582404024f54c4147710cf8bfc0d76618541a3b4b7b8047ef360001b6100ec60201b60201c565b336000806101000a81548173ffffffffffffffffffffffffffffffffffffffff021916908373ffffffffffffffffffffffffffffffffffffffff1602179055506100ef565b50565b610196806100fe6000396000f3fe608060405234801561001057600080fd5b50600436106100365760003560e01c80633b7efe1a1461003b578063f851a44014610057575b600080fd5b610055600480360381019061005091906100b1565b610075565b005b61005f610078565b60405161006c91906100ed565b60405180910390f35b50565b60008054906101000a900473ffffffffffffffffffffffffffffffffffffffff1681565b6000813590506100ab81610149565b92915050565b6000602082840312156100c7576100c6610144565b5b60006100d58482850161009c565b91505092915050565b6100e781610108565b82525050565b600060208201905061010260008301846100de565b92915050565b600061011382610124565b9050919050565b6000819050919050565b600073ffffffffffffffffffffffffffffffffffffffff82169050919050565b600080fd5b6101528161011a565b811461015d57600080fd5b5056fea2646970667358221220b6447b4806d16235d651812d9216df2df4a0747123be875f11a0c13b1d8f3fde64736f6c63430008060033",
  "linkReferences": {},
  "deployedLinkReferences": {}
}