{
  "_format": "hh-sol-artifact-1",
  "contractName": "WarriorPopulation",
  "sourceName": "contracts/modules/WarriorPopulation.sol",
  "abi": [
    {
      "inputs": [
        {
          "internalType": "uint256",
          "name": "_initialMaxPopulation",
          "type": "uint256"
        }
      ],
      "stateMutability": "nonpayable",
      "type": "constructor"
    },
    {
      "anonymous": false,
      "inputs": [
        {
          "indexed": true,
          "internalType": "address",
          "name": "owner",
          "type": "address"
        },
        {
          "indexed": true,
          "internalType": "address",
          "name": "approved",
          "type": "address"
        },
        {
          "indexed": true,
          "internalType": "uint256",
          "name": "tokenId",
          "type": "uint256"
        }
      ],
      "name": "Approval",
      "type": "event"
    },
    {
      "anonymous": false,
      "inputs": [
        {
          "indexed": true,
          "internalType": "address",
          "name": "owner",
          "type": "address"
        },
        {
          "indexed": true,
          "internalType": "address",
          "name": "operator",
          "type": "address"
        },
        {
          "indexed": false,
          "internalType": "bool",
          "name": "approved",
          "type": "bool"
        }
      ],
      "name": "ApprovalForAll",
      "type": "event"
    },
    {
      "anonymous": false,
      "inputs": [
        {
          "indexed": true,
          "internalType": "address",
          "name": "from",
          "type": "address"
        },
        {
          "indexed": true,
          "internalType": "address",
          "name": "to",
          "type": "address"
        },
        {
          "indexed": true,
          "internalType": "uint256",
          "name": "tokenId",
          "type": "uint256"
        }
      ],
      "name": "Transfer",
      "type": "event"
    },
    {
      "anonymous": false,
      "inputs": [
        {
          "indexed": true,
          "internalType": "address",
          "name": "owner",
          "type": "address"
        },
        {
          "indexed": true,
          "internalType": "uint256",
          "name": "warriorId",
          "type": "uint256"
        }
      ],
      "name": "WarriorGenerated",
      "type": "event"
    },
    {
      "inputs": [],
      "name": "GROWTH_PRECISION",
      "outputs": [
        {
          "internalType": "uint256",
          "name": "",
          "type": "uint256"
        }
      ],
      "stateMutability": "view",
      "type": "function"
    },
    {
      "inputs": [],
      "name": "PRECISION",
      "outputs": [
        {
          "internalType": "uint256",
          "name": "",
          "type": "uint256"
        }
      ],
      "stateMutability": "view",
      "type": "function"
    },
    {
      "inputs": [
        {
          "internalType": "address",
          "name": "to",
          "type": "address"
        },
        {
          "internalType": "uint256",
          "name": "tokenId",
          "type": "uint256"
        }
      ],
      "name": "approve",
      "outputs": [],
      "stateMutability": "nonpayable",
      "type": "function"
    },
    {
      "inputs": [
        {
          "internalType": "address",
          "name": "owner",
          "type": "address"
        }
      ],
      "name": "balanceOf",
      "outputs": [
        {
          "internalType": "uint256",
          "name": "",
          "type": "uint256"
        }
      ],
      "stateMutability": "view",
      "type": "function"
    },
    {
      "inputs": [],
      "name": "currentGenerationMaxPopulation",
      "outputs": [
        {
          "internalType": "uint256",
          "name": "",
          "type": "uint256"
        }
      ],
      "stateMutability": "view",
      "type": "function"
    },
    {
      "inputs": [
        {
          "internalType": "uint256",
          "name": "tokenId",
          "type": "uint256"
        }
      ],
      "name": "getApproved",
      "outputs": [
        {
          "internalType": "address",
          "name": "",
          "type": "address"
        }
      ],
      "stateMutability": "view",
      "type": "function"
    },
    {
      "inputs": [
        {
          "internalType": "uint256",
          "name": "_warriorId",
          "type": "uint256"
        }
      ],
      "name": "getWarrior",
      "outputs": [
        {
          "internalType": "uint256",
          "name": "warrior",
          "type": "uint256"
        }
      ],
      "stateMutability": "view",
      "type": "function"
    },
    {
      "inputs": [],
      "name": "growthRate",
      "outputs": [
        {
          "internalType": "uint256",
          "name": "",
          "type": "uint256"
        }
      ],
      "stateMutability": "view",
      "type": "function"
    },
    {
      "inputs": [
        {
          "internalType": "address",
          "name": "owner",
          "type": "address"
        },
        {
          "internalType": "address",
          "name": "operator",
          "type": "address"
        }
      ],
      "name": "isApprovedForAll",
      "outputs": [
        {
          "internalType": "bool",
          "name": "",
          "type": "bool"
        }
      ],
      "stateMutability": "view",
      "type": "function"
    },
    {
      "inputs": [
        {
          "internalType": "uint256",
          "name": "",
          "type": "uint256"
        }
      ],
      "name": "isGeneUsed",
      "outputs": [
        {
          "internalType": "bool",
          "name": "",
          "type": "bool"
        }
      ],
      "stateMutability": "view",
      "type": "function"
    },
    {
      "inputs": [],
      "name": "maxPopulation",
      "outputs": [
        {
          "internalType": "uint256",
          "name": "",
          "type": "uint256"
        }
      ],
      "stateMutability": "view",
      "type": "function"
    },
    {
      "inputs": [],
      "name": "maxPopulationPerGen",
      "outputs": [
        {
          "internalType": "uint256",
          "name": "",
          "type": "uint256"
        }
      ],
      "stateMutability": "view",
      "type": "function"
    },
    {
      "inputs": [],
      "name": "name",
      "outputs": [
        {
          "internalType": "string",
          "name": "",
          "type": "string"
        }
      ],
      "stateMutability": "view",
      "type": "function"
    },
    {
      "inputs": [
        {
          "internalType": "uint256",
          "name": "tokenId",
          "type": "uint256"
        }
      ],
      "name": "ownerOf",
      "outputs": [
        {
          "internalType": "address",
          "name": "",
          "type": "address"
        }
      ],
      "stateMutability": "view",
      "type": "function"
    },
    {
      "inputs": [],
      "name": "populationUntilLastGeneration",
      "outputs": [
        {
          "internalType": "uint256",
          "name": "",
          "type": "uint256"
        }
      ],
      "stateMutability": "view",
      "type": "function"
    },
    {
      "inputs": [
        {
          "internalType": "address",
          "name": "from",
          "type": "address"
        },
        {
          "internalType": "address",
          "name": "to",
          "type": "address"
        },
        {
          "internalType": "uint256",
          "name": "tokenId",
          "type": "uint256"
        }
      ],
      "name": "safeTransferFrom",
      "outputs": [],
      "stateMutability": "nonpayable",
      "type": "function"
    },
    {
      "inputs": [
        {
          "internalType": "address",
          "name": "from",
          "type": "address"
        },
        {
          "internalType": "address",
          "name": "to",
          "type": "address"
        },
        {
          "internalType": "uint256",
          "name": "tokenId",
          "type": "uint256"
        },
        {
          "internalType": "bytes",
          "name": "_data",
          "type": "bytes"
        }
      ],
      "name": "safeTransferFrom",
      "outputs": [],
      "stateMutability": "nonpayable",
      "type": "function"
    },
    {
      "inputs": [
        {
          "internalType": "address",
          "name": "operator",
          "type": "address"
        },
        {
          "internalType": "bool",
          "name": "approved",
          "type": "bool"
        }
      ],
      "name": "setApprovalForAll",
      "outputs": [],
      "stateMutability": "nonpayable",
      "type": "function"
    },
    {
      "inputs": [
        {
          "internalType": "bytes4",
          "name": "interfaceId",
          "type": "bytes4"
        }
      ],
      "name": "supportsInterface",
      "outputs": [
        {
          "internalType": "bool",
          "name": "",
          "type": "bool"
        }
      ],
      "stateMutability": "view",
      "type": "function"
    },
    {
      "inputs": [],
      "name": "symbol",
      "outputs": [
        {
          "internalType": "string",
          "name": "",
          "type": "string"
        }
      ],
      "stateMutability": "view",
      "type": "function"
    },
    {
      "inputs": [
        {
          "internalType": "uint256",
          "name": "tokenId",
          "type": "uint256"
        }
      ],
      "name": "tokenURI",
      "outputs": [
        {
          "internalType": "string",
          "name": "",
          "type": "string"
        }
      ],
      "stateMutability": "view",
      "type": "function"
    },
    {
      "inputs": [
        {
          "internalType": "address",
          "name": "from",
          "type": "address"
        },
        {
          "internalType": "address",
          "name": "to",
          "type": "address"
        },
        {
          "internalType": "uint256",
          "name": "tokenId",
          "type": "uint256"
        }
      ],
      "name": "transferFrom",
      "outputs": [],
      "stateMutability": "nonpayable",
      "type": "function"
    },
    {
      "inputs": [],
      "name": "warriorCounter",
      "outputs": [
        {
          "internalType": "uint256",
          "name": "",
          "type": "uint256"
        }
      ],
      "stateMutability": "view",
      "type": "function"
    }
  ],
  "bytecode": "0x608060405263019bfcc0600955620186a0600a55610187600d553480156200002657600080fd5b506040516200294d3803806200294d83398181016040528101906200004c9190620001c1565b6040518060400160405280600881526020017f57617272696f72730000000000000000000000000000000000000000000000008152506040518060400160405280600381526020017f57525400000000000000000000000000000000000000000000000000000000008152508160009080519060200190620000d0929190620000fa565b508060019080519060200190620000e9929190620000fa565b50505080600b819055505062000281565b8280546200010890620001fd565b90600052602060002090601f0160209004810192826200012c576000855562000178565b82601f106200014757805160ff191683800117855562000178565b8280016001018555821562000178579182015b82811115620001775782518255916020019190600101906200015a565b5b5090506200018791906200018b565b5090565b5b80821115620001a65760008160009055506001016200018c565b5090565b600081519050620001bb8162000267565b92915050565b600060208284031215620001da57620001d962000262565b5b6000620001ea84828501620001aa565b91505092915050565b6000819050919050565b600060028204905060018216806200021657607f821691505b602082108114156200022d576200022c62000233565b5b50919050565b7f4e487b7100000000000000000000000000000000000000000000000000000000600052602260045260246000fd5b600080fd5b6200027281620001f3565b81146200027e57600080fd5b50565b6126bc80620002916000396000f3fe608060405234801561001057600080fd5b506004361061014d5760003560e01c80636ae8f737116100c3578063aaf5eb681161007c578063aaf5eb68146103b4578063ad4ae8c3146103d2578063b88d4fde146103f0578063c87b56dd1461040c578063d0b96ef91461043c578063e985e9c51461045a5761014d565b80636ae8f737146102de5780636bba6c28146102fc57806370a082311461031a5780639422ee781461034a57806395d89b411461037a578063a22cb465146103985761014d565b806317729a821161011557806317729a821461020a57806323b872dd1461022857806329372ad01461024457806342842e0e146102745780634787dc65146102905780636352211e146102ae5761014d565b8063014f25ab1461015257806301ffc9a71461017057806306fdde03146101a0578063081812fc146101be578063095ea7b3146101ee575b600080fd5b61015a61048a565b6040516101679190611e61565b60405180910390f35b61018a600480360381019061018591906118db565b61048f565b6040516101979190611c84565b60405180910390f35b6101a8610571565b6040516101b59190611c9f565b60405180910390f35b6101d860048036038101906101d39190611935565b610603565b6040516101e59190611c1d565b60405180910390f35b6102086004803603810190610203919061189b565b610688565b005b6102126107a0565b60405161021f9190611e61565b60405180910390f35b610242600480360381019061023d9190611785565b6107a6565b005b61025e60048036038101906102599190611935565b610806565b60405161026b9190611e61565b60405180910390f35b61028e60048036038101906102899190611785565b610867565b005b610298610887565b6040516102a59190611e61565b60405180910390f35b6102c860048036038101906102c39190611935565b61088d565b6040516102d59190611c1d565b60405180910390f35b6102e661093f565b6040516102f39190611e61565b60405180910390f35b610304610945565b6040516103119190611e61565b60405180910390f35b610334600480360381019061032f9190611718565b61094b565b6040516103419190611e61565b60405180910390f35b610364600480360381019061035f9190611935565b610a03565b6040516103719190611c84565b60405180910390f35b610382610a23565b60405161038f9190611c9f565b60405180910390f35b6103b260048036038101906103ad919061185b565b610ab5565b005b6103bc610c36565b6040516103c99190611e61565b60405180910390f35b6103da610c42565b6040516103e79190611e61565b60405180910390f35b61040a600480360381019061040591906117d8565b610c48565b005b61042660048036038101906104219190611935565b610caa565b6040516104339190611c9f565b60405180910390f35b610444610d51565b6040516104519190611e61565b60405180910390f35b610474600480360381019061046f9190611745565b610d57565b6040516104819190611c84565b60405180910390f35b606481565b60007f80ac58cd000000000000000000000000000000000000000000000000000000007bffffffffffffffffffffffffffffffffffffffffffffffffffffffff1916827bffffffffffffffffffffffffffffffffffffffffffffffffffffffff1916148061055a57507f5b5e139f000000000000000000000000000000000000000000000000000000007bffffffffffffffffffffffffffffffffffffffffffffffffffffffff1916827bffffffffffffffffffffffffffffffffffffffffffffffffffffffff1916145b8061056a575061056982610deb565b5b9050919050565b60606000805461058090612086565b80601f01602080910402602001604051908101604052809291908181526020018280546105ac90612086565b80156105f95780601f106105ce576101008083540402835291602001916105f9565b820191906000526020600020905b8154815290600101906020018083116105dc57829003601f168201915b5050505050905090565b600061060e82610e55565b61064d576040517f08c379a000000000000000000000000000000000000000000000000000000000815260040161064490611da1565b60405180910390fd5b6004600083815260200190815260200160002060009054906101000a900473ffffffffffffffffffffffffffffffffffffffff169050919050565b60006106938261088d565b90508073ffffffffffffffffffffffffffffffffffffffff168373ffffffffffffffffffffffffffffffffffffffff161415610704576040517f08c379a00000000000000000000000000000000000000000000000000000000081526004016106fb90611e01565b60405180910390fd5b8073ffffffffffffffffffffffffffffffffffffffff16610723610ec1565b73ffffffffffffffffffffffffffffffffffffffff16148061075257506107518161074c610ec1565b610d57565b5b610791576040517f08c379a000000000000000000000000000000000000000000000000000000000815260040161078890611d41565b60405180910390fd5b61079b8383610ec9565b505050565b60095481565b6107b76107b1610ec1565b82610f82565b6107f6576040517f08c379a00000000000000000000000000000000000000000000000000000000081526004016107ed90611e21565b60405180910390fd5b610801838383611060565b505050565b6000600660008381526020019081526020016000205490506000811415610862576040517f08c379a000000000000000000000000000000000000000000000000000000000815260040161085990611e41565b60405180910390fd5b919050565b61088283838360405180602001604052806000815250610c48565b505050565b600b5481565b6000806002600084815260200190815260200160002060009054906101000a900473ffffffffffffffffffffffffffffffffffffffff169050600073ffffffffffffffffffffffffffffffffffffffff168173ffffffffffffffffffffffffffffffffffffffff161415610936576040517f08c379a000000000000000000000000000000000000000000000000000000000815260040161092d90611d81565b60405180910390fd5b80915050919050565b600c5481565b600a5481565b60008073ffffffffffffffffffffffffffffffffffffffff168273ffffffffffffffffffffffffffffffffffffffff1614156109bc576040517f08c379a00000000000000000000000000000000000000000000000000000000081526004016109b390611d61565b60405180910390fd5b600360008373ffffffffffffffffffffffffffffffffffffffff1673ffffffffffffffffffffffffffffffffffffffff168152602001908152602001600020549050919050565b60076020528060005260406000206000915054906101000a900460ff1681565b606060018054610a3290612086565b80601f0160208091040260200160405190810160405280929190818152602001828054610a5e90612086565b8015610aab5780601f10610a8057610100808354040283529160200191610aab565b820191906000526020600020905b815481529060010190602001808311610a8e57829003601f168201915b5050505050905090565b610abd610ec1565b73ffffffffffffffffffffffffffffffffffffffff168273ffffffffffffffffffffffffffffffffffffffff161415610b2b576040517f08c379a0000000000000000000000000000000000000000000000000000000008152600401610b2290611d01565b60405180910390fd5b8060056000610b38610ec1565b73ffffffffffffffffffffffffffffffffffffffff1673ffffffffffffffffffffffffffffffffffffffff16815260200190815260200160002060008473ffffffffffffffffffffffffffffffffffffffff1673ffffffffffffffffffffffffffffffffffffffff16815260200190815260200160002060006101000a81548160ff0219169083151502179055508173ffffffffffffffffffffffffffffffffffffffff16610be5610ec1565b73ffffffffffffffffffffffffffffffffffffffff167f17307eab39ab6107e8899845ad3d59bd9653f200f220920489ca2b5937696c3183604051610c2a9190611c84565b60405180910390a35050565b670de0b6b3a764000081565b600d5481565b610c59610c53610ec1565b83610f82565b610c98576040517f08c379a0000000000000000000000000000000000000000000000000000000008152600401610c8f90611e21565b60405180910390fd5b610ca4848484846112bc565b50505050565b6060610cb582610e55565b610cf4576040517f08c379a0000000000000000000000000000000000000000000000000000000008152600401610ceb90611de1565b60405180910390fd5b6000610cfe611318565b90506000815111610d1e5760405180602001604052806000815250610d49565b80610d288461132f565b604051602001610d39929190611bf9565b6040516020818303038152906040525b915050919050565b60085481565b6000600560008473ffffffffffffffffffffffffffffffffffffffff1673ffffffffffffffffffffffffffffffffffffffff16815260200190815260200160002060008373ffffffffffffffffffffffffffffffffffffffff1673ffffffffffffffffffffffffffffffffffffffff16815260200190815260200160002060009054906101000a900460ff16905092915050565b60007f01ffc9a7000000000000000000000000000000000000000000000000000000007bffffffffffffffffffffffffffffffffffffffffffffffffffffffff1916827bffffffffffffffffffffffffffffffffffffffffffffffffffffffff1916149050919050565b60008073ffffffffffffffffffffffffffffffffffffffff166002600084815260200190815260200160002060009054906101000a900473ffffffffffffffffffffffffffffffffffffffff1673ffffffffffffffffffffffffffffffffffffffff1614159050919050565b600033905090565b816004600083815260200190815260200160002060006101000a81548173ffffffffffffffffffffffffffffffffffffffff021916908373ffffffffffffffffffffffffffffffffffffffff160217905550808273ffffffffffffffffffffffffffffffffffffffff16610f3c8361088d565b73ffffffffffffffffffffffffffffffffffffffff167f8c5be1e5ebec7d5bd14f71427d1e84f3dd0314c0f7b2291e5b200ac8c7c3b92560405160405180910390a45050565b6000610f8d82610e55565b610fcc576040517f08c379a0000000000000000000000000000000000000000000000000000000008152600401610fc390611d21565b60405180910390fd5b6000610fd78361088d565b90508073ffffffffffffffffffffffffffffffffffffffff168473ffffffffffffffffffffffffffffffffffffffff16148061104657508373ffffffffffffffffffffffffffffffffffffffff1661102e84610603565b73ffffffffffffffffffffffffffffffffffffffff16145b8061105757506110568185610d57565b5b91505092915050565b8273ffffffffffffffffffffffffffffffffffffffff166110808261088d565b73ffffffffffffffffffffffffffffffffffffffff16146110d6576040517f08c379a00000000000000000000000000000000000000000000000000000000081526004016110cd90611dc1565b60405180910390fd5b600073ffffffffffffffffffffffffffffffffffffffff168273ffffffffffffffffffffffffffffffffffffffff161415611146576040517f08c379a000000000000000000000000000000000000000000000000000000000815260040161113d90611ce1565b60405180910390fd5b611151838383611490565b61115c600082610ec9565b6001600360008573ffffffffffffffffffffffffffffffffffffffff1673ffffffffffffffffffffffffffffffffffffffff16815260200190815260200160002060008282546111ac9190611f9c565b925050819055506001600360008473ffffffffffffffffffffffffffffffffffffffff1673ffffffffffffffffffffffffffffffffffffffff16815260200190815260200160002060008282546112039190611f15565b92505081905550816002600083815260200190815260200160002060006101000a81548173ffffffffffffffffffffffffffffffffffffffff021916908373ffffffffffffffffffffffffffffffffffffffff160217905550808273ffffffffffffffffffffffffffffffffffffffff168473ffffffffffffffffffffffffffffffffffffffff167fddf252ad1be2c89b69c2b068fc378daa952ba7f163c4a11628f55a4df523b3ef60405160405180910390a4505050565b6112c7848484611060565b6112d384848484611495565b611312576040517f08c379a000000000000000000000000000000000000000000000000000000000815260040161130990611cc1565b60405180910390fd5b50505050565b606060405180602001604052806000815250905090565b60606000821415611377576040518060400160405280600181526020017f3000000000000000000000000000000000000000000000000000000000000000815250905061148b565b600082905060005b600082146113a9578080611392906120e9565b915050600a826113a29190611f6b565b915061137f565b60008167ffffffffffffffff8111156113c5576113c461221f565b5b6040519080825280601f01601f1916602001820160405280156113f75781602001600182028036833780820191505090505b5090505b60008514611484576001826114109190611f9c565b9150600a8561141f9190612132565b603061142b9190611f15565b60f81b818381518110611441576114406121f0565b5b60200101907effffffffffffffffffffffffffffffffffffffffffffffffffffffffffffff1916908160001a905350600a8561147d9190611f6b565b94506113fb565b8093505050505b919050565b505050565b60006114b68473ffffffffffffffffffffffffffffffffffffffff1661162c565b1561161f578373ffffffffffffffffffffffffffffffffffffffff1663150b7a026114df610ec1565b8786866040518563ffffffff1660e01b81526004016115019493929190611c38565b602060405180830381600087803b15801561151b57600080fd5b505af192505050801561154c57506040513d601f19601f820116820180604052508101906115499190611908565b60015b6115cf573d806000811461157c576040519150601f19603f3d011682016040523d82523d6000602084013e611581565b606091505b506000815114156115c7576040517f08c379a00000000000000000000000000000000000000000000000000000000081526004016115be90611cc1565b60405180910390fd5b805181602001fd5b63150b7a0260e01b7bffffffffffffffffffffffffffffffffffffffffffffffffffffffff1916817bffffffffffffffffffffffffffffffffffffffffffffffffffffffff191614915050611624565b600190505b949350505050565b600080823b905060008111915050919050565b600061165261164d84611ea1565b611e7c565b90508281526020810184848401111561166e5761166d612253565b5b611679848285612044565b509392505050565b6000813590506116908161262a565b92915050565b6000813590506116a581612641565b92915050565b6000813590506116ba81612658565b92915050565b6000815190506116cf81612658565b92915050565b600082601f8301126116ea576116e961224e565b5b81356116fa84826020860161163f565b91505092915050565b6000813590506117128161266f565b92915050565b60006020828403121561172e5761172d61225d565b5b600061173c84828501611681565b91505092915050565b6000806040838503121561175c5761175b61225d565b5b600061176a85828601611681565b925050602061177b85828601611681565b9150509250929050565b60008060006060848603121561179e5761179d61225d565b5b60006117ac86828701611681565b93505060206117bd86828701611681565b92505060406117ce86828701611703565b9150509250925092565b600080600080608085870312156117f2576117f161225d565b5b600061180087828801611681565b945050602061181187828801611681565b935050604061182287828801611703565b925050606085013567ffffffffffffffff81111561184357611842612258565b5b61184f878288016116d5565b91505092959194509250565b600080604083850312156118725761187161225d565b5b600061188085828601611681565b925050602061189185828601611696565b9150509250929050565b600080604083850312156118b2576118b161225d565b5b60006118c085828601611681565b92505060206118d185828601611703565b9150509250929050565b6000602082840312156118f1576118f061225d565b5b60006118ff848285016116ab565b91505092915050565b60006020828403121561191e5761191d61225d565b5b600061192c848285016116c0565b91505092915050565b60006020828403121561194b5761194a61225d565b5b600061195984828501611703565b91505092915050565b61196b81611fd0565b82525050565b61197a81611fe2565b82525050565b600061198b82611ed2565b6119958185611ee8565b93506119a5818560208601612053565b6119ae81612262565b840191505092915050565b60006119c482611edd565b6119ce8185611ef9565b93506119de818560208601612053565b6119e781612262565b840191505092915050565b60006119fd82611edd565b611a078185611f0a565b9350611a17818560208601612053565b80840191505092915050565b6000611a30603283611ef9565b9150611a3b82612273565b604082019050919050565b6000611a53602483611ef9565b9150611a5e826122c2565b604082019050919050565b6000611a76601983611ef9565b9150611a8182612311565b602082019050919050565b6000611a99602c83611ef9565b9150611aa48261233a565b604082019050919050565b6000611abc603883611ef9565b9150611ac782612389565b604082019050919050565b6000611adf602a83611ef9565b9150611aea826123d8565b604082019050919050565b6000611b02602983611ef9565b9150611b0d82612427565b604082019050919050565b6000611b25602c83611ef9565b9150611b3082612476565b604082019050919050565b6000611b48602983611ef9565b9150611b53826124c5565b604082019050919050565b6000611b6b602f83611ef9565b9150611b7682612514565b604082019050919050565b6000611b8e602183611ef9565b9150611b9982612563565b604082019050919050565b6000611bb1603183611ef9565b9150611bbc826125b2565b604082019050919050565b6000611bd4602083611ef9565b9150611bdf82612601565b602082019050919050565b611bf38161203a565b82525050565b6000611c0582856119f2565b9150611c1182846119f2565b91508190509392505050565b6000602082019050611c326000830184611962565b92915050565b6000608082019050611c4d6000830187611962565b611c5a6020830186611962565b611c676040830185611bea565b8181036060830152611c798184611980565b905095945050505050565b6000602082019050611c996000830184611971565b92915050565b60006020820190508181036000830152611cb981846119b9565b905092915050565b60006020820190508181036000830152611cda81611a23565b9050919050565b60006020820190508181036000830152611cfa81611a46565b9050919050565b60006020820190508181036000830152611d1a81611a69565b9050919050565b60006020820190508181036000830152611d3a81611a8c565b9050919050565b60006020820190508181036000830152611d5a81611aaf565b9050919050565b60006020820190508181036000830152611d7a81611ad2565b9050919050565b60006020820190508181036000830152611d9a81611af5565b9050919050565b60006020820190508181036000830152611dba81611b18565b9050919050565b60006020820190508181036000830152611dda81611b3b565b9050919050565b60006020820190508181036000830152611dfa81611b5e565b9050919050565b60006020820190508181036000830152611e1a81611b81565b9050919050565b60006020820190508181036000830152611e3a81611ba4565b9050919050565b60006020820190508181036000830152611e5a81611bc7565b9050919050565b6000602082019050611e766000830184611bea565b92915050565b6000611e86611e97565b9050611e9282826120b8565b919050565b6000604051905090565b600067ffffffffffffffff821115611ebc57611ebb61221f565b5b611ec582612262565b9050602081019050919050565b600081519050919050565b600081519050919050565b600082825260208201905092915050565b600082825260208201905092915050565b600081905092915050565b6000611f208261203a565b9150611f2b8361203a565b9250827fffffffffffffffffffffffffffffffffffffffffffffffffffffffffffffffff03821115611f6057611f5f612163565b5b828201905092915050565b6000611f768261203a565b9150611f818361203a565b925082611f9157611f90612192565b5b828204905092915050565b6000611fa78261203a565b9150611fb28361203a565b925082821015611fc557611fc4612163565b5b828203905092915050565b6000611fdb8261201a565b9050919050565b60008115159050919050565b60007fffffffff0000000000000000000000000000000000000000000000000000000082169050919050565b600073ffffffffffffffffffffffffffffffffffffffff82169050919050565b6000819050919050565b82818337600083830152505050565b60005b83811015612071578082015181840152602081019050612056565b83811115612080576000848401525b50505050565b6000600282049050600182168061209e57607f821691505b602082108114156120b2576120b16121c1565b5b50919050565b6120c182612262565b810181811067ffffffffffffffff821117156120e0576120df61221f565b5b80604052505050565b60006120f48261203a565b91507fffffffffffffffffffffffffffffffffffffffffffffffffffffffffffffffff82141561212757612126612163565b5b600182019050919050565b600061213d8261203a565b91506121488361203a565b92508261215857612157612192565b5b828206905092915050565b7f4e487b7100000000000000000000000000000000000000000000000000000000600052601160045260246000fd5b7f4e487b7100000000000000000000000000000000000000000000000000000000600052601260045260246000fd5b7f4e487b7100000000000000000000000000000000000000000000000000000000600052602260045260246000fd5b7f4e487b7100000000000000000000000000000000000000000000000000000000600052603260045260246000fd5b7f4e487b7100000000000000000000000000000000000000000000000000000000600052604160045260246000fd5b600080fd5b600080fd5b600080fd5b600080fd5b6000601f19601f8301169050919050565b7f4552433732313a207472616e7366657220746f206e6f6e20455243373231526560008201527f63656976657220696d706c656d656e7465720000000000000000000000000000602082015250565b7f4552433732313a207472616e7366657220746f20746865207a65726f2061646460008201527f7265737300000000000000000000000000000000000000000000000000000000602082015250565b7f4552433732313a20617070726f766520746f2063616c6c657200000000000000600082015250565b7f4552433732313a206f70657261746f7220717565727920666f72206e6f6e657860008201527f697374656e7420746f6b656e0000000000000000000000000000000000000000602082015250565b7f4552433732313a20617070726f76652063616c6c6572206973206e6f74206f7760008201527f6e6572206e6f7220617070726f76656420666f7220616c6c0000000000000000602082015250565b7f4552433732313a2062616c616e636520717565727920666f7220746865207a6560008201527f726f206164647265737300000000000000000000000000000000000000000000602082015250565b7f4552433732313a206f776e657220717565727920666f72206e6f6e657869737460008201527f656e7420746f6b656e0000000000000000000000000000000000000000000000602082015250565b7f4552433732313a20617070726f76656420717565727920666f72206e6f6e657860008201527f697374656e7420746f6b656e0000000000000000000000000000000000000000602082015250565b7f4552433732313a207472616e73666572206f6620746f6b656e2074686174206960008201527f73206e6f74206f776e0000000000000000000000000000000000000000000000602082015250565b7f4552433732314d657461646174613a2055524920717565727920666f72206e6f60008201527f6e6578697374656e7420746f6b656e0000000000000000000000000000000000602082015250565b7f4552433732313a20617070726f76616c20746f2063757272656e74206f776e6560008201527f7200000000000000000000000000000000000000000000000000000000000000602082015250565b7f4552433732313a207472616e736665722063616c6c6572206973206e6f74206f60008201527f776e6572206e6f7220617070726f766564000000000000000000000000000000602082015250565b7f57617272696f72733a2077617272696f7220646f6573206e6f74206578697374600082015250565b61263381611fd0565b811461263e57600080fd5b50565b61264a81611fe2565b811461265557600080fd5b50565b61266181611fee565b811461266c57600080fd5b50565b6126788161203a565b811461268357600080fd5b5056fea2646970667358221220f032eea3c196aabba053281c5487d8392574a8c4d5d3d5a25246de945b99052064736f6c63430008060033",
  "linkReferences": {},
  "deployedLinkReferences": {}
}