{
  "_format": "hh-sol-artifact-1",
  "contractName": "WarriorPopulation",
  "sourceName": "contracts/modules/WarriorPopulation.sol",
  "abi": [
    {
      "inputs": [
        {
          "internalType": "uint256",
          "name": "_initialMaxPopulation",
          "type": "uint256"
        }
      ],
      "stateMutability": "nonpayable",
      "type": "constructor"
    },
    {
      "anonymous": false,
      "inputs": [
        {
          "indexed": true,
          "internalType": "address",
          "name": "owner",
          "type": "address"
        },
        {
          "indexed": true,
          "internalType": "address",
          "name": "approved",
          "type": "address"
        },
        {
          "indexed": true,
          "internalType": "uint256",
          "name": "tokenId",
          "type": "uint256"
        }
      ],
      "name": "Approval",
      "type": "event"
    },
    {
      "anonymous": false,
      "inputs": [
        {
          "indexed": true,
          "internalType": "address",
          "name": "owner",
          "type": "address"
        },
        {
          "indexed": true,
          "internalType": "address",
          "name": "operator",
          "type": "address"
        },
        {
          "indexed": false,
          "internalType": "bool",
          "name": "approved",
          "type": "bool"
        }
      ],
      "name": "ApprovalForAll",
      "type": "event"
    },
    {
      "anonymous": false,
      "inputs": [
        {
          "indexed": true,
          "internalType": "address",
          "name": "from",
          "type": "address"
        },
        {
          "indexed": true,
          "internalType": "address",
          "name": "to",
          "type": "address"
        },
        {
          "indexed": true,
          "internalType": "uint256",
          "name": "tokenId",
          "type": "uint256"
        }
      ],
      "name": "Transfer",
      "type": "event"
    },
    {
      "anonymous": false,
      "inputs": [
        {
          "indexed": true,
          "internalType": "address",
          "name": "owner",
          "type": "address"
        },
        {
          "indexed": true,
          "internalType": "uint256",
          "name": "warriorId",
          "type": "uint256"
        }
      ],
      "name": "WarriorGenerated",
      "type": "event"
    },
    {
      "inputs": [],
      "name": "GROWTH_PRECISION",
      "outputs": [
        {
          "internalType": "uint256",
          "name": "",
          "type": "uint256"
        }
      ],
      "stateMutability": "view",
      "type": "function"
    },
    {
      "inputs": [],
      "name": "PRECISION",
      "outputs": [
        {
          "internalType": "uint256",
          "name": "",
          "type": "uint256"
        }
      ],
      "stateMutability": "view",
      "type": "function"
    },
    {
      "inputs": [
        {
          "internalType": "address",
          "name": "to",
          "type": "address"
        },
        {
          "internalType": "uint256",
          "name": "tokenId",
          "type": "uint256"
        }
      ],
      "name": "approve",
      "outputs": [],
      "stateMutability": "nonpayable",
      "type": "function"
    },
    {
      "inputs": [
        {
          "internalType": "address",
          "name": "owner",
          "type": "address"
        }
      ],
      "name": "balanceOf",
      "outputs": [
        {
          "internalType": "uint256",
          "name": "",
          "type": "uint256"
        }
      ],
      "stateMutability": "view",
      "type": "function"
    },
    {
      "inputs": [
        {
          "internalType": "bytes32",
          "name": "c__0xb7f7bea8",
          "type": "bytes32"
        }
      ],
      "name": "c_0xb7f7bea8",
      "outputs": [],
      "stateMutability": "pure",
      "type": "function"
    },
    {
      "inputs": [
        {
          "internalType": "bytes32",
          "name": "c__0xd1105804",
          "type": "bytes32"
        }
      ],
      "name": "c_0xd1105804",
      "outputs": [],
      "stateMutability": "pure",
      "type": "function"
    },
    {
      "inputs": [],
      "name": "currentGenerationMaxPopulation",
      "outputs": [
        {
          "internalType": "uint256",
          "name": "",
          "type": "uint256"
        }
      ],
      "stateMutability": "view",
      "type": "function"
    },
    {
      "inputs": [
        {
          "internalType": "uint256",
          "name": "tokenId",
          "type": "uint256"
        }
      ],
      "name": "getApproved",
      "outputs": [
        {
          "internalType": "address",
          "name": "",
          "type": "address"
        }
      ],
      "stateMutability": "view",
      "type": "function"
    },
    {
      "inputs": [
        {
          "internalType": "uint256",
          "name": "_warriorId",
          "type": "uint256"
        }
      ],
      "name": "getWarrior",
      "outputs": [
        {
          "internalType": "uint256",
          "name": "warrior",
          "type": "uint256"
        }
      ],
      "stateMutability": "view",
      "type": "function"
    },
    {
      "inputs": [],
      "name": "growthRate",
      "outputs": [
        {
          "internalType": "uint256",
          "name": "",
          "type": "uint256"
        }
      ],
      "stateMutability": "view",
      "type": "function"
    },
    {
      "inputs": [
        {
          "internalType": "address",
          "name": "owner",
          "type": "address"
        },
        {
          "internalType": "address",
          "name": "operator",
          "type": "address"
        }
      ],
      "name": "isApprovedForAll",
      "outputs": [
        {
          "internalType": "bool",
          "name": "",
          "type": "bool"
        }
      ],
      "stateMutability": "view",
      "type": "function"
    },
    {
      "inputs": [
        {
          "internalType": "uint256",
          "name": "",
          "type": "uint256"
        }
      ],
      "name": "isGeneUsed",
      "outputs": [
        {
          "internalType": "bool",
          "name": "",
          "type": "bool"
        }
      ],
      "stateMutability": "view",
      "type": "function"
    },
    {
      "inputs": [],
      "name": "maxPopulation",
      "outputs": [
        {
          "internalType": "uint256",
          "name": "",
          "type": "uint256"
        }
      ],
      "stateMutability": "view",
      "type": "function"
    },
    {
      "inputs": [],
      "name": "maxPopulationPerGen",
      "outputs": [
        {
          "internalType": "uint256",
          "name": "",
          "type": "uint256"
        }
      ],
      "stateMutability": "view",
      "type": "function"
    },
    {
      "inputs": [],
      "name": "name",
      "outputs": [
        {
          "internalType": "string",
          "name": "",
          "type": "string"
        }
      ],
      "stateMutability": "view",
      "type": "function"
    },
    {
      "inputs": [
        {
          "internalType": "uint256",
          "name": "tokenId",
          "type": "uint256"
        }
      ],
      "name": "ownerOf",
      "outputs": [
        {
          "internalType": "address",
          "name": "",
          "type": "address"
        }
      ],
      "stateMutability": "view",
      "type": "function"
    },
    {
      "inputs": [],
      "name": "populationUntilLastGeneration",
      "outputs": [
        {
          "internalType": "uint256",
          "name": "",
          "type": "uint256"
        }
      ],
      "stateMutability": "view",
      "type": "function"
    },
    {
      "inputs": [
        {
          "internalType": "address",
          "name": "from",
          "type": "address"
        },
        {
          "internalType": "address",
          "name": "to",
          "type": "address"
        },
        {
          "internalType": "uint256",
          "name": "tokenId",
          "type": "uint256"
        }
      ],
      "name": "safeTransferFrom",
      "outputs": [],
      "stateMutability": "nonpayable",
      "type": "function"
    },
    {
      "inputs": [
        {
          "internalType": "address",
          "name": "from",
          "type": "address"
        },
        {
          "internalType": "address",
          "name": "to",
          "type": "address"
        },
        {
          "internalType": "uint256",
          "name": "tokenId",
          "type": "uint256"
        },
        {
          "internalType": "bytes",
          "name": "_data",
          "type": "bytes"
        }
      ],
      "name": "safeTransferFrom",
      "outputs": [],
      "stateMutability": "nonpayable",
      "type": "function"
    },
    {
      "inputs": [
        {
          "internalType": "address",
          "name": "operator",
          "type": "address"
        },
        {
          "internalType": "bool",
          "name": "approved",
          "type": "bool"
        }
      ],
      "name": "setApprovalForAll",
      "outputs": [],
      "stateMutability": "nonpayable",
      "type": "function"
    },
    {
      "inputs": [
        {
          "internalType": "bytes4",
          "name": "interfaceId",
          "type": "bytes4"
        }
      ],
      "name": "supportsInterface",
      "outputs": [
        {
          "internalType": "bool",
          "name": "",
          "type": "bool"
        }
      ],
      "stateMutability": "view",
      "type": "function"
    },
    {
      "inputs": [],
      "name": "symbol",
      "outputs": [
        {
          "internalType": "string",
          "name": "",
          "type": "string"
        }
      ],
      "stateMutability": "view",
      "type": "function"
    },
    {
      "inputs": [
        {
          "internalType": "uint256",
          "name": "tokenId",
          "type": "uint256"
        }
      ],
      "name": "tokenURI",
      "outputs": [
        {
          "internalType": "string",
          "name": "",
          "type": "string"
        }
      ],
      "stateMutability": "view",
      "type": "function"
    },
    {
      "inputs": [
        {
          "internalType": "address",
          "name": "from",
          "type": "address"
        },
        {
          "internalType": "address",
          "name": "to",
          "type": "address"
        },
        {
          "internalType": "uint256",
          "name": "tokenId",
          "type": "uint256"
        }
      ],
      "name": "transferFrom",
      "outputs": [],
      "stateMutability": "nonpayable",
      "type": "function"
    },
    {
      "inputs": [],
      "name": "warriorCounter",
      "outputs": [
        {
          "internalType": "uint256",
          "name": "",
          "type": "uint256"
        }
      ],
      "stateMutability": "view",
      "type": "function"
    }
  ],
  "bytecode": "0x608060405263019bfcc0600955620186a0600a55610187600d553480156200002657600080fd5b5060405162002c1e38038062002c1e83398181016040528101906200004c919062000297565b6040518060400160405280600881526020017f57617272696f72730000000000000000000000000000000000000000000000008152506040518060400160405280600381526020017f57525400000000000000000000000000000000000000000000000000000000008152508160009080519060200190620000d0929190620001d0565b508060019080519060200190620000e9929190620001d0565b505050620001207fcc599624320f4d60b0b25da1b6189aa8ed00cd46c9c4c66b871f691e7a77e8a960001b620001ca60201b60201c565b620001547ffb85bf63933d758d6116dcac2571fcb49bb6ad5051db2847dc35d3a5a71652fc60001b620001cd60201b60201c565b620001887f3dfa11ab29fde1a34bfac235506f9d12a2b589f5536b1f444c5a192d1448112d60001b620001cd60201b60201c565b620001bc7faa285f8facfdfc78994fcb15af25da55345df6371da2b4a2d34497b606c4ab6260001b620001cd60201b60201c565b80600b819055505062000357565b50565b50565b828054620001de90620002d3565b90600052602060002090601f0160209004810192826200020257600085556200024e565b82601f106200021d57805160ff19168380011785556200024e565b828001600101855582156200024e579182015b828111156200024d57825182559160200191906001019062000230565b5b5090506200025d919062000261565b5090565b5b808211156200027c57600081600090555060010162000262565b5090565b60008151905062000291816200033d565b92915050565b600060208284031215620002b057620002af62000338565b5b6000620002c08482850162000280565b91505092915050565b6000819050919050565b60006002820490506001821680620002ec57607f821691505b6020821081141562000303576200030262000309565b5b50919050565b7f4e487b7100000000000000000000000000000000000000000000000000000000600052602260045260246000fd5b600080fd5b6200034881620002c9565b81146200035457600080fd5b50565b6128b780620003676000396000f3fe608060405234801561001057600080fd5b50600436106101735760003560e01c80636bba6c28116100de578063aaf5eb6811610097578063c4ffe2f411610071578063c4ffe2f41461044e578063c87b56dd1461046a578063d0b96ef91461049a578063e985e9c5146104b857610173565b8063aaf5eb68146103f6578063ad4ae8c314610414578063b88d4fde1461043257610173565b80636bba6c281461032257806370a0823114610340578063720c6433146103705780639422ee781461038c57806395d89b41146103bc578063a22cb465146103da57610173565b806323b872dd1161013057806323b872dd1461024e57806329372ad01461026a57806342842e0e1461029a5780634787dc65146102b65780636352211e146102d45780636ae8f7371461030457610173565b8063014f25ab1461017857806301ffc9a71461019657806306fdde03146101c6578063081812fc146101e4578063095ea7b31461021457806317729a8214610230575b600080fd5b6101806104e8565b60405161018d919061203b565b60405180910390f35b6101b060048036038101906101ab9190611ab5565b6104ed565b6040516101bd9190611e5e565b60405180910390f35b6101ce6105cf565b6040516101db9190611e79565b60405180910390f35b6101fe60048036038101906101f99190611b0f565b610661565b60405161020b9190611df7565b60405180910390f35b61022e60048036038101906102299190611a48565b6106e6565b005b6102386107fe565b604051610245919061203b565b60405180910390f35b61026860048036038101906102639190611932565b610804565b005b610284600480360381019061027f9190611b0f565b610864565b604051610291919061203b565b60405180910390f35b6102b460048036038101906102af9190611932565b6109f9565b005b6102be610a19565b6040516102cb919061203b565b60405180910390f35b6102ee60048036038101906102e99190611b0f565b610a1f565b6040516102fb9190611df7565b60405180910390f35b61030c610ad1565b604051610319919061203b565b60405180910390f35b61032a610ad7565b604051610337919061203b565b60405180910390f35b61035a600480360381019061035591906118c5565b610add565b604051610367919061203b565b60405180910390f35b61038a60048036038101906103859190611a88565b610b95565b005b6103a660048036038101906103a19190611b0f565b610b98565b6040516103b39190611e5e565b60405180910390f35b6103c4610bb8565b6040516103d19190611e79565b60405180910390f35b6103f460048036038101906103ef9190611a08565b610c4a565b005b6103fe610dcb565b60405161040b919061203b565b60405180910390f35b61041c610dd7565b604051610429919061203b565b60405180910390f35b61044c60048036038101906104479190611985565b610ddd565b005b61046860048036038101906104639190611a88565b610e3f565b005b610484600480360381019061047f9190611b0f565b610e42565b6040516104919190611e79565b60405180910390f35b6104a2610ee9565b6040516104af919061203b565b60405180910390f35b6104d260048036038101906104cd91906118f2565b610eef565b6040516104df9190611e5e565b60405180910390f35b606481565b60007f80ac58cd000000000000000000000000000000000000000000000000000000007bffffffffffffffffffffffffffffffffffffffffffffffffffffffff1916827bffffffffffffffffffffffffffffffffffffffffffffffffffffffff191614806105b857507f5b5e139f000000000000000000000000000000000000000000000000000000007bffffffffffffffffffffffffffffffffffffffffffffffffffffffff1916827bffffffffffffffffffffffffffffffffffffffffffffffffffffffff1916145b806105c857506105c782610f83565b5b9050919050565b6060600080546105de9061226a565b80601f016020809104026020016040519081016040528092919081815260200182805461060a9061226a565b80156106575780601f1061062c57610100808354040283529160200191610657565b820191906000526020600020905b81548152906001019060200180831161063a57829003601f168201915b5050505050905090565b600061066c82610fed565b6106ab576040517f08c379a00000000000000000000000000000000000000000000000000000000081526004016106a290611f7b565b60405180910390fd5b6004600083815260200190815260200160002060009054906101000a900473ffffffffffffffffffffffffffffffffffffffff169050919050565b60006106f182610a1f565b90508073ffffffffffffffffffffffffffffffffffffffff168373ffffffffffffffffffffffffffffffffffffffff161415610762576040517f08c379a000000000000000000000000000000000000000000000000000000000815260040161075990611fdb565b60405180910390fd5b8073ffffffffffffffffffffffffffffffffffffffff16610781611059565b73ffffffffffffffffffffffffffffffffffffffff1614806107b057506107af816107aa611059565b610eef565b5b6107ef576040517f08c379a00000000000000000000000000000000000000000000000000000000081526004016107e690611f1b565b60405180910390fd5b6107f98383611061565b505050565b60095481565b61081561080f611059565b8261111a565b610854576040517f08c379a000000000000000000000000000000000000000000000000000000000815260040161084b90611ffb565b60405180910390fd5b61085f8383836111f8565b505050565b60006108927fdc812eaf3fd1ffdd10f76c43f40531b24d33400ed9389a507fa062e12527f33a60001b610b95565b6108be7f8989a1aff5a2c430389633e17b896d4eefdae942389dcc1544b2afdd012f0fe560001b610b95565b6108ea7f701b02f0cf66b6e2fca5c2fb1adac3753e4da98e99b3502bf23c2709f5564c3060001b610b95565b6006600083815260200190815260200160002054905061092c7fd31bf1c5716c4a6ca75f25ca6e350b873fa7be868ad0309b7c687682173421df60001b610b95565b6109587fce366b246e97a55c905a7c522441332ae97f8ea55041f67d802dd4c26221c17e60001b610b95565b6109847f53d140ff8342cf9c52b0dfb58cb6973e538ca0d6f2fa976b67ab5f7e86dc4c3460001b610b95565b60008114156109c8576040517f08c379a00000000000000000000000000000000000000000000000000000000081526004016109bf9061201b565b60405180910390fd5b6109f47fa7a2e4c23a5bd1924ab2683eb3e88b4ef9ba8f3356782e6594846e530bd4c94660001b610b95565b919050565b610a1483838360405180602001604052806000815250610ddd565b505050565b600b5481565b6000806002600084815260200190815260200160002060009054906101000a900473ffffffffffffffffffffffffffffffffffffffff169050600073ffffffffffffffffffffffffffffffffffffffff168173ffffffffffffffffffffffffffffffffffffffff161415610ac8576040517f08c379a0000000000000000000000000000000000000000000000000000000008152600401610abf90611f5b565b60405180910390fd5b80915050919050565b600c5481565b600a5481565b60008073ffffffffffffffffffffffffffffffffffffffff168273ffffffffffffffffffffffffffffffffffffffff161415610b4e576040517f08c379a0000000000000000000000000000000000000000000000000000000008152600401610b4590611f3b565b60405180910390fd5b600360008373ffffffffffffffffffffffffffffffffffffffff1673ffffffffffffffffffffffffffffffffffffffff168152602001908152602001600020549050919050565b50565b60076020528060005260406000206000915054906101000a900460ff1681565b606060018054610bc79061226a565b80601f0160208091040260200160405190810160405280929190818152602001828054610bf39061226a565b8015610c405780601f10610c1557610100808354040283529160200191610c40565b820191906000526020600020905b815481529060010190602001808311610c2357829003601f168201915b5050505050905090565b610c52611059565b73ffffffffffffffffffffffffffffffffffffffff168273ffffffffffffffffffffffffffffffffffffffff161415610cc0576040517f08c379a0000000000000000000000000000000000000000000000000000000008152600401610cb790611edb565b60405180910390fd5b8060056000610ccd611059565b73ffffffffffffffffffffffffffffffffffffffff1673ffffffffffffffffffffffffffffffffffffffff16815260200190815260200160002060008473ffffffffffffffffffffffffffffffffffffffff1673ffffffffffffffffffffffffffffffffffffffff16815260200190815260200160002060006101000a81548160ff0219169083151502179055508173ffffffffffffffffffffffffffffffffffffffff16610d7a611059565b73ffffffffffffffffffffffffffffffffffffffff167f17307eab39ab6107e8899845ad3d59bd9653f200f220920489ca2b5937696c3183604051610dbf9190611e5e565b60405180910390a35050565b670de0b6b3a764000081565b600d5481565b610dee610de8611059565b8361111a565b610e2d576040517f08c379a0000000000000000000000000000000000000000000000000000000008152600401610e2490611ffb565b60405180910390fd5b610e3984848484611454565b50505050565b50565b6060610e4d82610fed565b610e8c576040517f08c379a0000000000000000000000000000000000000000000000000000000008152600401610e8390611fbb565b60405180910390fd5b6000610e966114b0565b90506000815111610eb65760405180602001604052806000815250610ee1565b80610ec0846114c7565b604051602001610ed1929190611dd3565b6040516020818303038152906040525b915050919050565b60085481565b6000600560008473ffffffffffffffffffffffffffffffffffffffff1673ffffffffffffffffffffffffffffffffffffffff16815260200190815260200160002060008373ffffffffffffffffffffffffffffffffffffffff1673ffffffffffffffffffffffffffffffffffffffff16815260200190815260200160002060009054906101000a900460ff16905092915050565b60007f01ffc9a7000000000000000000000000000000000000000000000000000000007bffffffffffffffffffffffffffffffffffffffffffffffffffffffff1916827bffffffffffffffffffffffffffffffffffffffffffffffffffffffff1916149050919050565b60008073ffffffffffffffffffffffffffffffffffffffff166002600084815260200190815260200160002060009054906101000a900473ffffffffffffffffffffffffffffffffffffffff1673ffffffffffffffffffffffffffffffffffffffff1614159050919050565b600033905090565b816004600083815260200190815260200160002060006101000a81548173ffffffffffffffffffffffffffffffffffffffff021916908373ffffffffffffffffffffffffffffffffffffffff160217905550808273ffffffffffffffffffffffffffffffffffffffff166110d483610a1f565b73ffffffffffffffffffffffffffffffffffffffff167f8c5be1e5ebec7d5bd14f71427d1e84f3dd0314c0f7b2291e5b200ac8c7c3b92560405160405180910390a45050565b600061112582610fed565b611164576040517f08c379a000000000000000000000000000000000000000000000000000000000815260040161115b90611efb565b60405180910390fd5b600061116f83610a1f565b90508073ffffffffffffffffffffffffffffffffffffffff168473ffffffffffffffffffffffffffffffffffffffff1614806111de57508373ffffffffffffffffffffffffffffffffffffffff166111c684610661565b73ffffffffffffffffffffffffffffffffffffffff16145b806111ef57506111ee8185610eef565b5b91505092915050565b8273ffffffffffffffffffffffffffffffffffffffff1661121882610a1f565b73ffffffffffffffffffffffffffffffffffffffff161461126e576040517f08c379a000000000000000000000000000000000000000000000000000000000815260040161126590611f9b565b60405180910390fd5b600073ffffffffffffffffffffffffffffffffffffffff168273ffffffffffffffffffffffffffffffffffffffff1614156112de576040517f08c379a00000000000000000000000000000000000000000000000000000000081526004016112d590611ebb565b60405180910390fd5b6112e9838383611628565b6112f4600082611061565b6001600360008573ffffffffffffffffffffffffffffffffffffffff1673ffffffffffffffffffffffffffffffffffffffff16815260200190815260200160002060008282546113449190612176565b925050819055506001600360008473ffffffffffffffffffffffffffffffffffffffff1673ffffffffffffffffffffffffffffffffffffffff168152602001908152602001600020600082825461139b91906120ef565b92505081905550816002600083815260200190815260200160002060006101000a81548173ffffffffffffffffffffffffffffffffffffffff021916908373ffffffffffffffffffffffffffffffffffffffff160217905550808273ffffffffffffffffffffffffffffffffffffffff168473ffffffffffffffffffffffffffffffffffffffff167fddf252ad1be2c89b69c2b068fc378daa952ba7f163c4a11628f55a4df523b3ef60405160405180910390a4505050565b61145f8484846111f8565b61146b8484848461162d565b6114aa576040517f08c379a00000000000000000000000000000000000000000000000000000000081526004016114a190611e9b565b60405180910390fd5b50505050565b606060405180602001604052806000815250905090565b6060600082141561150f576040518060400160405280600181526020017f30000000000000000000000000000000000000000000000000000000000000008152509050611623565b600082905060005b6000821461154157808061152a906122cd565b915050600a8261153a9190612145565b9150611517565b60008167ffffffffffffffff81111561155d5761155c612403565b5b6040519080825280601f01601f19166020018201604052801561158f5781602001600182028036833780820191505090505b5090505b6000851461161c576001826115a89190612176565b9150600a856115b79190612316565b60306115c391906120ef565b60f81b8183815181106115d9576115d86123d4565b5b60200101907effffffffffffffffffffffffffffffffffffffffffffffffffffffffffffff1916908160001a905350600a856116159190612145565b9450611593565b8093505050505b919050565b505050565b600061164e8473ffffffffffffffffffffffffffffffffffffffff166117c4565b156117b7578373ffffffffffffffffffffffffffffffffffffffff1663150b7a02611677611059565b8786866040518563ffffffff1660e01b81526004016116999493929190611e12565b602060405180830381600087803b1580156116b357600080fd5b505af19250505080156116e457506040513d601f19601f820116820180604052508101906116e19190611ae2565b60015b611767573d8060008114611714576040519150601f19603f3d011682016040523d82523d6000602084013e611719565b606091505b5060008151141561175f576040517f08c379a000000000000000000000000000000000000000000000000000000000815260040161175690611e9b565b60405180910390fd5b805181602001fd5b63150b7a0260e01b7bffffffffffffffffffffffffffffffffffffffffffffffffffffffff1916817bffffffffffffffffffffffffffffffffffffffffffffffffffffffff1916149150506117bc565b600190505b949350505050565b600080823b905060008111915050919050565b60006117ea6117e58461207b565b612056565b90508281526020810184848401111561180657611805612437565b5b611811848285612228565b509392505050565b6000813590506118288161280e565b92915050565b60008135905061183d81612825565b92915050565b6000813590506118528161283c565b92915050565b60008135905061186781612853565b92915050565b60008151905061187c81612853565b92915050565b600082601f83011261189757611896612432565b5b81356118a78482602086016117d7565b91505092915050565b6000813590506118bf8161286a565b92915050565b6000602082840312156118db576118da612441565b5b60006118e984828501611819565b91505092915050565b6000806040838503121561190957611908612441565b5b600061191785828601611819565b925050602061192885828601611819565b9150509250929050565b60008060006060848603121561194b5761194a612441565b5b600061195986828701611819565b935050602061196a86828701611819565b925050604061197b868287016118b0565b9150509250925092565b6000806000806080858703121561199f5761199e612441565b5b60006119ad87828801611819565b94505060206119be87828801611819565b93505060406119cf878288016118b0565b925050606085013567ffffffffffffffff8111156119f0576119ef61243c565b5b6119fc87828801611882565b91505092959194509250565b60008060408385031215611a1f57611a1e612441565b5b6000611a2d85828601611819565b9250506020611a3e8582860161182e565b9150509250929050565b60008060408385031215611a5f57611a5e612441565b5b6000611a6d85828601611819565b9250506020611a7e858286016118b0565b9150509250929050565b600060208284031215611a9e57611a9d612441565b5b6000611aac84828501611843565b91505092915050565b600060208284031215611acb57611aca612441565b5b6000611ad984828501611858565b91505092915050565b600060208284031215611af857611af7612441565b5b6000611b068482850161186d565b91505092915050565b600060208284031215611b2557611b24612441565b5b6000611b33848285016118b0565b91505092915050565b611b45816121aa565b82525050565b611b54816121bc565b82525050565b6000611b65826120ac565b611b6f81856120c2565b9350611b7f818560208601612237565b611b8881612446565b840191505092915050565b6000611b9e826120b7565b611ba881856120d3565b9350611bb8818560208601612237565b611bc181612446565b840191505092915050565b6000611bd7826120b7565b611be181856120e4565b9350611bf1818560208601612237565b80840191505092915050565b6000611c0a6032836120d3565b9150611c1582612457565b604082019050919050565b6000611c2d6024836120d3565b9150611c38826124a6565b604082019050919050565b6000611c506019836120d3565b9150611c5b826124f5565b602082019050919050565b6000611c73602c836120d3565b9150611c7e8261251e565b604082019050919050565b6000611c966038836120d3565b9150611ca18261256d565b604082019050919050565b6000611cb9602a836120d3565b9150611cc4826125bc565b604082019050919050565b6000611cdc6029836120d3565b9150611ce78261260b565b604082019050919050565b6000611cff602c836120d3565b9150611d0a8261265a565b604082019050919050565b6000611d226029836120d3565b9150611d2d826126a9565b604082019050919050565b6000611d45602f836120d3565b9150611d50826126f8565b604082019050919050565b6000611d686021836120d3565b9150611d7382612747565b604082019050919050565b6000611d8b6031836120d3565b9150611d9682612796565b604082019050919050565b6000611dae6020836120d3565b9150611db9826127e5565b602082019050919050565b611dcd8161221e565b82525050565b6000611ddf8285611bcc565b9150611deb8284611bcc565b91508190509392505050565b6000602082019050611e0c6000830184611b3c565b92915050565b6000608082019050611e276000830187611b3c565b611e346020830186611b3c565b611e416040830185611dc4565b8181036060830152611e538184611b5a565b905095945050505050565b6000602082019050611e736000830184611b4b565b92915050565b60006020820190508181036000830152611e938184611b93565b905092915050565b60006020820190508181036000830152611eb481611bfd565b9050919050565b60006020820190508181036000830152611ed481611c20565b9050919050565b60006020820190508181036000830152611ef481611c43565b9050919050565b60006020820190508181036000830152611f1481611c66565b9050919050565b60006020820190508181036000830152611f3481611c89565b9050919050565b60006020820190508181036000830152611f5481611cac565b9050919050565b60006020820190508181036000830152611f7481611ccf565b9050919050565b60006020820190508181036000830152611f9481611cf2565b9050919050565b60006020820190508181036000830152611fb481611d15565b9050919050565b60006020820190508181036000830152611fd481611d38565b9050919050565b60006020820190508181036000830152611ff481611d5b565b9050919050565b6000602082019050818103600083015261201481611d7e565b9050919050565b6000602082019050818103600083015261203481611da1565b9050919050565b60006020820190506120506000830184611dc4565b92915050565b6000612060612071565b905061206c828261229c565b919050565b6000604051905090565b600067ffffffffffffffff82111561209657612095612403565b5b61209f82612446565b9050602081019050919050565b600081519050919050565b600081519050919050565b600082825260208201905092915050565b600082825260208201905092915050565b600081905092915050565b60006120fa8261221e565b91506121058361221e565b9250827fffffffffffffffffffffffffffffffffffffffffffffffffffffffffffffffff0382111561213a57612139612347565b5b828201905092915050565b60006121508261221e565b915061215b8361221e565b92508261216b5761216a612376565b5b828204905092915050565b60006121818261221e565b915061218c8361221e565b92508282101561219f5761219e612347565b5b828203905092915050565b60006121b5826121fe565b9050919050565b60008115159050919050565b6000819050919050565b60007fffffffff0000000000000000000000000000000000000000000000000000000082169050919050565b600073ffffffffffffffffffffffffffffffffffffffff82169050919050565b6000819050919050565b82818337600083830152505050565b60005b8381101561225557808201518184015260208101905061223a565b83811115612264576000848401525b50505050565b6000600282049050600182168061228257607f821691505b60208210811415612296576122956123a5565b5b50919050565b6122a582612446565b810181811067ffffffffffffffff821117156122c4576122c3612403565b5b80604052505050565b60006122d88261221e565b91507fffffffffffffffffffffffffffffffffffffffffffffffffffffffffffffffff82141561230b5761230a612347565b5b600182019050919050565b60006123218261221e565b915061232c8361221e565b92508261233c5761233b612376565b5b828206905092915050565b7f4e487b7100000000000000000000000000000000000000000000000000000000600052601160045260246000fd5b7f4e487b7100000000000000000000000000000000000000000000000000000000600052601260045260246000fd5b7f4e487b7100000000000000000000000000000000000000000000000000000000600052602260045260246000fd5b7f4e487b7100000000000000000000000000000000000000000000000000000000600052603260045260246000fd5b7f4e487b7100000000000000000000000000000000000000000000000000000000600052604160045260246000fd5b600080fd5b600080fd5b600080fd5b600080fd5b6000601f19601f8301169050919050565b7f4552433732313a207472616e7366657220746f206e6f6e20455243373231526560008201527f63656976657220696d706c656d656e7465720000000000000000000000000000602082015250565b7f4552433732313a207472616e7366657220746f20746865207a65726f2061646460008201527f7265737300000000000000000000000000000000000000000000000000000000602082015250565b7f4552433732313a20617070726f766520746f2063616c6c657200000000000000600082015250565b7f4552433732313a206f70657261746f7220717565727920666f72206e6f6e657860008201527f697374656e7420746f6b656e0000000000000000000000000000000000000000602082015250565b7f4552433732313a20617070726f76652063616c6c6572206973206e6f74206f7760008201527f6e6572206e6f7220617070726f76656420666f7220616c6c0000000000000000602082015250565b7f4552433732313a2062616c616e636520717565727920666f7220746865207a6560008201527f726f206164647265737300000000000000000000000000000000000000000000602082015250565b7f4552433732313a206f776e657220717565727920666f72206e6f6e657869737460008201527f656e7420746f6b656e0000000000000000000000000000000000000000000000602082015250565b7f4552433732313a20617070726f76656420717565727920666f72206e6f6e657860008201527f697374656e7420746f6b656e0000000000000000000000000000000000000000602082015250565b7f4552433732313a207472616e73666572206f6620746f6b656e2074686174206960008201527f73206e6f74206f776e0000000000000000000000000000000000000000000000602082015250565b7f4552433732314d657461646174613a2055524920717565727920666f72206e6f60008201527f6e6578697374656e7420746f6b656e0000000000000000000000000000000000602082015250565b7f4552433732313a20617070726f76616c20746f2063757272656e74206f776e6560008201527f7200000000000000000000000000000000000000000000000000000000000000602082015250565b7f4552433732313a207472616e736665722063616c6c6572206973206e6f74206f60008201527f776e6572206e6f7220617070726f766564000000000000000000000000000000602082015250565b7f57617272696f72733a2077617272696f7220646f6573206e6f74206578697374600082015250565b612817816121aa565b811461282257600080fd5b50565b61282e816121bc565b811461283957600080fd5b50565b612845816121c8565b811461285057600080fd5b50565b61285c816121d2565b811461286757600080fd5b50565b6128738161221e565b811461287e57600080fd5b5056fea2646970667358221220e09ff1bfb4f2105161d395ae0ed99bd398ce6a65c2832d74849cea7d4e2e4f6b64736f6c63430008060033",
  "linkReferences": {},
  "deployedLinkReferences": {}
}