{
  "_format": "hh-sol-artifact-1",
  "contractName": "Warriors",
  "sourceName": "contracts/Warriors.sol",
  "abi": [
    {
      "inputs": [],
      "stateMutability": "nonpayable",
      "type": "constructor"
    },
    {
      "anonymous": false,
      "inputs": [
        {
          "indexed": true,
          "internalType": "address",
          "name": "owner",
          "type": "address"
        },
        {
          "indexed": true,
          "internalType": "address",
          "name": "approved",
          "type": "address"
        },
        {
          "indexed": true,
          "internalType": "uint256",
          "name": "tokenId",
          "type": "uint256"
        }
      ],
      "name": "Approval",
      "type": "event"
    },
    {
      "anonymous": false,
      "inputs": [
        {
          "indexed": true,
          "internalType": "address",
          "name": "owner",
          "type": "address"
        },
        {
          "indexed": true,
          "internalType": "address",
          "name": "operator",
          "type": "address"
        },
        {
          "indexed": false,
          "internalType": "bool",
          "name": "approved",
          "type": "bool"
        }
      ],
      "name": "ApprovalForAll",
      "type": "event"
    },
    {
      "anonymous": false,
      "inputs": [
        {
          "indexed": true,
          "internalType": "address",
          "name": "from",
          "type": "address"
        },
        {
          "indexed": true,
          "internalType": "address",
          "name": "to",
          "type": "address"
        },
        {
          "indexed": true,
          "internalType": "uint256",
          "name": "tokenId",
          "type": "uint256"
        }
      ],
      "name": "Transfer",
      "type": "event"
    },
    {
      "anonymous": false,
      "inputs": [
        {
          "indexed": true,
          "internalType": "address",
          "name": "owner",
          "type": "address"
        },
        {
          "indexed": true,
          "internalType": "uint256",
          "name": "warriorId",
          "type": "uint256"
        }
      ],
      "name": "WarriorGenerated",
      "type": "event"
    },
    {
      "inputs": [
        {
          "internalType": "address",
          "name": "to",
          "type": "address"
        },
        {
          "internalType": "uint256",
          "name": "tokenId",
          "type": "uint256"
        }
      ],
      "name": "approve",
      "outputs": [],
      "stateMutability": "nonpayable",
      "type": "function"
    },
    {
      "inputs": [
        {
          "internalType": "address",
          "name": "owner",
          "type": "address"
        }
      ],
      "name": "balanceOf",
      "outputs": [
        {
          "internalType": "uint256",
          "name": "",
          "type": "uint256"
        }
      ],
      "stateMutability": "view",
      "type": "function"
    },
    {
      "inputs": [
        {
          "internalType": "bytes32",
          "name": "c__0xd1105804",
          "type": "bytes32"
        }
      ],
      "name": "c_0xd1105804",
      "outputs": [],
      "stateMutability": "pure",
      "type": "function"
    },
    {
      "inputs": [
        {
          "internalType": "uint256",
          "name": "tokenId",
          "type": "uint256"
        }
      ],
      "name": "getApproved",
      "outputs": [
        {
          "internalType": "address",
          "name": "",
          "type": "address"
        }
      ],
      "stateMutability": "view",
      "type": "function"
    },
    {
      "inputs": [
        {
          "internalType": "uint256",
          "name": "_warriorId",
          "type": "uint256"
        }
      ],
      "name": "getWarrior",
      "outputs": [
        {
          "internalType": "uint256",
          "name": "warrior",
          "type": "uint256"
        }
      ],
      "stateMutability": "view",
      "type": "function"
    },
    {
      "inputs": [
        {
          "internalType": "address",
          "name": "owner",
          "type": "address"
        },
        {
          "internalType": "address",
          "name": "operator",
          "type": "address"
        }
      ],
      "name": "isApprovedForAll",
      "outputs": [
        {
          "internalType": "bool",
          "name": "",
          "type": "bool"
        }
      ],
      "stateMutability": "view",
      "type": "function"
    },
    {
      "inputs": [
        {
          "internalType": "uint256",
          "name": "",
          "type": "uint256"
        }
      ],
      "name": "isGeneUsed",
      "outputs": [
        {
          "internalType": "bool",
          "name": "",
          "type": "bool"
        }
      ],
      "stateMutability": "view",
      "type": "function"
    },
    {
      "inputs": [],
      "name": "name",
      "outputs": [
        {
          "internalType": "string",
          "name": "",
          "type": "string"
        }
      ],
      "stateMutability": "view",
      "type": "function"
    },
    {
      "inputs": [
        {
          "internalType": "uint256",
          "name": "tokenId",
          "type": "uint256"
        }
      ],
      "name": "ownerOf",
      "outputs": [
        {
          "internalType": "address",
          "name": "",
          "type": "address"
        }
      ],
      "stateMutability": "view",
      "type": "function"
    },
    {
      "inputs": [
        {
          "internalType": "address",
          "name": "from",
          "type": "address"
        },
        {
          "internalType": "address",
          "name": "to",
          "type": "address"
        },
        {
          "internalType": "uint256",
          "name": "tokenId",
          "type": "uint256"
        }
      ],
      "name": "safeTransferFrom",
      "outputs": [],
      "stateMutability": "nonpayable",
      "type": "function"
    },
    {
      "inputs": [
        {
          "internalType": "address",
          "name": "from",
          "type": "address"
        },
        {
          "internalType": "address",
          "name": "to",
          "type": "address"
        },
        {
          "internalType": "uint256",
          "name": "tokenId",
          "type": "uint256"
        },
        {
          "internalType": "bytes",
          "name": "_data",
          "type": "bytes"
        }
      ],
      "name": "safeTransferFrom",
      "outputs": [],
      "stateMutability": "nonpayable",
      "type": "function"
    },
    {
      "inputs": [
        {
          "internalType": "address",
          "name": "operator",
          "type": "address"
        },
        {
          "internalType": "bool",
          "name": "approved",
          "type": "bool"
        }
      ],
      "name": "setApprovalForAll",
      "outputs": [],
      "stateMutability": "nonpayable",
      "type": "function"
    },
    {
      "inputs": [
        {
          "internalType": "bytes4",
          "name": "interfaceId",
          "type": "bytes4"
        }
      ],
      "name": "supportsInterface",
      "outputs": [
        {
          "internalType": "bool",
          "name": "",
          "type": "bool"
        }
      ],
      "stateMutability": "view",
      "type": "function"
    },
    {
      "inputs": [],
      "name": "symbol",
      "outputs": [
        {
          "internalType": "string",
          "name": "",
          "type": "string"
        }
      ],
      "stateMutability": "view",
      "type": "function"
    },
    {
      "inputs": [
        {
          "internalType": "uint256",
          "name": "tokenId",
          "type": "uint256"
        }
      ],
      "name": "tokenURI",
      "outputs": [
        {
          "internalType": "string",
          "name": "",
          "type": "string"
        }
      ],
      "stateMutability": "view",
      "type": "function"
    },
    {
      "inputs": [
        {
          "internalType": "address",
          "name": "from",
          "type": "address"
        },
        {
          "internalType": "address",
          "name": "to",
          "type": "address"
        },
        {
          "internalType": "uint256",
          "name": "tokenId",
          "type": "uint256"
        }
      ],
      "name": "transferFrom",
      "outputs": [],
      "stateMutability": "nonpayable",
      "type": "function"
    },
    {
      "inputs": [],
      "name": "warriorCounter",
      "outputs": [
        {
          "internalType": "uint256",
          "name": "",
          "type": "uint256"
        }
      ],
      "stateMutability": "view",
      "type": "function"
    }
  ],
  "bytecode": "0x60806040523480156200001157600080fd5b506040518060400160405280600881526020017f57617272696f72730000000000000000000000000000000000000000000000008152506040518060400160405280600381526020017f5752540000000000000000000000000000000000000000000000000000000000815250816000908051906020019062000096929190620000ef565b508060019080519060200190620000af929190620000ef565b505050620000e67fcc599624320f4d60b0b25da1b6189aa8ed00cd46c9c4c66b871f691e7a77e8a960001b620000ec60201b60201c565b62000204565b50565b828054620000fd906200019f565b90600052602060002090601f0160209004810192826200012157600085556200016d565b82601f106200013c57805160ff19168380011785556200016d565b828001600101855582156200016d579182015b828111156200016c5782518255916020019190600101906200014f565b5b5090506200017c919062000180565b5090565b5b808211156200019b57600081600090555060010162000181565b5090565b60006002820490506001821680620001b857607f821691505b60208210811415620001cf57620001ce620001d5565b5b50919050565b7f4e487b7100000000000000000000000000000000000000000000000000000000600052602260045260246000fd5b61272f80620002146000396000f3fe608060405234801561001057600080fd5b506004361061010b5760003560e01c806370a08231116100a2578063a22cb46511610071578063a22cb465146102dc578063b88d4fde146102f8578063c87b56dd14610314578063d0b96ef914610344578063e985e9c5146103625761010b565b806370a0823114610242578063720c6433146102725780639422ee781461028e57806395d89b41146102be5761010b565b806323b872dd116100de57806323b872dd146101aa57806329372ad0146101c657806342842e0e146101f65780636352211e146102125761010b565b806301ffc9a71461011057806306fdde0314610140578063081812fc1461015e578063095ea7b31461018e575b600080fd5b61012a6004803603810190610125919061192d565b610392565b6040516101379190611cd6565b60405180910390f35b610148610474565b6040516101559190611cf1565b60405180910390f35b61017860048036038101906101739190611987565b610506565b6040516101859190611c6f565b60405180910390f35b6101a860048036038101906101a391906118c0565b61058b565b005b6101c460048036038101906101bf91906117aa565b6106a3565b005b6101e060048036038101906101db9190611987565b610703565b6040516101ed9190611eb3565b60405180910390f35b610210600480360381019061020b91906117aa565b610898565b005b61022c60048036038101906102279190611987565b6108b8565b6040516102399190611c6f565b60405180910390f35b61025c6004803603810190610257919061173d565b61096a565b6040516102699190611eb3565b60405180910390f35b61028c60048036038101906102879190611900565b610a22565b005b6102a860048036038101906102a39190611987565b610a25565b6040516102b59190611cd6565b60405180910390f35b6102c6610a45565b6040516102d39190611cf1565b60405180910390f35b6102f660048036038101906102f19190611880565b610ad7565b005b610312600480360381019061030d91906117fd565b610c58565b005b61032e60048036038101906103299190611987565b610cba565b60405161033b9190611cf1565b60405180910390f35b61034c610d61565b6040516103599190611eb3565b60405180910390f35b61037c6004803603810190610377919061176a565b610d67565b6040516103899190611cd6565b60405180910390f35b60007f80ac58cd000000000000000000000000000000000000000000000000000000007bffffffffffffffffffffffffffffffffffffffffffffffffffffffff1916827bffffffffffffffffffffffffffffffffffffffffffffffffffffffff1916148061045d57507f5b5e139f000000000000000000000000000000000000000000000000000000007bffffffffffffffffffffffffffffffffffffffffffffffffffffffff1916827bffffffffffffffffffffffffffffffffffffffffffffffffffffffff1916145b8061046d575061046c82610dfb565b5b9050919050565b606060008054610483906120e2565b80601f01602080910402602001604051908101604052809291908181526020018280546104af906120e2565b80156104fc5780601f106104d1576101008083540402835291602001916104fc565b820191906000526020600020905b8154815290600101906020018083116104df57829003601f168201915b5050505050905090565b600061051182610e65565b610550576040517f08c379a000000000000000000000000000000000000000000000000000000000815260040161054790611df3565b60405180910390fd5b6004600083815260200190815260200160002060009054906101000a900473ffffffffffffffffffffffffffffffffffffffff169050919050565b6000610596826108b8565b90508073ffffffffffffffffffffffffffffffffffffffff168373ffffffffffffffffffffffffffffffffffffffff161415610607576040517f08c379a00000000000000000000000000000000000000000000000000000000081526004016105fe90611e53565b60405180910390fd5b8073ffffffffffffffffffffffffffffffffffffffff16610626610ed1565b73ffffffffffffffffffffffffffffffffffffffff16148061065557506106548161064f610ed1565b610d67565b5b610694576040517f08c379a000000000000000000000000000000000000000000000000000000000815260040161068b90611d93565b60405180910390fd5b61069e8383610ed9565b505050565b6106b46106ae610ed1565b82610f92565b6106f3576040517f08c379a00000000000000000000000000000000000000000000000000000000081526004016106ea90611e73565b60405180910390fd5b6106fe838383611070565b505050565b60006107317fdc812eaf3fd1ffdd10f76c43f40531b24d33400ed9389a507fa062e12527f33a60001b610a22565b61075d7f8989a1aff5a2c430389633e17b896d4eefdae942389dcc1544b2afdd012f0fe560001b610a22565b6107897f701b02f0cf66b6e2fca5c2fb1adac3753e4da98e99b3502bf23c2709f5564c3060001b610a22565b600660008381526020019081526020016000205490506107cb7fd31bf1c5716c4a6ca75f25ca6e350b873fa7be868ad0309b7c687682173421df60001b610a22565b6107f77fce366b246e97a55c905a7c522441332ae97f8ea55041f67d802dd4c26221c17e60001b610a22565b6108237f53d140ff8342cf9c52b0dfb58cb6973e538ca0d6f2fa976b67ab5f7e86dc4c3460001b610a22565b6000811415610867576040517f08c379a000000000000000000000000000000000000000000000000000000000815260040161085e90611e93565b60405180910390fd5b6108937fa7a2e4c23a5bd1924ab2683eb3e88b4ef9ba8f3356782e6594846e530bd4c94660001b610a22565b919050565b6108b383838360405180602001604052806000815250610c58565b505050565b6000806002600084815260200190815260200160002060009054906101000a900473ffffffffffffffffffffffffffffffffffffffff169050600073ffffffffffffffffffffffffffffffffffffffff168173ffffffffffffffffffffffffffffffffffffffff161415610961576040517f08c379a000000000000000000000000000000000000000000000000000000000815260040161095890611dd3565b60405180910390fd5b80915050919050565b60008073ffffffffffffffffffffffffffffffffffffffff168273ffffffffffffffffffffffffffffffffffffffff1614156109db576040517f08c379a00000000000000000000000000000000000000000000000000000000081526004016109d290611db3565b60405180910390fd5b600360008373ffffffffffffffffffffffffffffffffffffffff1673ffffffffffffffffffffffffffffffffffffffff168152602001908152602001600020549050919050565b50565b60076020528060005260406000206000915054906101000a900460ff1681565b606060018054610a54906120e2565b80601f0160208091040260200160405190810160405280929190818152602001828054610a80906120e2565b8015610acd5780601f10610aa257610100808354040283529160200191610acd565b820191906000526020600020905b815481529060010190602001808311610ab057829003601f168201915b5050505050905090565b610adf610ed1565b73ffffffffffffffffffffffffffffffffffffffff168273ffffffffffffffffffffffffffffffffffffffff161415610b4d576040517f08c379a0000000000000000000000000000000000000000000000000000000008152600401610b4490611d53565b60405180910390fd5b8060056000610b5a610ed1565b73ffffffffffffffffffffffffffffffffffffffff1673ffffffffffffffffffffffffffffffffffffffff16815260200190815260200160002060008473ffffffffffffffffffffffffffffffffffffffff1673ffffffffffffffffffffffffffffffffffffffff16815260200190815260200160002060006101000a81548160ff0219169083151502179055508173ffffffffffffffffffffffffffffffffffffffff16610c07610ed1565b73ffffffffffffffffffffffffffffffffffffffff167f17307eab39ab6107e8899845ad3d59bd9653f200f220920489ca2b5937696c3183604051610c4c9190611cd6565b60405180910390a35050565b610c69610c63610ed1565b83610f92565b610ca8576040517f08c379a0000000000000000000000000000000000000000000000000000000008152600401610c9f90611e73565b60405180910390fd5b610cb4848484846112cc565b50505050565b6060610cc582610e65565b610d04576040517f08c379a0000000000000000000000000000000000000000000000000000000008152600401610cfb90611e33565b60405180910390fd5b6000610d0e611328565b90506000815111610d2e5760405180602001604052806000815250610d59565b80610d388461133f565b604051602001610d49929190611c4b565b6040516020818303038152906040525b915050919050565b60085481565b6000600560008473ffffffffffffffffffffffffffffffffffffffff1673ffffffffffffffffffffffffffffffffffffffff16815260200190815260200160002060008373ffffffffffffffffffffffffffffffffffffffff1673ffffffffffffffffffffffffffffffffffffffff16815260200190815260200160002060009054906101000a900460ff16905092915050565b60007f01ffc9a7000000000000000000000000000000000000000000000000000000007bffffffffffffffffffffffffffffffffffffffffffffffffffffffff1916827bffffffffffffffffffffffffffffffffffffffffffffffffffffffff1916149050919050565b60008073ffffffffffffffffffffffffffffffffffffffff166002600084815260200190815260200160002060009054906101000a900473ffffffffffffffffffffffffffffffffffffffff1673ffffffffffffffffffffffffffffffffffffffff1614159050919050565b600033905090565b816004600083815260200190815260200160002060006101000a81548173ffffffffffffffffffffffffffffffffffffffff021916908373ffffffffffffffffffffffffffffffffffffffff160217905550808273ffffffffffffffffffffffffffffffffffffffff16610f4c836108b8565b73ffffffffffffffffffffffffffffffffffffffff167f8c5be1e5ebec7d5bd14f71427d1e84f3dd0314c0f7b2291e5b200ac8c7c3b92560405160405180910390a45050565b6000610f9d82610e65565b610fdc576040517f08c379a0000000000000000000000000000000000000000000000000000000008152600401610fd390611d73565b60405180910390fd5b6000610fe7836108b8565b90508073ffffffffffffffffffffffffffffffffffffffff168473ffffffffffffffffffffffffffffffffffffffff16148061105657508373ffffffffffffffffffffffffffffffffffffffff1661103e84610506565b73ffffffffffffffffffffffffffffffffffffffff16145b8061106757506110668185610d67565b5b91505092915050565b8273ffffffffffffffffffffffffffffffffffffffff16611090826108b8565b73ffffffffffffffffffffffffffffffffffffffff16146110e6576040517f08c379a00000000000000000000000000000000000000000000000000000000081526004016110dd90611e13565b60405180910390fd5b600073ffffffffffffffffffffffffffffffffffffffff168273ffffffffffffffffffffffffffffffffffffffff161415611156576040517f08c379a000000000000000000000000000000000000000000000000000000000815260040161114d90611d33565b60405180910390fd5b6111618383836114a0565b61116c600082610ed9565b6001600360008573ffffffffffffffffffffffffffffffffffffffff1673ffffffffffffffffffffffffffffffffffffffff16815260200190815260200160002060008282546111bc9190611fee565b925050819055506001600360008473ffffffffffffffffffffffffffffffffffffffff1673ffffffffffffffffffffffffffffffffffffffff16815260200190815260200160002060008282546112139190611f67565b92505081905550816002600083815260200190815260200160002060006101000a81548173ffffffffffffffffffffffffffffffffffffffff021916908373ffffffffffffffffffffffffffffffffffffffff160217905550808273ffffffffffffffffffffffffffffffffffffffff168473ffffffffffffffffffffffffffffffffffffffff167fddf252ad1be2c89b69c2b068fc378daa952ba7f163c4a11628f55a4df523b3ef60405160405180910390a4505050565b6112d7848484611070565b6112e3848484846114a5565b611322576040517f08c379a000000000000000000000000000000000000000000000000000000000815260040161131990611d13565b60405180910390fd5b50505050565b606060405180602001604052806000815250905090565b60606000821415611387576040518060400160405280600181526020017f3000000000000000000000000000000000000000000000000000000000000000815250905061149b565b600082905060005b600082146113b95780806113a290612145565b915050600a826113b29190611fbd565b915061138f565b60008167ffffffffffffffff8111156113d5576113d461227b565b5b6040519080825280601f01601f1916602001820160405280156114075781602001600182028036833780820191505090505b5090505b60008514611494576001826114209190611fee565b9150600a8561142f919061218e565b603061143b9190611f67565b60f81b8183815181106114515761145061224c565b5b60200101907effffffffffffffffffffffffffffffffffffffffffffffffffffffffffffff1916908160001a905350600a8561148d9190611fbd565b945061140b565b8093505050505b919050565b505050565b60006114c68473ffffffffffffffffffffffffffffffffffffffff1661163c565b1561162f578373ffffffffffffffffffffffffffffffffffffffff1663150b7a026114ef610ed1565b8786866040518563ffffffff1660e01b81526004016115119493929190611c8a565b602060405180830381600087803b15801561152b57600080fd5b505af192505050801561155c57506040513d601f19601f82011682018060405250810190611559919061195a565b60015b6115df573d806000811461158c576040519150601f19603f3d011682016040523d82523d6000602084013e611591565b606091505b506000815114156115d7576040517f08c379a00000000000000000000000000000000000000000000000000000000081526004016115ce90611d13565b60405180910390fd5b805181602001fd5b63150b7a0260e01b7bffffffffffffffffffffffffffffffffffffffffffffffffffffffff1916817bffffffffffffffffffffffffffffffffffffffffffffffffffffffff191614915050611634565b600190505b949350505050565b600080823b905060008111915050919050565b600061166261165d84611ef3565b611ece565b90508281526020810184848401111561167e5761167d6122af565b5b6116898482856120a0565b509392505050565b6000813590506116a081612686565b92915050565b6000813590506116b58161269d565b92915050565b6000813590506116ca816126b4565b92915050565b6000813590506116df816126cb565b92915050565b6000815190506116f4816126cb565b92915050565b600082601f83011261170f5761170e6122aa565b5b813561171f84826020860161164f565b91505092915050565b600081359050611737816126e2565b92915050565b600060208284031215611753576117526122b9565b5b600061176184828501611691565b91505092915050565b60008060408385031215611781576117806122b9565b5b600061178f85828601611691565b92505060206117a085828601611691565b9150509250929050565b6000806000606084860312156117c3576117c26122b9565b5b60006117d186828701611691565b93505060206117e286828701611691565b92505060406117f386828701611728565b9150509250925092565b60008060008060808587031215611817576118166122b9565b5b600061182587828801611691565b945050602061183687828801611691565b935050604061184787828801611728565b925050606085013567ffffffffffffffff811115611868576118676122b4565b5b611874878288016116fa565b91505092959194509250565b60008060408385031215611897576118966122b9565b5b60006118a585828601611691565b92505060206118b6858286016116a6565b9150509250929050565b600080604083850312156118d7576118d66122b9565b5b60006118e585828601611691565b92505060206118f685828601611728565b9150509250929050565b600060208284031215611916576119156122b9565b5b6000611924848285016116bb565b91505092915050565b600060208284031215611943576119426122b9565b5b6000611951848285016116d0565b91505092915050565b6000602082840312156119705761196f6122b9565b5b600061197e848285016116e5565b91505092915050565b60006020828403121561199d5761199c6122b9565b5b60006119ab84828501611728565b91505092915050565b6119bd81612022565b82525050565b6119cc81612034565b82525050565b60006119dd82611f24565b6119e78185611f3a565b93506119f78185602086016120af565b611a00816122be565b840191505092915050565b6000611a1682611f2f565b611a208185611f4b565b9350611a308185602086016120af565b611a39816122be565b840191505092915050565b6000611a4f82611f2f565b611a598185611f5c565b9350611a698185602086016120af565b80840191505092915050565b6000611a82603283611f4b565b9150611a8d826122cf565b604082019050919050565b6000611aa5602483611f4b565b9150611ab08261231e565b604082019050919050565b6000611ac8601983611f4b565b9150611ad38261236d565b602082019050919050565b6000611aeb602c83611f4b565b9150611af682612396565b604082019050919050565b6000611b0e603883611f4b565b9150611b19826123e5565b604082019050919050565b6000611b31602a83611f4b565b9150611b3c82612434565b604082019050919050565b6000611b54602983611f4b565b9150611b5f82612483565b604082019050919050565b6000611b77602c83611f4b565b9150611b82826124d2565b604082019050919050565b6000611b9a602983611f4b565b9150611ba582612521565b604082019050919050565b6000611bbd602f83611f4b565b9150611bc882612570565b604082019050919050565b6000611be0602183611f4b565b9150611beb826125bf565b604082019050919050565b6000611c03603183611f4b565b9150611c0e8261260e565b604082019050919050565b6000611c26602083611f4b565b9150611c318261265d565b602082019050919050565b611c4581612096565b82525050565b6000611c578285611a44565b9150611c638284611a44565b91508190509392505050565b6000602082019050611c8460008301846119b4565b92915050565b6000608082019050611c9f60008301876119b4565b611cac60208301866119b4565b611cb96040830185611c3c565b8181036060830152611ccb81846119d2565b905095945050505050565b6000602082019050611ceb60008301846119c3565b92915050565b60006020820190508181036000830152611d0b8184611a0b565b905092915050565b60006020820190508181036000830152611d2c81611a75565b9050919050565b60006020820190508181036000830152611d4c81611a98565b9050919050565b60006020820190508181036000830152611d6c81611abb565b9050919050565b60006020820190508181036000830152611d8c81611ade565b9050919050565b60006020820190508181036000830152611dac81611b01565b9050919050565b60006020820190508181036000830152611dcc81611b24565b9050919050565b60006020820190508181036000830152611dec81611b47565b9050919050565b60006020820190508181036000830152611e0c81611b6a565b9050919050565b60006020820190508181036000830152611e2c81611b8d565b9050919050565b60006020820190508181036000830152611e4c81611bb0565b9050919050565b60006020820190508181036000830152611e6c81611bd3565b9050919050565b60006020820190508181036000830152611e8c81611bf6565b9050919050565b60006020820190508181036000830152611eac81611c19565b9050919050565b6000602082019050611ec86000830184611c3c565b92915050565b6000611ed8611ee9565b9050611ee48282612114565b919050565b6000604051905090565b600067ffffffffffffffff821115611f0e57611f0d61227b565b5b611f17826122be565b9050602081019050919050565b600081519050919050565b600081519050919050565b600082825260208201905092915050565b600082825260208201905092915050565b600081905092915050565b6000611f7282612096565b9150611f7d83612096565b9250827fffffffffffffffffffffffffffffffffffffffffffffffffffffffffffffffff03821115611fb257611fb16121bf565b5b828201905092915050565b6000611fc882612096565b9150611fd383612096565b925082611fe357611fe26121ee565b5b828204905092915050565b6000611ff982612096565b915061200483612096565b925082821015612017576120166121bf565b5b828203905092915050565b600061202d82612076565b9050919050565b60008115159050919050565b6000819050919050565b60007fffffffff0000000000000000000000000000000000000000000000000000000082169050919050565b600073ffffffffffffffffffffffffffffffffffffffff82169050919050565b6000819050919050565b82818337600083830152505050565b60005b838110156120cd5780820151818401526020810190506120b2565b838111156120dc576000848401525b50505050565b600060028204905060018216806120fa57607f821691505b6020821081141561210e5761210d61221d565b5b50919050565b61211d826122be565b810181811067ffffffffffffffff8211171561213c5761213b61227b565b5b80604052505050565b600061215082612096565b91507fffffffffffffffffffffffffffffffffffffffffffffffffffffffffffffffff821415612183576121826121bf565b5b600182019050919050565b600061219982612096565b91506121a483612096565b9250826121b4576121b36121ee565b5b828206905092915050565b7f4e487b7100000000000000000000000000000000000000000000000000000000600052601160045260246000fd5b7f4e487b7100000000000000000000000000000000000000000000000000000000600052601260045260246000fd5b7f4e487b7100000000000000000000000000000000000000000000000000000000600052602260045260246000fd5b7f4e487b7100000000000000000000000000000000000000000000000000000000600052603260045260246000fd5b7f4e487b7100000000000000000000000000000000000000000000000000000000600052604160045260246000fd5b600080fd5b600080fd5b600080fd5b600080fd5b6000601f19601f8301169050919050565b7f4552433732313a207472616e7366657220746f206e6f6e20455243373231526560008201527f63656976657220696d706c656d656e7465720000000000000000000000000000602082015250565b7f4552433732313a207472616e7366657220746f20746865207a65726f2061646460008201527f7265737300000000000000000000000000000000000000000000000000000000602082015250565b7f4552433732313a20617070726f766520746f2063616c6c657200000000000000600082015250565b7f4552433732313a206f70657261746f7220717565727920666f72206e6f6e657860008201527f697374656e7420746f6b656e0000000000000000000000000000000000000000602082015250565b7f4552433732313a20617070726f76652063616c6c6572206973206e6f74206f7760008201527f6e6572206e6f7220617070726f76656420666f7220616c6c0000000000000000602082015250565b7f4552433732313a2062616c616e636520717565727920666f7220746865207a6560008201527f726f206164647265737300000000000000000000000000000000000000000000602082015250565b7f4552433732313a206f776e657220717565727920666f72206e6f6e657869737460008201527f656e7420746f6b656e0000000000000000000000000000000000000000000000602082015250565b7f4552433732313a20617070726f76656420717565727920666f72206e6f6e657860008201527f697374656e7420746f6b656e0000000000000000000000000000000000000000602082015250565b7f4552433732313a207472616e73666572206f6620746f6b656e2074686174206960008201527f73206e6f74206f776e0000000000000000000000000000000000000000000000602082015250565b7f4552433732314d657461646174613a2055524920717565727920666f72206e6f60008201527f6e6578697374656e7420746f6b656e0000000000000000000000000000000000602082015250565b7f4552433732313a20617070726f76616c20746f2063757272656e74206f776e6560008201527f7200000000000000000000000000000000000000000000000000000000000000602082015250565b7f4552433732313a207472616e736665722063616c6c6572206973206e6f74206f60008201527f776e6572206e6f7220617070726f766564000000000000000000000000000000602082015250565b7f57617272696f72733a2077617272696f7220646f6573206e6f74206578697374600082015250565b61268f81612022565b811461269a57600080fd5b50565b6126a681612034565b81146126b157600080fd5b50565b6126bd81612040565b81146126c857600080fd5b50565b6126d48161204a565b81146126df57600080fd5b50565b6126eb81612096565b81146126f657600080fd5b5056fea2646970667358221220f254d238a74750b37397ca5ba3695749fe6e31679993bc70c7c08de09e794b0a64736f6c63430008060033",
  "linkReferences": {},
  "deployedLinkReferences": {}
}