{
  "_format": "hh-sol-artifact-1",
  "contractName": "Warriors",
  "sourceName": "contracts/Warriors.sol",
  "abi": [
    {
      "inputs": [],
      "stateMutability": "nonpayable",
      "type": "constructor"
    },
    {
      "anonymous": false,
      "inputs": [
        {
          "indexed": true,
          "internalType": "address",
          "name": "owner",
          "type": "address"
        },
        {
          "indexed": true,
          "internalType": "address",
          "name": "approved",
          "type": "address"
        },
        {
          "indexed": true,
          "internalType": "uint256",
          "name": "tokenId",
          "type": "uint256"
        }
      ],
      "name": "Approval",
      "type": "event"
    },
    {
      "anonymous": false,
      "inputs": [
        {
          "indexed": true,
          "internalType": "address",
          "name": "owner",
          "type": "address"
        },
        {
          "indexed": true,
          "internalType": "address",
          "name": "operator",
          "type": "address"
        },
        {
          "indexed": false,
          "internalType": "bool",
          "name": "approved",
          "type": "bool"
        }
      ],
      "name": "ApprovalForAll",
      "type": "event"
    },
    {
      "anonymous": false,
      "inputs": [
        {
          "indexed": true,
          "internalType": "address",
          "name": "from",
          "type": "address"
        },
        {
          "indexed": true,
          "internalType": "address",
          "name": "to",
          "type": "address"
        },
        {
          "indexed": true,
          "internalType": "uint256",
          "name": "tokenId",
          "type": "uint256"
        }
      ],
      "name": "Transfer",
      "type": "event"
    },
    {
      "anonymous": false,
      "inputs": [
        {
          "indexed": true,
          "internalType": "address",
          "name": "owner",
          "type": "address"
        },
        {
          "indexed": true,
          "internalType": "uint256",
          "name": "warriorId",
          "type": "uint256"
        }
      ],
      "name": "WarriorGenerated",
      "type": "event"
    },
    {
      "inputs": [
        {
          "internalType": "address",
          "name": "to",
          "type": "address"
        },
        {
          "internalType": "uint256",
          "name": "tokenId",
          "type": "uint256"
        }
      ],
      "name": "approve",
      "outputs": [],
      "stateMutability": "nonpayable",
      "type": "function"
    },
    {
      "inputs": [
        {
          "internalType": "address",
          "name": "owner",
          "type": "address"
        }
      ],
      "name": "balanceOf",
      "outputs": [
        {
          "internalType": "uint256",
          "name": "",
          "type": "uint256"
        }
      ],
      "stateMutability": "view",
      "type": "function"
    },
    {
      "inputs": [
        {
          "internalType": "uint256",
          "name": "tokenId",
          "type": "uint256"
        }
      ],
      "name": "getApproved",
      "outputs": [
        {
          "internalType": "address",
          "name": "",
          "type": "address"
        }
      ],
      "stateMutability": "view",
      "type": "function"
    },
    {
      "inputs": [
        {
          "internalType": "uint256",
          "name": "_warriorId",
          "type": "uint256"
        }
      ],
      "name": "getWarrior",
      "outputs": [
        {
          "internalType": "uint256",
          "name": "warrior",
          "type": "uint256"
        }
      ],
      "stateMutability": "view",
      "type": "function"
    },
    {
      "inputs": [
        {
          "internalType": "address",
          "name": "owner",
          "type": "address"
        },
        {
          "internalType": "address",
          "name": "operator",
          "type": "address"
        }
      ],
      "name": "isApprovedForAll",
      "outputs": [
        {
          "internalType": "bool",
          "name": "",
          "type": "bool"
        }
      ],
      "stateMutability": "view",
      "type": "function"
    },
    {
      "inputs": [
        {
          "internalType": "uint256",
          "name": "",
          "type": "uint256"
        }
      ],
      "name": "isGeneUsed",
      "outputs": [
        {
          "internalType": "bool",
          "name": "",
          "type": "bool"
        }
      ],
      "stateMutability": "view",
      "type": "function"
    },
    {
      "inputs": [],
      "name": "name",
      "outputs": [
        {
          "internalType": "string",
          "name": "",
          "type": "string"
        }
      ],
      "stateMutability": "view",
      "type": "function"
    },
    {
      "inputs": [
        {
          "internalType": "uint256",
          "name": "tokenId",
          "type": "uint256"
        }
      ],
      "name": "ownerOf",
      "outputs": [
        {
          "internalType": "address",
          "name": "",
          "type": "address"
        }
      ],
      "stateMutability": "view",
      "type": "function"
    },
    {
      "inputs": [
        {
          "internalType": "address",
          "name": "from",
          "type": "address"
        },
        {
          "internalType": "address",
          "name": "to",
          "type": "address"
        },
        {
          "internalType": "uint256",
          "name": "tokenId",
          "type": "uint256"
        }
      ],
      "name": "safeTransferFrom",
      "outputs": [],
      "stateMutability": "nonpayable",
      "type": "function"
    },
    {
      "inputs": [
        {
          "internalType": "address",
          "name": "from",
          "type": "address"
        },
        {
          "internalType": "address",
          "name": "to",
          "type": "address"
        },
        {
          "internalType": "uint256",
          "name": "tokenId",
          "type": "uint256"
        },
        {
          "internalType": "bytes",
          "name": "_data",
          "type": "bytes"
        }
      ],
      "name": "safeTransferFrom",
      "outputs": [],
      "stateMutability": "nonpayable",
      "type": "function"
    },
    {
      "inputs": [
        {
          "internalType": "address",
          "name": "operator",
          "type": "address"
        },
        {
          "internalType": "bool",
          "name": "approved",
          "type": "bool"
        }
      ],
      "name": "setApprovalForAll",
      "outputs": [],
      "stateMutability": "nonpayable",
      "type": "function"
    },
    {
      "inputs": [
        {
          "internalType": "bytes4",
          "name": "interfaceId",
          "type": "bytes4"
        }
      ],
      "name": "supportsInterface",
      "outputs": [
        {
          "internalType": "bool",
          "name": "",
          "type": "bool"
        }
      ],
      "stateMutability": "view",
      "type": "function"
    },
    {
      "inputs": [],
      "name": "symbol",
      "outputs": [
        {
          "internalType": "string",
          "name": "",
          "type": "string"
        }
      ],
      "stateMutability": "view",
      "type": "function"
    },
    {
      "inputs": [
        {
          "internalType": "uint256",
          "name": "tokenId",
          "type": "uint256"
        }
      ],
      "name": "tokenURI",
      "outputs": [
        {
          "internalType": "string",
          "name": "",
          "type": "string"
        }
      ],
      "stateMutability": "view",
      "type": "function"
    },
    {
      "inputs": [
        {
          "internalType": "address",
          "name": "from",
          "type": "address"
        },
        {
          "internalType": "address",
          "name": "to",
          "type": "address"
        },
        {
          "internalType": "uint256",
          "name": "tokenId",
          "type": "uint256"
        }
      ],
      "name": "transferFrom",
      "outputs": [],
      "stateMutability": "nonpayable",
      "type": "function"
    },
    {
      "inputs": [],
      "name": "warriorCounter",
      "outputs": [
        {
          "internalType": "uint256",
          "name": "",
          "type": "uint256"
        }
      ],
      "stateMutability": "view",
      "type": "function"
    }
  ],
  "bytecode": "0x60806040523480156200001157600080fd5b506040518060400160405280600881526020017f57617272696f72730000000000000000000000000000000000000000000000008152506040518060400160405280600381526020017f5752540000000000000000000000000000000000000000000000000000000000815250816000908051906020019062000096929190620000b8565b508060019080519060200190620000af929190620000b8565b505050620001cd565b828054620000c69062000168565b90600052602060002090601f016020900481019282620000ea576000855562000136565b82601f106200010557805160ff191683800117855562000136565b8280016001018555821562000136579182015b828111156200013557825182559160200191906001019062000118565b5b50905062000145919062000149565b5090565b5b80821115620001645760008160009055506001016200014a565b5090565b600060028204905060018216806200018157607f821691505b602082108114156200019857620001976200019e565b5b50919050565b7f4e487b7100000000000000000000000000000000000000000000000000000000600052602260045260246000fd5b61256e80620001dd6000396000f3fe608060405234801561001057600080fd5b50600436106101005760003560e01c806370a0823111610097578063b88d4fde11610066578063b88d4fde146102d1578063c87b56dd146102ed578063d0b96ef91461031d578063e985e9c51461033b57610100565b806370a08231146102375780639422ee781461026757806395d89b4114610297578063a22cb465146102b557610100565b806323b872dd116100d357806323b872dd1461019f57806329372ad0146101bb57806342842e0e146101eb5780636352211e1461020757610100565b806301ffc9a71461010557806306fdde0314610135578063081812fc14610153578063095ea7b314610183575b600080fd5b61011f600480360381019061011a919061178d565b61036b565b60405161012c9190611b36565b60405180910390f35b61013d61044d565b60405161014a9190611b51565b60405180910390f35b61016d600480360381019061016891906117e7565b6104df565b60405161017a9190611acf565b60405180910390f35b61019d6004803603810190610198919061174d565b610564565b005b6101b960048036038101906101b49190611637565b61067c565b005b6101d560048036038101906101d091906117e7565b6106dc565b6040516101e29190611d13565b60405180910390f35b61020560048036038101906102009190611637565b61073d565b005b610221600480360381019061021c91906117e7565b61075d565b60405161022e9190611acf565b60405180910390f35b610251600480360381019061024c91906115ca565b61080f565b60405161025e9190611d13565b60405180910390f35b610281600480360381019061027c91906117e7565b6108c7565b60405161028e9190611b36565b60405180910390f35b61029f6108e7565b6040516102ac9190611b51565b60405180910390f35b6102cf60048036038101906102ca919061170d565b610979565b005b6102eb60048036038101906102e6919061168a565b610afa565b005b610307600480360381019061030291906117e7565b610b5c565b6040516103149190611b51565b60405180910390f35b610325610c03565b6040516103329190611d13565b60405180910390f35b610355600480360381019061035091906115f7565b610c09565b6040516103629190611b36565b60405180910390f35b60007f80ac58cd000000000000000000000000000000000000000000000000000000007bffffffffffffffffffffffffffffffffffffffffffffffffffffffff1916827bffffffffffffffffffffffffffffffffffffffffffffffffffffffff1916148061043657507f5b5e139f000000000000000000000000000000000000000000000000000000007bffffffffffffffffffffffffffffffffffffffffffffffffffffffff1916827bffffffffffffffffffffffffffffffffffffffffffffffffffffffff1916145b80610446575061044582610c9d565b5b9050919050565b60606000805461045c90611f38565b80601f016020809104026020016040519081016040528092919081815260200182805461048890611f38565b80156104d55780601f106104aa576101008083540402835291602001916104d5565b820191906000526020600020905b8154815290600101906020018083116104b857829003601f168201915b5050505050905090565b60006104ea82610d07565b610529576040517f08c379a000000000000000000000000000000000000000000000000000000000815260040161052090611c53565b60405180910390fd5b6004600083815260200190815260200160002060009054906101000a900473ffffffffffffffffffffffffffffffffffffffff169050919050565b600061056f8261075d565b90508073ffffffffffffffffffffffffffffffffffffffff168373ffffffffffffffffffffffffffffffffffffffff1614156105e0576040517f08c379a00000000000000000000000000000000000000000000000000000000081526004016105d790611cb3565b60405180910390fd5b8073ffffffffffffffffffffffffffffffffffffffff166105ff610d73565b73ffffffffffffffffffffffffffffffffffffffff16148061062e575061062d81610628610d73565b610c09565b5b61066d576040517f08c379a000000000000000000000000000000000000000000000000000000000815260040161066490611bf3565b60405180910390fd5b6106778383610d7b565b505050565b61068d610687610d73565b82610e34565b6106cc576040517f08c379a00000000000000000000000000000000000000000000000000000000081526004016106c390611cd3565b60405180910390fd5b6106d7838383610f12565b505050565b6000600660008381526020019081526020016000205490506000811415610738576040517f08c379a000000000000000000000000000000000000000000000000000000000815260040161072f90611cf3565b60405180910390fd5b919050565b61075883838360405180602001604052806000815250610afa565b505050565b6000806002600084815260200190815260200160002060009054906101000a900473ffffffffffffffffffffffffffffffffffffffff169050600073ffffffffffffffffffffffffffffffffffffffff168173ffffffffffffffffffffffffffffffffffffffff161415610806576040517f08c379a00000000000000000000000000000000000000000000000000000000081526004016107fd90611c33565b60405180910390fd5b80915050919050565b60008073ffffffffffffffffffffffffffffffffffffffff168273ffffffffffffffffffffffffffffffffffffffff161415610880576040517f08c379a000000000000000000000000000000000000000000000000000000000815260040161087790611c13565b60405180910390fd5b600360008373ffffffffffffffffffffffffffffffffffffffff1673ffffffffffffffffffffffffffffffffffffffff168152602001908152602001600020549050919050565b60076020528060005260406000206000915054906101000a900460ff1681565b6060600180546108f690611f38565b80601f016020809104026020016040519081016040528092919081815260200182805461092290611f38565b801561096f5780601f106109445761010080835404028352916020019161096f565b820191906000526020600020905b81548152906001019060200180831161095257829003601f168201915b5050505050905090565b610981610d73565b73ffffffffffffffffffffffffffffffffffffffff168273ffffffffffffffffffffffffffffffffffffffff1614156109ef576040517f08c379a00000000000000000000000000000000000000000000000000000000081526004016109e690611bb3565b60405180910390fd5b80600560006109fc610d73565b73ffffffffffffffffffffffffffffffffffffffff1673ffffffffffffffffffffffffffffffffffffffff16815260200190815260200160002060008473ffffffffffffffffffffffffffffffffffffffff1673ffffffffffffffffffffffffffffffffffffffff16815260200190815260200160002060006101000a81548160ff0219169083151502179055508173ffffffffffffffffffffffffffffffffffffffff16610aa9610d73565b73ffffffffffffffffffffffffffffffffffffffff167f17307eab39ab6107e8899845ad3d59bd9653f200f220920489ca2b5937696c3183604051610aee9190611b36565b60405180910390a35050565b610b0b610b05610d73565b83610e34565b610b4a576040517f08c379a0000000000000000000000000000000000000000000000000000000008152600401610b4190611cd3565b60405180910390fd5b610b568484848461116e565b50505050565b6060610b6782610d07565b610ba6576040517f08c379a0000000000000000000000000000000000000000000000000000000008152600401610b9d90611c93565b60405180910390fd5b6000610bb06111ca565b90506000815111610bd05760405180602001604052806000815250610bfb565b80610bda846111e1565b604051602001610beb929190611aab565b6040516020818303038152906040525b915050919050565b60085481565b6000600560008473ffffffffffffffffffffffffffffffffffffffff1673ffffffffffffffffffffffffffffffffffffffff16815260200190815260200160002060008373ffffffffffffffffffffffffffffffffffffffff1673ffffffffffffffffffffffffffffffffffffffff16815260200190815260200160002060009054906101000a900460ff16905092915050565b60007f01ffc9a7000000000000000000000000000000000000000000000000000000007bffffffffffffffffffffffffffffffffffffffffffffffffffffffff1916827bffffffffffffffffffffffffffffffffffffffffffffffffffffffff1916149050919050565b60008073ffffffffffffffffffffffffffffffffffffffff166002600084815260200190815260200160002060009054906101000a900473ffffffffffffffffffffffffffffffffffffffff1673ffffffffffffffffffffffffffffffffffffffff1614159050919050565b600033905090565b816004600083815260200190815260200160002060006101000a81548173ffffffffffffffffffffffffffffffffffffffff021916908373ffffffffffffffffffffffffffffffffffffffff160217905550808273ffffffffffffffffffffffffffffffffffffffff16610dee8361075d565b73ffffffffffffffffffffffffffffffffffffffff167f8c5be1e5ebec7d5bd14f71427d1e84f3dd0314c0f7b2291e5b200ac8c7c3b92560405160405180910390a45050565b6000610e3f82610d07565b610e7e576040517f08c379a0000000000000000000000000000000000000000000000000000000008152600401610e7590611bd3565b60405180910390fd5b6000610e898361075d565b90508073ffffffffffffffffffffffffffffffffffffffff168473ffffffffffffffffffffffffffffffffffffffff161480610ef857508373ffffffffffffffffffffffffffffffffffffffff16610ee0846104df565b73ffffffffffffffffffffffffffffffffffffffff16145b80610f095750610f088185610c09565b5b91505092915050565b8273ffffffffffffffffffffffffffffffffffffffff16610f328261075d565b73ffffffffffffffffffffffffffffffffffffffff1614610f88576040517f08c379a0000000000000000000000000000000000000000000000000000000008152600401610f7f90611c73565b60405180910390fd5b600073ffffffffffffffffffffffffffffffffffffffff168273ffffffffffffffffffffffffffffffffffffffff161415610ff8576040517f08c379a0000000000000000000000000000000000000000000000000000000008152600401610fef90611b93565b60405180910390fd5b611003838383611342565b61100e600082610d7b565b6001600360008573ffffffffffffffffffffffffffffffffffffffff1673ffffffffffffffffffffffffffffffffffffffff168152602001908152602001600020600082825461105e9190611e4e565b925050819055506001600360008473ffffffffffffffffffffffffffffffffffffffff1673ffffffffffffffffffffffffffffffffffffffff16815260200190815260200160002060008282546110b59190611dc7565b92505081905550816002600083815260200190815260200160002060006101000a81548173ffffffffffffffffffffffffffffffffffffffff021916908373ffffffffffffffffffffffffffffffffffffffff160217905550808273ffffffffffffffffffffffffffffffffffffffff168473ffffffffffffffffffffffffffffffffffffffff167fddf252ad1be2c89b69c2b068fc378daa952ba7f163c4a11628f55a4df523b3ef60405160405180910390a4505050565b611179848484610f12565b61118584848484611347565b6111c4576040517f08c379a00000000000000000000000000000000000000000000000000000000081526004016111bb90611b73565b60405180910390fd5b50505050565b606060405180602001604052806000815250905090565b60606000821415611229576040518060400160405280600181526020017f3000000000000000000000000000000000000000000000000000000000000000815250905061133d565b600082905060005b6000821461125b57808061124490611f9b565b915050600a826112549190611e1d565b9150611231565b60008167ffffffffffffffff811115611277576112766120d1565b5b6040519080825280601f01601f1916602001820160405280156112a95781602001600182028036833780820191505090505b5090505b60008514611336576001826112c29190611e4e565b9150600a856112d19190611fe4565b60306112dd9190611dc7565b60f81b8183815181106112f3576112f26120a2565b5b60200101907effffffffffffffffffffffffffffffffffffffffffffffffffffffffffffff1916908160001a905350600a8561132f9190611e1d565b94506112ad565b8093505050505b919050565b505050565b60006113688473ffffffffffffffffffffffffffffffffffffffff166114de565b156114d1578373ffffffffffffffffffffffffffffffffffffffff1663150b7a02611391610d73565b8786866040518563ffffffff1660e01b81526004016113b39493929190611aea565b602060405180830381600087803b1580156113cd57600080fd5b505af19250505080156113fe57506040513d601f19601f820116820180604052508101906113fb91906117ba565b60015b611481573d806000811461142e576040519150601f19603f3d011682016040523d82523d6000602084013e611433565b606091505b50600081511415611479576040517f08c379a000000000000000000000000000000000000000000000000000000000815260040161147090611b73565b60405180910390fd5b805181602001fd5b63150b7a0260e01b7bffffffffffffffffffffffffffffffffffffffffffffffffffffffff1916817bffffffffffffffffffffffffffffffffffffffffffffffffffffffff1916149150506114d6565b600190505b949350505050565b600080823b905060008111915050919050565b60006115046114ff84611d53565b611d2e565b9050828152602081018484840111156115205761151f612105565b5b61152b848285611ef6565b509392505050565b600081359050611542816124dc565b92915050565b600081359050611557816124f3565b92915050565b60008135905061156c8161250a565b92915050565b6000815190506115818161250a565b92915050565b600082601f83011261159c5761159b612100565b5b81356115ac8482602086016114f1565b91505092915050565b6000813590506115c481612521565b92915050565b6000602082840312156115e0576115df61210f565b5b60006115ee84828501611533565b91505092915050565b6000806040838503121561160e5761160d61210f565b5b600061161c85828601611533565b925050602061162d85828601611533565b9150509250929050565b6000806000606084860312156116505761164f61210f565b5b600061165e86828701611533565b935050602061166f86828701611533565b9250506040611680868287016115b5565b9150509250925092565b600080600080608085870312156116a4576116a361210f565b5b60006116b287828801611533565b94505060206116c387828801611533565b93505060406116d4878288016115b5565b925050606085013567ffffffffffffffff8111156116f5576116f461210a565b5b61170187828801611587565b91505092959194509250565b600080604083850312156117245761172361210f565b5b600061173285828601611533565b925050602061174385828601611548565b9150509250929050565b600080604083850312156117645761176361210f565b5b600061177285828601611533565b9250506020611783858286016115b5565b9150509250929050565b6000602082840312156117a3576117a261210f565b5b60006117b18482850161155d565b91505092915050565b6000602082840312156117d0576117cf61210f565b5b60006117de84828501611572565b91505092915050565b6000602082840312156117fd576117fc61210f565b5b600061180b848285016115b5565b91505092915050565b61181d81611e82565b82525050565b61182c81611e94565b82525050565b600061183d82611d84565b6118478185611d9a565b9350611857818560208601611f05565b61186081612114565b840191505092915050565b600061187682611d8f565b6118808185611dab565b9350611890818560208601611f05565b61189981612114565b840191505092915050565b60006118af82611d8f565b6118b98185611dbc565b93506118c9818560208601611f05565b80840191505092915050565b60006118e2603283611dab565b91506118ed82612125565b604082019050919050565b6000611905602483611dab565b915061191082612174565b604082019050919050565b6000611928601983611dab565b9150611933826121c3565b602082019050919050565b600061194b602c83611dab565b9150611956826121ec565b604082019050919050565b600061196e603883611dab565b91506119798261223b565b604082019050919050565b6000611991602a83611dab565b915061199c8261228a565b604082019050919050565b60006119b4602983611dab565b91506119bf826122d9565b604082019050919050565b60006119d7602c83611dab565b91506119e282612328565b604082019050919050565b60006119fa602983611dab565b9150611a0582612377565b604082019050919050565b6000611a1d602f83611dab565b9150611a28826123c6565b604082019050919050565b6000611a40602183611dab565b9150611a4b82612415565b604082019050919050565b6000611a63603183611dab565b9150611a6e82612464565b604082019050919050565b6000611a86602083611dab565b9150611a91826124b3565b602082019050919050565b611aa581611eec565b82525050565b6000611ab782856118a4565b9150611ac382846118a4565b91508190509392505050565b6000602082019050611ae46000830184611814565b92915050565b6000608082019050611aff6000830187611814565b611b0c6020830186611814565b611b196040830185611a9c565b8181036060830152611b2b8184611832565b905095945050505050565b6000602082019050611b4b6000830184611823565b92915050565b60006020820190508181036000830152611b6b818461186b565b905092915050565b60006020820190508181036000830152611b8c816118d5565b9050919050565b60006020820190508181036000830152611bac816118f8565b9050919050565b60006020820190508181036000830152611bcc8161191b565b9050919050565b60006020820190508181036000830152611bec8161193e565b9050919050565b60006020820190508181036000830152611c0c81611961565b9050919050565b60006020820190508181036000830152611c2c81611984565b9050919050565b60006020820190508181036000830152611c4c816119a7565b9050919050565b60006020820190508181036000830152611c6c816119ca565b9050919050565b60006020820190508181036000830152611c8c816119ed565b9050919050565b60006020820190508181036000830152611cac81611a10565b9050919050565b60006020820190508181036000830152611ccc81611a33565b9050919050565b60006020820190508181036000830152611cec81611a56565b9050919050565b60006020820190508181036000830152611d0c81611a79565b9050919050565b6000602082019050611d286000830184611a9c565b92915050565b6000611d38611d49565b9050611d448282611f6a565b919050565b6000604051905090565b600067ffffffffffffffff821115611d6e57611d6d6120d1565b5b611d7782612114565b9050602081019050919050565b600081519050919050565b600081519050919050565b600082825260208201905092915050565b600082825260208201905092915050565b600081905092915050565b6000611dd282611eec565b9150611ddd83611eec565b9250827fffffffffffffffffffffffffffffffffffffffffffffffffffffffffffffffff03821115611e1257611e11612015565b5b828201905092915050565b6000611e2882611eec565b9150611e3383611eec565b925082611e4357611e42612044565b5b828204905092915050565b6000611e5982611eec565b9150611e6483611eec565b925082821015611e7757611e76612015565b5b828203905092915050565b6000611e8d82611ecc565b9050919050565b60008115159050919050565b60007fffffffff0000000000000000000000000000000000000000000000000000000082169050919050565b600073ffffffffffffffffffffffffffffffffffffffff82169050919050565b6000819050919050565b82818337600083830152505050565b60005b83811015611f23578082015181840152602081019050611f08565b83811115611f32576000848401525b50505050565b60006002820490506001821680611f5057607f821691505b60208210811415611f6457611f63612073565b5b50919050565b611f7382612114565b810181811067ffffffffffffffff82111715611f9257611f916120d1565b5b80604052505050565b6000611fa682611eec565b91507fffffffffffffffffffffffffffffffffffffffffffffffffffffffffffffffff821415611fd957611fd8612015565b5b600182019050919050565b6000611fef82611eec565b9150611ffa83611eec565b92508261200a57612009612044565b5b828206905092915050565b7f4e487b7100000000000000000000000000000000000000000000000000000000600052601160045260246000fd5b7f4e487b7100000000000000000000000000000000000000000000000000000000600052601260045260246000fd5b7f4e487b7100000000000000000000000000000000000000000000000000000000600052602260045260246000fd5b7f4e487b7100000000000000000000000000000000000000000000000000000000600052603260045260246000fd5b7f4e487b7100000000000000000000000000000000000000000000000000000000600052604160045260246000fd5b600080fd5b600080fd5b600080fd5b600080fd5b6000601f19601f8301169050919050565b7f4552433732313a207472616e7366657220746f206e6f6e20455243373231526560008201527f63656976657220696d706c656d656e7465720000000000000000000000000000602082015250565b7f4552433732313a207472616e7366657220746f20746865207a65726f2061646460008201527f7265737300000000000000000000000000000000000000000000000000000000602082015250565b7f4552433732313a20617070726f766520746f2063616c6c657200000000000000600082015250565b7f4552433732313a206f70657261746f7220717565727920666f72206e6f6e657860008201527f697374656e7420746f6b656e0000000000000000000000000000000000000000602082015250565b7f4552433732313a20617070726f76652063616c6c6572206973206e6f74206f7760008201527f6e6572206e6f7220617070726f76656420666f7220616c6c0000000000000000602082015250565b7f4552433732313a2062616c616e636520717565727920666f7220746865207a6560008201527f726f206164647265737300000000000000000000000000000000000000000000602082015250565b7f4552433732313a206f776e657220717565727920666f72206e6f6e657869737460008201527f656e7420746f6b656e0000000000000000000000000000000000000000000000602082015250565b7f4552433732313a20617070726f76656420717565727920666f72206e6f6e657860008201527f697374656e7420746f6b656e0000000000000000000000000000000000000000602082015250565b7f4552433732313a207472616e73666572206f6620746f6b656e2074686174206960008201527f73206e6f74206f776e0000000000000000000000000000000000000000000000602082015250565b7f4552433732314d657461646174613a2055524920717565727920666f72206e6f60008201527f6e6578697374656e7420746f6b656e0000000000000000000000000000000000602082015250565b7f4552433732313a20617070726f76616c20746f2063757272656e74206f776e6560008201527f7200000000000000000000000000000000000000000000000000000000000000602082015250565b7f4552433732313a207472616e736665722063616c6c6572206973206e6f74206f60008201527f776e6572206e6f7220617070726f766564000000000000000000000000000000602082015250565b7f57617272696f72733a2077617272696f7220646f6573206e6f74206578697374600082015250565b6124e581611e82565b81146124f057600080fd5b50565b6124fc81611e94565b811461250757600080fd5b50565b61251381611ea0565b811461251e57600080fd5b50565b61252a81611eec565b811461253557600080fd5b5056fea26469706673582212202d1aaa7e801cfbf16c5d76dfa3b32786b4b7dfbf2dab905a655b8bfd47e7d76c64736f6c63430008060033",
  "linkReferences": {},
  "deployedLinkReferences": {}
}