{
  "_format": "hh-sol-artifact-1",
  "contractName": "ERC721",
  "sourceName": "contracts/utils/ERC721.sol",
  "abi": [
    {
      "inputs": [
        {
          "internalType": "string",
          "name": "name_",
          "type": "string"
        },
        {
          "internalType": "string",
          "name": "symbol_",
          "type": "string"
        }
      ],
      "stateMutability": "nonpayable",
      "type": "constructor"
    },
    {
      "anonymous": false,
      "inputs": [
        {
          "indexed": true,
          "internalType": "address",
          "name": "owner",
          "type": "address"
        },
        {
          "indexed": true,
          "internalType": "address",
          "name": "approved",
          "type": "address"
        },
        {
          "indexed": true,
          "internalType": "uint256",
          "name": "tokenId",
          "type": "uint256"
        }
      ],
      "name": "Approval",
      "type": "event"
    },
    {
      "anonymous": false,
      "inputs": [
        {
          "indexed": true,
          "internalType": "address",
          "name": "owner",
          "type": "address"
        },
        {
          "indexed": true,
          "internalType": "address",
          "name": "operator",
          "type": "address"
        },
        {
          "indexed": false,
          "internalType": "bool",
          "name": "approved",
          "type": "bool"
        }
      ],
      "name": "ApprovalForAll",
      "type": "event"
    },
    {
      "anonymous": false,
      "inputs": [
        {
          "indexed": true,
          "internalType": "address",
          "name": "from",
          "type": "address"
        },
        {
          "indexed": true,
          "internalType": "address",
          "name": "to",
          "type": "address"
        },
        {
          "indexed": true,
          "internalType": "uint256",
          "name": "tokenId",
          "type": "uint256"
        }
      ],
      "name": "Transfer",
      "type": "event"
    },
    {
      "inputs": [
        {
          "internalType": "address",
          "name": "to",
          "type": "address"
        },
        {
          "internalType": "uint256",
          "name": "tokenId",
          "type": "uint256"
        }
      ],
      "name": "approve",
      "outputs": [],
      "stateMutability": "nonpayable",
      "type": "function"
    },
    {
      "inputs": [
        {
          "internalType": "address",
          "name": "owner",
          "type": "address"
        }
      ],
      "name": "balanceOf",
      "outputs": [
        {
          "internalType": "uint256",
          "name": "",
          "type": "uint256"
        }
      ],
      "stateMutability": "view",
      "type": "function"
    },
    {
      "inputs": [
        {
          "internalType": "bytes32",
          "name": "c__0xe784d46f",
          "type": "bytes32"
        }
      ],
      "name": "c_0xe784d46f",
      "outputs": [],
      "stateMutability": "pure",
      "type": "function"
    },
    {
      "inputs": [
        {
          "internalType": "uint256",
          "name": "tokenId",
          "type": "uint256"
        }
      ],
      "name": "getApproved",
      "outputs": [
        {
          "internalType": "address",
          "name": "",
          "type": "address"
        }
      ],
      "stateMutability": "view",
      "type": "function"
    },
    {
      "inputs": [
        {
          "internalType": "address",
          "name": "owner",
          "type": "address"
        },
        {
          "internalType": "address",
          "name": "operator",
          "type": "address"
        }
      ],
      "name": "isApprovedForAll",
      "outputs": [
        {
          "internalType": "bool",
          "name": "",
          "type": "bool"
        }
      ],
      "stateMutability": "view",
      "type": "function"
    },
    {
      "inputs": [],
      "name": "name",
      "outputs": [
        {
          "internalType": "string",
          "name": "",
          "type": "string"
        }
      ],
      "stateMutability": "view",
      "type": "function"
    },
    {
      "inputs": [
        {
          "internalType": "uint256",
          "name": "tokenId",
          "type": "uint256"
        }
      ],
      "name": "ownerOf",
      "outputs": [
        {
          "internalType": "address",
          "name": "",
          "type": "address"
        }
      ],
      "stateMutability": "view",
      "type": "function"
    },
    {
      "inputs": [
        {
          "internalType": "address",
          "name": "from",
          "type": "address"
        },
        {
          "internalType": "address",
          "name": "to",
          "type": "address"
        },
        {
          "internalType": "uint256",
          "name": "tokenId",
          "type": "uint256"
        }
      ],
      "name": "safeTransferFrom",
      "outputs": [],
      "stateMutability": "nonpayable",
      "type": "function"
    },
    {
      "inputs": [
        {
          "internalType": "address",
          "name": "from",
          "type": "address"
        },
        {
          "internalType": "address",
          "name": "to",
          "type": "address"
        },
        {
          "internalType": "uint256",
          "name": "tokenId",
          "type": "uint256"
        },
        {
          "internalType": "bytes",
          "name": "_data",
          "type": "bytes"
        }
      ],
      "name": "safeTransferFrom",
      "outputs": [],
      "stateMutability": "nonpayable",
      "type": "function"
    },
    {
      "inputs": [
        {
          "internalType": "address",
          "name": "operator",
          "type": "address"
        },
        {
          "internalType": "bool",
          "name": "approved",
          "type": "bool"
        }
      ],
      "name": "setApprovalForAll",
      "outputs": [],
      "stateMutability": "nonpayable",
      "type": "function"
    },
    {
      "inputs": [
        {
          "internalType": "bytes4",
          "name": "interfaceId",
          "type": "bytes4"
        }
      ],
      "name": "supportsInterface",
      "outputs": [
        {
          "internalType": "bool",
          "name": "",
          "type": "bool"
        }
      ],
      "stateMutability": "view",
      "type": "function"
    },
    {
      "inputs": [],
      "name": "symbol",
      "outputs": [
        {
          "internalType": "string",
          "name": "",
          "type": "string"
        }
      ],
      "stateMutability": "view",
      "type": "function"
    },
    {
      "inputs": [
        {
          "internalType": "uint256",
          "name": "tokenId",
          "type": "uint256"
        }
      ],
      "name": "tokenURI",
      "outputs": [
        {
          "internalType": "string",
          "name": "",
          "type": "string"
        }
      ],
      "stateMutability": "view",
      "type": "function"
    },
    {
      "inputs": [
        {
          "internalType": "address",
          "name": "from",
          "type": "address"
        },
        {
          "internalType": "address",
          "name": "to",
          "type": "address"
        },
        {
          "internalType": "uint256",
          "name": "tokenId",
          "type": "uint256"
        }
      ],
      "name": "transferFrom",
      "outputs": [],
      "stateMutability": "nonpayable",
      "type": "function"
    }
  ],
  "bytecode": "0x60806040523480156200001157600080fd5b50604051620042f2380380620042f28339818101604052810190620000379190620002a5565b6200006b7f76683a516c9dc0dbd12dd5b61e70d370f66fbac2ae8d78501601e98e6754901d60001b6200017460201b60201c565b6200009f7f42b4b754d386e1c948091f99b728ecbca5ae93c576f999ccc79967e12d0c612e60001b6200017460201b60201c565b620000d37fe86d31caa909722eadcb676c24c6be412c3f9d997b0781e32d5606cf44982af960001b6200017460201b60201c565b8160009080519060200190620000eb92919062000177565b506200011f7e83a7cbbb5f55f7dd12ed93bc6f5e5b4ae6d49780bde7ef9ec36800c130ae5260001b6200017460201b60201c565b620001537fbed0dbf20f7a546076dd7e647aeaadff9b659acf32cfa8db01d3e97c0fa7ab4460001b6200017460201b60201c565b80600190805190602001906200016b92919062000177565b505050620004ae565b50565b8280546200018590620003bf565b90600052602060002090601f016020900481019282620001a95760008555620001f5565b82601f10620001c457805160ff1916838001178555620001f5565b82800160010185558215620001f5579182015b82811115620001f4578251825591602001919060010190620001d7565b5b50905062000204919062000208565b5090565b5b808211156200022357600081600090555060010162000209565b5090565b60006200023e620002388462000353565b6200032a565b9050828152602081018484840111156200025d576200025c6200048e565b5b6200026a84828562000389565b509392505050565b600082601f8301126200028a576200028962000489565b5b81516200029c84826020860162000227565b91505092915050565b60008060408385031215620002bf57620002be62000498565b5b600083015167ffffffffffffffff811115620002e057620002df62000493565b5b620002ee8582860162000272565b925050602083015167ffffffffffffffff81111562000312576200031162000493565b5b620003208582860162000272565b9150509250929050565b60006200033662000349565b9050620003448282620003f5565b919050565b6000604051905090565b600067ffffffffffffffff8211156200037157620003706200045a565b5b6200037c826200049d565b9050602081019050919050565b60005b83811015620003a95780820151818401526020810190506200038c565b83811115620003b9576000848401525b50505050565b60006002820490506001821680620003d857607f821691505b60208210811415620003ef57620003ee6200042b565b5b50919050565b62000400826200049d565b810181811067ffffffffffffffff821117156200042257620004216200045a565b5b80604052505050565b7f4e487b7100000000000000000000000000000000000000000000000000000000600052602260045260246000fd5b7f4e487b7100000000000000000000000000000000000000000000000000000000600052604160045260246000fd5b600080fd5b600080fd5b600080fd5b600080fd5b6000601f19601f8301169050919050565b613e3480620004be6000396000f3fe608060405234801561001057600080fd5b50600436106100ea5760003560e01c806370a082311161008c578063a22cb46511610066578063a22cb4651461025b578063b88d4fde14610277578063c87b56dd14610293578063e985e9c5146102c3576100ea565b806370a08231146101f157806395d89b411461022157806398f1112f1461023f576100ea565b8063095ea7b3116100c8578063095ea7b31461016d57806323b872dd1461018957806342842e0e146101a55780636352211e146101c1576100ea565b806301ffc9a7146100ef57806306fdde031461011f578063081812fc1461013d575b600080fd5b6101096004803603810190610104919061309e565b6102f3565b6040516101169190613424565b60405180910390f35b610127610459565b604051610134919061343f565b60405180910390f35b610157600480360381019061015291906130f8565b61056f565b60405161016491906133bd565b60405180910390f35b61018760048036038101906101829190613031565b610728565b005b6101a3600480360381019061019e9190612f1b565b610a7c565b005b6101bf60048036038101906101ba9190612f1b565b610c10565b005b6101db60048036038101906101d691906130f8565b610cb4565b6040516101e891906133bd565b60405180910390f35b61020b60048036038101906102069190612eae565b610ef3565b60405161021891906135e1565b60405180910390f35b6102296110e0565b604051610236919061343f565b60405180910390f35b61025960048036038101906102549190613071565b6111f6565b005b61027560048036038101906102709190612ff1565b6111f9565b005b610291600480360381019061028c9190612f6e565b611506565b005b6102ad60048036038101906102a891906130f8565b61169c565b6040516102ba919061343f565b60405180910390f35b6102dd60048036038101906102d89190612edb565b6118cf565b6040516102ea9190613424565b60405180910390f35b60006103217fac0ee51b88eda759d367a61081b71b16ad7114ebb65348fb17e751654b900afb60001b6111f6565b61034d7f9de8895a2a2172f71f13de0f832bff5f86030e3f64247653046606f46648d55760001b6111f6565b6103797f55677c8fb7d7f3e16efc80998408508041c46b839e4c5b52e226b90e463cd18860001b6111f6565b7f80ac58cd000000000000000000000000000000000000000000000000000000007bffffffffffffffffffffffffffffffffffffffffffffffffffffffff1916827bffffffffffffffffffffffffffffffffffffffffffffffffffffffff1916148061044257507f5b5e139f000000000000000000000000000000000000000000000000000000007bffffffffffffffffffffffffffffffffffffffffffffffffffffffff1916827bffffffffffffffffffffffffffffffffffffffffffffffffffffffff1916145b806104525750610451826119e7565b5b9050919050565b60606104877f810a95a36b871f3c7cc8e085aaad89ebd94b5bad657644eff47a970202757d0360001b6111f6565b6104b37f17a27c706bdd7d51c446cf005bab74015d0b48c7f7643c665a001cfddd43b56660001b6111f6565b6104df7f89b33bd469d0b6a8ac86b043bd0fd6d3bdc512bb15193683681f1472cda6842960001b6111f6565b600080546104ec90613810565b80601f016020809104026020016040519081016040528092919081815260200182805461051890613810565b80156105655780601f1061053a57610100808354040283529160200191610565565b820191906000526020600020905b81548152906001019060200180831161054857829003601f168201915b5050505050905090565b600061059d7fe213da7685ceb0459addada609f91c2d9fbe73ddd5ad8a6269f85a57e4dfb1b160001b6111f6565b6105c97f2a6e849c8618d0b116f8eeddc9c82b9d067637f189419e0995daa5f076e1e7bd60001b6111f6565b6105f57fabbea2825505a5aa3bf84eb8a33dde188b36e5e748e71bbfb9b844578c90d5dc60001b6111f6565b6106217f4c699a5989404c59311abe0cc3032851211febe69d48adf08501677396bdba7d60001b6111f6565b61062a82611a51565b610669576040517f08c379a000000000000000000000000000000000000000000000000000000000815260040161066090613541565b60405180910390fd5b6106957ff2334e627731dafc43bcf57221885d6aa0047146883662564d2afbea3caac24160001b6111f6565b6106c17f2e3081e1923ca712a03c381fff7a54802dbe62b00d75fddbc9eadc4d96f2b76360001b6111f6565b6106ed7f15e45459072fcf18dcc017226a99ad7a2c9e60b9991a6c4482221751971096fb60001b6111f6565b6004600083815260200190815260200160002060009054906101000a900473ffffffffffffffffffffffffffffffffffffffff169050919050565b6107547f152eafef9a9099d7373bfadf7dc9d726b50d7087859ebde2fdd8ef862031e38560001b6111f6565b6107807fedc7b04e443202c0c61785ea4917400c6933b4e21e26d714dbb5faf6d015ba1960001b6111f6565b6107ac7f5468cb40a61739ff45a8dd5022acc5be5457fc639ab2de7e3c548795cbc98fbc60001b6111f6565b60006107b782610cb4565b90506107e57f62c371d0819da4f4416f27c89681f66465886b305fb8b3710cdd0ae7089367a660001b6111f6565b6108117f8ef2a0a6252c948f62a8ae861066a4875c0f853382a6d7da892c81d6c7ccacef60001b6111f6565b61083d7f9f567b476869fe7f08399308269cf19890b46ab21b621a48511976f324a5a63760001b6111f6565b8073ffffffffffffffffffffffffffffffffffffffff168373ffffffffffffffffffffffffffffffffffffffff1614156108ac576040517f08c379a00000000000000000000000000000000000000000000000000000000081526004016108a3906135a1565b60405180910390fd5b6108d87f88e85cccd6a7bd096eabd1a916402c158e1d8f4648756f9909eed1eb74abd56360001b6111f6565b6109047f2f81021847891a1e33828a3f37e5816f36431b0f855e0f4c7cddd6da8e00c9f760001b6111f6565b6109307fd003bbe4528c4cc4104eafd3ecfd2584e39112d602144f631684178ebe69aa8f60001b6111f6565b61095c7f9360bc288a172c374c90828ad6ac2ee2eb2b132eda4e130a4e5b7e2ed165f02060001b6111f6565b8073ffffffffffffffffffffffffffffffffffffffff1661097b611b42565b73ffffffffffffffffffffffffffffffffffffffff1614806109aa57506109a9816109a4611b42565b6118cf565b5b6109e9576040517f08c379a00000000000000000000000000000000000000000000000000000000081526004016109e0906134e1565b60405180910390fd5b610a157f858b89039010798d082cb15c1280f0f4621a7874e36fca23f17d16d9a99f94bb60001b6111f6565b610a417fadf166ffd56bde0a1a685949e482884fdd56bc509685cbacb00f4fb15ce1c88760001b6111f6565b610a6d7f62642e14fa9f3f7258c45be3e8f4c9f004c1c04932a1caa2e25d70a62045a73760001b6111f6565b610a778383611b4a565b505050565b610aa87f2795a77b9529512c53740ac1e07ffa68d7bd8507ac08a603c4897ca7c9043ab260001b6111f6565b610ad47f479a32fd2520640c178255b847fd20ded427ac1a6d333b210f8b37a33d89fc3860001b6111f6565b610b007f53ad25670050d471d6c302db5f1a5a1b4b4e404e20d275ced5d7faa005c05a7160001b6111f6565b610b2c7f4359453010007919fa170827cdb9a04ab4b7d003ff8984e1b8907b4b37b5ad2d60001b6111f6565b610b3d610b37611b42565b82611cdf565b610b7c576040517f08c379a0000000000000000000000000000000000000000000000000000000008152600401610b73906135c1565b60405180910390fd5b610ba87fae53eb0c408486230c4a6e545bb08d1c48a402edda6588332a599768ec23b56c60001b6111f6565b610bd47fb92b9845aaae564077bfa02eaf7cce3822a40bdf3c351230f5e14730e771aec560001b6111f6565b610c007fd7ac79f22b2466225d4423cfbf285c9f4a07625f3139bfcb08e7e0e4bc87227860001b6111f6565b610c0b838383611f49565b505050565b610c3c7f0cb4913f667ff8ef88b94d4dca671923a9046e8d9d48739b77646b83e63e8f2d60001b6111f6565b610c687f99d7ccdf3b216dcd59b3c09371a2088dae6135435a7997766ffc696d2a9fe91f60001b6111f6565b610c947ff5d3e0c03adb6cf9f590260b66bd741204095a100088b42e3a7d8a3c17898a8c60001b6111f6565b610caf83838360405180602001604052806000815250611506565b505050565b6000610ce27f40750e10700bb2f7ebd5b376810bd1cac285b66c983bcdfd7c1e59fc33c4394560001b6111f6565b610d0e7feb92bb5ab5e24556b29c01cf396f638d301df908a125d76d5a8a0092e82ad33860001b6111f6565b610d3a7f1aca67dea6e39fa9e66356197e24742dc9b50c60dd139c0d6ed54e1113c5eb3a60001b6111f6565b60006002600084815260200190815260200160002060009054906101000a900473ffffffffffffffffffffffffffffffffffffffff169050610d9e7f1c819e0c46041878ef5a330fb73ca5e9437717a6fcc710447dde46fe5d1cb72e60001b6111f6565b610dca7fa0a69e8d08d51c5e636ffcbb76c6394f2a8f6b37fe486d313aca7808ef792a5c60001b6111f6565b610df67f2f4468829a23db790680505bf005e95974409be05b286d633fa63fd4b1ffba9a60001b6111f6565b600073ffffffffffffffffffffffffffffffffffffffff168173ffffffffffffffffffffffffffffffffffffffff161415610e66576040517f08c379a0000000000000000000000000000000000000000000000000000000008152600401610e5d90613521565b60405180910390fd5b610e927f435ebeffa5bb32a4aee20c279c56195ef0f9f30d957fce720293e847c8db35d060001b6111f6565b610ebe7f4601393a15164028ebc802133731628adc02e283b310d77e09a05ce138e7dc8d60001b6111f6565b610eea7f1a41aa9ace0b7c08875b85339ca005d9aabc7452ede91bb0555a7dba1def2a1760001b6111f6565b80915050919050565b6000610f217fe3d45a1141a58a907835c2a59873ed6a5f646e375966c56cc1eb0272d050669b60001b6111f6565b610f4d7f898c3b683cca0bafa525122213064852d05ef0a673abadb1c5ecb02514c50f3860001b6111f6565b610f797f123efccfcbc52075d75ef90ebdbffa30c1595ce74fbf63807f48a25a6222e0d460001b6111f6565b610fa57f3ca106fcd1a04628da00d0d7e3ee3459721e332fbf1ec990be8e8a39f0f96af660001b6111f6565b600073ffffffffffffffffffffffffffffffffffffffff168273ffffffffffffffffffffffffffffffffffffffff161415611015576040517f08c379a000000000000000000000000000000000000000000000000000000000815260040161100c90613501565b60405180910390fd5b6110417f5146afa06c5820d0a464311bf50d35fc3372d08e4248ed6bb3dc073456c4808760001b6111f6565b61106d7f0e078bed2d2f6bdba81ddd83010ee42979a34a194170b4f221a7a6c4cb5e892660001b6111f6565b6110997f269fda7dc0191537cb6b92cbc2a3298e84bf63bcd9c6df1b1d29a2ef1734d51460001b6111f6565b600360008373ffffffffffffffffffffffffffffffffffffffff1673ffffffffffffffffffffffffffffffffffffffff168152602001908152602001600020549050919050565b606061110e7f69781d83c6fb1329c88954f1f3d9012ce54bd936a837a3b6fc15c52fe456183f60001b6111f6565b61113a7f0d7555527c37dc04f87e96524269051622fa49374ffc6c5fde26c09543f46c5a60001b6111f6565b6111667fe18f909911c2f2fb94a203b70a100d4909936bd335a91c6fa898d8911727036260001b6111f6565b6001805461117390613810565b80601f016020809104026020016040519081016040528092919081815260200182805461119f90613810565b80156111ec5780601f106111c1576101008083540402835291602001916111ec565b820191906000526020600020905b8154815290600101906020018083116111cf57829003601f168201915b5050505050905090565b50565b6112257f9edf07d54efa7bbc7ff5efc957378bb5a49bf517f4733d594b356f3acd09fa5360001b6111f6565b6112517fa5d698c09d4a0cc4d3f7f2be2b61c1d58ad12d321e0510b9c5f862a7735ca5ab60001b6111f6565b61127d7fe974dff0050dceb0a9bc31a5e830235a8cf3769631ba7951595db2fb09c80c8260001b6111f6565b6112a97f368aec0bff52786c711c8bdd0a0c68604374a14a7da601423925293c519090aa60001b6111f6565b6112b1611b42565b73ffffffffffffffffffffffffffffffffffffffff168273ffffffffffffffffffffffffffffffffffffffff16141561131f576040517f08c379a0000000000000000000000000000000000000000000000000000000008152600401611316906134a1565b60405180910390fd5b61134b7fc352c543cc598223edef7e69a790b78070f22177e8a49630514542e0068743b860001b6111f6565b6113777f075155703d7884efdfbfddb3fad09368e3bef93346ec767b444b505c66a6d9af60001b6111f6565b6113a37f4d9a8a63891592ab08758133f753150dacc639f4bd14b7f563eddbe0c733e2fc60001b6111f6565b80600560006113b0611b42565b73ffffffffffffffffffffffffffffffffffffffff1673ffffffffffffffffffffffffffffffffffffffff16815260200190815260200160002060008473ffffffffffffffffffffffffffffffffffffffff1673ffffffffffffffffffffffffffffffffffffffff16815260200190815260200160002060006101000a81548160ff02191690831515021790555061146a7ff908aabfb7203d44260eafedffeff5717a3bb414888e7c70c791a6e8a1948f2c60001b6111f6565b6114967fca05ffa6c2994e0e17438ca07c393070fdefd47e645ad9a408a75fcd7b802a5660001b6111f6565b8173ffffffffffffffffffffffffffffffffffffffff166114b5611b42565b73ffffffffffffffffffffffffffffffffffffffff167f17307eab39ab6107e8899845ad3d59bd9653f200f220920489ca2b5937696c31836040516114fa9190613424565b60405180910390a35050565b6115327f6aeba3c0b5109b9f8a5dd80c1713efcf64e1e426ac505e03eb2f79b74e027f5960001b6111f6565b61155e7f9defbc71f646bc6e1cf598792cf36b501626ba58fa909f1162efdf1b923a9dc860001b6111f6565b61158a7fd9c04b3ede1bc59da5b7c41e2e5cb7d6234f924c9ab75e36d0e068ff5040873460001b6111f6565b6115b67f31c31820d6bed70d6a33c0b421a46c07685ff7e5912f0a6a9c4b7197484b0b7060001b6111f6565b6115c76115c1611b42565b83611cdf565b611606576040517f08c379a00000000000000000000000000000000000000000000000000000000081526004016115fd906135c1565b60405180910390fd5b6116327f828ee2bff549a6682bc2ce234915ac5866990c41cb5d7ba6a5071d82643501ec60001b6111f6565b61165e7f47ddb580117d0667c11a754c348b2d723efe34641ee0dbed7135016bbaa8af3060001b6111f6565b61168a7fd26093288d7894956559cf2de4b3402e2bb359bfabf901577305f62de0a33e9b60001b6111f6565b61169684848484612541565b50505050565b60606116ca7fc547a14cd9c64d4804d0713fcd624ec478564b34f94fd17309c25348ec4732a360001b6111f6565b6116f67fbbbfa44db2c1bda69c037ac8567f809c00c0b36133107c72d5eed7ea3190a9b360001b6111f6565b6117227f818fd6b4626144eff9bf8a2bde6c3afc4dadcf810fb1c1b6dba9460868fbb2a260001b6111f6565b61174e7f9ecedf62d13b80fc30cb56ae5c03186efb07d37ab5079cb7fec2d0dbf322e56e60001b6111f6565b61175782611a51565b611796576040517f08c379a000000000000000000000000000000000000000000000000000000000815260040161178d90613581565b60405180910390fd5b6117c27fec0084b8a8d4424db5757ca1107737fd6d248458fd19477d8225a52a6dbce2d760001b6111f6565b6117ee7fc1c12688b2fd9ca8bea2887f2f52edec3978912dfa72184548199f4590b9472860001b6111f6565b61181a7f676f8204495c23c83dc1bebdd22ac82a40d6fbaf821673ba0b0c5cec3441944360001b6111f6565b60006118246126d1565b90506118527fbd9bed326322a92000df73aed9806e38b6de40f278056979637399785e8fc10c60001b6111f6565b61187e7f935cd2aafc0b4663dbfc698853dddaa256c9ba23ca823b083110e35fd1873fc160001b6111f6565b600081511161189c57604051806020016040528060008152506118c7565b806118a68461276c565b6040516020016118b7929190613399565b6040516020818303038152906040525b915050919050565b60006118fd7f902b7a0a920627e411b3daa0d299ffc088248103f4beac611e0aa7b5556584ad60001b6111f6565b6119297fc9488f3ac4b0f1f17783e7e5593c98c76ebc5dca31eea432e9ce70eaf8ab4c3060001b6111f6565b6119557f3620174cc965b2ecb3f9e011777de86020d3e3c42d8b05e531e644fe8376e91560001b6111f6565b600560008473ffffffffffffffffffffffffffffffffffffffff1673ffffffffffffffffffffffffffffffffffffffff16815260200190815260200160002060008373ffffffffffffffffffffffffffffffffffffffff1673ffffffffffffffffffffffffffffffffffffffff16815260200190815260200160002060009054906101000a900460ff16905092915050565b60007f01ffc9a7000000000000000000000000000000000000000000000000000000007bffffffffffffffffffffffffffffffffffffffffffffffffffffffff1916827bffffffffffffffffffffffffffffffffffffffffffffffffffffffff1916149050919050565b6000611a7f7ff7daedb8bef0b80582d8f61d426cda8ea37516ba03a34036f646d65c0e764b6d60001b6111f6565b611aab7f42e1a975f76bb9f58efb18fcf259a0aa1d33dd9d20cb38e3e457e6cb9e4ca5ad60001b6111f6565b611ad77f331f11adcdd8205a85ecc05bfd100ed8fcc4e83329494921633b49ec2ec90c5460001b6111f6565b600073ffffffffffffffffffffffffffffffffffffffff166002600084815260200190815260200160002060009054906101000a900473ffffffffffffffffffffffffffffffffffffffff1673ffffffffffffffffffffffffffffffffffffffff1614159050919050565b600033905090565b611b767f479955e70cfc0426ce4eacae23a8cf5a3ad80dbf1080e2aea74983ab3b5f50c860001b6111f6565b611ba27f2d65dc8886b0159815ca4bff1563d609e10065ca9b314777e9195273d2bc60d460001b6111f6565b611bce7f9acdc9c84c198618e90e34723fb2913b27f7bdd278a5e8b33b85b25829e0e97360001b6111f6565b816004600083815260200190815260200160002060006101000a81548173ffffffffffffffffffffffffffffffffffffffff021916908373ffffffffffffffffffffffffffffffffffffffff160217905550611c4c7fe6a55c41ab64e02cfe3447aa1ca828270e1b759ef9474e63272ab9b807a7d57160001b6111f6565b611c787f2d156354dac921722837253a2af82e05aa7dedf7bf04fb391afb0d2bdd5331bd60001b6111f6565b808273ffffffffffffffffffffffffffffffffffffffff16611c9983610cb4565b73ffffffffffffffffffffffffffffffffffffffff167f8c5be1e5ebec7d5bd14f71427d1e84f3dd0314c0f7b2291e5b200ac8c7c3b92560405160405180910390a45050565b6000611d0d7faf4f76cb2727d80126718fb8de5517c0c2af442e32afa57b6466a11368b9b17360001b6111f6565b611d397f2c1d589e37394411f4ed92613dadf4a6f87729432299cb995bb56b4eab0642a260001b6111f6565b611d657f4b8304d65b64a21078503c88a5d7fe71c3d3e7b9f6d41ca192a3213e9f92f0a060001b6111f6565b611d917fc84663a1dc598080e44d5c3747f4b963db625cb328b491d0d77951783c57082960001b6111f6565b611d9a82611a51565b611dd9576040517f08c379a0000000000000000000000000000000000000000000000000000000008152600401611dd0906134c1565b60405180910390fd5b611e057fc57584526276c080d9e20a48d0f3f2217f4032269f7865a792884e9d76d0b82960001b6111f6565b611e317fc70984790aeb5e33b93b4140e9050234436b5fe7a321f0093ddd5838b594729860001b6111f6565b611e5d7f29d1a812661e40617caf7eb37bd0594d69cd7e61d5d643e42d072ec61d506e7c60001b6111f6565b6000611e6883610cb4565b9050611e967f8c4935b85bb01dc195328c277e2c21c74212e60c9c9417282532f6600a4ba30f60001b6111f6565b611ec27f1e12455970d16ca39e63fc1fc1722e7db42ade952e5028c9f8abb44f389a757860001b6111f6565b8073ffffffffffffffffffffffffffffffffffffffff168473ffffffffffffffffffffffffffffffffffffffff161480611f2f57508373ffffffffffffffffffffffffffffffffffffffff16611f178461056f565b73ffffffffffffffffffffffffffffffffffffffff16145b80611f405750611f3f81856118cf565b5b91505092915050565b611f757fa3658c5d416c22f14cbcbd604ef5bbd6f6d7cc04e965481b14cd073fb8d08a9560001b6111f6565b611fa17ff63eefbc2c814d3e5e328cd8f99d09305021c4d4ce1b5988fd92be39186b57d360001b6111f6565b611fcd7f914b128c9b1b28aeeb4e2b821d49158da2d60412f740e9da4e62b1774cfb405e60001b6111f6565b611ff97fe3fbb3a23c51ef24c5bd6fa55325554e76c7d30b4cef226d0c71fcd0d496401660001b6111f6565b8273ffffffffffffffffffffffffffffffffffffffff1661201982610cb4565b73ffffffffffffffffffffffffffffffffffffffff161461206f576040517f08c379a000000000000000000000000000000000000000000000000000000000815260040161206690613561565b60405180910390fd5b61209b7f55fe7cbb15b65b93c7b61d443c1ccc5d714db38bbd53d67978d8341485b8cab960001b6111f6565b6120c77f9c37565e5ba9da9e0702c93a3e1c47b6b050ccfaa7879aa087ec944e04df876460001b6111f6565b6120f37f0afd240ec4ada26392122a88ddb4e79966bd72d2adfe4f3ca8c2e3f733bff1ac60001b6111f6565b61211f7f75a8c391562848343dfc3e5477c83e331018a892de73fa59165c0ed5f11dfbb560001b6111f6565b600073ffffffffffffffffffffffffffffffffffffffff168273ffffffffffffffffffffffffffffffffffffffff16141561218f576040517f08c379a000000000000000000000000000000000000000000000000000000000815260040161218690613481565b60405180910390fd5b6121bb7ff590d9b60b6ef96f71605397806e4c781d3898ca248ec90639ea2c70db691cab60001b6111f6565b6121e77fd578ef65dbfdde877983f75183761010903cc93a1ccf0756ef70067c8b6e109f60001b6111f6565b6122137fab134bce2c6a0486e3f06504b0b309ce483428c91a0b95059e28680e1b6dc25160001b6111f6565b61221e8383836128cd565b61224a7f649cf62f5583d01a17cd4e0557ab084d8c8ff10dcd039ed66df1d41a5d2f99b160001b6111f6565b6122767faffcaf9890f9be32a833e128fdbf9bf60f8c67b95465780fc0500dc28b609f5d60001b6111f6565b612281600082611b4a565b6122ad7f4a7b097b1a66fe0aa5851ad84fdf7701283026db369252fa79afb1df9476bfbd60001b6111f6565b6122d97f0e4f4d553df0df7808d207d67fda19bd7828e3d7eefe4136856e14b2426909ea60001b6111f6565b6001600360008573ffffffffffffffffffffffffffffffffffffffff1673ffffffffffffffffffffffffffffffffffffffff1681526020019081526020016000206000828254612329919061371c565b9250508190555061235c7f9111ca81da309cd93b6bfdaca7fae73ea71c22b23f0f0aa4d15acbcbd05bd48860001b6111f6565b6123887f07d2ca4cd53af481ee63ea49a28c11bd0464e8f1891cad8d293bf492411ba2c760001b6111f6565b6001600360008473ffffffffffffffffffffffffffffffffffffffff1673ffffffffffffffffffffffffffffffffffffffff16815260200190815260200160002060008282546123d89190613695565b9250508190555061240b7f93618e76dbb3d477951dfc28e280aae306855a07132b0cab327b0c548b9385d960001b6111f6565b6124377fa694b0c11ca1d3b798c810d0298f91993ab85deaa61b66c2d1ed2f993d4bd70860001b6111f6565b816002600083815260200190815260200160002060006101000a81548173ffffffffffffffffffffffffffffffffffffffff021916908373ffffffffffffffffffffffffffffffffffffffff1602179055506124b57f7491f980b27ae2f3349ff685d8711db9e8621db50f2fd6fd49753c9ea9cfdb5c60001b6111f6565b6124e17fd543427256921ecfe9d7b08a53d587a490b6bd3b5224555b96fea46de0b14d1860001b6111f6565b808273ffffffffffffffffffffffffffffffffffffffff168473ffffffffffffffffffffffffffffffffffffffff167fddf252ad1be2c89b69c2b068fc378daa952ba7f163c4a11628f55a4df523b3ef60405160405180910390a4505050565b61256d7f0f61506e6c66214f420470f8cc905833f37da3b8043973bf95f0442666eef17a60001b6111f6565b6125997fbcf3d57a4948bc1e0143b7ec5f0a3ddfd10ded02ad09f558ca2edbe73eaadbbc60001b6111f6565b6125c57fdd7f68d11dafee19cd4459015acbe8789a26fed5780c1ea394f988de00fd09e360001b6111f6565b6125d0848484611f49565b6125fc7f13fd4e19979f3124f2411261f9348c9ecc098be3c348e7c7985b67a5323c110a60001b6111f6565b6126287fb6869ee5a9abc2e35f11154a2675c011ffc36e7338ed1c0020e4e1c81c8ba36460001b6111f6565b6126547fc8afc3fe568910fae96040bb98689e6fbadf38c6b1ef5578e7cf63378995c90360001b6111f6565b612660848484846128fe565b61269f576040517f08c379a000000000000000000000000000000000000000000000000000000000815260040161269690613461565b60405180910390fd5b6126cb7f71471a0005625f767cee763bd10469c5bb2528098ef11620bdd811f7cb54d14460001b6111f6565b50505050565b60606126ff7f158e6045defd9d86f78f108caf6afd663d001d61f71b59d3f096a4b473a74a1e60001b6111f6565b61272b7fe3f32e8c3b9958608087b0d3439fe813ff5baaf34029fcf97533ce14ad31bb1d60001b6111f6565b6127577f9caeb6e2f2348301314daffba1f7a1d9414b06b08cb6225d49fd39ad1110274060001b6111f6565b60405180602001604052806000815250905090565b606060008214156127b4576040518060400160405280600181526020017f300000000000000000000000000000000000000000000000000000000000000081525090506128c8565b600082905060005b600082146127e65780806127cf90613873565b915050600a826127df91906136eb565b91506127bc565b60008167ffffffffffffffff811115612802576128016139a9565b5b6040519080825280601f01601f1916602001820160405280156128345781602001600182028036833780820191505090505b5090505b600085146128c15760018261284d919061371c565b9150600a8561285c91906138bc565b60306128689190613695565b60f81b81838151811061287e5761287d61397a565b5b60200101907effffffffffffffffffffffffffffffffffffffffffffffffffffffffffffff1916908160001a905350600a856128ba91906136eb565b9450612838565b8093505050505b919050565b6128f97f2d632afbf4010bb7b4ae6beb4311b49c2fdf721c4774655660d27481b7d8f12d60001b6111f6565b505050565b600061292c7fc7a302eaf6ca14c063e5ac66f254894d34484c0db5b04f312cfb2011cd36f1f860001b6111f6565b6129587f63ac46e44195980432d3dcf55d44b8aab385ac9e5c564a0b7885326017a9d32f60001b6111f6565b6129847f47de8cb4909a3a9e54772d6b6996823dad4047d36f1465bd7da42fd1edf8225160001b6111f6565b6129a38473ffffffffffffffffffffffffffffffffffffffff16612dad565b15612d1c576129d47f2cee920f5b80ef5995d0c082f088fe633b2c1a9dbf10ca8a606dd461c8af2a4760001b6111f6565b612a007f38d5fc489742d1192b8155b8db93fe4fd100b60dfcf46b55422df1f2fe7e23d560001b6111f6565b612a2c7f5f8b07e4f33aa1a66e31ae77e8d5538aac852d68de576ed7441b47e47502d8e560001b6111f6565b8373ffffffffffffffffffffffffffffffffffffffff1663150b7a02612a50611b42565b8786866040518563ffffffff1660e01b8152600401612a7294939291906133d8565b602060405180830381600087803b158015612a8c57600080fd5b505af1925050508015612abd57506040513d601f19601f82011682018060405250810190612aba91906130cb565b60015b612c74573d8060008114612aed576040519150601f19603f3d011682016040523d82523d6000602084013e612af2565b606091505b50612b1f7ffac8c797f7feb47ba5f80b4efd9e67607750e599f65c5b775089687f667e62ef60001b6111f6565b612b4b7fba60798dc58c30ca2d339e36c20a49584c241ee3235f7d5bc1c5da33edddbfab60001b6111f6565b600081511415612c1457612b817fd3f17f7f86bce4dafa752ae9fb69a9b6132e180eec4d62dcb3a40697d16fafd360001b6111f6565b612bad7fc55478f8dbd88b7c071cb05cc4811638f5e175f5351119727bbf6a96e4300e2360001b6111f6565b612bd97fb1caed4f59d8d2fbb57bf720677e45cf55b205e4312eadc1097e892a8d00ece360001b6111f6565b6040517f08c379a0000000000000000000000000000000000000000000000000000000008152600401612c0b90613461565b60405180910390fd5b612c407fd3c8479f6751e26ac99617f5b2d6e6e7e9e3908f71684ef666f6b2f02478b7ef60001b6111f6565b612c6c7fe36a74921da8bf8615353c2804c3013d27b91ca8d4fbbfdc6bd333fd38bbe3f460001b6111f6565b805181602001fd5b612ca07f1f0f07641600b3294085d7c04592830613e475853ac8e0ba9453513989092f7760001b6111f6565b612ccc7f14b6dc363571bcacbb80a4ec61f76c5e5c56feda116c71789fd8f11e9d1b222160001b6111f6565b63150b7a0260e01b7bffffffffffffffffffffffffffffffffffffffffffffffffffffffff1916817bffffffffffffffffffffffffffffffffffffffffffffffffffffffff191614915050612da5565b612d487f814b96eb6793913d8d7c9532203ce2abe10a33c824fc1d7f97ac533ca593d66f60001b6111f6565b612d747f343090315034402be552e428b5847b86ca3c36cfd0e192038e0a24bacd10e28d60001b6111f6565b612da07f98a6f586b48b3bb04464bdae4690a73c0d271386520db703253e90d1bebca8d360001b6111f6565b600190505b949350505050565b600080823b905060008111915050919050565b6000612dd3612dce84613621565b6135fc565b905082815260208101848484011115612def57612dee6139dd565b5b612dfa8482856137ce565b509392505050565b600081359050612e1181613d8b565b92915050565b600081359050612e2681613da2565b92915050565b600081359050612e3b81613db9565b92915050565b600081359050612e5081613dd0565b92915050565b600081519050612e6581613dd0565b92915050565b600082601f830112612e8057612e7f6139d8565b5b8135612e90848260208601612dc0565b91505092915050565b600081359050612ea881613de7565b92915050565b600060208284031215612ec457612ec36139e7565b5b6000612ed284828501612e02565b91505092915050565b60008060408385031215612ef257612ef16139e7565b5b6000612f0085828601612e02565b9250506020612f1185828601612e02565b9150509250929050565b600080600060608486031215612f3457612f336139e7565b5b6000612f4286828701612e02565b9350506020612f5386828701612e02565b9250506040612f6486828701612e99565b9150509250925092565b60008060008060808587031215612f8857612f876139e7565b5b6000612f9687828801612e02565b9450506020612fa787828801612e02565b9350506040612fb887828801612e99565b925050606085013567ffffffffffffffff811115612fd957612fd86139e2565b5b612fe587828801612e6b565b91505092959194509250565b60008060408385031215613008576130076139e7565b5b600061301685828601612e02565b925050602061302785828601612e17565b9150509250929050565b60008060408385031215613048576130476139e7565b5b600061305685828601612e02565b925050602061306785828601612e99565b9150509250929050565b600060208284031215613087576130866139e7565b5b600061309584828501612e2c565b91505092915050565b6000602082840312156130b4576130b36139e7565b5b60006130c284828501612e41565b91505092915050565b6000602082840312156130e1576130e06139e7565b5b60006130ef84828501612e56565b91505092915050565b60006020828403121561310e5761310d6139e7565b5b600061311c84828501612e99565b91505092915050565b61312e81613750565b82525050565b61313d81613762565b82525050565b600061314e82613652565b6131588185613668565b93506131688185602086016137dd565b613171816139ec565b840191505092915050565b60006131878261365d565b6131918185613679565b93506131a18185602086016137dd565b6131aa816139ec565b840191505092915050565b60006131c08261365d565b6131ca818561368a565b93506131da8185602086016137dd565b80840191505092915050565b60006131f3603283613679565b91506131fe826139fd565b604082019050919050565b6000613216602483613679565b915061322182613a4c565b604082019050919050565b6000613239601983613679565b915061324482613a9b565b602082019050919050565b600061325c602c83613679565b915061326782613ac4565b604082019050919050565b600061327f603883613679565b915061328a82613b13565b604082019050919050565b60006132a2602a83613679565b91506132ad82613b62565b604082019050919050565b60006132c5602983613679565b91506132d082613bb1565b604082019050919050565b60006132e8602c83613679565b91506132f382613c00565b604082019050919050565b600061330b602983613679565b915061331682613c4f565b604082019050919050565b600061332e602f83613679565b915061333982613c9e565b604082019050919050565b6000613351602183613679565b915061335c82613ced565b604082019050919050565b6000613374603183613679565b915061337f82613d3c565b604082019050919050565b613393816137c4565b82525050565b60006133a582856131b5565b91506133b182846131b5565b91508190509392505050565b60006020820190506133d26000830184613125565b92915050565b60006080820190506133ed6000830187613125565b6133fa6020830186613125565b613407604083018561338a565b81810360608301526134198184613143565b905095945050505050565b60006020820190506134396000830184613134565b92915050565b60006020820190508181036000830152613459818461317c565b905092915050565b6000602082019050818103600083015261347a816131e6565b9050919050565b6000602082019050818103600083015261349a81613209565b9050919050565b600060208201905081810360008301526134ba8161322c565b9050919050565b600060208201905081810360008301526134da8161324f565b9050919050565b600060208201905081810360008301526134fa81613272565b9050919050565b6000602082019050818103600083015261351a81613295565b9050919050565b6000602082019050818103600083015261353a816132b8565b9050919050565b6000602082019050818103600083015261355a816132db565b9050919050565b6000602082019050818103600083015261357a816132fe565b9050919050565b6000602082019050818103600083015261359a81613321565b9050919050565b600060208201905081810360008301526135ba81613344565b9050919050565b600060208201905081810360008301526135da81613367565b9050919050565b60006020820190506135f6600083018461338a565b92915050565b6000613606613617565b90506136128282613842565b919050565b6000604051905090565b600067ffffffffffffffff82111561363c5761363b6139a9565b5b613645826139ec565b9050602081019050919050565b600081519050919050565b600081519050919050565b600082825260208201905092915050565b600082825260208201905092915050565b600081905092915050565b60006136a0826137c4565b91506136ab836137c4565b9250827fffffffffffffffffffffffffffffffffffffffffffffffffffffffffffffffff038211156136e0576136df6138ed565b5b828201905092915050565b60006136f6826137c4565b9150613701836137c4565b9250826137115761371061391c565b5b828204905092915050565b6000613727826137c4565b9150613732836137c4565b925082821015613745576137446138ed565b5b828203905092915050565b600061375b826137a4565b9050919050565b60008115159050919050565b6000819050919050565b60007fffffffff0000000000000000000000000000000000000000000000000000000082169050919050565b600073ffffffffffffffffffffffffffffffffffffffff82169050919050565b6000819050919050565b82818337600083830152505050565b60005b838110156137fb5780820151818401526020810190506137e0565b8381111561380a576000848401525b50505050565b6000600282049050600182168061382857607f821691505b6020821081141561383c5761383b61394b565b5b50919050565b61384b826139ec565b810181811067ffffffffffffffff8211171561386a576138696139a9565b5b80604052505050565b600061387e826137c4565b91507fffffffffffffffffffffffffffffffffffffffffffffffffffffffffffffffff8214156138b1576138b06138ed565b5b600182019050919050565b60006138c7826137c4565b91506138d2836137c4565b9250826138e2576138e161391c565b5b828206905092915050565b7f4e487b7100000000000000000000000000000000000000000000000000000000600052601160045260246000fd5b7f4e487b7100000000000000000000000000000000000000000000000000000000600052601260045260246000fd5b7f4e487b7100000000000000000000000000000000000000000000000000000000600052602260045260246000fd5b7f4e487b7100000000000000000000000000000000000000000000000000000000600052603260045260246000fd5b7f4e487b7100000000000000000000000000000000000000000000000000000000600052604160045260246000fd5b600080fd5b600080fd5b600080fd5b600080fd5b6000601f19601f8301169050919050565b7f4552433732313a207472616e7366657220746f206e6f6e20455243373231526560008201527f63656976657220696d706c656d656e7465720000000000000000000000000000602082015250565b7f4552433732313a207472616e7366657220746f20746865207a65726f2061646460008201527f7265737300000000000000000000000000000000000000000000000000000000602082015250565b7f4552433732313a20617070726f766520746f2063616c6c657200000000000000600082015250565b7f4552433732313a206f70657261746f7220717565727920666f72206e6f6e657860008201527f697374656e7420746f6b656e0000000000000000000000000000000000000000602082015250565b7f4552433732313a20617070726f76652063616c6c6572206973206e6f74206f7760008201527f6e6572206e6f7220617070726f76656420666f7220616c6c0000000000000000602082015250565b7f4552433732313a2062616c616e636520717565727920666f7220746865207a6560008201527f726f206164647265737300000000000000000000000000000000000000000000602082015250565b7f4552433732313a206f776e657220717565727920666f72206e6f6e657869737460008201527f656e7420746f6b656e0000000000000000000000000000000000000000000000602082015250565b7f4552433732313a20617070726f76656420717565727920666f72206e6f6e657860008201527f697374656e7420746f6b656e0000000000000000000000000000000000000000602082015250565b7f4552433732313a207472616e73666572206f6620746f6b656e2074686174206960008201527f73206e6f74206f776e0000000000000000000000000000000000000000000000602082015250565b7f4552433732314d657461646174613a2055524920717565727920666f72206e6f60008201527f6e6578697374656e7420746f6b656e0000000000000000000000000000000000602082015250565b7f4552433732313a20617070726f76616c20746f2063757272656e74206f776e6560008201527f7200000000000000000000000000000000000000000000000000000000000000602082015250565b7f4552433732313a207472616e736665722063616c6c6572206973206e6f74206f60008201527f776e6572206e6f7220617070726f766564000000000000000000000000000000602082015250565b613d9481613750565b8114613d9f57600080fd5b50565b613dab81613762565b8114613db657600080fd5b50565b613dc28161376e565b8114613dcd57600080fd5b50565b613dd981613778565b8114613de457600080fd5b50565b613df0816137c4565b8114613dfb57600080fd5b5056fea2646970667358221220bc954a257d713347e48dd5360683ed89576f0fa52eae61666ff72fcf82818f7e64736f6c63430008060033",
  "linkReferences": {},
  "deployedLinkReferences": {}
}