{
  "_format": "hh-sol-artifact-1",
  "contractName": "ERC721",
  "sourceName": "contracts/utils/ERC721.sol",
  "abi": [
    {
      "inputs": [
        {
          "internalType": "string",
          "name": "name_",
          "type": "string"
        },
        {
          "internalType": "string",
          "name": "symbol_",
          "type": "string"
        }
      ],
      "stateMutability": "nonpayable",
      "type": "constructor"
    },
    {
      "anonymous": false,
      "inputs": [
        {
          "indexed": true,
          "internalType": "address",
          "name": "owner",
          "type": "address"
        },
        {
          "indexed": true,
          "internalType": "address",
          "name": "approved",
          "type": "address"
        },
        {
          "indexed": true,
          "internalType": "uint256",
          "name": "tokenId",
          "type": "uint256"
        }
      ],
      "name": "Approval",
      "type": "event"
    },
    {
      "anonymous": false,
      "inputs": [
        {
          "indexed": true,
          "internalType": "address",
          "name": "owner",
          "type": "address"
        },
        {
          "indexed": true,
          "internalType": "address",
          "name": "operator",
          "type": "address"
        },
        {
          "indexed": false,
          "internalType": "bool",
          "name": "approved",
          "type": "bool"
        }
      ],
      "name": "ApprovalForAll",
      "type": "event"
    },
    {
      "anonymous": false,
      "inputs": [
        {
          "indexed": true,
          "internalType": "address",
          "name": "from",
          "type": "address"
        },
        {
          "indexed": true,
          "internalType": "address",
          "name": "to",
          "type": "address"
        },
        {
          "indexed": true,
          "internalType": "uint256",
          "name": "tokenId",
          "type": "uint256"
        }
      ],
      "name": "Transfer",
      "type": "event"
    },
    {
      "inputs": [
        {
          "internalType": "address",
          "name": "to",
          "type": "address"
        },
        {
          "internalType": "uint256",
          "name": "tokenId",
          "type": "uint256"
        }
      ],
      "name": "approve",
      "outputs": [],
      "stateMutability": "nonpayable",
      "type": "function"
    },
    {
      "inputs": [
        {
          "internalType": "address",
          "name": "owner",
          "type": "address"
        }
      ],
      "name": "balanceOf",
      "outputs": [
        {
          "internalType": "uint256",
          "name": "",
          "type": "uint256"
        }
      ],
      "stateMutability": "view",
      "type": "function"
    },
    {
      "inputs": [
        {
          "internalType": "bytes32",
          "name": "c__0xe784d46f",
          "type": "bytes32"
        }
      ],
      "name": "c_0xe784d46f",
      "outputs": [],
      "stateMutability": "pure",
      "type": "function"
    },
    {
      "inputs": [
        {
          "internalType": "uint256",
          "name": "tokenId",
          "type": "uint256"
        }
      ],
      "name": "getApproved",
      "outputs": [
        {
          "internalType": "address",
          "name": "",
          "type": "address"
        }
      ],
      "stateMutability": "view",
      "type": "function"
    },
    {
      "inputs": [
        {
          "internalType": "address",
          "name": "owner",
          "type": "address"
        },
        {
          "internalType": "address",
          "name": "operator",
          "type": "address"
        }
      ],
      "name": "isApprovedForAll",
      "outputs": [
        {
          "internalType": "bool",
          "name": "",
          "type": "bool"
        }
      ],
      "stateMutability": "view",
      "type": "function"
    },
    {
      "inputs": [],
      "name": "name",
      "outputs": [
        {
          "internalType": "string",
          "name": "",
          "type": "string"
        }
      ],
      "stateMutability": "view",
      "type": "function"
    },
    {
      "inputs": [
        {
          "internalType": "uint256",
          "name": "tokenId",
          "type": "uint256"
        }
      ],
      "name": "ownerOf",
      "outputs": [
        {
          "internalType": "address",
          "name": "",
          "type": "address"
        }
      ],
      "stateMutability": "view",
      "type": "function"
    },
    {
      "inputs": [
        {
          "internalType": "address",
          "name": "from",
          "type": "address"
        },
        {
          "internalType": "address",
          "name": "to",
          "type": "address"
        },
        {
          "internalType": "uint256",
          "name": "tokenId",
          "type": "uint256"
        }
      ],
      "name": "safeTransferFrom",
      "outputs": [],
      "stateMutability": "nonpayable",
      "type": "function"
    },
    {
      "inputs": [
        {
          "internalType": "address",
          "name": "from",
          "type": "address"
        },
        {
          "internalType": "address",
          "name": "to",
          "type": "address"
        },
        {
          "internalType": "uint256",
          "name": "tokenId",
          "type": "uint256"
        },
        {
          "internalType": "bytes",
          "name": "_data",
          "type": "bytes"
        }
      ],
      "name": "safeTransferFrom",
      "outputs": [],
      "stateMutability": "nonpayable",
      "type": "function"
    },
    {
      "inputs": [
        {
          "internalType": "address",
          "name": "operator",
          "type": "address"
        },
        {
          "internalType": "bool",
          "name": "approved",
          "type": "bool"
        }
      ],
      "name": "setApprovalForAll",
      "outputs": [],
      "stateMutability": "nonpayable",
      "type": "function"
    },
    {
      "inputs": [
        {
          "internalType": "bytes4",
          "name": "interfaceId",
          "type": "bytes4"
        }
      ],
      "name": "supportsInterface",
      "outputs": [
        {
          "internalType": "bool",
          "name": "",
          "type": "bool"
        }
      ],
      "stateMutability": "view",
      "type": "function"
    },
    {
      "inputs": [],
      "name": "symbol",
      "outputs": [
        {
          "internalType": "string",
          "name": "",
          "type": "string"
        }
      ],
      "stateMutability": "view",
      "type": "function"
    },
    {
      "inputs": [
        {
          "internalType": "uint256",
          "name": "tokenId",
          "type": "uint256"
        }
      ],
      "name": "tokenURI",
      "outputs": [
        {
          "internalType": "string",
          "name": "",
          "type": "string"
        }
      ],
      "stateMutability": "view",
      "type": "function"
    },
    {
      "inputs": [
        {
          "internalType": "address",
          "name": "from",
          "type": "address"
        },
        {
          "internalType": "address",
          "name": "to",
          "type": "address"
        },
        {
          "internalType": "uint256",
          "name": "tokenId",
          "type": "uint256"
        }
      ],
      "name": "transferFrom",
      "outputs": [],
      "stateMutability": "nonpayable",
      "type": "function"
    }
  ],
  "bytecode": "0x60806040523480156200001157600080fd5b50604051620042963803806200429683398181016040528101906200003791906200029a565b6200006b7f6aeba3c0b5109b9f8a5dd80c1713efcf64e1e426ac505e03eb2f79b74e027f5960001b6200017560201b60201c565b6200009f7f9defbc71f646bc6e1cf598792cf36b501626ba58fa909f1162efdf1b923a9dc860001b6200017560201b60201c565b620000d37fd9c04b3ede1bc59da5b7c41e2e5cb7d6234f924c9ab75e36d0e068ff5040873460001b6200017560201b60201c565b8160009080519060200190620000eb92919062000178565b50620001207f31c31820d6bed70d6a33c0b421a46c07685ff7e5912f0a6a9c4b7197484b0b7060001b6200017560201b60201c565b620001547f828ee2bff549a6682bc2ce234915ac5866990c41cb5d7ba6a5071d82643501ec60001b6200017560201b60201c565b80600190805190602001906200016c92919062000178565b5050506200047d565b50565b8280546200018690620003a2565b90600052602060002090601f016020900481019282620001aa5760008555620001f6565b82601f10620001c557805160ff1916838001178555620001f6565b82800160010185558215620001f6579182015b82811115620001f5578251825591602001919060010190620001d8565b5b50905062000205919062000209565b5090565b5b80821115620002245760008160009055506001016200020a565b5090565b60006200023f620002398462000336565b6200030d565b9050828152602081018484840111156200025857600080fd5b620002658482856200036c565b509392505050565b600082601f8301126200027f57600080fd5b81516200029184826020860162000228565b91505092915050565b60008060408385031215620002ae57600080fd5b600083015167ffffffffffffffff811115620002c957600080fd5b620002d7858286016200026d565b925050602083015167ffffffffffffffff811115620002f557600080fd5b62000303858286016200026d565b9150509250929050565b6000620003196200032c565b9050620003278282620003d8565b919050565b6000604051905090565b600067ffffffffffffffff8211156200035457620003536200043d565b5b6200035f826200046c565b9050602081019050919050565b60005b838110156200038c5780820151818401526020810190506200036f565b838111156200039c576000848401525b50505050565b60006002820490506001821680620003bb57607f821691505b60208210811415620003d257620003d16200040e565b5b50919050565b620003e3826200046c565b810181811067ffffffffffffffff821117156200040557620004046200043d565b5b80604052505050565b7f4e487b7100000000000000000000000000000000000000000000000000000000600052602260045260246000fd5b7f4e487b7100000000000000000000000000000000000000000000000000000000600052604160045260246000fd5b6000601f19601f8301169050919050565b613e09806200048d6000396000f3fe608060405234801561001057600080fd5b50600436106100ea5760003560e01c806370a082311161008c578063a22cb46511610066578063a22cb4651461025b578063b88d4fde14610277578063c87b56dd14610293578063e985e9c5146102c3576100ea565b806370a08231146101f157806395d89b411461022157806398f1112f1461023f576100ea565b8063095ea7b3116100c8578063095ea7b31461016d57806323b872dd1461018957806342842e0e146101a55780636352211e146101c1576100ea565b806301ffc9a7146100ef57806306fdde031461011f578063081812fc1461013d575b600080fd5b610109600480360381019061010491906130c2565b6102f3565b604051610116919061343c565b60405180910390f35b610127610459565b6040516101349190613457565b60405180910390f35b61015760048036038101906101529190613114565b61056f565b60405161016491906133d5565b60405180910390f35b6101876004803603810190610182919061305d565b610728565b005b6101a3600480360381019061019e9190612f57565b610a7c565b005b6101bf60048036038101906101ba9190612f57565b610c10565b005b6101db60048036038101906101d69190613114565b610cb4565b6040516101e891906133d5565b60405180910390f35b61020b60048036038101906102069190612ef2565b610ef3565b60405161021891906135f9565b60405180910390f35b6102296110e0565b6040516102369190613457565b60405180910390f35b61025960048036038101906102549190613099565b6111f6565b005b61027560048036038101906102709190613021565b6111f9565b005b610291600480360381019061028c9190612fa6565b611506565b005b6102ad60048036038101906102a89190613114565b61169c565b6040516102ba9190613457565b60405180910390f35b6102dd60048036038101906102d89190612f1b565b6118cf565b6040516102ea919061343c565b60405180910390f35b60006103217f47ddb580117d0667c11a754c348b2d723efe34641ee0dbed7135016bbaa8af3060001b6111f6565b61034d7fd26093288d7894956559cf2de4b3402e2bb359bfabf901577305f62de0a33e9b60001b6111f6565b6103797f0f61506e6c66214f420470f8cc905833f37da3b8043973bf95f0442666eef17a60001b6111f6565b7f80ac58cd000000000000000000000000000000000000000000000000000000007bffffffffffffffffffffffffffffffffffffffffffffffffffffffff1916827bffffffffffffffffffffffffffffffffffffffffffffffffffffffff1916148061044257507f5b5e139f000000000000000000000000000000000000000000000000000000007bffffffffffffffffffffffffffffffffffffffffffffffffffffffff1916827bffffffffffffffffffffffffffffffffffffffffffffffffffffffff1916145b806104525750610451826119e7565b5b9050919050565b60606104877f8c4935b85bb01dc195328c277e2c21c74212e60c9c9417282532f6600a4ba30f60001b6111f6565b6104b37f1e12455970d16ca39e63fc1fc1722e7db42ade952e5028c9f8abb44f389a757860001b6111f6565b6104df7fdddbf271ef41e2b61e76cfdf93a626dc25a314ebb2e3e40c4ea5ee9dc9c1e6ad60001b6111f6565b600080546104ec90613828565b80601f016020809104026020016040519081016040528092919081815260200182805461051890613828565b80156105655780601f1061053a57610100808354040283529160200191610565565b820191906000526020600020905b81548152906001019060200180831161054857829003601f168201915b5050505050905090565b600061059d7f1827e584c6dd553aad2771bfef68b963fe28f633f79afad9a39196f576e57b6460001b6111f6565b6105c97f315428852f725b1e8c887d4b93e9b99b8ab944e2148ddcc57df8758b885fbfa660001b6111f6565b6105f57f168b32863b7eae7b7568583947b76d3201e7101c4102f151b14cbc3aad5b208560001b6111f6565b6106217f7a8b89539549bea52c6338357d201151d690a08ea7e0bf3eed5f8ed162a58b1b60001b6111f6565b61062a82611a51565b610669576040517f08c379a000000000000000000000000000000000000000000000000000000000815260040161066090613559565b60405180910390fd5b6106957f141cbf3e9a6da91df252497dc0f44458823707cf08942edd7955b1722dc7055660001b6111f6565b6106c17f91314c5516b54b0816dfa534556526d401e08b5515cc39b940254831161d354d60001b6111f6565b6106ed7f5d4a62610c767348e88e29764fe37856b6f775a1fcd4ac5e8a7e8373073430db60001b6111f6565b6004600083815260200190815260200160002060009054906101000a900473ffffffffffffffffffffffffffffffffffffffff169050919050565b6107547ffea9446fea10a00a3b1aab6ab93bd4e9e98ffa1b9d6c4de58f45c7e0223fcfc560001b6111f6565b6107807fdd55a9acb86ab55083496d74008ab8643a1d0e36a51729272b4833d2ab83e63560001b6111f6565b6107ac7f28f90f3b179d468fef6b405379d37f90b7dd7af083a4e73f61d6e5342b4b1fff60001b6111f6565b60006107b782610cb4565b90506107e57f3b3911558ff5de48dc2e7fc275ee2114a0e4100ec2b8726aa5f3650dd39ec17d60001b6111f6565b6108117ffdc8d91f3d0c07dbc02557b53364c0b3c97171306b8063375f8424e7bd6159fe60001b6111f6565b61083d7f8fb8e5023f60a6bbcdf26f4ce8e979298d03deac360b436958043ec48d94fe8660001b6111f6565b8073ffffffffffffffffffffffffffffffffffffffff168373ffffffffffffffffffffffffffffffffffffffff1614156108ac576040517f08c379a00000000000000000000000000000000000000000000000000000000081526004016108a3906135b9565b60405180910390fd5b6108d87fd804596a94818a944cc993bcd2781496d22556a1ab699f9eccc045d10b0ab4ee60001b6111f6565b6109047ffafc9a820ce72ddf9d57188dcd20539cba921eae182add6a6ccfe1fc820b17d460001b6111f6565b6109307f7545ad133543fbfe6a40e55c65a8e9fcddedbeaf41f72a872bb3ea06ca28f7eb60001b6111f6565b61095c7fab65cb18f50a5cef5d9408391608219913c1d7c7beab7d0bcfdc70307114d6c460001b6111f6565b8073ffffffffffffffffffffffffffffffffffffffff1661097b611b42565b73ffffffffffffffffffffffffffffffffffffffff1614806109aa57506109a9816109a4611b42565b6118cf565b5b6109e9576040517f08c379a00000000000000000000000000000000000000000000000000000000081526004016109e0906134f9565b60405180910390fd5b610a157ff3c034b7969d676429a1e808a8ba39b315ede2dc38d5098f568acf86aac0b10b60001b6111f6565b610a417f1677e3c59271b1658591e29b9c30ffdc4ff1aa3a8318e56b8bb8a4b8e6ea9fb460001b6111f6565b610a6d7f1ff2f1e88f61cab1ba0b20dd88221206932fc773776c76f26093efe6a49b7a1560001b6111f6565b610a778383611b4a565b505050565b610aa87fd578ef65dbfdde877983f75183761010903cc93a1ccf0756ef70067c8b6e109f60001b6111f6565b610ad47fab134bce2c6a0486e3f06504b0b309ce483428c91a0b95059e28680e1b6dc25160001b6111f6565b610b007f649cf62f5583d01a17cd4e0557ab084d8c8ff10dcd039ed66df1d41a5d2f99b160001b6111f6565b610b2c7faffcaf9890f9be32a833e128fdbf9bf60f8c67b95465780fc0500dc28b609f5d60001b6111f6565b610b3d610b37611b42565b82611cdf565b610b7c576040517f08c379a0000000000000000000000000000000000000000000000000000000008152600401610b73906135d9565b60405180910390fd5b610ba87f4a7b097b1a66fe0aa5851ad84fdf7701283026db369252fa79afb1df9476bfbd60001b6111f6565b610bd47f0e4f4d553df0df7808d207d67fda19bd7828e3d7eefe4136856e14b2426909ea60001b6111f6565b610c007f9111ca81da309cd93b6bfdaca7fae73ea71c22b23f0f0aa4d15acbcbd05bd48860001b6111f6565b610c0b838383611f49565b505050565b610c3c7f07d2ca4cd53af481ee63ea49a28c11bd0464e8f1891cad8d293bf492411ba2c760001b6111f6565b610c687f93618e76dbb3d477951dfc28e280aae306855a07132b0cab327b0c548b9385d960001b6111f6565b610c947fa694b0c11ca1d3b798c810d0298f91993ab85deaa61b66c2d1ed2f993d4bd70860001b6111f6565b610caf83838360405180602001604052806000815250611506565b505050565b6000610ce27f42e1a975f76bb9f58efb18fcf259a0aa1d33dd9d20cb38e3e457e6cb9e4ca5ad60001b6111f6565b610d0e7f331f11adcdd8205a85ecc05bfd100ed8fcc4e83329494921633b49ec2ec90c5460001b6111f6565b610d3a7faf4f76cb2727d80126718fb8de5517c0c2af442e32afa57b6466a11368b9b17360001b6111f6565b60006002600084815260200190815260200160002060009054906101000a900473ffffffffffffffffffffffffffffffffffffffff169050610d9e7f2c1d589e37394411f4ed92613dadf4a6f87729432299cb995bb56b4eab0642a260001b6111f6565b610dca7f4b8304d65b64a21078503c88a5d7fe71c3d3e7b9f6d41ca192a3213e9f92f0a060001b6111f6565b610df67fc84663a1dc598080e44d5c3747f4b963db625cb328b491d0d77951783c57082960001b6111f6565b600073ffffffffffffffffffffffffffffffffffffffff168173ffffffffffffffffffffffffffffffffffffffff161415610e66576040517f08c379a0000000000000000000000000000000000000000000000000000000008152600401610e5d90613539565b60405180910390fd5b610e927fc57584526276c080d9e20a48d0f3f2217f4032269f7865a792884e9d76d0b82960001b6111f6565b610ebe7fc70984790aeb5e33b93b4140e9050234436b5fe7a321f0093ddd5838b594729860001b6111f6565b610eea7f29d1a812661e40617caf7eb37bd0594d69cd7e61d5d643e42d072ec61d506e7c60001b6111f6565b80915050919050565b6000610f217fbcf3d57a4948bc1e0143b7ec5f0a3ddfd10ded02ad09f558ca2edbe73eaadbbc60001b6111f6565b610f4d7fdd7f68d11dafee19cd4459015acbe8789a26fed5780c1ea394f988de00fd09e360001b6111f6565b610f797f13fd4e19979f3124f2411261f9348c9ecc098be3c348e7c7985b67a5323c110a60001b6111f6565b610fa57fb6869ee5a9abc2e35f11154a2675c011ffc36e7338ed1c0020e4e1c81c8ba36460001b6111f6565b600073ffffffffffffffffffffffffffffffffffffffff168273ffffffffffffffffffffffffffffffffffffffff161415611015576040517f08c379a000000000000000000000000000000000000000000000000000000000815260040161100c90613519565b60405180910390fd5b6110417fc8afc3fe568910fae96040bb98689e6fbadf38c6b1ef5578e7cf63378995c90360001b6111f6565b61106d7f71471a0005625f767cee763bd10469c5bb2528098ef11620bdd811f7cb54d14460001b6111f6565b6110997ff7daedb8bef0b80582d8f61d426cda8ea37516ba03a34036f646d65c0e764b6d60001b6111f6565b600360008373ffffffffffffffffffffffffffffffffffffffff1673ffffffffffffffffffffffffffffffffffffffff168152602001908152602001600020549050919050565b606061110e7ffd497cff94bf550dc43cdec07a4222c69aaff674c61339f3d74c1c63f3f7b72260001b6111f6565b61113a7f4e32b6348a71f607914c83496bc733e7dbab7ff2a0f7e01db1dc915c7f3bfd4960001b6111f6565b6111667ff3a38e77e0943c9eb58b08c3198a8f334964f45f3af7771358bc497eecdc956560001b6111f6565b6001805461117390613828565b80601f016020809104026020016040519081016040528092919081815260200182805461119f90613828565b80156111ec5780601f106111c1576101008083540402835291602001916111ec565b820191906000526020600020905b8154815290600101906020018083116111cf57829003601f168201915b5050505050905090565b50565b6112257fa3a31ba2a169f22fd397b90f6ce18439ce50802e1850bf6a24fa05a24761dfe760001b6111f6565b6112517f0c7654d4b1501cad4da8cec963d50a82ee1b2b74a654b6a419c839449691848c60001b6111f6565b61127d7f862e91f24da37c57d8d24478e4b195480569fc6eca7851053ff51e79d1f5222860001b6111f6565b6112a97fa3658c5d416c22f14cbcbd604ef5bbd6f6d7cc04e965481b14cd073fb8d08a9560001b6111f6565b6112b1611b42565b73ffffffffffffffffffffffffffffffffffffffff168273ffffffffffffffffffffffffffffffffffffffff16141561131f576040517f08c379a0000000000000000000000000000000000000000000000000000000008152600401611316906134b9565b60405180910390fd5b61134b7ff63eefbc2c814d3e5e328cd8f99d09305021c4d4ce1b5988fd92be39186b57d360001b6111f6565b6113777f914b128c9b1b28aeeb4e2b821d49158da2d60412f740e9da4e62b1774cfb405e60001b6111f6565b6113a37fe3fbb3a23c51ef24c5bd6fa55325554e76c7d30b4cef226d0c71fcd0d496401660001b6111f6565b80600560006113b0611b42565b73ffffffffffffffffffffffffffffffffffffffff1673ffffffffffffffffffffffffffffffffffffffff16815260200190815260200160002060008473ffffffffffffffffffffffffffffffffffffffff1673ffffffffffffffffffffffffffffffffffffffff16815260200190815260200160002060006101000a81548160ff02191690831515021790555061146a7f55fe7cbb15b65b93c7b61d443c1ccc5d714db38bbd53d67978d8341485b8cab960001b6111f6565b6114967f9c37565e5ba9da9e0702c93a3e1c47b6b050ccfaa7879aa087ec944e04df876460001b6111f6565b8173ffffffffffffffffffffffffffffffffffffffff166114b5611b42565b73ffffffffffffffffffffffffffffffffffffffff167f17307eab39ab6107e8899845ad3d59bd9653f200f220920489ca2b5937696c31836040516114fa919061343c565b60405180910390a35050565b6115327f7491f980b27ae2f3349ff685d8711db9e8621db50f2fd6fd49753c9ea9cfdb5c60001b6111f6565b61155e7fd543427256921ecfe9d7b08a53d587a490b6bd3b5224555b96fea46de0b14d1860001b6111f6565b61158a7f479955e70cfc0426ce4eacae23a8cf5a3ad80dbf1080e2aea74983ab3b5f50c860001b6111f6565b6115b67f2d65dc8886b0159815ca4bff1563d609e10065ca9b314777e9195273d2bc60d460001b6111f6565b6115c76115c1611b42565b83611cdf565b611606576040517f08c379a00000000000000000000000000000000000000000000000000000000081526004016115fd906135d9565b60405180910390fd5b6116327f9acdc9c84c198618e90e34723fb2913b27f7bdd278a5e8b33b85b25829e0e97360001b6111f6565b61165e7fe6a55c41ab64e02cfe3447aa1ca828270e1b759ef9474e63272ab9b807a7d57160001b6111f6565b61168a7f2d156354dac921722837253a2af82e05aa7dedf7bf04fb391afb0d2bdd5331bd60001b6111f6565b61169684848484612541565b50505050565b60606116ca7fe23f4ed7effcc424244926d6628c8d7b620b7e120ae184e5f0a72540ae1df0be60001b6111f6565b6116f67f3a2506c9d72728e8905d5cc9e1df5659a24d9d4b611faea97c40084642bebccb60001b6111f6565b6117227f256d02d3b2e56f07ef4b2651eb03885e6e7799778540f09b1819350442c543fa60001b6111f6565b61174e7fc2f64e4b2b5be7139911e2439380c5be6afb514546f543fd95ad70d779723c8e60001b6111f6565b61175782611a51565b611796576040517f08c379a000000000000000000000000000000000000000000000000000000000815260040161178d90613599565b60405180910390fd5b6117c27f1650f46feab19d22092ff0857de88596c04c1ccd3bf5444e3907bef5089114af60001b6111f6565b6117ee7fad8fcbbaa9776e8c7d5e0ebd2713e6efe850ff87047de1ab0c321dbeee0ca6fc60001b6111f6565b61181a7fd99f0f8e94890eb38bcb332bb627ec6411803c3fd8a92046d1531ddbbe218c0b60001b6111f6565b60006118246126d1565b90506118527f7e2c7d977948cf92c0b0fcc7ab5b4f5da4cd8a8cf16158e40e6468ad215cb3e560001b6111f6565b61187e7f0af56e2621134c7b99a12ecbec8e03ba57e6ac4b65c18c149d2e6b789e35313360001b6111f6565b600081511161189c57604051806020016040528060008152506118c7565b806118a68461276c565b6040516020016118b79291906133b1565b6040516020818303038152906040525b915050919050565b60006118fd7f0afd240ec4ada26392122a88ddb4e79966bd72d2adfe4f3ca8c2e3f733bff1ac60001b6111f6565b6119297f75a8c391562848343dfc3e5477c83e331018a892de73fa59165c0ed5f11dfbb560001b6111f6565b6119557ff590d9b60b6ef96f71605397806e4c781d3898ca248ec90639ea2c70db691cab60001b6111f6565b600560008473ffffffffffffffffffffffffffffffffffffffff1673ffffffffffffffffffffffffffffffffffffffff16815260200190815260200160002060008373ffffffffffffffffffffffffffffffffffffffff1673ffffffffffffffffffffffffffffffffffffffff16815260200190815260200160002060009054906101000a900460ff16905092915050565b60007f01ffc9a7000000000000000000000000000000000000000000000000000000007bffffffffffffffffffffffffffffffffffffffffffffffffffffffff1916827bffffffffffffffffffffffffffffffffffffffffffffffffffffffff1916149050919050565b6000611a7f7f14b6dc363571bcacbb80a4ec61f76c5e5c56feda116c71789fd8f11e9d1b222160001b6111f6565b611aab7ffac8c797f7feb47ba5f80b4efd9e67607750e599f65c5b775089687f667e62ef60001b6111f6565b611ad77fba60798dc58c30ca2d339e36c20a49584c241ee3235f7d5bc1c5da33edddbfab60001b6111f6565b600073ffffffffffffffffffffffffffffffffffffffff166002600084815260200190815260200160002060009054906101000a900473ffffffffffffffffffffffffffffffffffffffff1673ffffffffffffffffffffffffffffffffffffffff1614159050919050565b600033905090565b611b767f2ea853659caff3b0e26fff5c46df4b866f0ac09dba3d93bf18cb5847287e872460001b6111f6565b611ba27fdea50187207027ddef73a0c31a309ccc7bb2a89fcadff549710eeffeca04c7a060001b6111f6565b611bce7f1173e6cdcd866b658ffdf2ad9464e8513bbd4c7b00d36f433cbd364c23ccb77860001b6111f6565b816004600083815260200190815260200160002060006101000a81548173ffffffffffffffffffffffffffffffffffffffff021916908373ffffffffffffffffffffffffffffffffffffffff160217905550611c4c7ff83a752baf8e008ef4ba9f27ae1117945fde69e645d33256c6816a0037f5574f60001b6111f6565b611c787fbceeddf5d3d69e49bccc3a0c0e8a680ed4500df1e3e4842051b4335354fcaf3c60001b6111f6565b808273ffffffffffffffffffffffffffffffffffffffff16611c9983610cb4565b73ffffffffffffffffffffffffffffffffffffffff167f8c5be1e5ebec7d5bd14f71427d1e84f3dd0314c0f7b2291e5b200ac8c7c3b92560405160405180910390a45050565b6000611d0d7fd3f17f7f86bce4dafa752ae9fb69a9b6132e180eec4d62dcb3a40697d16fafd360001b6111f6565b611d397fc55478f8dbd88b7c071cb05cc4811638f5e175f5351119727bbf6a96e4300e2360001b6111f6565b611d657fb1caed4f59d8d2fbb57bf720677e45cf55b205e4312eadc1097e892a8d00ece360001b6111f6565b611d917fd3c8479f6751e26ac99617f5b2d6e6e7e9e3908f71684ef666f6b2f02478b7ef60001b6111f6565b611d9a82611a51565b611dd9576040517f08c379a0000000000000000000000000000000000000000000000000000000008152600401611dd0906134d9565b60405180910390fd5b611e057fe36a74921da8bf8615353c2804c3013d27b91ca8d4fbbfdc6bd333fd38bbe3f460001b6111f6565b611e317f814b96eb6793913d8d7c9532203ce2abe10a33c824fc1d7f97ac533ca593d66f60001b6111f6565b611e5d7f343090315034402be552e428b5847b86ca3c36cfd0e192038e0a24bacd10e28d60001b6111f6565b6000611e6883610cb4565b9050611e967f98a6f586b48b3bb04464bdae4690a73c0d271386520db703253e90d1bebca8d360001b6111f6565b611ec27f2d632afbf4010bb7b4ae6beb4311b49c2fdf721c4774655660d27481b7d8f12d60001b6111f6565b8073ffffffffffffffffffffffffffffffffffffffff168473ffffffffffffffffffffffffffffffffffffffff161480611f2f57508373ffffffffffffffffffffffffffffffffffffffff16611f178461056f565b73ffffffffffffffffffffffffffffffffffffffff16145b80611f405750611f3f81856118cf565b5b91505092915050565b611f757fc78fc7f94a6d481c3f29bd5d3818843fcb1718e7dd646fc5385405744cd6b1d360001b6111f6565b611fa17f18e19a9e92fd32f341f108a070484a27a76e97891faf104e324c3f15ebac3a9460001b6111f6565b611fcd7f8f11b91d59060b17a22729a43fc7009893a5b8275b3d20182b5d2cd222d82f9f60001b6111f6565b611ff97f9181ad9f50e241e806f592c0729e27d8398aec3671e7ef210e9dfc14ab34741660001b6111f6565b8273ffffffffffffffffffffffffffffffffffffffff1661201982610cb4565b73ffffffffffffffffffffffffffffffffffffffff161461206f576040517f08c379a000000000000000000000000000000000000000000000000000000000815260040161206690613579565b60405180910390fd5b61209b7fdf09bb21d9c0ccd7dffd77c8f2e10d29b40a132e58822a51e69a070db83d010760001b6111f6565b6120c77f317513a8c4d0934dad205598f48d0dad62e9767ba25969ea9266948676bbe7a160001b6111f6565b6120f37f4a36e6ee1e2b0789d25dfa8a72ab5af678a7b7602b73306f99746112d8aedac260001b6111f6565b61211f7f15e36972138a6ea319a93713c050740a59df9a58a3f36b603c3a88562630ab1c60001b6111f6565b600073ffffffffffffffffffffffffffffffffffffffff168273ffffffffffffffffffffffffffffffffffffffff16141561218f576040517f08c379a000000000000000000000000000000000000000000000000000000000815260040161218690613499565b60405180910390fd5b6121bb7f5ca7be8bd271f78bb761d4d090e7c66688cfe23e7108f8e8a093a0d107154cbc60001b6111f6565b6121e77fa1fe706dcf39e39db4e8b5822fd8f1162c0cfd3e74dbb76f5556871b34adfcff60001b6111f6565b6122137f8cfb7459b13742d3d6d737a31d69544a451c064f100561b517d6deebadc4e34360001b6111f6565b61221e838383612919565b61224a7f737da5afd6755ba66594b405c7ba0a34a964084bbd9a7da3feb4f67872b1bd6860001b6111f6565b6122767f1c1c057feab61b2a2576cee3d69b7d4837622523e3ff08f2a0cc2fc7e1d64ca260001b6111f6565b612281600082611b4a565b6122ad7f0fb57949c1b384c1b3e96d27c96ecf109ca54e93349a07e06197b81b0c2359d960001b6111f6565b6122d97f4e8cd8bec21cc4653793f3b450cf31252cc4b44899b45e5213c3e4ad5789795360001b6111f6565b6001600360008573ffffffffffffffffffffffffffffffffffffffff1673ffffffffffffffffffffffffffffffffffffffff16815260200190815260200160002060008282546123299190613734565b9250508190555061235c7f5cc87b59b4d05a0c2bbd5bb75e89f5a78d32ff0bd0a3daab0ac975d9a1f5293660001b6111f6565b6123887f224116c5d598a8e08c1a2dc1a963604e05afaccfa95cfafc585f335b37404cf360001b6111f6565b6001600360008473ffffffffffffffffffffffffffffffffffffffff1673ffffffffffffffffffffffffffffffffffffffff16815260200190815260200160002060008282546123d891906136ad565b9250508190555061240b7f58e931d3d59d3e80a227b25d8019e2f942e6cb9d57de1b4d753a84db4b8bd41060001b6111f6565b6124377f16eb7943649a43eba0d942b7fca034529b45373a176f089098c5835325e5405660001b6111f6565b816002600083815260200190815260200160002060006101000a81548173ffffffffffffffffffffffffffffffffffffffff021916908373ffffffffffffffffffffffffffffffffffffffff1602179055506124b57f892d84e04e5db03e511e723a1eacef76c9fbf79ce3548ebdc3a533cfb204d34360001b6111f6565b6124e17f7fac5433aed1bb1d42f14dbcf884f4b6e84ebe32ca68c12a6a86bd71796071dc60001b6111f6565b808273ffffffffffffffffffffffffffffffffffffffff168473ffffffffffffffffffffffffffffffffffffffff167fddf252ad1be2c89b69c2b068fc378daa952ba7f163c4a11628f55a4df523b3ef60405160405180910390a4505050565b61256d7fc7a302eaf6ca14c063e5ac66f254894d34484c0db5b04f312cfb2011cd36f1f860001b6111f6565b6125997f63ac46e44195980432d3dcf55d44b8aab385ac9e5c564a0b7885326017a9d32f60001b6111f6565b6125c57f47de8cb4909a3a9e54772d6b6996823dad4047d36f1465bd7da42fd1edf8225160001b6111f6565b6125d0848484611f49565b6125fc7f2cee920f5b80ef5995d0c082f088fe633b2c1a9dbf10ca8a606dd461c8af2a4760001b6111f6565b6126287f38d5fc489742d1192b8155b8db93fe4fd100b60dfcf46b55422df1f2fe7e23d560001b6111f6565b6126547f5f8b07e4f33aa1a66e31ae77e8d5538aac852d68de576ed7441b47e47502d8e560001b6111f6565b6126608484848461294a565b61269f576040517f08c379a000000000000000000000000000000000000000000000000000000000815260040161269690613479565b60405180910390fd5b6126cb7f1f0f07641600b3294085d7c04592830613e475853ac8e0ba9453513989092f7760001b6111f6565b50505050565b60606126ff7fe6e62fd49054d6f135101450fd78aa19df5c66be1a58f4c5b7d95240b8d7e5cd60001b6111f6565b61272b7f5737fbf0a7404785797cbf0bbdb43e56806a0a9d039f9fe2ac688d7d5c29a2db60001b6111f6565b6127577f634b368443676da5e0a3df577e779e7881df2ccf03f56615fdd422b8a4b9ab3060001b6111f6565b60405180602001604052806000815250905090565b606060008214156127b4576040518060400160405280600181526020017f30000000000000000000000000000000000000000000000000000000000000008152509050612914565b600082905060005b600082146127e65780806127cf9061388b565b915050600a826127df9190613703565b91506127bc565b60008167ffffffffffffffff811115612828577f4e487b7100000000000000000000000000000000000000000000000000000000600052604160045260246000fd5b6040519080825280601f01601f19166020018201604052801561285a5781602001600182028036833780820191505090505b5090505b6000851461290d576001826128739190613734565b9150600a8561288291906138d4565b603061288e91906136ad565b60f81b8183815181106128ca577f4e487b7100000000000000000000000000000000000000000000000000000000600052603260045260246000fd5b60200101907effffffffffffffffffffffffffffffffffffffffffffffffffffffffffffff1916908160001a905350600a856129069190613703565b945061285e565b8093505050505b919050565b6129457f3eac647962e411bc0ee7a2fe3d4c21b453232fdba0de60c1ab8a86c530164dd160001b6111f6565b505050565b60006129787f29b7bc1f8f7df03b40f69ff0a5f32361630d8b65cbc19e9c4397ee08985c984c60001b6111f6565b6129a47fd56b1d183952c3cdfb3b59ff8992aa85aee73061a4ce0c011c9c83f4a65894c860001b6111f6565b6129d07f548aca03dc91cc82acac6c06ef0678a2480dec05c784641637f609b66e1ebfbf60001b6111f6565b6129ef8473ffffffffffffffffffffffffffffffffffffffff16612df9565b15612d6857612a207f0bbb436ace3fc92910b9e180e4a5965634b61fca2d49c0b0ee1a846cf2fac97f60001b6111f6565b612a4c7f7ab22d251ea3be32b89e529e787a414ff1c5b9bee75a768965fb7a766d89cb6a60001b6111f6565b612a787f7a117378cde1ed75be4e21f9d5593eef809d9cbf46054d06fe4871648025375760001b6111f6565b8373ffffffffffffffffffffffffffffffffffffffff1663150b7a02612a9c611b42565b8786866040518563ffffffff1660e01b8152600401612abe94939291906133f0565b602060405180830381600087803b158015612ad857600080fd5b505af1925050508015612b0957506040513d601f19601f82011682018060405250810190612b0691906130eb565b60015b612cc0573d8060008114612b39576040519150601f19603f3d011682016040523d82523d6000602084013e612b3e565b606091505b50612b6b7f0628c21a106464fbe0892d45f65948f20d73a98e677a55bf7b3c243dc03d17dc60001b6111f6565b612b977f9e07e7d2690ed5fce2c91fcd8f1b8412d36055fe1f5a853891e441ede327606660001b6111f6565b600081511415612c6057612bcd7f9db7713cf8238f53e42880f5f22f89e0cb0cad9429309dc68798847906f9570460001b6111f6565b612bf97fa052a97548ac27b07a9a4e88a0ff044775b4d5cd758b7484b8cac828745147ab60001b6111f6565b612c257f9a6bf052521c329501f49b907fac51900e8c625a6c1abed9d5b8e33ed11e5c3360001b6111f6565b6040517f08c379a0000000000000000000000000000000000000000000000000000000008152600401612c5790613479565b60405180910390fd5b612c8c7f265f88c722f2929fadcff89bfd8319c2af4e265c315cfa0e4d1be8119807fd3260001b6111f6565b612cb87f13232ea34caf30d108d13c91fb2668d22fc6b088663a9619282e58dd8b5d1df360001b6111f6565b805181602001fd5b612cec7ff9c6b8a350054ff320b20d2ab933c99d25a9ba211e21320efd1cdf51e8d58abf60001b6111f6565b612d187fd6e693a436ec7a569b8abcd1e9611ee8541bab64e0b0ac59bf2d9ba2bbbbdb2260001b6111f6565b63150b7a0260e01b7bffffffffffffffffffffffffffffffffffffffffffffffffffffffff1916817bffffffffffffffffffffffffffffffffffffffffffffffffffffffff191614915050612df1565b612d947fdc1205a3231145ebf91aaead931b451b5c6cccfb4422003fe989f77ff17324a560001b6111f6565b612dc07f2936ca4e2c9c28cddf4ef20279e7c5189dbcfba2ff0cda0f9126ccfe0dea63a660001b6111f6565b612dec7fab3a06e4f77721d5a149fa10567092a4352b47f9873427da0b76e94a90ed2e7960001b6111f6565b600190505b949350505050565b600080823b905060008111915050919050565b6000612e1f612e1a84613639565b613614565b905082815260208101848484011115612e3757600080fd5b612e428482856137e6565b509392505050565b600081359050612e5981613d60565b92915050565b600081359050612e6e81613d77565b92915050565b600081359050612e8381613d8e565b92915050565b600081359050612e9881613da5565b92915050565b600081519050612ead81613da5565b92915050565b600082601f830112612ec457600080fd5b8135612ed4848260208601612e0c565b91505092915050565b600081359050612eec81613dbc565b92915050565b600060208284031215612f0457600080fd5b6000612f1284828501612e4a565b91505092915050565b60008060408385031215612f2e57600080fd5b6000612f3c85828601612e4a565b9250506020612f4d85828601612e4a565b9150509250929050565b600080600060608486031215612f6c57600080fd5b6000612f7a86828701612e4a565b9350506020612f8b86828701612e4a565b9250506040612f9c86828701612edd565b9150509250925092565b60008060008060808587031215612fbc57600080fd5b6000612fca87828801612e4a565b9450506020612fdb87828801612e4a565b9350506040612fec87828801612edd565b925050606085013567ffffffffffffffff81111561300957600080fd5b61301587828801612eb3565b91505092959194509250565b6000806040838503121561303457600080fd5b600061304285828601612e4a565b925050602061305385828601612e5f565b9150509250929050565b6000806040838503121561307057600080fd5b600061307e85828601612e4a565b925050602061308f85828601612edd565b9150509250929050565b6000602082840312156130ab57600080fd5b60006130b984828501612e74565b91505092915050565b6000602082840312156130d457600080fd5b60006130e284828501612e89565b91505092915050565b6000602082840312156130fd57600080fd5b600061310b84828501612e9e565b91505092915050565b60006020828403121561312657600080fd5b600061313484828501612edd565b91505092915050565b61314681613768565b82525050565b6131558161377a565b82525050565b60006131668261366a565b6131708185613680565b93506131808185602086016137f5565b613189816139c1565b840191505092915050565b600061319f82613675565b6131a98185613691565b93506131b98185602086016137f5565b6131c2816139c1565b840191505092915050565b60006131d882613675565b6131e281856136a2565b93506131f28185602086016137f5565b80840191505092915050565b600061320b603283613691565b9150613216826139d2565b604082019050919050565b600061322e602483613691565b915061323982613a21565b604082019050919050565b6000613251601983613691565b915061325c82613a70565b602082019050919050565b6000613274602c83613691565b915061327f82613a99565b604082019050919050565b6000613297603883613691565b91506132a282613ae8565b604082019050919050565b60006132ba602a83613691565b91506132c582613b37565b604082019050919050565b60006132dd602983613691565b91506132e882613b86565b604082019050919050565b6000613300602c83613691565b915061330b82613bd5565b604082019050919050565b6000613323602983613691565b915061332e82613c24565b604082019050919050565b6000613346602f83613691565b915061335182613c73565b604082019050919050565b6000613369602183613691565b915061337482613cc2565b604082019050919050565b600061338c603183613691565b915061339782613d11565b604082019050919050565b6133ab816137dc565b82525050565b60006133bd82856131cd565b91506133c982846131cd565b91508190509392505050565b60006020820190506133ea600083018461313d565b92915050565b6000608082019050613405600083018761313d565b613412602083018661313d565b61341f60408301856133a2565b8181036060830152613431818461315b565b905095945050505050565b6000602082019050613451600083018461314c565b92915050565b600060208201905081810360008301526134718184613194565b905092915050565b60006020820190508181036000830152613492816131fe565b9050919050565b600060208201905081810360008301526134b281613221565b9050919050565b600060208201905081810360008301526134d281613244565b9050919050565b600060208201905081810360008301526134f281613267565b9050919050565b600060208201905081810360008301526135128161328a565b9050919050565b60006020820190508181036000830152613532816132ad565b9050919050565b60006020820190508181036000830152613552816132d0565b9050919050565b60006020820190508181036000830152613572816132f3565b9050919050565b6000602082019050818103600083015261359281613316565b9050919050565b600060208201905081810360008301526135b281613339565b9050919050565b600060208201905081810360008301526135d28161335c565b9050919050565b600060208201905081810360008301526135f28161337f565b9050919050565b600060208201905061360e60008301846133a2565b92915050565b600061361e61362f565b905061362a828261385a565b919050565b6000604051905090565b600067ffffffffffffffff82111561365457613653613992565b5b61365d826139c1565b9050602081019050919050565b600081519050919050565b600081519050919050565b600082825260208201905092915050565b600082825260208201905092915050565b600081905092915050565b60006136b8826137dc565b91506136c3836137dc565b9250827fffffffffffffffffffffffffffffffffffffffffffffffffffffffffffffffff038211156136f8576136f7613905565b5b828201905092915050565b600061370e826137dc565b9150613719836137dc565b92508261372957613728613934565b5b828204905092915050565b600061373f826137dc565b915061374a836137dc565b92508282101561375d5761375c613905565b5b828203905092915050565b6000613773826137bc565b9050919050565b60008115159050919050565b6000819050919050565b60007fffffffff0000000000000000000000000000000000000000000000000000000082169050919050565b600073ffffffffffffffffffffffffffffffffffffffff82169050919050565b6000819050919050565b82818337600083830152505050565b60005b838110156138135780820151818401526020810190506137f8565b83811115613822576000848401525b50505050565b6000600282049050600182168061384057607f821691505b6020821081141561385457613853613963565b5b50919050565b613863826139c1565b810181811067ffffffffffffffff8211171561388257613881613992565b5b80604052505050565b6000613896826137dc565b91507fffffffffffffffffffffffffffffffffffffffffffffffffffffffffffffffff8214156138c9576138c8613905565b5b600182019050919050565b60006138df826137dc565b91506138ea836137dc565b9250826138fa576138f9613934565b5b828206905092915050565b7f4e487b7100000000000000000000000000000000000000000000000000000000600052601160045260246000fd5b7f4e487b7100000000000000000000000000000000000000000000000000000000600052601260045260246000fd5b7f4e487b7100000000000000000000000000000000000000000000000000000000600052602260045260246000fd5b7f4e487b7100000000000000000000000000000000000000000000000000000000600052604160045260246000fd5b6000601f19601f8301169050919050565b7f4552433732313a207472616e7366657220746f206e6f6e20455243373231526560008201527f63656976657220696d706c656d656e7465720000000000000000000000000000602082015250565b7f4552433732313a207472616e7366657220746f20746865207a65726f2061646460008201527f7265737300000000000000000000000000000000000000000000000000000000602082015250565b7f4552433732313a20617070726f766520746f2063616c6c657200000000000000600082015250565b7f4552433732313a206f70657261746f7220717565727920666f72206e6f6e657860008201527f697374656e7420746f6b656e0000000000000000000000000000000000000000602082015250565b7f4552433732313a20617070726f76652063616c6c6572206973206e6f74206f7760008201527f6e6572206e6f7220617070726f76656420666f7220616c6c0000000000000000602082015250565b7f4552433732313a2062616c616e636520717565727920666f7220746865207a6560008201527f726f206164647265737300000000000000000000000000000000000000000000602082015250565b7f4552433732313a206f776e657220717565727920666f72206e6f6e657869737460008201527f656e7420746f6b656e0000000000000000000000000000000000000000000000602082015250565b7f4552433732313a20617070726f76656420717565727920666f72206e6f6e657860008201527f697374656e7420746f6b656e0000000000000000000000000000000000000000602082015250565b7f4552433732313a207472616e73666572206f6620746f6b656e2074686174206960008201527f73206e6f74206f776e0000000000000000000000000000000000000000000000602082015250565b7f4552433732314d657461646174613a2055524920717565727920666f72206e6f60008201527f6e6578697374656e7420746f6b656e0000000000000000000000000000000000602082015250565b7f4552433732313a20617070726f76616c20746f2063757272656e74206f776e6560008201527f7200000000000000000000000000000000000000000000000000000000000000602082015250565b7f4552433732313a207472616e736665722063616c6c6572206973206e6f74206f60008201527f776e6572206e6f7220617070726f766564000000000000000000000000000000602082015250565b613d6981613768565b8114613d7457600080fd5b50565b613d808161377a565b8114613d8b57600080fd5b50565b613d9781613786565b8114613da257600080fd5b50565b613dae81613790565b8114613db957600080fd5b50565b613dc5816137dc565b8114613dd057600080fd5b5056fea2646970667358221220f48ce24341964a88d097854b675769a2f45b882c5c653805cbf2dfc79634ca8564736f6c63430008040033",
  "linkReferences": {},
  "deployedLinkReferences": {}
}