{
  "_format": "hh-sol-artifact-1",
  "contractName": "Controller",
  "sourceName": "contracts/MVP/Controller.sol",
  "abi": [
    {
      "inputs": [
        {
          "internalType": "bytes32",
          "name": "c__0xc97d8fa7",
          "type": "bytes32"
        }
      ],
      "name": "c_0xc97d8fa7",
      "outputs": [],
      "stateMutability": "pure",
      "type": "function"
    },
    {
      "inputs": [],
      "name": "ipvc_version",
      "outputs": [
        {
          "internalType": "string",
          "name": "",
          "type": "string"
        }
      ],
      "stateMutability": "view",
      "type": "function"
    }
  ],
  "bytecode": "0x608060405234801561001057600080fd5b50610201806100206000396000f3fe608060405234801561001057600080fd5b50600436106100365760003560e01c80630de92adb1461003b578063575f6a9d14610057575b600080fd5b610055600480360381019061005091906100c6565b610075565b005b61005f610078565b60405161006c9190610128565b60405180910390f35b50565b6040518060400160405280600a81526020017f302e312e302d626574610000000000000000000000000000000000000000000081525081565b6000813590506100c0816101b4565b92915050565b6000602082840312156100d857600080fd5b60006100e6848285016100b1565b91505092915050565b60006100fa8261014a565b6101048185610155565b9350610114818560208601610170565b61011d816101a3565b840191505092915050565b6000602082019050818103600083015261014281846100ef565b905092915050565b600081519050919050565b600082825260208201905092915050565b6000819050919050565b60005b8381101561018e578082015181840152602081019050610173565b8381111561019d576000848401525b50505050565b6000601f19601f8301169050919050565b6101bd81610166565b81146101c857600080fd5b5056fea2646970667358221220ed716e5ea6a25b0b7a9e9fc4c76c454dcd1b1257203ad78187981052e573980664736f6c63430008040033",
  "linkReferences": {},
  "deployedLinkReferences": {}
}