{
  "_format": "hh-sol-artifact-1",
  "contractName": "Controller",
  "sourceName": "contracts/MVP/Controller.sol",
  "abi": [
    {
      "inputs": [],
      "stateMutability": "nonpayable",
      "type": "constructor"
    },
    {
      "inputs": [],
      "name": "admin",
      "outputs": [
        {
          "internalType": "address",
          "name": "",
          "type": "address"
        }
      ],
      "stateMutability": "view",
      "type": "function"
    },
    {
      "inputs": [
        {
          "internalType": "bytes32",
          "name": "c__0x2990dd1c",
          "type": "bytes32"
        }
      ],
      "name": "c_0x2990dd1c",
      "outputs": [],
      "stateMutability": "pure",
      "type": "function"
    },
    {
      "inputs": [
        {
          "internalType": "bytes32",
          "name": "c__0xc97d8fa7",
          "type": "bytes32"
        }
      ],
      "name": "c_0xc97d8fa7",
      "outputs": [],
      "stateMutability": "pure",
      "type": "function"
    },
    {
      "inputs": [
        {
          "internalType": "address",
          "name": "_to",
          "type": "address"
        },
        {
          "internalType": "address",
          "name": "_from",
          "type": "address"
        },
        {
          "internalType": "bytes",
          "name": "_metadata",
          "type": "bytes"
        }
      ],
      "name": "generateHash",
      "outputs": [
        {
          "internalType": "bytes32",
          "name": "",
          "type": "bytes32"
        }
      ],
      "stateMutability": "pure",
      "type": "function"
    },
    {
      "inputs": [
        {
          "internalType": "address",
          "name": "_owner",
          "type": "address"
        },
        {
          "internalType": "uint256",
          "name": "_gene",
          "type": "uint256"
        },
        {
          "internalType": "bytes",
          "name": "_metadata",
          "type": "bytes"
        },
        {
          "internalType": "bytes",
          "name": "_originSignature",
          "type": "bytes"
        }
      ],
      "name": "generateWarrior",
      "outputs": [],
      "stateMutability": "nonpayable",
      "type": "function"
    },
    {
      "inputs": [
        {
          "internalType": "bytes32",
          "name": "_messageHash",
          "type": "bytes32"
        }
      ],
      "name": "getEthSignedMessageHash",
      "outputs": [
        {
          "internalType": "bytes32",
          "name": "",
          "type": "bytes32"
        }
      ],
      "stateMutability": "pure",
      "type": "function"
    },
    {
      "inputs": [
        {
          "internalType": "address",
          "name": "_origin",
          "type": "address"
        },
        {
          "internalType": "address",
          "name": "_warriorsContract",
          "type": "address"
        },
        {
          "internalType": "address",
          "name": "_warriorGeneGeneratorContract",
          "type": "address"
        }
      ],
      "name": "initialize",
      "outputs": [],
      "stateMutability": "nonpayable",
      "type": "function"
    },
    {
      "inputs": [],
      "name": "ipvc_version",
      "outputs": [
        {
          "internalType": "string",
          "name": "",
          "type": "string"
        }
      ],
      "stateMutability": "view",
      "type": "function"
    },
    {
      "inputs": [],
      "name": "isInitialized",
      "outputs": [
        {
          "internalType": "uint8",
          "name": "",
          "type": "uint8"
        }
      ],
      "stateMutability": "view",
      "type": "function"
    },
    {
      "inputs": [],
      "name": "origin",
      "outputs": [
        {
          "internalType": "address",
          "name": "",
          "type": "address"
        }
      ],
      "stateMutability": "view",
      "type": "function"
    },
    {
      "inputs": [
        {
          "internalType": "bytes32",
          "name": "_ethSignedMessageHash",
          "type": "bytes32"
        },
        {
          "internalType": "bytes",
          "name": "_signature",
          "type": "bytes"
        }
      ],
      "name": "recoverSigner",
      "outputs": [
        {
          "internalType": "address",
          "name": "",
          "type": "address"
        }
      ],
      "stateMutability": "pure",
      "type": "function"
    },
    {
      "inputs": [
        {
          "internalType": "bytes",
          "name": "sig",
          "type": "bytes"
        }
      ],
      "name": "splitSignature",
      "outputs": [
        {
          "internalType": "bytes32",
          "name": "r",
          "type": "bytes32"
        },
        {
          "internalType": "bytes32",
          "name": "s",
          "type": "bytes32"
        },
        {
          "internalType": "uint8",
          "name": "v",
          "type": "uint8"
        }
      ],
      "stateMutability": "pure",
      "type": "function"
    },
    {
      "inputs": [
        {
          "internalType": "address",
          "name": "_newGeneGenerator",
          "type": "address"
        }
      ],
      "name": "updateGeneGenerator",
      "outputs": [],
      "stateMutability": "nonpayable",
      "type": "function"
    },
    {
      "inputs": [
        {
          "internalType": "address",
          "name": "_newOrigin",
          "type": "address"
        }
      ],
      "name": "updateOrigin",
      "outputs": [],
      "stateMutability": "nonpayable",
      "type": "function"
    },
    {
      "inputs": [],
      "name": "warriorGeneGeneratorContract",
      "outputs": [
        {
          "internalType": "address",
          "name": "",
          "type": "address"
        }
      ],
      "stateMutability": "view",
      "type": "function"
    },
    {
      "inputs": [],
      "name": "warriorsContract",
      "outputs": [
        {
          "internalType": "address",
          "name": "",
          "type": "address"
        }
      ],
      "stateMutability": "view",
      "type": "function"
    }
  ],
  "bytecode": "0x60806040523480156200001157600080fd5b50620000467f0a6c4bdcafc905ead93dabad19c6457a5271639b5ae1e5a65a2dc9ed7176101d60001b620000f560201b60201c565b6200007a7f9830d5474727b9c9009c8a9a26d7d0d8b99229864b9b6dba31abe18bca7f4e4660001b620000f560201b60201c565b620000ae7fe1ac1ecc3fe9d9ce69cc17f842dd8ecb8fca56935fee72fb8316322d2f24a9c260001b620000f560201b60201c565b33600160006101000a81548173ffffffffffffffffffffffffffffffffffffffff021916908373ffffffffffffffffffffffffffffffffffffffff160217905550620000f8565b50565b6123d980620001086000396000f3fe608060405234801561001057600080fd5b50600436106101005760003560e01c80639b155b9211610097578063c323698311610066578063c32369831461029b578063e0e2cf37146102b9578063f851a440146102d5578063fa540801146102f357610100565b80639b155b9214610213578063a7bb580314610231578063a8a3c4cd14610263578063c0c53b8b1461027f57610100565b8063392e53cd116100d3578063392e53cd14610189578063575f6a9d146101a7578063938b5f32146101c557806397aba7f9146101e357610100565b806309bb02c0146101055780630de92adb146101355780631df4e07c14610151578063303614dd1461016d575b600080fd5b61011f600480360381019061011a9190611988565b610323565b60405161012c9190611dd9565b60405180910390f35b61014f600480360381019061014a9190611a96565b6103dd565b005b61016b600480360381019061016691906119f7565b6103e0565b005b61018760048036038101906101829190611908565b61076c565b005b610191610aec565b60405161019e9190611f7b565b60405180910390f35b6101af610aff565b6040516101bc9190611e70565b60405180910390f35b6101cd610b38565b6040516101da9190611dbe565b60405180910390f35b6101fd60048036038101906101f89190611ac3565b610b5c565b60405161020a9190611dbe565b60405180910390f35b61021b610ca8565b6040516102289190611dbe565b60405180910390f35b61024b60048036038101906102469190611b1f565b610cce565b60405161025a93929190611df4565b60405180910390f35b61027d60048036038101906102789190611a96565b610e3e565b005b61029960048036038101906102949190611935565b610e41565b005b6102a36113da565b6040516102b09190611dbe565b60405180910390f35b6102d360048036038101906102ce9190611908565b611400565b005b6102dd61177f565b6040516102ea9190611dbe565b60405180910390f35b61030d60048036038101906103089190611a96565b6117a5565b60405161031a9190611dd9565b60405180910390f35b60006103517feb85db096080317f08608909412357483d2974a4853b075f8927781cabadd87360001b6103dd565b61037d7f64d93edee249e182c2145a7ea880fcc8ac44a5e08956be49d4a665696f2cd25e60001b6103dd565b6103a97f350034bdd4326e41d977324dcc317a103f6a0823e3e3684f1727b9cd5d0c38a560001b6103dd565b8383836040516020016103be93929190611d54565b6040516020818303038152906040528051906020012090509392505050565b50565b83828261040f7f66adf8ce7af2e2eba0cdd6228f3191d2b8bd22be2d2d0401c9141af81d8714ff60001b6103dd565b61043b7f5e42d26f88d12613aab9d326427a86dff6ed8fdafb2b5503efc38ae2cfb3a0fa60001b6103dd565b6104677ff221e3e04251303323e19736bb26e9456371560f8c846c7e1487533a47a260a160001b6103dd565b6000610474308585610323565b90506104a27ff43d5fa4049e1de3e240616b5613d964cb4f03c43a1dab1322819c955b98956e60001b6103dd565b6104ce7fe3aa0782dbf50feda803254fd95e8b5c81197715c24678a8d02788f18db3f84160001b6103dd565b60006104d9826117a5565b90506105077ff19eca2d09bbd5dc40c8b816266d611f0ebd21fb0b07a486c78b3df817c3382260001b6103dd565b6105337f086420c787a84b5bc0a1909bf470f2357ed06f43cfad61105bcb7d15efe5ed0660001b6103dd565b61055f7faf23f02ce6b888dbca38d8f3459618fba6bb953c2a7ec3a4813d352d5fed522660001b6103dd565b60008054906101000a900473ffffffffffffffffffffffffffffffffffffffff1673ffffffffffffffffffffffffffffffffffffffff166105a08285610b5c565b73ffffffffffffffffffffffffffffffffffffffff16146105f6576040517f08c379a00000000000000000000000000000000000000000000000000000000081526004016105ed90611ed2565b60405180910390fd5b6106227f6b2cc2bccd07118d04035fedf466244aac3c5ff51e9f1b76201a45b2c777f6b860001b6103dd565b61064e7f3ac6bd2d0fced9919a0104d4ce9bef30a566f3114325f24cb9bd1b745a1bd07460001b6103dd565b61067a7ff464852e4a00c4db3788a961c3f9787864d65115e4e9e39b70561432f44444ff60001b6103dd565b6106a67f3f775b939e52e507c0bce00f50c08e6824a9b4034181ff529967a5ce0eaf351360001b6103dd565b6106d27fbe93eba235ca9b1a89f8f092051c4e4d11980d6d0a65062ab1d144fbbc21822e60001b6103dd565b600260009054906101000a900473ffffffffffffffffffffffffffffffffffffffff1673ffffffffffffffffffffffffffffffffffffffff1663b71df989898b6040518363ffffffff1660e01b815260040161072f929190611f52565b600060405180830381600087803b15801561074957600080fd5b505af115801561075d573d6000803e3d6000fd5b50505050505050505050505050565b6107987f5214a36ff73f259da85a67330853815ac0b886fd3ef9e51d76b9ef001de9fca060001b6103dd565b6107c47ff56c86eeec8f869682c19cfc5cb0249b12f6a9e49bb9bae9d00e51e0428f185360001b6103dd565b6107f07ff9fb6bd240bf63fce41072ed469accc8dac08860c6a1a1d1651c13ced80209c060001b6103dd565b61081c7f108fe8ad976d200805e786d27264e3fde98ddeb7025d86e8403e981836a6622460001b6103dd565b600160009054906101000a900473ffffffffffffffffffffffffffffffffffffffff1673ffffffffffffffffffffffffffffffffffffffff163373ffffffffffffffffffffffffffffffffffffffff16146108ac576040517f08c379a00000000000000000000000000000000000000000000000000000000081526004016108a390611e92565b60405180910390fd5b6108d87ff5d7e758223767f2a3c59bbfbecacab4bd8503747154994f329d3980da99bcb960001b6103dd565b6109047f3ec9afe6285eb009f34a5bb79f07ee7e9e015a65d5c3dea0a6de6233337121c960001b6103dd565b6109307fea5ff9dbbf209e7370ab354442b21c18c1c483893d834f2be8c392f5c080cdeb60001b6103dd565b61095c7f51bac47c7c39837500dcebaaecfce7f119c4b1c0725546c08221fca3d8d017e160001b6103dd565b6109887f75dd6b8fc6902b71abd8d8f33108f34d79dcfc820a3d35402b2f4c1a3cedcdf360001b6103dd565b6109b47fcbbfdaf12e3ec62fee960fb2ae3571b9c371bf624267754c992220ed4da0521d60001b6103dd565b600073ffffffffffffffffffffffffffffffffffffffff168173ffffffffffffffffffffffffffffffffffffffff161415610a24576040517f08c379a0000000000000000000000000000000000000000000000000000000008152600401610a1b90611eb2565b60405180910390fd5b610a507f42ae8f46b59084cffe215ee4d3866a6119f01f44c1251beeeb9671810b81641260001b6103dd565b610a7c7f0f45ed72c28fbbad2573c02c761e84792617a344c1b3e0c6bd236d96ed23587b60001b6103dd565b610aa87f3bbaec9dd09b45b41e3970f995f2f272d2a5dd0633cee64d224227d753f55b8160001b6103dd565b80600360006101000a81548173ffffffffffffffffffffffffffffffffffffffff021916908373ffffffffffffffffffffffffffffffffffffffff16021790555050565b600360149054906101000a900460ff1681565b6040518060400160405280600a81526020017f302e312e302d626574610000000000000000000000000000000000000000000081525081565b60008054906101000a900473ffffffffffffffffffffffffffffffffffffffff1681565b6000610b8a7fddbe44bdc8cddb23b55a7af76a6d7602b7892b70436fd7d07d0d96a0b78c633160001b610e3e565b610bb67f8967ece99b5125969215602ba9232811b818276c1831fca8e2af7c6bcb1f646460001b610e3e565b610be27fa6b6eebc3667b9870a2426c825a9401335b7cdb43562cf71b84f555a2f81bd2b60001b610e3e565b6000806000610bf085610cce565b925092509250610c227fcce276c5b267334e5808039f3f4e3267bd729d0074ff4604abc4194ed4205fc660001b610e3e565b610c4e7fa38cf99f068998872e1b2157a88b013f1ec41610acb73668ce05a4fc7a0a2fc060001b610e3e565b60018682858560405160008152602001604052604051610c719493929190611e2b565b6020604051602081039080840390855afa158015610c93573d6000803e3d6000fd5b50505060206040510351935050505092915050565b600260009054906101000a900473ffffffffffffffffffffffffffffffffffffffff1681565b6000806000610cff7f193f4b7ef915a758eaf8b46ca98a036345773bd3740c831059c5174bb46e5dca60001b610e3e565b610d2b7fb2422e47f377da482db156fcad6182ea0921aed0b956e29e6c3e287bd0def38360001b610e3e565b610d577f6df93e0d3df45c45856d338eae40e336e8471ebcd7d9e7518ba399b62903d52560001b610e3e565b610d837f4f954ef4955fe7993b48a3ef2794a5803a81b4feef6dc157f2bfa9801e23434d60001b610e3e565b6041845114610dc7576040517f08c379a0000000000000000000000000000000000000000000000000000000008152600401610dbe90611f32565b60405180910390fd5b610df37fb93e0a2a3c80a44532ca67403840edb1a0aa54a05bb88745d019bd775767cccb60001b610e3e565b610e1f7f5a961f71ad312d614461e75a73284fb6ba60e9131717251417c74ad564fe68c660001b610e3e565b6020840151925060408401519150606084015160001a90509193909250565b50565b610e6d7f5214a36ff73f259da85a67330853815ac0b886fd3ef9e51d76b9ef001de9fca060001b6103dd565b610e997ff56c86eeec8f869682c19cfc5cb0249b12f6a9e49bb9bae9d00e51e0428f185360001b6103dd565b610ec57ff9fb6bd240bf63fce41072ed469accc8dac08860c6a1a1d1651c13ced80209c060001b6103dd565b610ef17f108fe8ad976d200805e786d27264e3fde98ddeb7025d86e8403e981836a6622460001b6103dd565b600160009054906101000a900473ffffffffffffffffffffffffffffffffffffffff1673ffffffffffffffffffffffffffffffffffffffff163373ffffffffffffffffffffffffffffffffffffffff1614610f81576040517f08c379a0000000000000000000000000000000000000000000000000000000008152600401610f7890611e92565b60405180910390fd5b610fad7ff5d7e758223767f2a3c59bbfbecacab4bd8503747154994f329d3980da99bcb960001b6103dd565b610fd97f3ec9afe6285eb009f34a5bb79f07ee7e9e015a65d5c3dea0a6de6233337121c960001b6103dd565b6110057f9152630db78103f32e4b944516edfa81f14a724994b1eb87ee986c0232cfdd9260001b6103dd565b6110317fdfdc1da4f057c261230f79a715f9dea44b784bc9342179f0e8563249239b2caf60001b6103dd565b61105d7ffbf2962ee88944d0e60386a5366fa03cea3b23bbe5c2aa76c73c013614583a3160001b6103dd565b6110897feda975214ad5f4029e1d4aafebbfa2fbd792711293f58b503a750e458f759c7b60001b6103dd565b600073ffffffffffffffffffffffffffffffffffffffff168373ffffffffffffffffffffffffffffffffffffffff16141580156110f35750600073ffffffffffffffffffffffffffffffffffffffff168273ffffffffffffffffffffffffffffffffffffffff1614155b801561112c5750600073ffffffffffffffffffffffffffffffffffffffff168173ffffffffffffffffffffffffffffffffffffffff1614155b61116b576040517f08c379a000000000000000000000000000000000000000000000000000000000815260040161116290611f12565b60405180910390fd5b6111977fef2f647472c449d51b7149dd61717ef0934b10fb5c6e2e38865785dd0dd4d8fe60001b6103dd565b6111c37f11b88262fc26a641f673b98b91e6e7300c514bf086bb6306e7d8493f0efb48e760001b6103dd565b6111ef7f64b7f29dc020fd32a688221e98cfbdef4c159a90f5a40755b17a95cf1ca34fbf60001b6103dd565b826000806101000a81548173ffffffffffffffffffffffffffffffffffffffff021916908373ffffffffffffffffffffffffffffffffffffffff16021790555061125b7fde484920c07ee1e8053a6f6b82cd7faa29ba7b914c16914e0f9136f29aa9149660001b6103dd565b6112877f68235215e35eeb99ffb2a034223bb2bc4768ceb953dcba56678ed1b74b23ebfa60001b6103dd565b81600260006101000a81548173ffffffffffffffffffffffffffffffffffffffff021916908373ffffffffffffffffffffffffffffffffffffffff1602179055506112f47f06cf5d159376afd5439b89b32726a113f132984fffd0a4af71464acb1174b7ec60001b6103dd565b6113207f5b4dd310cb7443d71d9810c689d1d357d47870a802bd3a920e8589790eaa92c760001b6103dd565b80600360006101000a81548173ffffffffffffffffffffffffffffffffffffffff021916908373ffffffffffffffffffffffffffffffffffffffff16021790555061138d7f0569be489f79556af8407a324c5672e3e64cf0e3215e9556156ae9b7ee00c5b060001b6103dd565b6113b97f8c974ffdf498883f05a823e15737dad5d3168480cab6c58de294d89c6a328bc260001b6103dd565b6001600360146101000a81548160ff021916908360ff160217905550505050565b600360009054906101000a900473ffffffffffffffffffffffffffffffffffffffff1681565b61142c7f5214a36ff73f259da85a67330853815ac0b886fd3ef9e51d76b9ef001de9fca060001b6103dd565b6114587ff56c86eeec8f869682c19cfc5cb0249b12f6a9e49bb9bae9d00e51e0428f185360001b6103dd565b6114847ff9fb6bd240bf63fce41072ed469accc8dac08860c6a1a1d1651c13ced80209c060001b6103dd565b6114b07f108fe8ad976d200805e786d27264e3fde98ddeb7025d86e8403e981836a6622460001b6103dd565b600160009054906101000a900473ffffffffffffffffffffffffffffffffffffffff1673ffffffffffffffffffffffffffffffffffffffff163373ffffffffffffffffffffffffffffffffffffffff1614611540576040517f08c379a000000000000000000000000000000000000000000000000000000000815260040161153790611e92565b60405180910390fd5b61156c7ff5d7e758223767f2a3c59bbfbecacab4bd8503747154994f329d3980da99bcb960001b6103dd565b6115987f3ec9afe6285eb009f34a5bb79f07ee7e9e015a65d5c3dea0a6de6233337121c960001b6103dd565b6115c47f76c0dbec96f32b7b07310137d73d750d1db97ef2de9fbe787e19dcfdb6714f2460001b6103dd565b6115f07fa7cfa68562202adbd20ccea4387f3dbbf0463d5141842ac117c20f5e5800a30160001b6103dd565b61161c7f362afad5a0f03f1b90c6cbc5ffada6226e04b2794ca3b3f422b844ea81a88b6660001b6103dd565b6116487f23070403ab7b25ec0823f4abd0fa2e121a605128a055d2e7bef67f7997536c2360001b6103dd565b600073ffffffffffffffffffffffffffffffffffffffff168173ffffffffffffffffffffffffffffffffffffffff1614156116b8576040517f08c379a00000000000000000000000000000000000000000000000000000000081526004016116af90611ef2565b60405180910390fd5b6116e47f8726b3404559487927e36c14e71f8dbbd6c3566260ad9bd64fbfbe56957fb0cc60001b6103dd565b6117107fefd08d6f6d63bb61d52380140490f658bab06229a84d6c70ab7388b76a9928ab60001b6103dd565b61173c7fe0078853527209c6d96cec917c9763a888a70cc75d424be2dfba9039ba3a0f3b60001b6103dd565b806000806101000a81548173ffffffffffffffffffffffffffffffffffffffff021916908373ffffffffffffffffffffffffffffffffffffffff16021790555050565b600160009054906101000a900473ffffffffffffffffffffffffffffffffffffffff1681565b60006117d37f9ed6c50f39590b7773dae757c93801284810a4f93fb0421f9616139d0b80b8b760001b610e3e565b6117ff7f27ff01305f78ec8eb942e08356c1168c638c1150bd8bfc432aadb9c8a32abc3e60001b610e3e565b61182b7ff8c0fa54c76e6acd10c879c858ce73af03843c147899f4c75ec798ef84ab009f60001b610e3e565b8160405160200161183c9190611d98565b604051602081830303815290604052805190602001209050919050565b600061186c61186784611fbb565b611f96565b90508281526020810184848401111561188857611887612151565b5b61189384828561207c565b509392505050565b6000813590506118aa8161235e565b92915050565b6000813590506118bf81612375565b92915050565b600082601f8301126118da576118d961214c565b5b81356118ea848260208601611859565b91505092915050565b6000813590506119028161238c565b92915050565b60006020828403121561191e5761191d61215b565b5b600061192c8482850161189b565b91505092915050565b60008060006060848603121561194e5761194d61215b565b5b600061195c8682870161189b565b935050602061196d8682870161189b565b925050604061197e8682870161189b565b9150509250925092565b6000806000606084860312156119a1576119a061215b565b5b60006119af8682870161189b565b93505060206119c08682870161189b565b925050604084013567ffffffffffffffff8111156119e1576119e0612156565b5b6119ed868287016118c5565b9150509250925092565b60008060008060808587031215611a1157611a1061215b565b5b6000611a1f8782880161189b565b9450506020611a30878288016118f3565b935050604085013567ffffffffffffffff811115611a5157611a50612156565b5b611a5d878288016118c5565b925050606085013567ffffffffffffffff811115611a7e57611a7d612156565b5b611a8a878288016118c5565b91505092959194509250565b600060208284031215611aac57611aab61215b565b5b6000611aba848285016118b0565b91505092915050565b60008060408385031215611ada57611ad961215b565b5b6000611ae8858286016118b0565b925050602083013567ffffffffffffffff811115611b0957611b08612156565b5b611b15858286016118c5565b9150509250929050565b600060208284031215611b3557611b3461215b565b5b600082013567ffffffffffffffff811115611b5357611b52612156565b5b611b5f848285016118c5565b91505092915050565b611b7181612029565b82525050565b611b88611b8382612029565b6120ef565b82525050565b611b978161203b565b82525050565b611bae611ba98261203b565b612101565b82525050565b6000611bbf82611fec565b611bc98185612002565b9350611bd981856020860161208b565b80840191505092915050565b6000611bf082611ff7565b611bfa818561200d565b9350611c0a81856020860161208b565b611c1381612160565b840191505092915050565b6000611c2b60118361201e565b9150611c368261217e565b601182019050919050565b6000611c4e601c8361201e565b9150611c59826121a7565b601c82019050919050565b6000611c7160248361200d565b9150611c7c826121d0565b604082019050919050565b6000611c9460318361200d565b9150611c9f8261221f565b604082019050919050565b6000611cb7601a8361200d565b9150611cc28261226e565b602082019050919050565b6000611cda60298361200d565b9150611ce582612297565b604082019050919050565b6000611cfd60248361200d565b9150611d08826122e6565b604082019050919050565b6000611d2060188361200d565b9150611d2b82612335565b602082019050919050565b611d3f81612065565b82525050565b611d4e8161206f565b82525050565b6000611d608286611b77565b601482019150611d708285611b77565b601482019150611d808284611bb4565b9150611d8b82611c1e565b9150819050949350505050565b6000611da382611c41565b9150611daf8284611b9d565b60208201915081905092915050565b6000602082019050611dd36000830184611b68565b92915050565b6000602082019050611dee6000830184611b8e565b92915050565b6000606082019050611e096000830186611b8e565b611e166020830185611b8e565b611e236040830184611d45565b949350505050565b6000608082019050611e406000830187611b8e565b611e4d6020830186611d45565b611e5a6040830185611b8e565b611e676060830184611b8e565b95945050505050565b60006020820190508181036000830152611e8a8184611be5565b905092915050565b60006020820190508181036000830152611eab81611c64565b9050919050565b60006020820190508181036000830152611ecb81611c87565b9050919050565b60006020820190508181036000830152611eeb81611caa565b9050919050565b60006020820190508181036000830152611f0b81611ccd565b9050919050565b60006020820190508181036000830152611f2b81611cf0565b9050919050565b60006020820190508181036000830152611f4b81611d13565b9050919050565b6000604082019050611f676000830185611d36565b611f746020830184611b68565b9392505050565b6000602082019050611f906000830184611d45565b92915050565b6000611fa0611fb1565b9050611fac82826120be565b919050565b6000604051905090565b600067ffffffffffffffff821115611fd657611fd561211d565b5b611fdf82612160565b9050602081019050919050565b600081519050919050565b600081519050919050565b600081905092915050565b600082825260208201905092915050565b600081905092915050565b600061203482612045565b9050919050565b6000819050919050565b600073ffffffffffffffffffffffffffffffffffffffff82169050919050565b6000819050919050565b600060ff82169050919050565b82818337600083830152505050565b60005b838110156120a957808201518184015260208101905061208e565b838111156120b8576000848401525b50505050565b6120c782612160565b810181811067ffffffffffffffff821117156120e6576120e561211d565b5b80604052505050565b60006120fa8261210b565b9050919050565b6000819050919050565b600061211682612171565b9050919050565b7f4e487b7100000000000000000000000000000000000000000000000000000000600052604160045260246000fd5b600080fd5b600080fd5b600080fd5b600080fd5b6000601f19601f8301169050919050565b60008160601b9050919050565b7f67656e657261746557617272696f722829000000000000000000000000000000600082015250565b7f19457468657265756d205369676e6564204d6573736167653a0a333200000000600082015250565b7f436f6e74726f6c6c65723a206f6e6c792061646d696e2066756e6374696f6e6160008201527f6c69747900000000000000000000000000000000000000000000000000000000602082015250565b7f436f6e74726f6c6c65723a2067656e652067656e657261746f722063616e6e6f60008201527f74206265207a65726f2061646472657373000000000000000000000000000000602082015250565b7f436f6e74726f6c6c65723a20696e76616c6964206f726967696e000000000000600082015250565b7f436f6e74726f6c6c65723a206f726967696e2063616e6e6f74206265207a657260008201527f6f20616464726573730000000000000000000000000000000000000000000000602082015250565b7f436f6e74726f6c6c65723a207a65726f2061646472657373206e6f7420616c6c60008201527f6f77656400000000000000000000000000000000000000000000000000000000602082015250565b7f696e76616c6964207369676e6174757265206c656e6774680000000000000000600082015250565b61236781612029565b811461237257600080fd5b50565b61237e8161203b565b811461238957600080fd5b50565b61239581612065565b81146123a057600080fd5b5056fea26469706673582212208760e67723bdb8554c82ba356a3b1845959a38329ac9fd14dd9cab987fef7b1c64736f6c63430008060033",
  "linkReferences": {},
  "deployedLinkReferences": {}
}