{
  "_format": "hh-sol-artifact-1",
  "contractName": "OriginControl",
  "sourceName": "contracts/access/OriginControl.sol",
  "abi": [
    {
      "inputs": [],
      "name": "admin",
      "outputs": [
        {
          "internalType": "address",
          "name": "",
          "type": "address"
        }
      ],
      "stateMutability": "view",
      "type": "function"
    },
    {
      "inputs": [
        {
          "internalType": "bytes32",
          "name": "c__0x2990dd1c",
          "type": "bytes32"
        }
      ],
      "name": "c_0x2990dd1c",
      "outputs": [],
      "stateMutability": "pure",
      "type": "function"
    },
    {
      "inputs": [
        {
          "internalType": "bytes32",
          "name": "c__0x90b130ba",
          "type": "bytes32"
        }
      ],
      "name": "c_0x90b130ba",
      "outputs": [],
      "stateMutability": "pure",
      "type": "function"
    },
    {
      "inputs": [
        {
          "internalType": "bytes32",
          "name": "c__0xfe7be20b",
          "type": "bytes32"
        }
      ],
      "name": "c_0xfe7be20b",
      "outputs": [],
      "stateMutability": "pure",
      "type": "function"
    },
    {
      "inputs": [
        {
          "internalType": "address",
          "name": "_to",
          "type": "address"
        },
        {
          "internalType": "address",
          "name": "_from",
          "type": "address"
        },
        {
          "internalType": "bytes32",
          "name": "_metadata",
          "type": "bytes32"
        }
      ],
      "name": "generateHash",
      "outputs": [
        {
          "internalType": "bytes32",
          "name": "",
          "type": "bytes32"
        }
      ],
      "stateMutability": "pure",
      "type": "function"
    },
    {
      "inputs": [
        {
          "internalType": "bytes32",
          "name": "_messageHash",
          "type": "bytes32"
        }
      ],
      "name": "getEthSignedMessageHash",
      "outputs": [
        {
          "internalType": "bytes32",
          "name": "",
          "type": "bytes32"
        }
      ],
      "stateMutability": "pure",
      "type": "function"
    },
    {
      "inputs": [],
      "name": "origin",
      "outputs": [
        {
          "internalType": "address",
          "name": "",
          "type": "address"
        }
      ],
      "stateMutability": "view",
      "type": "function"
    },
    {
      "inputs": [
        {
          "internalType": "bytes32",
          "name": "_ethSignedMessageHash",
          "type": "bytes32"
        },
        {
          "internalType": "bytes",
          "name": "_signature",
          "type": "bytes"
        }
      ],
      "name": "recoverSigner",
      "outputs": [
        {
          "internalType": "address",
          "name": "",
          "type": "address"
        }
      ],
      "stateMutability": "pure",
      "type": "function"
    },
    {
      "inputs": [
        {
          "internalType": "address",
          "name": "_newOrigin",
          "type": "address"
        }
      ],
      "name": "setOrigin",
      "outputs": [],
      "stateMutability": "nonpayable",
      "type": "function"
    },
    {
      "inputs": [
        {
          "internalType": "bytes",
          "name": "sig",
          "type": "bytes"
        }
      ],
      "name": "splitSignature",
      "outputs": [
        {
          "internalType": "bytes32",
          "name": "r",
          "type": "bytes32"
        },
        {
          "internalType": "bytes32",
          "name": "s",
          "type": "bytes32"
        },
        {
          "internalType": "uint8",
          "name": "v",
          "type": "uint8"
        }
      ],
      "stateMutability": "pure",
      "type": "function"
    }
  ],
  "bytecode": "0x608060405234801561001057600080fd5b506100437fab356af44e70dfaa571c9eff4e95bec7e8b3e404e2ec52d0d4b7fb5cb8cbc38660001b6100ec60201b60201c565b6100757fc97dd08e0216f5daf69d4ced9e1cd33817800eb601c7e8e1f62926d6ca2d1bef60001b6100ec60201b60201c565b6100a77fab21c9b0efbd8e582404024f54c4147710cf8bfc0d76618541a3b4b7b8047ef360001b6100ec60201b60201c565b336000806101000a81548173ffffffffffffffffffffffffffffffffffffffff021916908373ffffffffffffffffffffffffffffffffffffffff1602179055506100ef565b50565b6111d5806100fe6000396000f3fe608060405234801561001057600080fd5b506004361061009e5760003560e01c806397aba7f91161006657806397aba7f914610145578063a7bb580314610175578063a8a3c4cd146101a7578063f851a440146101c3578063fa540801146101e15761009e565b8063043baf80146100a35780633b7efe1a146100d357806347c484e9146100ef57806366f07bfe1461010b578063938b5f3214610127575b600080fd5b6100bd60048036038101906100b89190610ad3565b610211565b6040516100ca9190610d8b565b60405180910390f35b6100ed60048036038101906100e89190610b26565b6102cb565b005b61010960048036038101906101049190610aa6565b6102ce565b005b61012560048036038101906101209190610b26565b61064c565b005b61012f61064f565b60405161013c9190610d70565b60405180910390f35b61015f600480360381019061015a9190610b53565b610675565b60405161016c9190610d70565b60405180910390f35b61018f600480360381019061018a9190610baf565b6107c1565b60405161019e93929190610da6565b60405180910390f35b6101c160048036038101906101bc9190610b26565b610931565b005b6101cb610934565b6040516101d89190610d70565b60405180910390f35b6101fb60048036038101906101f69190610b26565b610958565b6040516102089190610d8b565b60405180910390f35b600061023f7fc114c1a8ff6203e3a676e84bc62fb96c9e82a200ca778aba9fc1489123ba9e5d60001b61064c565b61026b7f4721ff9508e3a9ba068c830554fa10ab206963bba498ad0781e381f486baf6d160001b61064c565b6102977f1c899f81e3a1e580803f797a154f6615c1be27b6d8b7f5ac98c636413ad22be660001b61064c565b8383836040516020016102ac93929190610d02565b6040516020818303038152906040528051906020012090509392505050565b50565b6102fa7fa8f9d7948db65fae211860092525fc5eb37e952e314981f059246efd6f16906d60001b6102cb565b6103267fb8dac615c01a31f9131427062142c6506d5e94d74953208eafa4ce8094383d9060001b6102cb565b6103527fc628d02aabf0211aef84eec60b903ae06507ad22f4d767d6ad08550e929d604260001b6102cb565b61037e7f9788ab210042dcec27b8ca223a55988e807c5de1dd722015bd16ee100e43b1a760001b6102cb565b60008054906101000a900473ffffffffffffffffffffffffffffffffffffffff1673ffffffffffffffffffffffffffffffffffffffff163373ffffffffffffffffffffffffffffffffffffffff161461040c576040517f08c379a000000000000000000000000000000000000000000000000000000000815260040161040390610e22565b60405180910390fd5b6104387f923852c9e9ac990c2f7281435502304e5fefb65ce421e3de95c8194f05cf2f2a60001b6102cb565b6104647fa83cd916d47ec1de64e2045e0c5cf2afa3a01a5f0a798ddfb57dcc1bdf48067460001b6102cb565b6104907f11564ba513f75f6c17d5090f57c7911bd5da4b6f75c9c340ec7c4688411a1df860001b61064c565b6104bc7f9eeb6d4840a2d0e50be15960516d39f1d149f78747b33e90cd3b58a8700197eb60001b61064c565b6104e87f285c810941d489a9f60ad8ac8d2192ef67dea46ca4c7fa8fba24483524d7ece860001b61064c565b6105147fe38ad4030eb69ddb7f1feefbe6f81cbb26d9d9a44f826cba07c36b273aa93cbd60001b61064c565b600073ffffffffffffffffffffffffffffffffffffffff168173ffffffffffffffffffffffffffffffffffffffff161415610584576040517f08c379a000000000000000000000000000000000000000000000000000000000815260040161057b90610e42565b60405180910390fd5b6105b07f320eb6ebaaa304e33ef8f9e205b680dac8cdddd22f39d737878c05573e004bec60001b61064c565b6105dc7f0263d49268a56e65bcaa127b297af04f766c0a4360043a5123c561c7827eeece60001b61064c565b6106087fb64c711c8782049959e1bc689495139431b3a3aeef4e46e9a507f19bc2fb045960001b61064c565b80600160006101000a81548173ffffffffffffffffffffffffffffffffffffffff021916908373ffffffffffffffffffffffffffffffffffffffff16021790555050565b50565b600160009054906101000a900473ffffffffffffffffffffffffffffffffffffffff1681565b60006106a37fd9ac1063bb20b10a7cabf0a12fa0deca484aa5ac04855e9e62e0d13f4e0d9d7860001b610931565b6106cf7faf92b2aa8baa1aa1813f82f5096c499a2a50ebd728e16ea434c65ba586ba814960001b610931565b6106fb7f5fadafdbf18fa4894c113ae24419291ec99f8a42e7089a81ebba2625de053b5f60001b610931565b6000806000610709856107c1565b92509250925061073b7f1ee8cd755ba2bd85ec500988f24a34cc8c77c9367cad2e781c2d21f95274716660001b610931565b6107677f05813349e71b6151bb6827ef3b50e837a6727fca3e5bd60edbe3253c67bb3f1b60001b610931565b6001868285856040516000815260200160405260405161078a9493929190610ddd565b6020604051602081039080840390855afa1580156107ac573d6000803e3d6000fd5b50505060206040510351935050505092915050565b60008060006107f27fd9eb42db19d36ba08afdf76569895660e246593397cc1c0de9a120798c26179960001b610931565b61081e7f29af21383d7cf85cef2dd53fb1679069dbebd2f0ae2c118a190684d5434b877f60001b610931565b61084a7fe65a51732487d9eaf14f6018266da224d1b558238143577726fbf08a1a0699cd60001b610931565b6108767f279b11dd981cc5c64f032294e7c2828e93d2531777867795e6f8bf0f15c2d4cd60001b610931565b60418451146108ba576040517f08c379a00000000000000000000000000000000000000000000000000000000081526004016108b190610e62565b60405180910390fd5b6108e67f30edfe9f8d5d503332fe8d9d4c509b688dd80bd7bf7c45d4e96d499b78c1776760001b610931565b6109127fc8f2a8377e67ed37fc14e5c078c0e2029615aa3d5370a92b75cdb2736cc0419960001b610931565b6020840151925060408401519150606084015160001a90509193909250565b50565b60008054906101000a900473ffffffffffffffffffffffffffffffffffffffff1681565b60006109867ffcb4704cd96d9c53329a4c99fba3efb0260a8adc5e7c32ccbad3147f581c1f6c60001b610931565b6109b27f56d68e583482e39bdbe2180f142f7bc4caf776a6e5db8ecb0c38499db1be2acc60001b610931565b6109de7f72b8c5801540b2f7ba4f5d8cd90606b6d4d99169b1148d1560ffa0c6c37958e660001b610931565b816040516020016109ef9190610d4a565b604051602081830303815290604052805190602001209050919050565b6000610a1f610a1a84610ea7565b610e82565b905082815260208101848484011115610a3b57610a3a610fdf565b5b610a46848285610f3d565b509392505050565b600081359050610a5d81611171565b92915050565b600081359050610a7281611188565b92915050565b600082601f830112610a8d57610a8c610fda565b5b8135610a9d848260208601610a0c565b91505092915050565b600060208284031215610abc57610abb610fe9565b5b6000610aca84828501610a4e565b91505092915050565b600080600060608486031215610aec57610aeb610fe9565b5b6000610afa86828701610a4e565b9350506020610b0b86828701610a4e565b9250506040610b1c86828701610a63565b9150509250925092565b600060208284031215610b3c57610b3b610fe9565b5b6000610b4a84828501610a63565b91505092915050565b60008060408385031215610b6a57610b69610fe9565b5b6000610b7885828601610a63565b925050602083013567ffffffffffffffff811115610b9957610b98610fe4565b5b610ba585828601610a78565b9150509250929050565b600060208284031215610bc557610bc4610fe9565b5b600082013567ffffffffffffffff811115610be357610be2610fe4565b5b610bef84828501610a78565b91505092915050565b610c0181610ef4565b82525050565b610c18610c1382610ef4565b610f7d565b82525050565b610c2781610f06565b82525050565b610c3e610c3982610f06565b610f8f565b82525050565b6000610c51601c83610ee9565b9150610c5c8261100c565b601c82019050919050565b6000610c74602483610ed8565b9150610c7f82611035565b604082019050919050565b6000610c97602983610ed8565b9150610ca282611084565b604082019050919050565b6000610cba602983610ed8565b9150610cc5826110d3565b604082019050919050565b6000610cdd602f83610ee9565b9150610ce882611122565b602f82019050919050565b610cfc81610f30565b82525050565b6000610d0e8286610c07565b601482019150610d1e8285610c07565b601482019150610d2e8284610c2d565b602082019150610d3d82610cd0565b9150819050949350505050565b6000610d5582610c44565b9150610d618284610c2d565b60208201915081905092915050565b6000602082019050610d856000830184610bf8565b92915050565b6000602082019050610da06000830184610c1e565b92915050565b6000606082019050610dbb6000830186610c1e565b610dc86020830185610c1e565b610dd56040830184610cf3565b949350505050565b6000608082019050610df26000830187610c1e565b610dff6020830186610cf3565b610e0c6040830185610c1e565b610e196060830184610c1e565b95945050505050565b60006020820190508181036000830152610e3b81610c67565b9050919050565b60006020820190508181036000830152610e5b81610c8a565b9050919050565b60006020820190508181036000830152610e7b81610cad565b9050919050565b6000610e8c610e9d565b9050610e988282610f4c565b919050565b6000604051905090565b600067ffffffffffffffff821115610ec257610ec1610fab565b5b610ecb82610fee565b9050602081019050919050565b600082825260208201905092915050565b600081905092915050565b6000610eff82610f10565b9050919050565b6000819050919050565b600073ffffffffffffffffffffffffffffffffffffffff82169050919050565b600060ff82169050919050565b82818337600083830152505050565b610f5582610fee565b810181811067ffffffffffffffff82111715610f7457610f73610fab565b5b80604052505050565b6000610f8882610f99565b9050919050565b6000819050919050565b6000610fa482610fff565b9050919050565b7f4e487b7100000000000000000000000000000000000000000000000000000000600052604160045260246000fd5b600080fd5b600080fd5b600080fd5b600080fd5b6000601f19601f8301169050919050565b60008160601b9050919050565b7f19457468657265756d205369676e6564204d6573736167653a0a333200000000600082015250565b7f436f6e74726f6c6c65723a206f6e6c792061646d696e2066756e6374696f6e6160008201527f6c69747900000000000000000000000000000000000000000000000000000000602082015250565b7f436f6e74726f6c6c65723a206f726967696e2063616e6e6f74206265207a657260008201527f6f20616464726573730000000000000000000000000000000000000000000000602082015250565b7f5369676e617475726548656c7065723a20696e76616c6964207369676e61747560008201527f7265206c656e6774680000000000000000000000000000000000000000000000602082015250565b7f67656e657261746557617272696f7228616464726573732c206279746573333260008201527f2c206279746573206d656d6f7279290000000000000000000000000000000000602082015250565b61117a81610ef4565b811461118557600080fd5b50565b61119181610f06565b811461119c57600080fd5b5056fea264697066735822122086e32419a9756d0ae3e960e606399ad40d5e779b72658355ee6fb385c80f772164736f6c63430008060033",
  "linkReferences": {},
  "deployedLinkReferences": {}
}