{
  "_format": "hh-sol-artifact-1",
  "contractName": "OriginControl",
  "sourceName": "contracts/access/OriginControl.sol",
  "abi": [
    {
      "inputs": [],
      "name": "admin",
      "outputs": [
        {
          "internalType": "address",
          "name": "",
          "type": "address"
        }
      ],
      "stateMutability": "view",
      "type": "function"
    },
    {
      "inputs": [
        {
          "internalType": "address",
          "name": "_to",
          "type": "address"
        },
        {
          "internalType": "address",
          "name": "_from",
          "type": "address"
        },
        {
          "internalType": "bytes32",
          "name": "_metadata",
          "type": "bytes32"
        }
      ],
      "name": "generateHash",
      "outputs": [
        {
          "internalType": "bytes32",
          "name": "",
          "type": "bytes32"
        }
      ],
      "stateMutability": "pure",
      "type": "function"
    },
    {
      "inputs": [
        {
          "internalType": "bytes32",
          "name": "_messageHash",
          "type": "bytes32"
        }
      ],
      "name": "getEthSignedMessageHash",
      "outputs": [
        {
          "internalType": "bytes32",
          "name": "",
          "type": "bytes32"
        }
      ],
      "stateMutability": "pure",
      "type": "function"
    },
    {
      "inputs": [],
      "name": "origin",
      "outputs": [
        {
          "internalType": "address",
          "name": "",
          "type": "address"
        }
      ],
      "stateMutability": "view",
      "type": "function"
    },
    {
      "inputs": [
        {
          "internalType": "bytes32",
          "name": "_ethSignedMessageHash",
          "type": "bytes32"
        },
        {
          "internalType": "bytes",
          "name": "_signature",
          "type": "bytes"
        }
      ],
      "name": "recoverSigner",
      "outputs": [
        {
          "internalType": "address",
          "name": "",
          "type": "address"
        }
      ],
      "stateMutability": "pure",
      "type": "function"
    },
    {
      "inputs": [
        {
          "internalType": "address",
          "name": "_newOrigin",
          "type": "address"
        }
      ],
      "name": "setOrigin",
      "outputs": [],
      "stateMutability": "nonpayable",
      "type": "function"
    },
    {
      "inputs": [
        {
          "internalType": "bytes",
          "name": "sig",
          "type": "bytes"
        }
      ],
      "name": "splitSignature",
      "outputs": [
        {
          "internalType": "bytes32",
          "name": "r",
          "type": "bytes32"
        },
        {
          "internalType": "bytes32",
          "name": "s",
          "type": "bytes32"
        },
        {
          "internalType": "uint8",
          "name": "v",
          "type": "uint8"
        }
      ],
      "stateMutability": "pure",
      "type": "function"
    }
  ],
  "bytecode": "0x608060405234801561001057600080fd5b50336000806101000a81548173ffffffffffffffffffffffffffffffffffffffff021916908373ffffffffffffffffffffffffffffffffffffffff160217905550610c2e806100606000396000f3fe608060405234801561001057600080fd5b506004361061007d5760003560e01c806397aba7f91161005b57806397aba7f9146100ec578063a7bb58031461011c578063f851a4401461014e578063fa5408011461016c5761007d565b8063043baf801461008257806347c484e9146100b2578063938b5f32146100ce575b600080fd5b61009c6004803603810190610097919061052c565b61019c565b6040516100a991906107e4565b60405180910390f35b6100cc60048036038101906100c791906104ff565b6101d2565b005b6100d6610314565b6040516100e391906107c9565b60405180910390f35b610106600480360381019061010191906105ac565b61033a565b60405161011391906107c9565b60405180910390f35b61013660048036038101906101319190610608565b6103a9565b604051610145939291906107ff565b60405180910390f35b610156610411565b60405161016391906107c9565b60405180910390f35b6101866004803603810190610181919061057f565b610435565b60405161019391906107e4565b60405180910390f35b60008383836040516020016101b39392919061075b565b6040516020818303038152906040528051906020012090509392505050565b60008054906101000a900473ffffffffffffffffffffffffffffffffffffffff1673ffffffffffffffffffffffffffffffffffffffff163373ffffffffffffffffffffffffffffffffffffffff1614610260576040517f08c379a00000000000000000000000000000000000000000000000000000000081526004016102579061087b565b60405180910390fd5b600073ffffffffffffffffffffffffffffffffffffffff168173ffffffffffffffffffffffffffffffffffffffff1614156102d0576040517f08c379a00000000000000000000000000000000000000000000000000000000081526004016102c79061089b565b60405180910390fd5b80600160006101000a81548173ffffffffffffffffffffffffffffffffffffffff021916908373ffffffffffffffffffffffffffffffffffffffff16021790555050565b600160009054906101000a900473ffffffffffffffffffffffffffffffffffffffff1681565b600080600080610349856103a9565b925092509250600186828585604051600081526020016040526040516103729493929190610836565b6020604051602081039080840390855afa158015610394573d6000803e3d6000fd5b50505060206040510351935050505092915050565b600080600060418451146103f2576040517f08c379a00000000000000000000000000000000000000000000000000000000081526004016103e9906108bb565b60405180910390fd5b6020840151925060408401519150606084015160001a90509193909250565b60008054906101000a900473ffffffffffffffffffffffffffffffffffffffff1681565b60008160405160200161044891906107a3565b604051602081830303815290604052805190602001209050919050565b600061047861047384610900565b6108db565b90508281526020810184848401111561049457610493610a38565b5b61049f848285610996565b509392505050565b6000813590506104b681610bca565b92915050565b6000813590506104cb81610be1565b92915050565b600082601f8301126104e6576104e5610a33565b5b81356104f6848260208601610465565b91505092915050565b60006020828403121561051557610514610a42565b5b6000610523848285016104a7565b91505092915050565b60008060006060848603121561054557610544610a42565b5b6000610553868287016104a7565b9350506020610564868287016104a7565b9250506040610575868287016104bc565b9150509250925092565b60006020828403121561059557610594610a42565b5b60006105a3848285016104bc565b91505092915050565b600080604083850312156105c3576105c2610a42565b5b60006105d1858286016104bc565b925050602083013567ffffffffffffffff8111156105f2576105f1610a3d565b5b6105fe858286016104d1565b9150509250929050565b60006020828403121561061e5761061d610a42565b5b600082013567ffffffffffffffff81111561063c5761063b610a3d565b5b610648848285016104d1565b91505092915050565b61065a8161094d565b82525050565b61067161066c8261094d565b6109d6565b82525050565b6106808161095f565b82525050565b6106976106928261095f565b6109e8565b82525050565b60006106aa601c83610942565b91506106b582610a65565b601c82019050919050565b60006106cd602483610931565b91506106d882610a8e565b604082019050919050565b60006106f0602983610931565b91506106fb82610add565b604082019050919050565b6000610713602983610931565b915061071e82610b2c565b604082019050919050565b6000610736602f83610942565b915061074182610b7b565b602f82019050919050565b61075581610989565b82525050565b60006107678286610660565b6014820191506107778285610660565b6014820191506107878284610686565b60208201915061079682610729565b9150819050949350505050565b60006107ae8261069d565b91506107ba8284610686565b60208201915081905092915050565b60006020820190506107de6000830184610651565b92915050565b60006020820190506107f96000830184610677565b92915050565b60006060820190506108146000830186610677565b6108216020830185610677565b61082e604083018461074c565b949350505050565b600060808201905061084b6000830187610677565b610858602083018661074c565b6108656040830185610677565b6108726060830184610677565b95945050505050565b60006020820190508181036000830152610894816106c0565b9050919050565b600060208201905081810360008301526108b4816106e3565b9050919050565b600060208201905081810360008301526108d481610706565b9050919050565b60006108e56108f6565b90506108f182826109a5565b919050565b6000604051905090565b600067ffffffffffffffff82111561091b5761091a610a04565b5b61092482610a47565b9050602081019050919050565b600082825260208201905092915050565b600081905092915050565b600061095882610969565b9050919050565b6000819050919050565b600073ffffffffffffffffffffffffffffffffffffffff82169050919050565b600060ff82169050919050565b82818337600083830152505050565b6109ae82610a47565b810181811067ffffffffffffffff821117156109cd576109cc610a04565b5b80604052505050565b60006109e1826109f2565b9050919050565b6000819050919050565b60006109fd82610a58565b9050919050565b7f4e487b7100000000000000000000000000000000000000000000000000000000600052604160045260246000fd5b600080fd5b600080fd5b600080fd5b600080fd5b6000601f19601f8301169050919050565b60008160601b9050919050565b7f19457468657265756d205369676e6564204d6573736167653a0a333200000000600082015250565b7f436f6e74726f6c6c65723a206f6e6c792061646d696e2066756e6374696f6e6160008201527f6c69747900000000000000000000000000000000000000000000000000000000602082015250565b7f436f6e74726f6c6c65723a206f726967696e2063616e6e6f74206265207a657260008201527f6f20616464726573730000000000000000000000000000000000000000000000602082015250565b7f5369676e617475726548656c7065723a20696e76616c6964207369676e61747560008201527f7265206c656e6774680000000000000000000000000000000000000000000000602082015250565b7f67656e657261746557617272696f7228616464726573732c206279746573333260008201527f2c206279746573206d656d6f7279290000000000000000000000000000000000602082015250565b610bd38161094d565b8114610bde57600080fd5b50565b610bea8161095f565b8114610bf557600080fd5b5056fea2646970667358221220177f3ce6167ddac89a77089dd1e25b2b7e72d65188f0cffda23c557c8386157364736f6c63430008060033",
  "linkReferences": {},
  "deployedLinkReferences": {}
}